:1007A90000C000F900A400B000990092008200F88E
:1007B90000800090004000790024003000190012E8
:0807C90000020078000000109E
:1007D100020C000002140000020E000002080000DA
:0A07E100020A0004041000000000EA
:10077C00C3740A950BFFE4950AFE1207977580FF68
:0B078C00AE0AAF0B7C007D051203637A
:10079700E4FDFCC3ED9FEC9E50070DBD00010C80EE
:0107A700F25F
:0107A800222E
:1006B8008F218E208D1F8C1EE4FBFA79C878421298
:1006C80001068F218E208D1F8C1EE4FFFEFDFCABE2
:1006D80021AA20A91FA81E1202AC60264024E50901
:1006E80020E01FAF21AE20AD1FAC1EE4FBFA7980DD
:1006F80078BF1200158F218E208D1F8C1EE50930C2
:10070800E0FBE4FBFA79C87842AF21AE20AD1FAC1C
:050718001E12020F2279
:0803CA00AB07AA068D828C83AB
:1003D2007C007D0AAF82AE83120375ED64014C701E
:1003E20015FC7D0AAF03AE02120375ED240AF5195E
:1003F200E43CF518800F7C007D0AAF03AE021203C5
:10040200758C188D197C007D0AAF82AE831203753C
:100412007C007D0A120375ED64014C701CFC7D0AA0
:10042200AF03AE021203757C007D0A120375ED2440
:100432000AF51BE43CF51A80167C007D0AAF03AE78
:10044200021203757C007D0A1203758C1A8D1BAE95
:1004520083AF827C007D641203757C007D0A1203E7
:1004620075ED64014C701CFC7D64AF03AE02120397
:10047200757C007D0A120375ED240AF51DE43CF536
:100482001C8016AE02AF037C007D641203757C00F3
:100492007D0A1203758C1C8D1DE51925E0FFE518F8
:1004A20033FE74A92FF58274073EF583740193F528
:1004B20080D2A1D2A0C2A212077CE51B25E0FFE5F3
:1004C2001A33FE74A92FF58274073EF583740193E3
:1004D200F580D2A2D2A0C2A112077CE51D25E0FFC1
:1004E200E51C33FE74A92FF58274073EF58374016F
:1004F20093F580D2A2D2A1C2A0C3740A950BFFE4E5
:10050200950AFE1207977580FFAE0AAF0B7C007D3D
:0705120005120363020797C5
:10051900AE14AF157C007D06120375AA06AB07AEB3
:100529000EAF0F7C007D0A120363EF2BFFEE3AFE3C
:100539001203CA20B53CC3E5159406E5149400508E
:100549001EE50F450E7007F50E750F178008E50FAC
:10055900150F7002150E74362515F515E48008740B
:10056900FA2515F51574FF3514F5147F707E1712E9
:10057900079720B63DC3E5159436E514940040204D
:10058900E50F6417450E7006F50EF50F8008050F87
:10059900E50F7002050E74CA2515F51574FF80075D
:1005A90074062515F515E43514F5147F707E1712B8
:0205B9000797A2
:0105BB00221D
:10064800D2A4D2B6D2B5D2B4758901758CEEE4F5D0
:070658008AD2AFD2A9D28CB7
:10065F00C2A3AE0EAF0F7C007D64120363E5152FAE
:10066F00F517E5143EF516E4FDAF17AE161203CAE3
:10067F0020B51AE50B640A450A7007F50A750B0ACF
:10068F008008050BE50B7002050A30B5FD20B6C0DA
:10069F00E50B450A7006F50AF50B8008E50B150BFF
:0906AF007002150A20B6A980FBB7
:03000B0002071DCC
:10071D00C0E0758CEE758A000509E50970020508C3
:10072D0064C84508700E050DE50D7002050C7508C1
:10073D0000750900E50D643C450C700E0515E515B9
:10074D0070020514750C00750D00E515643C45141B
:10075D00700E050FE50F7002050E7514007515006E
:0F076D00E50F6418450E7004F50EF50FD0E0325D
:10000E0002034EE86480F8E933E83360110460F0CF
:10001E00ED33EC337009E8FCE9FDEAFEEBFF220458
:10002E0060DED3EB9FEA9EE99DE8C2E78CF0C2F753
:10003E0095F0400CE8CCF8E9CDF9EACEFAEBCFFB1F
:10004E0012031985D0F05804700320D5B3E804705C
:10005E00075002B2D502035892D5EC0460F7E4CCF7
:10006E00C0E0C398F8603B94186008400DD0E0FBE8
:10007E00020330E4FBFAC9FC8028E830E406E4C948
:10008E00FBE4CAFCE830E305E4C9CACBFCE854073C
:10009E006010F8C3E913F9EA13FAEB13FBEC13FC47
:1000AE00D8F130F52FC3E49CFCEF9BFFEE9AFEEDEA
:1000BE0099FDD0E0FBEF4E4D4C701222DB03020394
:1000CE0055EC2CFCEF33FFEE33FEED33FDED30E758
:1000DE00EB020330EF2BFFEE3AFEED39FDD0E0FBE5
:1000EE0050130BBB0003020358ED13FDEE13FEEF8E
:0800FE0013FFEC13FC020330B8
:10010600EC4D6011E8497017ED33EC3304600DE4F3
:10011600FCFFFEFD22E933E8330470F802034E12B9
:10012600031958046009E4CC2481500628500902BA
:100136000358284003020355C0E0EB4A7044B980D7
:1001460006D0E0FB020344EF4E701CBD8008EBFFB7
:10015600EAFEE9FD80EBE98DF0A4FEE5F00201EF91
:10016600E9CDF9EAFEEBFFEF89F0A4FCE5F0CE89D4
:10017600F0A42EFFE435F0CD89F0A42DFEE435F091
:100186008067EF4E7005BD80D780C3EF8BF0A4ACBF
:10019600F0EE8BF0A42CFCE435F0F8EF8AF0A42CFA
:1001A600E5F038FCE433CB8DF0A42CFCE5F03BF80D
:1001B600EE8AF0A42CFCE5F038F8E433CF89F0A4FD
:1001C6002CFCE5F038CF3400CE89F0A42FFFE5F003
:1001D6003EFEE433C98DF0A42EFEE5F039CD8AF05B
:1001E600A42FFFE5F03EFEE43DFD33D0E0FB5007D3
:1001F6000BBB000F020358EC2CFCEF33FFEE33FE73
:06020600ED33FD020330A0
:10020C00020358EC5D046005E85904700302034EC8
:10021C00120319580460F6EC4860F2EC7004FDFE11
:10022C00FF22C860DB2481C85009C39860025006C5
:10023C000203559850CAF582E9294B4A7005AB82E6
:10024C0002034475F0007C1A7880C3EF9BEE9AEDA4
:10025C0099400DC3EF9BFFEE9AFEED99FDE842F03D
:10026C00DC23ACF0D0E0FFD0E0FED0E0FDAB822090
:10027C00E7101BEB60BAEC2CFCEF33FFEE33FEED1A
:10028C0033FD020330E803F830E705C0F075F000E9
:10029C00EF2FFFEE33FEED33FD40B830E7C280AAFE
:1002AC0074F8CC6480CCC86480C8F582046043C305
:1002BC00EB9FF5F0EA9E42F0E99D42F0E89C45F098
:1002CC0060305018E5825FFFE582F42B5582FB50BD
:1002DC00210ABA001D09B90019088016E5825BFBDA
:1002EC00E582F42F5582FF50090EBE00050DBD00AE
:1002FC00010CC3EB9FF5F0EA9E42F0E99D42F0E859
:0D030C009C45F06007CC4820E701B3EC22CF
:10031900E9D2E7C933E833F892D5EDD2E7CD33EC2A
:0703290033FC5002B2D522A3
:10033000EC30E7100FBF000C0EBE00080DBD00042E
:100340000BEB6014A2D5EB13FCED92E7FD2274FFDA
:10035000FCFDFEFF22E480F8A2D574FF13FC7D8033
:03036000E480EF47
:030000000205BC3A
:0C05BC00787FE4F6D8FD7581210206036B
:10036300EF8DF0A4A8F0CF8CF0A428CE8DF0A42EAE
:02037300FE2268
:10037500BC000BBE0029EF8DF084FFADF022E4CC6C
:10038500F875F008EF2FFFEE33FEEC33FCEE9DEC35
:10039500984005FCEE9DFE0FD5F0E9E4CEFD22ED7B
:1003A500F8F5F0EE8420D21CFEADF075F008EF2FC5
:1003B500FFED33FD4007985006D5F0F222C398FDB6
:0503C5000FD5F0EA2253
:1005C800020648E493A3F8E493A34003F68001F2FB
:1005D80008DFF48029E493A3F85407240CC8C33334
:1005E800C4540F4420C8834004F456800146F6DF03
:1005F800E4800B01020408102040809007D1E47EBB
:10060800019360BCA3FF543F30E509541FFEE493F7
:10061800A360010ECF54C025E060A840B8E493A3BE
:10062800FAE493A3F8E493A3C8C582C8CAC583CAE9
:10063800F0A3C8C582C8CAC583CADFE9DEE780BEA1
:0107EB00000D
:00000001FF
