BL51 BANKED LINKER/LOCATER V6.00                                                        04/03/2018  19:36:27  PAGE 1


BL51 BANKED LINKER/LOCATER V6.00, INVOKED BY:
E:\KEIL\C51\BIN\BL51.EXE Text1.obj TO 1 RAMSIZE (256)


MEMORY MODEL: SMALL WITH FLOATING POINT ARITHMETIC


INPUT MODULES INCLUDED:
  Text1.obj (TEXT1)
  E:\KEIL\C51\LIB\C51FPS.LIB (?C?FPADD)
  E:\KEIL\C51\LIB\C51FPS.LIB (?C?FPMUL)
  E:\KEIL\C51\LIB\C51FPS.LIB (?C?FPDIV)
  E:\KEIL\C51\LIB\C51FPS.LIB (?C?FPCMP)
  E:\KEIL\C51\LIB\C51FPS.LIB (?C?FPGETOPN)
  E:\KEIL\C51\LIB\C51S.LIB (?C_STARTUP)
  E:\KEIL\C51\LIB\C51S.LIB (?C?IMUL)
  E:\KEIL\C51\LIB\C51S.LIB (?C?UIDIV)
  E:\KEIL\C51\LIB\C51S.LIB (?C_INIT)


LINK MAP OF MODULE:  1 (TEXT1)


            TYPE    BASE      LENGTH    RELOCATION   SEGMENT NAME
            -----------------------------------------------------

            * * * * * * *   D A T A   M E M O R Y   * * * * * * *
            REG     0000H     0008H     ABSOLUTE     "REG BANK 0"
            DATA    0008H     000EH     UNIT         ?DT?TEXT1
            DATA    0016H     0008H     UNIT         _DATA_GROUP_
            DATA    001EH     0004H     UNIT         ?DT?_YANSHI?TEXT1
            IDATA   0022H     0001H     UNIT         ?STACK

            * * * * * * *   C O D E   M E M O R Y   * * * * * * *
            CODE    0000H     0003H     ABSOLUTE     
                    0003H     0008H                  *** GAP ***
            CODE    000BH     0003H     ABSOLUTE     
            CODE    000EH     03BCH     UNIT         ?C?LIB_CODE
            CODE    03CAH     014FH     UNIT         ?PR?_XIANSHI?TEXT1
            CODE    0519H     00A3H     UNIT         ?PR?TIME24?TEXT1
            CODE    05BCH     008CH     UNIT         ?C_C51STARTUP
            CODE    0648H     0070H     UNIT         ?PR?MAIN?TEXT1
            CODE    06B8H     0065H     UNIT         ?PR?_YANSHI?TEXT1
            CODE    071DH     005FH     UNIT         ?PR?TIMER0?TEXT1
            CODE    077CH     002DH     UNIT         ?PR?_DELAY?TEXT1
            CODE    07A9H     0028H     UNIT         ?CO?TEXT1
            CODE    07D1H     001BH     UNIT         ?C_INITSEG



OVERLAY MAP OF MODULE:   1 (TEXT1)


SEGMENT                          DATA_GROUP 
  +--> CALLED SEGMENT          START    LENGTH
----------------------------------------------
?C_C51STARTUP                  -----    -----
  +--> ?PR?MAIN?TEXT1
BL51 BANKED LINKER/LOCATER V6.00                                                      04/03/2018  19:36:27  PAGE 2


  +--> ?C_INITSEG

?PR?MAIN?TEXT1                 0016H    0002H
  +--> ?PR?_XIANSHI?TEXT1

?PR?_XIANSHI?TEXT1             0018H    0006H
  +--> ?CO?TEXT1
  +--> ?PR?_DELAY?TEXT1



SYMBOL TABLE OF MODULE:  1 (TEXT1)

  VALUE           TYPE          NAME
  ----------------------------------

  -------         MODULE        TEXT1
  C:0000H         SYMBOL        _ICE_DUMMY_
  D:0080H         PUBLIC        P0
  D:0090H         PUBLIC        P1
  D:00A0H         PUBLIC        P2
  C:07A9H         PUBLIC        shu1
  D:00B0H         PUBLIC        P3
  B:00A8H.7       PUBLIC        EA
  D:00A8H         PUBLIC        IE
  C:0519H         PUBLIC        time24
  D:00B8H         PUBLIC        IP
  D:0008H         PUBLIC        jishi
  D:000AH         PUBLIC        light
  C:0648H         PUBLIC        main
  B:00A0H.0       PUBLIC        bai
  D:0098H         PUBLIC        SCON
  D:0089H         PUBLIC        TMOD
  D:0088H         PUBLIC        TCON
  B:00B0H.5       PUBLIC        down
  D:000CH         PUBLIC        sec
  D:000EH         PUBLIC        hour
  D:0010H         PUBLIC        yanshi1
  D:0014H         PUBLIC        min
  B:00A0H.1       PUBLIC        shi
  B:00A8H.1       PUBLIC        ET0
  B:00A0H.2       PUBLIC        ge
  D:008CH         PUBLIC        TH0
  D:008AH         PUBLIC        TL0
  C:071DH         PUBLIC        timer0
  B:00A0H.4       PUBLIC        p24
  B:0088H.4       PUBLIC        TR0
  C:03CAH         PUBLIC        _xianshi
  B:00A0H.3       PUBLIC        two_dian
  B:00B0H.6       PUBLIC        up
  D:00C8H         PUBLIC        T2CON
  C:06B8H         PUBLIC        _yanshi
  C:0797H         PUBLIC        _delay
  B:00B0H.4       PUBLIC        confirm
  D:00D0H         PUBLIC        PSW
  -------         PROC          L?0058
  -------         ENDPROC       L?0058
BL51 BANKED LINKER/LOCATER V6.00                                                      04/03/2018  19:36:27  PAGE 3


  -------         PROC          _DELAY
  D:0006H         SYMBOL        a
  -------         DO            
  D:0004H         SYMBOL        i
  -------         ENDDO         
  C:0797H         LINE#         16
  C:0797H         LINE#         17
  C:0797H         LINE#         19
  C:07A8H         LINE#         20
  -------         ENDPROC       _DELAY
  -------         PROC          _YANSHI
  D:001EH         SYMBOL        x
  C:06B8H         LINE#         21
  C:06C0H         LINE#         22
  C:06C0H         LINE#         23
  C:06D2H         LINE#         24
  C:06EBH         LINE#         25
  C:06EBH         LINE#         26
  C:0705H         LINE#         27
  C:070AH         LINE#         28
  C:070AH         LINE#         29
  C:071CH         LINE#         33
  -------         ENDPROC       _YANSHI
  -------         PROC          _XIANSHI
  D:0002H         SYMBOL        a
  D:0082H         SYMBOL        b
  -------         DO            
  D:0018H         SYMBOL        a1
  D:001AH         SYMBOL        a2
  D:001CH         SYMBOL        a3
  -------         ENDDO         
  C:03CAH         LINE#         35
  C:03D2H         LINE#         36
  C:03D2H         LINE#         38
  C:0407H         LINE#         39
  C:0451H         LINE#         40
  C:049BH         LINE#         42
  C:04B9H         LINE#         43
  C:04B9H         LINE#         44
  C:04B9H         LINE#         45
  C:04BCH         LINE#         47
  C:04DAH         LINE#         48
  C:04DAH         LINE#         49
  C:04DAH         LINE#         50
  C:04DDH         LINE#         52
  C:04FBH         LINE#         53
  C:0508H         LINE#         54
  C:050BH         LINE#         55
  -------         ENDPROC       _XIANSHI
  -------         PROC          TIME24
  -------         DO            
  D:0006H         SYMBOL        time24
  -------         ENDDO         
  C:0519H         LINE#         57
  C:0519H         LINE#         58
  C:0519H         LINE#         60
  C:053CH         LINE#         61
BL51 BANKED LINKER/LOCATER V6.00                                                      04/03/2018  19:36:27  PAGE 4


  C:053FH         LINE#         62
  C:053FH         LINE#         63
  C:054AH         LINE#         64
  C:054AH         LINE#         65
  C:0557H         LINE#         66
  C:0566H         LINE#         67
  C:0568H         LINE#         68
  C:0574H         LINE#         69
  C:057BH         LINE#         70
  C:057BH         LINE#         71
  C:057EH         LINE#         72
  C:057EH         LINE#         73
  C:0589H         LINE#         74
  C:0589H         LINE#         75
  C:0597H         LINE#         76
  C:05A7H         LINE#         77
  C:05A9H         LINE#         78
  C:05B4H         LINE#         79
  C:05BBH         LINE#         80
  C:05BBH         LINE#         81
  -------         ENDPROC       TIME24
  -------         PROC          MAIN
  -------         DO            
  D:0016H         SYMBOL        time
  -------         ENDDO         
  C:0648H         LINE#         84
  C:0648H         LINE#         85
  C:064AH         LINE#         88
  C:0650H         LINE#         89
  C:0653H         LINE#         90
  C:0656H         LINE#         91
  C:0659H         LINE#         92
  C:065BH         LINE#         93
  C:065DH         LINE#         94
  C:065FH         LINE#         96
  C:065FH         LINE#         97
  C:065FH         LINE#         99
  C:0661H         LINE#         100
  C:067FH         LINE#         101
  C:0682H         LINE#         102
  C:0682H         LINE#         103
  C:0691H         LINE#         104
  C:0699H         LINE#         105
  C:069CH         LINE#         106
  C:069CH         LINE#         107
  C:069FH         LINE#         108
  C:069FH         LINE#         109
  C:06ABH         LINE#         110
  C:06B3H         LINE#         111
  -------         ENDPROC       MAIN
  -------         PROC          TIMER0
  C:071DH         LINE#         116
  C:071FH         LINE#         118
  C:0722H         LINE#         119
  C:0725H         LINE#         121
  C:072DH         LINE#         122
  C:0733H         LINE#         123
BL51 BANKED LINKER/LOCATER V6.00                                                      04/03/2018  19:36:27  PAGE 5


  C:0733H         LINE#         124
  C:073BH         LINE#         125
  C:0741H         LINE#         126
  C:0741H         LINE#         127
  C:0749H         LINE#         128
  C:0749H         LINE#         129
  C:0751H         LINE#         130
  C:0757H         LINE#         131
  C:0757H         LINE#         132
  C:075FH         LINE#         133
  C:075FH         LINE#         134
  C:0767H         LINE#         135
  C:076DH         LINE#         136
  C:076DH         LINE#         137
  C:0779H         LINE#         138
  -------         ENDPROC       TIMER0
  -------         ENDMOD        TEXT1

  -------         MODULE        ?C?FPADD
  C:0015H         PUBLIC        ?C?FPADD
  C:0011H         PUBLIC        ?C?FPSUB
  -------         ENDMOD        ?C?FPADD

  -------         MODULE        ?C?FPMUL
  C:0106H         PUBLIC        ?C?FPMUL
  -------         ENDMOD        ?C?FPMUL

  -------         MODULE        ?C?FPDIV
  C:020FH         PUBLIC        ?C?FPDIV
  -------         ENDMOD        ?C?FPDIV

  -------         MODULE        ?C?FPCMP
  C:02AEH         PUBLIC        ?C?FPCMP
  C:02ACH         PUBLIC        ?C?FPCMP3
  -------         ENDMOD        ?C?FPCMP

  -------         MODULE        ?C?IMUL
  C:0363H         PUBLIC        ?C?IMUL
  -------         ENDMOD        ?C?IMUL

  -------         MODULE        ?C?UIDIV
  C:0375H         PUBLIC        ?C?UIDIV
  -------         ENDMOD        ?C?UIDIV

*** WARNING L16: UNCALLED SEGMENT, IGNORED FOR OVERLAY PROCESS
    SEGMENT: ?PR?_YANSHI?TEXT1

*** WARNING L16: UNCALLED SEGMENT, IGNORED FOR OVERLAY PROCESS
    SEGMENT: ?PR?TIME24?TEXT1

Program Size: data=35.0 xdata=0 code=2020
LINK/LOCATE RUN COMPLETE.  2 WARNING(S),  0 ERROR(S)
