C51 COMPILER V8.02   TEXT1                                                                 03/19/2017 20:48:43 PAGE 1   


C51 COMPILER V8.02, COMPILATION OF MODULE TEXT1
OBJECT MODULE PLACED IN Text1.OBJ
COMPILER INVOKED BY: D:\keil英文\C51\BIN\C51.EXE Text1.c BROWSE DEBUG OBJECTEXTEND TABS(5)

line level    source

   1          #include <reg52.h>
   2          sbit KEY=P3^6;                    /*定位红外接收引脚*/
   3          
   4          sbit p10=P1^0;
   5          sbit p11=P1^1;
   6          sbit p12=P1^2;
   7          sbit p13=P1^3;
   8          sbit p14=P1^4; 
   9          sbit p17=P1^7; 
  10          code unsigned  int zi0[] = {     /*欢迎您，志宇*/ 
  11                 0x00,0x00,    
  12          /*欢*/ 0x20,0x08,0x2C,0x10,0x23,0x60,0x20,0x80,
  13                0x23,0x41,0x3C,0x31,0x04,0x02,0x08,0x0C,
  14                0xF0,0x30,0x17,0xC0,0x10,0x30,0x10,0x08,
  15                0x14,0x06,0x18,0x03,0x00,0x02,0x00,0x00,
  16          
  17          /*迎*/ 0x02,0x00,0x42,0x02,0x22,0x04,0x13,0xF8,
  18                0x00,0x04,0x3F,0xE2,0x20,0x42,0x40,0x82,
  19                0x41,0x02,0x3F,0xFE,0x20,0x02,0x20,0x42,
  20                0x20,0x22,0x7F,0xC6,0x20,0x04,0x00,0x00,
  21          
  22          /*您*/ 0x02,0x02,0x04,0x0C,0x08,0x00,0x3F,0xEE,
  23                0xC4,0x01,0x08,0x81,0x31,0x11,0xE6,0x49,
  24                0x20,0x2D,0x2F,0xC1,0x20,0x01,0x22,0x07,
  25                0x29,0x00,0x31,0x88,0x00,0x06,0x00,0x00,
  26          
  27          /*，*/ 0x00,0x00,0x00,0x00,0x00,0x00,0x00,0x62,
  28                0x00,0xF4,0x00,0xF8,0x00,0x60,0x00,0x00,
  29                0x00,0x00,0x00,0x00,0x00,0x00,0x00,0x00,
  30                0x00,0x00,0x00,0x00,0x00,0x00,0x00,0x00,
  31          
  32          /*志*/ 0x10,0x04,0x10,0x18,0x11,0x00,0x11,0x3C,
  33                0x11,0x02,0x11,0x02,0x11,0x42,0xFF,0x22,
  34                0x11,0x32,0x11,0x02,0x11,0x02,0x13,0x0E,
  35                0x11,0x00,0x30,0x10,0x10,0x0C,0x00,0x00,
  36          
  37          /*宇*/ 0x08,0x00,0x30,0x80,0x20,0x80,0x24,0x80,
  38                0x24,0x80,0x24,0x82,0xA4,0x81,0x67,0xFE,
  39                0x24,0x80,0x24,0x80,0x2C,0x80,0x24,0x80,
  40                0x21,0x80,0x28,0x80,0x30,0x00,0x00,0x00,
  41          
  42          /*空白*/0x00,0x00,0x00,0x00,0x00,0x00,0x00,0x00,
  43                0x00,0x00,0x00,0x00,0x00,0x00,0x00,0x00,
  44                0x00,0x00,0x00,0x00,0x00,0x00,0x00,0x00,
  45                0x00,0x00,0x00,0x00,0x00,0x00,0x00,0x00
  46           };      
  47          
  48          code unsigned  int zi1[] = {     /*我们的口号是：零八零八，意气风发，奋力拼搏，勇创最佳！*/ 
  49                 0x00,0x00,   
  50          /*我*/ 0x04,0x00,0x24,0x10,0x24,0x12,0x24,0x21,
  51                0x7F,0xFE,0xC4,0x40,0x44,0x84,0x04,0x08,
  52                0xFF,0x90,0x04,0x60,0x44,0x58,0x35,0x86,
  53                0x04,0x01,0x0C,0x07,0x04,0x00,0x00,0x00,
  54          
  55          /*们*/ 0x02,0x00,0x04,0x00,0x1F,0xFF,0xE0,0x00,
C51 COMPILER V8.02   TEXT1                                                                 03/19/2017 20:48:43 PAGE 2   

  56                0x00,0x00,0x1F,0xFF,0x40,0x00,0x20,0x00,
  57                0x10,0x00,0x20,0x00,0x20,0x00,0x20,0x02,
  58                0x20,0x01,0x7F,0xFE,0x20,0x00,0x00,0x00,
  59          
  60          /*的*/ 0x00,0x00,0x1F,0xFE,0x30,0x84,0xD0,0x84,
  61                0x10,0x84,0x10,0x84,0x3F,0xFE,0x14,0x00,
  62                0x09,0x00,0xF0,0x80,0x10,0xC2,0x10,0x01,
  63                0x10,0x02,0x3F,0xFC,0x10,0x00,0x00,0x00,
  64          
  65          /*口*/ 0x00,0x00,0x00,0x00,0x3F,0xFC,0x20,0x08,
  66                0x20,0x08,0x20,0x08,0x20,0x08,0x20,0x08,
  67                0x20,0x08,0x20,0x08,0x20,0x08,0x20,0x08,
  68                0x7F,0xFC,0x20,0x00,0x00,0x00,0x00,0x00,
  69          
  70          /*号*/ 0x01,0x00,0x01,0x00,0x01,0x00,0x7D,0x20,
  71                0x45,0x60,0x45,0xA0,0x45,0x20,0x45,0x20,
  72                0x45,0x22,0x45,0x21,0x45,0x22,0xFD,0x7C,
  73                0x41,0x20,0x03,0x00,0x01,0x00,0x00,0x00,
  74          
  75          /*是*/ 0x00,0x80,0x00,0x81,0x00,0x82,0x00,0x84,
  76                0xFE,0xB8,0x92,0x84,0x92,0x82,0x92,0xFE,
  77                0x92,0x91,0x92,0x91,0xFE,0xB1,0x00,0x91,
  78                0x00,0x81,0x01,0x83,0x00,0x82,0x00,0x00,
  79          
  80          /*：*/ 0x00,0x00,0x00,0x00,0x00,0x00,0x00,0x00,
  81                0x01,0x8C,0x03,0xDE,0x03,0xDE,0x01,0x8C,
  82                0x00,0x00,0x00,0x00,0x00,0x00,0x00,0x00,
  83                0x00,0x00,0x00,0x00,0x00,0x00,0x00,0x00,
  84          
  85          /*零*/ 0x08,0x20,0x30,0x20,0x20,0x40,0xAA,0x40,
  86                0xAA,0x90,0xAA,0x90,0xA1,0x54,0xFE,0x32,
  87                0xA1,0x15,0xAA,0x98,0xAA,0x90,0xAA,0x40,
  88                0x20,0x40,0x28,0x20,0x30,0x20,0x00,0x00,
  89          
  90          /*八*/ 0x00,0x00,0x00,0x02,0x00,0x04,0x00,0x18,
  91                0x00,0xE0,0x3F,0x00,0x00,0x00,0x00,0x00,
  92                0x00,0x00,0x7F,0x00,0x00,0xE0,0x00,0x10,
  93                0x00,0x0C,0x00,0x06,0x00,0x04,0x00,0x00,
  94          
  95          /*零*/ 0x08,0x20,0x30,0x20,0x20,0x40,0xAA,0x40,
  96                0xAA,0x90,0xAA,0x90,0xA1,0x54,0xFE,0x32,
  97                0xA1,0x15,0xAA,0x98,0xAA,0x90,0xAA,0x40,
  98                0x20,0x40,0x28,0x20,0x30,0x20,0x00,0x00,
  99          
 100          /*八*/ 0x00,0x00,0x00,0x02,0x00,0x04,0x00,0x18,
 101                0x00,0xE0,0x3F,0x00,0x00,0x00,0x00,0x00,
 102                0x00,0x00,0x7F,0x00,0x00,0xE0,0x00,0x10,
 103                0x00,0x0C,0x00,0x06,0x00,0x04,0x00,0x00,
 104          
 105          /*，*/ 0x00,0x00,0x00,0x00,0x00,0x00,0x00,0x62,
 106                0x00,0xF4,0x00,0xF8,0x00,0x60,0x00,0x00,
 107                0x00,0x00,0x00,0x00,0x00,0x00,0x00,0x00,
 108                0x00,0x00,0x00,0x00,0x00,0x00,0x00,0x00,
 109          
 110          /*意*/ 0x08,0x02,0x08,0x0C,0x48,0x00,0x4B,0xEE,
 111                0x6A,0xA1,0x5A,0xA1,0x4A,0xB1,0xCA,0xA9,
 112                0x4A,0xAD,0x5A,0xA1,0x6A,0xA1,0xCF,0xE7,
 113                0x4A,0x00,0x18,0x08,0x08,0x06,0x00,0x00,
 114          
 115          /*气*/ 0x02,0x00,0x04,0x00,0x1A,0x00,0xE2,0x00,
 116                0x2A,0x00,0x2A,0x00,0x2A,0x00,0x2A,0x00,
 117                0x2A,0x00,0x2A,0x00,0x2B,0xF8,0x28,0x04,
C51 COMPILER V8.02   TEXT1                                                                 03/19/2017 20:48:43 PAGE 3   

 118                0x60,0x02,0x20,0x01,0x00,0x0E,0x00,0x00,
 119          
 120          /*风*/ 0x00,0x01,0x00,0x02,0x7F,0xFC,0x40,0x04,
 121                0x50,0x08,0x48,0x10,0x46,0x60,0x41,0x80,
 122                0x46,0x60,0x58,0x18,0x40,0x00,0xFF,0xFC,
 123                0x40,0x02,0x00,0x01,0x00,0x07,0x00,0x00,
 124          
 125          /*发*/ 0x00,0x02,0x08,0x04,0x18,0x09,0x68,0x11,
 126                0x08,0x62,0x09,0x82,0x0F,0xC4,0xF9,0x28,
 127                0x09,0x10,0x09,0x28,0x49,0x44,0x29,0x84,
 128                0x08,0x02,0x18,0x03,0x08,0x02,0x00,0x00,
 129          
 130          /*，*/ 0x00,0x00,0x00,0x00,0x00,0x00,0x00,0x62,
 131                0x00,0xF4,0x00,0xF8,0x00,0x60,0x00,0x00,
 132                0x00,0x00,0x00,0x00,0x00,0x00,0x00,0x00,
 133                0x00,0x00,0x00,0x00,0x00,0x00,0x00,0x00,
 134          
 135          /*奋*/ 0x10,0x80,0x10,0x80,0x11,0x00,0x11,0xFF,
 136                0x12,0x92,0x14,0x92,0x18,0x92,0xF0,0xFE,
 137                0x18,0x92,0x14,0x92,0x12,0x92,0x11,0xFF,
 138                0x11,0x00,0x31,0x80,0x11,0x00,0x00,0x00,
 139          
 140          /*力*/ 0x00,0x00,0x08,0x01,0x08,0x01,0x08,0x01,
 141                0x08,0x06,0x08,0x18,0xFF,0xE0,0x08,0x00,
 142                0x08,0x04,0x08,0x02,0x08,0x01,0x08,0x02,
 143                0x1F,0xFC,0x08,0x00,0x00,0x00,0x00,0x00,
 144          
 145          /*拼*/ 0x08,0x40,0x08,0x42,0x08,0x81,0xFF,0xFE,
 146                0x09,0x00,0x0A,0x81,0x90,0x82,0x5F,0xFC,
 147                0x30,0x80,0x10,0x80,0x30,0x80,0x5F,0xFF,
 148                0xD0,0x80,0x11,0x80,0x00,0x80,0x00,0x00,
 149          
 150          /*搏*/ 0x08,0x40,0x08,0x42,0x08,0x81,0xFF,0xFE,
 151                0x09,0x10,0x20,0x10,0x2F,0xD8,0x2A,0x94,
 152                0x2A,0x90,0xFF,0xD2,0x2A,0x91,0xAA,0xBE,
 153                0x6F,0xD0,0x20,0x10,0x00,0x10,0x00,0x00,
 154          
 155          /*，*/ 0x00,0x00,0x00,0x00,0x00,0x00,0x00,0x62,
 156                0x00,0xF4,0x00,0xF8,0x00,0x60,0x00,0x00,
 157                0x00,0x00,0x00,0x00,0x00,0x00,0x00,0x00,
 158                0x00,0x00,0x00,0x00,0x00,0x00,0x00,0x00,
 159          
 160          /*勇*/ 0x00,0x00,0x00,0x21,0x9F,0xE1,0x95,0x22,
 161                0x95,0x22,0x95,0x24,0xD5,0x38,0xBF,0xE0,
 162                0xB5,0x20,0xD5,0x22,0x95,0x21,0x95,0x62,
 163                0x3F,0xBC,0x10,0x00,0x00,0x00,0x00,0x00,
 164          
 165          /*创*/ 0x01,0x00,0x02,0x00,0x0F,0xFC,0x32,0x02,
 166                0xC2,0x42,0x22,0x22,0x13,0xC2,0x08,0x0E,
 167                0x0C,0x00,0x00,0x00,0x1F,0xE0,0x00,0x02,
 168                0x00,0x01,0xFF,0xFE,0x00,0x00,0x00,0x00,
 169          
 170          /*最*/ 0x02,0x04,0x02,0x04,0x03,0xFC,0xFA,0xA8,
 171                0xAA,0xA8,0xAA,0xA8,0xAB,0xFF,0xAA,0x81,
 172                0xAA,0xE2,0xAA,0x94,0xAA,0x88,0xFA,0x94,
 173                0x02,0xA6,0x06,0xC3,0x02,0x02,0x00,0x00,
 174          
 175          /*佳*/ 0x01,0x00,0x02,0x00,0x04,0x00,0x1F,0xFF,
 176                0xE2,0x02,0x12,0x22,0x12,0x22,0x12,0x22,
 177                0x12,0x22,0xFF,0xFE,0x12,0x22,0x12,0x22,
 178                0x32,0x62,0x16,0x26,0x02,0x02,0x00,0x00,
 179          
C51 COMPILER V8.02   TEXT1                                                                 03/19/2017 20:48:43 PAGE 4   

 180          /*！*/ 0x00,0x00,0x00,0x00,0x00,0x00,0x00,0x00,
 181                0x00,0x00,0x00,0x00,0x3E,0x08,0x7F,0xDC,
 182                0x7F,0xDC,0x3E,0x08,0x00,0x00,0x00,0x00,
 183                0x00,0x00,0x00,0x00,0x00,0x00,0x00,0x00,
 184          
 185          /*空白*/0x00,0x00,0x00,0x00,0x00,0x00,0x00,0x00,
 186                0x00,0x00,0x00,0x00,0x00,0x00,0x00,0x00,
 187                0x00,0x00,0x00,0x00,0x00,0x00,0x00,0x00,
 188                0x00,0x00,0x00,0x00,0x00,0x00,0x00,0x00
 189          };
 190          
 191          code unsigned  int zi2[] = {    /***********只需更改数组和z的值*****/
 192                 0x00,0x00,          /*从前有座山，山里有座庙，庙里有个老和尚和小和尚，老和尚对小和尚说：*/
 193          /*从*/ 0x00,0x01,0x00,0x02,0x00,0x0C,0x00,0x30,
 194                0x7F,0xC0,0x00,0x21,0x00,0x12,0x00,0x0C,
 195                0x00,0x18,0x01,0xE0,0x7E,0x00,0x01,0xE0,
 196                0x00,0x1C,0x00,0x07,0x00,0x02,0x00,0x00,
 197          
 198          /*前*/ 0x10,0x00,0x10,0x00,0x17,0xFF,0x94,0x90,
 199                0x54,0x92,0x74,0x91,0x17,0xFE,0x10,0x00,
 200                0x10,0x00,0x33,0xF0,0x50,0x02,0xD0,0x01,
 201                0x17,0xFE,0x30,0x00,0x10,0x00,0x00,0x00,
 202          
 203          /*有*/ 0x20,0x20,0x20,0x40,0x20,0x80,0x21,0x00,
 204                0x27,0xFF,0x3C,0x90,0xE4,0x90,0x24,0x90,
 205                0x24,0x90,0x24,0x92,0x24,0x91,0x2F,0xFE,
 206                0x24,0x00,0x60,0x00,0x20,0x00,0x00,0x00,
 207          
 208          /*座*/ 0x00,0x02,0x00,0x0C,0x3F,0xF2,0x20,0x42,
 209                0x21,0x92,0x2E,0x12,0x21,0x12,0xA0,0xD2,
 210                0x7F,0xFE,0x20,0x52,0x21,0x92,0x2E,0x32,
 211                0x21,0x12,0x60,0xC6,0x20,0x02,0x00,0x00,
 212          
 213          /*山*/ 0x00,0x00,0x0F,0xFE,0x00,0x04,0x00,0x04,
 214                0x00,0x04,0x00,0x04,0x00,0x04,0xFF,0xFC,
 215                0x00,0x04,0x00,0x04,0x00,0x04,0x00,0x04,
 216                0x00,0x04,0x0F,0xFE,0x00,0x00,0x00,0x00,
 217          
 218          /*，*/ 0x00,0x00,0x00,0x00,0x00,0x00,0x00,0x62,
 219                0x00,0xF4,0x00,0xF8,0x00,0x60,0x00,0x00,
 220                0x00,0x00,0x00,0x00,0x00,0x00,0x00,0x00,
 221                0x00,0x00,0x00,0x00,0x00,0x00,0x00,0x00,
 222          
 223          /*山*/ 0x00,0x00,0x0F,0xFE,0x00,0x04,0x00,0x04,
 224                0x00,0x04,0x00,0x04,0x00,0x04,0xFF,0xFC,
 225                0x00,0x04,0x00,0x04,0x00,0x04,0x00,0x04,
 226                0x00,0x04,0x0F,0xFE,0x00,0x00,0x00,0x00,
 227          
 228          /*里*/ 0x00,0x02,0x00,0x12,0x7F,0x92,0x48,0x92,
 229                0x48,0x92,0x48,0x92,0x48,0x92,0x7F,0xFE,
 230                0x48,0x92,0x48,0x92,0x48,0x92,0x48,0x92,
 231                0xFF,0xB2,0x40,0x16,0x00,0x02,0x00,0x00,
 232          
 233          /*有*/ 0x20,0x20,0x20,0x40,0x20,0x80,0x21,0x00,
 234                0x27,0xFF,0x3C,0x90,0xE4,0x90,0x24,0x90,
 235                0x24,0x90,0x24,0x92,0x24,0x91,0x2F,0xFE,
 236                0x24,0x00,0x60,0x00,0x20,0x00,0x00,0x00,
 237          
 238          /*座*/ 0x00,0x02,0x00,0x0C,0x3F,0xF2,0x20,0x42,
 239                0x21,0x92,0x2E,0x12,0x21,0x12,0xA0,0xD2,
 240                0x7F,0xFE,0x20,0x52,0x21,0x92,0x2E,0x32,
 241                0x21,0x12,0x60,0xC6,0x20,0x02,0x00,0x00,
C51 COMPILER V8.02   TEXT1                                                                 03/19/2017 20:48:43 PAGE 5   

 242          
 243          /*庙*/ 0x00,0x02,0x00,0x0C,0x3F,0xF0,0x20,0x00,
 244                0x23,0xFF,0x22,0x22,0x22,0x22,0xA2,0x22,
 245                0x6F,0xFE,0x22,0x22,0x22,0x22,0x22,0x22,
 246                0x27,0xFF,0x62,0x00,0x20,0x00,0x00,0x00,
 247          
 248          /*，*/ 0x00,0x00,0x00,0x00,0x00,0x00,0x00,0x62,
 249                0x00,0xF4,0x00,0xF8,0x00,0x60,0x00,0x00,
 250                0x00,0x00,0x00,0x00,0x00,0x00,0x00,0x00,
 251                0x00,0x00,0x00,0x00,0x00,0x00,0x00,0x00,
 252          
 253          /*庙*/ 0x00,0x02,0x00,0x0C,0x3F,0xF0,0x20,0x00,
 254                0x23,0xFF,0x22,0x22,0x22,0x22,0xA2,0x22,
 255                0x6F,0xFE,0x22,0x22,0x22,0x22,0x22,0x22,
 256                0x27,0xFF,0x62,0x00,0x20,0x00,0x00,0x00,
 257          
 258          /*里*/ 0x00,0x02,0x00,0x12,0x7F,0x92,0x48,0x92,
 259                0x48,0x92,0x48,0x92,0x48,0x92,0x7F,0xFE,
 260                0x48,0x92,0x48,0x92,0x48,0x92,0x48,0x92,
 261                0xFF,0xB2,0x40,0x16,0x00,0x02,0x00,0x00,
 262          
 263          /*有*/ 0x20,0x20,0x20,0x40,0x20,0x80,0x21,0x00,
 264                0x27,0xFF,0x3C,0x90,0xE4,0x90,0x24,0x90,
 265                0x24,0x90,0x24,0x92,0x24,0x91,0x2F,0xFE,
 266                0x24,0x00,0x60,0x00,0x20,0x00,0x00,0x00,
 267          
 268          /*个*/ 0x01,0x00,0x01,0x00,0x02,0x00,0x04,0x00,
 269                0x08,0x00,0x10,0x00,0x20,0x00,0xC7,0xFF,
 270                0x20,0x00,0x10,0x00,0x08,0x00,0x04,0x00,
 271                0x02,0x00,0x03,0x00,0x02,0x00,0x00,0x00,
 272          
 273          /*老*/ 0x02,0x02,0x02,0x04,0x12,0x08,0x12,0x10,
 274                0x12,0x20,0x12,0x7E,0xFE,0x89,0x13,0x09,
 275                0x32,0x11,0x16,0x11,0x0A,0x21,0x12,0x61,
 276                0x32,0x01,0x06,0x07,0x02,0x00,0x00,0x00,
 277          
 278          /*和*/ 0x04,0x08,0x24,0x10,0x24,0x60,0x25,0x80,
 279                0x3F,0xFF,0x44,0x80,0xCC,0x60,0x44,0x00,
 280                0x0F,0xFC,0x08,0x08,0x08,0x08,0x08,0x08,
 281                0x08,0x08,0x1F,0xFC,0x08,0x00,0x00,0x00,
 282          
 283          /*尚*/ 0x00,0x00,0x07,0xFF,0x44,0x00,0x24,0x00,
 284                0x34,0xFC,0x04,0x88,0x04,0x88,0xFC,0x88,
 285                0x04,0x88,0x04,0x88,0x15,0xFC,0x24,0x82,
 286                0x64,0x01,0x0F,0xFE,0x04,0x00,0x00,0x00,
 287          
 288          /*和*/ 0x04,0x08,0x24,0x10,0x24,0x60,0x25,0x80,
 289                0x3F,0xFF,0x44,0x80,0xCC,0x60,0x44,0x00,
 290                0x0F,0xFC,0x08,0x08,0x08,0x08,0x08,0x08,
 291                0x08,0x08,0x1F,0xFC,0x08,0x00,0x00,0x00,
 292          
 293          /*小*/ 0x00,0x00,0x00,0x10,0x00,0x20,0x00,0x40,
 294                0x01,0x80,0x06,0x02,0x00,0x01,0xFF,0xFE,
 295                0x00,0x00,0x04,0x00,0x02,0x00,0x01,0x00,
 296                0x00,0x80,0x00,0x60,0x00,0x00,0x00,0x00,
 297          
 298          /*和*/ 0x04,0x08,0x24,0x10,0x24,0x60,0x25,0x80,
 299                0x3F,0xFF,0x44,0x80,0xCC,0x60,0x44,0x00,
 300                0x0F,0xFC,0x08,0x08,0x08,0x08,0x08,0x08,
 301                0x08,0x08,0x1F,0xFC,0x08,0x00,0x00,0x00,
 302          
 303          /*尚*/ 0x00,0x00,0x07,0xFF,0x44,0x00,0x24,0x00,
C51 COMPILER V8.02   TEXT1                                                                 03/19/2017 20:48:43 PAGE 6   

 304                0x34,0xFC,0x04,0x88,0x04,0x88,0xFC,0x88,
 305                0x04,0x88,0x04,0x88,0x15,0xFC,0x24,0x82,
 306                0x64,0x01,0x0F,0xFE,0x04,0x00,0x00,0x00,
 307          
 308          /*，*/ 0x00,0x00,0x00,0x00,0x00,0x00,0x00,0x62,
 309                0x00,0xF4,0x00,0xF8,0x00,0x60,0x00,0x00,
 310                0x00,0x00,0x00,0x00,0x00,0x00,0x00,0x00,
 311                0x00,0x00,0x00,0x00,0x00,0x00,0x00,0x00,
 312          
 313          
 314          /*老*/ 0x02,0x02,0x02,0x04,0x12,0x08,0x12,0x10,
 315                0x12,0x20,0x12,0x7E,0xFE,0x89,0x13,0x09,
 316                0x32,0x11,0x16,0x11,0x0A,0x21,0x12,0x61,
 317                0x32,0x01,0x06,0x07,0x02,0x00,0x00,0x00,
 318          
 319          /*和*/ 0x04,0x08,0x24,0x10,0x24,0x60,0x25,0x80,
 320                0x3F,0xFF,0x44,0x80,0xCC,0x60,0x44,0x00,
 321                0x0F,0xFC,0x08,0x08,0x08,0x08,0x08,0x08,
 322                0x08,0x08,0x1F,0xFC,0x08,0x00,0x00,0x00,
 323          
 324          /*尚*/ 0x00,0x00,0x07,0xFF,0x44,0x00,0x24,0x00,
 325                0x34,0xFC,0x04,0x88,0x04,0x88,0xFC,0x88,
 326                0x04,0x88,0x04,0x88,0x15,0xFC,0x24,0x82,
 327                0x64,0x01,0x0F,0xFE,0x04,0x00,0x00,0x00,
 328          
 329          /*对*/ 0x10,0x04,0x12,0x08,0x11,0x30,0x10,0xC0,
 330                0x13,0x20,0x1C,0x18,0x08,0x00,0x09,0x00,
 331                0x08,0xC0,0x08,0x02,0x08,0x01,0xFF,0xFE,
 332                0x08,0x00,0x18,0x00,0x08,0x00,0x00,0x00,
 333          
 334          /*小*/ 0x00,0x00,0x00,0x10,0x00,0x20,0x00,0x40,
 335                0x01,0x80,0x06,0x02,0x00,0x01,0xFF,0xFE,
 336                0x00,0x00,0x04,0x00,0x02,0x00,0x01,0x00,
 337                0x00,0x80,0x00,0x60,0x00,0x00,0x00,0x00,
 338          
 339          /*和*/ 0x04,0x08,0x24,0x10,0x24,0x60,0x25,0x80,
 340                0x3F,0xFF,0x44,0x80,0xCC,0x60,0x44,0x00,
 341                0x0F,0xFC,0x08,0x08,0x08,0x08,0x08,0x08,
 342                0x08,0x08,0x1F,0xFC,0x08,0x00,0x00,0x00,
 343          
 344          /*尚*/ 0x00,0x00,0x07,0xFF,0x44,0x00,0x24,0x00,
 345                0x34,0xFC,0x04,0x88,0x04,0x88,0xFC,0x88,
 346                0x04,0x88,0x04,0x88,0x15,0xFC,0x24,0x82,
 347                0x64,0x01,0x0F,0xFE,0x04,0x00,0x00,0x00,
 348          
 349          /*说*/ 0x02,0x00,0x02,0x00,0x42,0x00,0x33,0xFE,
 350                0x00,0x04,0x00,0x09,0x4F,0xC2,0x28,0x8C,
 351                0x18,0xF0,0x08,0x80,0x18,0xFC,0x28,0x82,
 352                0x4F,0xC2,0x00,0x02,0x00,0x0E,0x00,0x00,
 353          
 354          /*：*/ 0x00,0x00,0x00,0x00,0x00,0x00,0x00,0x00,
 355                0x01,0x8C,0x03,0xDE,0x03,0xDE,0x01,0x8C,
 356                0x00,0x00,0x00,0x00,0x00,0x00,0x00,0x00,
 357                0x00,0x00,0x00,0x00,0x00,0x00,0x00,0x00,
 358          
 359          /*空白*/0x00,0x00,0x00,0x00,0x00,0x00,0x00,0x00,
 360                0x00,0x00,0x00,0x00,0x00,0x00,0x00,0x00,
 361                0x00,0x00,0x00,0x00,0x00,0x00,0x00,0x00,
 362                0x00,0x00,0x00,0x00,0x00,0x00,0x00,0x00
 363          };                       
 364          
 365          
C51 COMPILER V8.02   TEXT1                                                                 03/19/2017 20:48:43 PAGE 7   

 366          code unsigned  int zi3[] = {    /***********只需更改数组和z的值*****/
 367                 0x00,0x00,   
 368          /*家*/ 0x08,0x00,0x30,0x92,0x24,0x92,0x25,0x24,
 369                0x25,0x24,0x26,0x4A,0xA5,0x91,0x64,0xFE,
 370                0x24,0x20,0x24,0x50,0x24,0x88,0x25,0x88,
 371                0x24,0x04,0x28,0x06,0x30,0x04,0x00,0x00,
 372          
 373          /*宇*/ 0x08,0x00,0x30,0x80,0x20,0x80,0x24,0x80,
 374                0x24,0x80,0x24,0x82,0xA4,0x81,0x67,0xFE,
 375                0x24,0x80,0x24,0x80,0x2C,0x80,0x24,0x80,
 376                0x21,0x80,0x28,0x80,0x30,0x00,0x00,0x00,
 377          
 378          /*，*/ 0x00,0x00,0x00,0x00,0x00,0x00,0x00,0x62,
 379                0x00,0xF4,0x00,0xF8,0x00,0x60,0x00,0x00,
 380                0x00,0x00,0x00,0x00,0x00,0x00,0x00,0x00,
 381                0x00,0x00,0x00,0x00,0x00,0x00,0x00,0x00,
 382          
 383          /*手*/ 0x00,0x40,0x20,0x40,0x24,0x40,0x24,0x40,
 384                0x24,0x40,0x24,0x42,0x24,0x41,0x3F,0xFE,
 385                0x44,0x40,0x44,0x40,0x44,0x40,0xCC,0x40,
 386                0x44,0x40,0x00,0xC0,0x00,0x40,0x00,0x00,
 387          
 388          /*机*/ 0x08,0x20,0x08,0xC0,0x0B,0x00,0xFF,0xFF,
 389                0x09,0x01,0x08,0x82,0x00,0x04,0x3F,0xF8,
 390                0x20,0x00,0x20,0x00,0x20,0x00,0x7F,0xFC,
 391                0x20,0x02,0x00,0x02,0x00,0x0E,0x00,0x00,
 392          
 393          /*收*/ 0x00,0x00,0x1F,0xF0,0x00,0x20,0x00,0x40,
 394                0xFF,0xFF,0x00,0x01,0x01,0x01,0x06,0x02,
 395                0xFB,0x84,0x08,0x68,0x08,0x10,0x08,0x68,
 396                0x0F,0x86,0x18,0x03,0x08,0x02,0x00,0x00,
 397          
 398          /*起*/ 0x02,0x02,0x12,0x04,0x12,0xF8,0x12,0x04,
 399                0xFF,0xFE,0x12,0x42,0x12,0x42,0x00,0x02,
 400                0x23,0xE2,0x22,0x12,0x22,0x12,0x22,0x12,
 401                0x7F,0x12,0x20,0x76,0x00,0x04,0x00,0x00,
 402          
 403          /*好*/ 0x08,0x02,0x08,0x44,0x0F,0xA8,0xF8,0x10,
 404                0x08,0x28,0x0F,0xC6,0x01,0x00,0x41,0x00,
 405                0x41,0x02,0x41,0x01,0x47,0xFE,0x49,0x00,
 406                0x51,0x00,0x63,0x00,0x01,0x00,0x00,0x00,
 407          
 408          /*好*/ 0x08,0x02,0x08,0x44,0x0F,0xA8,0xF8,0x10,
 409                0x08,0x28,0x0F,0xC6,0x01,0x00,0x41,0x00,
 410                0x41,0x02,0x41,0x01,0x47,0xFE,0x49,0x00,
 411                0x51,0x00,0x63,0x00,0x01,0x00,0x00,0x00,
 412          
 413          /*读*/ 0x02,0x00,0x02,0x00,0x42,0x00,0x33,0xFE,
 414                0x00,0x04,0x04,0x28,0x24,0x21,0x24,0xA1,
 415                0x26,0x62,0x25,0x24,0xFC,0x38,0x27,0xE4,
 416                0x64,0x22,0x25,0x63,0x06,0x20,0x00,0x00,
 417          
 418          /*书*/ 0x00,0x80,0x10,0x80,0x10,0x80,0x10,0x80,
 419                0x10,0x80,0x10,0x80,0xFF,0xFF,0x10,0x80,
 420                0x10,0x80,0x10,0x80,0x1F,0x84,0x40,0x82,
 421                0x20,0x84,0x30,0xF8,0x00,0x00,0x00,0x00,
 422          
 423          /*啦*/ 0x00,0x00,0x3F,0xF8,0x20,0x10,0x3F,0xF8,
 424                0x10,0x42,0x10,0x41,0xFF,0xFE,0x11,0x02,
 425                0x12,0x02,0x17,0xC2,0x90,0x3A,0x70,0x02,
 426                0x10,0x7A,0x37,0x82,0x10,0x02,0x00,0x00,
 427          
C51 COMPILER V8.02   TEXT1                                                                 03/19/2017 20:48:43 PAGE 8   

 428          /*。*/ 0x00,0x00,0x00,0x1C,0x00,0x3E,0x00,0x22,
 429                0x00,0x22,0x00,0x3E,0x00,0x1C,0x00,0x00,
 430                0x00,0x00,0x00,0x00,0x00,0x00,0x00,0x00,
 431                0x00,0x00,0x00,0x00,0x00,0x00,0x00,0x00,
 432          
 433          /*。*/ 0x00,0x00,0x00,0x1C,0x00,0x3E,0x00,0x22,
 434                0x00,0x22,0x00,0x3E,0x00,0x1C,0x00,0x00,
 435                0x00,0x00,0x00,0x00,0x00,0x00,0x00,0x00,
 436                0x00,0x00,0x00,0x00,0x00,0x00,0x00,0x00,
 437          
 438          /*。*/ 0x00,0x00,0x00,0x1C,0x00,0x3E,0x00,0x22,
 439                0x00,0x22,0x00,0x3E,0x00,0x1C,0x00,0x00,
 440                0x00,0x00,0x00,0x00,0x00,0x00,0x00,0x00,
 441                0x00,0x00,0x00,0x00,0x00,0x00,0x00,0x00,
 442          
 443          /*空白*/0x00,0x00,0x00,0x00,0x00,0x00,0x00,0x00,
 444                0x00,0x00,0x00,0x00,0x00,0x00,0x00,0x00,
 445                0x00,0x00,0x00,0x00,0x00,0x00,0x00,0x00,
 446                0x00,0x00,0x00,0x00,0x00,0x00,0x00,0x00
 447          
 448          
 449          };
 450          
 451          
 452          code unsigned  int zi4[] = {    /***********只需更改数组和z的值*****/
 453                 0x00,0x00,   
 454          /*今*/ 0x01,0x00,0x01,0x00,0x02,0x00,0x04,0x40,
 455                0x08,0x40,0x10,0x40,0x24,0x40,0xC2,0x41,
 456                0x23,0x42,0x10,0x44,0x08,0x58,0x04,0x60,
 457                0x02,0x00,0x03,0x00,0x02,0x00,0x00,0x00,
 458          
 459          /*天*/ 0x02,0x01,0x42,0x01,0x42,0x02,0x42,0x04,
 460                0x42,0x08,0x42,0x30,0x42,0xC0,0x7F,0x00,
 461                0x42,0xC0,0x42,0x30,0x42,0x08,0x42,0x04,
 462                0xC2,0x02,0x46,0x03,0x02,0x02,0x00,0x00,
 463          
 464          /*是*/ 0x00,0x80,0x00,0x81,0x00,0x82,0x00,0x84,
 465                0xFE,0xB8,0x92,0x84,0x92,0x82,0x92,0xFE,
 466                0x92,0x91,0x92,0x91,0xFE,0xB1,0x00,0x91,
 467                0x00,0x81,0x01,0x83,0x00,0x82,0x00,0x00,
 468          
 469          /*二*/ 0x00,0x08,0x00,0x08,0x10,0x08,0x10,0x08,
 470                0x10,0x08,0x10,0x08,0x10,0x08,0x10,0x08,
 471                0x10,0x08,0x10,0x08,0x10,0x08,0x30,0x08,
 472                0x10,0x08,0x00,0x18,0x00,0x08,0x00,0x00,
 473          
 474          /*零*/ 0x08,0x20,0x30,0x20,0x20,0x40,0xAA,0x40,
 475                0xAA,0x90,0xAA,0x90,0xA1,0x54,0xFE,0x32,
 476                0xA1,0x15,0xAA,0x98,0xAA,0x90,0xAA,0x40,
 477                0x20,0x40,0x28,0x20,0x30,0x20,0x00,0x00,
 478          
 479          /*一*/ 0x01,0x00,0x01,0x00,0x01,0x00,0x01,0x00,
 480                0x01,0x00,0x01,0x00,0x01,0x00,0x01,0x00,
 481                0x01,0x00,0x01,0x00,0x01,0x00,0x01,0x00,
 482                0x01,0x00,0x03,0x00,0x01,0x00,0x00,0x00,
 483          
 484          /*六*/0x04,0x00,0x04,0x02,0x04,0x04,0x04,0x18,
 485                0x04,0x60,0x44,0xC0,0x34,0x00,0x1C,0x00,
 486                0x04,0x00,0x04,0x80,0x04,0x40,0x04,0x30,
 487                0x04,0x1C,0x0C,0x0E,0x04,0x00,0x00,0x00,
 488          
 489          /*年*/ 0x00,0x20,0x04,0x20,0x08,0x20,0x33,0xE0,
C51 COMPILER V8.02   TEXT1                                                                 03/19/2017 20:48:43 PAGE 9   

 490                0xE2,0x20,0x22,0x20,0x22,0x20,0x3F,0xFF,
 491                0x22,0x20,0x22,0x20,0x22,0x20,0x26,0x20,
 492                0x62,0x20,0x20,0x60,0x00,0x20,0x00,0x00,
 493          
 494          /*六*/ 0x04,0x00,0x04,0x02,0x04,0x04,0x04,0x18,
 495                0x04,0x60,0x44,0xC0,0x34,0x00,0x1C,0x00,
 496                0x04,0x00,0x04,0x80,0x04,0x40,0x04,0x30,
 497                0x04,0x1C,0x0C,0x0E,0x04,0x00,0x00,0x00,
 498          
 499          /*月*/ 0x00,0x00,0x00,0x01,0x00,0x02,0x00,0x0C,
 500                0x7F,0xF0,0x44,0x40,0x44,0x40,0x44,0x40,
 501                0x44,0x40,0x44,0x42,0x44,0x41,0xFF,0xFE,
 502                0x40,0x00,0x00,0x00,0x00,0x00,0x00,0x00,
 503          
 504          /*二*/ 0x00,0x08,0x00,0x08,0x10,0x08,0x10,0x08,
 505                0x10,0x08,0x10,0x08,0x10,0x08,0x10,0x08,
 506                0x10,0x08,0x10,0x08,0x10,0x08,0x30,0x08,
 507                0x10,0x08,0x00,0x18,0x00,0x08,0x00,0x00,
 508          
 509          /*十*/ 0x02,0x00,0x02,0x00,0x02,0x00,0x02,0x00,
 510                0x02,0x00,0x02,0x00,0x02,0x00,0xFF,0xFF,
 511                0x02,0x00,0x02,0x00,0x02,0x00,0x02,0x00,
 512                0x02,0x00,0x06,0x00,0x02,0x00,0x00,0x00,
 513          
 514          /*五*/ 0x00,0x02,0x20,0x02,0x21,0x02,0x21,0x02,
 515                0x21,0x1E,0x21,0xE2,0x3F,0x02,0x21,0x02,
 516                0x21,0x02,0x21,0x02,0x21,0x02,0x23,0xFE,
 517                0x61,0x02,0x21,0x06,0x00,0x02,0x00,0x00,
 518          
 519          /*日*/ 0x00,0x00,0x00,0x00,0x00,0x00,0x7F,0xFE,
 520                0x41,0x04,0x41,0x04,0x41,0x04,0x41,0x04,
 521                0x41,0x04,0x41,0x04,0x41,0x04,0xFF,0xFE,
 522                0x40,0x00,0x00,0x00,0x00,0x00,0x00,0x00,
 523          
 524          /*。*/ 0x00,0x00,0x00,0x1C,0x00,0x3E,0x00,0x22,
 525                0x00,0x22,0x00,0x3E,0x00,0x1C,0x00,0x00,
 526                0x00,0x00,0x00,0x00,0x00,0x00,0x00,0x00,
 527                0x00,0x00,0x00,0x00,0x00,0x00,0x00,0x00,
 528          
 529          /*空白*/0x00,0x00,0x00,0x00,0x00,0x00,0x00,0x00,
 530                0x00,0x00,0x00,0x00,0x00,0x00,0x00,0x00,
 531                0x00,0x00,0x00,0x00,0x00,0x00,0x00,0x00,
 532                0x00,0x00,0x00,0x00,0x00,0x00,0x00,0x00
 533          
 534          
 535          
 536          
 537           };      
 538          code unsigned  int zi7[] = {    /***********只需更改数组和z的值*****/
 539                 0x00,0x00,                                        /*上到下，左到右，上高*/
 540          
 541          
 542          0x00,0x42,0x00,0x8C,0xFF,0x20,0xAA,0xCE,
 543                0xAA,0x21,0xAB,0xE1,0xAA,0x91,0xEA,0x49,
 544                0x10,0x0D,0x14,0x01,0x13,0x41,0x10,0x27,
 545                0xFF,0xC0,0x10,0x08,0x10,0x06,0x00,0x00,
 546          
 547          0x22,0x10,0x22,0x18,0x3F,0xF2,0x22,0x24,
 548                0x10,0x18,0x9F,0xE4,0x72,0x02,0x13,0xFD,
 549                0x18,0x06,0xF2,0xF8,0x12,0x04,0x13,0xFE,
 550                0x12,0x21,0x32,0xA1,0x13,0x21,0x00,0x00,
 551          
C51 COMPILER V8.02   TEXT1                                                                 03/19/2017 20:48:43 PAGE 10  

 552          /*班*/0x21,0x04,0x21,0x06,0x3F,0xFC,0x21,0x08,
 553                0x60,0x49,0x2F,0x82,0x00,0x1C,0xFF,0xE0,
 554                0x00,0x02,0x21,0x02,0x21,0x02,0x3F,0xFE,
 555                0x21,0x02,0x61,0x06,0x20,0x02,0x00,0x00,
 556          
 557          /*长*/0x01,0x00,0x01,0x00,0x01,0x00,0x01,0x00,
 558                0xFF,0xFF,0x01,0x02,0x01,0x02,0x05,0xC4,
 559                0x09,0x20,0x11,0x10,0x21,0x08,0x61,0x04,
 560                0x01,0x06,0x03,0x04,0x01,0x00,0x00,0x00,
 561          
 562          /*是*/0x00,0x80,0x00,0x81,0x00,0x82,0x00,0x84,
 563                0xFE,0xB8,0x92,0x84,0x92,0x82,0x92,0xFE,
 564                0x92,0x91,0x92,0x91,0xFE,0xB1,0x00,0x91,
 565                0x00,0x81,0x01,0x83,0x00,0x82,0x00,0x00,
 566          
 567          /*个*/0x01,0x00,0x01,0x00,0x02,0x00,0x04,0x00,
 568                0x08,0x00,0x10,0x00,0x20,0x00,0xC7,0xFF,
 569                0x20,0x00,0x10,0x00,0x08,0x00,0x04,0x00,
 570                0x02,0x00,0x03,0x00,0x02,0x00,0x00,0x00,
 571          
 572          /*逗*/0x02,0x00,0x42,0x02,0x32,0x04,0x03,0xF8,
 573                0x00,0x04,0x40,0x12,0x4F,0x12,0x49,0x52,
 574                0x49,0x32,0x49,0x12,0x49,0x32,0x49,0x52,
 575                0xDF,0x12,0x48,0x16,0x00,0x04,0x00,0x00,
 576          
 577          /*比*/0x00,0x00,0x00,0x02,0x7F,0xFE,0x02,0x04,
 578                0x02,0x04,0x06,0x08,0x02,0x08,0x00,0x00,
 579                0xFF,0xFC,0x01,0x02,0x02,0x02,0x04,0x02,
 580                0x0C,0x02,0x00,0x02,0x00,0x1E,0x00,0x00,
 581          
 582          /*笑脸*/0x07,0xC0,0x18,0x30,0x20,0x08,0x40,0x44,
 583                0x4C,0x24,0x8C,0x12,0x80,0x12,0x80,0x12,
 584                0x80,0x12,0x8C,0x12,0x4C,0x24,0x40,0x44,
 585                0x20,0x08,0x18,0x30,0x07,0xC0,0x00,0x00,
 586          
 587          /*空白*/0x00,0x00,0x00,0x00,0x00,0x00,0x00,0x00,
 588                0x00,0x00,0x00,0x00,0x00,0x00,0x00,0x00,
 589                0x00,0x00,0x00,0x00,0x00,0x00,0x00,0x00,
 590                0x00,0x00,0x00,0x00,0x00,0x00,0x00,0x00             /*保留最后一两个空格对付占用*/
 591          };
 592          /*****n（us）延时子程序*****/
 593          DelayUs(unsigned int N)
 594              {
 595   1              unsigned int x ;
 596   1              for(x=0;x<=N;x++);
 597   1          }
 598          /*主程序*/
 599          main()
 600              {
 601   1               unsigned int i=0,j=0,z=0,k=2,l=0,m=0,n=0,p=8;              /*共有z个元素*/
 602   1              while(1)
 603   1              {         
 604   2                       /* if(k-2-i*2<0)                 好像没啥用
 605   2                        {
 606   2                             k=k+2;
 607   2                        }             */
 608   2      /*********************************************/
 609   2          if(p10==0)
 610   2          {
 611   3              p=0;
 612   3          }
 613   2          if(p11==0)
C51 COMPILER V8.02   TEXT1                                                                 03/19/2017 20:48:43 PAGE 11  

 614   2          {
 615   3              p=1;
 616   3          }
 617   2          if(p12==0)
 618   2          {
 619   3              p=2;
 620   3          }
 621   2          if(p13==0)
 622   2          {
 623   3              p=3;
 624   3          }
 625   2          if(p14==0)
 626   2          {
 627   3              p=4;
 628   3          }
 629   2          if(p17==0)
 630   2          {
 631   3              p=7;
 632   3          }
 633   2          switch (p)
 634   2          {
 635   3              case 0: z=226; P0=~zi0[k-2-i*2];P2=~zi0[k-1-i*2]; break;  
 636   3              case 1: z=898; P0=~zi1[k-2-i*2];P2=~zi1[k-1-i*2]; break; 
 637   3              case 2: z=1090; P0=~zi2[k-2-i*2];P2=~zi2[k-1-i*2]; break; 
 638   3              case 3: z=514; P0=~zi3[k-2-i*2];P2=~zi3[k-1-i*2]; break; 
 639   3              case 4: z=514; P0=~zi4[k-2-i*2];P2=~zi4[k-1-i*2]; break; 
 640   3              case 7: z=322; P0=~zi7[k-2-i*2];P2=~zi7[k-1-i*2]; break; 
 641   3              default :break;
 642   3      
 643   3          }
 644   2      
 645   2      
 646   2      
 647   2      
 648   2      
 649   2      /**********************************************/                
 650   2                        DelayUs(73);
 651   2                        P0=0XFF;
 652   2                        P2=0XFF;
 653   2                        DelayUs(10);
 654   2                        if(k-2-i*2>0)
 655   2                        {
 656   3                             i++;
 657   3                        }
 658   2                   if(KEY==1)
 659   2                      {     
 660   3                          n++;                     //加n上限
 661   3                          if(n>20000)
 662   3                          {
 663   4                              n=200;
 664   4                          }
 665   3                          if(n>=100)
 666   3                          {                     
 667   4                            if(k-2-i*2>=0)
 668   4                             {  
 669   5                                m++;
 670   5                                if(m==1)                  /*m==2减速*/ 
 671   5                                {
 672   6                                k=l;                              
 673   6                                k=k+2;
 674   6                                l=k;
 675   6                                m=0;
C51 COMPILER V8.02   TEXT1                                                                 03/19/2017 20:48:43 PAGE 12  

 676   6                                }
 677   5                            while(KEY) ;
 678   5                            }
 679   4                          i=0;
 680   4                          }
 681   3                      }
 682   2                   if(l>z+124)
 683   2                   {
 684   3                         l=2;
 685   3                         k=2;
 686   3                   }
 687   2                   if(l>z)
 688   2                   {
 689   3                          DelayUs(100*k-100*z) ;                   
 690   3                          k=z;
 691   3                   }
 692   2              }
 693   1          }


MODULE INFORMATION:   STATIC OVERLAYABLE
   CODE SIZE        =    747    ----
   CONSTANT SIZE    =   7128    ----
   XDATA SIZE       =   ----    ----
   PDATA SIZE       =   ----    ----
   DATA SIZE        =   ----      16
   IDATA SIZE       =   ----    ----
   BIT SIZE         =   ----    ----
END OF MODULE INFORMATION.


C51 COMPILATION COMPLETE.  0 WARNING(S),  0 ERROR(S)
