:10000E007FFE3FFE1FFE0FF607F603F601B600B6A3
:10001E0000B601B603F607F60FF61FFE3FFE7FFE93
:10002E00AFFEAFFEBFFABFFAFFEAFFEAFFABFFABD0
:10003E00FEAFFEAFFABFFABFEAFFEAFFABFFABFFC0
:10004E00FFFFF0FFE07FC03FC01FC00FE007F003CF
:10005E00F003E007C00FC01FC03FE07FF0FFFFFFBF
:10006E00FF7FFFBFFFDFFFEFFFF7FFFBFFFDFFFE91
:10007E00FFFDFFFBFFF7FFEFFFDFFFBFFF7FFEFF81
:10008E00FFFFFFDFFFDFFFDFFFDFFFDFFFDFFFDF52
:10009E00FFDFFBDEFDDDFEDBFF57FF8FFFDFFFFF28
:1000AE00FBFFDBEFDBEDDBDE80013BBFBB7DFBFD52
:1000BE00FBFB0037FBCFBBD7CBBBFA7DFBE0FFFFD3
:1000CE00FFBFBFBFA8A0AAADAA2DAAADAAAD0AAD0B
:1000DE00AAADAAADAA2DAAADA8A0BFBFFFBFFFFFB4
:1000EE00DFF7DBEFDD9FDE7FD9BEC6CDFDFBF3E78D
:1000FE000F9FEC7FEF9FEFE7EBFBE7FDFFFEFFFFB0
:10010E00FF7FFEFFF9FFE0001FFFFDF7FBCFE73F8C
:10011E000FFDEFFEEC01EFFFEF7FEB9FE7E7FFFF39
:10012E00FFFFFFFFFFFF8033FFFFFFFFFFFFFFFF1C
:10013E00FFFFFFFFFFFFFFFFFFFFFFFFFFFFFFFFC1
:10014E00FFFFFFFFFFFF8033FFFFFFFFFFFFFFFFFC
:10015E00FFFFFFFFFFFFFFFFFFFFFFFFFFFFFFFFA1
:10016E00F7DFF9DF7F0098FDFFF3E00EEEFEEE7D88
:10017E00EE9B00E7EEE7EE9BEE79E7FCEFFDFFFF6F
:10018E00FF7FBF7FBF7FA143AB57AB57AB57AB577B
:10019E00A143BF7DBF7E8101BF7FBE7FFF7FFFFF7B
:1001AE00FEFFFDFFF001CBFF3DF7FBCFE63F0F7BE0
:1001BE00AFFDE803EFFFEEFFEB3FC7C7EFEFFFFF2B
:1001CE00F7FEF73DF0BB07D7F7CFF031FEFBBEFFD2
:1001DE00BEFDBEFEB001AEFF9EFFBEFFFEFFFFFFE7
:1001EE00FFFEE01DFFFBFFE7001FFFFFE007EFFF35
:1001FE00EFFFEFFF0000EFFFEFEFEFE7E00FFFFF86
:10020E00FFFFFFFFFFFFF005FFFFFFFFFFFFFFFFF9
:10021E00FFFFFFFFFFFFFFFFFFFFFFFFFFFFFFFFE0
:10022E000000000000000000FE3F00200020002023
:10023E000020002000200020000000000000F80F29
:10024E00041002200220022002200410F80F0000E9
:10025E0000000000FE070008001000200020001023
:10026E000008FE07000000000000FE3F82208220F2
:10027E008220822082208220822000000000000046
:10028E007800FC00FE01FE03FE07FE0FFE1FFC3F82
:10029E00F87FFC3FFE1FFE0FFE07FE03FE01FC0073
:1002AE0078000000000000000000000000000000C8
:1002BE000000000000000000000000000000000030
:1002CE00000000000000C0014001C001000000005D
:1002DE00F00F0810042000000000F03F080004009A
:1002EE00040004000800F03F000000000020002081
:1002FE0000200020002000000000F03F0800040055
:10030E00040004000800F03F000000000420081064
:10031E00F00F00000000C0014001C001000000000D
:10032E0004103408C4060401C4823C8C20401030F2
:10033E000F0CE803080C0810286018C000400000DD
:10034E00400042404420C81F0020FC4704420241A6
:10035E008240FC7F044004420444FE6304200000FB
:10036E0040002000F8FF07000480F44314451429D0
:10037E001419FF17142114211441F6C30440000070
:10038E0000800060FE1F2202220222022202FE7F55
:10039E002202220222422282FF7F0200000000007F
:1003AE00080188004900EEFF580088000000F81F81
:1003BE0088088808FFFF88088808FC1F08000000CE
:1003CE00400040004400443E641254124C12471246
:1003DE004C3F54427480C67F4400600040000000D1
:1003EE0000400030FE8F4A80AA5F9A4AFE2AAA1A5F
:1003FE00CB0FAA7AFE8A9AAAAA8F6B8022E00000FF
:10040E008020C030A028982487228021C430046028
:10041E0004000420044004800440FE3F0400000059
:10042E00100210421081FF7F90045405CCF4B444A6
:10043E008444BC7F8244A2449BF4820600040000E4
:10044E00100210421081FF7F90045405CCF4B44486
:10045E008444BC7F8244A2449BF4820600040000C4
:10046E0010041003D000FFFF900054054412D41561
:10047E0074145FFFD4145415561244064002000043
:10048E000000000000000000000000007C10FE3B99
:10049E00FE3B7C1000000000000000000000000089
:1004AE00FFFFFFFFFFFFFFFFFFFFFF2020FFFFFF0C
:1004BE00FFF8F8FFF8F8FFFFEBFBA0EBA0EBEBFF6C
:1004CE00D1D580D580D5C5FF389AC8E713591CFF02
:1004DE009966766696996FFFFFFFF8F8FFFFFFFFAC
:1004EE00FFFFC3BD7EFFFFFFFFFFFF7EBDC3FFFF0C
:1004FE00FFD5F7C1F7D5FFFFFFF7F7C1F7F7FFFFFE
:10050E00FFFF7F8FCFFFFFFFFFF7F7F7F7F7FFFF35
:10051E00FFFFFFFFFF9F9FFFFF3F9FCFE7F3F9FF17
:10052E00FFC3BD7E7EBDC3FFFFFF7D7D007F7FFFCE
:10053E00FF7D3E5E6E7679FFFF6D6D6D6D6D01FF19
:10054E00EFE7EBED00EFEFFFFF616D6D6D6D0DFFF2
:10055E00836D767676768FFFFFFE1EEEF6FAFCFF43
:10056E00FF817676767681FFFF616E6E6E6E81FF0D
:10057E00FFFF2727FFFFFFFFFF7F1393FFFFFFFF05
:10058E00FFFFE7DBBD7EFFFFFFDBDBDBDBDBDBFF44
:10059E00FFFF7EBDDBE7FFFFFFFDFE4EF6F9FFFF1F
:1005AE00C3BD665A5A465DC33FCFD3DCD3CF3FFFA0
:1005BE00FF80B6B6B6B6C9FFE3DDBEBEBEBEDDFF7A
:1005CE00FF80BEBEBEDDE3FFFF80B6B6B6B6BEFF91
:1005DE00FF80F6F6F6F6FEFFE3DDBEBEBEBE8DEF85
:1005EE00FF80F7F7F7F780FFFFFFBE80BEFFFFFF2C
:1005FE00FFDFBFBE80FEFFFFFF80F7EBDDBEBEFF5D
:10060E00FF80BFBFBFBFFFFF80FDE39FE3FD80FF05
:10061E0080FDFBF7EFDF80FFE3DDBEBEBEDDE3FF57
:10062E00FF00EEEEEEEEF1FFE3DDBEBEAEDDA3BFEC
:10063E00FF80F6F6E6D6B9FFFFB9B6B6B6B6CEFF70
:10064E00FEFEFE80FEFEFEFFFFC0BFBFBFBFC0FFAF
:10065E00FFF0CFBFBFCFF0FFE09FE7F9E79FE0FFCE
:10066E00BEDDEBF7EBDDBEFFF8F7EF1FEFF7F8FFA0
:10067E00FFBE9EAEB6BABCFFFFFF007E7E7EFFFFC2
:10068E00FEFDFBF7EFDFBF7FFFFF7E7E7E00FFFFED
:10069E00FFFBFDFEFDFBFFFF7F7F7F7F7F7F7F7F69
:1006AE00FFFFFCFCFFFFFFFFFFC7B6B6B6B681BF6C
:1006BE00FF80B7B7B7B7CFFFE7DBBDBDBDFFFFFF0D
:1006CE00FFCFB7B7B780FFFFFFC3B5B5B5B5F3FF23
:1006DE00FFF77701F6F5FFFFFFB176767681FFFF24
:1006EE00FF00EFF7F70FFFFFFFF7FB027FBFFFFFE4
:1006FE00FF3F7F7F02FFFFFFFF01DFAF77FFFFFFAF
:10070E00FFFFFF007FFFFFFF87FBFB87FBFB87FFE2
:10071E00FF87FBFBFB87FFFFFFC7BBBBBBC7FFFF13
:10072E00FF01EDEDF3FFFFFFFFF3EDED017FFFFFA7
:10073E00FFFD01F7FBFDFDFFFF736D6D6D9DFFFF6F
:10074E00FFF7F7017777B7FFFFC1BFBFBF81BFFFCD
:10075E00F7E7DF3FDFE7F7FFC7BFDFE7DFBFC7FF23
:10076E00FFBBD7EFD7BBFFFFFFBEBDDBE7FBFDFE39
:10077E00FFBB9BABB3BBFFFFFFEF117D7DFFFFFF09
:10078E00FFFFFF00FFFFFFFFFFFFFF7D7D11EFFF6C
:10079E00F7FBFBF7EFEFF7FFE7DFF7DFF7DFF79F8B
:1007AE00F40FF47FF57FF1EFF3EFE3C7E7DFE79B9D
:1007BE00E73DE73DCE75CEF5CEE7CCEFCCCFCD9F66
:1007CE00DD9FDD7FDD3FDDBFDDBFD93FD99FD99FE7
:1007DE00D9DFDDDFDDCFDDCFDDCFDDE7DDE7CCE758
:1007EE00CCE7CEEF8ECF8E4F8F7F873FA79FB79FE1
:1007FE00B3CFB3EFB1E7B9FFB87FBC3FBDBFBFBF4B
:10080E00BF9FBF9FBFBFBFBFBFFFBFFF92FF92FF84
:10081E00923F802F800F87EF8FEF8FFF8FFF9E7F8E
:10082E009EF99EF99E818E9D8E9F8E7FAE7FAE7FAE
:10083E00AC7FAC3FADBFBD9FBDDFBDDFB99FB99FE4
:10084E00B9BFBBBFBB1FBBBFB9BFBDBFBD9FB9A7A4
:10085E00B9A7B8CFBDDFBD9FBDBFBE6F9267927700
:10086E0093F193FF97FF87FF87FF83CF83CFC25FFD
:10087E00E05FE45FF7DFF7DF97839783AB038107D2
:10088E009A079A879A878E0F8F6F8F7F87FF87FFC2
:10089E00D7FFD3FFD9FF49FF41FF41FF49FF6BFF50
:1008AE006BFF7FFF7FFFFFFFFFFFFFFFFFFFFFFFDE
:1008BE00FFFFFFFFFFFFFFFFFFFFFFFFFFFFFFFF3A
:1008CE00FFFFFFFFFFFFFFFFFFFFFFFFFFFFBFFF6A
:1008DE00AAF9AAF9AAB982398E01A801A9FDB1FF18
:1008EE00B7FF87FF87FF07FF037F037F023F183F96
:1008FE001ABF383F231F031F079F67936F834FC392
:10090E004FFF4FFF4FFF5FFF5FFF5FFF5FFF5FFF19
:10091E005FFF1FFF1FFF1FFF1FFF19FF19FF19FFAB
:10092E0019FF19FF18FF19FF19FF39FF39FF39FF9A
:10093E0019FF18FF18FF18FF18FF18FF11FF11FFFE
:10094E0011FF59FF5BFF5BFF5BFF51FF41FF6B1F09
:10095E00731F5107902790272E016F0153097909B4
:10096E003A09124317031707075727DF27FF27FFF9
:10097E0027FF27FF27FF27FF27FF27FF27FF23FF3D
:10098E0023FF27FF37FF17FF17FF17FF1FFF1FFF5D
:10099E005FFF5FFF5FFF5FFF5FFF5FFF5FFF5FFF59
:1009AE005FFF5FFF1FFF1FFF1FFF3FFF2CFF2CFF8F
:1009BE0028BF243F261F681F591F4B1F439F589F58
:1009CE00D89FC49994599101A1008FFF0FFF1FFF6B
:1009DE003FFF3FFF3FFF9FFFBFFFBFFFBFFF3FFF39
:1009EE003FFF3FFF3FFF3FFF3FFF3FFF3FFF3FFF09
:1009FE003FFF3FFF3FFF3FFF3FFF3FFFAFFF8FFF39
:100A0E000FFFCFFFAFFFAFFFA7FFA7FF27FFAFFF80
:100A1E00AFFFAFFFAFFF8FFF8FFFAFFFAFFFAFFF98
:100A2E00AFFFAFFFAFFFEFFFC7FF47FF67FF67FFE8
:100A3E0063FF6387638740239A839B83CD03CD0730
:100A4E00DA07D287D607C60FC76FCF7FCFFFCFFF8C
:100A5E00CFFF8FFFCFFFCFFFCFFFCFFFCFFFDAFF4D
:100A6E00D8FFD87FC07FC47FD5FFD1FFD3FFD3FF80
:100A7E00D7FFC7FFC7FFCFFFCFFFCFFFCFFFCFFF00
:100A8E00CFFFFFFFFFFFFFFFFFFFFFFFFCFFFCFF9E
:100A9E00F87FF83FFA18F019E101E1C7E9D7EBFF4B
:100AAE00E3FFE3FFE7FFC7FFC7FFC7FFC6FFD4FFA4
:100ABE00D4FFD0FFD27FDA3F981F9A909381838123
:100ACE0087FF97FF97FF87FF87FFAFFFAFFF8FFF70
:100ADE008FFF9FFF9FFF9FFF9FFF99FF99FF99FF3A
:100AEE0099FF99FF98FF99FF99FFB9FFB9FFB9FFD9
:100AFE0099FF98FF98FF98FF98FF98FF91FF91FF3D
:100B0E0091FF99FF9BFF9BFF9BFF91FF81FFAB1F07
:100B1E00B31F91079027902757835783DB03C10795
:100B2E004A074A874A874E0F4F6F477F4FFF4FFF47
:100B3E004FFFCFFFCFFFCFFFC87FC07FC33FCC7F1C
:100B4E00CD7FE9FFEBFFE3FFE7FFE7FFE7FFE7FFFF
:100B5E00FFFFFFFFFFFFFFFFFFFFFFFFFFFFFFFF97
:100B6E00FFFFFFFFFFFFFFFFFB7F787F685D601DCC
:100B7E0060956181418143FF53FF53FFD7FFC7FF4C
:100B8E00CFFFCFFF4FFF0FFF8FFFCFFFCABFC2BFF9
:100B9E00529FD81FD89F488F438F83CFEFCF6FC000
:100BAE008FE18FE18FFF9FFF9FFFDFFF5FFF5FFFF3
:100BBE005FFF1FFF3FFF3FFFBFFFBFFFBFFFBFFF37
:100BCE00BFFFBFFFBE7FBE7F3E7F3E7F3E7F3E7F2D
:100BDE001E7F1C7F1E7F1E7F1E7F1C3F1C3F5C7F67
:100BEE00587F58FF48FF49FF69FF71FF3BFFAB1F5E
:100BFE00AB1FA9078827012731323A33343A3536ED
:100C0E00002031362D323620200031323A33343A3C
:060C1E0035362E2E2E00DB
:101F600002410000013D0001401B013F06013E20EF
:061F7000013B06013C12DA
:0B1F9300EF1FAC0670011E4C70F62220
:091F3700121F407580FF7FF40EBB
:101F4000E4FDFCC3ED9FEC9E5015E4FBFA0BBB00D7
:0F1F5000010AEB647A4A70F50DBD00010C80E4C4
:011F5F00225F
:101EC900C2B5C2B3D2B5E4FEC2B3AB07EB1392B449
:101ED900EFC313FFD2B30EBE08EEE4FEC2B3AB05E7
:101EE900EB1392B4EDC313FDD2B30EBE08EEC2B527
:071EF9007F027E00021F932F
:0D1F8600C2B5C2B3C2B47D807F8E021EC9F9
:101E4A00E4FEC2B5C2B3D2B5FDC2B3AB07EB13927F
:101E5A00B4EFC313FFD2B30DBD08EEE4FD30B405F1
:101E6A00430680800353067FD2B3EEC313FEC2B388
:101E7A000DBD08E9C2B5EEC4540FFFEE540FFEEFD4
:061E8A0075F00AA42EFF12
:011E9000222F
:101E9100E4FD7F8E121EC97D407F80121EC97D091F
:101EA1007F82121EC97D137F84121EC97D107F8619
:101EB100121EC97D077F88121EC97D187F8C121ED4
:081EC100C97D807F8E021EC95D
:041F77007F0A7E005F
:0B1F7B00EF1FAC0670011E4C70F62238
:041C7200AD15AF14E9
:041C76008F388D39DD
:101C7A00E4F53AF9F53AE538C394085012AF3874E6
:101C8A0001A807088002C333D8FCF4F5808013E565
:101C9A003824F8FF7401A807088002C333D8FCF47B
:101CAA00F5A07F037E00121F40E539D3940850192E
:101CBA00E4F9E9C3953950307401A801088002C3D8
:101CCA0033D8FCF452800980E9E4F580F9E5392437
:101CDA00F8FFE9C39F50117401A801088002C333B9
:101CEA00D8FCF452A00980E5121F7775A0FF758011
:101CFA00FF7F067E00121F40053AE53AC394425020
:0E1D0A0003021C8030B7FD7F0A7E00021F40DE
:100C2400E4F50AF50BF51AF51BF51CF51D78207C87
:100C340000FD7BFF7A0C7906FE7F091215487529A1
:100C440000752A00752B20782C7C007D007BFF7AB0
:100C54000C790F7E007F0912154875350075360032
:100C640075372C750800750904750C00750D087529
:100C74000E00750F057510007511037512007513BC
:100C84000275140075150375160075170CD2B2D2CF
:100C9400B77FF47E01121F407580FE7FC81E121FAD
:100CA400407580FF121F407580FE121F37E53F75A7
:100CB400F00A842430F520E53F75F00A84E5F02439
:100CC40030F521E54075F00A842430F523E54075BC
:100CD400F00A84E5F02430F524E53D75F00A842417
:100CE40030F526E53D75F00A84E5F02430F527E576
:100CF4003B75F00A842430F52DE53B75F00A84E554
:100D0400F02430F52EE53E75F00A842430F530E504
:100D14003E75F00A84E5F02430F53120B7327F0ABD
:100D24007E00121F4020B728051BE51B7002051A20
:100D3400E4F51CF51DF50AF50BC3E51B950FE51A43
:100D4400950E4005E4F51AF51BAF1BAD0F121C768A
:100D540030B203020CB17F0A7E00121F4030B2038E
:100D6400020CB1051DE51D7002051C7F35121F40E4
:100D7400E4F51EF51FE509C4F8540FC868FFE5083B
:100D8400C454F048FEC3E51F9FE51E9E40030210B5
:100D94000DE51A6003020F77E51B14606B147003F2
:100DA400020E5E147003020EB0147003020EFE24D1
:100DB400046003020F77E509C43354E0850BF0A403
:100DC400FFAE1F75F002EEA42FF582E435F0F58333
:100DD400E582242EF582E5833402F583E493F4F569
:100DE4008075F002EEA42FF582E435F0F583E582F8
:100DF400242FF582E5833402F583E493F4F5A0858A
:100E04001018851119020F77E509C43354E0850BD6
:100E1400F0A4FFAE1F75F002EEA42FF582E435F0C6
:100E2400F583E582248EF582E5833402F583E49329
:100E3400F4F58075F002EEA42FF582E435F0F58325
:100E4400E582248FF582E5833402F583E493F4F597
:100E5400A0851218851319020F77E509C43354E0ED
:100E6400850BF0A4FFAE1F75F002EEA42FF582E40B
:100E740035F0F583E58224CEF582E5833402F583EB
:100E8400E493F4F58075F002EEA42FF582E435F0D6
:100E9400F583E58224CFF582E5833402F583E49378
:100EA400F4F5A0851418851519020F77E509AE0825
:100EB4007805C333CE33CED8F9FFAC0AAD0B121587
:100EC40087AC06AD07E51F25E0FFE51E33FEED2FD9
:100ED400FFEC3EFE742E2FF58274033EF583E493FB
:100EE400F4F580742F2FF58274033EF583E493F4B4
:100EF400F5A08516188517198079751800751904D9
:100F04007E00E51F5407FFAB29AA2AA92B12156EF0
:100F140075F008A42FF582EE35F0F583E58224AE52
:100F2400F582E5833403F583E493F580E51F5407E4
:100F3400FFAB35AA36A93712156E75F008A42FF544
:100F440082EE35F0F583E58224AEF582E583340341
:100F5400F583E493F5A0E51F540764077015042591
:100F64002BF52BE4352AF52A74012537F537E435BA
:100F740036F5367F647E00121F7BE509AE087805DE
:100F8400C333CE33CED8F9FFAC0AAD0B121587AC00
:100F940006AD07E51F25E0FFE51E33FEED2FFFEC50
:100FA4003ECF2402FDE43FFCE519AE187805C333B7
:100FB400CE33CED8F9FFC3ED9FEC9E4041E51D959D
:100FC4000DE51C950C4009E4F51CF51DF50AF50B1F
:100FD400E509C4F8540FC868FFE508C454F048FE96
:100FE400EF24FFF51FEE34FFF51E752900752A0066
:100FF400752B2075350075360075372C800B051F51
:10100400E51F7002051E020D79E509AE087805C3D7
:1010140033CE33CED8F9FFAC0AAD0B121587AC062C
:10102400AD07E51F25E0FFE51E33FEED2FFFEC3E87
:10103400CF2402FDE43FFCE519AE187805C333CE96
:1010440033CED8F9FFC3ED9FEC9E4003020CB1C32D
:10105400E51D950DE51C950C5003020CB1E4F51C3F
:0D106400F51D050BE50B7002050A020CB12D
:10107100E4F508F509F50AF50BF50CF50DF50EF596
:101081000FF512F513F514751504F51678177C0094
:10109100FD7BFF7A0C7918FE7F0C121548E4F523CD
:1010A10075240E752546F5267527007528177FC806
:1010B100FE121F407580EF121F407580FF121F4006
:1010C1007580EF121F37050DE50D7002050C20B775
:1010D1001C0514E514C395154003E4F514121C72A4
:1010E100E4F508F509F512F513F50EF50FE53F7571
:1010F100F00A842430F517E53F75F00A84E5F02401
:1011010030F518E54075F00A842430F51AE540758C
:10111100F00A84E5F02430F51BE53D75F00A8424DE
:1011210030F51DE53D75F00A84E5F02430F51EE546
:1011310014604714700302123E24FE70030212561B
:101141000460030212A5752303751001751180E572
:10115100132509FFE5123508FE742E2FF58274035D
:101161003EF583E493F4F580742F2FF58274033EEA
:10117100F583E493F4F5A00212A5752302AB26AA28
:1011810027A92812156E75F008A4250BF582E5F044
:10119100350AF583E58224AEF582E5833403F583D0
:1011A100E493F580050BE50B7002050AC39408E58D
:1011B1000A940050030212A5E4F50AF50B04252850
:1011C100F528E43527F527AB26FAA92812156E6014
:1011D100030212A5F52675270075281730903020D7
:1011E100B7200514E514C395154003E4F514121C4A
:1011F10072E4F508F509F512F513F50EF50FF50A88
:10120100F50B121F77050BE50B70D1050A80CDAEEA
:101211000AAF0B7C007D46121587EF7803CEC3130E
:10122100CE13D8F9FFAD257C00121599EF250DF5E8
:101231000DEE350CF50CE4F50AF50B80677523010D
:101241007510007511E0E5132509FF9007A693F5C8
:10125100A0EFA3804C7523017510007511E0E51313
:101261002509FFE5123508FE75F0E0E516A4248690
:10127100F582E5F03408F583E5822FF582E5833EBA
:10128100F583E493F5A075F0E0E516A42487F582D3
:10129100E5F03408F583E5822FF582E5833EF58399
:1012A100E493F580AF257E00121F7B7580FF75A04A
:1012B100FFE52575F00784FF7E00121F7BE51325EE
:1012C10009FFE5123508FEE51124FEFDE51034FFA6
:1012D100FCC3EF9DEE9C407775A0FF7580FF3090B9
:1012E1004220B7200514E514C395154003E4F51415
:1012F100121C72E4F508F509F512F513F50EF50F58
:10130100F50AF50BE52364036005E523B4010D122D
:101311001F77050BE50B70C6050A80C2E4F50AF5D7
:101321000B80BBAE0AAF0B7C007D46121587EF78B0
:1013310003CEC313CE13D8F9FFAD257C0012159946
:10134100EF250DF50DEE350CF50CE4F50AF50B3036
:101351009026E5132509FFE5123508FEE51124FE67
:10136100FDE51034FFFCC3EF9DEE9C500B7402258C
:1013710009F509E43508F5083090030210C7E524A2
:1013810075F008A4FFAEF02401FDE43EFCD3E50DA9
:101391009DE50C9C40020525EF24FFFFEE34FFFE86
:1013A100C3E50D9FE50C9E50021525E4F50CF50DE6
:1013B100F526752700752817F50AF50B7580FFE5E9
:1013C1001124FEFFE51034FFFEC3E5139FE5129ED5
:1013D100400BE4F512F513F50EF50F800B740225A1
:1013E10013F513E43512F512E523B402047F0180ED
:1013F100027F00E523B401047E0180027E00EE4FEE
:101401006005E4F512F513E4F508F5093090FDE502
:1014110023B4033AC3E50F9478E50E940050127497
:1014210002250FF50FE4350EF50EE4F512F51380E4
:1014310006750E00750F78C37478950FFFE4950E4D
:10144100FEAD257C00121587121F7B0210C7050F08
:10145100E50F7002050ED39402E50E9400500302CD
:1014610010C7E4F50EF50F0516E5166404600302D6
:0714710010C7F5160210C7B9
:101B8000E4F557F558755907755AD07580FF2090C0
:101B90001185575985585AE4F557F5587580FF3027
:101BA00090FD3090E90558E558700205577F2F7E6B
:101BB00000121F7BAE57AF58E4FCFD7BDC7AFFF9C7
:101BC000F8C31215EE50067557077558D0AE59AFC9
:101BD0005A7C007D05121587AA06AB07AE57AF5891
:101BE0007D3B121587AD03AC02121599D3ED9444D9
:101BF000EC940050087580FC75A0FF800675A0FF6E
:101C00007580FFAE57AF587C007D3B121587AC59ED
:101C1000AD5A1215997C00EFB53D0AECB506067574
:101C2000A0005380037C00EFB5400AECB5060675B2
:101C3000A00053807FAE57AF587C007D3B121587C4
:101C4000AC59AD5A121599AC06AD07E53F75F005D4
:101C5000A4FFAEF0E54075F00C847A002FFFEA3E59
:101C6000FEED6F7002EC6E6003021B8E53A001024A
:021C70001B8EC9
:10161000E4F551F5527553037554E8F555F55675D3
:1016200080FF20900E855153855254E4F551F552B8
:101630003090FD3090EC0552E552700205517F501C
:101640007E00121F7BAE51AF52E4FCFD7BDC7AFFC3
:10165000F9F8C31215EE50067551EA755260AE5393
:10166000AF547C007D0F121587AA06AB07AE51AFB1
:10167000527D3B121587AD03AC021215998C558D26
:1016800056AE53AF547C007D05121587AA06AB07F2
:10169000AE51AF527D3B121587AD03AC02121599C6
:1016A000D3ED943CEC940050067580FE75A0FFD3FA
:1016B000E556943CE555940050035380F8D3ED94DF
:1016C0003CEC9400400675A0FF7580FFE53F75F087
:1016D0000C84AFF07555008F56AF3D7E00AC53AD16
:1016E00054121587EF24E2FBEE34FFFAAE51AF52ED
:1016F0007C007D3B121587D3EF9BEE9A402AAF3DCD
:101700007E00AC53AD54121587EF241EFBE43EFA65
:10171000AE51AF527C007D3B121587C3EF9BEE9A12
:10172000500675A000538003AE51AF527C007D3B44
:10173000121587AA06AB07AC53AD541215997C005D
:10174000EFB5400AECB5060675A00053801FAC53F8
:10175000AD54AF03AE02121599AA06AB07AE55AF52
:10176000567C007D05121587E54075F00C842FFF2F
:10177000EC3EFEEB6F7002EA6E6003021622F5A0EB
:031780000216222C
:10178300E4F543F5447545037546E8F582F583F5BD
:1017930047F548F5497580FF753D0A75400A753F61
:1017A3000A2090020549C3E549648094814010856D
:1017B3004345854446E4F543F544F5493090FD053A
:1017C30044E544700205437F3C7E00121F7BAE4319
:1017D300AF44E4FCFD7BDC7AFFF9F8C31215EE504D
:1017E300067543EA754460AE45AF467C007D0F1233
:1017F3001587AA06AB07AE43AF447D3B121587ADF1
:1018030003AC021215998C838D82AE45AF467C00E2
:101813007D05121587AA06AB07AE43AF447D3B1285
:101823001587AD03AC021215998C478D48D3E58219
:10183300943CE583940050035380F8D3E548943CEB
:10184300E547940050085380FE75A0FF800675A0FD
:10185300FF7580FFAE43AF447C007D3B1215878E3E
:10186300838F82AF3D7E00AC45AD461215878E4710
:101873008F48E54824CEFFE54734FFFED3E5829F3A
:10188300E5839E4018E5482432FFE43547FEC3E56F
:10189300829FE5839E500675A000538003AE43AF3D
:1018A300447C007D3B121587AC45AD461215998EDD
:1018B300478F48E540B54809E4B54705F5A053808F
:1018C3001FE53F75F00C84E5F075F005A4FFAEF05D
:1018D300E54075F00C847C002FF582EC3EF583E542
:1018E3004865827004E547658360030217A4F5A089
:0318F3000217A435
:1018F600E4F54AF54B754C03754DE8F582F583F52D
:101906004EF54FF5507580FF753D0A75400A753FD7
:101916000A2090020550C3E55064809481401085EA
:101926004A4C854B4DE4F54AF54BF5503090FD0594
:101936004BE54B7002054A7F3C7E00121F7BAE4A88
:10194600AF4BE4FCFD7BDC7AFFF9F8C31215EE50D1
:1019560006754AEA754B60AE4CAF4D7C007D0F12A2
:101966001587AA06AB07AE4AAF4B7D3B121587AD6E
:1019760003AC021215998C838D82AE4CAF4D7C0060
:101986007D05121587AA06AB07AE4AAF4B7D3B1203
:101996001587AD03AC021215998C4E8D4FD3E58297
:1019A600943CE583940050035380F8D3E54F943C70
:1019B600E54E940050085380FE75A0FF800675A082
:1019C600FF7580FFAE4AAF4B7C007D3B121587AAA0
:1019D60006AB078A838B82AF3D7E00AC4CAD4D12C1
:1019E60015878E4E8F4FAF03AE02121599D3EF9522
:1019F6003DEE940050035380EF8E4E8F4FD3E54F4C
:101A06009540E54E9400500353807FE53F75F00CFA
:101A160084E5F075F005A4FFAEF0E54075F00C84A2
:101A26007C002FF582EC3EF583D3E54F9582E54E9B
:0D1A36009583400302191753A0FB021917F6
:101A4300E4F508F509F50AF50BF50C750D01F50E2E
:101A5300750F0575100175112CF5127FC8FE121F45
:101A63004075A0FE121F4075A0FF121F4075A0FE17
:101A7300121F4075A0FF7FF40E121F4075F020E582
:101A830012A4F58285F083AF0975F002EF121604F4
:101A9300E582240EF582E5833400F583E493F5A013
:101AA30075F020E512A4F58285F08375F002EF123C
:101AB3001604E582240FF582E5833400F583E4936D
:101AC300F5807F5A7E00121F7B7FC87E00121F7B2A
:101AD3000509E5097002050825E0FFE50833FEEF77
:101AE3002402FFE43EFEC3EF9420EE9400400DE495
:101AF300F508F509050BE50B7002050A20B7390552
:101B030012E50D6401450C7006F50CF50DF512AFE9
:101B130012EF3395E0FEC3EF950FEE950E400E7571
:101B230012FF750C00750D01E4F50AF50BE51204BF
:101B3300FFE50F04FD121C76E50D6401450C6003FF
:101B4300021A7FD3E512648094805003E4F512C334
:101B5300E50B9511E50A95105003021A7FE4F50A87
:101B6300F50B0512AF12EF3395E0FEC3EF950FEEC1
:0D1B7300950E5003021A7FE4F512021A7F4E
:101D1800758901758CEEE4F58AD2AFD2A9D28CD23E
:101D280090121F867F81121E4A8F3D7F83121E4AA2
:101D38008F407F85121E4A8F3F7F87121E4A8F3E33
:101D48007F89121E4A8F3B7F8D121E4A8F3CE53ECB
:101D5800C3942050287F8D121E4AEFB53C1F7F89FF
:101D6800121E4AEFB53B167F87121E4AEFB53E0D8D
:101D7800E4F5A07FF47E01121F4075A0FF209503B3
:101D8800120C2430B1047F0180027F003095047E5C
:101D98000180027E00EE5F60031210713095047FAF
:101DA8000180027F0020B1047E0180027E00EE5F88
:061DB8006003121A432231
:03000B00021F00D1
:101F0000C0E0C0D0758CEE758A000542E5427002D3
:101F1000054164C845417006053DF541F542E53D82
:101F2000B43C050540753D00E540B43C05053F75F2
:071F30004000D0D0D0E032E8
:03000000021DBE20
:0C1DBE00787FE4F6D8FD75815A021E05FE
:10147800E709F608DFFA8046E709F208DFFA803E56
:1014880088828C83E709F0A3DFFA8032E309F60843
:10149800DFFA8078E309F208DFFA807088828C83AB
:1014A800E309F0A3DFFA806489828A83E0A3F6085F
:1014B800DFFA805889828A83E0A3F208DFFA804C39
:1014C80080D280FA80C680D4806980F28033801010
:1014D80080A680EA809A80A880DA80E280CA803379
:1014E80089828A83ECFAE493A3C8C582C8CCC583F1
:1014F800CCF0A3C8C582C8CCC583CCDFE9DEE780C1
:101508000D89828A83E493A3F608DFF9ECFAA9F03F
:10151800EDFB2289828A83ECFAE0A3C8C582C8CC95
:10152800C583CCF0A3C8C582C8CCC583CCDFEADEAE
:10153800E880DB89828A83E493A3F208DFF980CC10
:1015480088F0EF60010E4E60C388F0ED2402B40409
:101558000050B9F582EB2402B4040050AF232345B0
:0615680082239014C873F9
:10156E00BB010689828A83E0225002E722BBFE027B
:09157E00E32289828A83E49322AE
:10158700EF8DF0A4A8F0CF8CF0A428CE8DF0A42E78
:02159700FE2232
:10159900BC000BBE0029EF8DF084FFADF022E4CC36
:1015A900F875F008EF2FFFEE33FEEC33FCEE9DECFF
:1015B900984005FCEE9DFE0FD5F0E9E4CEFD22ED45
:1015C900F8F5F0EE8420D21CFEADF075F008EF2F8F
:1015D900FFED33FD4007985006D5F0F222C398FD80
:0515E9000FD5F0EA221D
:1015EE00EB9FF5F0EA9E42F0E99D42F0EC6480C874
:0615FE0064809845F02214
:0C160400A42582F582E5F03583F58322F1
:101DCA00021D18E493A3F8E493A34003F68001F2FA
:101DDA0008DFF48029E493A3F85407240CC8C3331A
:101DEA00C4540F4420C8834004F456800146F6DFE9
:101DFA00E4800B0102040810204080901F60E47EFA
:101E0A00019360BCA3FF543F30E509541FFEE493DD
:101E1A00A360010ECF54C025E060A840B8E493A3A4
:101E2A00FAE493A3F8E493A3C8C582C8CAC583CACF
:101E3A00F0A3C8C582C8CAC583CADFE9DEE780BE87
:011F7600006A
:00000001FF
