C51 COMPILER V8.02   TEXT1                                                                 07/24/2016 16:04:09 PAGE 1   


C51 COMPILER V8.02, COMPILATION OF MODULE TEXT1
OBJECT MODULE PLACED IN Text1.OBJ
COMPILER INVOKED BY: D:\keil英文\C51\BIN\C51.EXE Text1.c BROWSE DEBUG OBJECTEXTEND TABS(5)

line level    source

   1          #include <reg52.h>
   2          sbit KEY=P3^6;                                            /*定位红外接收引脚*/
   3          code unsigned  int love[] = {    /***********            ****/
   4               0x00,0x00,                     /*  改元素及z值即可*/
   5          /*完整*/ 0x0F,0x00,0x10,0x80,0x20,0x40,0x20,0x20,
   6                0x20,0x10,0x20,0x08,0x10,0x04,0x08,0x02,
   7                0x08,0x02,0x10,0x04,0x20,0x08,0x20,0x10,
   8                0x20,0x20,0x20,0x40,0x10,0x80,0x0F,0x00,
   9          
  10          /*一*/ 0x0F,0x00,0x10,0x80,0x20,0x40,0x20,0x20,
  11                0x20,0x10,0x20,0x08,0x10,0x04,0x08,0x02,
  12                0x00,0x02,0x00,0x04,0x20,0x08,0x20,0x10,
  13                0x20,0x20,0x20,0x40,0x10,0x80,0x0F,0x00,
  14          
  15          /*一*/ 0x0F,0x00,0x10,0x80,0x20,0x40,0x20,0x20,
  16                0x20,0x10,0x20,0x08,0x10,0x04,0x08,0x02,
  17                0x08,0x02,0x10,0x04,0x00,0x08,0x00,0x10,
  18                0x20,0x20,0x20,0x40,0x10,0x80,0x0F,0x00,
  19          
  20          /*一*/ 0x0F,0x00,0x10,0x80,0x20,0x40,0x20,0x20,
  21                0x20,0x10,0x20,0x08,0x10,0x04,0x08,0x02,
  22                0x08,0x02,0x10,0x04,0x20,0x08,0x20,0x10,
  23                0x00,0x20,0x00,0x40,0x10,0x80,0x0F,0x00,
  24          
  25          /*一*/ 0x0F,0x00,0x10,0x80,0x20,0x40,0x20,0x20,
  26                0x20,0x10,0x20,0x08,0x10,0x04,0x08,0x02,
  27                0x08,0x02,0x10,0x04,0x20,0x08,0x20,0x10,
  28                0x20,0x20,0x20,0x40,0x00,0x80,0x07,0x00,
  29          
  30          /*一*/ 0x0F,0x00,0x10,0x80,0x20,0x40,0x20,0x20,
  31                0x20,0x10,0x20,0x08,0x10,0x04,0x08,0x02,
  32                0x08,0x02,0x10,0x04,0x20,0x08,0x20,0x10,
  33                0x20,0x20,0x20,0x40,0x10,0x80,0x09,0x00,
  34          
  35          /*一*/ 0x0F,0x00,0x10,0x80,0x20,0x40,0x20,0x20,
  36                0x20,0x10,0x20,0x08,0x10,0x04,0x08,0x02,
  37                0x08,0x02,0x10,0x04,0x20,0x08,0x20,0x10,
  38                0x20,0x20,0x20,0x40,0x10,0x00,0x0E,0x00,
  39          
  40          /*一*/ 0x0F,0x00,0x10,0x80,0x20,0x40,0x20,0x20,
  41                0x20,0x10,0x20,0x08,0x10,0x04,0x08,0x02,
  42                0x08,0x02,0x10,0x04,0x20,0x08,0x20,0x10,
  43                0x20,0x00,0x20,0x00,0x10,0x80,0x0F,0x00,
  44          
  45          /*一*/ 0x0F,0x00,0x10,0x80,0x20,0x40,0x20,0x20,
  46                0x20,0x10,0x20,0x08,0x10,0x04,0x08,0x02,
  47                0x08,0x02,0x10,0x04,0x20,0x00,0x20,0x00,
  48                0x20,0x20,0x20,0x40,0x10,0x80,0x0F,0x00,
  49          
  50          /*一*/ 0x0F,0x00,0x10,0x80,0x20,0x40,0x20,0x20,
  51                0x20,0x10,0x20,0x08,0x10,0x04,0x08,0x02,
  52                0x08,0x00,0x10,0x00,0x20,0x08,0x20,0x10,
  53                0x20,0x20,0x20,0x40,0x10,0x80,0x0F,0x00,
  54          
  55          /*一*/ 0x0F,0x00,0x10,0x80,0x20,0x40,0x20,0x20,
C51 COMPILER V8.02   TEXT1                                                                 07/24/2016 16:04:09 PAGE 2   

  56                0x20,0x10,0x20,0x08,0x10,0x00,0x08,0x00,
  57                0x08,0x02,0x10,0x04,0x20,0x08,0x20,0x10,
  58                0x20,0x20,0x20,0x40,0x10,0x80,0x0F,0x00,
  59          
  60          /*一*/ 0x0F,0x00,0x10,0x80,0x20,0x40,0x20,0x20,
  61                0x20,0x00,0x20,0x00,0x10,0x04,0x08,0x02,
  62                0x08,0x02,0x10,0x04,0x20,0x08,0x20,0x10,
  63                0x20,0x20,0x20,0x40,0x10,0x80,0x0F,0x00,
  64          
  65          /*一*/ 0x0F,0x00,0x10,0x80,0x20,0x00,0x20,0x00,
  66                0x20,0x10,0x20,0x08,0x10,0x04,0x08,0x02,
  67                0x08,0x02,0x10,0x04,0x20,0x08,0x20,0x10,
  68                0x20,0x20,0x20,0x40,0x10,0x80,0x0F,0x00,
  69          
  70          /*一*/ 0x0E,0x00,0x10,0x00,0x20,0x40,0x20,0x20,
  71                0x20,0x10,0x20,0x08,0x10,0x04,0x08,0x02,
  72                0x08,0x02,0x10,0x04,0x20,0x08,0x20,0x10,
  73                0x20,0x20,0x20,0x40,0x10,0x80,0x0F,0x00,
  74          
  75          /*一*/ 0x09,0x00,0x10,0x80,0x20,0x40,0x20,0x20,
  76                0x20,0x10,0x20,0x08,0x10,0x04,0x08,0x02,
  77                0x08,0x02,0x10,0x04,0x20,0x08,0x20,0x10,
  78                0x20,0x20,0x20,0x40,0x10,0x80,0x0F,0x00,
  79          
  80          /*一*/ 0x07,0x00,0x00,0x80,0x20,0x40,0x20,0x20,
  81                0x20,0x10,0x20,0x08,0x10,0x04,0x08,0x02,
  82                0x08,0x02,0x10,0x04,0x20,0x08,0x20,0x10,
  83                0x20,0x20,0x20,0x40,0x10,0x80,0x0F,0x00,
  84          
  85          /*一*/ 0x0F,0x00,0x10,0x80,0x00,0x40,0x00,0x20,
  86                0x20,0x10,0x20,0x08,0x10,0x04,0x08,0x02,
  87                0x08,0x02,0x10,0x04,0x20,0x08,0x20,0x10,
  88                0x20,0x20,0x20,0x40,0x10,0x80,0x0F,0x00,
  89          
  90          /*一*/ 0x0F,0x00,0x10,0x80,0x20,0x40,0x20,0x20,
  91                0x00,0x10,0x00,0x08,0x10,0x04,0x08,0x02,
  92                0x08,0x02,0x10,0x04,0x20,0x08,0x20,0x10,
  93                0x20,0x20,0x20,0x40,0x10,0x80,0x0F,0x00,
  94          
  95          /*一*/ 0x0F,0x00,0x10,0x80,0x20,0x40,0x20,0x20,
  96                0x20,0x10,0x20,0x08,0x00,0x04,0x00,0x02,
  97                0x08,0x02,0x10,0x04,0x20,0x08,0x20,0x10,
  98                0x20,0x20,0x20,0x40,0x10,0x80,0x0F,0x00,
  99          };
 100          /*****n（us）延时子程序*****/
 101          void DelayUs(unsigned int N)
 102              {
 103   1              unsigned int x ;
 104   1              for(x=0;x<=N;x++);
 105   1          }
 106          /*主程序*/
 107          main()
 108              {
 109   1              int i=-1,j=0,x=32+2,z=2+32*19,n=0;             /* X 格中的个数，32+2为 在第一格表演 */  
 110   1              while(1)                                      /*z为总元素个数*/
 111   1              {         
 112   2                        if(x-2-j*32-i*2>0)
 113   2                        {
 114   3                             i++;
 115   3                        }         
 116   2                        P0=~love[x-2-i*2];       
 117   2                        P2=~love[x-1-i*2];                             
C51 COMPILER V8.02   TEXT1                                                                 07/24/2016 16:04:09 PAGE 3   

 118   2                        DelayUs(90);
 119   2                        P0=0XFF;
 120   2                        P2=0XFF;
 121   2                        DelayUs(10);
 122   2                        if(x-2-j*32-i*2==2)
 123   2                        {   
 124   3                            j++;
 125   3                            x=32+x;
 126   3                        }
 127   2                        if(x-2-j*32-i*2<=2)
 128   2                        {
 129   3                            i=x/2-1;
 130   3                        }
 131   2                        if(z<x-30)
 132   2                        {
 133   3                            x=32+2;
 134   3                            j=0;
 135   3                            i=x/2-1;
 136   3                        }
 137   2                   if(KEY==1)
 138   2                      {    
 139   3                           n++;                         //加n上限 ,开头延时
 140   3                          if(n>20000)
 141   3                          {
 142   4                              n=200;
 143   4                          }
 144   3                          if(n>=110)
 145   3                          {
 146   4                           while(KEY)
 147   4                           {
 148   5                            i=-1;
 149   5                           }
 150   4                           }
 151   3                      }
 152   2              }
 153   1          }


MODULE INFORMATION:   STATIC OVERLAYABLE
   CODE SIZE        =    428    ----
   CONSTANT SIZE    =   1220    ----
   XDATA SIZE       =   ----    ----
   PDATA SIZE       =   ----    ----
   DATA SIZE        =   ----       8
   IDATA SIZE       =   ----    ----
   BIT SIZE         =   ----    ----
END OF MODULE INFORMATION.


C51 COMPILATION COMPLETE.  0 WARNING(S),  0 ERROR(S)
