BL51 BANKED LINKER/LOCATER V6.00                                                        05/23/2020  10:25:01  PAGE 1


BL51 BANKED LINKER/LOCATER V6.00, INVOKED BY:
E:\KEIL\C51\BIN\BL51.EXE main.obj, LCD12864.obj, LCDShoeMap.obj, GameGraph.obj TO LatticeLCD


MEMORY MODEL: SMALL


INPUT MODULES INCLUDED:
  main.obj (MAIN)
  LCD12864.obj (LCD12864)
  LCDShoeMap.obj (LCDSHOEMAP)
  GameGraph.obj (GAMEGRAPH)
  E:\KEIL\C51\LIB\C51S.LIB (?C_STARTUP)
  E:\KEIL\C51\LIB\C51S.LIB (?C?CLDOPTR)
  E:\KEIL\C51\LIB\C51S.LIB (?C?SIDIV)
  E:\KEIL\C51\LIB\C51S.LIB (?C_INIT)
  E:\KEIL\C51\LIB\C51S.LIB (?C?UIDIV)


LINK MAP OF MODULE:  LatticeLCD (MAIN)


            TYPE    BASE      LENGTH    RELOCATION   SEGMENT NAME
            -----------------------------------------------------

            * * * * * * *   D A T A   M E M O R Y   * * * * * * *
            REG     0000H     0008H     ABSOLUTE     "REG BANK 0"
            DATA    0008H     0019H     UNIT         ?DT?MAIN
            DATA    0021H     0012H     UNIT         _DATA_GROUP_
            DATA    0033H     0008H     UNIT         ?DT?_VSHOWGRAPH?LCD12864
            DATA    003BH     0006H     UNIT         ?DT?_VSHOWONENEM?MAIN
            DATA    0041H     0001H     UNIT         ?DT?VSHOWFRAME?GAMEGRAPH
            IDATA   0042H     0001H     UNIT         ?STACK

            * * * * * * *   C O D E   M E M O R Y   * * * * * * *
            CODE    0000H     0003H     ABSOLUTE     
            CODE    0003H     0020H     UNIT         ?PR?_UART_SEND_CHAR?MAIN
            CODE    0023H     0003H     ABSOLUTE     
            CODE    0026H     0310H     UNIT         ?CO?LCDSHOEMAP
            CODE    0336H     0305H     UNIT         ?CO?MAIN
            CODE    063BH     02D2H     UNIT         ?PR?MAIN?MAIN
            CODE    090DH     00BBH     UNIT         ?PR?VSHOWFRAME?GAMEGRAPH
            CODE    09C8H     00B8H     UNIT         ?C?LIB_CODE
            CODE    0A80H     008DH     UNIT         ?PR?_VSHOWCUSTOMROW?LCD12864
            CODE    0B0DH     008CH     UNIT         ?C_C51STARTUP
            CODE    0B99H     0061H     UNIT         ?PR?RX_INT?MAIN
            CODE    0BFAH     0047H     UNIT         ?PR?_VSHOWONENEM?MAIN
            CODE    0C41H     0035H     UNIT         ?PR?_VSHOWONECHAR_NEW?MAIN
            CODE    0C76H     0035H     UNIT         ?PR?_VSHOWGRAPH?LCD12864
            CODE    0CABH     002DH     UNIT         ?PR?_VSHOWONECHIN?LCD12864
            CODE    0CD8H     002DH     UNIT         ?PR?_VSHOWONECHAR?LCD12864
            CODE    0D05H     0028H     UNIT         ?PR?_UART_SEND?MAIN
            CODE    0D2DH     0024H     UNIT         ?PR?_UART_SEND_STR?MAIN
            CODE    0D51H     0023H     UNIT         ?PR?_VWRITEDATA?LCD12864
            CODE    0D74H     001DH     UNIT         ?PR?VLCDINITIALIZE?LCD12864
            CODE    0D91H     001CH     UNIT         ?PR?_VWRITECMD?LCD12864
            CODE    0DADH     0019H     UNIT         ?PR?UART_INIT?MAIN
            CODE    0DC6H     0019H     UNIT         ?PR?_DELAY_MS?MAIN
BL51 BANKED LINKER/LOCATER V6.00                                                      05/23/2020  10:25:01  PAGE 2


            CODE    0DDFH     0010H     UNIT         ?C_INITSEG
            CODE    0DEFH     000EH     UNIT         ?PR?BCHECKBUSY?LCD12864



OVERLAY MAP OF MODULE:   LatticeLCD (MAIN)


SEGMENT                                DATA_GROUP 
  +--> CALLED SEGMENT                START    LENGTH
----------------------------------------------------
?PR?RX_INT?MAIN                      -----    -----
  +--> ?CO?MAIN
  +--> ?PR?_UART_SEND_STR?MAIN

?PR?_UART_SEND_STR?MAIN              0021H    0003H
  +--> ?PR?_UART_SEND_CHAR?MAIN

*** NEW ROOT ***************************************************

?C_C51STARTUP                        -----    -----
  +--> ?PR?MAIN?MAIN
  +--> ?C_INITSEG

?PR?MAIN?MAIN                        0024H    0002H
  +--> ?PR?VLCDINITIALIZE?LCD12864
  +--> ?PR?UART_INIT?MAIN
  +--> ?CO?MAIN
  +--> ?PR?_VSHOWONECHIN?LCD12864
  +--> ?PR?_VSHOWONECHAR_NEW?MAIN
  +--> ?PR?_DELAY_MS?MAIN

?PR?VLCDINITIALIZE?LCD12864          -----    -----
  +--> ?PR?_VWRITECMD?LCD12864

?PR?_VWRITECMD?LCD12864              -----    -----
  +--> ?PR?BCHECKBUSY?LCD12864

?PR?_VSHOWONECHIN?LCD12864           0026H    0004H
  +--> ?PR?_VSHOWCUSTOMROW?LCD12864

?PR?_VSHOWCUSTOMROW?LCD12864         002CH    0007H
  +--> ?PR?_VWRITECMD?LCD12864
  +--> ?PR?_VWRITEDATA?LCD12864

?PR?_VWRITEDATA?LCD12864             -----    -----
  +--> ?PR?BCHECKBUSY?LCD12864

?PR?_VSHOWONECHAR_NEW?MAIN           0026H    0002H
  +--> ?CO?LCDSHOEMAP
  +--> ?PR?_VSHOWONECHAR?LCD12864

?PR?_VSHOWONECHAR?LCD12864           0028H    0004H
  +--> ?PR?_VSHOWCUSTOMROW?LCD12864



BL51 BANKED LINKER/LOCATER V6.00                                                      05/23/2020  10:25:01  PAGE 3


SYMBOL TABLE OF MODULE:  LatticeLCD (MAIN)

  VALUE           TYPE          NAME
  ----------------------------------

  -------         MODULE        MAIN
  C:0000H         SYMBOL        _ICE_DUMMY_
  D:00A0H         PUBLIC        P2
  B:00A0H.0       PUBLIC        in_key
  D:00B0H         PUBLIC        P3
  B:00A0H.4       PUBLIC        led2_down
  B:00A0H.1       PUBLIC        out_key
  B:00A8H.7       PUBLIC        EA
  B:00A8H.4       PUBLIC        ES
  B:0098H.0       PUBLIC        RI
  C:04BBH         PUBLIC        card
  B:0098H.1       PUBLIC        TI
  D:0008H         PUBLIC        updown_flag
  D:0009H         PUBLIC        RXD_num
  C:063BH         PUBLIC        main
  C:0D05H         PUBLIC        _uart_send
  C:0017H         PUBLIC        _uart_send_char
  B:00A0H.3       PUBLIC        led1_up
  D:0099H         PUBLIC        SBUF
  C:0DC6H         PUBLIC        _delay_ms
  C:035BH         PUBLIC        dao
  D:0089H         PUBLIC        TMOD
  D:000AH         PUBLIC        uart_data
  D:001EH         PUBLIC        uart_flag
  C:0BFAH         PUBLIC        _vShowOneNem
  C:059BH         PUBLIC        bye
  D:001FH         PUBLIC        car_left
  C:0C54H         PUBLIC        _vShowOneChar_new
  B:00B0H.4       PUBLIC        buzz
  D:008DH         PUBLIC        TH1
  B:0098H.7       PUBLIC        SM0
  D:0020H         PUBLIC        car_pass
  B:0098H.6       PUBLIC        SM1
  D:008BH         PUBLIC        TL1
  C:0DADH         PUBLIC        uart_init
  C:0B99H         PUBLIC        RX_int
  C:033BH         PUBLIC        ni
  B:0088H.6       PUBLIC        TR1
  C:03DBH         PUBLIC        shengxia
  C:061BH         PUBLIC        void0
  B:0098H.4       PUBLIC        REN
  C:0D2DH         PUBLIC        _uart_send_str
  C:051BH         PUBLIC        welcome
  B:00B0H.2       PUBLIC        key1
  -------         PROC          UART_INIT
  C:0DADH         LINE#         18
  C:0DADH         LINE#         19
  C:0DADH         LINE#         20
  C:0DB0H         LINE#         21
  C:0DB3H         LINE#         22
  C:0DB6H         LINE#         23
  C:0DB9H         LINE#         24
BL51 BANKED LINKER/LOCATER V6.00                                                      05/23/2020  10:25:01  PAGE 4


  C:0DBBH         LINE#         26
  C:0DBDH         LINE#         27
  C:0DBFH         LINE#         28
  C:0DC1H         LINE#         29
  C:0DC3H         LINE#         30
  C:0DC5H         LINE#         31
  -------         ENDPROC       UART_INIT
  C:0005H         SYMBOL        L?0068
  C:0009H         SYMBOL        L?0069
  C:000CH         SYMBOL        L?0070
  -------         PROC          L?0067
  -------         ENDPROC       L?0067
  C:0005H         SYMBOL        L?0068
  C:0009H         SYMBOL        L?0069
  C:000CH         SYMBOL        L?0070
  -------         PROC          _UART_SEND_CHAR
  D:0007H         SYMBOL        i
  C:0017H         LINE#         32
  C:0017H         LINE#         33
  C:0017H         LINE#         34
  C:0019H         LINE#         35
  C:001BH         LINE#         36
  C:001EH         LINE#         37
  C:0020H         LINE#         38
  C:0022H         LINE#         39
  -------         ENDPROC       _UART_SEND_CHAR
  -------         PROC          _UART_SEND_STR
  D:0021H         SYMBOL        zifu
  -------         DO            
  D:0004H         SYMBOL        i
  -------         ENDDO         
  C:0D2DH         LINE#         40
  C:0D33H         LINE#         41
  C:0D33H         LINE#         42
  C:0D36H         LINE#         43
  C:0D46H         LINE#         44
  C:0D46H         LINE#         45
  C:0D49H         LINE#         46
  C:0D4EH         LINE#         47
  C:0D50H         LINE#         48
  -------         ENDPROC       _UART_SEND_STR
  -------         PROC          _UART_SEND
  D:0002H         SYMBOL        num
  C:0D05H         LINE#         49
  C:0D09H         LINE#         50
  C:0D09H         LINE#         51
  C:0D10H         LINE#         52
  C:0D17H         LINE#         53
  C:0D1CH         LINE#         54
  C:0D21H         LINE#         55
  C:0D28H         LINE#         56
  -------         ENDPROC       _UART_SEND
  -------         PROC          _DELAY_MS
  D:0006H         SYMBOL        t
  -------         DO            
  D:0004H         SYMBOL        j
  -------         ENDDO         
BL51 BANKED LINKER/LOCATER V6.00                                                      05/23/2020  10:25:01  PAGE 5


  C:0DC6H         LINE#         133
  C:0DC6H         LINE#         135
  C:0DCAH         LINE#         136
  C:0DDEH         LINE#         137
  -------         ENDPROC       _DELAY_MS
  C:0C41H         SYMBOL        L?0065
  C:0C49H         SYMBOL        L?0066
  -------         PROC          L?0064
  -------         ENDPROC       L?0064
  C:0C41H         SYMBOL        L?0065
  C:0C49H         SYMBOL        L?0066
  -------         PROC          _VSHOWONECHAR_NEW
  D:0026H         SYMBOL        ucPage
  D:0027H         SYMBOL        ucLine
  D:0003H         SYMBOL        char1
  C:0C54H         LINE#         138
  C:0C58H         LINE#         139
  -------         ENDPROC       _VSHOWONECHAR_NEW
  -------         PROC          _VSHOWONENEM
  D:003BH         SYMBOL        ucPage
  D:003CH         SYMBOL        ucLine
  D:003DH         SYMBOL        char1
  -------         DO            
  D:0040H         SYMBOL        i
  -------         ENDDO         
  C:0BFAH         LINE#         141
  C:0C04H         LINE#         142
  C:0C07H         LINE#         143
  C:0C1DH         LINE#         144
  C:0C3CH         LINE#         145
  C:0C3EH         LINE#         146
  C:0C40H         LINE#         147
  -------         ENDPROC       _VSHOWONENEM
  -------         PROC          MAIN
  -------         DO            
  D:0024H         SYMBOL        i
  -------         ENDDO         
  C:063BH         LINE#         149
  C:063BH         LINE#         150
  C:063BH         LINE#         151
  C:063DH         LINE#         152
  C:063FH         LINE#         153
  C:0641H         LINE#         154
  C:0643H         LINE#         155
  C:0645H         LINE#         157
  C:0648H         LINE#         158
  C:064BH         LINE#         164
  C:0657H         LINE#         165
  C:0664H         LINE#         166
  C:0671H         LINE#         167
  C:067EH         LINE#         169
  C:068BH         LINE#         170
  C:0698H         LINE#         171
  C:06A5H         LINE#         172
  C:06B2H         LINE#         173
  C:06BFH         LINE#         174
  C:06CCH         LINE#         175
BL51 BANKED LINKER/LOCATER V6.00                                                      05/23/2020  10:25:01  PAGE 6


  C:06D9H         LINE#         177
  C:06DCH         LINE#         178
  C:06E3H         LINE#         186
  C:06E3H         LINE#         187
  C:06E3H         LINE#         190
  C:06ECH         LINE#         191
  C:06F2H         LINE#         198
  C:06FEH         LINE#         199
  C:070BH         LINE#         200
  C:0718H         LINE#         202
  C:0721H         LINE#         203
  C:072AH         LINE#         204
  C:0733H         LINE#         205
  C:073CH         LINE#         206
  C:0745H         LINE#         207
  C:074EH         LINE#         208
  C:0757H         LINE#         210
  C:0759H         LINE#         211
  C:0760H         LINE#         212
  C:0762H         LINE#         213
  C:0765H         LINE#         214
  C:0768H         LINE#         215
  C:0768H         LINE#         217
  C:0782H         LINE#         218
  C:0785H         LINE#         219
  C:0785H         LINE#         223
  C:0788H         LINE#         225
  C:078AH         LINE#         226
  C:078CH         LINE#         227
  C:078CH         LINE#         228
  C:0792H         LINE#         234
  C:0796H         LINE#         235
  C:0798H         LINE#         236
  C:079AH         LINE#         237
  C:079AH         LINE#         238
  C:07A3H         LINE#         239
  C:07A5H         LINE#         240
  C:07A7H         LINE#         241
  C:07ACH         LINE#         242
  C:07B8H         LINE#         243
  C:07C5H         LINE#         244
  C:07D2H         LINE#         245
  C:07DFH         LINE#         246
  C:07DFH         LINE#         248
  C:07E6H         LINE#         249
  C:07E9H         LINE#         250
  C:07EBH         LINE#         251
  C:07EDH         LINE#         252
  C:07F0H         LINE#         253
  C:0802H         LINE#         254
  C:0829H         LINE#         255
  C:0850H         LINE#         256
  C:0853H         LINE#         257
  C:0853H         LINE#         259
  C:0859H         LINE#         260
  C:0866H         LINE#         261
  C:0873H         LINE#         262
BL51 BANKED LINKER/LOCATER V6.00                                                      05/23/2020  10:25:01  PAGE 7


  C:0880H         LINE#         263
  C:088DH         LINE#         264
  C:088DH         LINE#         265
  C:0896H         LINE#         266
  C:0899H         LINE#         267
  C:089BH         LINE#         268
  C:089DH         LINE#         269
  C:08A0H         LINE#         270
  C:08B2H         LINE#         271
  C:08D9H         LINE#         272
  C:0900H         LINE#         273
  C:0903H         LINE#         274
  C:0903H         LINE#         279
  C:0903H         LINE#         281
  C:0903H         LINE#         286
  C:090AH         LINE#         288
  -------         ENDPROC       MAIN
  -------         PROC          RX_INT
  -------         DO            
  D:0007H         SYMBOL        data1
  -------         ENDDO         
  C:0B99H         LINE#         293
  C:0BB2H         LINE#         296
  C:0BB5H         LINE#         297
  C:0BB5H         LINE#         298
  C:0BB7H         LINE#         299
  C:0BB9H         LINE#         300
  C:0BBFH         LINE#         301
  C:0BC6H         LINE#         302
  C:0BC8H         LINE#         303
  C:0BCBH         LINE#         304
  C:0BCEH         LINE#         305
  C:0BD1H         LINE#         306
  C:0BDAH         LINE#         307
  C:0BE3H         LINE#         308
  C:0BE3H         LINE#         309
  C:0BE3H         LINE#         310
  -------         ENDPROC       RX_INT
  -------         ENDMOD        MAIN

  -------         MODULE        LCD12864
  C:0000H         SYMBOL        _ICE_DUMMY_
  D:0080H         PUBLIC        P0
  B:0090H.0       PUBLIC        P1_0
  B:0090H.1       PUBLIC        P1_1
  B:0090H.2       PUBLIC        P1_2
  B:0080H.7       PUBLIC        P0_7
  B:00A0H.6       PUBLIC        P2_6
  B:00A0H.7       PUBLIC        P2_7
  C:0CD8H         PUBLIC        _vShowOneChar
  C:0CABH         PUBLIC        _vShowOneChin
  C:0A80H         PUBLIC        _vShowCustomRow
  C:0D9AH         PUBLIC        _vWriteCMD
  C:0D61H         PUBLIC        _vWriteData
  C:0D74H         PUBLIC        vLCDInitialize
  C:0DEFH         PUBLIC        bCheckBusy
  C:0C76H         PUBLIC        _vShowGraph
BL51 BANKED LINKER/LOCATER V6.00                                                      05/23/2020  10:25:01  PAGE 8


  -------         PROC          BCHECKBUSY
  C:0DEFH         LINE#         45
  C:0DEFH         LINE#         46
  C:0DEFH         LINE#         47
  C:0DF2H         LINE#         48
  C:0DF4H         LINE#         49
  C:0DF6H         LINE#         50
  C:0DF8H         LINE#         51
  C:0DFAH         LINE#         52
  C:0DFCH         LINE#         53
  -------         ENDPROC       BCHECKBUSY
  C:0D51H         SYMBOL        L?0033
  -------         PROC          L?0032
  -------         ENDPROC       L?0032
  C:0D51H         SYMBOL        L?0033
  -------         PROC          _VWRITEDATA
  D:0007H         SYMBOL        ucData
  C:0D61H         LINE#         60
  C:0D61H         LINE#         61
  C:0D61H         LINE#         62
  C:0D66H         LINE#         63
  C:0D69H         LINE#         65
  C:0D6BH         LINE#         66
  C:0D6DH         LINE#         67
  C:0D6FH         LINE#         68
  C:0D71H         LINE#         69
  C:0D73H         LINE#         70
  -------         ENDPROC       _VWRITEDATA
  C:0D95H         SYMBOL        L?0035
  -------         PROC          L?0034
  -------         ENDPROC       L?0034
  C:0D95H         SYMBOL        L?0035
  -------         PROC          _VWRITECMD
  D:0007H         SYMBOL        ucCMD
  C:0D9AH         LINE#         77
  C:0D9AH         LINE#         78
  C:0D9AH         LINE#         79
  C:0D9FH         LINE#         80
  C:0DA2H         LINE#         82
  C:0DA4H         LINE#         83
  C:0DA6H         LINE#         84
  C:0DA8H         LINE#         85
  C:0DAAH         LINE#         86
  C:0DACH         LINE#         87
  -------         ENDPROC       _VWRITECMD
  -------         PROC          VLCDINITIALIZE
  C:0D74H         LINE#         94
  C:0D74H         LINE#         95
  C:0D74H         LINE#         96
  C:0D76H         LINE#         97
  C:0D78H         LINE#         98
  C:0D7DH         LINE#         99
  C:0D82H         LINE#         100
  C:0D87H         LINE#         101
  C:0D8CH         LINE#         102
  -------         ENDPROC       VLCDINITIALIZE
  -------         PROC          _VSHOWCUSTOMROW
BL51 BANKED LINKER/LOCATER V6.00                                                      05/23/2020  10:25:01  PAGE 9


  D:002CH         SYMBOL        ucPage
  D:002DH         SYMBOL        ucLine
  D:002EH         SYMBOL        ucWidth
  D:002FH         SYMBOL        ucaRow
  -------         DO            
  D:0032H         SYMBOL        ucCount
  -------         ENDDO         
  C:0A80H         LINE#         111
  C:0A86H         LINE#         112
  C:0A86H         LINE#         114
  C:0A8DH         LINE#         115
  C:0A8DH         LINE#         116
  C:0A8FH         LINE#         117
  C:0A91H         LINE#         118
  C:0A94H         LINE#         119
  C:0A9CH         LINE#         120
  C:0AAFH         LINE#         121
  C:0AAFH         LINE#         122
  C:0AB9H         LINE#         123
  C:0AC0H         LINE#         124
  C:0AC0H         LINE#         126
  C:0AC0H         LINE#         127
  C:0ACFH         LINE#         128
  C:0AD6H         LINE#         130
  C:0AD6H         LINE#         131
  C:0AD6H         LINE#         132
  C:0AD9H         LINE#         133
  C:0ADEH         LINE#         134
  C:0AECH         LINE#         135
  C:0AF3H         LINE#         136
  C:0AF3H         LINE#         137
  C:0AF3H         LINE#         139
  C:0AF3H         LINE#         140
  C:0AF3H         LINE#         141
  C:0AF3H         LINE#         142
  C:0AF6H         LINE#         143
  C:0AFBH         LINE#         144
  C:0B05H         LINE#         145
  C:0B0CH         LINE#         146
  C:0B0CH         LINE#         147
  -------         ENDPROC       _VSHOWCUSTOMROW
  -------         PROC          _VSHOWONECHIN
  D:0026H         SYMBOL        ucPage
  D:0004H         SYMBOL        ucLine
  D:0027H         SYMBOL        ucaChinMap
  C:0CABH         LINE#         154
  C:0CB5H         LINE#         155
  C:0CB5H         LINE#         156
  C:0CC0H         LINE#         157
  -------         ENDPROC       _VSHOWONECHIN
  -------         PROC          _VSHOWONECHAR
  D:0028H         SYMBOL        ucPage
  D:0004H         SYMBOL        ucLine
  D:0029H         SYMBOL        ucaCharMap
  C:0CD8H         LINE#         166
  C:0CE2H         LINE#         167
  C:0CE2H         LINE#         168
BL51 BANKED LINKER/LOCATER V6.00                                                      05/23/2020  10:25:01  PAGE 10


  C:0CEDH         LINE#         169
  -------         ENDPROC       _VSHOWONECHAR
  -------         PROC          _VSHOWGRAPH
  D:0033H         SYMBOL        ucPage
  D:0034H         SYMBOL        ucLine
  D:0035H         SYMBOL        ucWidth
  D:0036H         SYMBOL        ucHigh
  D:0037H         SYMBOL        ucaGraph
  -------         DO            
  D:003AH         SYMBOL        ucCount
  -------         ENDDO         
  C:0C76H         LINE#         179
  C:0C7CH         LINE#         180
  C:0C7CH         LINE#         182
  C:0C86H         LINE#         183
  C:0CAAH         LINE#         184
  -------         ENDPROC       _VSHOWGRAPH
  -------         ENDMOD        LCD12864

  -------         MODULE        LCDSHOEMAP
  C:0000H         SYMBOL        _ICE_DUMMY_
  C:0276H         PUBLIC        uca_CHENG
  C:00A6H         PUBLIC        uca_BLANK
  C:0046H         PUBLIC        uca_SHU
  C:0126H         PUBLIC        shuzi
  C:02A6H         PUBLIC        uca_DENG
  C:02B6H         PUBLIC        uca_Pig
  C:0286H         PUBLIC        uca_JIAN
  C:0066H         PUBLIC        uca_RU
  C:01C6H         PUBLIC        uca_0
  C:01D6H         PUBLIC        uca_1
  C:0026H         PUBLIC        uca_QING
  C:01E6H         PUBLIC        uca_2
  C:01F6H         PUBLIC        uca_3
  C:0206H         PUBLIC        uca_4
  C:0216H         PUBLIC        uca_5
  C:0226H         PUBLIC        uca_6
  C:0236H         PUBLIC        uca_7
  C:0246H         PUBLIC        uca_8
  C:0086H         PUBLIC        uca_MAOHAO
  C:0256H         PUBLIC        uca_9
  C:0296H         PUBLIC        uca_JIA
  C:0266H         PUBLIC        uca_CHU
  -------         ENDMOD        LCDSHOEMAP

  -------         MODULE        GAMEGRAPH
  C:0000H         SYMBOL        _ICE_DUMMY_
  C:090DH         PUBLIC        vShowFrame
  B:00A0H.6       PUBLIC        P2_6
  B:00A0H.7       PUBLIC        P2_7
  -------         PROC          VSHOWFRAME
  -------         DO            
  D:0041H         SYMBOL        ucCount
  -------         ENDDO         
  C:090DH         LINE#         18
  C:090DH         LINE#         19
  C:090DH         LINE#         22
BL51 BANKED LINKER/LOCATER V6.00                                                      05/23/2020  10:25:01  PAGE 11


  C:090FH         LINE#         23
  C:0911H         LINE#         24
  C:0916H         LINE#         25
  C:091BH         LINE#         26
  C:091EH         LINE#         27
  C:092CH         LINE#         29
  C:092FH         LINE#         30
  C:092FH         LINE#         31
  C:0937H         LINE#         32
  C:093CH         LINE#         33
  C:0941H         LINE#         34
  C:0946H         LINE#         35
  C:094FH         LINE#         37
  C:0954H         LINE#         38
  C:0959H         LINE#         39
  C:095CH         LINE#         40
  C:096AH         LINE#         42
  C:096CH         LINE#         43
  C:096EH         LINE#         44
  C:0973H         LINE#         45
  C:0978H         LINE#         46
  C:097BH         LINE#         47
  C:0989H         LINE#         49
  C:098CH         LINE#         50
  C:098CH         LINE#         51
  C:0994H         LINE#         52
  C:0999H         LINE#         53
  C:099EH         LINE#         54
  C:09A3H         LINE#         55
  C:09ACH         LINE#         57
  C:09B1H         LINE#         58
  C:09B6H         LINE#         59
  C:09B9H         LINE#         60
  C:09C7H         LINE#         61
  -------         ENDPROC       VSHOWFRAME
  -------         ENDMOD        GAMEGRAPH

  -------         MODULE        ?C?CLDOPTR
  C:09C8H         PUBLIC        ?C?CLDOPTR
  -------         ENDMOD        ?C?CLDOPTR

  -------         MODULE        ?C?SIDIV
  C:09F5H         PUBLIC        ?C?SIDIV
  -------         ENDMOD        ?C?SIDIV

  -------         MODULE        ?C?UIDIV
  C:0A2BH         PUBLIC        ?C?UIDIV
  -------         ENDMOD        ?C?UIDIV

*** WARNING L16: UNCALLED SEGMENT, IGNORED FOR OVERLAY PROCESS
    SEGMENT: ?PR?_UART_SEND?MAIN

*** WARNING L16: UNCALLED SEGMENT, IGNORED FOR OVERLAY PROCESS
    SEGMENT: ?PR?_VSHOWONENEM?MAIN

*** WARNING L16: UNCALLED SEGMENT, IGNORED FOR OVERLAY PROCESS
    SEGMENT: ?PR?_VSHOWGRAPH?LCD12864
BL51 BANKED LINKER/LOCATER V6.00                                                      05/23/2020  10:25:01  PAGE 12



*** WARNING L16: UNCALLED SEGMENT, IGNORED FOR OVERLAY PROCESS
    SEGMENT: ?PR?VSHOWFRAME?GAMEGRAPH

Program Size: data=67.0 xdata=0 code=3581
LINK/LOCATE RUN COMPLETE.  4 WARNING(S),  0 ERROR(S)
