C51 COMPILER V8.02   TEXT1                                                                 07/24/2016 15:32:38 PAGE 1   


C51 COMPILER V8.02, COMPILATION OF MODULE TEXT1
OBJECT MODULE PLACED IN Text1.OBJ
COMPILER INVOKED BY: D:\keil英文\C51\BIN\C51.EXE Text1.c BROWSE DEBUG OBJECTEXTEND TABS(5)

line level    source

   1          #include <reg52.h>
   2          sbit KEY=P3^6;                                            /*定位红外接收引脚*/
   3          code unsigned  int love[] = {    /***********            ****/
   4               0x00,0x00,                     /*  改元素及z值即可*/
   5          /*完整*/ 0x0F,0x00,0x10,0x80,0x20,0x40,0x20,0x20,   /*爱心桃，欠一，顺时针*/
   6                0x20,0x10,0x20,0x08,0x10,0x04,0x08,0x02,
   7                0x08,0x02,0x10,0x04,0x20,0x08,0x20,0x10,
   8                0x20,0x20,0x20,0x40,0x10,0x80,0x0F,0x00,
   9          
  10          /*一*/ 0x0F,0x00,0x10,0x80,0x20,0x40,0x20,0x20,
  11                0x20,0x10,0x20,0x08,0x10,0x04,0x08,0x02,
  12                0x00,0x02,0x10,0x04,0x20,0x08,0x20,0x10,
  13                0x20,0x20,0x20,0x40,0x10,0x80,0x0F,0x00,
  14          
  15          /*一*/ 0x0F,0x00,0x10,0x80,0x20,0x40,0x20,0x20,
  16                0x20,0x10,0x20,0x08,0x10,0x04,0x08,0x02,
  17                0x08,0x02,0x00,0x04,0x20,0x08,0x20,0x10,
  18                0x20,0x20,0x20,0x40,0x10,0x80,0x0F,0x00,
  19          
  20          /*一*/ 0x0F,0x00,0x10,0x80,0x20,0x40,0x20,0x20,
  21                0x20,0x10,0x20,0x08,0x10,0x04,0x08,0x02,
  22                0x08,0x02,0x10,0x04,0x00,0x08,0x20,0x10,
  23                0x20,0x20,0x20,0x40,0x10,0x80,0x0F,0x00,
  24          
  25          /*一*/ 0x0F,0x00,0x10,0x80,0x20,0x40,0x20,0x20,
  26                0x20,0x10,0x20,0x08,0x10,0x04,0x08,0x02,
  27                0x08,0x02,0x10,0x04,0x20,0x08,0x00,0x10,
  28                0x20,0x20,0x20,0x40,0x10,0x80,0x0F,0x00,
  29          
  30          /*一*/ 0x0F,0x00,0x10,0x80,0x20,0x40,0x20,0x20,
  31                0x20,0x10,0x20,0x08,0x10,0x04,0x08,0x02,
  32                0x08,0x02,0x10,0x04,0x20,0x08,0x20,0x10,
  33                0x00,0x20,0x20,0x40,0x10,0x80,0x0F,0x00,
  34          
  35          /*一*/ 0x0F,0x00,0x10,0x80,0x20,0x40,0x20,0x20,
  36                0x20,0x10,0x20,0x08,0x10,0x04,0x08,0x02,
  37                0x08,0x02,0x10,0x04,0x20,0x08,0x20,0x10,
  38                0x20,0x20,0x00,0x40,0x10,0x80,0x0F,0x00,
  39          
  40          /*一*/ 0x0F,0x00,0x10,0x80,0x20,0x40,0x20,0x20,
  41                0x20,0x10,0x20,0x08,0x10,0x04,0x08,0x02,
  42                0x08,0x02,0x10,0x04,0x20,0x08,0x20,0x10,
  43                0x20,0x20,0x20,0x40,0x00,0x80,0x0F,0x00,
  44          
  45          
  46          /*一*/ 0x0F,0x00,0x10,0x80,0x20,0x40,0x20,0x20,
  47                0x20,0x10,0x20,0x08,0x10,0x04,0x08,0x02,
  48                0x08,0x02,0x10,0x04,0x20,0x08,0x20,0x10,
  49                0x20,0x20,0x20,0x40,0x10,0x80,0x07,0x00,
  50          
  51          /*一*/ 0x0F,0x00,0x10,0x80,0x20,0x40,0x20,0x20,
  52                0x20,0x10,0x20,0x08,0x10,0x04,0x08,0x02,
  53                0x08,0x02,0x10,0x04,0x20,0x08,0x20,0x10,
  54                0x20,0x20,0x20,0x40,0x10,0x80,0x0B,0x00,
  55          
C51 COMPILER V8.02   TEXT1                                                                 07/24/2016 15:32:38 PAGE 2   

  56          /*一*/ 0x0F,0x00,0x10,0x80,0x20,0x40,0x20,0x20,
  57                0x20,0x10,0x20,0x08,0x10,0x04,0x08,0x02,
  58                0x08,0x02,0x10,0x04,0x20,0x08,0x20,0x10,
  59                0x20,0x20,0x20,0x40,0x10,0x80,0x0D,0x00,
  60          
  61          /*一*/ 0x0F,0x00,0x10,0x80,0x20,0x40,0x20,0x20,
  62                0x20,0x10,0x20,0x08,0x10,0x04,0x08,0x02,
  63                0x08,0x02,0x10,0x04,0x20,0x08,0x20,0x10,
  64                0x20,0x20,0x20,0x40,0x10,0x80,0x0E,0x00,
  65          
  66          /*一*/ 0x0F,0x00,0x10,0x80,0x20,0x40,0x20,0x20,
  67                0x20,0x10,0x20,0x08,0x10,0x04,0x08,0x02,
  68                0x08,0x02,0x10,0x04,0x20,0x08,0x20,0x10,
  69                0x20,0x20,0x20,0x40,0x10,0x00,0x0F,0x00,
  70          
  71          /*一*/ 0x0F,0x00,0x10,0x80,0x20,0x40,0x20,0x20,
  72                0x20,0x10,0x20,0x08,0x10,0x04,0x08,0x02,
  73                0x08,0x02,0x10,0x04,0x20,0x08,0x20,0x10,
  74                0x20,0x20,0x20,0x00,0x10,0x80,0x0F,0x00,
  75          
  76          /*一*/ 0x0F,0x00,0x10,0x80,0x20,0x40,0x20,0x20,
  77                0x20,0x10,0x20,0x08,0x10,0x04,0x08,0x02,
  78                0x08,0x02,0x10,0x04,0x20,0x08,0x20,0x10,
  79                0x20,0x00,0x20,0x40,0x10,0x80,0x0F,0x00,
  80          
  81          /*一*/ 0x0F,0x00,0x10,0x80,0x20,0x40,0x20,0x20,
  82                0x20,0x10,0x20,0x08,0x10,0x04,0x08,0x02,
  83                0x08,0x02,0x10,0x04,0x20,0x08,0x20,0x00,
  84                0x20,0x20,0x20,0x40,0x10,0x80,0x0F,0x00,
  85          
  86          /*一*/ 0x0F,0x00,0x10,0x80,0x20,0x40,0x20,0x20,
  87                0x20,0x10,0x20,0x08,0x10,0x04,0x08,0x02,
  88                0x08,0x02,0x10,0x04,0x20,0x00,0x20,0x10,
  89                0x20,0x20,0x20,0x40,0x10,0x80,0x0F,0x00,
  90          
  91          /*一*/ 0x0F,0x00,0x10,0x80,0x20,0x40,0x20,0x20,
  92                0x20,0x10,0x20,0x08,0x10,0x04,0x08,0x02,
  93                0x08,0x02,0x10,0x00,0x20,0x08,0x20,0x10,
  94                0x20,0x20,0x20,0x40,0x10,0x80,0x0F,0x00,
  95          
  96          /*一*/ 0x0F,0x00,0x10,0x80,0x20,0x40,0x20,0x20,
  97                0x20,0x10,0x20,0x08,0x10,0x04,0x08,0x02,
  98                0x08,0x00,0x10,0x04,0x20,0x08,0x20,0x10,
  99                0x20,0x20,0x20,0x40,0x10,0x80,0x0F,0x00,
 100          
 101          /*一*/ 0x0F,0x00,0x10,0x80,0x20,0x40,0x20,0x20,
 102                0x20,0x10,0x20,0x08,0x10,0x04,0x08,0x00,
 103                0x08,0x02,0x10,0x04,0x20,0x08,0x20,0x10,
 104                0x20,0x20,0x20,0x40,0x10,0x80,0x0F,0x00,
 105          
 106          /*一*/ 0x0F,0x00,0x10,0x80,0x20,0x40,0x20,0x20,
 107                0x20,0x10,0x20,0x08,0x10,0x00,0x08,0x02,
 108                0x08,0x02,0x10,0x04,0x20,0x08,0x20,0x10,
 109                0x20,0x20,0x20,0x40,0x10,0x80,0x0F,0x00,
 110          
 111          /*一*/ 0x0F,0x00,0x10,0x80,0x20,0x40,0x20,0x20,
 112                0x20,0x10,0x20,0x00,0x10,0x04,0x08,0x02,
 113                0x08,0x02,0x10,0x04,0x20,0x08,0x20,0x10,
 114                0x20,0x20,0x20,0x40,0x10,0x80,0x0F,0x00,
 115          
 116          /*一*/ 0x0F,0x00,0x10,0x80,0x20,0x40,0x20,0x20,
 117                0x20,0x00,0x20,0x08,0x10,0x04,0x08,0x02,
C51 COMPILER V8.02   TEXT1                                                                 07/24/2016 15:32:38 PAGE 3   

 118                0x08,0x02,0x10,0x04,0x20,0x08,0x20,0x10,
 119                0x20,0x20,0x20,0x40,0x10,0x80,0x0F,0x00,
 120          
 121          /*一*/ 0x0F,0x00,0x10,0x80,0x20,0x40,0x20,0x00,
 122                0x20,0x10,0x20,0x08,0x10,0x04,0x08,0x02,
 123                0x08,0x02,0x10,0x04,0x20,0x08,0x20,0x10,
 124                0x20,0x20,0x20,0x40,0x10,0x80,0x0F,0x00,
 125          
 126          /*一*/ 0x0F,0x00,0x10,0x80,0x20,0x00,0x20,0x20,
 127                0x20,0x10,0x20,0x08,0x10,0x04,0x08,0x02,
 128                0x08,0x02,0x10,0x04,0x20,0x08,0x20,0x10,
 129                0x20,0x20,0x20,0x40,0x10,0x80,0x0F,0x00,
 130          
 131          /*一*/ 0x0F,0x00,0x10,0x00,0x20,0x40,0x20,0x20,
 132                0x20,0x10,0x20,0x08,0x10,0x04,0x08,0x02,
 133                0x08,0x02,0x10,0x04,0x20,0x08,0x20,0x10,
 134                0x20,0x20,0x20,0x40,0x10,0x80,0x0F,0x00,
 135          
 136          /*一*/ 0x0E,0x00,0x10,0x80,0x20,0x40,0x20,0x20,
 137                0x20,0x10,0x20,0x08,0x10,0x04,0x08,0x02,
 138                0x08,0x02,0x10,0x04,0x20,0x08,0x20,0x10,
 139                0x20,0x20,0x20,0x40,0x10,0x80,0x0F,0x00,
 140          
 141          /*一*/ 0x0D,0x00,0x10,0x80,0x20,0x40,0x20,0x20,
 142                0x20,0x10,0x20,0x08,0x10,0x04,0x08,0x02,
 143                0x08,0x02,0x10,0x04,0x20,0x08,0x20,0x10,
 144                0x20,0x20,0x20,0x40,0x10,0x80,0x0F,0x00,
 145          
 146          /*一*/ 0x0B,0x00,0x10,0x80,0x20,0x40,0x20,0x20,
 147                0x20,0x10,0x20,0x08,0x10,0x04,0x08,0x02,
 148                0x08,0x02,0x10,0x04,0x20,0x08,0x20,0x10,
 149                0x20,0x20,0x20,0x40,0x10,0x80,0x0F,0x00,
 150          
 151          /*一*/ 0x07,0x00,0x10,0x80,0x20,0x40,0x20,0x20,
 152                0x20,0x10,0x20,0x08,0x10,0x04,0x08,0x02,
 153                0x08,0x02,0x10,0x04,0x20,0x08,0x20,0x10,
 154                0x20,0x20,0x20,0x40,0x10,0x80,0x0F,0x00,
 155          
 156          /*一*/ 0x0F,0x00,0x00,0x80,0x20,0x40,0x20,0x20,
 157                0x20,0x10,0x20,0x08,0x10,0x04,0x08,0x02,
 158                0x08,0x02,0x10,0x04,0x20,0x08,0x20,0x10,
 159                0x20,0x20,0x20,0x40,0x10,0x80,0x0F,0x00,
 160          
 161          /*一*/ 0x0F,0x00,0x10,0x80,0x00,0x40,0x20,0x20,
 162                0x20,0x10,0x20,0x08,0x10,0x04,0x08,0x02,
 163                0x08,0x02,0x10,0x04,0x20,0x08,0x20,0x10,
 164                0x20,0x20,0x20,0x40,0x10,0x80,0x0F,0x00,
 165          
 166          /*一*/ 0x0F,0x00,0x10,0x80,0x20,0x40,0x00,0x20,
 167                0x20,0x10,0x20,0x08,0x10,0x04,0x08,0x02,
 168                0x08,0x02,0x10,0x04,0x20,0x08,0x20,0x10,
 169                0x20,0x20,0x20,0x40,0x10,0x80,0x0F,0x00,
 170          
 171          /*一*/ 0x0F,0x00,0x10,0x80,0x20,0x40,0x20,0x20,
 172                0x00,0x10,0x20,0x08,0x10,0x04,0x08,0x02,
 173                0x08,0x02,0x10,0x04,0x20,0x08,0x20,0x10,
 174                0x20,0x20,0x20,0x40,0x10,0x80,0x0F,0x00,
 175          
 176          /*一*/ 0x0F,0x00,0x10,0x80,0x20,0x40,0x20,0x20,
 177                0x20,0x10,0x00,0x08,0x10,0x04,0x08,0x02,
 178                0x08,0x02,0x10,0x04,0x20,0x08,0x20,0x10,
 179                0x20,0x20,0x20,0x40,0x10,0x80,0x0F,0x00,
C51 COMPILER V8.02   TEXT1                                                                 07/24/2016 15:32:38 PAGE 4   

 180          
 181          /*一*/ 0x0F,0x00,0x10,0x80,0x20,0x40,0x20,0x20,
 182                0x20,0x10,0x20,0x08,0x00,0x04,0x08,0x02,
 183                0x08,0x02,0x10,0x04,0x20,0x08,0x20,0x10,
 184                0x20,0x20,0x20,0x40,0x10,0x80,0x0F,0x00,
 185          
 186          /*一*/ 0x0F,0x00,0x10,0x80,0x20,0x40,0x20,0x20,
 187                0x20,0x10,0x20,0x08,0x10,0x04,0x00,0x02,
 188                0x08,0x02,0x10,0x04,0x20,0x08,0x20,0x10,
 189                0x20,0x20,0x20,0x40,0x10,0x80,0x0F,0x00,
 190          };
 191          /*****n（us）延时子程序*****/
 192          void DelayUs(unsigned int N)
 193              {
 194   1              unsigned int x ;
 195   1              for(x=0;x<=N;x++);
 196   1          }
 197          /*主程序*/
 198          main()
 199              {
 200   1              int i=-1,j=0,x=32+2,z=2+32*37,n=0;             /* X 格中的个数，32+2为 在第一格表演 */  
 201   1              while(1)                                      /*z为总元素个数*/
 202   1              {         
 203   2                        if(x-2-j*32-i*2>0)
 204   2                        {
 205   3                             i++;
 206   3                        }         
 207   2                        P0=~love[x-2-i*2];       
 208   2                        P2=~love[x-1-i*2];                             
 209   2                        DelayUs(90);
 210   2                        P0=0XFF;
 211   2                        P2=0XFF;
 212   2                        DelayUs(10);
 213   2                        if(x-2-j*32-i*2==2)
 214   2                        {   
 215   3                            j++;
 216   3                            x=32+x;
 217   3                        }
 218   2                        if(x-2-j*32-i*2<=2)
 219   2                        {
 220   3                            i=x/2-1;
 221   3                        }
 222   2                        if(z<x-30)
 223   2                        {
 224   3                            x=32+2;
 225   3                            j=0;
 226   3                            i=x/2-1;
 227   3                        }
 228   2                   if(KEY==1)
 229   2                      {    
 230   3                           n++;                         //加n上限 ,开头延时
 231   3                          if(n>20000)
 232   3                          {
 233   4                              n=200;
 234   4                          }
 235   3                          if(n>=110)
 236   3                          {
 237   4                           while(KEY)
 238   4                           {
 239   5                            i=-1;
 240   5                           }
 241   4                           }
C51 COMPILER V8.02   TEXT1                                                                 07/24/2016 15:32:38 PAGE 5   

 242   3                      }
 243   2              }
 244   1          }


MODULE INFORMATION:   STATIC OVERLAYABLE
   CODE SIZE        =    428    ----
   CONSTANT SIZE    =   2372    ----
   XDATA SIZE       =   ----    ----
   PDATA SIZE       =   ----    ----
   DATA SIZE        =   ----       8
   IDATA SIZE       =   ----    ----
   BIT SIZE         =   ----    ----
END OF MODULE INFORMATION.


C51 COMPILATION COMPLETE.  0 WARNING(S),  0 ERROR(S)
