:1002B6000820010204081020408009290103060CC9
:1002C600183060C0800A130103070E1C3870E0C0A6
:1002D60080011E00011200012800011100011D000D
:0602E600011F00011000E1
:10037F0053890F438920758DFD758BFDD28EC29FDA
:09038F00D29ED2AFD2ACD29C2266
:10035F007C00AF03AE021201577C007D0A120157D9
:04036F00ED2430FF4A
:0C037300C2AC8F993099FDC299D2AC2227
:06033B008B328A33893485
:10034100E4FDFCAB32AA33A9348D828C8312012ADD
:0D035100FF600A1203730DBD00010C80E671
:01035E00227C
:1002ED00AB07AA067C277D101203657C037DE812FF
:1002FD0003617D6412035F7D0A12035FAE02AF03DB
:08030D001203687F0D02037367
:10039800EF4E6014E4FDFC0DBD00010CEDF44C7053
:0803A800F6EF1F70EB1E80E868
:0103B000222A
:1003B100438901758CDCE4F58AD2AFD2A9D28C22B3
:10002600D2AFD2A8D28812037F1203B17F647E00BA
:10003600120398E51EB401197F647E001203987FAF
:10004600381203737580FF7FE87E03120398E4F588
:100056001EE51F651D60DCE528B512087580FF7F6B
:1000660037120373E511B40117E528C39512501032
:100076007F3112037374202528F8E6F4F5800528ED
:10008600E5116404701CE528C3951250157F3412DF
:100096000373C3E5129528FF741F2FF8E6F4F58065
:1000A6000528E511B40217E528C3951250107F32D2
:1000B60012037374292528F8E6F4F5800528E5115E
:1000C6006405701CE528C3951250157F351203731D
:1000D600C3E5129528FF74282FF8E6F4F580052865
:1000E600E511B40317E528C3951250107F331203A8
:1000F6007374132528F8E6F4F5800528E5116406DF
:10010600701CE528C3951250157F36120373C3E59C
:10011600129528FF74122FF8E6F4F5800528851D40
:040126001F0200397B
:0300230002026E68
:0B026E00C0E0C0F0C0D075D000C00799
:10027900309831C298AF99EF24D0F511D39400404A
:1002890023E5119407501D752800E51175F00384C5
:10029900AFF0BF0103751208BF0203751209EF70B1
:0402A9000375120ABD
:0902AD00D007D0D0D0F0D0E0322F
:03000B00020315D8
:04031500C0E0C0D0B4
:10031900758CDC758A000510E510C39464400E7570
:0D0329001000051DE51D943C4003751D00EE
:05033600D0D0D0E03240
:0300030002000EEA
:10000E00C0D075D008751E018512287F3812037373
:03001E00D0D0320D
:030000000201E218
:0C01E200787FE4F6D8FD75813402022914
:10012A00BB010CE58229F582E5833AF583E022508A
:10013A0006E92582F8E622BBFE06E92582F8E222D4
:0D014A00E58229F582E5833AF583E49322EE
:10015700C2D5EC30E709B2D5E4C39DFDE49CFCEEC3
:1001670030E715B2D5E4C39FFFE49EFE12018DC3AD
:10017700E49DFDE49CFC800312018D30D507C3E4A8
:060187009FFFE49EFE2232
:1001EE00020026E493A3F8E493A34003F68001F201
:1001FE0008DFF48029E493A3F85407240CC8C33312
:10020E00C4540F4420C8834004F456800146F6DFE0
:10021E00E4800B01020408102040809002B6E47EB8
:10022E00019360BCA3FF543F30E509541FFEE493D5
:10023E00A360010ECF54C025E060A840B8E493A39C
:10024E00FAE493A3F8E493A3C8C582C8CAC583CAC7
:10025E00F0A3C8C582C8CAC583CADFE9DEE780BE7F
:0102EC000011
:10018D00BC000BBE0029EF8DF084FFADF022E4CC56
:10019D00F875F008EF2FFFEE33FEEC33FCEE9DEC1F
:1001AD00984005FCEE9DFE0FD5F0E9E4CEFD22ED65
:1001BD00F8F5F0EE8420D21CFEADF075F008EF2FAF
:1001CD00FFED33FD4007985006D5F0F222C398FDA0
:0501DD000FD5F0EA223D
:00000001FF
