BL51 BANKED LINKER/LOCATER V6.00                                                        06/13/2020  22:58:33  PAGE 1


BL51 BANKED LINKER/LOCATER V6.00, INVOKED BY:
E:\KEIL\C51\BIN\BL51.EXE main.obj TO 1 RAMSIZE (256)


MEMORY MODEL: SMALL


INPUT MODULES INCLUDED:
  main.obj (MAIN)
  E:\KEIL\C51\LIB\C51S.LIB (?C_STARTUP)
  E:\KEIL\C51\LIB\C51S.LIB (?C?CLDOPTR)
  E:\KEIL\C51\LIB\C51S.LIB (?C?SIDIV)
  E:\KEIL\C51\LIB\C51S.LIB (?C_INIT)
  E:\KEIL\C51\LIB\C51S.LIB (?C?UIDIV)


LINK MAP OF MODULE:  1 (MAIN)


            TYPE    BASE      LENGTH    RELOCATION   SEGMENT NAME
            -----------------------------------------------------

            * * * * * * *   D A T A   M E M O R Y   * * * * * * *
            REG     0000H     0008H     ABSOLUTE     "REG BANK 0"
            REG     0008H     0008H     ABSOLUTE     "REG BANK 1"
            DATA    0010H     0022H     UNIT         ?DT?MAIN
            DATA    0032H     0003H     UNIT         ?DT?_UART_SEND_STR?MAIN
            IDATA   0035H     0001H     UNIT         ?STACK

            * * * * * * *   C O D E   M E M O R Y   * * * * * * *
            CODE    0000H     0003H     ABSOLUTE     
            CODE    0003H     0003H     ABSOLUTE     
                    0006H     0005H                  *** GAP ***
            CODE    000BH     0003H     ABSOLUTE     
            CODE    000EH     0013H     UNIT         ?PR?ISR_KEY?MAIN
                    0021H     0002H                  *** GAP ***
            CODE    0023H     0003H     ABSOLUTE     
            CODE    0026H     0104H     UNIT         ?PR?MAIN?MAIN
            CODE    012AH     00B8H     UNIT         ?C?LIB_CODE
            CODE    01E2H     008CH     UNIT         ?C_C51STARTUP
            CODE    026EH     0048H     UNIT         ?PR?RX_INT?MAIN
            CODE    02B6H     0037H     UNIT         ?C_INITSEG
            CODE    02EDH     0028H     UNIT         ?PR?_UART_SEND?MAIN
            CODE    0315H     0026H     UNIT         ?PR?TIMER0_ISR?MAIN
            CODE    033BH     0024H     UNIT         ?PR?_UART_SEND_STR?MAIN
            CODE    035FH     0020H     UNIT         ?PR?_UART_SEND_CHAR?MAIN
            CODE    037FH     0019H     UNIT         ?PR?UART_INIT?MAIN
            CODE    0398H     0019H     UNIT         ?PR?_DELAY_MS?MAIN
            CODE    03B1H     0010H     UNIT         ?PR?INIT_TIMER0?MAIN



OVERLAY MAP OF MODULE:   1 (MAIN)


SEGMENT
  +--> CALLED SEGMENT
---------------------
BL51 BANKED LINKER/LOCATER V6.00                                                      06/13/2020  22:58:33  PAGE 2


?PR?ISR_KEY?MAIN
  +--> ?PR?_UART_SEND_CHAR?MAIN

*** NEW ROOT ***************************************************

?C_C51STARTUP
  +--> ?PR?MAIN?MAIN
  +--> ?C_INITSEG

?PR?MAIN?MAIN
  +--> ?PR?UART_INIT?MAIN
  +--> ?PR?INIT_TIMER0?MAIN
  +--> ?PR?_DELAY_MS?MAIN
  +--> ?PR?_UART_SEND_CHAR?MAIN



SYMBOL TABLE OF MODULE:  1 (MAIN)

  VALUE           TYPE          NAME
  ----------------------------------

  -------         MODULE        MAIN
  C:0000H         SYMBOL        _ICE_DUMMY_
  D:0080H         PUBLIC        P0
  B:00A8H.7       PUBLIC        EA
  B:00A8H.4       PUBLIC        ES
  B:0098H.0       PUBLIC        RI
  B:0098H.1       PUBLIC        TI
  D:0011H         PUBLIC        order
  C:0026H         PUBLIC        main
  C:03B1H         PUBLIC        Init_Timer0
  C:02EDH         PUBLIC        _uart_send
  D:0012H         PUBLIC        step_allnum
  C:0373H         PUBLIC        _uart_send_char
  D:0099H         PUBLIC        SBUF
  C:0398H         PUBLIC        _delay_ms
  D:0013H         PUBLIC        three_move
  D:0089H         PUBLIC        TMOD
  D:001DH         PUBLIC        sec
  D:001EH         PUBLIC        stop_flag
  B:00A8H.1       PUBLIC        ET0
  D:008CH         PUBLIC        TH0
  B:00A8H.0       PUBLIC        EX0
  B:0088H.0       PUBLIC        IT0
  D:008DH         PUBLIC        TH1
  B:0098H.7       PUBLIC        SM0
  D:008AH         PUBLIC        TL0
  B:0098H.6       PUBLIC        SM1
  D:008BH         PUBLIC        TL1
  D:001FH         PUBLIC        sec_last
  C:037FH         PUBLIC        uart_init
  B:0088H.4       PUBLIC        TR0
  C:026EH         PUBLIC        RX_int
  B:0088H.6       PUBLIC        TR1
  D:0020H         PUBLIC        one_move
  C:0315H         PUBLIC        Timer0_isr
BL51 BANKED LINKER/LOCATER V6.00                                                      06/13/2020  22:58:33  PAGE 3


  B:0098H.4       PUBLIC        REN
  C:033BH         PUBLIC        _uart_send_str
  D:0028H         PUBLIC        step_num
  D:0029H         PUBLIC        two_move
  C:000EH         PUBLIC        ISR_Key
  -------         PROC          UART_INIT
  C:037FH         LINE#         18
  C:037FH         LINE#         19
  C:037FH         LINE#         20
  C:0382H         LINE#         21
  C:0385H         LINE#         22
  C:0388H         LINE#         23
  C:038BH         LINE#         24
  C:038DH         LINE#         26
  C:038FH         LINE#         27
  C:0391H         LINE#         28
  C:0393H         LINE#         29
  C:0395H         LINE#         30
  C:0397H         LINE#         31
  -------         ENDPROC       UART_INIT
  C:0361H         SYMBOL        L?0049
  C:0365H         SYMBOL        L?0050
  C:0368H         SYMBOL        L?0051
  -------         PROC          L?0048
  -------         ENDPROC       L?0048
  C:0361H         SYMBOL        L?0049
  C:0365H         SYMBOL        L?0050
  C:0368H         SYMBOL        L?0051
  -------         PROC          _UART_SEND_CHAR
  D:0007H         SYMBOL        i
  C:0373H         LINE#         32
  C:0373H         LINE#         33
  C:0373H         LINE#         34
  C:0375H         LINE#         35
  C:0377H         LINE#         36
  C:037AH         LINE#         37
  C:037CH         LINE#         38
  C:037EH         LINE#         39
  -------         ENDPROC       _UART_SEND_CHAR
  -------         PROC          _UART_SEND_STR
  D:0032H         SYMBOL        zifu
  -------         DO            
  D:0004H         SYMBOL        i
  -------         ENDDO         
  C:033BH         LINE#         40
  C:0341H         LINE#         41
  C:0341H         LINE#         42
  C:0344H         LINE#         43
  C:0354H         LINE#         44
  C:0354H         LINE#         45
  C:0357H         LINE#         46
  C:035CH         LINE#         47
  C:035EH         LINE#         48
  -------         ENDPROC       _UART_SEND_STR
  -------         PROC          _UART_SEND
  D:0002H         SYMBOL        num
  C:02EDH         LINE#         49
BL51 BANKED LINKER/LOCATER V6.00                                                      06/13/2020  22:58:33  PAGE 4


  C:02F1H         LINE#         50
  C:02F1H         LINE#         51
  C:02F8H         LINE#         52
  C:02FFH         LINE#         53
  C:0304H         LINE#         54
  C:0309H         LINE#         55
  C:0310H         LINE#         56
  -------         ENDPROC       _UART_SEND
  -------         PROC          _DELAY_MS
  D:0006H         SYMBOL        t
  -------         DO            
  D:0004H         SYMBOL        j
  -------         ENDDO         
  C:0398H         LINE#         20
  C:0398H         LINE#         22
  C:039CH         LINE#         23
  C:03B0H         LINE#         24
  -------         ENDPROC       _DELAY_MS
  -------         PROC          INIT_TIMER0
  C:03B1H         LINE#         25
  C:03B1H         LINE#         26
  C:03B1H         LINE#         27
  C:03B4H         LINE#         28
  C:03B7H         LINE#         29
  C:03BAH         LINE#         30
  C:03BCH         LINE#         31
  C:03BEH         LINE#         32
  C:03C0H         LINE#         33
  -------         ENDPROC       INIT_TIMER0
  -------         PROC          MAIN
  C:0026H         LINE#         37
  C:0026H         LINE#         38
  C:0026H         LINE#         41
  C:0028H         LINE#         42
  C:002AH         LINE#         43
  C:002CH         LINE#         44
  C:002FH         LINE#         45
  C:0032H         LINE#         46
  C:0039H         LINE#         48
  C:0039H         LINE#         49
  C:0039H         LINE#         50
  C:003EH         LINE#         51
  C:0045H         LINE#         52
  C:004AH         LINE#         53
  C:004DH         LINE#         54
  C:0054H         LINE#         55
  C:0057H         LINE#         56
  C:0057H         LINE#         58
  C:005DH         LINE#         59
  C:0062H         LINE#         60
  C:0065H         LINE#         61
  C:006AH         LINE#         62
  C:006AH         LINE#         63
  C:006FH         LINE#         64
  C:0076H         LINE#         65
  C:007BH         LINE#         66
  C:0084H         LINE#         67
BL51 BANKED LINKER/LOCATER V6.00                                                      06/13/2020  22:58:33  PAGE 5


  C:0086H         LINE#         68
  C:0086H         LINE#         69
  C:0086H         LINE#         70
  C:008CH         LINE#         71
  C:0093H         LINE#         72
  C:0098H         LINE#         73
  C:00A6H         LINE#         74
  C:00A8H         LINE#         75
  C:00A8H         LINE#         76
  C:00A8H         LINE#         77
  C:00ADH         LINE#         78
  C:00B4H         LINE#         79
  C:00B9H         LINE#         80
  C:00C2H         LINE#         81
  C:00C4H         LINE#         82
  C:00C4H         LINE#         83
  C:00C4H         LINE#         84
  C:00CAH         LINE#         85
  C:00D1H         LINE#         86
  C:00D6H         LINE#         87
  C:00E4H         LINE#         88
  C:00E6H         LINE#         89
  C:00E6H         LINE#         90
  C:00E6H         LINE#         91
  C:00EBH         LINE#         92
  C:00F2H         LINE#         93
  C:00F7H         LINE#         94
  C:0100H         LINE#         95
  C:0102H         LINE#         96
  C:0102H         LINE#         97
  C:0102H         LINE#         98
  C:0108H         LINE#         99
  C:010FH         LINE#         100
  C:0114H         LINE#         101
  C:0122H         LINE#         102
  C:0124H         LINE#         103
  C:0124H         LINE#         104
  C:0124H         LINE#         107
  C:0127H         LINE#         108
  C:0127H         LINE#         112
  -------         ENDPROC       MAIN
  -------         PROC          RX_INT
  -------         DO            
  D:0007H         SYMBOL        data1
  -------         ENDDO         
  C:026EH         LINE#         116
  C:0279H         LINE#         119
  C:027CH         LINE#         120
  C:027CH         LINE#         121
  C:027EH         LINE#         122
  C:0280H         LINE#         123
  C:0285H         LINE#         125
  C:0290H         LINE#         126
  C:0293H         LINE#         127
  C:02A1H         LINE#         128
  C:02A7H         LINE#         129
  C:02ADH         LINE#         130
BL51 BANKED LINKER/LOCATER V6.00                                                      06/13/2020  22:58:33  PAGE 6


  C:02ADH         LINE#         131
  C:02ADH         LINE#         132
  -------         ENDPROC       RX_INT
  -------         PROC          TIMER0_ISR
  -------         DO            
  D:0010H         SYMBOL        num_10ms
  -------         ENDDO         
  C:0315H         LINE#         133
  C:0319H         LINE#         136
  C:031CH         LINE#         137
  C:031FH         LINE#         138
  C:0321H         LINE#         139
  C:0328H         LINE#         140
  C:032BH         LINE#         141
  C:032DH         LINE#         142
  C:0336H         LINE#         143
  C:0336H         LINE#         144
  -------         ENDPROC       TIMER0_ISR
  -------         PROC          ISR_KEY
  C:000EH         LINE#         145
  C:0013H         LINE#         147
  C:0016H         LINE#         148
  C:0019H         LINE#         150
  C:001EH         LINE#         152
  -------         ENDPROC       ISR_KEY
  -------         ENDMOD        MAIN

  -------         MODULE        ?C?CLDOPTR
  C:012AH         PUBLIC        ?C?CLDOPTR
  -------         ENDMOD        ?C?CLDOPTR

  -------         MODULE        ?C?SIDIV
  C:0157H         PUBLIC        ?C?SIDIV
  -------         ENDMOD        ?C?SIDIV

  -------         MODULE        ?C?UIDIV
  C:018DH         PUBLIC        ?C?UIDIV
  -------         ENDMOD        ?C?UIDIV

*** WARNING L16: UNCALLED SEGMENT, IGNORED FOR OVERLAY PROCESS
    SEGMENT: ?PR?_UART_SEND_STR?MAIN

*** WARNING L16: UNCALLED SEGMENT, IGNORED FOR OVERLAY PROCESS
    SEGMENT: ?PR?_UART_SEND?MAIN

Program Size: data=54.0 xdata=0 code=954
LINK/LOCATE RUN COMPLETE.  2 WARNING(S),  0 ERROR(S)
