BL51 BANKED LINKER/LOCATER V6.00                                                        09/05/2017  15:42:40  PAGE 1


BL51 BANKED LINKER/LOCATER V6.00, INVOKED BY:
D:\KEIL英文\C51\BIN\BL51.EXE Text1.obj TO 1 RAMSIZE (256)


MEMORY MODEL: SMALL


INPUT MODULES INCLUDED:
  Text1.obj (TEXT1)
  D:\KEIL英文\C51\LIB\C51S.LIB (?C_STARTUP)
  D:\KEIL英文\C51\LIB\C51S.LIB (?C?IMUL)
  D:\KEIL英文\C51\LIB\C51S.LIB (?C?UIDIV)
  D:\KEIL英文\C51\LIB\C51S.LIB (?C?LMUL)
  D:\KEIL英文\C51\LIB\C51S.LIB (?C?ULDIV)
  D:\KEIL英文\C51\LIB\C51S.LIB (?C_INIT)


LINK MAP OF MODULE:  1 (TEXT1)


            TYPE    BASE      LENGTH    RELOCATION   SEGMENT NAME
            -----------------------------------------------------

            * * * * * * *   D A T A   M E M O R Y   * * * * * * *
            REG     0000H     0008H     ABSOLUTE     "REG BANK 0"
            DATA    0008H     003AH     UNIT         ?DT?TEXT1
            IDATA   0042H     0001H     UNIT         ?STACK

            * * * * * * *   C O D E   M E M O R Y   * * * * * * *
            CODE    0000H     0003H     ABSOLUTE     
            CODE    0003H     0005H     UNIT         ?C_INITSEG
                    0008H     0003H                  *** GAP ***
            CODE    000BH     0003H     ABSOLUTE     
            CODE    000EH     0376H     UNIT         ?PR?MAIN?TEXT1
            CODE    0384H     01E5H     UNIT         ?PR?XIANSHI?TEXT1
            CODE    0569H     0184H     UNIT         ?C?LIB_CODE
            CODE    06EDH     008CH     UNIT         ?C_C51STARTUP
            CODE    0779H     006AH     UNIT         ?PR?TIMER0?TEXT1
            CODE    07E3H     0028H     UNIT         ?CO?TEXT1



OVERLAY MAP OF MODULE:   1 (TEXT1)


SEGMENT
  +--> CALLED SEGMENT
---------------------
?C_C51STARTUP
  +--> ?PR?MAIN?TEXT1
  +--> ?C_INITSEG

?PR?MAIN?TEXT1
  +--> ?PR?XIANSHI?TEXT1

?PR?XIANSHI?TEXT1
  +--> ?CO?TEXT1

BL51 BANKED LINKER/LOCATER V6.00                                                      09/05/2017  15:42:40  PAGE 2




SYMBOL TABLE OF MODULE:  1 (TEXT1)

  VALUE           TYPE          NAME
  ----------------------------------

  -------         MODULE        TEXT1
  C:0000H         SYMBOL        _ICE_DUMMY_
  D:0080H         PUBLIC        P0
  D:0090H         PUBLIC        P1
  D:00A0H         PUBLIC        P2
  C:07E3H         PUBLIC        shu1
  D:00B0H         PUBLIC        P3
  B:00A8H.7       PUBLIC        EA
  D:00A8H         PUBLIC        IE
  D:0008H         PUBLIC        a1
  D:000AH         PUBLIC        b1
  D:000CH         PUBLIC        a2
  D:000EH         PUBLIC        b2
  D:0010H         PUBLIC        a3
  D:0012H         PUBLIC        a4
  D:0014H         PUBLIC        g1
  D:00B8H         PUBLIC        IP
  D:0016H         PUBLIC        k1
  D:0018H         PUBLIC        n1
  C:000EH         PUBLIC        main
  D:001AH         PUBLIC        time
  D:0098H         PUBLIC        SCON
  D:0089H         PUBLIC        TMOD
  D:0088H         PUBLIC        TCON
  D:001CH         PUBLIC        sec
  D:001EH         PUBLIC        min
  B:00A8H.1       PUBLIC        ET0
  D:008CH         PUBLIC        TH0
  D:008AH         PUBLIC        TL0
  B:00A0H.0       PUBLIC        p20
  B:00A0H.1       PUBLIC        p21
  C:0779H         PUBLIC        timer0
  B:00A0H.2       PUBLIC        p22
  B:00A0H.3       PUBLIC        p23
  B:00A0H.4       PUBLIC        p24
  B:00B0H.3       PUBLIC        p33
  B:0088H.4       PUBLIC        TR0
  B:00B0H.4       PUBLIC        p34
  B:00B0H.5       PUBLIC        p35
  B:00B0H.6       PUBLIC        p36
  D:0020H         PUBLIC        a
  D:0022H         PUBLIC        b
  D:0024H         PUBLIC        c
  D:0026H         PUBLIC        d
  D:0028H         PUBLIC        e
  D:002CH         PUBLIC        f
  D:002EH         PUBLIC        g
  D:00C8H         PUBLIC        T2CON
  D:0030H         PUBLIC        i
  D:0032H         PUBLIC        j
BL51 BANKED LINKER/LOCATER V6.00                                                      09/05/2017  15:42:40  PAGE 3


  D:0034H         PUBLIC        k
  D:0036H         PUBLIC        m
  D:0038H         PUBLIC        n
  D:003AH         PUBLIC        p
  D:0040H         PUBLIC        q
  C:0384H         PUBLIC        xianshi
  D:00D0H         PUBLIC        PSW
  -------         PROC          XIANSHI
  C:0384H         LINE#         18
  C:0384H         LINE#         19
  C:0384H         LINE#         20
  C:038FH         LINE#         21
  C:038FH         LINE#         22
  C:039DH         LINE#         23
  C:03D2H         LINE#         24
  C:03DDH         LINE#         25
  C:03DDH         LINE#         26
  C:03F2H         LINE#         27
  C:0427H         LINE#         28
  C:043DH         LINE#         29
  C:0472H         LINE#         30
  C:0475H         LINE#         32
  C:0475H         LINE#         33
  C:048BH         LINE#         34
  C:04C0H         LINE#         35
  C:04D6H         LINE#         36
  C:050BH         LINE#         37
  C:050BH         LINE#         38
  C:0521H         LINE#         39
  C:052CH         LINE#         40
  C:0562H         LINE#         41
  C:0564H         LINE#         42
  C:0565H         LINE#         44
  C:0568H         LINE#         45
  -------         ENDPROC       XIANSHI
  -------         PROC          MAIN
  C:000EH         LINE#         46
  C:000EH         LINE#         47
  C:000EH         LINE#         48
  C:0012H         LINE#         49
  C:0018H         LINE#         50
  C:0027H         LINE#         51
  C:0030H         LINE#         52
  C:0036H         LINE#         53
  C:005DH         LINE#         54
  C:0065H         LINE#         56
  C:0068H         LINE#         57
  C:0084H         LINE#         58
  C:00A7H         LINE#         59
  C:00A7H         LINE#         61
  C:00AAH         LINE#         62
  C:00C7H         LINE#         63
  C:00EAH         LINE#         64
  C:00EAH         LINE#         65
  C:00F0H         LINE#         66
  C:00F8H         LINE#         67
  C:00FEH         LINE#         68
BL51 BANKED LINKER/LOCATER V6.00                                                      09/05/2017  15:42:40  PAGE 4


  C:010FH         LINE#         69
  C:0120H         LINE#         71
  C:0120H         LINE#         72
  C:0142H         LINE#         73
  C:0142H         LINE#         75
  C:0142H         LINE#         76
  C:0148H         LINE#         77
  C:014EH         LINE#         78
  C:0154H         LINE#         79
  C:015DH         LINE#         80
  C:0160H         LINE#         81
  C:017DH         LINE#         82
  C:0180H         LINE#         83
  C:019DH         LINE#         84
  C:01ACH         LINE#         85
  C:01ACH         LINE#         87
  C:01AFH         LINE#         88
  C:01B2H         LINE#         89
  C:01B5H         LINE#         90
  C:01B7H         LINE#         91
  C:01B9H         LINE#         92
  C:01BBH         LINE#         93
  C:01D2H         LINE#         94
  C:01D2H         LINE#         95
  C:01D2H         LINE#         97
  C:01F4H         LINE#         98
  C:01F6H         LINE#         100
  C:01FEH         LINE#         101
  C:01FEH         LINE#         102
  C:0205H         LINE#         103
  C:020EH         LINE#         104
  C:020EH         LINE#         106
  C:0218H         LINE#         107
  C:0218H         LINE#         108
  C:021BH         LINE#         109
  C:022AH         LINE#         110
  C:0232H         LINE#         111
  C:0232H         LINE#         112
  C:0237H         LINE#         113
  C:023AH         LINE#         114
  C:0246H         LINE#         115
  C:024EH         LINE#         116
  C:024EH         LINE#         117
  C:0253H         LINE#         118
  C:0253H         LINE#         120
  C:0276H         LINE#         121
  C:0279H         LINE#         122
  C:0279H         LINE#         123
  C:0284H         LINE#         124
  C:0289H         LINE#         126
  C:0289H         LINE#         128
  C:028CH         LINE#         129
  C:0292H         LINE#         130
  C:02B5H         LINE#         131
  C:02BDH         LINE#         132
  C:02C0H         LINE#         133
  C:02E4H         LINE#         134
BL51 BANKED LINKER/LOCATER V6.00                                                      09/05/2017  15:42:40  PAGE 5


  C:02E4H         LINE#         135
  C:0307H         LINE#         136
  C:031DH         LINE#         137
  C:031DH         LINE#         138
  C:0331H         LINE#         139
  C:0357H         LINE#         140
  -------         ENDPROC       MAIN
  -------         PROC          TIMER0
  C:0779H         LINE#         144
  C:077DH         LINE#         146
  C:0780H         LINE#         147
  C:0783H         LINE#         148
  C:0793H         LINE#         149
  C:079BH         LINE#         150
  C:07A3H         LINE#         151
  C:07ABH         LINE#         152
  C:07BAH         LINE#         153
  C:07BAH         LINE#         154
  C:07C2H         LINE#         155
  C:07C8H         LINE#         156
  C:07C8H         LINE#         157
  C:07D0H         LINE#         158
  C:07D0H         LINE#         159
  C:07D8H         LINE#         160
  C:07DEH         LINE#         161
  C:07DEH         LINE#         166
  -------         ENDPROC       TIMER0
  -------         ENDMOD        TEXT1

  -------         MODULE        ?C?IMUL
  C:0569H         PUBLIC        ?C?IMUL
  -------         ENDMOD        ?C?IMUL

  -------         MODULE        ?C?UIDIV
  C:057BH         PUBLIC        ?C?UIDIV
  -------         ENDMOD        ?C?UIDIV

  -------         MODULE        ?C?LMUL
  C:05D0H         PUBLIC        ?C?LMUL
  -------         ENDMOD        ?C?LMUL

  -------         MODULE        ?C?ULDIV
  C:065BH         PUBLIC        ?C?ULDIV
  -------         ENDMOD        ?C?ULDIV

Program Size: data=67.0 xdata=0 code=2056
LINK/LOCATE RUN COMPLETE.  0 WARNING(S),  0 ERROR(S)
