:1001D500000100030007000F001F003F007F00FF24
:0401E500020800000C
:10011200E50925E0FFE508338F82F583120158FFD8
:10012200AEF030E00ED2C6309003F59022EF54FECE
:10013200F59022C2C6E50925E0FFE5083320900AC2
:100142008F82F583120158F590228F82F583120176
:06015200584401F5902263
:10019000C2C4E50925E0FFE5083320B10A8F82F5E6
:1001A00083120158F5B0228F82F583120158440260
:0301B000F5B02285
:1001B3007DC47C09AB07AA06D3EB9400EA94004004
:1001C30007EB1B70F31A80F0ED1D70011CED4C70F2
:0101D300E348
:0101D4002208
:10008F0075BBFF7594FFE4F5937592FEF59175B40A
:10009F0040F5B3F5A0FBFAF91201907F647E0012D0
:1000AF0001B37580F07590F07F587E021201B3E4B2
:1000BF00F508F509F590F5807F2C1E1201B3E4F5D4
:1000CF0008F5097F1E7E001201B37BFF7A0179D5F7
:1000DF00120112E50925E0FFE50833FE74D52FF56F
:1000EF008274013EF583740193F5800509E509706B
:1000FF00020508C39408E508940040C77F587E02A4
:03010F000201B337
:03000000020003F8
:0C000300787FE4F6D8FD75810902004A00
:10015800BB0110E58229F582E5833AF583E0F5F0E5
:10016800A3E0225009E92582F886F008E622BBFEC2
:100178000AE92582F8E2F5F008E222E5832AF58308
:08018800E993F5F0A3E99322CD
:10000F0002008FE493A3F8E493A34003F68001F278
:10001F0008DFF48029E493A3F85407240CC8C333F2
:10002F00C4540F4420C8834004F456800146F6DFC1
:10003F00E4800B01020408102040809001E5E47E6B
:10004F00019360BCA3FF543F30E509541FFEE493B6
:10005F00A360010ECF54C025E060A840B8E493A37D
:10006F00FAE493A3F8E493A3C8C582C8CAC583CAA8
:10007F00F0A3C8C582C8CAC583CADFE9DEE780BE60
:0101E9000015
:00000001FF
