BL51 BANKED LINKER/LOCATER V6.00                                                        08/28/2017  21:51:47  PAGE 1


BL51 BANKED LINKER/LOCATER V6.00, INVOKED BY:
D:\KEIL英文\C51\BIN\BL51.EXE Text1.obj TO 1 RAMSIZE (256)


MEMORY MODEL: SMALL


INPUT MODULES INCLUDED:
  Text1.obj (TEXT1)
  D:\KEIL英文\C51\LIB\C51S.LIB (?C_STARTUP)
  D:\KEIL英文\C51\LIB\C51S.LIB (?C?IMUL)
  D:\KEIL英文\C51\LIB\C51S.LIB (?C?UIDIV)
  D:\KEIL英文\C51\LIB\C51S.LIB (?C?LMUL)
  D:\KEIL英文\C51\LIB\C51S.LIB (?C?ULDIV)
  D:\KEIL英文\C51\LIB\C51S.LIB (?C_INIT)


LINK MAP OF MODULE:  1 (TEXT1)


            TYPE    BASE      LENGTH    RELOCATION   SEGMENT NAME
            -----------------------------------------------------

            * * * * * * *   D A T A   M E M O R Y   * * * * * * *
            REG     0000H     0008H     ABSOLUTE     "REG BANK 0"
            DATA    0008H     002AH     UNIT         ?DT?TEXT1
            IDATA   0032H     0001H     UNIT         ?STACK

            * * * * * * *   C O D E   M E M O R Y   * * * * * * *
            CODE    0000H     0003H     ABSOLUTE     
            CODE    0003H     0005H     UNIT         ?C_INITSEG
                    0008H     0003H                  *** GAP ***
            CODE    000BH     0003H     ABSOLUTE     
            CODE    000EH     01A0H     UNIT         ?PR?MAIN?TEXT1
            CODE    01AEH     0184H     UNIT         ?C?LIB_CODE
            CODE    0332H     00E2H     UNIT         ?PR?XIANSHI?TEXT1
            CODE    0414H     008CH     UNIT         ?C_C51STARTUP
            CODE    04A0H     006AH     UNIT         ?PR?TIMER0?TEXT1
            CODE    050AH     0028H     UNIT         ?CO?TEXT1
            CODE    0532H     0026H     UNIT         ?PR?FANGDAO?TEXT1



OVERLAY MAP OF MODULE:   1 (TEXT1)


SEGMENT
  +--> CALLED SEGMENT
---------------------
?C_C51STARTUP
  +--> ?PR?MAIN?TEXT1
  +--> ?C_INITSEG

?PR?MAIN?TEXT1
  +--> ?PR?XIANSHI?TEXT1
  +--> ?PR?FANGDAO?TEXT1

?PR?XIANSHI?TEXT1
BL51 BANKED LINKER/LOCATER V6.00                                                      08/28/2017  21:51:47  PAGE 2


  +--> ?CO?TEXT1



SYMBOL TABLE OF MODULE:  1 (TEXT1)

  VALUE           TYPE          NAME
  ----------------------------------

  -------         MODULE        TEXT1
  C:0000H         SYMBOL        _ICE_DUMMY_
  D:0080H         PUBLIC        P0
  D:0090H         PUBLIC        P1
  D:00A0H         PUBLIC        P2
  C:050AH         PUBLIC        shu1
  D:00B0H         PUBLIC        P3
  B:00A8H.7       PUBLIC        EA
  D:00A8H         PUBLIC        IE
  D:0008H         PUBLIC        a1
  D:000AH         PUBLIC        b1
  D:000CH         PUBLIC        a2
  D:000EH         PUBLIC        b2
  D:0010H         PUBLIC        a3
  D:0012H         PUBLIC        g1
  D:00B8H         PUBLIC        IP
  C:000EH         PUBLIC        main
  D:0014H         PUBLIC        time
  D:0098H         PUBLIC        SCON
  D:0089H         PUBLIC        TMOD
  D:0088H         PUBLIC        TCON
  D:0016H         PUBLIC        sec
  D:0018H         PUBLIC        min
  B:00A8H.1       PUBLIC        ET0
  D:008CH         PUBLIC        TH0
  D:008AH         PUBLIC        TL0
  B:00A0H.0       PUBLIC        p20
  B:00A0H.1       PUBLIC        p21
  C:04A0H         PUBLIC        timer0
  C:0532H         PUBLIC        fangdao
  B:00A0H.2       PUBLIC        p22
  B:00A0H.3       PUBLIC        p23
  B:00A0H.4       PUBLIC        p24
  B:00B0H.3       PUBLIC        p33
  B:0088H.4       PUBLIC        TR0
  B:00B0H.4       PUBLIC        p34
  B:00B0H.5       PUBLIC        p35
  B:00B0H.6       PUBLIC        p36
  B:00B0H.7       PUBLIC        p37
  D:001AH         PUBLIC        a
  D:001CH         PUBLIC        b
  D:001EH         PUBLIC        c
  D:0020H         PUBLIC        d
  D:0022H         PUBLIC        e
  D:0026H         PUBLIC        f
  D:0028H         PUBLIC        g
  D:00C8H         PUBLIC        T2CON
  D:002AH         PUBLIC        i
BL51 BANKED LINKER/LOCATER V6.00                                                      08/28/2017  21:51:47  PAGE 3


  D:002CH         PUBLIC        j
  D:002EH         PUBLIC        k
  D:0030H         PUBLIC        m
  C:0332H         PUBLIC        xianshi
  D:00D0H         PUBLIC        PSW
  -------         PROC          FANGDAO
  C:0532H         LINE#         20
  C:0532H         LINE#         21
  C:0532H         LINE#         22
  C:053CH         LINE#         24
  C:053CH         LINE#         25
  C:053EH         LINE#         26
  C:0541H         LINE#         27
  C:0543H         LINE#         28
  C:0549H         LINE#         29
  C:0549H         LINE#         30
  C:0555H         LINE#         31
  C:0557H         LINE#         32
  C:0557H         LINE#         33
  -------         ENDPROC       FANGDAO
  -------         PROC          XIANSHI
  C:0332H         LINE#         34
  C:0332H         LINE#         35
  C:0332H         LINE#         36
  C:033DH         LINE#         37
  C:033DH         LINE#         38
  C:034BH         LINE#         39
  C:0369H         LINE#         40
  C:038FH         LINE#         41
  C:039DH         LINE#         42
  C:03ADH         LINE#         43
  C:03AFH         LINE#         45
  C:03AFH         LINE#         46
  C:03BDH         LINE#         47
  C:03DBH         LINE#         48
  C:03DBH         LINE#         49
  C:03F1H         LINE#         50
  C:040FH         LINE#         51
  C:0410H         LINE#         52
  C:0413H         LINE#         53
  -------         ENDPROC       XIANSHI
  -------         PROC          MAIN
  C:000EH         LINE#         54
  C:000EH         LINE#         55
  C:000EH         LINE#         57
  C:0013H         LINE#         58
  C:0017H         LINE#         59
  C:001DH         LINE#         60
  C:0020H         LINE#         61
  C:0023H         LINE#         62
  C:0026H         LINE#         63
  C:0028H         LINE#         64
  C:002AH         LINE#         65
  C:002CH         LINE#         66
  C:0031H         LINE#         67
  C:0037H         LINE#         68
  C:003DH         LINE#         77
BL51 BANKED LINKER/LOCATER V6.00                                                      08/28/2017  21:51:47  PAGE 4


  C:0046H         LINE#         78
  C:0049H         LINE#         79
  C:0066H         LINE#         80
  C:0069H         LINE#         81
  C:0086H         LINE#         82
  C:0093H         LINE#         83
  C:0096H         LINE#         84
  C:0098H         LINE#         85
  C:00B4H         LINE#         86
  C:00B4H         LINE#         87
  C:00B4H         LINE#         88
  C:00BAH         LINE#         89
  C:00BAH         LINE#         90
  C:00C1H         LINE#         91
  C:00CAH         LINE#         93
  C:00CDH         LINE#         94
  C:00E2H         LINE#         95
  C:00E5H         LINE#         96
  C:00E5H         LINE#         97
  C:00F0H         LINE#         98
  C:00F5H         LINE#         99
  C:00F5H         LINE#         100
  C:00F5H         LINE#         101
  C:00F5H         LINE#         102
  C:00F8H         LINE#         103
  C:00FEH         LINE#         104
  C:0106H         LINE#         105
  C:0109H         LINE#         106
  C:012DH         LINE#         107
  C:012DH         LINE#         108
  C:0130H         LINE#         109
  C:0143H         LINE#         110
  C:0143H         LINE#         111
  C:0157H         LINE#         112
  C:017FH         LINE#         113
  -------         ENDPROC       MAIN
  -------         PROC          TIMER0
  C:04A0H         LINE#         117
  C:04A4H         LINE#         119
  C:04A7H         LINE#         120
  C:04AAH         LINE#         121
  C:04BAH         LINE#         122
  C:04C2H         LINE#         123
  C:04CAH         LINE#         124
  C:04D2H         LINE#         125
  C:04E1H         LINE#         126
  C:04E1H         LINE#         127
  C:04E9H         LINE#         128
  C:04EFH         LINE#         129
  C:04EFH         LINE#         130
  C:04F7H         LINE#         131
  C:04F7H         LINE#         132
  C:04FFH         LINE#         133
  C:0505H         LINE#         134
  C:0505H         LINE#         139
  -------         ENDPROC       TIMER0
  -------         ENDMOD        TEXT1
BL51 BANKED LINKER/LOCATER V6.00                                                      08/28/2017  21:51:47  PAGE 5



  -------         MODULE        ?C?IMUL
  C:01AEH         PUBLIC        ?C?IMUL
  -------         ENDMOD        ?C?IMUL

  -------         MODULE        ?C?UIDIV
  C:01C0H         PUBLIC        ?C?UIDIV
  -------         ENDMOD        ?C?UIDIV

  -------         MODULE        ?C?LMUL
  C:0215H         PUBLIC        ?C?LMUL
  -------         ENDMOD        ?C?LMUL

  -------         MODULE        ?C?ULDIV
  C:02A0H         PUBLIC        ?C?ULDIV
  -------         ENDMOD        ?C?ULDIV

Program Size: data=51.0 xdata=0 code=1365
LINK/LOCATE RUN COMPLETE.  0 WARNING(S),  0 ERROR(S)
