C51 COMPILER V8.02   TEXT1                                                                 07/24/2016 16:25:20 PAGE 1   


C51 COMPILER V8.02, COMPILATION OF MODULE TEXT1
OBJECT MODULE PLACED IN Text1.OBJ
COMPILER INVOKED BY: D:\keil英文\C51\BIN\C51.EXE Text1.c BROWSE DEBUG OBJECTEXTEND TABS(5)

line level    source

   1          #include <reg52.h>
   2          sbit p10=P1^0;
   3          sbit p11=P1^1;
   4          sbit p12=P1^2;
   5          sbit KEY=P3^6;                                          /*定位红外接收引脚*/
   6          code unsigned  int love[] = {    /***********            ****/
   7               0x00,0x00,                     /*  改元素及z值即可*/
   8          /*完整*/ 0x0F,0x00,0x10,0x80,0x20,0x40,0x20,0x20,   /*爱心桃，欠一，顺时针*/
   9                0x20,0x10,0x20,0x08,0x10,0x04,0x08,0x02,
  10                0x08,0x02,0x10,0x04,0x20,0x08,0x20,0x10,
  11                0x20,0x20,0x20,0x40,0x10,0x80,0x0F,0x00,
  12          
  13          /*一*/ 0x0F,0x00,0x10,0x80,0x20,0x40,0x20,0x20,
  14                0x20,0x10,0x20,0x08,0x10,0x04,0x08,0x02,
  15                0x00,0x02,0x10,0x04,0x20,0x08,0x20,0x10,
  16                0x20,0x20,0x20,0x40,0x10,0x80,0x0F,0x00,
  17          
  18          /*一*/ 0x0F,0x00,0x10,0x80,0x20,0x40,0x20,0x20,
  19                0x20,0x10,0x20,0x08,0x10,0x04,0x08,0x02,
  20                0x08,0x02,0x00,0x04,0x20,0x08,0x20,0x10,
  21                0x20,0x20,0x20,0x40,0x10,0x80,0x0F,0x00,
  22          
  23          /*一*/ 0x0F,0x00,0x10,0x80,0x20,0x40,0x20,0x20,
  24                0x20,0x10,0x20,0x08,0x10,0x04,0x08,0x02,
  25                0x08,0x02,0x10,0x04,0x00,0x08,0x20,0x10,
  26                0x20,0x20,0x20,0x40,0x10,0x80,0x0F,0x00,
  27          
  28          /*一*/ 0x0F,0x00,0x10,0x80,0x20,0x40,0x20,0x20,
  29                0x20,0x10,0x20,0x08,0x10,0x04,0x08,0x02,
  30                0x08,0x02,0x10,0x04,0x20,0x08,0x00,0x10,
  31                0x20,0x20,0x20,0x40,0x10,0x80,0x0F,0x00,
  32          
  33          /*一*/ 0x0F,0x00,0x10,0x80,0x20,0x40,0x20,0x20,
  34                0x20,0x10,0x20,0x08,0x10,0x04,0x08,0x02,
  35                0x08,0x02,0x10,0x04,0x20,0x08,0x20,0x10,
  36                0x00,0x20,0x20,0x40,0x10,0x80,0x0F,0x00,
  37          
  38          /*一*/ 0x0F,0x00,0x10,0x80,0x20,0x40,0x20,0x20,
  39                0x20,0x10,0x20,0x08,0x10,0x04,0x08,0x02,
  40                0x08,0x02,0x10,0x04,0x20,0x08,0x20,0x10,
  41                0x20,0x20,0x00,0x40,0x10,0x80,0x0F,0x00,
  42          
  43          /*一*/ 0x0F,0x00,0x10,0x80,0x20,0x40,0x20,0x20,
  44                0x20,0x10,0x20,0x08,0x10,0x04,0x08,0x02,
  45                0x08,0x02,0x10,0x04,0x20,0x08,0x20,0x10,
  46                0x20,0x20,0x20,0x40,0x00,0x80,0x0F,0x00,
  47          
  48          
  49          /*一*/ 0x0F,0x00,0x10,0x80,0x20,0x40,0x20,0x20,
  50                0x20,0x10,0x20,0x08,0x10,0x04,0x08,0x02,
  51                0x08,0x02,0x10,0x04,0x20,0x08,0x20,0x10,
  52                0x20,0x20,0x20,0x40,0x10,0x80,0x07,0x00,
  53          
  54          /*一*/ 0x0F,0x00,0x10,0x80,0x20,0x40,0x20,0x20,
  55                0x20,0x10,0x20,0x08,0x10,0x04,0x08,0x02,
C51 COMPILER V8.02   TEXT1                                                                 07/24/2016 16:25:20 PAGE 2   

  56                0x08,0x02,0x10,0x04,0x20,0x08,0x20,0x10,
  57                0x20,0x20,0x20,0x40,0x10,0x80,0x0B,0x00,
  58          
  59          /*一*/ 0x0F,0x00,0x10,0x80,0x20,0x40,0x20,0x20,
  60                0x20,0x10,0x20,0x08,0x10,0x04,0x08,0x02,
  61                0x08,0x02,0x10,0x04,0x20,0x08,0x20,0x10,
  62                0x20,0x20,0x20,0x40,0x10,0x80,0x0D,0x00,
  63          
  64          /*一*/ 0x0F,0x00,0x10,0x80,0x20,0x40,0x20,0x20,
  65                0x20,0x10,0x20,0x08,0x10,0x04,0x08,0x02,
  66                0x08,0x02,0x10,0x04,0x20,0x08,0x20,0x10,
  67                0x20,0x20,0x20,0x40,0x10,0x80,0x0E,0x00,
  68          
  69          /*一*/ 0x0F,0x00,0x10,0x80,0x20,0x40,0x20,0x20,
  70                0x20,0x10,0x20,0x08,0x10,0x04,0x08,0x02,
  71                0x08,0x02,0x10,0x04,0x20,0x08,0x20,0x10,
  72                0x20,0x20,0x20,0x40,0x10,0x00,0x0F,0x00,
  73          
  74          /*一*/ 0x0F,0x00,0x10,0x80,0x20,0x40,0x20,0x20,
  75                0x20,0x10,0x20,0x08,0x10,0x04,0x08,0x02,
  76                0x08,0x02,0x10,0x04,0x20,0x08,0x20,0x10,
  77                0x20,0x20,0x20,0x00,0x10,0x80,0x0F,0x00,
  78          
  79          /*一*/ 0x0F,0x00,0x10,0x80,0x20,0x40,0x20,0x20,
  80                0x20,0x10,0x20,0x08,0x10,0x04,0x08,0x02,
  81                0x08,0x02,0x10,0x04,0x20,0x08,0x20,0x10,
  82                0x20,0x00,0x20,0x40,0x10,0x80,0x0F,0x00,
  83          
  84          /*一*/ 0x0F,0x00,0x10,0x80,0x20,0x40,0x20,0x20,
  85                0x20,0x10,0x20,0x08,0x10,0x04,0x08,0x02,
  86                0x08,0x02,0x10,0x04,0x20,0x08,0x20,0x00,
  87                0x20,0x20,0x20,0x40,0x10,0x80,0x0F,0x00,
  88          
  89          /*一*/ 0x0F,0x00,0x10,0x80,0x20,0x40,0x20,0x20,
  90                0x20,0x10,0x20,0x08,0x10,0x04,0x08,0x02,
  91                0x08,0x02,0x10,0x04,0x20,0x00,0x20,0x10,
  92                0x20,0x20,0x20,0x40,0x10,0x80,0x0F,0x00,
  93          
  94          /*一*/ 0x0F,0x00,0x10,0x80,0x20,0x40,0x20,0x20,
  95                0x20,0x10,0x20,0x08,0x10,0x04,0x08,0x02,
  96                0x08,0x02,0x10,0x00,0x20,0x08,0x20,0x10,
  97                0x20,0x20,0x20,0x40,0x10,0x80,0x0F,0x00,
  98          
  99          /*一*/ 0x0F,0x00,0x10,0x80,0x20,0x40,0x20,0x20,
 100                0x20,0x10,0x20,0x08,0x10,0x04,0x08,0x02,
 101                0x08,0x00,0x10,0x04,0x20,0x08,0x20,0x10,
 102                0x20,0x20,0x20,0x40,0x10,0x80,0x0F,0x00,
 103          
 104          /*一*/ 0x0F,0x00,0x10,0x80,0x20,0x40,0x20,0x20,
 105                0x20,0x10,0x20,0x08,0x10,0x04,0x08,0x00,
 106                0x08,0x02,0x10,0x04,0x20,0x08,0x20,0x10,
 107                0x20,0x20,0x20,0x40,0x10,0x80,0x0F,0x00,
 108          
 109          /*一*/ 0x0F,0x00,0x10,0x80,0x20,0x40,0x20,0x20,
 110                0x20,0x10,0x20,0x08,0x10,0x00,0x08,0x02,
 111                0x08,0x02,0x10,0x04,0x20,0x08,0x20,0x10,
 112                0x20,0x20,0x20,0x40,0x10,0x80,0x0F,0x00,
 113          
 114          /*一*/ 0x0F,0x00,0x10,0x80,0x20,0x40,0x20,0x20,
 115                0x20,0x10,0x20,0x00,0x10,0x04,0x08,0x02,
 116                0x08,0x02,0x10,0x04,0x20,0x08,0x20,0x10,
 117                0x20,0x20,0x20,0x40,0x10,0x80,0x0F,0x00,
C51 COMPILER V8.02   TEXT1                                                                 07/24/2016 16:25:20 PAGE 3   

 118          
 119          /*一*/ 0x0F,0x00,0x10,0x80,0x20,0x40,0x20,0x20,
 120                0x20,0x00,0x20,0x08,0x10,0x04,0x08,0x02,
 121                0x08,0x02,0x10,0x04,0x20,0x08,0x20,0x10,
 122                0x20,0x20,0x20,0x40,0x10,0x80,0x0F,0x00,
 123          
 124          /*一*/ 0x0F,0x00,0x10,0x80,0x20,0x40,0x20,0x00,
 125                0x20,0x10,0x20,0x08,0x10,0x04,0x08,0x02,
 126                0x08,0x02,0x10,0x04,0x20,0x08,0x20,0x10,
 127                0x20,0x20,0x20,0x40,0x10,0x80,0x0F,0x00,
 128          
 129          /*一*/ 0x0F,0x00,0x10,0x80,0x20,0x00,0x20,0x20,
 130                0x20,0x10,0x20,0x08,0x10,0x04,0x08,0x02,
 131                0x08,0x02,0x10,0x04,0x20,0x08,0x20,0x10,
 132                0x20,0x20,0x20,0x40,0x10,0x80,0x0F,0x00,
 133          
 134          /*一*/ 0x0F,0x00,0x10,0x00,0x20,0x40,0x20,0x20,
 135                0x20,0x10,0x20,0x08,0x10,0x04,0x08,0x02,
 136                0x08,0x02,0x10,0x04,0x20,0x08,0x20,0x10,
 137                0x20,0x20,0x20,0x40,0x10,0x80,0x0F,0x00,
 138          
 139          /*一*/ 0x0E,0x00,0x10,0x80,0x20,0x40,0x20,0x20,
 140                0x20,0x10,0x20,0x08,0x10,0x04,0x08,0x02,
 141                0x08,0x02,0x10,0x04,0x20,0x08,0x20,0x10,
 142                0x20,0x20,0x20,0x40,0x10,0x80,0x0F,0x00,
 143          
 144          /*一*/ 0x0D,0x00,0x10,0x80,0x20,0x40,0x20,0x20,
 145                0x20,0x10,0x20,0x08,0x10,0x04,0x08,0x02,
 146                0x08,0x02,0x10,0x04,0x20,0x08,0x20,0x10,
 147                0x20,0x20,0x20,0x40,0x10,0x80,0x0F,0x00,
 148          
 149          /*一*/ 0x0B,0x00,0x10,0x80,0x20,0x40,0x20,0x20,
 150                0x20,0x10,0x20,0x08,0x10,0x04,0x08,0x02,
 151                0x08,0x02,0x10,0x04,0x20,0x08,0x20,0x10,
 152                0x20,0x20,0x20,0x40,0x10,0x80,0x0F,0x00,
 153          
 154          /*一*/ 0x07,0x00,0x10,0x80,0x20,0x40,0x20,0x20,
 155                0x20,0x10,0x20,0x08,0x10,0x04,0x08,0x02,
 156                0x08,0x02,0x10,0x04,0x20,0x08,0x20,0x10,
 157                0x20,0x20,0x20,0x40,0x10,0x80,0x0F,0x00,
 158          
 159          /*一*/ 0x0F,0x00,0x00,0x80,0x20,0x40,0x20,0x20,
 160                0x20,0x10,0x20,0x08,0x10,0x04,0x08,0x02,
 161                0x08,0x02,0x10,0x04,0x20,0x08,0x20,0x10,
 162                0x20,0x20,0x20,0x40,0x10,0x80,0x0F,0x00,
 163          
 164          /*一*/ 0x0F,0x00,0x10,0x80,0x00,0x40,0x20,0x20,
 165                0x20,0x10,0x20,0x08,0x10,0x04,0x08,0x02,
 166                0x08,0x02,0x10,0x04,0x20,0x08,0x20,0x10,
 167                0x20,0x20,0x20,0x40,0x10,0x80,0x0F,0x00,
 168          
 169          /*一*/ 0x0F,0x00,0x10,0x80,0x20,0x40,0x00,0x20,
 170                0x20,0x10,0x20,0x08,0x10,0x04,0x08,0x02,
 171                0x08,0x02,0x10,0x04,0x20,0x08,0x20,0x10,
 172                0x20,0x20,0x20,0x40,0x10,0x80,0x0F,0x00,
 173          
 174          /*一*/ 0x0F,0x00,0x10,0x80,0x20,0x40,0x20,0x20,
 175                0x00,0x10,0x20,0x08,0x10,0x04,0x08,0x02,
 176                0x08,0x02,0x10,0x04,0x20,0x08,0x20,0x10,
 177                0x20,0x20,0x20,0x40,0x10,0x80,0x0F,0x00,
 178          
 179          /*一*/ 0x0F,0x00,0x10,0x80,0x20,0x40,0x20,0x20,
C51 COMPILER V8.02   TEXT1                                                                 07/24/2016 16:25:20 PAGE 4   

 180                0x20,0x10,0x00,0x08,0x10,0x04,0x08,0x02,
 181                0x08,0x02,0x10,0x04,0x20,0x08,0x20,0x10,
 182                0x20,0x20,0x20,0x40,0x10,0x80,0x0F,0x00,
 183          
 184          /*一*/ 0x0F,0x00,0x10,0x80,0x20,0x40,0x20,0x20,
 185                0x20,0x10,0x20,0x08,0x00,0x04,0x08,0x02,
 186                0x08,0x02,0x10,0x04,0x20,0x08,0x20,0x10,
 187                0x20,0x20,0x20,0x40,0x10,0x80,0x0F,0x00,
 188          
 189          /*一*/ 0x0F,0x00,0x10,0x80,0x20,0x40,0x20,0x20,
 190                0x20,0x10,0x20,0x08,0x10,0x04,0x00,0x02,
 191                0x08,0x02,0x10,0x04,0x20,0x08,0x20,0x10,
 192                0x20,0x20,0x20,0x40,0x10,0x80,0x0F,0x00,
 193          };
 194          code unsigned  int love1[] = {    /***********            ****/
 195               0x00,0x00,                     /*  改元素及z值即可*/
 196          /*完整*/ 0x0F,0x00,0x10,0x80,0x20,0x40,0x20,0x20,         /*欠二*/
 197                0x20,0x10,0x20,0x08,0x10,0x04,0x08,0x02,
 198                0x08,0x02,0x10,0x04,0x20,0x08,0x20,0x10,
 199                0x20,0x20,0x20,0x40,0x10,0x80,0x0F,0x00,
 200          
 201          /*一*/ 0x0F,0x00,0x10,0x80,0x20,0x40,0x20,0x20,
 202                0x20,0x10,0x20,0x08,0x10,0x04,0x08,0x02,
 203                0x00,0x02,0x00,0x04,0x20,0x08,0x20,0x10,
 204                0x20,0x20,0x20,0x40,0x10,0x80,0x0F,0x00,
 205          
 206          /*一*/ 0x0F,0x00,0x10,0x80,0x20,0x40,0x20,0x20,
 207                0x20,0x10,0x20,0x08,0x10,0x04,0x08,0x02,
 208                0x08,0x02,0x10,0x04,0x00,0x08,0x00,0x10,
 209                0x20,0x20,0x20,0x40,0x10,0x80,0x0F,0x00,
 210          
 211          /*一*/ 0x0F,0x00,0x10,0x80,0x20,0x40,0x20,0x20,
 212                0x20,0x10,0x20,0x08,0x10,0x04,0x08,0x02,
 213                0x08,0x02,0x10,0x04,0x20,0x08,0x20,0x10,
 214                0x00,0x20,0x00,0x40,0x10,0x80,0x0F,0x00,
 215          
 216          /*一*/ 0x0F,0x00,0x10,0x80,0x20,0x40,0x20,0x20,
 217                0x20,0x10,0x20,0x08,0x10,0x04,0x08,0x02,
 218                0x08,0x02,0x10,0x04,0x20,0x08,0x20,0x10,
 219                0x20,0x20,0x20,0x40,0x00,0x80,0x07,0x00,
 220          
 221          /*一*/ 0x0F,0x00,0x10,0x80,0x20,0x40,0x20,0x20,
 222                0x20,0x10,0x20,0x08,0x10,0x04,0x08,0x02,
 223                0x08,0x02,0x10,0x04,0x20,0x08,0x20,0x10,
 224                0x20,0x20,0x20,0x40,0x10,0x80,0x09,0x00,
 225          
 226          /*一*/ 0x0F,0x00,0x10,0x80,0x20,0x40,0x20,0x20,
 227                0x20,0x10,0x20,0x08,0x10,0x04,0x08,0x02,
 228                0x08,0x02,0x10,0x04,0x20,0x08,0x20,0x10,
 229                0x20,0x20,0x20,0x40,0x10,0x00,0x0E,0x00,
 230          
 231          /*一*/ 0x0F,0x00,0x10,0x80,0x20,0x40,0x20,0x20,
 232                0x20,0x10,0x20,0x08,0x10,0x04,0x08,0x02,
 233                0x08,0x02,0x10,0x04,0x20,0x08,0x20,0x10,
 234                0x20,0x00,0x20,0x00,0x10,0x80,0x0F,0x00,
 235          
 236          /*一*/ 0x0F,0x00,0x10,0x80,0x20,0x40,0x20,0x20,
 237                0x20,0x10,0x20,0x08,0x10,0x04,0x08,0x02,
 238                0x08,0x02,0x10,0x04,0x20,0x00,0x20,0x00,
 239                0x20,0x20,0x20,0x40,0x10,0x80,0x0F,0x00,
 240          
 241          /*一*/ 0x0F,0x00,0x10,0x80,0x20,0x40,0x20,0x20,
C51 COMPILER V8.02   TEXT1                                                                 07/24/2016 16:25:20 PAGE 5   

 242                0x20,0x10,0x20,0x08,0x10,0x04,0x08,0x02,
 243                0x08,0x00,0x10,0x00,0x20,0x08,0x20,0x10,
 244                0x20,0x20,0x20,0x40,0x10,0x80,0x0F,0x00,
 245          
 246          /*一*/ 0x0F,0x00,0x10,0x80,0x20,0x40,0x20,0x20,
 247                0x20,0x10,0x20,0x08,0x10,0x00,0x08,0x00,
 248                0x08,0x02,0x10,0x04,0x20,0x08,0x20,0x10,
 249                0x20,0x20,0x20,0x40,0x10,0x80,0x0F,0x00,
 250          
 251          /*一*/ 0x0F,0x00,0x10,0x80,0x20,0x40,0x20,0x20,
 252                0x20,0x00,0x20,0x00,0x10,0x04,0x08,0x02,
 253                0x08,0x02,0x10,0x04,0x20,0x08,0x20,0x10,
 254                0x20,0x20,0x20,0x40,0x10,0x80,0x0F,0x00,
 255          
 256          /*一*/ 0x0F,0x00,0x10,0x80,0x20,0x00,0x20,0x00,
 257                0x20,0x10,0x20,0x08,0x10,0x04,0x08,0x02,
 258                0x08,0x02,0x10,0x04,0x20,0x08,0x20,0x10,
 259                0x20,0x20,0x20,0x40,0x10,0x80,0x0F,0x00,
 260          
 261          /*一*/ 0x0E,0x00,0x10,0x00,0x20,0x40,0x20,0x20,
 262                0x20,0x10,0x20,0x08,0x10,0x04,0x08,0x02,
 263                0x08,0x02,0x10,0x04,0x20,0x08,0x20,0x10,
 264                0x20,0x20,0x20,0x40,0x10,0x80,0x0F,0x00,
 265          
 266          /*一*/ 0x09,0x00,0x10,0x80,0x20,0x40,0x20,0x20,
 267                0x20,0x10,0x20,0x08,0x10,0x04,0x08,0x02,
 268                0x08,0x02,0x10,0x04,0x20,0x08,0x20,0x10,
 269                0x20,0x20,0x20,0x40,0x10,0x80,0x0F,0x00,
 270          
 271          /*一*/ 0x07,0x00,0x00,0x80,0x20,0x40,0x20,0x20,
 272                0x20,0x10,0x20,0x08,0x10,0x04,0x08,0x02,
 273                0x08,0x02,0x10,0x04,0x20,0x08,0x20,0x10,
 274                0x20,0x20,0x20,0x40,0x10,0x80,0x0F,0x00,
 275          
 276          /*一*/ 0x0F,0x00,0x10,0x80,0x00,0x40,0x00,0x20,
 277                0x20,0x10,0x20,0x08,0x10,0x04,0x08,0x02,
 278                0x08,0x02,0x10,0x04,0x20,0x08,0x20,0x10,
 279                0x20,0x20,0x20,0x40,0x10,0x80,0x0F,0x00,
 280          
 281          /*一*/ 0x0F,0x00,0x10,0x80,0x20,0x40,0x20,0x20,
 282                0x00,0x10,0x00,0x08,0x10,0x04,0x08,0x02,
 283                0x08,0x02,0x10,0x04,0x20,0x08,0x20,0x10,
 284                0x20,0x20,0x20,0x40,0x10,0x80,0x0F,0x00,
 285          
 286          /*一*/ 0x0F,0x00,0x10,0x80,0x20,0x40,0x20,0x20,
 287                0x20,0x10,0x20,0x08,0x00,0x04,0x00,0x02,
 288                0x08,0x02,0x10,0x04,0x20,0x08,0x20,0x10,
 289                0x20,0x20,0x20,0x40,0x10,0x80,0x0F,0x00,
 290          };
 291          code unsigned  int love2[] = {    /***********            ****/
 292               0x00,0x00,                /*  改元素及z值即可*/
 293          /*一*/ 0x0F,0x00,0x10,0x80,0x20,0x40,0x20,0x20,
 294                0x20,0x10,0x20,0x08,0x10,0x04,0x08,0x02,
 295                0x08,0x02,0x10,0x04,0x20,0x08,0x20,0x10,
 296                0x20,0x20,0x20,0x40,0x10,0x80,0x0F,0x00,
 297          
 298          /*一*/ 0x00,0x00,0x07,0x00,0x08,0x80,0x10,0x40,
 299                0x10,0x20,0x10,0x10,0x08,0x08,0x04,0x04,
 300                0x04,0x04,0x08,0x08,0x10,0x10,0x10,0x20,
 301                0x10,0x40,0x08,0x80,0x07,0x00,0x00,0x00,
 302          
 303          /*一*/ 0x00,0x00,0x00,0x00,0x03,0x00,0x04,0x80,
C51 COMPILER V8.02   TEXT1                                                                 07/24/2016 16:25:20 PAGE 6   

 304                0x08,0x40,0x08,0x20,0x04,0x10,0x02,0x08,
 305                0x02,0x08,0x04,0x10,0x08,0x20,0x08,0x40,
 306                0x04,0x80,0x03,0x00,0x00,0x00,0x00,0x00,
 307          
 308          /*一*/ 0x00,0x00,0x00,0x00,0x00,0x00,0x01,0x00,
 309                0x02,0x80,0x04,0x40,0x02,0x20,0x01,0x10,
 310                0x01,0x10,0x02,0x20,0x04,0x40,0x02,0x80,
 311                0x01,0x00,0x00,0x00,0x00,0x00,0x00,0x00,
 312          
 313          /*一*/ 0x00,0x00,0x00,0x00,0x00,0x00,0x00,0x00,
 314                0x00,0x00,0x00,0x80,0x01,0x40,0x00,0xA0,
 315                0x00,0xA0,0x01,0x40,0x00,0x80,0x00,0x00,
 316                0x00,0x00,0x00,0x00,0x00,0x00,0x00,0x00,
 317          
 318          /*一*/ 0x00,0x00,0x00,0x00,0x00,0x00,0x00,0x00,
 319                0x00,0x00,0x00,0x00,0x00,0x00,0x00,0x40,
 320                0x00,0x40,0x00,0x00,0x00,0x00,0x00,0x00,
 321                0x00,0x00,0x00,0x00,0x00,0x00,0x00,0x00,
 322          
 323          /*一*/ 0x00,0x00,0x00,0x00,0x00,0x00,0x00,0x00,
 324                0x00,0x00,0x00,0x80,0x01,0x40,0x00,0xA0,
 325                0x00,0xA0,0x01,0x40,0x00,0x80,0x00,0x00,
 326                0x00,0x00,0x00,0x00,0x00,0x00,0x00,0x00,
 327          
 328          /*一*/ 0x00,0x00,0x00,0x00,0x00,0x00,0x01,0x00,
 329                0x02,0x80,0x04,0x40,0x02,0x20,0x01,0x10,
 330                0x01,0x10,0x02,0x20,0x04,0x40,0x02,0x80,
 331                0x01,0x00,0x00,0x00,0x00,0x00,0x00,0x00,
 332          
 333          /*一*/ 0x00,0x00,0x00,0x00,0x03,0x00,0x04,0x80,
 334                0x08,0x40,0x08,0x20,0x04,0x10,0x02,0x08,
 335                0x02,0x08,0x04,0x10,0x08,0x20,0x08,0x40,
 336                0x04,0x80,0x03,0x00,0x00,0x00,0x00,0x00,
 337          
 338          /*一*/ 0x00,0x00,0x07,0x00,0x08,0x80,0x10,0x40,
 339                0x10,0x20,0x10,0x10,0x08,0x08,0x04,0x04,
 340                0x04,0x04,0x08,0x08,0x10,0x10,0x10,0x20,
 341                0x10,0x40,0x08,0x80,0x07,0x00,0x00,0x00,
 342          
 343          /*一*/ 0x0F,0x00,0x10,0x80,0x20,0x40,0x20,0x20,
 344                0x20,0x10,0x20,0x08,0x10,0x04,0x08,0x02,
 345                0x08,0x02,0x10,0x04,0x20,0x08,0x20,0x10,
 346                0x20,0x20,0x20,0x40,0x10,0x80,0x0F,0x00
 347          };
 348          
 349          /*****n（us）延时子程序*****/
 350          void DelayUs(unsigned int N)
 351              {
 352   1              unsigned int x ;
 353   1              for(x=0;x<=N;x++);
 354   1          }
 355          /*主程序*/
 356          main()
 357              {
 358   1              int i=-1,j=0,x=32+2,z=0,n=0,p=8;          /* X 格中的个数，32+2为 在第一格表演 */  
 359   1              while(1)                                      /*z为总元素个数*/
 360   1              {         
 361   2                        if(x-2-j*32-i*2>0)
 362   2                        {
 363   3                             i++;
 364   3                        }    
 365   2      /*********************************************************/
C51 COMPILER V8.02   TEXT1                                                                 07/24/2016 16:25:20 PAGE 7   

 366   2           if(p10==0)
 367   2          {
 368   3              p=0;
 369   3          }
 370   2          if(p11==0)
 371   2          {
 372   3              p=1;
 373   3          }
 374   2          if(p12==0)
 375   2          {
 376   3              p=2;
 377   3          }
 378   2          switch (p)
 379   2          {
 380   3              case 0: z=z=2+32*37; P0=~love[x-2-i*2];P2=~love[x-1-i*2];break;  
 381   3              case 1: z=2+32*19; P0=~love1[x-2-i*2];P2=~love1[x-1-i*2]; break; 
 382   3              case 2: z=2+32*11; P0=~love2[x-2-i*2];P2=~love2[x-1-i*2]; break; 
 383   3              default :break;
 384   3      
 385   3          }
 386   2      /**************************************************************/                          
 387   2                        DelayUs(90);
 388   2                        P0=0XFF;
 389   2                        P2=0XFF;
 390   2                        DelayUs(10);
 391   2                        if(x-2-j*32-i*2==2)
 392   2                        {   
 393   3                            j++;
 394   3                            x=32+x;
 395   3                        }
 396   2                        if(x-2-j*32-i*2<=2)
 397   2                        {
 398   3                            i=x/2-1;
 399   3                        }
 400   2                        if(z<x-30)
 401   2                        {
 402   3                            x=32+2;
 403   3                            j=0;
 404   3                            i=x/2-1;
 405   3                        }
 406   2                   if(KEY==1)
 407   2                      {    
 408   3                           n++;                         //加n上限 ,开头延时
 409   3                          if(n>20000)
 410   3                          {
 411   4                              n=200;
 412   4                          }
 413   3                          if(n>=110)
 414   3                          {
 415   4                           while(KEY)
 416   4                           {
 417   5                            i=-1;
 418   5                           }
 419   4                           }
 420   3                      }
 421   2              }
 422   1          }


MODULE INFORMATION:   STATIC OVERLAYABLE
   CODE SIZE        =    599    ----
   CONSTANT SIZE    =   4300    ----
C51 COMPILER V8.02   TEXT1                                                                 07/24/2016 16:25:20 PAGE 8   

   XDATA SIZE       =   ----    ----
   PDATA SIZE       =   ----    ----
   DATA SIZE        =   ----      10
   IDATA SIZE       =   ----    ----
   BIT SIZE         =   ----    ----
END OF MODULE INFORMATION.


C51 COMPILATION COMPLETE.  0 WARNING(S),  0 ERROR(S)
