:10000E008000040404100404040403000000000033
:10001E00000A080401010403042403240101100250
:10002E0000000000000000000000000005012CFF91
:10003E00FFFFFF01C0FFDFFFDFFFDFFFDFFFDFFF9F
:10004E00DFFFDFFFFFFFFFFFFF07F0FBEFFDDFFD31
:10005E00DFFDDFFDDFFBEF07F0FFFFFFFFFFFF011F
:10006E00F8FFF7FFEFFFDFFFDFFFEFFFF701F8FF0E
:10007E00FFFFFFFFFF01C07DDF7DDF7DDF7DDF7DC9
:10008E00DF7DDF7DDFFFFFFFFF87FF03FF01FE0147
:10009E00FC01F801F001E003C0078003C001E0019C
:1000AE00F001F801FC01FE03FF87FFFFFFFFFFDFFA
:1000BE00FFDBF7DBB7DB7B0180DCFDDDBEDFBFDF07
:1000CE00DF00ECDFF3DDEBD3DD5FBEDF07FFFFFF0D
:1000DE00FFFFFFFFFFFFFF8FFF03FE01FC01F80094
:1000EE00F000E000C000C0008001800300070007A0
:1000FE000003000180008000C000C000E000F0019D
:10010E00F801FC03FE8FFFFFFFFFFFFFFFFFFFFF66
:10011E00FE7FFF9FFF0700F8FFBFEFDFF3E7FCF066
:10012E00BFF77F3780F7FFF7FED7F9E7E7FFFFFF4F
:10013E00FFFFFFFFFF1FF8E7E7FBDFFDBFFFFFFF3E
:10014E00FFFFFFFEFFFEFFFEFFFEFFFEFFFEFFFEB8
:10015E00FFFEFFFEFFFEFFFEFFFEFFFEFFFFFFFFA7
:10016E00FFFFFFFBFFE3FF9BFF7BFEFBF9FBE7FBC4
:10017E00F97BFE9BFFE3FFFBFFFFFFFFFFFFFFFE91
:10018E00FFFEFFFEFFFEFFFEFFFEFFFEFFFEFFFE79
:10019E00FFFEFFFEFFFEFFFEFFFEFFFFFFFFFFFF66
:1001AE00FFFDBFFBDFE7E71FF8FFFFFFFFFFFFFBD2
:1001BE00EFDBF7BBF97BFE9B7D63B3BFDFCFE7F0D1
:1001CE00F937FEF7F9F7E7D7DFE7BFFF7FFFFFBF8E
:1001DE00FFBFBFBDDF33E0FFDFFFBF03B0FBBBFDE3
:1001EE00BDFFBF0380FBBDFBBB03BCFFBFFFFF7F9B
:1001FE00FF9FFF0700F8FFFB7F1B7EDBBADBD6DB22
:10020E00EE00D0DBBEDBBEDB7E1B7EFB7FFFFFFF87
:10021E007FFF9F01E0DDFDDDFDDDFDDDFD0180DD0C
:10022E00FDDDFDDDBDDD7D0180FFFFFFFFFFFFF783
:10023E00FDF7FE76FF110067FFFFFCFFFF07E0777B
:10024E00F777F7000077F777F707E0FFFFFFFFBFBD
:10025E00FFBFFFBBFFBBE19BEDABEDB3EDB8EDB365
:10026E00E1ABBF9B7F3B80BBFFBFFFBFFFFFFFFF2D
:10027E007FFF9F0160B57F55B001B565D515E57C53
:10028E00905545655501456510D57FBD3FFFFFBFB4
:10029E00EF9FC7AFEBB3EDBCEE3FEBCFC7FBFFFB62
:1002AE00FFFBFFFBBFFB7FFBBF03C0FFFFFFFFEFAB
:1002BE00FDEFBDEF7E00806FFFFFFF6BFD9B85BBEB
:1002CE00BDABBD1D80BDBD9CBDA505FFFDFFFFEFF8
:1002DE00FDEFBDEF7E00806FFFFFFF6BFD9B85BBCB
:1002EE00BDABBD1D80BDBD9CBDA505FFFDFFFFEFD8
:1002FE00FBEFFC2FFF00006FFFEFFEBBEDABEE2B15
:10030E00EB8BEBA000ABEB2BEBABEEBBEDFFFFFFF4
:10031E00FFFFFFFFFF01CCFFFFFFFFFFFFFFFFFF10
:10032E00FFFFFFFFFFFFFFFFFFFFFFFFFFFFFFFFCF
:10033E00FF0000FFFFFFFFFFFFFFFFFFFFFFFF7F3D
:10034E00FF7F7F7BBF7BDF7BE701F87DFF7CFF7D3F
:10035E00FF7FFF00007FFF7FFF7FFF7FFFFFFFDF3D
:10036E00DDCF9853DD9CEDCFEDFFBFFDCFFD7001CE
:10037E007FFDBCFDD39DEFA5D339BCFF7FFFFFFFF3
:10038E007F0180DFFEDFFEC000DF7FFF9F03E0DB2B
:10039E007F1BBEDBD9DDE7DCD91DBEFF7FFFFFFF74
:1003AE00FFFFFFFFFFFFFFFFFFFFFF0000FFFFF755
:1003BE00BFF7C777FF77FF77C377BF77BF00BD77EC
:1003CE00B377BF77BF778F77FBF7F7F7CFFFFFEFE7
:1003DE00FDF3FDDBFDDBFDDBFDDBBDDA7D1980DB37
:1003EE00FDDBFDDBFDDBFDDBFDEBFDF3FDFFFFBF0D
:1003FE00FFAFFFB1C1B7FDB7FD0000B7EDB7DDB779
:10040E00E1BFFF07F0FFBFFF7F0080FFFFFFFFFF91
:10041E00FE7FFF9FFF0700F8FFBFFFCFFFF0FF0734
:10042E000077F777F777F777F7F7F7F7FFFFFFFF25
:10043E00FFFFFFFFFFFFFFFFFFFFFFFFFFFFFFF7C6
:10044E00FFE7FFDBFF5BFFBDFEF9FED7F98FF77FFE
:10045E00F5FFEAFFD7FFCFFFBFFFFFFFFFFFFFFF55
:10046E00FFFFFFFFFF03F0FDEFFDDFFE1FFE7FDE50
:10047E00BF9EBF9EBF5ECF5EC3DED4DED7CEDBF2A5
:10048E00DBFCDBF2DBCEDBDED7DED45EC35ECF9EE3
:10049E00DF9EDFDEDFFEDFFDDFFDEF03F0FFFFFFA0
:1004AE00FFFFFFFFFFFFFFFFFFFFFFFFFFFFFFFF4E
:1004BE00FF7FFC1FF80FF007E007E003C003C00149
:1004CE008001800180818181818181C183C3C3C309
:1004DE00C3E7E7E7E7EFF7FFFF3FFC1FF81FF81F43
:1004EE00F81FF83FFCFFFFFFFF3FFC1FF81FF81F30
:1004FE00F81FF83FFCFFFFFFFF3FFC1FF81FF81F20
:10050E00F81FF83FFCFFFFEFF7E7E7E7E7C3C3C3CA
:10051E00C3C183818181818181018001800180033A
:10052E00C003C007E007E00FF01FF87FFCFFFFFFDE
:10053E00FFFFFF83FFBBFFBBFFBBFFBBFF38FEFE12
:10054E00FE7DFFBBFFD7FFEFFFFFFFFFFFF7FFE7CC
:10055E00FF67FE17FF73FFBCFF73FF17FF67FEE712
:10056E00FFF7FFFFFFFFFFEFFFD7FFBBFF7DFFFE94
:10057E00FE7DFFBBFFD7FFEFFFFFFFFFFFE7FF1B78
:10058E00FFFBFEFDFEFEFEFEFEFDFEFBFE1BFFE77D
:10059E00FFFFFFFFFFEFFFD7FFBBFF7DFFFEFE3824
:1005AE00FEBBFFBBFFBBFFBBFF83FFFFFFFFFFFFDA
:1005BE00FFFFFFFFFFFFFFFFFFFFFFFFFFFFFF7FBD
:1005CE007F8F9FFFE700F8EFF7F7CFFFFFF7DE779C
:1005DE008EB7D6C6DAF1DCF7DE37D7F78FFFFFFF1F
:1005EE00FFFFFFFFFFFFFFFFFFFFFFFFFFFFFF0DFF
:1005FE0000EDB501B6EDB701B6EDB60D00FFFF5F2C
:10060E00FF610377BB00BB77BB77037FFFFFFFFF65
:10061E00FFFFFFFFFF03FF03FF01FF00FF007F004F
:10062E003F001F000F00070003000300030001003E
:10063E0001000100010001000100010001000100A4
:10064E0001000100030007000700070007000F006C
:10065E000F001F001F001F003F003F003F003F0024
:10066E003F003F003F003F003F003F003F003F0084
:10067E003F003F003F003F001F001F001F000F0004
:10068E000F000F000F000F000F001F003F003F0074
:10069E003F003F003F003F003F003F003F003F0054
:1006AE003F003F003F003F003F003F003F003F0044
:1006BE003F001F001F001F000F000F000F0007005C
:1006CE000700030003000300030003000100010004
:1006DE000100010001000100010001000300030000
:1006EE00030007000F001F003F003F007F00FF01C7
:1006FE00FF03FF03FF97839783AB0381079A079A44
:10070E00879A878E0F8F6F8F7F87FF87FFD7FFD3D5
:10071E00FFD9FF49FF41FF41FF49FF6BFF6BFF7F91
:10072E00FF7FFFFFFFFFFFFFFFFFFFFFFFFFFFFF4B
:10073E00FFFFFFFFFFFFFFFFFFFFFFFFFFFFFFFFBB
:10074E00FFFFFFFFFFFFFFFFFFFFFFBFFFAAF9AA9B
:10075E00F9AAB982398E01A801A9FDB1FFB7FF87A9
:10076E00FF87FF07FF037F037F023F183F1ABF3843
:10077E003F231F031F079F67936F834FC34FFF4F87
:10078E00FF4FFF5FFF5FFF5FFF5FFF5FFF5FFF1FBB
:10079E00FF1FFF1FFF1FFF19FF19FF19FF19FF1979
:1007AE00FF18FF19FF19FF39FF39FF39FF19FF181D
:1007BE00FF18FF18FF18FF18FF11FF11FF11FF5947
:1007CE00FF5BFF5BFF5BFF51FF41FF6B1F731F5111
:1007DE0007902790272E016F01530979093A0912C4
:1007EE004317031707075727DF27FF27FF27FF2783
:1007FE00FF27FF27FF27FF27FF27FF23FF23FF27C3
:10080E00FF37FF17FF17FF17FF1FFF1FFF5FFF5F6A
:10081E00FF5FFF5FFF5FFF5FFF5FFF5FFF5FFF5FDA
:10082E00FF1FFF1FFF1FFF3FFF2CFF2CFF28BF24C2
:10083E003F261F681F591F4B1F439F589FD89FC4A9
:10084E009994599101A1008FFF0FFF1FFF3FFF3FAA
:10085E00FF3FFF9FFFBFFFBFFFBFFF3FFF3FFF3FBA
:10086E00FF3FFF3FFF3FFF3FFF3FFF3FFF3FFF3F8A
:10087E00FF3FFF3FFF3FFF3FFFAFFF8FFF0FFFCF5A
:10088E00FFAFFFAFFFA7FFA7FF27FFAFFFAFFFAF82
:10089E00FFAFFF8FFF8FFFAFFFAFFFAFFFAFFFAF1A
:1008AE00FFAFFFEFFFC7FF47FF67FF67FF63FF6302
:1008BE0087638740239A839B83CD03CD07DA07D2C4
:1008CE0087D607C60FC76FCF7FCFFFCFFFCFFF8F64
:1008DE00FFCFFFCFFFCFFFCFFFCFFFDAFFD8FFD87D
:1008EE007FC07FC47FD5FFD1FFD3FFD3FFD7FFC714
:1008FE00FFC7FFCFFFCFFFCFFFCFFFCFFFCFFFFF52
:10090E00FFFFFFFFFFFFFFFFFFFCFFFCFFF87FF87D
:10091E003FFA18F019E101E1C7E9D7EBFFE3FFE376
:10092E00FFE7FFC7FFC7FFC7FFC6FFD4FFD4FFD047
:10093E00FFD27FDA3F981F9A909381838187FF972A
:10094E00FF97FF87FF87FFAFFFAFFF8FFF8FFF9FE1
:10095E00FF9FFF9FFF9FFF99FF99FF99FF99FF99B7
:10096E00FF98FF99FF99FFB9FFB9FFB9FF99FF985B
:10097E00FF98FF98FF98FF98FF91FF91FF91FF99C5
:10098E00FF9BFF9BFF9BFF91FF81FFAB1FB31F914F
:10099E00079027902757835783DB03C1074A074ADF
:1009AE00874A874E0F4F6F477F4FFF4FFF4FFFCF47
:1009BE00FFCFFFCFFFC87FC07FC33FCC7FCD7FE986
:1009CE00FFEBFFE3FFE7FFE7FFE7FFE7FFFFFFFFB9
:1009DE00FFFFFFFFFFFFFFFFFFFFFFFFFFFFFFFF19
:1009EE00FFFFFFFFFFFB7F787F685D601D609561F5
:1009FE0081418143FF53FF53FFD7FFC7FFCFFFCF87
:100A0E00FF4FFF0FFF8FFFCFFFCABFC2BF529FD84E
:100A1E001FD89F488F438F83CFEFCF6FC08FE18F4B
:100A2E00E18FFF9FFF9FFFDFFF5FFF5FFF5FFF1FF6
:100A3E00FF3FFF3FFFBFFFBFFFBFFFBFFFBFFFBFB8
:100A4E00FFBE7FBE7F3E7F3E7F3E7F3E7F1E7F1C72
:100A5E007F1E7F1E7F1E7F1C3F1C3F5C7F587F5872
:100A6E00FF48FF49FF69FF71FF3BFFAB1FAB1FA99B
:100A7E000788270127007F007F007F007F007F000F
:100A8E00FF00FF00FF00FF00FF00FF00FF00FF0060
:100A9E00FF00FF00FF007F007F007F003F003F0050
:100AAE001F001F000F0007000700010001000300D8
:100ABE0003000F000F001F001F001F003F003F002C
:100ACE007F007F007F007F007F007F007F00FF00A0
:100ADE007F007F007F00FF007F007F007F007F0090
:100AEE003F007F007F07FF07FF07FF03FF03FF03A2
:100AFE00FF03FF03FF03FF03FF01FF01FF01FF00E1
:100B0E00FF00FF00FF003F001F001F00070007004F
:100B1E000700070007000F000F000F000F000F0067
:100B2E000F00070007000700070007003F003F0007
:100B3E007F00FF00FF01FF01FF03FF03FF03FF0321
:100B4E00FF07FF07FF07FF07FF07FF07FF07FF0767
:100B5E00FF04FF007F001F003F003F007F007F006B
:100B6E00FF00FF01FF01FF01FF01FF01FF01FF0178
:100B7E00FF03FF03FF03FF01FF01FF03FF03FF015D
:100B8E00FF01FF03FF01FF01FF01FF01FF00FF0057
:100B9E00FF00FF007F007F001F001F000F000F00EF
:100BAE003F007F007F00FF00FF00FF01FF01FF01FC
:100BBE00FF01FF03FF03FF03FF03FF03FF03FF0319
:100BCE00FF03FF03FF03FF03FF03FF03FF03FF0307
:100BDE00FF03FF01FF01FF01FF01FF00FF00FF0008
:100BEE00FF007F007F003F000F000F002F003F002F
:100BFE007F007F00FF00FF01FF01FF01FF03FF03E6
:100C0E00FF03FF03FF03FF03FF03FF03FF03FF03C6
:100C1E00FF03FF03FF03FF03FF03FF03FF01FF01BA
:100C2E00FF01FF01FF01FF00FF00FF007F007F00BB
:100C3E003F001F001F007F007F00FF01FF01FF0B21
:100C4E00FF0BFF07FF07FF07FF0FFF0FFF07FF0752
:100C5E00FF0FFF0FFF07FF07FF07FF07FF07FF0746
:100C6E00FF07FF07FF03FF03FF03FF03FF03FF035E
:100C7E00FF07FF07FF07FF03FF03FF01FF01FF0051
:100C8E003F003700070001000100070007001F00AA
:100C9E005F007F00FF00FF01FF01FF03FF03FF0363
:100CAE00FF07FF07FF07FF07FF07FF07FF07FF0706
:100CBE00FF07FF07FF07FF0FFF0FFF0FFF1FFF1FAE
:100CCE00FF1FFF1FFF1FFF1FFF1FFF1FFF1FFF1F26
:100CDE00FF0FFF0FFF0FFF0FFF07FF07FF03FF03BE
:100CEE00FF00FF00FF00FF01FF01FF00EF00EF001C
:100CFE0001000100030003000300070007000700C6
:100D0E00070007000700070007000700070017008D
:100D1E001F007F007FC007C007C03FC07FC07FE0BD
:100D2E00FFE1FFF1FFF1FFF3FFF3FFF1FFF1FFF042
:100D3E00FFF0FFF0FFF03FF01FF01FF007F007F09D
:100D4E0007E007E03FE03FE07FE1FFE1FFE1FFE189
:100D5E00FFE3FFE3FFE3FFE1FFE1FFE1FFE1FFC0A0
:100D6E00FFC0FFC07FC03FE03FC007C007C00FE01D
:100D7E002FE03FE0FFE0FFE1FFE1FFE1FFE3FFE3F4
:100D8E00FFE3FFE3FFE3FFE1FFC1FFC1FFC0FFC0D1
:100D9E007FC07FC03FC017C007C007C00FC03FC095
:100DAE003FC0FFC0FFC1FFC1FFC1FFC3FFC3FFC3F1
:100DBE00FFC7FFC7FFC7FFC3FFC1FFC1FFE0FFE0D3
:100DCE00FFE07FE06FE00FE007E007E01FE01FE0CD
:100DDE003FF07FF0FFF0FFF0FFF1FFF1FFF3FFF3C5
:100DEE00FFF3FFF1FFF1FFF0FFE0FFE07FE05FC0F8
:100DFE001FC003C003481F4B5F6B7F6B7F6B3F6948
:100E0E00BF69BF6DBF6D9F6CDF64DF64CF66EF6639
:100E1E0067733373BB719F79FF38FF3CFF3C7F3C98
:100E2E00FF1CFF0CFF0CFF0CFF00FF00FF00FF0F6D
:100E3E00FF0FFF3FFF33C732DF325F347F34FF7463
:100E4E00FF71FF71BF733F731F720F76EF76E7640A
:100E5E00FF64DF65DF65DF6DBF6DBF6DBF6DBF6D9D
:100E6E00BF6DBF6DBF6DBF6DBF6DBF6DBF6DBF6D14
:100E7E009F65DF64CF64CF66C766CF661F633F632F
:100E8E003F613F61FF64FF64FF247F265F261F2FB3
:100E9E00DF2FDF2FFF0FFF09FF01FF01FF01FF0D06
:100EAE00FF0DFF1DFF1DFF3DFF3CFF38FF79FF715A
:100EBE00BF73BF73377667666764CF64DF6CDF6DB1
:100ECE009F6D9F69BF69BF693F6B3F6B7F6B7F49AA
:100EDE007F495F491FC85FE85FE80FFEEFFEEFFE38
:100EEE00FFFEFFFE7FFE7FFF7FF77FF73FF7BFF727
:100EFE009FF3CFF3CFF1C7E7DFE71FE73FE73FE70A
:100F0E00FFE7FFE7FFE7FFE7FFE7FFE7FFE7FFE7A3
:100F1E00FFE7FFE7FFE7FFE3FFE3FFE1FFE9FFEC9A
:100F2E00FFE4FFE403E70FE70FF7FFF7FFF3FFF32D
:100F3E00FFF3FFF3FFF3FFF1FFF9FFF9FFF9FFF8FE
:100F4E00FFFCFFFCFFFE7FFE7FFF1FFF7FF77FFB97
:100F5E00BFFBBFF3FFF3FFF3FFF3FFF7FFF7FFE76F
:100F6E00FFF38FF78FF60FF67FF47FF4FFF4FFF1A8
:100F7E00FFF1FFF1FFF3FFF3FFF3FFF3FFF1FFF1DB
:100F8E00FFF1FFF1FFF47FF47FF53FF77FF77FF37B
:100F9E00FFF3F7FBF7F3E7F3CFF9DFF9DFF99FFD87
:100FAE00BFFCBFDC3FDC7FCF7FCF7FCFFFCFFFC744
:100FBE00FFC5FFC1FFFC9FFEDFFEDFFEFFFE7FFED3
:100FCE007FFE7FFE7FFE7FF73FF73FF31FF39F63AA
:100FDE008F63C767C767CF679F673F67BF67BF6F7F
:100FEE00FF6FFF6FFF6FFF6CFF4CFF4CFF6E7F6E4E
:100FFE007F6E7F6F7F6F3F67AF678F67CF67CF67FC
:10100E00FF67FF63FF63FF63FF71FF71FF70FF7880
:10101E00FF787F7C7F7D3F7F3F7F3F7F3F3F3F3F1E
:10102E003F3F7F3F7F3FFF1FFF1FFF1FFF0FFF0F42
:10103E00FF07FF05FF01FF01EF01CF09870F9F0F8C
:10104E001F3F3FBF3FBE7F3E7F3E7F7EFF7CFF7CCC
:10105E00FF7CFF7CFF7CFF7CFF7CFF7CFF7CFF7CAA
:10106E00FF7CBF7CBF7C9F7C9F7C9F7E3F7E3F76BC
:10107E001F773F673F673F673F779F779F73DF73AA
:10108E00DF73CF73E773E779EF79FFF9FFF9FFFCB1
:10109E00FFFE6FFE0FCCFFCCFFCCFFCDFFCDFFC907
:1010AE00FFC9FFE9FFE9FFE3FFE3FFE3FFE3FFE72C
:1010BE00FFE7FFE7FFEFFFE7FFE7FFE43FE43FE077
:1010CE001FE01FE19FE18FE3CFF3EFF3EFF3EFF3B9
:1010DE00EFF3E7F7E7FFEFFFEFFFEFF003F002E0CC
:1010EE0000E0E8E0EFE7CFE7CFFFEFFFEFFFCFFF46
:1010FE00EFFFEFFF8FFF8FFF3FFF3FFE7FFEFFF8FB
:10110E00FFF1FFF1FFE1FFE1FFE3FFE3FFE1FFE1AD
:10111E00FFE1FFE4FFE4FFCE7FCE7FCE7FDE7FDFF9
:10112E007FCE7FCE7FDF7FDF7FDF7F9F3F9F3F9F23
:10113E003F9F3F9F9F9F9F9F9F9F9F9F9F8FD38F5D
:10114E00D387EB87E981ED80E180E1A9E499E49B07
:10115E00E99BC991D398139813987F987F99FF991B
:10116E00FF9DFF9DFF9DFF9CFF9CFFDDFFDCFFDCD5
:10117E00FFDCFFDCFFFFFEFFFEFFFEFFFEFFFEFFBC
:10118E00FEFFFEFFFEFFFEFFFEFFFEFFFEFFFEFF69
:10119E00FEFFFEFFFFFFFFFFFFFFFFFFFFFFFFFF53
:1011AE00FFFFFFFFFFFFFFFFFFFFFFFFFFFFFFFF41
:1011BE00FFFFFFFFFFFFFFFFFFFFFFFFFFFFFFFF31
:1011CE00FFFFFFFFFFFFFFFFFFFFFFFFFFFFFFFF21
:1011DE00FFFFFFFFFFFFFFFFFFFFFFFFFFFFFFFF11
:1011EE00FFFFFFFFFEFFFEFFFEFFFEFFFEFFFEFF07
:1011FE00FEFFFEFFFEFFFEFFFEFFFEFFFEFFFEFFF9
:10120E00FEFFFEFFFFFFFFFFFFFFFFFFFFFFFFFFE2
:10121E00FFFFFFFFFFFFFFFFFFFFFFFFFFFFFFFFD0
:10122E00FFFFFFFFFFFFFFFFFFFFFFFFFFFFFFFFC0
:10123E00FFFFFFFFFFFFFFFFFFFFFFFFFFFFFFFFB0
:10124E00FFFFFFFFFFFFFFFFFFFFFFFFFFFFFFFFA0
:10125E00FFFFFFFFFFFFFEFFFEFFFEFFFEFFFEFF95
:10126E00FEFFFEFFFEFFFEFFFEFFFEFFFEFFFEFF88
:10127E00FEFFFEFFFEFFFEFFFEFFFEFFFEFFFEFF78
:10128E00FEFFFEFFFEFFFEFFFEFFFEFFFEFFFEFF68
:10129E00FFFFFFFFFFFFFFFFFFFFFFFFFFFFFFFF50
:1012AE00FFFFFFFFFFFFFFFFFFFFFFFFFFFFFFFF40
:1012BE00FFFFFFFFFFFFFFFFFFFFFEFFFEFFFEFF33
:1012CE00FEFFFEFFFEFFFEFFFEFFFEFFFEFFFEFF28
:1012DE00FEFFFEFFFEFFFEFFFEFFFEFFFEFFFEFF18
:1012EE00FEFFFEFFFEFFFEFFFEFFFEFFFEFFFEFF08
:1012FE00FEFFFEFFFFFFFEFFFFFFFFFFFFFFFFFFF3
:10130E00FFFFFFFFFFFFFFFFFFFFFFFFFFFFFFFFDF
:10131E00FFFFFFFFFFFFFFFFFFFFFFFFFFFFFFFFCF
:10132E00FFFFFFFFFFFFFFFFFFFFFFFFFFFFFFFFBF
:10133E00FFFFFFFFFFFFFEFFFEFFFEFFFEFFFEFFB4
:10134E00FEFFFEFFFEFFFEFFFEFFFEFFFEFFFEFFA7
:10135E00FEFFFEFFFEFFFEFFFEFFFEFFFEFFFEFF97
:10136E00FEFFFEFFFEFFFEFFFEFFFEFFFEFFFEFF87
:10137E00FEFFFEFFFEFFFEFFFEFFFEFFFEFFFEFF77
:10138E00FEFFFEFFFEFFFEFFFFFFFFFFFFFFFFFF63
:10139E00FFFFFFFFFFFFFFFFFFFFFFFFFFFFFEFF50
:1013AE00FFFFFEFFFEFFFEFFFEFFFEFFFEFFFEFF46
:1013BE00FEFFFEFFFEFFFEFFFEFFFEFFFEFFFEFF37
:1013CE00FEFFFEFFFEFFFEFFFEFFFEFFFEFFFEFF27
:1013DE00FEFFFEFFFEFFFEFFFEFFFEFFFEFFFEFF17
:1013EE00FEFFFEFFFEFFFEFFFEFFFEFFFEFFFEFF07
:1013FE00FEFFFEFFFEFFFEFFFEFFFEFFFEFFFFFFF6
:10140E00FFFFFFFFFFFFFFFFFFFFFFFFFFFFFFFFDE
:10141E00FFFFFFFFFFFFFEFFFEFFFEFFFEFFFEFFD3
:10142E00FEFFFEFFFEFFFEFFFEFFFEFFFEFFFEFFC6
:10143E00FEFFFEFFFEFFFEFFFEFFFEFFFEFFFEFFB6
:10144E00FEFFFEFFFEFFFEFFFEFFFEFFFEFFFEFFA6
:10145E00FEFFFEFFFEFFFEFFFEFFFEFFFEFFFEFF96
:10146E00FEFFFEFFFEFFFEFFFEFFFEFFFEFFFEFF86
:10147E00FEFFFEFFFEFFFEFFFEFFFEFFFEFFFEFF76
:10148E00FEFFFEFFFEFFFEFFFEFFFEFFFEFFFEFF66
:10149E00FEFFFEFFFEFFFEFFFEFFFEFFFEFFFEFF56
:1014AE00FEFFFEFFFEFFFEFFFEFFFEFFFEFFFEFF46
:1014BE00FEFFFEFFFEFFFEFFFEFFFEFFFEFFFEFF36
:1014CE00FEFFFEFFFEFFFEFFFEFFFEFFFEFFFEFF26
:1014DE00FEFFFEFFFEFFFEFFFEFFFEFFFEFFFEFF16
:1014EE00FEFFFEFFFEFFFEFFFEFFFEFFFEFFFEFF06
:1014FE00FEFFFEFFFEFFFEFFFEFFFEFFFEFFFEFFF6
:10150E00FEFFFEFFFEFFFEFFFEFFFEFFFEFFFEFFE5
:10151E00FEFFFEFFFEFFFEFFFEFFFEFFFEFFFEFFD5
:10152E00FEFFFEFFFEFFFEFFFEFFFEFFFEFFFEFFC5
:10153E00FEFFFEFFFEFFFEFFFEFFFEFFFEFFFEFFB5
:10154E00FEFFFEFFFEFFFEFFFEFFFEFF9EFFBEFF45
:10155E00DEFFDEFFEEFFEEFFF6FFF6FFFAFFFAFF0D
:10156E00FCFFFCFFFEFFFEFFFEFFFEFFFEFFFEFF89
:10157E00FEFFFEFFFEFFFEFFFEFFFEFFFEFFFEFF75
:10158E00FEFFFEFFFEFFFEFFFEFFFEFFFEFFFEFF65
:10159E00FEFFFEFFFEFFFEFFFEFFFEFFFEFFFEFF55
:1015AE00FEFFFEFFFEFFFEFFFEFFFEFFFEFFFEFF45
:1015BE00FEFFFEFFFEFFFEFFFEFF9EFF9EFFDEFF15
:1015CE00DEFFEEFFEEFFF6FFF6FFFAFFFAFFFCFF7F
:1015DE00FCFFFEFFFEFFFEFFFEFFFEFFFEFFFEFF17
:1015EE00FEFFFEFFFEFFFEFFFEFFFEFFFEFBFEFB0D
:1015FE00FEFBFEFBFEFFFEFFFEFFFEFDFEFFFEFE00
:10160E00FEFEFEFEFEFEFEFFFEFF7EFF7EFF7EFF67
:10161E007EFF7EFF7EFFFEFFBEFFBEFFBEFFBEFF54
:10162E00BEFFBEFFBEFFBEFFFEFFDEFFDEFFFEFF04
:10163E00FEFFFEFFEEFFFEFFFEFFF6FFFEFFFAFFD0
:10164E00FEFFFEFFFEFFFEFFFEFFFEFFFEFFFEFFA4
:10165E00FEFFFEFFFEFFFEFFFEFFFEFFFEFFFEFF94
:10166E00FEFBFEFBFEFBFEF9FEFDFEFDFEFDFEFF9C
:10167E00FEFEFEFEFEFEFEFFFEFFFEFFFEFF7EFFF7
:10168E007EFF7EFF7EFFFEFFBEFFBEFFBEFFBEFFE4
:10169E00BEFFBEFFBEFFBEFFFEFFDEFFDEFFDEFFB4
:1016AE00DEFFFEFFEEFFFEFFFEFFFEFFFEFFFEFF74
:1016BE00FEFFFEFFFEF7FEF7FEF7FEF7FEF7FEF764
:1016CE00FEFFFEFFFEFFFEFFFEFBFEFBFEFBFEFF30
:1016DE00FEFFFEFDFEFDFEFDFEFDFEFDFEFFFEFE1F
:1016EE00FEFEFEFEFEFEFEFFFEFF7EFF7EFF7EFF87
:1016FE007EFF7EFF7EFFFEFFBEFFBEFFBEFFBEFF74
:10170E00BEFFBEFFBEFFBEFFFEFFDEFFDEFFFEFF23
:10171E00FEFFFEFFEEFFFEF7FEF7F6F7FEF7FAF717
:10172E00FEF7FEF7FEF7FEF7FEF7FEF7FEF7FEF703
:10173E00FEF7FEF7FEF7FEF7FEFFFEFFFEFFFEFFD3
:10174E00FEFBFEFBFEFBFEF9FEFDFEFDFEFDFEFFBB
:10175E00FEFEFEFEFEFEFEFFFEFFFEFFFEFF7EFF16
:10176E007EFF7EFF7EFFFEFFBEFFBEFFBEF7BEF713
:10177E00BEF7BEF7BEF7BEF7FEF7DEF7DEF7DEF713
:10178E00DEF7FEF7EEF7FEF7FEF7FEF7FEF7FEF7D3
:10179E00FEF7FEF7FEF7FEF7FEF7FEF7FEFFFEFF83
:1017AE00FEFFFEFFFEF7FEFFFEFBFEFBFEFBFEFB5B
:1017BE00FEFBFEFBFEFBFEFBFEFBFEFFFEFFFEFE48
:1017CE00FEFEFEFEFEFAFEFBFEFB7EFB7EFB7EFBBE
:1017DE007EFF7EFF7EFFFEFFBEFFBEFBBEFFBEFF97
:1017EE00BEFFBEFFBEFFBEFFFEFFDEFFDEFFFEF74B
:1017FE00FEF7FEF7EEF7FEF7FEF7F6F7FEF7FAF74F
:10180E00FEF7FEF7FEF7FEF7FEF7FEF7FEF7FEF722
:10181E00FEF7FEF7FEF7FEF7FEF7FEF7FEF7FEF712
:10182E00FEF3FEF3FEF3FEF1FEFDFEFDFEFDFEFFFA
:10183E00FEF6FEF6FEF6FEF7FEF7FEF7FEF77EF775
:10184E007EF77EF77EFFFEFFBEFFBEFFBEF7BEF742
:10185E00BEF7BEF7BEF7BEF7FEF7DEF7DEF7DEF732
:10186E00DEF7FEF7EEF7FEF7FEF7FEF7FEF7FEF7F2
:10187E00FEF7FEF7FEF7FEF7FEF7FEF7FEF7FEF7B2
:10188E00FEFFFEFFFEFFFEFFFEFBFEFBFEFBFEFF6E
:10189E00FEFFFEFDFEFDFEFDFEFDFEFDFEFFFEFE5D
:1018AE00FEFEFEFEFEFEFEFFFEFF7EFF7EFF7EFFC5
:1018BE007EFF7EFF7EFFFEFFBEFFBEFFBEFFBEFFB2
:1018CE00BEFFBEFFBEFFBEFFFEFFDEFFDEFFFEFF62
:1018DE00FEFFFEFFEEFFFEF7FEF7F6F7FEF7FAF756
:1018EE00FEF7FEF7FEF7FEF7FEF7FEF7FEF7FEF742
:1018FE00FEF7FEF7FEF7FEF7FEFFFEFFFEFFFEFF12
:10190E00FEFBFEFBFEFBFEF9FEFDFEFDFEFDFEFFF9
:10191E00FEFEFEFEFEFEFEFFFEFFFEFFFEFF7EFF54
:10192E007EFF7EFF7EFFFEFFBEFFBEFFBEF7BEF751
:10193E00BEF7BEF7BEF7BEF7FEF7DEF7DEF7DEF751
:10194E00DEF7FEF7EEF7FEF7FEF7FEF7FEF7FEF711
:10195E00FEF7FEF7FEFFFEFFFEFFFEFFFEFFFEFFA1
:10196E00FEFFFEFFFEFFFEFFFEFFFEFFFEFBFEFB89
:10197E00FEFBFEFBFEFFFEFFFEFFFEFDFEFFFEFE7C
:10198E00FEFEFEFEFEFEFEFFFEFF7EFF7EFF7EFFE4
:10199E007EFF7EFF7EFFFEFFBEFFBEFFBEFFBEFFD1
:1019AE00BEFFBEFFBEFFBEFFFEFFDEFFDEFFFEFF81
:1019BE00FEFFFEFFEEFFFEFFFEFFF6FFFEFFFAFF4D
:1019CE00FEFFFEFFFEFFFEFFFEFFFEFFFEFFFEFF21
:1019DE00FEFFFEFFFEFFFEFFFEFFFEFFFEFFFEFF11
:1019EE00FEFBFEFBFEFBFEF9FEFDFEFDFEFDFEFF19
:1019FE00FEFEFEFEFEFEFEFFFEFFFEFFFEFF7EFF74
:101A0E007EFF7EFF7EFFFEFFBEFFBEFFBEFFBEFF60
:101A1E00BEFFBEFFBEFFBEFFFEFFDEFFDEFFDEFF30
:101A2E00DEFFFEFFEEFFFEFFFEFFFEFFFEFFFEFFF0
:101A3E00FEFFFEFFFEFFFEFFFEFFFEFFFEFFFEFFB0
:101A4E00FEFFFEFFFEFFFEFFFEFFFEFFFEFFFEFFA0
:101A5E00FEFFFEFFFEFFFEFFFEFFFEFFFEFFFEFF90
:101A6E00FEFFFEFFFEFFFEFFFEFFFEFFFEFFFEFF80
:101A7E00FEFFFEFFFEFFFEFFFEFFFEFFFEFFFEFF70
:101A8E00FEFFFEFFFEFFFEFFFEFFFEFF9EFFBEFF00
:101A9E00DEFFDEFFEEFFEEFFF6FFF6FFFAFFFAFFC8
:101AAE00FCFFFCFFFEFFFEFFFEFFFEFFFEFFFEFF44
:101ABE00FEFFFEFFFEFFFEFFFEFFFEFFFEFFFEFF30
:101ACE00FEFFFEFFFEFFFEFFFEFFFEFFFEFFFEFF20
:101ADE00FEFFFEFFFEFFFEFFFEFFFEFFFEFFFEFF10
:101AEE00FEFFFEFFFEFFFEFFFEFFFEFFFEFFFEFF00
:101AFE00FEFFFEFFFEFFFEFFFEFF9EFF9EFFDEFFD0
:101B0E00DEFFEEFFEEFFF6FFF6FFFAFFFAFFFCFF39
:101B1E00FCFFFEFFFEFFFEFFFEFFFEFFFEFFFEFFD1
:101B2E00FEFFFEFFFEFFFEFFFEFFFEFFFEFFFEFFBF
:101B3E00FEFFFEFFFEFFFEFFFEFFFEFFFEFFFEFFAF
:101B4E00FEFFFEFFFEFFFEFFFEFFFEFFFEFFFEFF9F
:101B5E00FEFFFEFFFEFFFEFFFEFFFEFFFEFFFEFF8F
:101B6E00FEFFFEFFFEFFFEFFFEFFFEFFFEFFFEFF7F
:101B7E00FEFFFEFFFEFFFEFFFEFFFEFFFEFFFEFF6F
:101B8E00FEFFFEFFFEFFFEFFFEFFFEFFFEFFFEFF5F
:101B9E00FEFFFEFFFEFFFEFFFEFFFEFFFEFFFEFF4F
:101BAE00FEFFFEFFFEFFFEFFFEFFFEFFFEFFFEFF3F
:101BBE00FEFFFEFFFEFFFEFFFEFFFEFFFEFFFEFF2F
:101BCE00FEFFFEFFFEFFFEFFFEFFFEFFFEFFFEFF1F
:101BDE00FEFFFEFFFEFFFEFFFEFFFEFFFEFFFEFF0F
:101BEE00FEFFFEFFFEFFFEFFFEFFFEFFFEFFFEFFFF
:101BFE00FEFFFEFFFEFFFEFFFEFFFEFFFEFFFEFFEF
:101C0E00FEFFFEFFFEFFFEFFFEFFFEFFFEFFFEFFDE
:101C1E00FEFFFEFFFEFFFEFFFEFFFEFFFEFFFEFFCE
:101C2E00FEFFFEFFFEFFFEFFFEFFFEFFFEFFFEFFBE
:101C3E00FEFFFEFFFEFFFEFFFEFFFEFFFEFFFEFFAE
:101C4E00FEFFFEFFFEFFFEFFFFFFFFFFFFFFFFFF9A
:101C5E00FFFFFFFFFFFFFFFFFFFFFFFFFFFFFEFF87
:101C6E00FFFFFEFFFEFFFEFFFEFFFEFFFEFFFEFF7D
:101C7E00FEFFFEFFFEFFFEFFFEFFFEFFFEFFFEFF6E
:101C8E00FEFFFEFFFEFFFEFFFEFFFEFFFEFFFEFF5E
:101C9E00FEFFFEFFFEFFFEFFFEFFFEFFFEFFFEFF4E
:101CAE00FEFFFEFFFEFFFEFFFEFFFEFFFEFFFEFF3E
:101CBE00FEFFFEFFFEFFFEFFFEFFFEFFFEFFFFFF2D
:101CCE00FFFFFFFFFFFFFFFFFFFFFFFFFFFFFFFF16
:101CDE00FFFFFFFFFFFFFEFFFEFFFEFFFEFFFEFF0B
:101CEE00FEFFFEFFFEFFFEFFFEFFFEFFFEFFFEFFFE
:101CFE00FEFFFEFFFEFFFEFFFEFFFEFFFEFFFEFFEE
:101D0E00FEFFFEFFFEFFFEFFFEFFFEFFFEFFFEFFDD
:101D1E00FFFFFFFFFFFFFFFFFFFFFFFFFFFFFFFFC5
:101D2E00FFFFFFFFFFFFFFFFFFFFFFFFFFFFFFFFB5
:101D3E00FFFFFFFFFFFFFFFFFFFFFEFFFEFFFEFFA8
:101D4E00FEFFFEFFFEFFFEFFFEFFFEFFFEFFFEFF9D
:101D5E00FEFFFEFFFEFFFEFFFEFFFEFFFEFFFEFF8D
:101D6E00FEFFFEFFFEFFFEFFFEFFFEFFFEFFFEFF7D
:101D7E00FEFFFEFFFFFFFEFFFFFFFFFFFFFFFFFF68
:101D8E00FFFFFFFFFFFFFFFFFFFFFFFFFFFFFFFF55
:101D9E00FFFFFFFFFFFFFFFFFFFFFFFFFFFFFFFF45
:101DAE00FFFFFFFFFFFFFFFFFFFFFFFFFFFFFFFF35
:101DBE00FFFFFFFFFFFFFEFFFEFFFEFFFEFFFEFF2A
:101DCE00FEFFFEFFFEFFFEFFFEFFFEFFFEFFFEFF1D
:101DDE00FEFFFEFFFFFFFFFFFFFFFFFFFFFFFFFF07
:101DEE00FFFFFFFFFFFFFFFFFFFFFFFFFFFFFFFFF5
:101DFE00FFFFFFFFFFFFFFFFFFFFFFFFFFFFFFFFE5
:101E0E00FFFFFFFFFFFFFFFFFFFFFFFFFFFFFFFFD4
:101E1E00FFFFFFFFFFFFFFFFFFFFFFFFFFFFFFFFC4
:101E2E00FFFFFFFFFEFFFEFFFEFFFEFFFEFFFEFFBA
:101E3E00FEFFFEFFFEFFFEFFFEFFFEFFFEFFFEFFAC
:101E4E00FEFFFEFFFFFFFFFFFFFFFFFFFFFFFFFF96
:101E5E00FFFFFFFFFFFFFFFFFFFFFFFFFFFFFFFF84
:101E6E00FFFFFFFFFFFFFFFFFFFFFFFFFFFFFFFF74
:101E7E00FFFFFFFFFFFFFFFFFFFFFFFFFFFFFFFF64
:101E8E00FFFFFFFFFFFFFFFFFFFFFFFFFFFFFFFF54
:101E9E00FFFFFFFFFFFFFFFFFFFFFFFFFFFFFFFF44
:101EAE00FFFFFFFFFFFFFFFFFFFFFFFFFFFFFFFF34
:101EBE00FFFFFFFFFFFFFFFFFFFFFFFFFFFFFFFF24
:101ECE00FFFFFFFFFFFFFFFFFFFFFFFFFFFFFFFF14
:101EDE00FFFFFFFFFFFFFFFFFFFFFFFFFFFFFFFF04
:101EEE00FFFFFFFFFFFFFFFFFFFFFFFFFFFFFFFFF4
:101EFE00FFFFFFFFFFFFFFFFFFFFFFFFFFFFFFFFE4
:101F0E00FFFFFFFFFFFFFFFFFFFFFFFFFFFFFFFFD3
:101F1E00FFFFFFFFFFFFFFFFFFFFFFFFFFFFFFFFC3
:101F2E00FFFFFFFFFFFFFFFFFFFFFFFFFFFFFFFFB3
:101F3E00FFFFFFFFFFFFFFFFFFFFFFFFFFFFFFFFA3
:101F4E00FFFFFFFFFFFFFFFFFFFFFFFFFFFFFFFF93
:101F5E00FFFFFFFFFFFFFFFFFFFFFFFFFFFFFFFF83
:101F6E00FFFFFFFFFFFFFFFFFFFFFFFFFFFFFFFF73
:101F7E00FFFFFFFFFFFFFFFFFFFFFF7FFE3FFE1F85
:101F8E00FE0FF607F603F601B600B600B601B6036D
:101F9E00F607F60FF61FFE3FFE7FFEAFFEAFFEBF4B
:101FAE00FABFFAFFEAFFEAFFABFFABFEAFFEAFFAF6
:101FBE00BFFABFEAFFEAFFABFFABFFFFFFF0FFE0A8
:101FCE007FC03FC01FC00FE007F003F003E007C063
:101FDE000FC01FC03FE07FF0FFFFFFFF7FFFBFFF7F
:101FEE00DFFFEFFFF7FFFBFFFDFFFEFFFDFFFBFF38
:101FFE00F7FFEFFFDFFFBFFF7FFEFFFFFFFFDFFFFC
:10200E00DFFFDFFFDFFFDFFFDFFFDFFFDFFBDEFDD9
:0B201E00DDFEDBFF57FF8FFFDFFFFF41
:0637730001680A01670075
:10351E00758901758CEEE4F58AD2AFD2A9D28CD220
:10352E009012378C7F811236508F637F8312365004
:10353E008F667F851236508F657F871236508F6467
:10354E007F891236508F617F8D1236508F62E564FF
:10355E00C3942050287F8D123650EFB5621F7F899D
:10356E00123650EFB561167F87123650EFB5640DE7
:10357E00E4F5A07FF47E0112372D75A0FF20950390
:10358E0012294830B1047F0180027F003095047EFD
:10359E000180027E00EE5F60031220293095047FC9
:1035AE000180027F0020B1047E0180027E00EE5F6A
:0635BE006003123322221B
:03000B000236C8F2
:1036C800C0E0C0D0758CEE758A000567E567B4C8A0
:1036D800050563756700E563B43C05056675630019
:0F36E800E566B43C050565756600D0D0D0E032CC
:102E5300FFFFFFFFFFFFFFFFFFFFFF2020FFFFFF3D
:102E6300FFF8F8FFF8F8FFFFEBFBA0EBA0EBEBFF9D
:102E7300D1D580D580D5C5FF389AC8E713591CFF33
:102E83009966766696996FFFFFFFF8F8FFFFFFFFDD
:102E9300FFFFC3BD7EFFFFFFFFFFFF7EBDC3FFFF3D
:102EA300FFD5F7C1F7D5FFFFFFF7F7C1F7F7FFFF2F
:102EB300FFFF7F8FCFFFFFFFFFF7F7F7F7F7FFFF67
:102EC300FFFFFFFFFF9F9FFFFF3F9FCFE7F3F9FF49
:102ED300FFC3BD7E7EBDC3FFFFFF7D7D007F7FFF00
:102EE300FF7D3E5E6E7679FFFF6D6D6D6D6D01FF4B
:102EF300EFE7EBED00EFEFFFFF616D6D6D6D0DFF24
:102F0300836D767676768FFFFFFE1EEEF6FAFCFF74
:102F1300FF817676767681FFFF616E6E6E6E81FF3E
:102F2300FFFF2727FFFFFFFFFF7F1393FFFFFFFF36
:102F3300FFFFE7DBBD7EFFFFFFDBDBDBDBDBDBFF75
:102F4300FFFF7EBDDBE7FFFFFFFDFE4EF6F9FFFF50
:102F5300C3BD665A5A465DC33FCFD3DCD3CF3FFFD1
:102F6300FF80B6B6B6B6C9FFE3DDBEBEBEBEDDFFAB
:102F7300FF80BEBEBEDDE3FFFF80B6B6B6B6BEFFC2
:102F8300FF80F6F6F6F6FEFFE3DDBEBEBEBE8DEFB6
:102F9300FF80F7F7F7F780FFFFFFBE80BEFFFFFF5D
:102FA300FFDFBFBE80FEFFFFFF80F7EBDDBEBEFF8E
:102FB300FF80BFBFBFBFFFFF80FDE39FE3FD80FF37
:102FC30080FDFBF7EFDF80FFE3DDBEBEBEDDE3FF89
:102FD300FF00EEEEEEEEF1FFE3DDBEBEAEDDA3BF1E
:102FE300FF80F6F6E6D6B9FFFFB9B6B6B6B6CEFFA2
:102FF300FEFEFE80FEFEFEFFFFC0BFBFBFBFC0FFE1
:10300300FFF0CFBFBFCFF0FFE09FE7F9E79FE0FFFF
:10301300BEDDEBF7EBDDBEFFF8F7EF1FEFF7F8FFD1
:10302300FFBE9EAEB6BABCFFFFFF007E7E7EFFFFF3
:10303300FEFDFBF7EFDFBF7FFFFF7E7E7E00FFFF1E
:10304300FFFBFDFEFDFBFFFF7F7F7F7F7F7F7F7F9A
:10305300FFFFFCFCFFFFFFFFFFC7B6B6B6B681BF9D
:10306300FF80B7B7B7B7CFFFE7DBBDBDBDFFFFFF3E
:10307300FFCFB7B7B780FFFFFFC3B5B5B5B5F3FF54
:10308300FFF77701F6F5FFFFFFB176767681FFFF55
:10309300FF00EFF7F70FFFFFFFF7FB027FBFFFFF15
:1030A300FF3F7F7F02FFFFFFFF01DFAF77FFFFFFE0
:1030B300FFFFFF007FFFFFFF87FBFB87FBFB87FF14
:1030C300FF87FBFBFB87FFFFFFC7BBBBBBC7FFFF45
:1030D300FF01EDEDF3FFFFFFFFF3EDED017FFFFFD9
:1030E300FFFD01F7FBFDFDFFFF736D6D6D9DFFFFA1
:1030F300FFF7F7017777B7FFFFC1BFBFBF81BFFFFF
:10310300F7E7DF3FDFE7F7FFC7BFDFE7DFBFC7FF54
:10311300FFBBD7EFD7BBFFFFFFBEBDDBE7FBFDFE6A
:10312300FFBB9BABB3BBFFFFFFEF117D7DFFFFFF3A
:10313300FFFFFF00FFFFFFFFFFFFFF7D7D11EFFF9D
:10314300F7FBFBF7EFEFF7FF7A686979755F6C6957
:103153006E7368656E6779692C71713A37333138EC
:1031630030313738392C71715F71756E3A353430BF
:103173003431383132322E0031323A33343A353643
:10318300002031362D323620200031323A33343AA2
:03319300353600CE
:1037790001630001661B0165060164200161060100
:023789006212CA
:0B379900EF1FAC0670011E4C70F62202
:0937240012372D7580FF7FF40EB1
:10372D00E4FDFCC3ED9FEC9E5015E4FBFA0BBB00D2
:0F373D00010AEB647A4A70F50DBD00010C80E4BF
:01374C00225A
:10369700C2B5C2B3D2B5E4FBC2B3AE07EE1392B460
:1036A700EFC313FFD2B30BBB08EEE4FBC2B3AE0507
:1036B700EE1392B4EDC313FDD2B30BBB08EEC2B544
:0136C70022E0
:0D378C00C2B5C2B3C2B47D807F8E023697F5
:10365000E4FEC2B5C2B3D2B5FDC2B3AB07EB139261
:10366000B4EFC313FFD2B30DBD08EEE4FD30B405D3
:10367000430680800353067FD2B3EEC313FEC2B36A
:103680000DBD08E9C2B5EEC4540FFFEE540FFEEFB6
:0636900075F00AA42EFFF4
:013696002211
:0A37A400D2AFE4F5E7F5E5F5E62203
:10374D0090000EE493FC7401932FFFEC3EFE75E7A1
:10375D008175E5018FE4F5E3C2AF75E64675E6B90F
:05376D00AFE21237A4D9
:013772002234
:1036F70078317C007D007BFF7A31794B7E007F300B
:10370700123266E4FDFBEDFF7E0012374D74312D5A
:0C371700F8E66F60010B0DBD2EECAF0357
:013723002283
:04345300AD68AF1A97
:043457008F2D8D2EFA
:10345B00E4F52FF5301236F7EF6003023509F52F3F
:10346B00E52DC394085012AF2D7401A807088002F4
:10347B00C333D8FCF4F5808013E52D24F8FF7401D9
:10348B00A807088002C333D8FCF4F5A07F037E00A5
:10349B0012372DE52ED39408501EE4F530E530C3DA
:1034AB00952E5038AF307401A807088002C333D86B
:1034BB00FCF45280053080E5E4F580F530E52E24F0
:1034CB00F8FFE530C39F5014AF307401A807088094
:1034DB0002C333D8FCF452A0053080E17F0A7E0092
:1034EB0012379975A0FF7580FF7F067E0012372D6E
:1034FB00052FE52FC39442500302346B800BC2900F
:10350B00C2B27F307E7512372D30B7FD7F0A7E0039
:03351B0002372D47
:10294800E4F50AF50BF50DF50EF50F78107C00FD92
:102958007BFF7A31797BFE7F091232667519007523
:102968001A00751B10781C7C007D007BFF7A31797A
:10297800847E007F0912326675250075260075274A
:102988001CD2B2D2B77FF47E0112372D7580FE7F3C
:10299800C81E12372D7580FF12372D7580FE12372D
:1029A80024E56575F00A842430F510E56575F00AAC
:1029B80084E5F02430F511E56675F00A842430F5D5
:1029C80013E56675F00A84E5F02430F514E56375BF
:1029D800F00A842430F516E56375F00A84E5F024DE
:1029E80030F517E56175F00A842430F51DE5617549
:1029F800F00A84E5F02430F51EE56475F00A8424B5
:102A080030F520E56475F00A84E5F02430F52120DE
:102A1800B7247F0A7E0012372D20B71A050EE4F579
:102A28000FF50D90001F93FDE50EC39D4003E4F5DF
:102A38000EAF0E12345730B2030229A97F0A7E0066
:102A480012372D30B2030229A9050F7F3512372D11
:102A5800E4F508F509900021E493FD75F010A4FF52
:102A6800C3E5099FE50895F04003022E06EDC4333F
:102A780054E0850DF0A4FDACF0E50925E0FFE5087C
:102A880033FEED2FF50BEC3EF50AE50E0414B410F9
:102A9800004003022D8C902AAC75F003A4C5832551
:102AA800F0C58373022D16022ADC022B02022B28A2
:102AB800022B4E022B74022B9A022BC0022BE60229
:102AC8002C0C022C32022C58022C7E022CA3022C35
:102AD800C8022CED743D250BF5827400350AF58388
:102AE800E493F580743E250BF5827400350AF5836E
:102AF800E493F5A0900010022D1074BD250BF5820B
:102B08007400350AF583E493F58074BE250BF582CD
:102B18007400350AF583E493F5A0900011022D1096
:102B2800743D250BF5827401350AF583E493F5802D
:102B3800743E250BF5827401350AF583E493F5A0FC
:102B4800900012022D1074BD250BF5827401350A10
:102B5800F583E493F58074BE250BF5827401350A7C
:102B6800F583E493F5A0900013022D1074BD250B96
:102B7800F5827403350AF583E493F58074BE250B5A
:102B8800F5827403350AF583E493F5A090001402E6
:102B98002D10743D250BF5827404350AF583E493F2
:102BA800F580743E250BF5827404350AF583E493A9
:102BB800F5A0900015022D1074BD250BF582740444
:102BC800350AF583E493F58074BE250BF582740409
:102BD800350AF583E493F5A0900016022D10743D94
:102BE800250BF5827405350AF583E493F580743E68
:102BF800250BF5827405350AF583E493F5A090005A
:102C080017022D1074BD250BF5827405350AF5835E
:102C1800E493F58074BE250BF5827405350AF583B7
:102C2800E493F5A0900018022D10741D250BF58271
:102C38007406350AF583E493F580741E250BF58236
:102C48007406350AF583E493F5A0900019022D1057
:102C5800741E250BF5827406350AF583E493F58016
:102C6800741F250BF5827406350AF583E493F5A0E5
:102C780090001A022D10741F250BF5827406350A70
:102C8800F583E493F5807420250BF5827406350AE4
:102C9800F583E493F5A090001B806D7420250BF557
:102CA800827406350AF583E493F5807421250BF5C3
:102CB800827406350AF583E493F5A090001C8048D9
:102CC8007421250BF5827406350AF583E493F580A3
:102CD8007422250BF5827406350AF583E493F5A072
:102CE80090001D80237422250BF5827406350AF5A1
:102CF80083E493F5807423250BF5827406350AF571
:102D080083E493F5A090001EE493F50C8076750C8F
:102D1800047E00E5095407FFAB19AA1AA91B123251
:102D28008C75F008A42FF582EE35F0F583E5822442
:102D380053F582E583342DF583E493F580E5095452
:102D480007FFAB25AA26A92712328C75F008A42FF5
:102D5800F582EE35F0F583E5822453F582E5833478
:102D68002DF583E493F5A0E509540764077015046D
:102D7800251BF51BE4351AF51A74012527F527E4F8
:102D88003526F5267F647E00123799900021E4935A
:102D9800FDC43354E0850DF0A4FBE50925E0FFE50B
:102DA8000833FEEB2FFFE5F03ECF2402FBE43FFAA9
:102DB800E50C75F020A4FFC3EB9FEA95F040349032
:102DC8000020E493FFE50F9F4005E4F50FF50DEDB6
:102DD80075F010A4AEF024FFF509EE34FFF5087580
:102DE8001900751A00751B107525007526007527C2
:102DF8001C800B0509E50970020508022A5D900090
:102E080021E493C43354E0850DF0A4FDE50925E0E1
:102E1800FFE50833FEED2FFFE5F03ECF2402FDE489
:102E28003FFCE50C75F020A4FFC3ED9FEC95F04046
:102E3800030229A9900020E493FFE50FC39F5003E4
:0B2E48000229A9E4F50F050D0229A9DD
:102029007508037509E8E4F50AF50BF50CF50DF5E6
:102039000EF50FF510F511F512F513F514F515F563
:1020490016F517F51AF51BF51C781D7C00FD7BFFAD
:102059007A31798DFE7F09123266E4F526752746B5
:1020690075280EF529752A00752B1DF52C7FC8FEDC
:1020790012372D7580EF12372D7580FF12372D75A8
:1020890080EF1237240515E5157002051420B720D5
:10209900051AE51AC395684003E4F51A123453E4A6
:1020A900F50EF50FF510F511F516F517F512F513EF
:1020B900E56575F00A842430F51DE56575F00A8437
:1020C900E5F02430F51EE56675F00A842430F52024
:1020D900E56675F00A84E5F02430F521E56375F0CD
:1020E9000A842430F523E56375F00A84E5F0243089
:1020F900F524E51AC3940240030222D820900E85E4
:102109001408851509E4F514F5153090FD0515E554
:1021190015700205147F3C7E00123799AE14AF1575
:10212900E4FCFD7BDC7AFFF9F8C312330C50067529
:1021390014EA751560AE08AF097C007D0F1232A54F
:10214900AA06AB07AE14AF157D3B1232A5AD03ACA1
:10215900021232B78C0A8D0BAE08AF097C007D05DF
:102169001232A5AA06AB07AE14AF157D3B1232A5F4
:10217900AD03AC021232B78C0C8D0DD3E50D943C36
:10218900E50C940050087580FE75A0FF800675A0C7
:10219900FF7580FFD3E50B943CE50A940050035387
:1021A90080F8AE14AF157C007D3B1232A58E0A8FE4
:1021B9000BAF637E00AC08AD091232A58E0C8F0DF2
:1021C90020B720051AE51AC395684003E4F51A12E9
:1021D9003453E4F50EF50FF510F511F516F517F56D
:1021E90012F513E51A64016003022276E50D24E273
:1021F900FFE50C34FFFED3E50B9FE50A9E4018E589
:102209000D241EFFE4350CFEC3E50B9FE50A9E5025
:102219000675A000538003AE14AF157C007D3B12F8
:1022290032A5AC08AD091232B78E0C8F0DE566B533
:102239000D09E4B50C05F5A053801FE56575F00C93
:1022490084E5F075F005A4FFAEF0E56675F00C8441
:102259007C002FF50BEC3EF50AE50D650B7004E5E6
:102269000C650A60030220FBF5A00220FBAE14AF47
:10227900157C007D3B1232A5AC08AD091232B7D3EB
:10228900EF9563EE940050035380EF8E0C8F0DD3BE
:10229900E50D9566E50C9400500353807FE565755F
:1022A900F00C84E5F075F005A4FFAEF0E56675F075
:1022B9000C847C002FF50BEC3EF50AD3E50D950B4C
:1022C900E50C950A40030220FB53A0FB0220FBE525
:1022D9001A0424FDB40E0040030227349022F3753A
:1022E900F003A4C58325F0C5837302231D02236D62
:1022F90002239F0223EB0224370224830224CF0204
:10230900251B0225670225B30225FF02264B02265B
:10231900970226E2752602AB29AA2AA92B12328C2A
:1023290075F008A42513F582E5F03512F583E582E9
:102339002453F582E583342DF583E493F580051361
:10234900E51370020512C39408E5129400500302C4
:102359002734E4F512F51304252BF52BE4352AF57A
:102369002A022734752603751802751900E5112507
:102379000FFFE510350EFE74BD2FF58274013EF591
:1023890083E493F58074BE2FF58274013EF583E4EE
:1023990093F5A0022734E511250FFFE510350EFE50
:1023A90075F0E0E51CA42423F582E5F03406F583F5
:1023B900E5822FF582E5833EF583E493F5A075F078
:1023C900E0E51CA42424F582E5F03406F583E582D2
:1023D9002FF582E5833EF583E493F5809000220290
:1023E900272BE511250FFFE510350EFE75F0E0E509
:1023F9001CA42403F582E5F03407F583E5822FF563
:1024090082E5833EF583E493F5A075F0E0E51CA42D
:102419002404F582E5F03407F583E5822FF582E59A
:10242900833EF583E493F58090002402272BE51180
:10243900250FFFE510350EFE75F0E0E51CA4248399
:10244900F582E5F0340AF583E5822FF582E5833ECE
:10245900F583E493F5A075F0E0E51CA42484F582E6
:10246900E5F0340AF583E5822FF582E5833EF583AD
:10247900E493F58090002602272BE511250FFFE54F
:1024890010350EFE75F0E0E51CA42403F582E5F095
:10249900340EF583E5822FF582E5833EF583E493D7
:1024A900F5A075F0E0E51CA42404F582E5F0340EEE
:1024B900F583E5822FF582E5833EF583E493F58084
:1024C90090002802272BE511250FFFE510350EFE98
:1024D90075F0E0E51CA424A3F582E5F03410F5833A
:1024E900E5822FF582E5833EF583E493F5A075F047
:1024F900E0E51CA424A4F582E5F03410F583E58217
:102509002FF582E5833EF583E493F58090002A0256
:10251900272BE511250FFFE510350EFE75F0E0E5D7
:102529001CA42483F582E5F03411F583E5822FF5A7
:1025390082E5833EF583E493F5A075F0E0E51CA4FC
:102549002484F582E5F03411F583E5822FF582E5DF
:10255900833EF583E493F58090002C02272BE51147
:10256900250FFFE510350EFE75F0E0E51CA4248368
:10257900F582E5F0341FF583E5822FF582E5833E88
:10258900F583E493F5A075F0E0E51CA42484F582B5
:10259900E5F0341FF583E5822FF582E5833EF58367
:1025A900E493F58090002E02272BE511250FFFE516
:1025B90010350EFE75F0E0E51CA42484F582E5F0E3
:1025C900341FF583E5822FF582E5833EF583E49395
:1025D900F5A075F0E0E51CA42485F582E5F0341F2B
:1025E900F583E5822FF582E5833EF583E493F58053
:1025F90090003002272BE511250FFFE510350EFE5F
:1026090075F0E0E51CA42485F582E5F0341FF58317
:10261900E5822FF582E5833EF583E493F5A075F015
:10262900E0E51CA42486F582E5F0341FF583E582F4
:102639002FF582E5833EF583E493F580900032021D
:10264900272BE511250FFFE510350EFE75F0E0E5A6
:102659001CA42486F582E5F0341FF583E5822FF565
:1026690082E5833EF583E493F5A075F0E0E51CA4CB
:102679002487F582E5F0341FF583E5822FF582E59D
:10268900833EF583E493F58090003402272BE5110E
:10269900250FFFE510350EFE75F0E0E51CA4248733
:1026A900F582E5F0341FF583E5822FF582E5833E57
:1026B900F583E493F5A075F0E0E51CA42488F58280
:1026C900E5F0341FF583E5822FF582E5833EF58336
:1026D900E493F5809000368049E511250FFFE51058
:1026E900350EFE75F0E0E51CA42488F582E5F0348A
:1026F9001FF583E5822FF582E5833EF583E493F5A3
:10270900A075F0E0E51CA42489F582E5F0341FF5F5
:1027190083E5822FF582E5833EF583E493F5809086
:102729000038E493F51BA3E493F52CE51AC394044C
:102739004010E51AD3940F500975260175180075D4
:1027490019E0E526B4012DAF287E00AC16AD1712AD
:1027590032A5EF7803C333CE33CED8F9FBAA06AF3F
:102769002C7E00AC14AD151232A5D3EF9BEE9A5016
:10277900035380FEAF277E001237997580FF75A03D
:10278900FFE52775F00784FF7E00123799E51125CB
:102799000FFFE510350EFEE51924FEFDE51834FF9F
:1027A900FCC3EF9DEE9C500BAB29AA2AA92B123230
:1027B9008C7072752900752A00752B1D75A0FF751F
:1027C90080FF30903420B720051AE51AC395684078
:1027D90003E4F51A123453E4F50EF50FF510F5116B
:1027E900F516F517F512F5137F0A7E0012379905CC
:1027F90013E51370CD051280C9AE12AF137C007DAD
:10280900461232A5EF7803CEC313CE13D8F9FFAD24
:10281900277C001232B7EF2515F515EE3514F5149E
:10282900E4F512F513309026E511250FFFE5103573
:102839000EFEE51924FEFDE51834FFFCC3EF9DEEFD
:102849009C500B7402250FF50FE4350EF50E3090F0
:102859000302208EE52875F008A4FFAEF02401FDDF
:10286900E43EFCD3E5159DE5149C40020527EF24C1
:10287900FFFFEE34FFFEC3E5159FE5149E500215D8
:1028890027E4F514F515F529752A00752B1DF512A0
:10289900F5137580FFE51924FEFFE51834FFFEC323
:1028A900E5119FE5109E400BE4F510F511F516F5BD
:1028B90017800B74022511F511E43510F510E52682
:1028C90064016005E526B40205E4F510F511E4F5A7
:1028D9000EF50F3090FDE526B4033AC3E517947859
:1028E900E5169400501274022517F517E43516F50C
:1028F90016E4F510F5118006751600751778C3747E
:10290900789517FFE49516FEAD277C001232A512C3
:10291900379902208E0517E51770020516C3952C05
:10292900E5169400500302208EE4F516F517051CF0
:0F293900E51C951B500302208EE4F51C02208E36
:10332200E4F508F509F50AF50BF50C750D017FC8F2
:10333200FE12372D75A0FE12372D75A0FF12372D04
:1033420075A0FE12372D75A0FF7FF40E12372DAF38
:103352000CEF3395E0FEEF7805C333CE33CED8F9C8
:10336200FDAC06E50925E0FFE50833FEEF2DFFEE93
:103372003CFE74892FF582741F3EF583E493F5A019
:10338200748A2FF582741F3EF583E493F5807F5A89
:103392007E001237997FC87E001237990509E50928
:1033A2007002050825E0FFE50833FEEF2402FFE482
:1033B2003EFEC3EF9420EE9400400DE4F508F509BB
:1033C200050BE50B7002050A20B739050CE50DB4B3
:1033D2000105E4F50DF50C90003AE493FEFDE50CD1
:1033E200FB3395E0FAC3EB9D7480F86A98400B7545
:1033F2000CFF750D01E4F50AF50BE50C04FFEE0474
:10340200FD123457E50D64016003023351D3E50C1C
:10341200648094805003E4F50CD390003B740193D4
:10342200950BE493950A4003023351E4F50AF50B38
:10343200050C90003A93FFAD0CED3395E0FCC3ED23
:103442009F7480F86C985003023351E4F50C0233F8
:013452005128
:030000000235C402
:0C35C400787FE4F6D8FD75816802360BB4
:10319600E709F608DFFA8046E709F208DFFA803E1B
:1031A60088828C83E709F0A3DFFA8032E309F60808
:1031B600DFFA8078E309F208DFFA807088828C8370
:1031C600E309F0A3DFFA806489828A83E0A3F60824
:1031D600DFFA805889828A83E0A3F208DFFA804CFE
:1031E60080D280FA80C680D4806980F280338010D5
:1031F60080A680EA809A80A880DA80E280CA80333E
:1032060089828A83ECFAE493A3C8C582C8CCC583B5
:10321600CCF0A3C8C582C8CCC583CCDFE9DEE78085
:103226000D89828A83E493A3F608DFF9ECFAA9F004
:10323600EDFB2289828A83ECFAE0A3C8C582C8CC5A
:10324600C583CCF0A3C8C582C8CCC583CCDFEADE73
:10325600E880DB89828A83E493A3F208DFF980CCD5
:1032660088F0EF60010E4E60C388F0ED2402B404CE
:103276000050B9F582EB2402B4040050AF23234575
:0632860082239031E67383
:10328C00BB010689828A83E0225002E722BBFE0240
:09329C00E32289828A83E4932273
:1032A500EF8DF0A4A8F0CF8CF0A428CE8DF0A42E3D
:0232B500FE22F7
:1032B700BC000BBE0029EF8DF084FFADF022E4CCFB
:1032C700F875F008EF2FFFEE33FEEC33FCEE9DECC4
:1032D700984005FCEE9DFE0FD5F0E9E4CEFD22ED0A
:1032E700F8F5F0EE8420D21CFEADF075F008EF2F54
:1032F700FFED33FD4007985006D5F0F222C398FD45
:053307000FD5F0EA22E1
:10330C00EB9FF5F0EA9E42F0E99D42F0EC6480C838
:06331C0064809845F022D8
:1035D00002351EE493A3F8E493A34003F68001F2BE
:1035E00008DFF48029E493A3F85407240CC8C333FC
:1035F000C4540F4420C8834004F456800146F6DFCB
:10360000E4800B0102040810204080903773E47EB0
:10361000019360BCA3FF543F30E509541FFEE493BF
:10362000A360010ECF54C025E060A840B8E493A386
:10363000FAE493A3F8E493A3C8C582C8CAC583CAB1
:10364000F0A3C8C582C8CAC583CADFE9DEE780BE69
:01378B00003D
:00000001FF
