:0A0E6B00C0F9A4B0999282F88090BB
:100CE00002390000013C00014132014050013D0C3D
:100CF000013E0C013B000842C0F9A4B0999282F871
:090D0000014A00013800013F0026
:100DFC00EF1313543F1392A2EFC3131392A1EF13EB
:030E0C0092A0228F
:040D2F007F0A7E00B9
:100D3300E4FDFCC3ED9FEC9E5015E4FBFA0BBB00F6
:0F0D4300010AEB647B4A70F50DBD00010C80E4E2
:010D5200227E
:100E2000438901758CDCE4F58AD2AFD2A9D28C2239
:100C7D00E4FE7D80EDD394004017ED5F6004D2A5B6
:100C8D008002C2A5D2A4000000C2A4EDC313FD8052
:100C9D00E3D2A5D2A4A2A5E433000000C2A4D2A53C
:010CAD00FF47
:010CAE002223
:100CAF00E4FED2A57D80EDD394004010D2A430A5F0
:100CBF0003ED4206C2A4EDC313FD80EAEF24FFB398
:100CCF0092A5D2A4000000C2A4000000D2A5AF06D6
:010CDF0022F2
:100DB600D2A5C2A400D2A400C2A500C2A40000000D
:090DC600D2A400D2A500C2A422AF
:100E0F00D2A5C2A4E4FFD2A4C2A40FBF09F8020D59
:010E1F00B61C
:060B97008B1E8A1F89205D
:100B9D00E4F525F526120DB6E5241460070470184A
:100BAD007F0380027F05120C7DEF3395E0FEEF256C
:100BBD0026F526EE3525F525900000AF82AE83E4AF
:100BCD00FCFD7BFF7AFFF9F8D312043C400630A5FB
:100BDD0003A380E730A5080526E526700205257FCD
:100BED0001120CAFAB1EAA1FA920EF1203FA7F0151
:100BFD00120CAFAB1EAA1FA920900001EF12040C1E
:100C0D00E4FF120CAFAB21AA22A923EF1203FAAF16
:010C1D0026B0
:010C1E0022B3
:0607EB008B1E8A1F89200D
:1007F1001204528F278E268D258C24AB21AA22A983
:10080100231204528F2B8E2A8D298C287F0A7ED7A2
:100811007D237C3CAB2BAA2AA929A828120106E436
:10082100FBFA792078C21200158F378E368D358C00
:10083100347FA27EE77D3B7CB6AB27AA26A925A8FB
:1008410024120106AB27AA26A925A824120106C055
:1008510004C005C006C0077F547EE37D257C3DAB07
:1008610027AA26A925A824120106D003D002D00167
:10087100D000120015E4FBFA798078C01200158FC0
:100881002F8E2E8D2D8C2CE4FBFA79047842AF2724
:10089100AE26AD25AC2412020F8F338E328D318CF2
:1008A10030E4FFFE7DD07C41AB33AA32A931A830C0
:1008B1001202AC60264024E4FBFA79047842AF27A7
:1008C100AE26AD25AC2412020FE4FBFA7980783F05
:1008D1001200158F338E328D318C30E4FFFE7D0492
:1008E1007C42AB33AA32A931A8301202AC60264057
:1008F10024E4FBFA79047842AF27AE26AD25AC2477
:1009010012020FE4FBFA79C0783F1200158F338E83
:10091100328D318C30E4FFFE7D207C42AB33AA3234
:10092100A931A8301202AC60264024E4FBFA790414
:100931007842AF27AE26AD25AC2412020FE4FBFAB4
:10094100794078401200158F338E328D318C30E42E
:10095100FFFE7D487C42AB33AA32A931A830120296
:10096100AC60274025E4FBFA79047842AF27AE2634
:10097100AD25AC2412020F7BCD7ACC796C78401274
:1009810000158F338E328D318C30E4FFFE7D8C7CEF
:1009910042AB33AA32A931A8301202AC60264024FE
:1009A100E4FBFA79047842AF27AE26AD25AC2412D8
:1009B100020FE4FBFA794078401200158F338E3232
:1009C1008D318C30E4FFFE7DB47C42AB33AA32A979
:1009D10031A8301202AC60274025E4FBFA79047893
:1009E10042AF27AE26AD25AC2412020F7BCD7ACCC7
:1009F10079CC783F1200158F338E328D318C30E4F3
:100A0100FFFE7DC87C42AB33AA32A931A830120265
:100A1100AC600D400BE4F533F5327531C8753042E9
:100A21007FCD7ECC7DCC7C3DAB33AA32A931A830C1
:100A31001202AC500C7533CD7532CC7531CC75309A
:100A41003DAF37AE36AD35AC34AB21AA22A9231266
:100A51000472AF33AE32AD31AC30AB1EAA1FA92048
:030A61000204721A
:100A6400E4F51DF51DF52175220075231CF524FB05
:100A74007A007918120B97EF251DF51D7521007565
:100A8400220075231C7524017B007A007914120B53
:100A940097EF251DF51D6003020E0FAC14AD15E490
:100AA40012031E8F178E168D158C14AC18AD19E415
:100AB40012031E8F1B8E1A8D198C18752100752236
:100AC400007523187B007A0079141207EBE4FFFE0B
:100AD4007D807C3FAB1BAA1AA919A8181200151215
:100AE40003578E398F3AE4FFFE7D807CBFAB17AA93
:100AF40016A915A8141200151203578F3CE53CC320
:060B040094524002153C72
:010B0A0022C8
:05000300120008D29775
:0100080022D5
:0A0E4D00D296120003C296020008BC
:0A0E5700C296120003D296020008B2
:080D9800120E4D7FA0120D5355
:100DA000D297120008309609E514C394FA50020550
:060DB00014C297020008C6
:0F0E3000D297120003C297120008C29602000860
:0A0E6100D296120008D29702000892
:100D5300E4FEEF25E0FFC29712000892961200030B
:100D6300C2971200080EBE08E9C297120008D29675
:030D730002000873
:100D0A00C297120008D296120008E4FED297120087
:100D1A0008EF25E0FDA296E4334DFFC297120008C2
:040D2A000EBE08E809
:010D2E0022A2
:0D0E3F00EFD3940040077EC8DEFE1F80F355
:010E4C002283
:100DCF00AC07120D98AF04120D53120DA0AF051200
:080DDF000D53120DA0020E5786
:020D7600AD07C7
:100D7800120D98AF05120D53120DA0120E4D7FA142
:0F0D8800120D53120DA0120D0A120E30120E573B
:010D97002239
:1004E400E4F512F5137580FFD2B7120E0F120E2029
:1004F400E4FF120D768F417F017E00120D33120D41
:10050400768F407F147E00120D3320B223120D2FFC
:1005140020B21DE4F512F538AD41FF120DCF7F0175
:100524007E00120D33AD40120DCF30B2FD120D2FEF
:1005340020B315120D2F20B30F753801751201E485
:10054400F51330B3FD120D2F20B41D120D2F20B45E
:1005540017E512B4010C0513E513C394044003E436
:10056400F51330B4FD120D2F20B64FE5126401705F
:1005740043E51314601214601314601824037016F6
:1005840074F62541F541800E1541800A74F6254024
:10059400F54080021540C3E541648094805003E433
:1005A400F541C3E5406480F8E5416480984005E581
:1005B4004104F54030B6FD120D2F20B54FE512640D
:1005C400017043E5131460121460131460182403BB
:1005D4007016740A2541F541800E0541800A740A9B
:1005E4002540F54080020540D3E540648094E34013
:1005F40003754063C3E5406480F8E5416480984036
:1006040005E54014F54130B5FD120D2FE5126401E6
:1006140060030206EB7544BF7547FFE54175F00AB8
:100624001203D8FF75F00A1203D8AFF0EF3395E048
:10063400FE746B2FF582740E3EF583E493F542E568
:100644004175F00A1203D8AFF0EF3395E0FE746BF6
:100654002FF582740E3EF583E493F543E54075F07F
:100664000A1203D8FF75F00A1203D8AFF0EF3395DE
:10067400E0FE746B2FF582740E3EF583E493F5452A
:10068400E54075F00A1203D8AFF0EF3395E0FE743D
:100694006B2FF582740E3EF583E493F546E53C75C5
:1006A400F00A8475F00A84E5F0900E6B93F548E542
:1006B4003C75F00A84E5F093F549E538B40128E582
:1006C4003FC394645021E51314600F146011146047
:1006D40013240370127542FF800D7543FF80087563
:1006E40045FF80037546FFE512600302079A120A6C
:1006F40064E54175F00A1203D8FF75F00A1203D8B5
:10070400AFF0EF3395E0FE746B2FF582740E3EF577
:1007140083E493F542E54175F00A1203D8AFF0EF94
:100724003395E0FE746B2FF582740E3EF583E493EB
:10073400F5437544BFE54075F00A1203D8FF75F020
:100744000A1203D8AFF0EF3395E0FE746B2FF582F5
:10075400740E3EF583E493F545E54075F00A120303
:10076400D8AFF0EF3395E0FE746B2FF582740E3E34
:10077400F583E493F5467547FFE53C75F00A847507
:10078400F00A84E5F0900E6B93F548E53C75F00AA9
:1007940084E5F093F549AF3C7E00AD41ED3395E03F
:1007A400FCD3ED9F7480F86C984002C290AB40EB90
:1007B4003395E0FAC3EB9FEE6480F8EA64809850C6
:1007C40002D290AF3CD3ED9F7480F86C985012C362
:1007D400EB9F74806A98400920B704C2908002D2CB
:0707E40090120D2F02050E1B
:03000B00020C1FC5
:100C1F00C0E0C0D075D008758CEE758A00054AE526
:100C2F004AC394084003754A007580FFAF4A120DFE
:100C3F00FC7442254AF8E6F580053FE53FC394C8AA
:100C4F004005753F00053BE53BC3943C4005753BB4
:100C5F0000053EE53EC3943C4005753E00053DE56D
:0E0C6F003DC394184003753D00D0D0D0E03254
:030E7500DFFE227B
:100DE700AE07AF061EEF600C7FF5120E757FF5128A
:050DF7000E7580EE22E4
:10000E000203C3E86480F8E933E83360110460F05A
:10001E00ED33EC337009E8FCE9FDEAFEEBFF220458
:10002E0060DED3EB9FEA9EE99DE8C2E78CF0C2F753
:10003E0095F0400CE8CCF8E9CDF9EACEFAEBCFFB1F
:10004E0012038E85D0F05804700320D5B3E80470E7
:10005E00075002B2D50203CD92D5EC0460F7E4CC82
:10006E00C0E0C398F8603B94186008400DD0E0FBE8
:10007E000203A5E4FBFAC9FC8028E830E406E4C9D3
:10008E00FBE4CAFCE830E305E4C9CACBFCE854073C
:10009E006010F8C3E913F9EA13FAEB13FBEC13FC47
:1000AE00D8F130F52FC3E49CFCEF9BFFEE9AFEEDEA
:1000BE0099FDD0E0FBEF4E4D4C701222DB03020394
:1000CE00CAEC2CFCEF33FFEE33FEED33FDED30E7E3
:1000DE00EB0203A5EF2BFFEE3AFEED39FDD0E0FB70
:1000EE0050130BBB00030203CDED13FDEE13FEEF19
:0800FE0013FFEC13FC0203A543
:10010600EC4D6011E8497017ED33EC3304600DE4F3
:10011600FCFFFEFD22E933E8330470F80203C31244
:10012600038E58046009E4CC248150062850090245
:1001360003CD2840030203CAC0E0EB4A7044B980ED
:1001460006D0E0FB0203B9EF4E701CBD8008EBFF42
:10015600EAFEE9FD80EBE98DF0A4FEE5F00201EF91
:10016600E9CDF9EAFEEBFFEF89F0A4FCE5F0CE89D4
:10017600F0A42EFFE435F0CD89F0A42DFEE435F091
:100186008067EF4E7005BD80D780C3EF8BF0A4ACBF
:10019600F0EE8BF0A42CFCE435F0F8EF8AF0A42CFA
:1001A600E5F038FCE433CB8DF0A42CFCE5F03BF80D
:1001B600EE8AF0A42CFCE5F038F8E433CF89F0A4FD
:1001C6002CFCE5F038CF3400CE89F0A42FFFE5F003
:1001D6003EFEE433C98DF0A42EFEE5F039CD8AF05B
:1001E600A42FFFE5F03EFEE43DFD33D0E0FB5007D3
:1001F6000BBB000F0203CDEC2CFCEF33FFEE33FEFE
:06020600ED33FD0203A52B
:10020C000203CDEC5D046005E8590470030203C3DE
:10021C0012038E580460F6EC4860F2EC7004FDFE9C
:10022C00FF22C860DB2481C85009C39860025006C5
:10023C000203CA9850CAF582E9294B4A7005AB8271
:10024C000203B975F0007C1A7880C3EF9BEE9AED2F
:10025C0099400DC3EF9BFFEE9AFEED99FDE842F03D
:10026C00DC23ACF0D0E0FFD0E0FED0E0FDAB822090
:10027C00E7101BEB60BAEC2CFCEF33FFEE33FEED1A
:10028C0033FD0203A5E803F830E705C0F075F00074
:10029C00EF2FFFEE33FEED33FD40B830E7C280AAFE
:1002AC0074F8CC6480CCC86480C8F582046043C305
:1002BC00EB9FF5F0EA9E42F0E99D42F0E89C45F098
:1002CC0060305018E5825FFFE582F42B5582FB50BD
:1002DC00210ABA001D09B90019088016E5825BFBDA
:1002EC00E582F42F5582FF50090EBE00050DBD00AE
:1002FC00010CC3EB9FF5F0EA9E42F0E99D42F0E859
:0D030C009C45F06007CC4820E701B3EC22CF
:1003190075F020800E75F010800575F0087D007E5F
:10032900007F003392D530D50312042EEC334010F0
:10033900EF33FFEE33FEED33FDEC33FCD5F0ED2268
:0E034900E5F0247EA2D513CC92E7CDCEFF22A4
:10035700EDD2E7CD33EC3392D524814006E4FFFE9E
:10036700FDFC22FCE4CFCECDCC24E0501174FF80FD
:10037700EDC3CC13CCCD13CDCE13CECF13CF04709A
:07038700F030D5DE02042E68
:10038E00E9D2E7C933E833F892D5EDD2E7CD33ECB5
:07039E0033FC5002B2D5222E
:1003A500EC30E7100FBF000C0EBE00080DBD0004B9
:1003B5000BEB6014A2D5EB13FCED92E7FD2274FF65
:1003C500FCFDFEFF22E480F8A2D574FF13FC7D80BE
:0303D500E480EFD2
:03000000020B0BE5
:0C0B0B00787FE4F6D8FD75814A020B5299
:1003D800C2D530F707B2D563F0FF05F030E70CB2AD
:1003E800D5F4048463F0FF05F080018430D502F46D
:0203F8000422DD
:1003FA00BB010689828A83F0225002F722BBFE01E2
:02040A00F322DB
:10040C00F8BB010DE58229F582E5833AF583E8F026
:10041C00225006E92582C8F622BBFE05E92582C8D2
:02042C00F222BA
:0E042E00C3E49FFFE49EFEE49DFDE49CFC22DF
:10043C00EB9FF5F0EA9E42F0E99D42F0EC6480C837
:06044C0064809845F022D7
:10045200BB010789828A830204985005E9F80204E5
:100462008CBBFE05E9F80204A489828A830204B0E7
:10047200BB010789828A830204CC5005E9F8020491
:0A048200C0BBFE05E9F80204D82211
:100B17000204E4E493A3F8E493A34003F68001F20C
:100B270008DFF48029E493A3F85407240CC8C333DF
:100B3700C4540F4420C8834004F456800146F6DFAE
:100B4700E4800B0102040810204080900CE0E47E52
:100B5700019360BCA3FF543F30E509541FFEE493A3
:100B6700A360010ECF54C025E060A840B8E493A36A
:100B7700FAE493A3F8E493A3C8C582C8CAC583CA95
:100B8700F0A3C8C582C8CAC583CADFE9DEE780BE4D
:010D090000E9
:0C048C00E6FC08E6FD08E6FE08E6FF229C
:0C049800E0FCA3E0FDA3E0FEA3E0FF22D7
:0C04A400E2FC08E2FD08E2FE08E2FF2294
:1004B000E493FC740193FD740293FE740393FF2292
:0C04C000ECF608EDF608EEF608EFF62268
:0C04CC00ECF0A3EDF0A3EEF0A3EFF022A3
:0C04D800ECF208EDF208EEF208EFF22260
:00000001FF
