BL51 BANKED LINKER/LOCATER V6.00                                                        07/08/2020  17:22:24  PAGE 1


BL51 BANKED LINKER/LOCATER V6.00, INVOKED BY:
E:\KEIL\C51\BIN\BL51.EXE Text1.obj, delay.obj TO 1 RAMSIZE (256)


MEMORY MODEL: SMALL WITH FLOATING POINT ARITHMETIC


INPUT MODULES INCLUDED:
  Text1.obj (TEXT1)
  delay.obj (DELAY)
  E:\KEIL\C51\LIB\C51FPS.LIB (?C?FPADD)
  E:\KEIL\C51\LIB\C51FPS.LIB (?C?FPMUL)
  E:\KEIL\C51\LIB\C51FPS.LIB (?C?FPDIV)
  E:\KEIL\C51\LIB\C51FPS.LIB (?C?FPCMP)
  E:\KEIL\C51\LIB\C51FPS.LIB (?C?FCAST)
  E:\KEIL\C51\LIB\C51FPS.LIB (?C?CASTF)
  E:\KEIL\C51\LIB\C51FPS.LIB (?C?FPGETOPN)
  E:\KEIL\C51\LIB\C51S.LIB (?C_STARTUP)
  E:\KEIL\C51\LIB\C51S.LIB (?C?SCDIV)
  E:\KEIL\C51\LIB\C51S.LIB (?C?CSTPTR)
  E:\KEIL\C51\LIB\C51S.LIB (?C?CSTOPTR)
  E:\KEIL\C51\LIB\C51S.LIB (?C?LNEG)
  E:\KEIL\C51\LIB\C51S.LIB (?C?SLCMP)
  E:\KEIL\C51\LIB\C51S.LIB (?C?LLDPTR)
  E:\KEIL\C51\LIB\C51S.LIB (?C?LSTPTR)
  E:\KEIL\C51\LIB\C51S.LIB (?C_INIT)
  E:\KEIL\C51\LIB\C51S.LIB (?C?LLDIDATA)
  E:\KEIL\C51\LIB\C51S.LIB (?C?LLDXDATA)
  E:\KEIL\C51\LIB\C51S.LIB (?C?LLDPDATA)
  E:\KEIL\C51\LIB\C51S.LIB (?C?LLDCODE)
  E:\KEIL\C51\LIB\C51S.LIB (?C?LSTIDATA)
  E:\KEIL\C51\LIB\C51S.LIB (?C?LSTXDATA)
  E:\KEIL\C51\LIB\C51S.LIB (?C?LSTPDATA)


LINK MAP OF MODULE:  1 (TEXT1)


            TYPE    BASE      LENGTH    RELOCATION   SEGMENT NAME
            -----------------------------------------------------

            * * * * * * *   D A T A   M E M O R Y   * * * * * * *
            REG     0000H     0008H     ABSOLUTE     "REG BANK 0"
            REG     0008H     0008H     ABSOLUTE     "REG BANK 1"
            DATA    0010H     0028H     UNIT         _DATA_GROUP_
            DATA    0038H     0013H     UNIT         ?DT?TEXT1
            IDATA   004BH     0001H     UNIT         ?STACK

            * * * * * * *   C O D E   M E M O R Y   * * * * * * *
            CODE    0000H     0003H     ABSOLUTE     
            CODE    0003H     0006H     UNIT         ?PR?DELAY?TEXT1
                    0009H     0002H                  *** GAP ***
            CODE    000BH     0003H     ABSOLUTE     
            CODE    000EH     04D6H     UNIT         ?C?LIB_CODE
            CODE    04E4H     0307H     UNIT         ?PR?MAIN?TEXT1
            CODE    07EBH     0279H     UNIT         ?PR?_SHTXX_CALC?TEXT1
            CODE    0A64H     00A7H     UNIT         ?PR?COVERT_HT?TEXT1
            CODE    0B0BH     008CH     UNIT         ?C_C51STARTUP
BL51 BANKED LINKER/LOCATER V6.00                                                      07/08/2020  17:22:24  PAGE 2


            CODE    0B97H     0088H     UNIT         ?PR?_SHTXX_MEASURE?TEXT1
            CODE    0C1FH     005EH     UNIT         ?PR?TIMER0_ISR?TEXT1
            CODE    0C7DH     0032H     UNIT         ?PR?_SHTXX_WRITE_BYTE?TEXT1
            CODE    0CAFH     0031H     UNIT         ?PR?_SHTXX_READ_BYTE?TEXT1
            CODE    0CE0H     002AH     UNIT         ?C_INITSEG
            CODE    0D0AH     0025H     UNIT         ?PR?READ_BYTE?TEXT1
            CODE    0D2FH     0024H     UNIT         ?PR?_DELAY_MS?TEXT1
            CODE    0D53H     0023H     UNIT         ?PR?_WRITE_BYTE?TEXT1
            CODE    0D76H     0022H     UNIT         ?PR?_READ_ADD?TEXT1
            CODE    0D98H     001EH     UNIT         ?PR?RESPONSE?TEXT1
            CODE    0DB6H     0019H     UNIT         ?PR?SHTXX_TRANSSTART?TEXT1
            CODE    0DCFH     0018H     UNIT         ?PR?_WRITE_ADD?TEXT1
            CODE    0DE7H     0015H     UNIT         ?PR?_DELAYMS?DELAY
            CODE    0DFCH     0013H     UNIT         ?PR?_SEG_SWITCH?TEXT1
            CODE    0E0FH     0011H     UNIT         ?PR?SHTXX_INIT?TEXT1
            CODE    0E20H     0010H     UNIT         ?PR?INIT_TIMER0?TEXT1
            CODE    0E30H     000FH     UNIT         ?PR?NOACK?TEXT1
            CODE    0E3FH     000EH     UNIT         ?PR?_DELAY1?TEXT1
            CODE    0E4DH     000AH     UNIT         ?PR?START?TEXT1
            CODE    0E57H     000AH     UNIT         ?PR?STOP?TEXT1
            CODE    0E61H     000AH     UNIT         ?PR?INIT?TEXT1
            CODE    0E6BH     000AH     UNIT         ?CO?TEXT1
            CODE    0E75H     0003H     UNIT         ?PR?_DELAYUS2X?DELAY



OVERLAY MAP OF MODULE:   1 (TEXT1)


SEGMENT                               DATA_GROUP 
  +--> CALLED SEGMENT               START    LENGTH
---------------------------------------------------
?PR?TIMER0_ISR?TEXT1                -----    -----
  +--> ?PR?_SEG_SWITCH?TEXT1

*** NEW ROOT ***************************************************

?C_C51STARTUP                       -----    -----
  +--> ?PR?MAIN?TEXT1
  +--> ?C_INITSEG

?PR?MAIN?TEXT1                      0010H    0004H
  +--> ?PR?SHTXX_INIT?TEXT1
  +--> ?PR?INIT_TIMER0?TEXT1
  +--> ?PR?_READ_ADD?TEXT1
  +--> ?PR?_DELAY_MS?TEXT1
  +--> ?PR?_WRITE_ADD?TEXT1
  +--> ?CO?TEXT1
  +--> ?PR?COVERT_HT?TEXT1

?PR?SHTXX_INIT?TEXT1                -----    -----
  +--> ?PR?SHTXX_TRANSSTART?TEXT1

?PR?_READ_ADD?TEXT1                 -----    -----
  +--> ?PR?RESPONSE?TEXT1
  +--> ?PR?_WRITE_BYTE?TEXT1
  +--> ?PR?START?TEXT1
BL51 BANKED LINKER/LOCATER V6.00                                                      07/08/2020  17:22:24  PAGE 3


  +--> ?PR?READ_BYTE?TEXT1
  +--> ?PR?NOACK?TEXT1
  +--> ?PR?STOP?TEXT1

?PR?RESPONSE?TEXT1                  0014H    0001H
  +--> ?PR?START?TEXT1
  +--> ?PR?_WRITE_BYTE?TEXT1
  +--> ?PR?DELAY?TEXT1

?PR?START?TEXT1                     -----    -----
  +--> ?PR?DELAY?TEXT1

?PR?_WRITE_BYTE?TEXT1               -----    -----
  +--> ?PR?DELAY?TEXT1

?PR?READ_BYTE?TEXT1                 -----    -----
  +--> ?PR?DELAY?TEXT1

?PR?NOACK?TEXT1                     -----    -----
  +--> ?PR?DELAY?TEXT1

?PR?STOP?TEXT1                      -----    -----
  +--> ?PR?DELAY?TEXT1

?PR?_WRITE_ADD?TEXT1                -----    -----
  +--> ?PR?RESPONSE?TEXT1
  +--> ?PR?_WRITE_BYTE?TEXT1
  +--> ?PR?STOP?TEXT1

?PR?COVERT_HT?TEXT1                 0014H    000AH
  +--> ?PR?_SHTXX_MEASURE?TEXT1
  +--> ?PR?SHTXX_INIT?TEXT1
  +--> ?PR?_SHTXX_CALC?TEXT1

?PR?_SHTXX_MEASURE?TEXT1            001EH    0009H
  +--> ?PR?SHTXX_TRANSSTART?TEXT1
  +--> ?PR?_SHTXX_WRITE_BYTE?TEXT1
  +--> ?PR?_SHTXX_READ_BYTE?TEXT1

?PR?_SHTXX_CALC?TEXT1               001EH    001AH



SYMBOL TABLE OF MODULE:  1 (TEXT1)

  VALUE           TYPE          NAME
  ----------------------------------

  -------         MODULE        TEXT1
  C:0000H         SYMBOL        _ICE_DUMMY_
  D:0038H         PUBLIC        setting_flag
  D:0080H         PUBLIC        P0
  D:0090H         PUBLIC        P1
  D:00A0H         PUBLIC        P2
  D:00B0H         PUBLIC        P3
  B:00B0H.7       PUBLIC        control
  B:00A8H.7       PUBLIC        EA
BL51 BANKED LINKER/LOCATER V6.00                                                      07/08/2020  17:22:24  PAGE 4


  C:0D76H         PUBLIC        _read_add
  C:0E6BH         PUBLIC        dofly_table
  D:0039H         PUBLIC        real_tempure
  D:00A8H         PUBLIC        IE
  C:0E30H         PUBLIC        noack
  C:0008H         PUBLIC        delay
  C:0CAFH         PUBLIC        _SHTXX_read_byte
  C:0DFCH         PUBLIC        _seg_switch
  C:0E0FH         PUBLIC        SHTXX_Init
  C:0DCFH         PUBLIC        _write_add
  D:00B8H         PUBLIC        IP
  B:00A0H.5       PUBLIC        DATA
  B:00D0H.7       PUBLIC        CY
  C:0E3FH         PUBLIC        _delay1
  C:0D53H         PUBLIC        _write_byte
  C:04E4H         PUBLIC        main
  C:0C7DH         PUBLIC        _SHTXX_write_byte
  C:0E20H         PUBLIC        Init_Timer0
  C:0E4DH         PUBLIC        start
  C:0D33H         PUBLIC        _delay_ms
  B:0090H.0       PUBLIC        motor
  D:0098H         PUBLIC        SCON
  C:0D0AH         PUBLIC        read_byte
  D:0089H         PUBLIC        TMOD
  D:0088H         PUBLIC        TCON
  C:0E61H         PUBLIC        init
  B:0090H.6       PUBLIC        sda
  D:003BH         PUBLIC        sec
  D:003CH         PUBLIC        real_humi
  D:003DH         PUBLIC        hour
  B:0090H.7       PUBLIC        scl
  D:003EH         PUBLIC        min
  C:0E57H         PUBLIC        stop
  B:00A8H.1       PUBLIC        ET0
  D:008CH         PUBLIC        TH0
  B:00B0H.6       PUBLIC        key_jian
  D:008AH         PUBLIC        TL0
  B:00B0H.2       PUBLIC        key_mode
  D:003FH         PUBLIC        sec_temp
  B:0088H.4       PUBLIC        TR0
  C:0B97H         PUBLIC        _SHTXX_measure
  B:00B0H.3       PUBLIC        key_2
  D:0040H         PUBLIC        humi_H
  B:00B0H.4       PUBLIC        key_3
  C:0DB6H         PUBLIC        SHTXX_transstart
  B:00B0H.5       PUBLIC        key_jia
  D:0041H         PUBLIC        humi_L
  B:00A0H.4       PUBLIC        SCK
  C:0C1FH         PUBLIC        Timer0_isr
  D:0042H         PUBLIC        seg_show
  D:00C8H         PUBLIC        T2CON
  B:00A0H.0       PUBLIC        seg1
  D:004AH         PUBLIC        seg_num
  B:00A0H.1       PUBLIC        seg2
  C:0A64H         PUBLIC        Covert_HT
  B:00A0H.2       PUBLIC        seg3
  C:0DA0H         PUBLIC        response
BL51 BANKED LINKER/LOCATER V6.00                                                      07/08/2020  17:22:24  PAGE 5


  C:07EBH         PUBLIC        _SHTXX_calc
  D:00D0H         PUBLIC        PSW
  -------         PROC          _SEG_SWITCH
  D:0007H         SYMBOL        num
  C:0DFCH         LINE#         59
  C:0DFCH         LINE#         60
  C:0E04H         LINE#         61
  C:0E0AH         LINE#         62
  C:0E0EH         LINE#         63
  -------         ENDPROC       _SEG_SWITCH
  C:0D2FH         SYMBOL        L?0136
  -------         PROC          L?0135
  -------         ENDPROC       L?0135
  C:0D2FH         SYMBOL        L?0136
  -------         PROC          _DELAY_MS
  D:0006H         SYMBOL        x
  -------         DO            
  D:0002H         SYMBOL        i
  D:0004H         SYMBOL        j
  -------         ENDDO         
  C:0D33H         LINE#         64
  C:0D33H         LINE#         65
  C:0D33H         LINE#         67
  C:0D3DH         LINE#         68
  C:0D52H         LINE#         69
  -------         ENDPROC       _DELAY_MS
  -------         PROC          INIT_TIMER0
  C:0E20H         LINE#         70
  C:0E20H         LINE#         71
  C:0E20H         LINE#         72
  C:0E23H         LINE#         73
  C:0E26H         LINE#         74
  C:0E29H         LINE#         75
  C:0E2BH         LINE#         76
  C:0E2DH         LINE#         77
  C:0E2FH         LINE#         78
  -------         ENDPROC       INIT_TIMER0
  -------         PROC          _SHTXX_WRITE_BYTE
  D:0007H         SYMBOL        value
  -------         DO            
  D:0005H         SYMBOL        i
  D:0006H         SYMBOL        error
  -------         ENDDO         
  C:0C7DH         LINE#         82
  C:0C7DH         LINE#         83
  C:0C7DH         LINE#         84
  C:0C7FH         LINE#         85
  C:0C87H         LINE#         86
  C:0C87H         LINE#         87
  C:0C8FH         LINE#         88
  C:0C91H         LINE#         89
  C:0C93H         LINE#         90
  C:0C96H         LINE#         91
  C:0C98H         LINE#         92
  C:0C9EH         LINE#         93
  C:0CA0H         LINE#         94
  C:0CA2H         LINE#         95
BL51 BANKED LINKER/LOCATER V6.00                                                      07/08/2020  17:22:24  PAGE 6


  C:0CA6H         LINE#         96
  C:0CA9H         LINE#         97
  C:0CABH         LINE#         98
  C:0CADH         LINE#         99
  C:0CAEH         LINE#         100
  -------         ENDPROC       _SHTXX_WRITE_BYTE
  -------         PROC          _SHTXX_READ_BYTE
  D:0007H         SYMBOL        ack
  -------         DO            
  D:0005H         SYMBOL        i
  D:0006H         SYMBOL        val
  -------         ENDDO         
  C:0CAFH         LINE#         103
  C:0CAFH         LINE#         104
  C:0CAFH         LINE#         105
  C:0CB1H         LINE#         106
  C:0CB3H         LINE#         107
  C:0CBBH         LINE#         108
  C:0CBBH         LINE#         109
  C:0CBDH         LINE#         110
  C:0CC3H         LINE#         111
  C:0CC5H         LINE#         112
  C:0CCBH         LINE#         113
  C:0CD1H         LINE#         114
  C:0CD3H         LINE#         115
  C:0CD6H         LINE#         116
  C:0CD8H         LINE#         117
  C:0CDBH         LINE#         118
  C:0CDDH         LINE#         119
  C:0CDFH         LINE#         120
  -------         ENDPROC       _SHTXX_READ_BYTE
  -------         PROC          SHTXX_TRANSSTART
  C:0DB6H         LINE#         122
  C:0DB6H         LINE#         123
  C:0DB6H         LINE#         124
  C:0DBAH         LINE#         125
  C:0DBBH         LINE#         126
  C:0DBDH         LINE#         127
  C:0DBEH         LINE#         128
  C:0DC0H         LINE#         129
  C:0DC1H         LINE#         130
  C:0DC3H         LINE#         131
  C:0DC6H         LINE#         132
  C:0DC8H         LINE#         133
  C:0DC9H         LINE#         134
  C:0DCBH         LINE#         135
  C:0DCCH         LINE#         136
  C:0DCEH         LINE#         137
  -------         ENDPROC       SHTXX_TRANSSTART
  -------         PROC          SHTXX_INIT
  -------         DO            
  D:0007H         SYMBOL        i
  -------         ENDDO         
  C:0E0FH         LINE#         139
  C:0E0FH         LINE#         140
  C:0E0FH         LINE#         142
  C:0E13H         LINE#         143
BL51 BANKED LINKER/LOCATER V6.00                                                      07/08/2020  17:22:24  PAGE 7


  C:0E15H         LINE#         144
  C:0E15H         LINE#         145
  C:0E17H         LINE#         146
  C:0E19H         LINE#         147
  C:0E1DH         LINE#         148
  -------         ENDPROC       SHTXX_INIT
  -------         PROC          _SHTXX_MEASURE
  D:001EH         SYMBOL        p_value
  D:0021H         SYMBOL        p_checksum
  D:0024H         SYMBOL        mode
  -------         DO            
  D:0025H         SYMBOL        error
  D:0082H         SYMBOL        i
  -------         ENDDO         
  C:0B97H         LINE#         152
  C:0B9DH         LINE#         153
  C:0B9DH         LINE#         155
  C:0BA2H         LINE#         158
  C:0BA5H         LINE#         159
  C:0BADH         LINE#         160
  C:0BADH         LINE#         161
  C:0BB1H         LINE#         162
  C:0BC5H         LINE#         163
  C:0BC5H         LINE#         164
  C:0BC5H         LINE#         165
  C:0BE1H         LINE#         166
  C:0BECH         LINE#         167
  C:0BFBH         LINE#         168
  C:0C0DH         LINE#         169
  C:0C1CH         LINE#         170
  C:0C1EH         LINE#         171
  -------         ENDPROC       _SHTXX_MEASURE
  -------         PROC          _SHTXX_CALC
  D:001EH         SYMBOL        p_humidity
  D:0021H         SYMBOL        p_temperature
  -------         DO            
  D:0024H         SYMBOL        rh
  D:0028H         SYMBOL        t
  D:002CH         SYMBOL        rh_lin
  D:0030H         SYMBOL        rh_true
  D:0034H         SYMBOL        t_C
  -------         ENDDO         
  C:07EBH         LINE#         174
  C:07F1H         LINE#         175
  C:07F1H         LINE#         177
  C:07FCH         LINE#         178
  C:080DH         LINE#         183
  C:0832H         LINE#         184
  C:0888H         LINE#         185
  C:08A2H         LINE#         186
  C:08B8H         LINE#         187
  C:08DCH         LINE#         188
  C:08F2H         LINE#         189
  C:0916H         LINE#         190
  C:092CH         LINE#         191
  C:0950H         LINE#         192
  C:0966H         LINE#         193
BL51 BANKED LINKER/LOCATER V6.00                                                      07/08/2020  17:22:24  PAGE 8


  C:098BH         LINE#         194
  C:09A1H         LINE#         195
  C:09C5H         LINE#         196
  C:09DBH         LINE#         197
  C:0A00H         LINE#         202
  C:0A21H         LINE#         203
  C:0A42H         LINE#         205
  C:0A53H         LINE#         206
  -------         ENDPROC       _SHTXX_CALC
  -------         PROC          COVERT_HT
  -------         DO            
  D:0014H         SYMBOL        humi_val
  D:0018H         SYMBOL        temp_val
  D:001CH         SYMBOL        checksum
  D:001DH         SYMBOL        error
  -------         ENDDO         
  C:0A64H         LINE#         210
  C:0A64H         LINE#         211
  C:0A64H         LINE#         214
  C:0A67H         LINE#         215
  C:0A69H         LINE#         216
  C:0A80H         LINE#         217
  C:0A9AH         LINE#         218
  C:0A9FH         LINE#         220
  C:0A9FH         LINE#         221
  C:0AAFH         LINE#         222
  C:0ABFH         LINE#         223
  C:0AD1H         LINE#         225
  C:0AEAH         LINE#         226
  C:0B01H         LINE#         227
  C:0B0AH         LINE#         228
  C:0B0AH         LINE#         229
  -------         ENDPROC       COVERT_HT
  C:0003H         SYMBOL        L?0139
  -------         PROC          L?0138
  -------         ENDPROC       L?0138
  C:0003H         SYMBOL        L?0139
  -------         PROC          DELAY
  C:0008H         LINE#         236
  C:0008H         LINE#         237
  C:0008H         LINE#         239
  -------         ENDPROC       DELAY
  -------         PROC          START
  C:0E4DH         LINE#         241
  C:0E4DH         LINE#         242
  C:0E4FH         LINE#         243
  C:0E4FH         LINE#         244
  C:0E4FH         LINE#         245
  C:0E52H         LINE#         246
  C:0E54H         LINE#         247
  -------         ENDPROC       START
  -------         PROC          STOP
  C:0E57H         LINE#         250
  C:0E57H         LINE#         251
  C:0E59H         LINE#         252
  C:0E59H         LINE#         253
  C:0E59H         LINE#         254
BL51 BANKED LINKER/LOCATER V6.00                                                      07/08/2020  17:22:24  PAGE 9


  C:0E5CH         LINE#         255
  C:0E5EH         LINE#         256
  -------         ENDPROC       STOP
  -------         PROC          L?0137
  -------         ENDPROC       L?0137
  -------         PROC          RESPONSE
  -------         DO            
  D:0014H         SYMBOL        i
  -------         ENDDO         
  C:0DA0H         LINE#         259
  C:0DA0H         LINE#         260
  C:0DA0H         LINE#         261
  C:0DA2H         LINE#         262
  C:0DA5H         LINE#         263
  C:0DB1H         LINE#         264
  C:0DB3H         LINE#         265
  -------         ENDPROC       RESPONSE
  -------         PROC          NOACK
  C:0E30H         LINE#         268
  C:0E30H         LINE#         269
  C:0E32H         LINE#         270
  C:0E32H         LINE#         271
  C:0E32H         LINE#         272
  C:0E35H         LINE#         273
  C:0E37H         LINE#         274
  C:0E3AH         LINE#         275
  C:0E3CH         LINE#         276
  -------         ENDPROC       NOACK
  -------         PROC          INIT
  C:0E61H         LINE#         278
  C:0E61H         LINE#         279
  C:0E63H         LINE#         280
  C:0E66H         LINE#         281
  C:0E68H         LINE#         282
  -------         ENDPROC       INIT
  -------         PROC          _WRITE_BYTE
  D:0007H         SYMBOL        date
  -------         DO            
  D:0006H         SYMBOL        i
  D:0007H         SYMBOL        temp
  -------         ENDDO         
  C:0D53H         LINE#         284
  C:0D53H         LINE#         285
  C:0D53H         LINE#         286
  C:0D53H         LINE#         287
  C:0D55H         LINE#         288
  C:0D59H         LINE#         289
  C:0D5BH         LINE#         290
  C:0D5EH         LINE#         291
  C:0D60H         LINE#         292
  C:0D60H         LINE#         293
  C:0D60H         LINE#         294
  C:0D63H         LINE#         295
  C:0D65H         LINE#         296
  C:0D68H         LINE#         297
  C:0D6CH         LINE#         298
  C:0D6EH         LINE#         299
BL51 BANKED LINKER/LOCATER V6.00                                                      07/08/2020  17:22:24  PAGE 10


  C:0D71H         LINE#         300
  C:0D73H         LINE#         301
  -------         ENDPROC       _WRITE_BYTE
  -------         PROC          READ_BYTE
  -------         DO            
  D:0006H         SYMBOL        i
  D:0007H         SYMBOL        k
  -------         ENDDO         
  C:0D0AH         LINE#         303
  C:0D0AH         LINE#         304
  C:0D0AH         LINE#         305
  C:0D0CH         LINE#         306
  C:0D0FH         LINE#         307
  C:0D11H         LINE#         308
  C:0D14H         LINE#         309
  C:0D16H         LINE#         310
  C:0D18H         LINE#         311
  C:0D1BH         LINE#         312
  C:0D25H         LINE#         313
  C:0D27H         LINE#         314
  C:0D2AH         LINE#         315
  C:0D2EH         LINE#         316
  C:0D2EH         LINE#         317
  -------         ENDPROC       READ_BYTE
  -------         PROC          _DELAY1
  D:0007H         SYMBOL        x
  -------         DO            
  D:0007H         SYMBOL        a
  D:0006H         SYMBOL        b
  -------         ENDDO         
  C:0E3FH         LINE#         318
  C:0E3FH         LINE#         319
  C:0E3FH         LINE#         320
  C:0E45H         LINE#         321
  C:0E4CH         LINE#         322
  -------         ENDPROC       _DELAY1
  -------         PROC          _WRITE_ADD
  D:0004H         SYMBOL        address
  D:0005H         SYMBOL        date
  C:0DCFH         LINE#         324
  C:0DD1H         LINE#         325
  C:0DD1H         LINE#         326
  C:0DD1H         LINE#         327
  C:0DD4H         LINE#         328
  C:0DD9H         LINE#         329
  C:0DDCH         LINE#         330
  C:0DE1H         LINE#         331
  C:0DE4H         LINE#         332
  -------         ENDPROC       _WRITE_ADD
  -------         PROC          _READ_ADD
  D:0005H         SYMBOL        address
  -------         DO            
  D:0007H         SYMBOL        date
  -------         ENDDO         
  C:0D76H         LINE#         335
  C:0D78H         LINE#         336
  C:0D78H         LINE#         337
BL51 BANKED LINKER/LOCATER V6.00                                                      07/08/2020  17:22:24  PAGE 11


  C:0D78H         LINE#         338
  C:0D78H         LINE#         339
  C:0D7BH         LINE#         340
  C:0D80H         LINE#         341
  C:0D83H         LINE#         342
  C:0D86H         LINE#         343
  C:0D8BH         LINE#         344
  C:0D8EH         LINE#         345
  C:0D91H         LINE#         346
  C:0D94H         LINE#         347
  C:0D97H         LINE#         348
  C:0D97H         LINE#         349
  -------         ENDPROC       _READ_ADD
  -------         PROC          MAIN
  -------         DO            
  D:0010H         SYMBOL        i
  D:0012H         SYMBOL        mode_num
  D:0013H         SYMBOL        wei_num
  -------         ENDDO         
  C:04E4H         LINE#         353
  C:04E4H         LINE#         354
  C:04E4H         LINE#         356
  C:04E7H         LINE#         357
  C:04E9H         LINE#         358
  C:04ECH         LINE#         359
  C:04EEH         LINE#         360
  C:04F1H         LINE#         361
  C:04F4H         LINE#         363
  C:04FBH         LINE#         364
  C:0502H         LINE#         365
  C:0507H         LINE#         367
  C:050EH         LINE#         368
  C:050EH         LINE#         369
  C:050EH         LINE#         372
  C:0511H         LINE#         373
  C:0514H         LINE#         374
  C:0517H         LINE#         375
  C:051AH         LINE#         376
  C:051CH         LINE#         377
  C:0522H         LINE#         378
  C:0529H         LINE#         379
  C:052EH         LINE#         381
  C:0531H         LINE#         382
  C:0534H         LINE#         383
  C:0534H         LINE#         384
  C:0534H         LINE#         385
  C:0537H         LINE#         386
  C:053AH         LINE#         387
  C:053DH         LINE#         388
  C:0540H         LINE#         389
  C:0543H         LINE#         390
  C:0546H         LINE#         392
  C:0549H         LINE#         393
  C:054CH         LINE#         394
  C:054CH         LINE#         395
  C:054CH         LINE#         396
  C:054FH         LINE#         397
BL51 BANKED LINKER/LOCATER V6.00                                                      07/08/2020  17:22:24  PAGE 12


  C:0552H         LINE#         398
  C:0555H         LINE#         399
  C:055AH         LINE#         400
  C:055CH         LINE#         401
  C:0566H         LINE#         402
  C:0566H         LINE#         404
  C:0569H         LINE#         405
  C:056CH         LINE#         406
  C:056CH         LINE#         407
  C:056CH         LINE#         408
  C:056FH         LINE#         409
  C:0575H         LINE#         410
  C:0584H         LINE#         411
  C:058CH         LINE#         412
  C:0590H         LINE#         413
  C:0598H         LINE#         414
  C:059AH         LINE#         415
  C:059AH         LINE#         416
  C:05A6H         LINE#         417
  C:05B8H         LINE#         419
  C:05B8H         LINE#         420
  C:05BBH         LINE#         421
  C:05BEH         LINE#         422
  C:05BEH         LINE#         423
  C:05C1H         LINE#         424
  C:05C7H         LINE#         425
  C:05D6H         LINE#         426
  C:05DEH         LINE#         427
  C:05E2H         LINE#         428
  C:05EAH         LINE#         429
  C:05ECH         LINE#         430
  C:05ECH         LINE#         431
  C:05F8H         LINE#         432
  C:060AH         LINE#         433
  C:060AH         LINE#         434
  C:060DH         LINE#         435
  C:0610H         LINE#         436
  C:0610H         LINE#         438
  C:0619H         LINE#         439
  C:061CH         LINE#         440
  C:061FH         LINE#         441
  C:0643H         LINE#         442
  C:0660H         LINE#         443
  C:0684H         LINE#         444
  C:06A1H         LINE#         445
  C:06B3H         LINE#         446
  C:06BEH         LINE#         447
  C:06CAH         LINE#         448
  C:06D9H         LINE#         449
  C:06DEH         LINE#         450
  C:06E3H         LINE#         451
  C:06E8H         LINE#         452
  C:06EBH         LINE#         453
  C:06EBH         LINE#         454
  C:06EBH         LINE#         455
  C:06EBH         LINE#         458
  C:06F2H         LINE#         459
BL51 BANKED LINKER/LOCATER V6.00                                                      07/08/2020  17:22:24  PAGE 13


  C:06F5H         LINE#         460
  C:0719H         LINE#         461
  C:0736H         LINE#         462
  C:0739H         LINE#         463
  C:075DH         LINE#         464
  C:077AH         LINE#         465
  C:077DH         LINE#         467
  C:078FH         LINE#         468
  C:079AH         LINE#         469
  C:079AH         LINE#         471
  C:07B1H         LINE#         472
  C:07C7H         LINE#         473
  C:07DCH         LINE#         474
  C:07E3H         LINE#         475
  C:07E5H         LINE#         480
  C:07E8H         LINE#         481
  -------         ENDPROC       MAIN
  -------         PROC          TIMER0_ISR
  C:0C1FH         LINE#         484
  C:0C26H         LINE#         486
  C:0C29H         LINE#         487
  C:0C2CH         LINE#         488
  C:0C2EH         LINE#         489
  C:0C38H         LINE#         490
  C:0C3BH         LINE#         491
  C:0C40H         LINE#         492
  C:0C48H         LINE#         495
  C:0C4AH         LINE#         496
  C:0C51H         LINE#         497
  C:0C54H         LINE#         498
  C:0C56H         LINE#         499
  C:0C56H         LINE#         500
  C:0C5DH         LINE#         501
  C:0C60H         LINE#         502
  C:0C62H         LINE#         503
  C:0C62H         LINE#         504
  C:0C69H         LINE#         505
  C:0C6CH         LINE#         506
  C:0C6EH         LINE#         507
  C:0C6EH         LINE#         508
  C:0C75H         LINE#         509
  C:0C78H         LINE#         510
  C:0C78H         LINE#         511
  -------         ENDPROC       TIMER0_ISR
  -------         ENDMOD        TEXT1

  -------         MODULE        DELAY
  C:0000H         SYMBOL        _ICE_DUMMY_
  C:0DE7H         PUBLIC        _DelayMs
  C:0E75H         PUBLIC        _DelayUs2x
  -------         PROC          _DELAYUS2X
  D:0007H         SYMBOL        t
  C:0E75H         LINE#         8
  C:0E75H         LINE#         9
  C:0E75H         LINE#         10
  C:0E77H         LINE#         11
  -------         ENDPROC       _DELAYUS2X
BL51 BANKED LINKER/LOCATER V6.00                                                      07/08/2020  17:22:24  PAGE 14


  -------         PROC          _DELAYMS
  D:0006H         SYMBOL        t
  C:0DE7H         LINE#         17
  C:0DE9H         LINE#         18
  C:0DE9H         LINE#         20
  C:0DEFH         LINE#         21
  C:0DEFH         LINE#         23
  C:0DF4H         LINE#         24
  C:0DF9H         LINE#         25
  C:0DFBH         LINE#         26
  -------         ENDPROC       _DELAYMS
  -------         ENDMOD        DELAY

  -------         MODULE        ?C?FPADD
  C:0015H         PUBLIC        ?C?FPADD
  C:0011H         PUBLIC        ?C?FPSUB
  -------         ENDMOD        ?C?FPADD

  -------         MODULE        ?C?FPMUL
  C:0106H         PUBLIC        ?C?FPMUL
  -------         ENDMOD        ?C?FPMUL

  -------         MODULE        ?C?FPDIV
  C:020FH         PUBLIC        ?C?FPDIV
  -------         ENDMOD        ?C?FPDIV

  -------         MODULE        ?C?FPCMP
  C:02AEH         PUBLIC        ?C?FPCMP
  C:02ACH         PUBLIC        ?C?FPCMP3
  -------         ENDMOD        ?C?FPCMP

  -------         MODULE        ?C?FCAST
  C:0323H         PUBLIC        ?C?FCASTC
  C:031EH         PUBLIC        ?C?FCASTI
  C:0319H         PUBLIC        ?C?FCASTL
  -------         ENDMOD        ?C?FCAST

  -------         MODULE        ?C?CASTF
  C:0357H         PUBLIC        ?C?CASTF
  -------         ENDMOD        ?C?CASTF

  -------         MODULE        ?C?SCDIV
  C:03D8H         PUBLIC        ?C?SCDIV
  -------         ENDMOD        ?C?SCDIV

  -------         MODULE        ?C?CSTPTR
  C:03FAH         PUBLIC        ?C?CSTPTR
  -------         ENDMOD        ?C?CSTPTR

  -------         MODULE        ?C?CSTOPTR
  C:040CH         PUBLIC        ?C?CSTOPTR
  -------         ENDMOD        ?C?CSTOPTR

  -------         MODULE        ?C?LNEG
  C:042EH         PUBLIC        ?C?LNEG
  -------         ENDMOD        ?C?LNEG

BL51 BANKED LINKER/LOCATER V6.00                                                      07/08/2020  17:22:24  PAGE 15


  -------         MODULE        ?C?SLCMP
  C:043CH         PUBLIC        ?C?SLCMP
  -------         ENDMOD        ?C?SLCMP

  -------         MODULE        ?C?LLDPTR
  C:0452H         PUBLIC        ?C?LLDPTR
  -------         ENDMOD        ?C?LLDPTR

  -------         MODULE        ?C?LSTPTR
  C:0472H         PUBLIC        ?C?LSTPTR
  -------         ENDMOD        ?C?LSTPTR

  -------         MODULE        ?C?LLDIDATA
  C:048CH         PUBLIC        ?C?LLDIDATA
  -------         ENDMOD        ?C?LLDIDATA

  -------         MODULE        ?C?LLDXDATA
  C:0498H         PUBLIC        ?C?LLDXDATA
  -------         ENDMOD        ?C?LLDXDATA

  -------         MODULE        ?C?LLDPDATA
  C:04A4H         PUBLIC        ?C?LLDPDATA
  -------         ENDMOD        ?C?LLDPDATA

  -------         MODULE        ?C?LLDCODE
  C:04B0H         PUBLIC        ?C?LLDCODE
  -------         ENDMOD        ?C?LLDCODE

  -------         MODULE        ?C?LSTIDATA
  C:04C0H         PUBLIC        ?C?LSTIDATA
  -------         ENDMOD        ?C?LSTIDATA

  -------         MODULE        ?C?LSTXDATA
  C:04CCH         PUBLIC        ?C?LSTXDATA
  -------         ENDMOD        ?C?LSTXDATA

  -------         MODULE        ?C?LSTPDATA
  C:04D8H         PUBLIC        ?C?LSTPDATA
  -------         ENDMOD        ?C?LSTPDATA

*** WARNING L16: UNCALLED SEGMENT, IGNORED FOR OVERLAY PROCESS
    SEGMENT: ?PR?INIT?TEXT1

*** WARNING L16: UNCALLED SEGMENT, IGNORED FOR OVERLAY PROCESS
    SEGMENT: ?PR?_DELAY1?TEXT1

*** WARNING L16: UNCALLED SEGMENT, IGNORED FOR OVERLAY PROCESS
    SEGMENT: ?PR?_DELAYMS?DELAY

Program Size: data=76.0 xdata=0 code=3702
LINK/LOCATE RUN COMPLETE.  3 WARNING(S),  0 ERROR(S)
