:100003000002000000040000001F00FF00E00000E9
:1000130000020000000400100018002000F000C2DD
:1000230000100001001300FE00100000001000800B
:100033000014006000180030000000000000000001
:100043000008000200080044000F00A800F8001098
:1000530000080028000F00C6000100000041000056
:100063000041000200410001004700FE004900007A
:1000730000510000006300000001000000000000C8
:100083000000000000100018001100000011003CE7
:1000930000110002001100020011004200FF0022C3
:1000A3000011003200110002001100020013000EC3
:1000B30000110000003000100010000C00000000D0
:1000C3000000000000300080002000800024008039
:1000D300002400800024008200A40081006700FE49
:1000E3000024008000240080002C00800024008075
:1000F3000021008000280080003000000000000084
:10017800E4FDFCD3ED9FEC9E50070DBD00010C8003
:01018800F284
:010189002253
:10010300E4FBFAF508F509EB25E0FDEA33FCC374DB
:100113007E9DFFE49CFEEF25E0FFEE33FE74032F8C
:10012300F58274003EF583740193F4F580C3747F04
:100133009DFFE49CFEEF25E0FFEE33FE74032FF5F5
:100143008274003EF583740193F4F5A07F507E0022
:100153001201787580FF75A0FF7F141201780BBB25
:1001630000010AEB643F4A709E7F587E02120178B9
:05017300E4FAFB80929C
:0300000002018A70
:0C018A00787FE4F6D8FD758109020103BE
:00000001FF
