:1001D10048656C6C6F2020002020202020202020EA
:1001E100202020202020202000706F736974697600
:1001F10065203120776F726B2000706F73697469AD
:100201007665203220776F726B2000706F7369748E
:10021100697665203320776F726B20007265766591
:1002210072736520312020776F726B2000726576C2
:100231006572736520322020776F726B20007265C2
:10024100766572736520332020776F726B200020F2
:100251002020202020202077616974696E672000AA
:100261002020202020202020202073746F70202047
:100271000011121418212224284142444881828409
:0102810088F4
:06048A0001110001120047
:10043B0053890F438920758DFD758BFDD28EC29F1D
:09044B00D29ED2AFD2ACD29C22A9
:100003007C00AF03AE021201467C007D0A1201465A
:04001300ED2430FFA9
:0C001700C2AC8F993099FDC299D2AC2286
:0603D4008B0E8A0F891058
:1003DA00E4FDFCAB0EAA0FA9108D828C83120119C1
:0D03EA00FF600A1200170DBD00010C80E637
:0103F70022E3
:1003AC00AB07AA067C277D101200097C037DE8129E
:1003BC0000057D641200037D0A120003AE02AF0338
:0803CC0012000C7F0D02001766
:0D046900D2A012041AD2A212041EC2A222B6
:0D047600C2A012041AD2A212041EC2A222B9
:1003F800C2A1C2A07F381204767F081204767F0655
:100408001204767F011204767F0C1204767F800234
:02041800047668
:060381008B098A0A890BBA
:10038700E4F50CF50DAB09AA0AA90B850D82850CBE
:1003970083120119FF600D120469050DE50D70E563
:0403A700050C80E1E0
:0103AB00222F
:08041A00C2A18F907F057E0056
:10042200EF4E6014E4FDFC0DBD00010CEDF44C70C8
:08043200F6EF1F70EB1E80E8DD
:01043A00229F
:06048300E4FF0FBFC8FCFE
:010489002250
:10030E007580F0E58054F064F06065120483E5803A
:10031E0054F064F0605A7FFEE4FE8F80E58054F066
:10032E0064F0603CE580F4FDE4FCEC900272936DA9
:10033E007028ECD394035004EC04FF22ECD3940702
:10034E005003AF0422ECD3940B5004EC14FF22ECB8
:10035E00D3940F5005EC24FEFF220CBC10CC800A67
:10036E007801EF08800123D8FDFF0EEE640470AA19
:02037E007FFFFF
:01038000225A
:10002600E4F50812043B1203F87F647E00120422F2
:100036007F801204767BFF7A0179D1120381120345
:100046000E8F08E508F460437F88120476E508649D
:100056000A601F850811E50875F00A842430FF122E
:100066000469E50875F00A84E5F02430FF12046996
:100076008019E5112430FF1200177FC01204767B29
:10008600FF7A0179D9120381E4F511E512D3943090
:1000960040ACE512943950A67FC0120476E51224CE
:1000A600CFB4080050679000BA75F003A4C5832545
:1000B600F0C583730200D20200DA0200E20200EA0F
:1000C6000200F20200FA02010202010A7BFF7A0133
:1000D60079EA80367BFF7A0179FB802E7BFF7A02F4
:1000E600790C80267BFF7A02791D801E7BFF7A02BF
:1000F600792E80167BFF7A02793F800E7BFF7A028B
:10010600795080067BFF7A027961120381E4F51249
:03011600020044A0
:0300230002045480
:07045400C0D075D000C00705
:09045B00309806C298AF998F1287
:05046400D007D0D032EA
:0300000002028277
:0C028200787FE4F6D8FD7581120202C9F5
:10011900BB010CE58229F582E5833AF583E022509B
:1001290006E92582F8E622BBFE06E92582F8E222E5
:0D013900E58229F582E5833AF583E49322FF
:10014600C2D5EC30E709B2D5E4C39DFDE49CFCEED4
:1001560030E715B2D5E4C39FFFE49EFE12017CC3CF
:10016600E49DFDE49CFC800312017C30D507C3E4CA
:060176009FFFE49EFE2243
:10028E00020026E493A3F8E493A34003F68001F260
:10029E0008DFF48029E493A3F85407240CC8C33371
:1002AE00C4540F4420C8834004F456800146F6DF40
:1002BE00E4800B010204081020408090048AE47E42
:1002CE00019360BCA3FF543F30E509541FFEE49335
:1002DE00A360010ECF54C025E060A840B8E493A3FC
:1002EE00FAE493A3F8E493A3C8C582C8CAC583CA27
:1002FE00F0A3C8C582C8CAC583CADFE9DEE780BEDF
:01049000006B
:10017C00BC000BBE0029EF8DF084FFADF022E4CC67
:10018C00F875F008EF2FFFEE33FEEC33FCEE9DEC30
:10019C00984005FCEE9DFE0FD5F0E9E4CEFD22ED76
:1001AC00F8F5F0EE8420D21CFEADF075F008EF2FC0
:1001BC00FFED33FD4007985006D5F0F222C398FDB1
:0501CC000FD5F0EA224E
:00000001FF
