BL51 BANKED LINKER/LOCATER V6.00                                                        03/28/2021  17:45:53  PAGE 1


BL51 BANKED LINKER/LOCATER V6.00, INVOKED BY:
E:\KEIL\C51\BIN\BL51.EXE 20.obj TO 20 RAMSIZE (256)


MEMORY MODEL: SMALL


INPUT MODULES INCLUDED:
  20.obj (20)
  E:\KEIL\C51\LIB\C51S.LIB (?C_STARTUP)
  E:\KEIL\C51\LIB\C51S.LIB (?C?CLDOPTR)
  E:\KEIL\C51\LIB\C51S.LIB (?C_INIT)


LINK MAP OF MODULE:  20 (20)


            TYPE    BASE      LENGTH    RELOCATION   SEGMENT NAME
            -----------------------------------------------------

            * * * * * * *   D A T A   M E M O R Y   * * * * * * *
            REG     0000H     0008H     ABSOLUTE     "REG BANK 0"
            DATA    0008H     0007H     UNIT         _DATA_GROUP_
            DATA    000FH     0005H     UNIT         ?DT?20
            IDATA   0014H     0001H     UNIT         ?STACK

            * * * * * * *   C O D E   M E M O R Y   * * * * * * *
            CODE    0000H     0003H     ABSOLUTE     
                    0003H     0008H                  *** GAP ***
            CODE    000BH     0003H     ABSOLUTE     
            CODE    000EH     00E0H     UNIT         ?PR?MAIN?20
            CODE    00EEH     008CH     UNIT         ?C_C51STARTUP
            CODE    017AH     002DH     UNIT         ?C?LIB_CODE
            CODE    01A7H     002BH     UNIT         ?PR?_PRINT_STRING?20
            CODE    01D2H     0029H     UNIT         ?PR?TIMER0_INT?20
            CODE    01FBH     0022H     UNIT         ?PR?LCD_INIT?20
            CODE    021DH     0022H     UNIT         ?PR?_DELAY_MS?20
            CODE    023FH     0021H     UNIT         ?PR?_DISPLAY_RESULT?20
            CODE    0260H     001DH     UNIT         ?CO?20
            CODE    027DH     001AH     UNIT         ?PR?_DELAYMS?20
            CODE    0297H     0019H     UNIT         ?PR?_WRITE_DATA?20
            CODE    02B0H     0010H     UNIT         ?PR?GETVALUE?20
            CODE    02C0H     0010H     UNIT         ?C_INITSEG
            CODE    02D0H     000DH     UNIT         ?PR?_WRITE_COM?20



OVERLAY MAP OF MODULE:   20 (20)


SEGMENT                          DATA_GROUP 
  +--> CALLED SEGMENT          START    LENGTH
----------------------------------------------
?C_C51STARTUP                  -----    -----
  +--> ?PR?MAIN?20
  +--> ?C_INITSEG

?PR?MAIN?20                    0008H    0002H
BL51 BANKED LINKER/LOCATER V6.00                                                      03/28/2021  17:45:53  PAGE 2


  +--> ?PR?LCD_INIT?20
  +--> ?PR?_WRITE_COM?20
  +--> ?CO?20
  +--> ?PR?_PRINT_STRING?20
  +--> ?PR?_DELAYMS?20
  +--> ?PR?GETVALUE?20
  +--> ?PR?_DISPLAY_RESULT?20

?PR?LCD_INIT?20                -----    -----
  +--> ?PR?_WRITE_COM?20

?PR?_WRITE_COM?20              -----    -----
  +--> ?PR?_DELAY_MS?20

?PR?_PRINT_STRING?20           000AH    0005H
  +--> ?PR?_WRITE_DATA?20

?PR?_WRITE_DATA?20             -----    -----
  +--> ?PR?_DELAY_MS?20

?PR?_DISPLAY_RESULT?20         000AH    0001H
  +--> ?PR?_WRITE_COM?20
  +--> ?PR?_WRITE_DATA?20



SYMBOL TABLE OF MODULE:  20 (20)

  VALUE           TYPE          NAME
  ----------------------------------

  -------         MODULE        20
  C:0000H         SYMBOL        _ICE_DUMMY_
  D:0080H         PUBLIC        P0
  C:01D2H         PUBLIC        Timer0_INT
  D:0090H         PUBLIC        P1
  D:00A0H         PUBLIC        P2
  D:00B0H         PUBLIC        P3
  B:00A8H.7       PUBLIC        EA
  C:02A3H         PUBLIC        _write_data
  C:01A7H         PUBLIC        _print_string
  D:000FH         PUBLIC        PWM_temp
  D:00A8H         PUBLIC        IE
  B:0090H.7       PUBLIC        EN
  B:00A0H.5       PUBLIC        OE
  D:00B8H         PUBLIC        IP
  C:023FH         PUBLIC        _Display_Result
  B:0090H.0       PUBLIC        PWM_pin
  C:02B0H         PUBLIC        GetValue
  B:0090H.5       PUBLIC        RS
  C:000EH         PUBLIC        main
  D:0010H         PUBLIC        PWM_num
  B:00A0H.7       PUBLIC        ST
  C:02D0H         PUBLIC        _write_com
  C:0225H         PUBLIC        _delay_ms
  D:0098H         PUBLIC        SCON
  D:0089H         PUBLIC        TMOD
BL51 BANKED LINKER/LOCATER V6.00                                                      03/28/2021  17:45:53  PAGE 3


  D:0088H         PUBLIC        TCON
  D:0011H         PUBLIC        get_value_flag
  B:0090H.1       PUBLIC        human_pin
  B:00A8H.1       PUBLIC        ET0
  C:01FBH         PUBLIC        lcd_init
  D:008CH         PUBLIC        TH0
  D:008AH         PUBLIC        TL0
  B:0088H.4       PUBLIC        TR0
  B:00A0H.4       PUBLIC        EOC
  D:0012H         PUBLIC        PWM_num1
  B:00A0H.6       PUBLIC        CLK
  D:00C8H         PUBLIC        T2CON
  C:0281H         PUBLIC        _DelayMS
  D:0013H         PUBLIC        key1_flag
  D:00D0H         PUBLIC        PSW
  B:00A0H.0       PUBLIC        key1
  B:00A0H.1       PUBLIC        key2
  B:00A0H.2       PUBLIC        key3
  B:0090H.6       PUBLIC        LCDRW
  -------         PROC          L?0063
  -------         ENDPROC       L?0063
  -------         PROC          _WRITE_DATA
  D:0007H         SYMBOL        dat
  C:02A3H         LINE#         22
  C:02A3H         LINE#         23
  C:02A5H         LINE#         24
  C:02A5H         LINE#         25
  C:02A5H         LINE#         26
  C:02A8H         LINE#         27
  C:02AAH         LINE#         28
  C:02ADH         LINE#         29
  C:02AFH         LINE#         30
  -------         ENDPROC       _WRITE_DATA
  -------         PROC          _WRITE_COM
  D:0007H         SYMBOL        com
  C:02D0H         LINE#         34
  C:02D0H         LINE#         35
  C:02D2H         LINE#         36
  C:02D2H         LINE#         37
  C:02D2H         LINE#         38
  C:02D5H         LINE#         39
  C:02D7H         LINE#         40
  C:02DAH         LINE#         41
  C:02DCH         LINE#         42
  -------         ENDPROC       _WRITE_COM
  -------         PROC          LCD_INIT
  C:01FBH         LINE#         46
  C:01FBH         LINE#         47
  C:01FDH         LINE#         48
  C:01FFH         LINE#         51
  C:0204H         LINE#         52
  C:0209H         LINE#         53
  C:020EH         LINE#         54
  C:0213H         LINE#         55
  C:0218H         LINE#         56
  -------         ENDPROC       LCD_INIT
  -------         PROC          _PRINT_STRING
BL51 BANKED LINKER/LOCATER V6.00                                                      03/28/2021  17:45:53  PAGE 4


  D:000AH         SYMBOL        str
  -------         DO            
  D:000DH         SYMBOL        i
  -------         ENDDO         
  C:01A7H         LINE#         58
  C:01ADH         LINE#         60
  C:01C4H         LINE#         61
  C:01C4H         LINE#         63
  C:01C7H         LINE#         64
  C:01D1H         LINE#         65
  -------         ENDPROC       _PRINT_STRING
  C:0221H         SYMBOL        L?0062
  -------         PROC          L?0061
  -------         ENDPROC       L?0061
  C:0221H         SYMBOL        L?0062
  -------         PROC          _DELAY_MS
  D:0006H         SYMBOL        t
  -------         DO            
  D:0004H         SYMBOL        j
  -------         ENDDO         
  C:0225H         LINE#         69
  C:0225H         LINE#         71
  C:0229H         LINE#         72
  C:023EH         LINE#         73
  -------         ENDPROC       _DELAY_MS
  C:027DH         SYMBOL        L?0065
  -------         PROC          L?0064
  -------         ENDPROC       L?0064
  C:027DH         SYMBOL        L?0065
  -------         PROC          _DELAYMS
  D:0006H         SYMBOL        ms
  -------         DO            
  D:0005H         SYMBOL        i
  -------         ENDDO         
  C:0281H         LINE#         26
  C:0281H         LINE#         27
  C:0281H         LINE#         29
  C:028BH         LINE#         30
  C:028BH         LINE#         31
  C:0296H         LINE#         32
  C:0296H         LINE#         33
  -------         ENDPROC       _DELAYMS
  -------         PROC          _DISPLAY_RESULT
  D:000AH         SYMBOL        d
  C:023FH         LINE#         35
  C:0241H         LINE#         36
  C:0241H         LINE#         37
  C:0246H         LINE#         38
  C:024CH         LINE#         39
  C:0252H         LINE#         40
  -------         ENDPROC       _DISPLAY_RESULT
  -------         PROC          GETVALUE
  -------         DO            
  D:0007H         SYMBOL        num
  -------         ENDDO         
  C:02B0H         LINE#         42
  C:02B0H         LINE#         44
BL51 BANKED LINKER/LOCATER V6.00                                                      03/28/2021  17:45:53  PAGE 5


  C:02B2H         LINE#         45
  C:02B4H         LINE#         46
  C:02B6H         LINE#         47
  C:02B9H         LINE#         48
  C:02BBH         LINE#         49
  C:02BDH         LINE#         51
  C:02BFH         LINE#         52
  C:02BFH         LINE#         53
  -------         ENDPROC       GETVALUE
  -------         PROC          MAIN
  -------         DO            
  D:0008H         SYMBOL        i
  -------         ENDDO         
  C:000EH         LINE#         55
  C:000EH         LINE#         56
  C:000EH         LINE#         57
  C:0013H         LINE#         58
  C:0016H         LINE#         60
  C:0019H         LINE#         61
  C:001BH         LINE#         63
  C:001DH         LINE#         64
  C:001FH         LINE#         65
  C:0021H         LINE#         67
  C:0023H         LINE#         68
  C:0025H         LINE#         69
  C:0027H         LINE#         70
  C:0029H         LINE#         72
  C:002BH         LINE#         73
  C:002DH         LINE#         74
  C:002FH         LINE#         75
  C:0031H         LINE#         77
  C:0034H         LINE#         78
  C:0039H         LINE#         79
  C:0042H         LINE#         81
  C:0047H         LINE#         82
  C:0050H         LINE#         84
  C:0050H         LINE#         85
  C:0050H         LINE#         86
  C:0056H         LINE#         88
  C:0059H         LINE#         89
  C:005CH         LINE#         90
  C:005FH         LINE#         91
  C:0066H         LINE#         92
  C:006BH         LINE#         93
  C:0071H         LINE#         94
  C:0075H         LINE#         95
  C:0077H         LINE#         96
  C:007EH         LINE#         97
  C:0081H         LINE#         98
  C:0081H         LINE#         99
  C:0081H         LINE#         100
  C:0085H         LINE#         101
  C:008BH         LINE#         104
  C:0090H         LINE#         105
  C:0092H         LINE#         106
  C:0092H         LINE#         109
  C:0094H         LINE#         110
BL51 BANKED LINKER/LOCATER V6.00                                                      03/28/2021  17:45:53  PAGE 6


  C:0094H         LINE#         111
  C:0097H         LINE#         112
  C:009AH         LINE#         113
  C:009DH         LINE#         114
  C:00ACH         LINE#         115
  C:00AFH         LINE#         116
  C:00AFH         LINE#         117
  C:00B2H         LINE#         118
  C:00B2H         LINE#         119
  C:00B5H         LINE#         120
  C:00B8H         LINE#         121
  C:00BBH         LINE#         122
  C:00CAH         LINE#         123
  C:00CDH         LINE#         124
  C:00CDH         LINE#         125
  C:00D0H         LINE#         126
  C:00D0H         LINE#         127
  C:00D0H         LINE#         128
  C:00D5H         LINE#         131
  C:00D7H         LINE#         132
  C:00D7H         LINE#         133
  C:00DAH         LINE#         135
  C:00DFH         LINE#         136
  C:00E8H         LINE#         137
  C:00E8H         LINE#         140
  C:00EBH         LINE#         141
  -------         ENDPROC       MAIN
  -------         PROC          TIMER0_INT
  C:01D2H         LINE#         144
  C:01D6H         LINE#         146
  C:01D8H         LINE#         147
  C:01E7H         LINE#         148
  C:01E9H         LINE#         149
  C:01F4H         LINE#         150
  C:01F6H         LINE#         151
  -------         ENDPROC       TIMER0_INT
  -------         ENDMOD        20

  -------         MODULE        ?C?CLDOPTR
  C:017AH         PUBLIC        ?C?CLDOPTR
  -------         ENDMOD        ?C?CLDOPTR

Program Size: data=21.0 xdata=0 code=725
LINK/LOCATE RUN COMPLETE.  0 WARNING(S),  0 ERROR(S)
