:10000E00FFFFFFFF01C0FFDFFFDFFFDFFFDFFFDFCF
:10001E00FFDFFFDFFFFFFFFFFFFF07F0FBEFFDDF5F
:10002E00FDDFFDDFFDDFFBEF07F0FFFFFFFFFFFF53
:10003E0001F8FFF7FFEFFFDFFFDFFFEFFFF701F83C
:10004E00FFFFFFFFFFFF01C07DDF7DDF7DDF7DDF77
:10005E007DDF7DDF7DDFFFFFFFFF87FF03FF01FEFB
:10006E0001FC01F801F001E003C0078003C001E0CC
:10007E0001F001F801FC01FE03FF87FFFFFFFFFF08
:10008E00DFFFDBF7DBB7DB7B0180DCFDDDBEDFBF37
:10009E00DFDF00ECDFF3DDEBD3DD5FBEDF07FFFF5D
:1000AE00FFFFFFFFFFFFFFFF8FFF03FE01FC01F8C5
:1000BE0000F000E000C000C00080018003000700D7
:1000CE00070003000180008000C000C000E000F0C7
:1000DE0001F801FC03FE8FFFFFFFFFFFFFFFFFFF95
:1000EE00FFFE7FFF9FFF0700F8FFBFEFDFF3E7FC88
:1000FE00F0BFF77F3780F7FFF7FED7F9E7E7FFFF8F
:10010E00FFFFFFFFFFFF1FF8E7E7FBDFFDBFFFFF6E
:10011E00FFFFFFFFFEFFFEFFFEFFFEFFFEFFFEFFE7
:10012E00FEFFFEFFFEFFFEFFFEFFFEFFFEFFFFFFD8
:10013E00FFFFFFFFFBFFE3FF9BFF7BFEFBF9FBE7F0
:10014E00FBF97BFE9BFFE3FFFBFFFFFFFFFFFFFFC4
:10015E00FEFFFEFFFEFFFEFFFEFFFEFFFEFFFEFFA9
:10016E00FEFFFEFFFEFFFEFFFEFFFEFFFFFFFFFF97
:10017E00FFFFFDBFFBDFE7E71FF8FFFFFFFFFFFFFE
:10018E00FBEFDBF7BBF97BFE9B7D63B3BFDFCFE7F6
:10019E00F0F937FEF7F9F7E7D7DFE7BFFF7FFFFF8D
:1001AE00BFFFBFBFBDDF33E0FFDFFFBF03B0FBBB51
:1001BE00FDBDFFBF0380FBBDFBBB03BCFFBFFFFF4D
:1001CE007FFF9FFF0700F8FFFB7F1B7EDBBADBD6AE
:1001DE00DBEE00D0DBBEDBBEDB7E1B7EFB7FFFFFDC
:1001EE00FF7FFF9F01E0DDFDDDFDDDFDDDFD01801B
:1001FE00DDFDDDFDDDBDDD7D0180FFFFFFFFFFFFCE
:10020E00F7FDF7FE76FF110067FFFFFCFFFF07E02B
:10021E0077F777F7000077F777F707E0FFFFFFFF35
:10022E00BFFFBFFFBBFFBBE19BEDABEDB3EDB8ED89
:10023E00B3E1ABBF9B7F3B80BBFFBFFFBFFFFFFFA9
:10024E00FF7FFF9F0160B57F55B001B565D515E500
:10025E007C905545655501456510D57FBD3FFFFF27
:10026E00BFEF9FC7AFEBB3EDBCEE3FEBCFC7FBFFCE
:10027E00FBFFFBFFFBBFFB7FFBBF03C0FFFFFFFFCF
:10028E00EFFDEFBDEF7E00806FFFFFFF6BFD9B85E7
:10029E00BBBDABBD1D80BDBD9CBDA505FFFDFFFF5C
:1002AE00EFFDEFBDEF7E00806FFFFFFF6BFD9B85C7
:1002BE00BBBDABBD1D80BDBD9CBDA505FFFDFFFF3C
:1002CE00EFFBEFFC2FFF00006FFFEFFEBBEDABEE81
:1002DE002BEB8BEBA000ABEB2BEBABEEBBEDFFFFF9
:1002EE00FFFFFFFFFFFF01CCFFFFFFFFFFFFFFFF41
:1002FE00FFFFFFFFFFFFFFFFFFFFFFFFFFFFFFFF00
:10030E00FFFFFFFFFFFFFFFF0000FFFFFFFFFFFFED
:10031E007FFF7F7F7BBF7BDF7BE701F87DFF7CFF6D
:10032E007DFF7FFF00007FFF7FFF7FFF7FFFFFFFCF
:10033E00DFDDCF9853DD9CEDCFEDFFBFFDCFFD7020
:10034E00017FFDBCFDD39DEFA5D339BCFF7FFFFF21
:10035E00FF7F0180DFFEDFFEC000DF7FFF9F03E037
:10036E00DB7F1BBEDBD9DDE7DCD91DBEFF7FFFFFC8
:10037E00FFFFFFFFFFFFFFFF0000FFFFFFFFFFFF7D
:10038E00F7BFF7C777FF77FF77C377BF77BF00BD9C
:10039E0077B377BF77BF778F77FBF7F7F7CFFFFF8F
:1003AE00EFFDF3FDDBFDDBFDDBFDDBBDDA7D198053
:1003BE00DBFDDBFDDBFDDBFDDBFDEBFDF3FDFFFF21
:1003CE00BFFFAFFFB1C1B7FDB7FD0000B7EDB7DDA1
:1003DE00B7E1BFFF07F0FFBFFF7F0080FFFFFFFF0A
:1003EE00FFFE7FFF9FFF0700F8FFBFFFCFFFF0FF6D
:1003FE00070077F777F777F777F7F7F7F7FFFFFF4E
:10040E00FFFFFFFFF7FFE7FFDBFF5BFFBDFEF9FE20
:10041E00D7F98FF77FF5FFEAFFD7FFCFFFBFFFFFBB
:10042E0003F0FDEFFDDFFE1FFE7FDEBF9EBF9EBF12
:10043E005ECF5EC3DED4DED7CEDBF2DBFCDBF2DBDF
:10044E00CEDBDED7DED45EC35ECF9EDF9EDFDEDF89
:10045E00FEDFFDDFFDEF03F0FFFFFFFFFFFFFFFFFE
:10046E00FFFF7FFC1FF80FF007E007E003C003C09B
:10047E00018001800180818181818181C183C3C31B
:10048E00C3C3E7E7E7E7EFF7FFFF3FFC1FF81FF8EF
:10049E001FF81FF83FFCFFFFFFFF3FFC1FF81FF880
:1004AE001FF81FF83FFCFFFFFFFF3FFC1FF81FF870
:1004BE001FF81FF83FFCFFFFEFF7E7E7E7E7C3C3BF
:1004CE00C3C3C183818181818181018001800180CB
:1004DE0003C003C007E007E00FF01FF87FFCFFFF2B
:1004EE00FFFFFFFFFFFFFFFF03FF03FF01FF01FF02
:1004FE00007F007F001F001F000F0003000300039A
:10050E0000010001000100010001000100010001D5
:10051E00000100010003000300070007000F000F99
:10052E00000F000F001F001F001F003F003F003F85
:10053E00003F003F003F003F003F003F003F003FB5
:10054E00003F003F003F003F003F001F001F001F05
:10055E00001F000F000F000F000F001F003F003F95
:10056E00003F003F003F003F003F007F007F007FC5
:10057E00007F007F007F007F007F003F003F003F35
:10058E00003F003F003F003F001F001F000F000F05
:10059E00000F000F0007000300030003000300011B
:1005AE00000100010001000100030003000300032D
:1005BE0000030007000F001F003F007F00FF00FF39
:1005CE0001FF03FF03FF03FF97839783AB038107AD
:1005DE009A079A879A878E0F8F6F8F7F87FF87FF75
:1005EE00D7FFD3FFD9FF49FF41FF41FF49FF6BFF03
:1005FE006BFF7FFF7FFFFFFFFFFFFFFFFFFFFFFF91
:10060E00FFFFFFFFFFFFFFFFFFFFFFFFFFFFFFFFEC
:10061E00FFFFFFFFFFFFFFFFFFFFFFFFFFFFBFFF1C
:10062E00AAF9AAF9AAB982398E01A801A9FDB1FFCA
:10063E00B7FF87FF87FF07FF037F037F023F183F48
:10064E001ABF383F231F031F079F67936F834FC344
:10065E004FFF4FFF4FFF5FFF5FFF5FFF5FFF5FFFCC
:10066E005FFF1FFF1FFF1FFF1FFF19FF19FF19FF5E
:10067E0019FF19FF18FF19FF19FF39FF39FF39FF4D
:10068E0019FF18FF18FF18FF18FF18FF11FF11FFB1
:10069E0011FF59FF5BFF5BFF5BFF51FF41FF6B1FBC
:1006AE00731F5107902790272E016F015309790967
:1006BE003A09124317031707075727DF27FF27FFAC
:1006CE0027FF27FF27FF27FF27FF27FF27FF23FFF0
:1006DE0023FF27FF37FF17FF17FF17FF1FFF1FFF10
:1006EE005FFF5FFF5FFF5FFF5FFF5FFF5FFF5FFF0C
:1006FE005FFF5FFF1FFF1FFF1FFF3FFF2CFF2CFF42
:10070E0028BF243F261F681F591F4B1F439F589F0A
:10071E00D89FC49994599101A1008FFF0FFF1FFF1D
:10072E003FFF3FFF3FFF9FFFBFFFBFFFBFFF3FFFEB
:10073E003FFF3FFF3FFF3FFF3FFF3FFF3FFF3FFFBB
:10074E003FFF3FFF3FFF3FFF3FFF3FFFAFFF8FFFEB
:10075E000FFFCFFFAFFFAFFFA7FFA7FF27FFAFFF33
:10076E00AFFFAFFFAFFF8FFF8FFFAFFFAFFFAFFF4B
:10077E00AFFFAFFFAFFFEFFFC7FF47FF67FF67FF9B
:10078E0063FF6387638740239A839B83CD03CD07E3
:10079E00DA07D287D607C60FC76FCF7FCFFFCFFF3F
:1007AE00CFFF8FFFCFFFCFFFCFFFCFFFCFFFDAFF00
:1007BE00D8FFD87FC07FC47FD5FFD1FFD3FFD3FF33
:1007CE00D7FFC7FFC7FFCFFFCFFFCFFFCFFFCFFFB3
:1007DE00CFFFFFFFFFFFFFFFFFFFFFFFFCFFFCFF51
:1007EE00F87FF83FFA18F019E101E1C7E9D7EBFFFE
:1007FE00E3FFE3FFE7FFC7FFC7FFC7FFC6FFD4FF57
:10080E00D4FFD0FFD27FDA3F981F9A9093818381D5
:10081E0087FF97FF97FF87FF87FFAFFFAFFF8FFF22
:10082E008FFF9FFF9FFF9FFF9FFF99FF99FF99FFEC
:10083E0099FF99FF98FF99FF99FFB9FFB9FFB9FF8B
:10084E0099FF98FF98FF98FF98FF98FF91FF91FFEF
:10085E0091FF99FF9BFF9BFF9BFF91FF81FFAB1FBA
:10086E00B31F91079027902757835783DB03C10748
:10087E004A074A874A874E0F4F6F477F4FFF4FFFFA
:10088E004FFFCFFFCFFFCFFFC87FC07FC33FCC7FCF
:10089E00CD7FE9FFEBFFE3FFE7FFE7FFE7FFE7FFB2
:1008AE00FFFFFFFFFFFFFFFFFFFFFFFFFFFFFFFF4A
:1008BE00FFFFFFFFFFFFFFFFFB7F787F685D601D7F
:1008CE0060956181418143FF53FF53FFD7FFC7FFFF
:1008DE00CFFFCFFF4FFF0FFF8FFFCFFFCABFC2BFAC
:1008EE00529FD81FD89F488F438F83CFEFCF6FC0B3
:1008FE008FE18FE18FFF9FFF9FFFDFFF5FFF5FFFA6
:10090E005FFF1FFF3FFF3FFFBFFFBFFFBFFFBFFFE9
:10091E00BFFFBFFFBE7FBE7F3E7F3E7F3E7F3E7FDF
:10092E001E7F1C7F1E7F1E7F1E7F1C3F1C3F5C7F19
:10093E00587F58FF48FF49FF69FF71FF3BFFAB1F10
:10094E00AB1FA90788270127FFFFFFFFFFFFFFFF50
:10095E00FFFF7FFE3FFE1FFE0FF607F603F601B602
:10096E0000B600B601B603F607F60FF61FFE3FFE01
:10097E007FFEAFFEAFFEBFFABFFAFFEAFFEAFFABA4
:10098E00FFABFEAFFEAFFABFFABFEAFFEAFFABFF67
:10099E00ABFFFFFFF0FFE07FC03FC01FC00FE007BF
:1009AE00F003F003E007C00FC01FC03FE07FF0FF71
:1009BE00FFFFFF7FFFBFFFDFFFEFFFF7FFFBFFFD37
:1009CE00FFFEFFFDFFFBFFF7FFEFFFDFFFBFFF7F28
:1009DE00FEFFFFFFFFDFFFDFFFDFFFDFFFDFFFDFDA
:1009EE00FFDFFFDFFBDEFDDDFEDBFF57FF8FFFDFEF
:1009FE00FFFF8000FFFFFFFFFFFFFFFFFFFFFF2056
:100A0E0020FFFFFFFFF8F8FFF8F8FFFFEBFBA0EB6E
:100A1E00A0EBEBFFD1D580D580D5C5FF389AC8E7BE
:100A2E0013591CFF9966766696996FFFFFFFF8F8CB
:100A3E00FFFFFFFFFFFFC3BD7EFFFFFFFFFFFF7E38
:100A4E00BDC3FFFFFFD5F7C1F7D5FFFFFFF7F7C116
:100A5E00F7F7FFFFFFFF7F8FCFFFFFFFFFF7F7F7E0
:100A6E00F7F7FFFFFFFFFFFFFF9F9FFFFF3F9FCFA8
:100A7E00E7F3F9FFFFC3BD7E7EBDC3FFFFFF7D7DA4
:100A8E00007F7FFFFF7D3E5E6E7679FFFF6D6D6DA1
:100A9E006D6D01FFEFE7EBED00EFEFFFFF616D6DA9
:100AAE006D6D0DFF836D767676768FFFFFFE1EEEF3
:100ABE00F6FAFCFFFF817676767681FFFF616E6E29
:100ACE006E6E81FFFFFF2727FFFFFFFFFF7F139350
:100ADE00FFFFFFFFFFFFE7DBBD7EFFFFFFDBDBDB83
:100AEE00DBDBDBFFFFFF7EBDDBE7FFFFFFFDFE4E27
:100AFE00F6F9FFFFC3BD665A5A465DC33FCFD3DC3E
:100B0E00D3CF3FFFFF80B6B6B6B6C9FFE3DDBEBE9C
:100B1E00BEBEDDFFFF80BEBEBEDDE3FFFF80B6B60C
:100B2E00B6B6BEFFFF80F6F6F6F6FEFFE3DDBEBEFE
:100B3E00BEBE8DEFFF80F7F7F7F780FFFFFFBE8099
:100B4E00BEFFFFFFFFDFBFBE80FEFFFFFF80F7EBA4
:100B5E00DDBEBEFFFF80BFBFBFBFFFFF80FDE39FB7
:100B6E00E3FD80FF80FDFBF7EFDF80FFE3DDBEBE20
:100B7E00BEDDE3FFFF00EEEEEEEEF1FFE3DDBEBE07
:100B8E00AEDDA3BFFF80F6F6E6D6B9FFFFB9B6B667
:100B9E00B6B6CEFFFEFEFE80FEFEFEFFFFC0BFBF5E
:100BAE00BFBFC0FFFFF0CFBFBFCFF0FFE09FE7F9A1
:100BBE00E79FE0FFBEDDEBF7EBDDBEFFF8F7EF1FC3
:100BCE00EFF7F8FFFFBE9EAEB6BABCFFFFFF007E8A
:100BDE007E7EFFFFFEFDFBF7EFDFBF7FFFFF7E7E1A
:100BEE007E00FFFFFFFBFDFEFDFBFFFF7F7F7F7F94
:100BFE007F7F7F7FFFFFFCFCFFFFFFFFFFC7B6B6C7
:100C0E00B6B681BFFF80B7B7B7B7CFFFE7DBBDBDC5
:100C1E00BDFFFFFFFFCFB7B7B780FFFFFFC3B5B56F
:100C2E00B5B5F3FFFFF77701F6F5FFFFFFB1767667
:100C3E007681FFFFFF00EFF7F70FFFFFFFF7FB02D5
:100C4E007FBFFFFFFF3F7F7F02FFFFFFFF01DFAF91
:100C5E0077FFFFFFFFFFFF007FFFFFFF87FBFB8795
:100C6E00FBFB87FFFF87FBFBFB87FFFFFFC7BBBBC2
:100C7E00BBC7FFFFFF01EDEDF3FFFFFFFFF3EDED50
:100C8E00017FFFFFFFFD01F7FBFDFDFFFF736D6DA4
:100C9E006D9DFFFFFFF7F7017777B7FFFFC1BFBF6E
:100CAE00BF81BFFFF7E7DF3FDFE7F7FFC7BFDFE734
:100CBE00DFBFC7FFFFBBD7EFD7BBFFFFFFBEBDDB5D
:100CCE00E7FBFDFEFFBB9BABB3BBFFFFFFEF117D51
:100CDE007DFFFFFFFFFFFF00FFFFFFFFFFFFFF7D19
:100CEE007D11EFFFF7FBFBF7EFEFF7FF7A686979FE
:100CFE00755F6C696E7368656E6779692C71713A90
:100D0E003733313830313738392C71715F71756E38
:100D1E003A3534303431383132322E000404041076
:100D2E000403040000000000000000080804313233
:100D3E003A33343A3536002031362D323620200003
:100D4E00010104030000000000000000000000008C
:100D5E00000000000000000031323A33343A3536DC
:040D6E000005012C4F
:101FEF0001670001630001661B01650601642001A2
:081FFF0061060162120168068F
:101F1300C2B5C2B3D2B5E4FBC2B3AE07EE1392B4FB
:101F2300EFC313FFD2B30BBB08EEE4FBC2B3AE05A2
:101F3300EE1392B4EDC313FDD2B30BBB08EEC2B5DF
:011F4300227B
:0D200800C2B5C2B3C2B47D807F8E021F132B
:101ECC00E4FEC2B5C2B3D2B5FDC2B3AB07EB1392FD
:101EDC00B4EFC313FFD2B30DBD08EEE4FD30B4056F
:101EEC00430680800353067FD2B3EEC313FEC2B306
:101EFC000DBD08E9C2B5EEC4540FFFEE540FFEEF52
:061F0C0075F00AA42EFF8F
:011F120022AC
:0A202000D2AFE4F5E7F5E5F5E6229E
:101FC900900A00E493FC7401932FFFEC3EFE75E741
:101FD9008175E5018FE4F5E3C2AF75E64675E6B9AB
:051FE900AFE212202010
:011FEE0022D0
:0B201500EF1FAC0670011E4C70F6229D
:091FA000121FA97580FF7FF40EE9
:101FA900E4FDFCC3ED9FEC9E5015E4FBFA0BBB006E
:0F1FB900010AEB647A4A70F50DBD00010C80E45B
:011FC80022F6
:101F730078317C007D007BFF7A0C79FA7E007F301C
:101F8300121ACFE4FDFBEDFF7E00121FC974312D41
:0C1F9300F8E66F60010B0DBD2EECAF03F3
:011F9F00221F
:041CCF00AD68AF1A33
:041CD3008F2D8D2E96
:101CD700E4F52FF530121F73EF6003021D85F52F12
:101CE700E52DC394085012AF2D7401A80708800290
:101CF700C333D8FCF4F5808013E52D24F8FF740175
:101D0700A807088002C333D8FCF4F5A07F037E0040
:101D1700121FA9E52ED39408501EE4F530E530C311
:101D2700952E5038AF307401A807088002C333D806
:101D3700FCF45280053080E5E4F580F530E52E248B
:101D4700F8FFE530C39F5014AF307401A80708802F
:101D570002C333D8FCF452A0053080E17F0A7E002D
:101D670012201575A0FF7580FF7F067E00121FA940
:101D7700052FE52FC394425003021CE7800BC29046
:101D8700C2B27F307E75121FA930B7FD7F0A7E0071
:031D9700021FA97F
:1015F300E4F50AF50BF50DF50EF50F78107C00FDFB
:101603007BFF7A0D793CFE7F09121ACF751900759D
:101613001A00751B10781C7C007D007BFF7A0D7906
:10162300457E007F09121ACF7525007526007527A0
:101633001CD2B2D2B77FF47E01121FA97580FE7F40
:10164300C81E121FA97580FF121FA97580FE121FE5
:10165300A0E56575F00A842430F510E56575F00A98
:1016630084E5F02430F511E56675F00A842430F53D
:1016730013E56675F00A84E5F02430F514E5637527
:10168300F00A842430F516E56375F00A84E5F02446
:1016930030F517E56175F00A842430F51DE56175B1
:1016A300F00A84E5F02430F51EE56475F00A84241D
:1016B30030F520E56475F00A84E5F02430F5212047
:1016C300B7247F0A7E00121FA920B71A050EE4F57E
:1016D3000FF50D900D3993FDE50EC39D4003E4F521
:1016E3000EAF0E121CD330B2030216547F0A7E00D3
:1016F300121FA930B203021654050F7F35121FA91A
:10170300E4F508F509900D3BE493FD75F010A4FF93
:10171300C3E5099FE50895F040030219B2EDC43310
:1017230054E0850DF0A4FDACF0E50925E0FFE508E4
:1017330033FEED2FF50BEC3EF50AE50E0414B41061
:1017430000400302193890175775F003A4C5832589
:10175300F0C583730218C202178702179B0217AFE3
:101763000217C30217E90217FD0218110218250216
:10177300183902184C02185F0218720218850218F1
:10178300980218ABAF0BEF90000E93F580EFA39385
:10179300F5A0900D2A0218BCAF0BEF90008E93F5C5
:1017A30080EFA393F5A0900D2B0218BCAF0BEF9025
:1017B300010E93F580EFA393F5A0900D2C0218BCB6
:1017C300748E250BF5827401350AF583E493F58055
:1017D300748F250BF5827401350AF583E493F5A024
:1017E300900D2D0218BCAF0BEF90038E93F580EF95
:1017F300A393F5A0900D2E0218BCAF0BEF90040E2F
:1018030093F580EFA393F5A0900D2F0218BCAF0BB7
:10181300EF90046E93F580EFA393F5A0900D300243
:1018230018BCAF0BEF9004EE93F580EFA393F5A0F4
:10183300900D310218BCAF0BEF9004EF93F580EFDE
:10184300A393F5A0900D328070AF0BEF9004F0934B
:10185300F580EFA393F5A0900D33805DAF0BEF9070
:1018630004F193F580EFA393F5A0900D34804AAF74
:101873000BEF9004F293F580EFA393F5A0900D3551
:101883008037AF0BEF9004F393F580EFA393F5A0AC
:10189300900D368024AF0BEF9004F493F580EFA303
:1018A30093F5A0900D378011AF0BEF9004F593F5EE
:1018B30080EFA393F5A0900D38E493F50C80767533
:1018C3000C047E00E5095407FFAB19AA1AA91B12E1
:1018D3001AF575F008A42FF582EE35F0F583E5824D
:1018E3002402F582E5833409F583E493F580E50961
:1018F3005407FFAB25AA26A927121AF575F008A4E9
:101903002FF582EE35F0F583E5822402F582E58337
:101913003409F583E493F5A0E509540764077015CA
:1019230004251BF51BE4351AF51A74012527F52741
:10193300E43526F5267F647E00122015900D3BE4E6
:1019430093FDC43354E0850DF0A4FBE50925E0FFC6
:10195300E50833FEEB2FFFE5F03ECF2402FBE43F27
:10196300FAE50C75F020A4FFC3EB9FEA95F0403431
:10197300900D3AE493FFE50F9F4005E4F50FF50D55
:10198300ED75F010A4AEF024FFF509EE34FFF50871
:10199300751900751A00751B1075250075260075DD
:1019A300271C800B0509E50970020508021708903A
:1019B3000D3BE493C43354E0850DF0A4FDE5092504
:1019C300E0FFE50833FEED2FFFE5F03ECF2402FDF7
:1019D300E43FFCE50C75F020A4FFC3ED9FEC95F00C
:1019E3004003021654900D3AE493FFE50FC39F5052
:0C19F30003021654E4F50F050D02165413
:100D72007508037509E8E4F50AF50BF50CF50DF5B0
:100D82000EF50FF510F511F512F513F514F515F52D
:100D920016F517F51AF51BF51C781D7C00FD7BFF77
:100DA2007A0D7966FE7F09121ACFE4F52675274679
:100DB20075280EF529752A00752B1DF52C7FC8FEA6
:100DC200121FA97580EF121FA97580FF121FA97546
:100DD20080EF121FA00515E5157002051420B7203B
:100DE200051AE51AC395684003E4F51A121CCFE40C
:100DF200F50EF50FF510F511F516F517F512F513B9
:100E0200E56575F00A842430F51DE56575F00A8400
:100E1200E5F02430F51EE56675F00A842430F520ED
:100E2200E56675F00A84E5F02430F521E56375F096
:100E32000A842430F523E56375F00A84E5F0243052
:100E4200F524E51AC39402400302102120900E8576
:100E52001408851509E4F514F5153090FD0515E51E
:100E620015700205147F3C7E00122015AE14AF15DA
:100E7200E4FCFD7BDC7AFFF9F8C3121B75500675A2
:100E820014EA751560AE08AF097C007D0F121B0EC7
:100E9200AA06AB07AE14AF157D3B121B0EAD03AC19
:100EA20002121B208C0A8D0BAE08AF097C007D0557
:100EB200121B0EAA06AB07AE14AF157D3B121B0E1A
:100EC200AD03AC02121B208C0C8D0DD3E50D943CAE
:100ED200E50C940050087580FE75A0FF800675A091
:100EE200FF7580FFD3E50B943CE50A940050035351
:100EF20080F8AE14AF157C007D3B121B0E8E0A8F5C
:100F02000BAF637E00AC08AD09121B0E8E0C8F0D69
:100F120020B720051AE51AC395684003E4F51A12B2
:100F22001CCFE4F50EF50FF510F511F516F517F5D2
:100F320012F513E51A64016003020FBFE50D24E206
:100F4200FFE50C34FFFED3E50B9FE50A9E4018E552
:100F52000D241EFFE4350CFEC3E50B9FE50A9E50EF
:100F62000675A000538003AE14AF157C007D3B12C2
:100F72001B0EAC08AD09121B208E0C8F0DE566B559
:100F82000D09E4B50C05F5A053801FE56575F00C5D
:100F920084E5F075F005A4FFAEF0E56675F00C840B
:100FA2007C002FF50BEC3EF50AE50D650B7004E5B0
:100FB2000C650A6003020E44F5A0020E44AE14AFA3
:100FC200157C007D3B121B0EAC08AD09121B20D311
:100FD200EF9563EE940050035380EF8E0C8F0DD388
:100FE200E50D9566E50C9400500353807FE5657529
:100FF200F00C84E5F075F005A4FFAEF0E56675F03F
:101002000C847C002FF50BEC3EF50AD3E50D950B15
:10101200E50C950A4003020E4453A0FB020E44E580
:101022001A0424FDB40E0040030213DF90103C7535
:10103200F003A4C58325F0C583730210660210B6BF
:101042000210E802112D0211790211B60211F30207
:10105200123002126D0212AA0212E70213240213C4
:101062006002139C752602AB29AA2AA92B121AF533
:1010720075F008A42513F582E5F03512F583E582B3
:101082002402F582E5833409F583E493F5800513A0
:10109200E51370020512C39408E51294005003028E
:1010A20013DFE4F512F51304252BF52BE4352AF5AD
:1010B2002A0213DF752603751801751980E51125BB
:1010C2000FFFE510350EFE748E2FF58274013EF58A
:1010D20083E493F580748F2FF58274013EF583E4E7
:1010E20093F5A00213DFE511250FFFE51C75F0E073
:1010F200A424F6F582E43404F583E5822FF582E434
:101102003583F583E493F5A0E51C75F0E0A424F79C
:10111200F582E43404F583E5822FF582E43583F524
:1011220083E493F580900D4E0213D6E511250FFF4F
:10113200E510350EFE75F0E0E51CA424D6F582E537
:10114200F03405F583E5822FF582E5833EF583E4ED
:1011520093F5A075F0E0E51CA424D7F582E5F03400
:1011620005F583E5822FF582E5833EF583E493F569
:1011720080900D500213D6E511250FFF7456251CE1
:10118200F582E43409F583E5822FF582E43583F5AF
:1011920083E493F5A07457251CF582E43409F583A2
:1011A200E5822FF582E43583F583E493F580900D93
:1011B200520213D6E511250FFF7457251CF582E460
:1011C2003409F583E5822FF582E43583F583E493D0
:1011D200F5A07458251CF582E43409F583E5822FC5
:1011E200F582E43583F583E493F580900D54021380
:1011F200D6E511250FFF7458251CF582E43409F554
:1012020083E5822FF582E43583F583E493F5A074B8
:1012120059251CF582E43409F583E5822FF582E431
:101222003583F583E493F580900D560213D6E511CC
:10123200250FFF7459251CF582E43409F583E582F4
:101242002FF582E43583F583E493F5A0745A251CC7
:10125200F582E43409F583E5822FF582E43583F5DE
:1012620083E493F580900D580213D6E511250FFF04
:10127200745A251CF582E43409F583E5822FF58240
:10128200E43583F583E493F5A0745B251CF582E4D1
:101292003409F583E5822FF582E43583F583E493FF
:1012A200F580900D5A0213D6E511250FFF745B25C8
:1012B2001CF582E43409F583E5822FF582E4358357
:1012C200F583E493F5A0745C251CF582E43409F5FA
:1012D20083E5822FF582E43583F583E493F58090EC
:1012E2000D5C0213D6E511250FFF745C251CF582F7
:1012F200E43409F583E5822FF582E43583F583E44E
:1013020093F5A0745D251CF582E43409F583E5822A
:101312002FF582E43583F583E493F580900D5E0228
:1013220013D6E511250FFF745D251CF582E43409FF
:10133200F583E5822FF582E43583F583E493F5A006
:10134200745E251CF582E43409F583E5822FF5826B
:10135200E43583F583E493F580900D608076E511A2
:10136200250FFF745E251CF582E43409F583E582BE
:101372002FF582E43583F583E493F5A0745F251C91
:10138200F582E43409F583E5822FF582E43583F5AD
:1013920083E493F580900D62803AE511250FFF7486
:1013A2005F251CF582E43409F583E5822FF582E49A
:1013B2003583F583E493F5A07460251CF582E4344B
:1013C20009F583E5822FF582E43583F583E493F50D
:1013D20080900D64E493F51BA3E493F52CE51AC306
:1013E20094044010E51AD3940F500975260175181C
:1013F200007519E0E526B4012DAF287E00AC16ADCC
:1014020017121B0EEF7803C333CE33CED8F9FBAAE3
:1014120006AF2C7E00AC14AD15121B0ED3EF9BEE63
:101422009A50035380FEAF277E001220157580FF6D
:1014320075A0FFE52775F00784FF7E00122015E5F1
:1014420011250FFFE510350EFEE51924FEFDE51806
:1014520034FFFCC3EF9DEE9C500BAB29AA2AA92BAB
:10146200121AF57072752900752A00752B1D75A068
:10147200FF7580FF30903420B720051AE51AC39516
:10148200684003E4F51A121CCFE4F50EF50FF510CF
:10149200F511F516F517F512F5137F0A7E001220E5
:1014A200150513E51370CD051280C9AE12AF137C7A
:1014B200007D46121B0EEF7803CEC313CE13D8F96C
:1014C200FFAD277C00121B20EF2515F515EE351414
:1014D200F514E4F512F513309026E511250FFFE51A
:1014E20010350EFEE51924FEFDE51834FFFCC3EFAE
:1014F2009DEE9C500B7402250FF50FE4350EF50E90
:10150200309003020DD7E52875F008A4FFAEF02451
:1015120001FDE43EFCD3E5159DE5149C4002052740
:10152200EF24FFFFEE34FFFEC3E5159FE5149E5046
:10153200021527E4F514F515F529752A00752B1DFA
:10154200F512F5137580FFE51924FEFFE51834FF47
:10155200FEC3E5119FE5109E400BE4F510F511F571
:1015620016F517800B74022511F511E43510F510EC
:10157200E52664016005E526B40205E4F510F511DF
:10158200E4F50EF50F3090FDE526B4033AC3E517F6
:101592009478E5169400501274022517F517E43575
:1015A20016F516E4F510F511800675160075177814
:1015B200C374789517FFE49516FEAD277C00121BC5
:1015C2000E122015020DD70517E51770020516C376
:1015D200952CE51694005003020DD7E4F516F51785
:1015E200051CE51C951B5003020DD7E4F51C020DEA
:0115F200D721
:101B9700E4F508F509F50AF50BF50C750D017FC895
:101BA700FE121FA975A0FE121FA975A0FF121FA97B
:101BB70075A0FE121FA975A0FF7FF40E121FA9754D
:101BC700F020E50CA4F58285F083AF0975F002EFEC
:101BD700121B8BE5822460F582E5833409F583E4E3
:101BE70093F5A075F020E50CA4F58285F08375F0D8
:101BF70002EF121B8BE5822461F582E5833409F538
:101C070083E493F5807F5A7E001220157FC87E00FB
:101C17001220150509E5097002050825E0FFE5080A
:101C270033FEEF2402FFE43EFEC3EF9420EE940060
:101C3700400DE4F508F509050BE50B7002050A20D0
:101C4700B739050CE50DB40105E4F50DF50C900D5C
:101C57006FE493FEFDE50CFB3395E0FAC3EB9D744F
:101C670080F86A98400B750CFF750D01E4F50AF5CD
:101C77000BE50C04FFEE04FD121CD3E50D640160B7
:101C870003021BC6D3E50C648094805003E4F50C73
:101C9700D3900D70740193950BE493950A4003025A
:101CA7001BC6E4F50AF50B050C900D6F93FFAD0C01
:101CB700ED3395E0FCC3ED9F7480F86C98500302F8
:081CC7001BC6E4F50C021BC66C
:101D9A00758901758CEEE4F58AD2AFD2A9D28CD2BC
:101DAA00901220087F81121ECC8F637F83121ECC73
:101DBA008F667F85121ECC8F657F87121ECC8F643B
:101DCA007F89121ECC8F617F8D121ECC8F62E564D3
:101DDA00C3942050287F8D121ECCEFB5621F7F89D5
:101DEA00121ECCEFB561167F87121ECCEFB5640DBB
:101DFA00E4F5A07FF47E01121FA975A0FF209503C8
:101E0A001215F330B1047F0180027F003095047E01
:101E1A000180027E00EE5F6003120D723095047F2E
:101E2A000180027F0020B1047E0180027E00EE5F05
:061E3A006003121B972259
:03000B00021F448D
:101F4400C0E0C0D0758CEE758A000567E567B4C83B
:101F5400050563756700E563B43C050566756300B4
:0F1F6400E566B43C050565756600D0D0D0E03267
:03000000021E409D
:0C1E4000787FE4F6D8FD758168021E87EB
:1019FF00E709F608DFFA8046E709F208DFFA803ECA
:101A0F0088828C83E709F0A3DFFA8032E309F608B6
:101A1F00DFFA8078E309F208DFFA807088828C831E
:101A2F00E309F0A3DFFA806489828A83E0A3F608D2
:101A3F00DFFA805889828A83E0A3F208DFFA804CAC
:101A4F0080D280FA80C680D4806980F28033801083
:101A5F0080A680EA809A80A880DA80E280CA8033EC
:101A6F0089828A83ECFAE493A3C8C582C8CCC58364
:101A7F00CCF0A3C8C582C8CCC583CCDFE9DEE78034
:101A8F000D89828A83E493A3F608DFF9ECFAA9F0B3
:101A9F00EDFB2289828A83ECFAE0A3C8C582C8CC09
:101AAF00C583CCF0A3C8C582C8CCC583CCDFEADE22
:101ABF00E880DB89828A83E493A3F208DFF980CC84
:101ACF0088F0EF60010E4E60C388F0ED2402B4047D
:101ADF000050B9F582EB2402B4040050AF23234524
:061AEF008223901A4F73E0
:101AF500BB010689828A83E0225002E722BBFE02EF
:091B0500E32289828A83E4932221
:101B0E00EF8DF0A4A8F0CF8CF0A428CE8DF0A42EEB
:021B1E00FE22A5
:101B2000BC000BBE0029EF8DF084FFADF022E4CCA9
:101B3000F875F008EF2FFFEE33FEEC33FCEE9DEC72
:101B4000984005FCEE9DFE0FD5F0E9E4CEFD22EDB8
:101B5000F8F5F0EE8420D21CFEADF075F008EF2F02
:101B6000FFED33FD4007985006D5F0F222C398FDF3
:051B70000FD5F0EA2290
:101B7500EB9FF5F0EA9E42F0E99D42F0EC6480C8E7
:061B850064809845F02287
:0C1B8B00A42582F582E5F03583F5832265
:101E4C00021D9AE493A3F8E493A34003F68001F2F5
:101E5C0008DFF48029E493A3F85407240CC8C33397
:101E6C00C4540F4420C8834004F456800146F6DF66
:101E7C00E4800B0102040810204080901FEFE47EE8
:101E8C00019360BCA3FF543F30E509541FFEE4935B
:101E9C00A360010ECF54C025E060A840B8E493A322
:101EAC00FAE493A3F8E493A3C8C582C8CAC583CA4D
:101EBC00F0A3C8C582C8CAC583CADFE9DEE780BE05
:0120070000D8
:00000001FF
