:0A087100C0F9A4B0999282F88090BB
:10071C00012A0C012B0C012800012600082DC0F920
:10072C00A4B0999282F8013600012100012C00013D
:10073C00220C0123000135000129000127000124AE
:04074C000001250083
:1008140053890F438920758DFD758BFDD28EC29F40
:09082400D29ED2AFD2ACD29C22CC
:0C086500C2AC8F993099FDC299D2AC2230
:0607CC008B198A1A891B3B
:1007D200E4FDFCAB19AA1AA91B8D828C8312053D7C
:0D07E200FF600A1208650DBD00010C80E6E5
:0107EF0022E7
:10084200EF1313543F1392A2EFC3131392A1EF13AA
:0308520092A0224F
:0407F0007F0A7E00FE
:1007F400E4FDFCC3ED9FEC9E5015E4FBFA0BBB003B
:0F080400010AEB647B4A70F50DBD00010C80E426
:0108130022C2
:10085500438901758CDCE4F58AD2AFD2A9D28C220A
:10000E00E4F512F513F514F5157580FFD2B7120845
:10001E00551207A41206E07F147E001207F420B2D8
:10002E001B1207F020B2150512E512C3940340030C
:10003E00E4F512E4F52130B2FD1207F020B31C12E4
:10004E0007F020B316C374019521F521E512B40211
:10005E0007C374019525F52530B3FD20B43B120777
:10006E00F020B435E512700C0515E515C394034068
:10007E0003E4F515E512B4010C0515E515C394035B
:10008E004003E4F515E512B40209E4F529F527F568
:10009E0024F52530B4FD1207F030B60302012A1202
:1000AE0007F020B677E512702FE515700BE52A7074
:1000BE0005752A178002152AE515B4010BE52B707C
:1000CE0005752B3B8002152BE515B4020BE5287048
:1000DE000575283B80021528E51264017038E51578
:1000EE00700EE522D394005005752217800215225A
:1000FE00E515B4010EE523D39400500575233B801E
:10010E00021523E515B4020EE535D394005005759E
:10011E0035018002153530B6FD1207F020B57A1282
:10012E0007F020B574E5127032E515700C052AE55E
:10013E002AC394184003E4F52AE515B4010C052BE7
:10014E00E52BC3943C4003E4F52BE515B4020C05F6
:10015E0028E528C3943C4003E4F528E512640170B9
:10016E0032E515700C0522E522C394184003E4F520
:10017E0022E515B4010C0523E523C3943C4003E4AA
:10018E00F523E515B4020C0535E535C3940240039D
:10019E00E4F53530B5FD1207F0E535B40112E52270
:1001AE00B52A09E523B52B04C2B78006D2B7800263
:1001BE00D2B7E5127079752FBF7532BFE52A75F08B
:1001CE000A8475F00A84E5F090087193F52DE52AFE
:1001DE0075F00A84E5F093F52EE52B75F00A84751B
:1001EE00F00A84E5F093F530E52B75F00A84E5F01E
:1001FE0093F531E52875F00A8475F00A84E5F093DD
:10020E00F533E52875F00A84E5F093F534E521B46D
:10021E00011DE52CC394645016E51575F003A42456
:10022E002DF876FFE51575F003A4242EF876FFE57C
:10023E00126401706D752FBF7532FF7533FFE522A5
:10024E0075F00A8475F00A84E5F090087193F52D27
:10025E00E52275F00A84E5F093F52EE52375F00A94
:10026E008475F00A84E5F093F530E52375F00A8481
:10027E00E5F093F531E53575F00A84E5F093F53444
:10028E00E521B4011DE52CC394645016E51575F0F7
:10029E0003A4242DF876FFE51575F003A4242EF89B
:1002AE0076FFE512640260030203720514E5147012
:1002BE00020513C39432E5139400405FE4F513F581
:1002CE00141206E0AC06AD07E4120483E4FBFA79DF
:1002DE0080783D1203781204BCAB07AA06C3EB94D8
:1002EE0001EA940040357C007D0A12056A7C007D8F
:1002FE000A12056A74712DF58274083CF583E49335
:10030E00F52DAE02AF037C007D0A12056A74712DC5
:10031E00F58274083CF583E493F52E752FFFE529DD
:10032E0075F00A8475F00A84E5F090087193F53043
:10033E00E52975F00A84E5F093547FF531E52775CC
:10034E00F00A8475F00A84E5F093F532E52775F02E
:10035E000A84E5F093547FF533E52475F00A84E5BD
:0A036E00F093F5341207F002002CA2
:03000B0002065991
:10065900C0E0C0D075D008758CEE758A000536E506
:1006690036C3940840037536007580FFAF3612080B
:1006790042742D2536F8E6F580E525B401240524D4
:10068900E524C394C840057524000527E527C394CC
:100699003C40057527000529E529C3943C400375AD
:1006A9002900052CE52CC394C84005752C000528A4
:1006B900E528C3943C4005752800052BE52BC39418
:1006C9003C4005752B00052AE52AC394184003759B
:0706D9002A00D0D0D0E0326E
:1007A400C200D2A37F05120003C2A37FC8120003B4
:1007B4007FC8120003D2A37F32120003A2A39200C7
:0707C4007F19120003A200DF
:0107CB00220B
:10077B00E4F517F518751708C2A3E518C313F51898
:10078B00D2A330A3034318807F191200031517E57A
:08079B0017D3940050E2AF18DF
:0107A3002233
:020751008F1700
:10075300E4F518751808C2A3E5171392A37F1912BD
:100763000003D2A3E517C313F5171518E518D3949F
:080773000050E37F19020003AE
:1006E000E4F516FFFEFDFC1207A47FCC1207517F34
:1006F000441207517F0612082D1207A47FCC12075F
:10070000517FBE12075112077B8F1612077BEF7FB6
:0B07100000FEEF2516FDE43EFEAF05E5
:01071B0022BB
:03000300DFFE22FB
:10082D00AE07AF061EEF600C7FF51200037FF512C9
:05083D00000380EE2223
:10037800EC4D6011E8497017ED33EC3304600DE47F
:10038800FCFFFEFD22E933E8330470F80205281269
:1003980004F358046009E4CC24815006285009026B
:1003A800053228400302052FC0E0EB4A7044B980AB
:1003B80006D0E0FB02051EEF4E701CBD8008EBFF67
:1003C800EAFEE9FD80EBE98DF0A4FEE5F0020461A8
:1003D800E9CDF9EAFEEBFFEF89F0A4FCE5F0CE8960
:1003E800F0A42EFFE435F0CD89F0A42DFEE435F01D
:1003F8008067EF4E7005BD80D780C3EF8BF0A4AC4B
:10040800F0EE8BF0A42CFCE435F0F8EF8AF0A42C85
:10041800E5F038FCE433CB8DF0A42CFCE5F03BF898
:10042800EE8AF0A42CFCE5F038F8E433CF89F0A488
:100438002CFCE5F038CF3400CE89F0A42FFFE5F08E
:100448003EFEE433C98DF0A42EFEE5F039CD8AF0E6
:10045800A42FFFE5F03EFEE43DFD33D0E0FB50075E
:100468000BBB000F020532EC2CFCEF33FFEE33FE22
:06047800ED33FD02050A50
:10047E0075F020800E75F010800575F0087D007EF9
:10048E00007F003392D530D5031205BFEC334010F8
:10049E00EF33FFEE33FEED33FDEC33FCD5F0ED2202
:0E04AE00E5F0247EA2D513CC92E7CDCEFF223E
:1004BC00EDD2E7CD33EC3392D524814006E4FFFE38
:1004CC00FDFC22FCE4CFCECDCC24E0501174FF8097
:1004DC00EDC3CC13CCCD13CDCE13CECF13CF047034
:0704EC00F030D5DE0205BF70
:1004F300E9D2E7C933E833F892D5EDD2E7CD33EC4F
:0705030033FC5002B2D522C7
:10050A00EC30E7100FBF000C0EBE00080DBD000452
:10051A000BEB6014A2D5EB13FCED92E7FD2274FFFE
:10052A00FCFDFEFF22E480F8A2D574FF13FC7D8057
:03053A00E480EF6B
:030000000205CD29
:0C05CD00787FE4F6D8FD75813602061434
:10053D00BB010CE58229F582E5833AF583E0225073
:10054D0006E92582F8E622BBFE06E92582F8E222BD
:0D055D00E58229F582E5833AF583E49322D7
:10056A00BC000BBE0029EF8DF084FFADF022E4CC75
:10057A00F875F008EF2FFFEE33FEEC33FCEE9DEC3E
:10058A00984005FCEE9DFE0FD5F0E9E4CEFD22ED84
:10059A00F8F5F0EE8420D21CFEADF075F008EF2FCE
:1005AA00FFED33FD4007985006D5F0F222C398FDBF
:0505BA000FD5F0EA225C
:0E05BF00C3E49FFFE49EFEE49DFDE49CFC224D
:1005D90002000EE493A3F8E493A34003F68001F22A
:1005E90008DFF48029E493A3F85407240CC8C33323
:1005F900C4540F4420C8834004F456800146F6DFF2
:10060900E4800B010204081020408090071CE47E5E
:10061900019360BCA3FF543F30E509541FFEE493E6
:10062900A360010ECF54C025E060A840B8E493A3AD
:10063900FAE493A3F8E493A3C8C582C8CAC583CAD8
:10064900F0A3C8C582C8CAC583CADFE9DEE780BE90
:0107500000A8
:00000001FF
