BL51 BANKED LINKER/LOCATER V6.00                                                        06/24/2020  10:39:01  PAGE 1


BL51 BANKED LINKER/LOCATER V6.00, INVOKED BY:
E:\KEIL\C51\BIN\BL51.EXE Text1.obj TO 1 RAMSIZE (256)


MEMORY MODEL: SMALL WITH FLOATING POINT ARITHMETIC


INPUT MODULES INCLUDED:
  Text1.obj (TEXT1)
  E:\KEIL\C51\LIB\C51FPS.LIB (?C?FPMUL)
  E:\KEIL\C51\LIB\C51FPS.LIB (?C?FPDIV)
  E:\KEIL\C51\LIB\C51FPS.LIB (?C?FCAST)
  E:\KEIL\C51\LIB\C51FPS.LIB (?C?CASTF)
  E:\KEIL\C51\LIB\C51FPS.LIB (?C?FPGETOPN)
  E:\KEIL\C51\LIB\C51S.LIB (?C_STARTUP)
  E:\KEIL\C51\LIB\C51S.LIB (?C?UIDIV)
  E:\KEIL\C51\LIB\C51S.LIB (?C?LNEG)
  E:\KEIL\C51\LIB\C51S.LIB (?C_INIT)


LINK MAP OF MODULE:  1 (TEXT1)


            TYPE    BASE      LENGTH    RELOCATION   SEGMENT NAME
            -----------------------------------------------------

            * * * * * * *   D A T A   M E M O R Y   * * * * * * *
            REG     0000H     0008H     ABSOLUTE     "REG BANK 0"
            DATA    0008H     0007H     UNIT         ?DT?TEXT1
            DATA    000FH     0001H     UNIT         _DATA_GROUP_
                    0010H     0010H                  *** GAP ***
            BIT     0020H.0   0000H.1   UNIT         _BIT_GROUP_
                    0020H.1   0000H.7                *** GAP ***
            IDATA   0021H     0001H     UNIT         ?STACK

            * * * * * * *   C O D E   M E M O R Y   * * * * * * *
            CODE    0000H     0003H     ABSOLUTE     
            CODE    0003H     02C8H     UNIT         ?C?LIB_CODE
            CODE    02CBH     014BH     UNIT         ?PR?MAIN?TEXT1
            CODE    0416H     008CH     UNIT         ?C_C51STARTUP
            CODE    04A2H     0088H     UNIT         ?PR?_GET_AD_RESULT?TEXT1
            CODE    052AH     0022H     UNIT         ?PR?LCD_INITIALISE?TEXT1
            CODE    054CH     001CH     UNIT         ?PR?_LCD_WRITE_COMMAND?TEXT1
            CODE    0568H     001AH     UNIT         ?PR?_DELAYMS?TEXT1
            CODE    0582H     001AH     UNIT         ?PR?_LCD_WRITE_DATA?TEXT1
            CODE    059CH     0014H     UNIT         ?PR?LCD_BUSY_CHECK?TEXT1
            CODE    05B0H     0011H     UNIT         ?CO?TEXT1
            CODE    05C1H     000AH     UNIT         ?C_INITSEG
            CODE    05CBH     0007H     UNIT         ?PR?_SET_DISP_POS?TEXT1



OVERLAY MAP OF MODULE:   1 (TEXT1)


SEGMENT                                 BIT_GROUP          DATA_GROUP 
  +--> CALLED SEGMENT                START    LENGTH     START    LENGTH
------------------------------------------------------------------------
BL51 BANKED LINKER/LOCATER V6.00                                                      06/24/2020  10:39:01  PAGE 2


?C_C51STARTUP                        -----    -----      -----    -----
  +--> ?PR?MAIN?TEXT1
  +--> ?C_INITSEG

?PR?MAIN?TEXT1                       -----    -----      000FH    0001H
  +--> ?PR?LCD_INITIALISE?TEXT1
  +--> ?PR?_DELAYMS?TEXT1
  +--> ?PR?_GET_AD_RESULT?TEXT1
  +--> ?PR?_SET_DISP_POS?TEXT1
  +--> ?CO?TEXT1
  +--> ?PR?_LCD_WRITE_DATA?TEXT1

?PR?LCD_INITIALISE?TEXT1             -----    -----      -----    -----
  +--> ?PR?_LCD_WRITE_COMMAND?TEXT1
  +--> ?PR?_DELAYMS?TEXT1

?PR?_LCD_WRITE_COMMAND?TEXT1         -----    -----      -----    -----
  +--> ?PR?LCD_BUSY_CHECK?TEXT1

?PR?LCD_BUSY_CHECK?TEXT1             0020H.0  0000H.1    -----    -----

?PR?_GET_AD_RESULT?TEXT1             -----    -----      -----    -----
  +--> ?PR?_DELAYMS?TEXT1

?PR?_SET_DISP_POS?TEXT1              -----    -----      -----    -----
  +--> ?PR?_LCD_WRITE_COMMAND?TEXT1

?PR?_LCD_WRITE_DATA?TEXT1            -----    -----      -----    -----
  +--> ?PR?LCD_BUSY_CHECK?TEXT1



SYMBOL TABLE OF MODULE:  1 (TEXT1)

  VALUE           TYPE          NAME
  ----------------------------------

  -------         MODULE        TEXT1
  C:0000H         SYMBOL        _ICE_DUMMY_
  C:0582H         PUBLIC        _LCD_Write_Data
  D:0080H         PUBLIC        P0
  D:0090H         PUBLIC        P1
  D:00A0H         PUBLIC        P2
  D:00B0H         PUBLIC        P3
  B:0090H.1       PUBLIC        DI
  D:00A8H         PUBLIC        IE
  B:0090H.2       PUBLIC        DO
  C:05CBH         PUBLIC        _Set_Disp_Pos
  B:0090H.3       PUBLIC        CS
  D:0008H         PUBLIC        Display_Buffer
  D:00B8H         PUBLIC        IP
  C:059CH         PUBLIC        LCD_Busy_Check
  B:00A0H.7       PUBLIC        RS
  B:00A0H.3       PUBLIC        buzzer
  C:02CBH         PUBLIC        main
  B:00A0H.6       PUBLIC        RW
  D:0098H         PUBLIC        SCON
BL51 BANKED LINKER/LOCATER V6.00                                                      06/24/2020  10:39:01  PAGE 3


  D:0088H         PUBLIC        TCON
  C:05B0H         PUBLIC        Line1
  B:00A0H.5       PUBLIC        E
  C:052AH         PUBLIC        LCD_Initialise
  C:054CH         PUBLIC        _LCD_Write_Command
  C:04ADH         PUBLIC        _Get_AD_Result
  B:00B0H.2       PUBLIC        relay1
  B:00B0H.3       PUBLIC        relay2
  B:00B0H.4       PUBLIC        relay3
  B:0090H.0       PUBLIC        CLK
  D:00C8H         PUBLIC        T2CON
  C:056CH         PUBLIC        _DelayMS
  D:00D0H         PUBLIC        PSW
  C:0568H         SYMBOL        L?0047
  -------         PROC          L?0046
  -------         ENDPROC       L?0046
  C:0568H         SYMBOL        L?0047
  -------         PROC          _DELAYMS
  D:0006H         SYMBOL        ms
  -------         DO            
  D:0005H         SYMBOL        i
  -------         ENDDO         
  C:056CH         LINE#         25
  C:056CH         LINE#         26
  C:056CH         LINE#         28
  C:0576H         LINE#         29
  C:0576H         LINE#         30
  C:0581H         LINE#         31
  C:0581H         LINE#         32
  -------         ENDPROC       _DELAYMS
  -------         PROC          LCD_BUSY_CHECK
  -------         DO            
  B:0020H.0       SYMBOL        result
  -------         ENDDO         
  C:059CH         LINE#         34
  C:059CH         LINE#         35
  C:059CH         LINE#         37
  C:059EH         LINE#         38
  C:05A0H         LINE#         39
  C:05A2H         LINE#         40
  C:05A6H         LINE#         41
  C:05ABH         LINE#         42
  C:05ADH         LINE#         43
  C:05AFH         LINE#         44
  -------         ENDPROC       LCD_BUSY_CHECK
  -------         PROC          _LCD_WRITE_COMMAND
  D:0007H         SYMBOL        cmd
  C:054CH         LINE#         46
  C:054CH         LINE#         47
  C:054CH         LINE#         48
  C:0551H         LINE#         49
  C:0553H         LINE#         50
  C:0555H         LINE#         51
  C:0557H         LINE#         52
  C:0558H         LINE#         53
  C:0559H         LINE#         54
  C:055BH         LINE#         55
BL51 BANKED LINKER/LOCATER V6.00                                                      06/24/2020  10:39:01  PAGE 4


  C:055FH         LINE#         56
  C:0561H         LINE#         57
  C:0565H         LINE#         58
  C:0567H         LINE#         59
  -------         ENDPROC       _LCD_WRITE_COMMAND
  -------         PROC          _SET_DISP_POS
  D:0007H         SYMBOL        pos
  C:05CBH         LINE#         61
  C:05CBH         LINE#         62
  C:05CBH         LINE#         63
  -------         ENDPROC       _SET_DISP_POS
  -------         PROC          _LCD_WRITE_DATA
  D:0007H         SYMBOL        dat
  C:0582H         LINE#         66
  C:0582H         LINE#         67
  C:0582H         LINE#         68
  C:0587H         LINE#         69
  C:0589H         LINE#         70
  C:058BH         LINE#         71
  C:058DH         LINE#         72
  C:058FH         LINE#         73
  C:0593H         LINE#         74
  C:0595H         LINE#         75
  C:0599H         LINE#         76
  C:059BH         LINE#         77
  -------         ENDPROC       _LCD_WRITE_DATA
  -------         PROC          LCD_INITIALISE
  C:052AH         LINE#         79
  C:052AH         LINE#         80
  C:052AH         LINE#         81
  C:0532H         LINE#         82
  C:053AH         LINE#         83
  C:0542H         LINE#         84
  -------         ENDPROC       LCD_INITIALISE
  C:04A4H         SYMBOL        L?0045
  -------         PROC          L?0044
  -------         ENDPROC       L?0044
  C:04A4H         SYMBOL        L?0045
  -------         PROC          _GET_AD_RESULT
  D:0007H         SYMBOL        ch_num
  -------         DO            
  D:0007H         SYMBOL        i
  D:0006H         SYMBOL        dat1
  D:0005H         SYMBOL        dat2
  -------         ENDDO         
  C:04ADH         LINE#         87
  C:04ADH         LINE#         88
  C:04ADH         LINE#         89
  C:04B0H         LINE#         90
  C:04B2H         LINE#         91
  C:04B4H         LINE#         92
  C:04BAH         LINE#         94
  C:04BEH         LINE#         95
  C:04C6H         LINE#         97
  C:04CAH         LINE#         98
  C:04D5H         LINE#         100
  C:04DDH         LINE#         101
BL51 BANKED LINKER/LOCATER V6.00                                                      06/24/2020  10:39:01  PAGE 5


  C:04E5H         LINE#         103
  C:04E7H         LINE#         104
  C:04E7H         LINE#         105
  C:04EBH         LINE#         106
  C:04EFH         LINE#         107
  C:04F9H         LINE#         108
  C:04FDH         LINE#         109
  C:04FFH         LINE#         110
  C:04FFH         LINE#         111
  C:0519H         LINE#         112
  C:051DH         LINE#         113
  C:0521H         LINE#         114
  C:0525H         LINE#         115
  C:0527H         LINE#         117
  C:0529H         LINE#         118
  -------         ENDPROC       _GET_AD_RESULT
  -------         PROC          MAIN
  -------         DO            
  D:000FH         SYMBOL        i
  D:0002H         SYMBOL        d
  -------         ENDDO         
  C:02CBH         LINE#         120
  C:02CBH         LINE#         121
  C:02CBH         LINE#         124
  C:02CEH         LINE#         125
  C:02D5H         LINE#         127
  C:02D7H         LINE#         128
  C:02D9H         LINE#         129
  C:02DBH         LINE#         130
  C:02DDH         LINE#         131
  C:02DDH         LINE#         132
  C:02DDH         LINE#         133
  C:02DFH         LINE#         134
  C:02E1H         LINE#         135
  C:02E1H         LINE#         136
  C:02E1H         LINE#         137
  C:0306H         LINE#         138
  C:0313H         LINE#         139
  C:0315H         LINE#         140
  C:031EH         LINE#         141
  C:0320H         LINE#         142
  C:0322H         LINE#         143
  C:0324H         LINE#         144
  C:0324H         LINE#         145
  C:0334H         LINE#         146
  C:0336H         LINE#         147
  C:033FH         LINE#         148
  C:0341H         LINE#         149
  C:0343H         LINE#         150
  C:0345H         LINE#         151
  C:0345H         LINE#         152
  C:0356H         LINE#         153
  C:0358H         LINE#         154
  C:0361H         LINE#         155
  C:0363H         LINE#         156
  C:0365H         LINE#         157
  C:0365H         LINE#         158
BL51 BANKED LINKER/LOCATER V6.00                                                      06/24/2020  10:39:01  PAGE 6


  C:0365H         LINE#         159
  C:038AH         LINE#         160
  C:038AH         LINE#         162
  C:039AH         LINE#         163
  C:03B1H         LINE#         165
  C:03C8H         LINE#         166
  C:03D8H         LINE#         167
  C:03DDH         LINE#         168
  C:03E0H         LINE#         169
  C:03E8H         LINE#         170
  C:03E8H         LINE#         171
  C:03F2H         LINE#         172
  C:03F4H         LINE#         173
  C:03F9H         LINE#         174
  C:03FCH         LINE#         175
  C:0407H         LINE#         176
  C:0407H         LINE#         177
  C:0414H         LINE#         178
  -------         ENDPROC       MAIN
  -------         ENDMOD        TEXT1

  -------         MODULE        ?C?FPMUL
  C:0003H         PUBLIC        ?C?FPMUL
  -------         ENDMOD        ?C?FPMUL

  -------         MODULE        ?C?FPDIV
  C:010CH         PUBLIC        ?C?FPDIV
  -------         ENDMOD        ?C?FPDIV

  -------         MODULE        ?C?FCAST
  C:01B3H         PUBLIC        ?C?FCASTC
  C:01AEH         PUBLIC        ?C?FCASTI
  C:01A9H         PUBLIC        ?C?FCASTL
  -------         ENDMOD        ?C?FCAST

  -------         MODULE        ?C?CASTF
  C:01E7H         PUBLIC        ?C?CASTF
  -------         ENDMOD        ?C?CASTF

  -------         MODULE        ?C?UIDIV
  C:0268H         PUBLIC        ?C?UIDIV
  -------         ENDMOD        ?C?UIDIV

  -------         MODULE        ?C?LNEG
  C:02BDH         PUBLIC        ?C?LNEG
  -------         ENDMOD        ?C?LNEG

Program Size: data=17.1 xdata=0 code=1490
LINK/LOCATE RUN COMPLETE.  0 WARNING(S),  0 ERROR(S)
