C51 COMPILER V8.02   TEXT1                                                                 06/24/2020 10:39:00 PAGE 1   


C51 COMPILER V8.02, COMPILATION OF MODULE TEXT1
OBJECT MODULE PLACED IN Text1.OBJ
COMPILER INVOKED BY: E:\keil\C51\BIN\C51.EXE Text1.c BROWSE DEBUG OBJECTEXTEND

line level    source

   1          #include <reg52.h>
   2          #include <intrins.h>
   3          #define uint unsigned int
   4          #define uchar unsigned char
   5          #define delay4us() {_nop_();_nop_();_nop_();_nop_();}   //延时4us
   6          
   7          sbit RS = P2^7;   //引脚定义，跟仿真图一致
   8          sbit RW = P2^6;
   9          sbit E  = P2^5;
  10          
  11          sbit CS  = P1^3;
  12          sbit CLK = P1^0;
  13          sbit DI  = P1^1;
  14          sbit DO = P1^2;
  15          
  16          sbit relay1 =P3^2;
  17          sbit relay2 =P3^3;
  18          sbit relay3 =P3^4;
  19          
  20          sbit buzzer =P2^3;
  21          
  22          uchar Display_Buffer[] = "00.00V";              //lcd1602上显示的
  23          uchar code Line1[] = "Current Voltage:";
  24          
  25          void DelayMS(uint ms)     //大概的ms延时函数
  26          {
  27   1              uchar i;
  28   1              while(ms--)
  29   1              {
  30   2                      for(i=0;i<120;i++);
  31   2              }
  32   1      }
  33          
  34          bit LCD_Busy_Check()      //lcd读忙函数
  35          {
  36   1              bit result;
  37   1              RS = 0;
  38   1              RW = 1;
  39   1              E  = 1;
  40   1              delay4us();
  41   1              result = (bit)(P0&0x80);
  42   1              E  = 0;
  43   1              return result;
  44   1      }
  45          
  46          void LCD_Write_Command(uchar cmd)          //写命令函数
  47          {
  48   1              while(LCD_Busy_Check());
  49   1              RS = 0;
  50   1              RW = 0;
  51   1              E  = 0;
  52   1              _nop_();
  53   1              _nop_();
  54   1              P0 = cmd;
  55   1              delay4us();
C51 COMPILER V8.02   TEXT1                                                                 06/24/2020 10:39:00 PAGE 2   

  56   1              E = 1;
  57   1              delay4us();
  58   1              E = 0;
  59   1      }
  60          
  61          void Set_Disp_Pos(uchar pos)     //设置lcd1602 光标位置
  62          {
  63   1              LCD_Write_Command(pos | 0x80);
  64   1      }
  65          
  66          void LCD_Write_Data(uchar dat)   //lcd写数据函数
  67          {
  68   1              while(LCD_Busy_Check());
  69   1              RS = 1;
  70   1              RW = 0;
  71   1              E  = 0;
  72   1              P0 = dat;
  73   1              delay4us();
  74   1              E = 1;
  75   1              delay4us();
  76   1              E = 0;
  77   1      }
  78          
  79          void LCD_Initialise()                   //lcd初始化设置
  80          {
  81   1              LCD_Write_Command(0x38); DelayMS(1);
  82   1              LCD_Write_Command(0x0c); DelayMS(1);
  83   1              LCD_Write_Command(0x06); DelayMS(1);
  84   1              LCD_Write_Command(0x01); DelayMS(1);
  85   1      }
  86          
  87          uchar Get_AD_Result(uchar ch_num)         //ADC0832读取电压  0-255值
  88          {
  89   1              uchar i,dat1=0,dat2=0;
  90   1              CS  = 0;
  91   1              CLK = 0;
  92   1              DI=DO = 1; _nop_(); _nop_();
  93   1      
  94   1              CLK = 1; _nop_(); _nop_();         
  95   1              CLK = 0;DI=DO = 1; _nop_(); _nop_(); //开始
  96   1              
  97   1              CLK = 1; _nop_(); _nop_();
  98   1              CLK = 0;DI=DO = ch_num; _nop_(); _nop_();       //哪一路输入
  99   1              
 100   1              CLK = 1;DI=DO = 1; _nop_(); _nop_();
 101   1              CLK = 0;DI=DO = 1; _nop_(); _nop_();
 102   1              
 103   1              for(i=0;i<8;i++)                                //获取前一半数据
 104   1              {
 105   2                      CLK = 1; _nop_(); _nop_();
 106   2                      CLK = 0; _nop_(); _nop_();
 107   2                      dat1 = dat1 << 1 | (DO);        //
 108   2              }
 109   1              for(i=0;i<8;i++)
 110   1              {
 111   2                      dat2 = dat2 << ((uchar)(DI)<<i);//
 112   2                      CLK = 1; _nop_(); _nop_();
 113   2                      CLK = 0; _nop_(); _nop_();
 114   2              }
 115   1              CS = 1;
 116   1              //return (dat1 == dat2) ? dat1:0;
 117   1              return dat1;
C51 COMPILER V8.02   TEXT1                                                                 06/24/2020 10:39:00 PAGE 3   

 118   1      }
 119          
 120          void main()
 121          {
 122   1              uchar i;
 123   1              uint d;
 124   1              LCD_Initialise();        //初始化lcd
 125   1              DelayMS(10);
 126   1      
 127   1              relay1=0;               //继电器 蜂鸣器 关闭
 128   1              relay2=0;
 129   1              relay3=0;
 130   1              buzzer=0;
 131   1              while(1)
 132   1              {
 133   2                      relay1=0;
 134   2                      relay2=0; 
 135   2                      relay3=1;  //选中  量程最大
 136   2                      DelayMS(5);
 137   2                      d = Get_AD_Result(0)*8241.0/255;  //理论值：83.3333
 138   2                      if(d>=8240)  buzzer=1;     //电压大于最大量程  鸣叫
 139   2                      else    buzzer=0;
 140   2                      if(d<=500){              //电压小于5V  
 141   3                              relay1=1;
 142   3                              relay2=0;
 143   3                              relay3=0;
 144   3                              DelayMS(5);
 145   3                          d = Get_AD_Result(0)*500.0/255;   //理论值 5.00
 146   3                      }
 147   2                      else if(d<=4000){          //电压小于40V时，自动切换量程  更精确
 148   3                              relay1=0;
 149   3                              relay2=1;
 150   3                              relay3=0;
 151   3                              DelayMS(5);
 152   3                          d = Get_AD_Result(0)*4130.0/255;   //理论值  42.00
 153   3                      }
 154   2                      else if(d<=6000){        //电压小于60V时，自动切换量程  更精确
 155   3                              relay1=0;
 156   3                              relay2=1;
 157   3                              relay3=1;
 158   3                              DelayMS(5);
 159   3                          d = Get_AD_Result(0)*6140.0/255;    //理论值： 61.813
 160   3                      } 
 161   2      
 162   2                      Display_Buffer[0]=d/1000+'0';    //将要显示的数据存入数组 缓存
 163   2                      Display_Buffer[1]=d/100%10+'0';
 164   2      
 165   2                      Display_Buffer[3]=d/10%10+'0';
 166   2                      Display_Buffer[4]=d%10+'0';
 167   2                      Set_Disp_Pos(0x01);                             //设置显示位置
 168   2                      i = 0;
 169   2                      while(Line1[i]!='\0')              //显示第一行 字符串
 170   2                      {
 171   3                              LCD_Write_Data(Line1[i++]);     
 172   3                      }        
 173   2                      Set_Disp_Pos(0x46);
 174   2                      i = 0;
 175   2                      while(Display_Buffer[i]!='\0')    //显示出电压值
 176   2                      {
 177   3                              LCD_Write_Data(Display_Buffer[i++]);
 178   3                      }
 179   2                      //DelayMS(200);
C51 COMPILER V8.02   TEXT1                                                                 06/24/2020 10:39:00 PAGE 4   

 180   2              }
 181   1      }
 182          
 183          
 184          
 185          
 186          
 187          
 188          
 189          
 190          


MODULE INFORMATION:   STATIC OVERLAYABLE
   CODE SIZE        =    608    ----
   CONSTANT SIZE    =     17    ----
   XDATA SIZE       =   ----    ----
   PDATA SIZE       =   ----    ----
   DATA SIZE        =      7       1
   IDATA SIZE       =   ----    ----
   BIT SIZE         =   ----       1
END OF MODULE INFORMATION.


C51 COMPILATION COMPLETE.  0 WARNING(S),  0 ERROR(S)
