BL51 BANKED LINKER/LOCATER V6.00                                                        08/11/2020  12:26:44  PAGE 1


BL51 BANKED LINKER/LOCATER V6.00, INVOKED BY:
E:\KEIL\C51\BIN\BL51.EXE Text1.obj TO 1 RAMSIZE (256)


MEMORY MODEL: SMALL


INPUT MODULES INCLUDED:
  Text1.obj (TEXT1)
  E:\KEIL\C51\LIB\C51S.LIB (?C_STARTUP)
  E:\KEIL\C51\LIB\C51S.LIB (?C?CLDOPTR)
  E:\KEIL\C51\LIB\C51S.LIB (?C?IMUL)
  E:\KEIL\C51\LIB\C51S.LIB (?C?SIDIV)
  E:\KEIL\C51\LIB\C51S.LIB (?C_INIT)
  E:\KEIL\C51\LIB\C51S.LIB (?C?UIDIV)


LINK MAP OF MODULE:  1 (TEXT1)


            TYPE    BASE      LENGTH    RELOCATION   SEGMENT NAME
            -----------------------------------------------------

            * * * * * * *   D A T A   M E M O R Y   * * * * * * *
            REG     0000H     0008H     ABSOLUTE     "REG BANK 0"
            DATA    0008H     0038H     UNIT         ?DT?TEXT1
            DATA    0040H     000DH     UNIT         _DATA_GROUP_
            IDATA   004DH     0001H     UNIT         ?STACK

            * * * * * * *   C O D E   M E M O R Y   * * * * * * *
            CODE    0000H     0003H     ABSOLUTE     
            CODE    0003H     0020H     UNIT         ?PR?_UART_SEND_CHAR?TEXT1
            CODE    0023H     0003H     ABSOLUTE     
            CODE    0026H     063AH     UNIT         ?PR?MAIN?TEXT1
            CODE    0660H     00CAH     UNIT         ?C?LIB_CODE
            CODE    072AH     008CH     UNIT         ?C_C51STARTUP
            CODE    07B6H     0085H     UNIT         ?CO?TEXT1
            CODE    083BH     007FH     UNIT         ?PR?GET_SHOWLCD?TEXT1
            CODE    08BAH     0061H     UNIT         ?PR?RX_INT?TEXT1
            CODE    091BH     0047H     UNIT         ?PR?_DS1302_READ?TEXT1
            CODE    0962H     0042H     UNIT         ?PR?_STEP2_SHUN?TEXT1
            CODE    09A4H     0042H     UNIT         ?PR?_STEP3_SHUN?TEXT1
            CODE    09E6H     003EH     UNIT         ?PR?_STEP1_SHUN?TEXT1
            CODE    0A24H     003BH     UNIT         ?PR?_PRINT_STRING?TEXT1
            CODE    0A5FH     003AH     UNIT         ?PR?_STEP123?TEXT1
            CODE    0A99H     0035H     UNIT         ?PR?DS1302_RESET?TEXT1
            CODE    0ACEH     0034H     UNIT         ?PR?_DS1302_WRITE?TEXT1
            CODE    0B02H     002FH     UNIT         ?C_INITSEG
            CODE    0B31H     002CH     UNIT         ?PR?_WRITE_DATA?TEXT1
            CODE    0B5DH     0024H     UNIT         ?PR?_UART_SEND_STR?TEXT1
            CODE    0B81H     0022H     UNIT         ?PR?LCD_INIT?TEXT1
            CODE    0BA3H     0021H     UNIT         ?PR?_UART_SEND?TEXT1
            CODE    0BC4H     001FH     UNIT         ?PR?_DELAY_MS?TEXT1
            CODE    0BE3H     001EH     UNIT         ?PR?_WRITE_COM?TEXT1
            CODE    0C01H     0019H     UNIT         ?PR?UART_INIT?TEXT1
            CODE    0C1AH     000DH     UNIT         ?PR?DS1302_INIT?TEXT1
            CODE    0C27H     0006H     UNIT         ?PR?STEP_STOP?TEXT1

BL51 BANKED LINKER/LOCATER V6.00                                                      08/11/2020  12:26:44  PAGE 2




OVERLAY MAP OF MODULE:   1 (TEXT1)


SEGMENT                             DATA_GROUP 
  +--> CALLED SEGMENT             START    LENGTH
-------------------------------------------------
?PR?RX_INT?TEXT1                  -----    -----
  +--> ?CO?TEXT1
  +--> ?PR?_UART_SEND_STR?TEXT1

?PR?_UART_SEND_STR?TEXT1          0048H    0003H
  +--> ?PR?_UART_SEND_CHAR?TEXT1

*** NEW ROOT ***************************************************

?C_C51STARTUP                     -----    -----
  +--> ?PR?MAIN?TEXT1
  +--> ?C_INITSEG

?PR?MAIN?TEXT1                    0043H    0005H
  +--> ?PR?_DELAY_MS?TEXT1
  +--> ?PR?UART_INIT?TEXT1
  +--> ?PR?LCD_INIT?TEXT1
  +--> ?PR?DS1302_INIT?TEXT1
  +--> ?PR?STEP_STOP?TEXT1
  +--> ?PR?_WRITE_COM?TEXT1
  +--> ?CO?TEXT1
  +--> ?PR?_PRINT_STRING?TEXT1
  +--> ?PR?GET_SHOWLCD?TEXT1
  +--> ?PR?_DS1302_WRITE?TEXT1
  +--> ?PR?_UART_SEND_STR?TEXT1
  +--> ?PR?_WRITE_DATA?TEXT1
  +--> ?PR?_STEP123?TEXT1

?PR?LCD_INIT?TEXT1                -----    -----
  +--> ?PR?_WRITE_COM?TEXT1

?PR?_WRITE_COM?TEXT1              -----    -----
  +--> ?PR?_DELAY_MS?TEXT1

?PR?DS1302_INIT?TEXT1             -----    -----
  +--> ?PR?_DS1302_WRITE?TEXT1

?PR?_PRINT_STRING?TEXT1           0048H    0005H
  +--> ?PR?_WRITE_DATA?TEXT1

?PR?_WRITE_DATA?TEXT1             -----    -----
  +--> ?PR?_DELAY_MS?TEXT1

?PR?GET_SHOWLCD?TEXT1             -----    -----
  +--> ?PR?_DS1302_READ?TEXT1
  +--> ?PR?_WRITE_COM?TEXT1
  +--> ?PR?_WRITE_DATA?TEXT1

?PR?_STEP123?TEXT1                0048H    0002H
BL51 BANKED LINKER/LOCATER V6.00                                                      08/11/2020  12:26:44  PAGE 3


  +--> ?PR?_STEP1_SHUN?TEXT1
  +--> ?PR?_STEP2_SHUN?TEXT1
  +--> ?PR?_STEP3_SHUN?TEXT1

?PR?_STEP1_SHUN?TEXT1             -----    -----
  +--> ?PR?_DELAY_MS?TEXT1
  +--> ?PR?STEP_STOP?TEXT1

?PR?_STEP2_SHUN?TEXT1             -----    -----
  +--> ?PR?_DELAY_MS?TEXT1
  +--> ?PR?STEP_STOP?TEXT1

?PR?_STEP3_SHUN?TEXT1             -----    -----
  +--> ?PR?_DELAY_MS?TEXT1
  +--> ?PR?STEP_STOP?TEXT1



SYMBOL TABLE OF MODULE:  1 (TEXT1)

  VALUE           TYPE          NAME
  ----------------------------------

  -------         MODULE        TEXT1
  C:0000H         SYMBOL        _ICE_DUMMY_
  D:0080H         PUBLIC        P0
  D:0090H         PUBLIC        P1
  D:00A0H         PUBLIC        P2
  D:00B0H         PUBLIC        P3
  B:00B0H.6       PUBLIC        key_ok
  B:00A8H.7       PUBLIC        EA
  C:0B44H         PUBLIC        _write_data
  C:0A34H         PUBLIC        _print_string
  C:0AD1H         PUBLIC        _ds1302_write
  B:00A0H.2       PUBLIC        key_d
  B:00A0H.5       PUBLIC        EN
  B:00A8H.4       PUBLIC        ES
  D:0008H         PUBLIC        address0
  C:083BH         PUBLIC        get_showlcd
  B:0098H.0       PUBLIC        RI
  B:0098H.1       PUBLIC        TI
  B:00A0H.3       PUBLIC        key_u
  D:000EH         PUBLIC        RXD_num
  B:00A0H.7       PUBLIC        RS
  B:00A0H.0       PUBLIC        buzzer
  C:0A99H         PUBLIC        ds1302_reset
  C:0026H         PUBLIC        main
  D:000FH         PUBLIC        month
  C:0BA3H         PUBLIC        _uart_send
  C:0017H         PUBLIC        _uart_send_char
  C:0BE8H         PUBLIC        _write_com
  D:0099H         PUBLIC        SBUF
  D:0010H         PUBLIC        year
  C:0BCAH         PUBLIC        _delay_ms
  C:0A5FH         PUBLIC        _step123
  D:0089H         PUBLIC        TMOD
  C:0C1AH         PUBLIC        ds1302_init
BL51 BANKED LINKER/LOCATER V6.00                                                      08/11/2020  12:26:44  PAGE 4


  D:0011H         PUBLIC        uart_data
  D:0025H         PUBLIC        uart_flag
  D:0026H         PUBLIC        sec
  D:0027H         PUBLIC        day
  D:0028H         PUBLIC        hour
  D:0029H         PUBLIC        work
  D:0033H         PUBLIC        min
  C:0B81H         PUBLIC        lcd_init
  D:008DH         PUBLIC        TH1
  B:0098H.7       PUBLIC        SM0
  B:0098H.6       PUBLIC        SM1
  D:008BH         PUBLIC        TL1
  B:00B0H.4       PUBLIC        DAT_IO
  B:00B0H.5       PUBLIC        CLK_IO
  C:0C01H         PUBLIC        uart_init
  C:08BAH         PUBLIC        RX_int
  D:0034H         PUBLIC        hour123
  B:0088H.6       PUBLIC        TR1
  D:0037H         PUBLIC        work123
  D:003AH         PUBLIC        min123
  B:00A0H.4       PUBLIC        key_setup
  B:00B0H.3       PUBLIC        CE_RST
  B:00A0H.1       PUBLIC        key_move
  B:0098H.4       PUBLIC        REN
  C:0B5DH         PUBLIC        _uart_send_str
  C:0C27H         PUBLIC        step_stop
  D:003DH         PUBLIC        num123
  C:09E6H         PUBLIC        _step1_shun
  C:0962H         PUBLIC        _step2_shun
  B:0090H.0       PUBLIC        A1
  C:09A4H         PUBLIC        _step3_shun
  B:0090H.1       PUBLIC        B1
  B:0090H.4       PUBLIC        B2
  B:0090H.2       PUBLIC        C1
  B:0090H.7       PUBLIC        B3
  B:0090H.5       PUBLIC        C2
  B:0090H.3       PUBLIC        D1
  B:00B0H.2       PUBLIC        C3
  B:0090H.6       PUBLIC        D2
  B:00A0H.6       PUBLIC        LCDRW
  C:091BH         PUBLIC        _ds1302_read
  -------         PROC          UART_INIT
  C:0C01H         LINE#         18
  C:0C01H         LINE#         19
  C:0C01H         LINE#         20
  C:0C04H         LINE#         21
  C:0C07H         LINE#         22
  C:0C0AH         LINE#         23
  C:0C0DH         LINE#         24
  C:0C0FH         LINE#         26
  C:0C11H         LINE#         27
  C:0C13H         LINE#         28
  C:0C15H         LINE#         29
  C:0C17H         LINE#         30
  C:0C19H         LINE#         31
  -------         ENDPROC       UART_INIT
  C:0009H         SYMBOL        L?0195
BL51 BANKED LINKER/LOCATER V6.00                                                      08/11/2020  12:26:44  PAGE 5


  C:000CH         SYMBOL        L?0196
  -------         PROC          L?0194
  -------         ENDPROC       L?0194
  C:0009H         SYMBOL        L?0195
  C:000CH         SYMBOL        L?0196
  -------         PROC          _UART_SEND_CHAR
  D:0007H         SYMBOL        i
  C:0017H         LINE#         32
  C:0017H         LINE#         33
  C:0017H         LINE#         34
  C:0019H         LINE#         35
  C:001BH         LINE#         36
  C:001EH         LINE#         37
  C:0020H         LINE#         38
  C:0022H         LINE#         39
  -------         ENDPROC       _UART_SEND_CHAR
  -------         PROC          _UART_SEND_STR
  D:0048H         SYMBOL        zifu
  -------         DO            
  D:0004H         SYMBOL        i
  -------         ENDDO         
  C:0B5DH         LINE#         40
  C:0B63H         LINE#         41
  C:0B63H         LINE#         42
  C:0B66H         LINE#         43
  C:0B76H         LINE#         44
  C:0B76H         LINE#         45
  C:0B79H         LINE#         46
  C:0B7EH         LINE#         47
  C:0B80H         LINE#         48
  -------         ENDPROC       _UART_SEND_STR
  -------         PROC          _UART_SEND
  D:0002H         SYMBOL        num
  C:0BA3H         LINE#         49
  C:0BA7H         LINE#         50
  C:0BA7H         LINE#         52
  C:0BAEH         LINE#         53
  C:0BB3H         LINE#         54
  C:0BB8H         LINE#         55
  C:0BBFH         LINE#         56
  -------         ENDPROC       _UART_SEND
  -------         PROC          L?0200
  -------         ENDPROC       L?0200
  -------         PROC          _DS1302_WRITE
  D:0007H         SYMBOL        address
  D:0005H         SYMBOL        data0
  -------         DO            
  D:0003H         SYMBOL        i
  D:0006H         SYMBOL        temp
  -------         ENDDO         
  C:0AD1H         LINE#         29
  C:0AD1H         LINE#         30
  C:0AD1H         LINE#         32
  C:0AD3H         LINE#         33
  C:0AD5H         LINE#         34
  C:0AD7H         LINE#         37
  C:0AD9H         LINE#         38
BL51 BANKED LINKER/LOCATER V6.00                                                      08/11/2020  12:26:44  PAGE 6


  C:0AD9H         LINE#         39
  C:0ADBH         LINE#         40
  C:0ADDH         LINE#         41
  C:0AE1H         LINE#         43
  C:0AE5H         LINE#         44
  C:0AE7H         LINE#         45
  C:0AEBH         LINE#         48
  C:0AEDH         LINE#         49
  C:0AEDH         LINE#         50
  C:0AEFH         LINE#         51
  C:0AF1H         LINE#         52
  C:0AF5H         LINE#         53
  C:0AF9H         LINE#         54
  C:0AFBH         LINE#         55
  C:0AFFH         LINE#         56
  C:0B01H         LINE#         57
  -------         ENDPROC       _DS1302_WRITE
  -------         PROC          DS1302_INIT
  C:0C1AH         LINE#         58
  C:0C1AH         LINE#         59
  C:0C1AH         LINE#         60
  C:0C1CH         LINE#         61
  C:0C1EH         LINE#         62
  C:0C20H         LINE#         66
  -------         ENDPROC       DS1302_INIT
  -------         PROC          _DS1302_READ
  D:0007H         SYMBOL        address
  -------         DO            
  D:0005H         SYMBOL        i
  D:0003H         SYMBOL        temp
  D:0006H         SYMBOL        data0
  D:0006H         SYMBOL        dat1
  D:0007H         SYMBOL        dat2
  -------         ENDDO         
  C:091BH         LINE#         71
  C:091BH         LINE#         72
  C:091BH         LINE#         75
  C:091DH         LINE#         76
  C:091FH         LINE#         77
  C:0921H         LINE#         78
  C:0923H         LINE#         81
  C:0924H         LINE#         82
  C:0924H         LINE#         83
  C:0926H         LINE#         84
  C:0928H         LINE#         85
  C:092CH         LINE#         86
  C:0930H         LINE#         87
  C:0932H         LINE#         88
  C:0936H         LINE#         91
  C:0938H         LINE#         92
  C:0938H         LINE#         94
  C:0940H         LINE#         95
  C:0943H         LINE#         96
  C:0945H         LINE#         97
  C:0949H         LINE#         98
  C:094BH         LINE#         99
  C:094FH         LINE#         101
BL51 BANKED LINKER/LOCATER V6.00                                                      08/11/2020  12:26:44  PAGE 7


  C:0951H         LINE#         103
  C:0956H         LINE#         104
  C:095AH         LINE#         105
  C:0960H         LINE#         106
  C:0961H         LINE#         107
  -------         ENDPROC       _DS1302_READ
  -------         PROC          DS1302_RESET
  C:0A99H         LINE#         109
  C:0A99H         LINE#         110
  C:0A99H         LINE#         111
  C:0AA0H         LINE#         112
  C:0AA4H         LINE#         113
  C:0AABH         LINE#         114
  C:0AB2H         LINE#         115
  C:0AB9H         LINE#         116
  C:0AC0H         LINE#         117
  C:0AC7H         LINE#         118
  -------         ENDPROC       DS1302_RESET
  C:0B31H         SYMBOL        L?0188
  C:0B33H         SYMBOL        L?0189
  C:0B37H         SYMBOL        L?0190
  C:0B3BH         SYMBOL        L?0191
  -------         PROC          L?0187
  -------         ENDPROC       L?0187
  C:0B31H         SYMBOL        L?0188
  C:0B33H         SYMBOL        L?0189
  C:0B37H         SYMBOL        L?0190
  C:0B3BH         SYMBOL        L?0191
  -------         PROC          _WRITE_DATA
  D:0007H         SYMBOL        dat
  C:0B44H         LINE#         22
  C:0B44H         LINE#         23
  C:0B46H         LINE#         24
  C:0B48H         LINE#         25
  C:0B4AH         LINE#         26
  C:0B51H         LINE#         27
  C:0B53H         LINE#         28
  C:0B5AH         LINE#         29
  C:0B5CH         LINE#         30
  -------         ENDPROC       _WRITE_DATA
  -------         PROC          L?0197
  -------         ENDPROC       L?0197
  -------         PROC          _WRITE_COM
  D:0007H         SYMBOL        com
  C:0BE8H         LINE#         34
  C:0BE8H         LINE#         35
  C:0BEAH         LINE#         36
  C:0BECH         LINE#         37
  C:0BEEH         LINE#         38
  C:0BF5H         LINE#         39
  C:0BF7H         LINE#         40
  C:0BFEH         LINE#         41
  C:0C00H         LINE#         42
  -------         ENDPROC       _WRITE_COM
  -------         PROC          LCD_INIT
  C:0B81H         LINE#         46
  C:0B81H         LINE#         47
BL51 BANKED LINKER/LOCATER V6.00                                                      08/11/2020  12:26:44  PAGE 8


  C:0B83H         LINE#         48
  C:0B85H         LINE#         51
  C:0B8AH         LINE#         52
  C:0B8FH         LINE#         53
  C:0B94H         LINE#         54
  C:0B99H         LINE#         55
  C:0B9EH         LINE#         56
  -------         ENDPROC       LCD_INIT
  C:0A24H         SYMBOL        L?0199
  -------         PROC          L?0198
  -------         ENDPROC       L?0198
  C:0A24H         SYMBOL        L?0199
  -------         PROC          _PRINT_STRING
  D:0048H         SYMBOL        str
  -------         DO            
  D:004BH         SYMBOL        i
  -------         ENDDO         
  C:0A34H         LINE#         58
  C:0A3AH         LINE#         60
  C:0A51H         LINE#         61
  C:0A51H         LINE#         63
  C:0A54H         LINE#         64
  C:0A5EH         LINE#         65
  -------         ENDPROC       _PRINT_STRING
  C:0BC6H         SYMBOL        L?0193
  -------         PROC          L?0192
  -------         ENDPROC       L?0192
  C:0BC6H         SYMBOL        L?0193
  -------         PROC          _DELAY_MS
  D:0006H         SYMBOL        t
  -------         DO            
  D:0004H         SYMBOL        j
  -------         ENDDO         
  C:0BCAH         LINE#         69
  C:0BCAH         LINE#         71
  C:0BCEH         LINE#         72
  C:0BE2H         LINE#         74
  -------         ENDPROC       _DELAY_MS
  -------         PROC          STEP_STOP
  C:0C27H         LINE#         36
  C:0C27H         LINE#         37
  C:0C2AH         LINE#         38
  C:0C2CH         LINE#         39
  -------         ENDPROC       STEP_STOP
  -------         PROC          _STEP1_SHUN
  D:0002H         SYMBOL        num
  -------         DO            
  D:0082H         SYMBOL        i
  -------         ENDDO         
  C:09E6H         LINE#         40
  C:09EAH         LINE#         42
  C:09F6H         LINE#         43
  C:09FCH         LINE#         44
  C:09FFH         LINE#         45
  C:0A05H         LINE#         46
  C:0A08H         LINE#         47
  C:0A10H         LINE#         48
BL51 BANKED LINKER/LOCATER V6.00                                                      08/11/2020  12:26:44  PAGE 9


  C:0A13H         LINE#         49
  C:0A1BH         LINE#         50
  C:0A1EH         LINE#         51
  C:0A21H         LINE#         52
  -------         ENDPROC       _STEP1_SHUN
  -------         PROC          _STEP2_SHUN
  D:0002H         SYMBOL        num
  -------         DO            
  D:0082H         SYMBOL        i
  -------         ENDDO         
  C:0962H         LINE#         54
  C:0966H         LINE#         56
  C:0972H         LINE#         57
  C:097AH         LINE#         58
  C:097DH         LINE#         59
  C:0985H         LINE#         60
  C:0988H         LINE#         61
  C:0990H         LINE#         62
  C:0993H         LINE#         63
  C:099BH         LINE#         64
  C:099EH         LINE#         65
  C:09A1H         LINE#         66
  -------         ENDPROC       _STEP2_SHUN
  -------         PROC          _STEP3_SHUN
  D:0002H         SYMBOL        num
  -------         DO            
  D:0082H         SYMBOL        i
  -------         ENDDO         
  C:09A4H         LINE#         68
  C:09A8H         LINE#         70
  C:09B4H         LINE#         71
  C:09BCH         LINE#         72
  C:09BFH         LINE#         73
  C:09C7H         LINE#         74
  C:09CAH         LINE#         75
  C:09D2H         LINE#         76
  C:09D5H         LINE#         77
  C:09DDH         LINE#         78
  C:09E0H         LINE#         79
  C:09E3H         LINE#         80
  -------         ENDPROC       _STEP3_SHUN
  -------         PROC          _STEP123
  D:0001H         SYMBOL        which
  D:0048H         SYMBOL        num
  C:0A5FH         LINE#         82
  C:0A65H         LINE#         83
  C:0A76H         LINE#         84
  C:0A87H         LINE#         85
  C:0A98H         LINE#         86
  -------         ENDPROC       _STEP123
  -------         PROC          MAIN
  -------         DO            
  D:0043H         SYMBOL        mode_num
  D:0044H         SYMBOL        i
  D:0046H         SYMBOL        wei1602
  D:0047H         SYMBOL        buzzer_flag
  -------         ENDDO         
BL51 BANKED LINKER/LOCATER V6.00                                                      08/11/2020  12:26:44  PAGE 10


  C:0026H         LINE#         100
  C:0026H         LINE#         101
  C:0026H         LINE#         102
  C:0029H         LINE#         103
  C:002DH         LINE#         104
  C:002FH         LINE#         105
  C:0032H         LINE#         106
  C:0038H         LINE#         108
  C:003BH         LINE#         109
  C:003EH         LINE#         110
  C:0041H         LINE#         111
  C:0044H         LINE#         112
  C:0046H         LINE#         113
  C:004DH         LINE#         114
  C:004FH         LINE#         115
  C:0051H         LINE#         116
  C:0053H         LINE#         117
  C:0055H         LINE#         118
  C:0057H         LINE#         119
  C:0059H         LINE#         121
  C:005EH         LINE#         123
  C:0063H         LINE#         124
  C:006CH         LINE#         126
  C:006FH         LINE#         127
  C:007FH         LINE#         128
  C:008DH         LINE#         130
  C:009EH         LINE#         131
  C:00ACH         LINE#         133
  C:00BDH         LINE#         134
  C:00CBH         LINE#         136
  C:00D2H         LINE#         137
  C:00D7H         LINE#         138
  C:00E0H         LINE#         139
  C:00F3H         LINE#         140
  C:0106H         LINE#         141
  C:0119H         LINE#         160
  C:0119H         LINE#         162
  C:0122H         LINE#         163
  C:0128H         LINE#         164
  C:012EH         LINE#         165
  C:013AH         LINE#         166
  C:0149H         LINE#         167
  C:0158H         LINE#         168
  C:0167H         LINE#         169
  C:0176H         LINE#         170
  C:0185H         LINE#         171
  C:018CH         LINE#         172
  C:0195H         LINE#         173
  C:0195H         LINE#         174
  C:01AFH         LINE#         175
  C:01B2H         LINE#         176
  C:01B2H         LINE#         183
  C:01B8H         LINE#         184
  C:01BFH         LINE#         185
  C:01C5H         LINE#         186
  C:01C7H         LINE#         187
  C:01D1H         LINE#         188
BL51 BANKED LINKER/LOCATER V6.00                                                      08/11/2020  12:26:44  PAGE 11


  C:01D5H         LINE#         189
  C:01D8H         LINE#         191
  C:01DDH         LINE#         192
  C:01E6H         LINE#         193
  C:01EBH         LINE#         201
  C:01F0H         LINE#         202
  C:01F9H         LINE#         203
  C:01FCH         LINE#         204
  C:0205H         LINE#         205
  C:020AH         LINE#         206
  C:020FH         LINE#         207
  C:0218H         LINE#         208
  C:0221H         LINE#         209
  C:022AH         LINE#         210
  C:022DH         LINE#         211
  C:0236H         LINE#         215
  C:023DH         LINE#         216
  C:0242H         LINE#         219
  C:0248H         LINE#         220
  C:024AH         LINE#         221
  C:024AH         LINE#         222
  C:024FH         LINE#         223
  C:0258H         LINE#         224
  C:0258H         LINE#         225
  C:025BH         LINE#         226
  C:0262H         LINE#         227
  C:0262H         LINE#         228
  C:0262H         LINE#         230
  C:0268H         LINE#         231
  C:026FH         LINE#         232
  C:0275H         LINE#         233
  C:027CH         LINE#         234
  C:0297H         LINE#         235
  C:02B1H         LINE#         236
  C:02D1H         LINE#         237
  C:02EBH         LINE#         238
  C:02FEH         LINE#         239
  C:0311H         LINE#         240
  C:0320H         LINE#         241
  C:0320H         LINE#         242
  C:0320H         LINE#         243
  C:0333H         LINE#         244
  C:0339H         LINE#         245
  C:034AH         LINE#         246
  C:035BH         LINE#         247
  C:0368H         LINE#         248
  C:0379H         LINE#         249
  C:0384H         LINE#         250
  C:0384H         LINE#         251
  C:0384H         LINE#         252
  C:0384H         LINE#         253
  C:0387H         LINE#         254
  C:038EH         LINE#         255
  C:038EH         LINE#         256
  C:038EH         LINE#         257
  C:0394H         LINE#         258
  C:039BH         LINE#         259
BL51 BANKED LINKER/LOCATER V6.00                                                      08/11/2020  12:26:44  PAGE 12


  C:03A1H         LINE#         260
  C:03A8H         LINE#         261
  C:03BDH         LINE#         262
  C:03CEH         LINE#         263
  C:03DFH         LINE#         264
  C:03F6H         LINE#         265
  C:040DH         LINE#         266
  C:041EH         LINE#         267
  C:042BH         LINE#         268
  C:042BH         LINE#         269
  C:042BH         LINE#         270
  C:043EH         LINE#         271
  C:0444H         LINE#         272
  C:0455H         LINE#         273
  C:0466H         LINE#         274
  C:0473H         LINE#         275
  C:0484H         LINE#         276
  C:048FH         LINE#         277
  C:048FH         LINE#         278
  C:048FH         LINE#         279
  C:048FH         LINE#         280
  C:0492H         LINE#         281
  C:0499H         LINE#         282
  C:0499H         LINE#         283
  C:0499H         LINE#         284
  C:049CH         LINE#         285
  C:04A3H         LINE#         286
  C:04A6H         LINE#         287
  C:04A8H         LINE#         288
  C:04AFH         LINE#         289
  C:04B2H         LINE#         290
  C:04C0H         LINE#         291
  C:04C0H         LINE#         292
  C:04C3H         LINE#         293
  C:04CAH         LINE#         294
  C:04CAH         LINE#         295
  C:04CAH         LINE#         296
  C:04CDH         LINE#         297
  C:04D4H         LINE#         298
  C:04D7H         LINE#         299
  C:04DAH         LINE#         300
  C:04DCH         LINE#         301
  C:04E1H         LINE#         302
  C:04EAH         LINE#         303
  C:04FDH         LINE#         304
  C:0510H         LINE#         305
  C:0523H         LINE#         309
  C:0523H         LINE#         310
  C:0523H         LINE#         314
  C:052AH         LINE#         315
  C:052DH         LINE#         316
  C:0534H         LINE#         318
  C:0539H         LINE#         319
  C:0547H         LINE#         320
  C:055FH         LINE#         321
  C:0565H         LINE#         322
  C:0568H         LINE#         323
BL51 BANKED LINKER/LOCATER V6.00                                                      08/11/2020  12:26:44  PAGE 13


  C:0579H         LINE#         324
  C:058BH         LINE#         325
  C:059DH         LINE#         326
  C:05A2H         LINE#         327
  C:05ABH         LINE#         328
  C:05B8H         LINE#         329
  C:05C9H         LINE#         330
  C:05D9H         LINE#         331
  C:05D9H         LINE#         332
  C:05DEH         LINE#         333
  C:05E7H         LINE#         334
  C:05ECH         LINE#         335
  C:05EEH         LINE#         336
  C:05F0H         LINE#         337
  C:05F6H         LINE#         338
  C:05F8H         LINE#         339
  C:05FBH         LINE#         340
  C:0600H         LINE#         341
  C:0609H         LINE#         342
  C:061CH         LINE#         343
  C:062FH         LINE#         344
  C:0642H         LINE#         345
  C:0642H         LINE#         346
  C:0642H         LINE#         348
  C:0642H         LINE#         349
  C:0656H         LINE#         350
  C:0656H         LINE#         360
  C:065DH         LINE#         368
  -------         ENDPROC       MAIN
  -------         PROC          RX_INT
  -------         DO            
  D:0007H         SYMBOL        data1
  -------         ENDDO         
  C:08BAH         LINE#         370
  C:08D3H         LINE#         373
  C:08D6H         LINE#         374
  C:08D6H         LINE#         375
  C:08D8H         LINE#         376
  C:08DAH         LINE#         377
  C:08E0H         LINE#         378
  C:08E7H         LINE#         379
  C:08E9H         LINE#         380
  C:08ECH         LINE#         381
  C:08EFH         LINE#         382
  C:08F2H         LINE#         383
  C:08FBH         LINE#         384
  C:0904H         LINE#         385
  C:0904H         LINE#         386
  C:0904H         LINE#         387
  -------         ENDPROC       RX_INT
  -------         PROC          GET_SHOWLCD
  C:083BH         LINE#         388
  C:083BH         LINE#         389
  C:0842H         LINE#         390
  C:0849H         LINE#         391
  C:0850H         LINE#         392
  C:0857H         LINE#         393
BL51 BANKED LINKER/LOCATER V6.00                                                      08/11/2020  12:26:44  PAGE 14


  C:085EH         LINE#         394
  C:0865H         LINE#         396
  C:086AH         LINE#         397
  C:086FH         LINE#         398
  C:0874H         LINE#         399
  C:0879H         LINE#         400
  C:087EH         LINE#         401
  C:0883H         LINE#         402
  C:0888H         LINE#         403
  C:088DH         LINE#         404
  C:0892H         LINE#         405
  C:0897H         LINE#         406
  C:089CH         LINE#         407
  C:08A1H         LINE#         408
  C:08A6H         LINE#         409
  C:08ABH         LINE#         410
  C:08B0H         LINE#         412
  C:08B5H         LINE#         413
  -------         ENDPROC       GET_SHOWLCD
  -------         ENDMOD        TEXT1

  -------         MODULE        ?C?CLDOPTR
  C:0660H         PUBLIC        ?C?CLDOPTR
  -------         ENDMOD        ?C?CLDOPTR

  -------         MODULE        ?C?IMUL
  C:068DH         PUBLIC        ?C?IMUL
  -------         ENDMOD        ?C?IMUL

  -------         MODULE        ?C?SIDIV
  C:069FH         PUBLIC        ?C?SIDIV
  -------         ENDMOD        ?C?SIDIV

  -------         MODULE        ?C?UIDIV
  C:06D5H         PUBLIC        ?C?UIDIV
  -------         ENDMOD        ?C?UIDIV

*** WARNING L16: UNCALLED SEGMENT, IGNORED FOR OVERLAY PROCESS
    SEGMENT: ?PR?_UART_SEND?TEXT1

*** WARNING L16: UNCALLED SEGMENT, IGNORED FOR OVERLAY PROCESS
    SEGMENT: ?PR?DS1302_RESET?TEXT1

*** WARNING L15: MULTIPLE CALL TO SEGMENT
    SEGMENT: ?PR?_UART_SEND_STR?TEXT1
    CALLER1: ?PR?RX_INT?TEXT1
    CALLER2: ?C_C51STARTUP

Program Size: data=78.0 xdata=0 code=3117
LINK/LOCATE RUN COMPLETE.  3 WARNING(S),  0 ERROR(S)
