:10000E00FFFFFFFF01C0FFDFFFDFFFDFFFDFFFDFCF
:10001E00FFDFFFDFFFFFFFFFFFFF07F0FBEFFDDF5F
:10002E00FDDFFDDFFDDFFBEF07F0FFFFFFFFFFFF53
:10003E0001F8FFF7FFEFFFDFFFDFFFEFFFF701F83C
:10004E00FFFFFFFFFFFF01C07DDF7DDF7DDF7DDF77
:10005E007DDF7DDF7DDFFFFFFFFF87FF03FF01FEFB
:10006E0001FC01F801F001E003C0078003C001E0CC
:10007E0001F001F801FC01FE03FF87FFFFFFFFFF08
:10008E00DFFFDBF7DBB7DB7B0180DCFDDDBEDFBF37
:10009E00DFDF00ECDFF3DDEBD3DD5FBEDF07FFFF5D
:1000AE00FFFFFFFFFFFFFFFF8FFF03FE01FC01F8C5
:1000BE0000F000E000C000C00080018003000700D7
:1000CE00070003000180008000C000C000E000F0C7
:1000DE0001F801FC03FE8FFFFFFFFFFFFFFFFFFF95
:1000EE00FFFE7FFF9FFF0700F8FFBFEFDFF3E7FC88
:1000FE00F0BFF77F3780F7FFF7FED7F9E7E7FFFF8F
:10010E00FFFFFFFFFFFF1FF8E7E7FBDFFDBFFFFF6E
:10011E00FFFFFFFFFEFFFEFFFEFFFEFFFEFFFEFFE7
:10012E00FEFFFEFFFEFFFEFFFEFFFEFFFEFFFFFFD8
:10013E00FFFFFFFFFBFFE3FF9BFF7BFEFBF9FBE7F0
:10014E00FBF97BFE9BFFE3FFFBFFFFFFFFFFFFFFC4
:10015E00FEFFFEFFFEFFFEFFFEFFFEFFFEFFFEFFA9
:10016E00FEFFFEFFFEFFFEFFFEFFFEFFFFFFFFFF97
:10017E00FFFFFDBFFBDFE7E71FF8FFFFFFFFFFFFFE
:10018E00FBEFDBF7BBF97BFE9B7D63B3BFDFCFE7F6
:10019E00F0F937FEF7F9F7E7D7DFE7BFFF7FFFFF8D
:1001AE00BFFFBFBFBDDF33E0FFDFFFBF03B0FBBB51
:1001BE00FDBDFFBF0380FBBDFBBB03BCFFBFFFFF4D
:1001CE007FFF9FFF0700F8FFFB7F1B7EDBBADBD6AE
:1001DE00DBEE00D0DBBEDBBEDB7E1B7EFB7FFFFFDC
:1001EE00FF7FFF9F01E0DDFDDDFDDDFDDDFD01801B
:1001FE00DDFDDDFDDDBDDD7D0180FFFFFFFFFFFFCE
:10020E00F7FDF7FE76FF110067FFFFFCFFFF07E02B
:10021E0077F777F7000077F777F707E0FFFFFFFF35
:10022E00BFFFBFFFBBFFBBE19BEDABEDB3EDB8ED89
:10023E00B3E1ABBF9B7F3B80BBFFBFFFBFFFFFFFA9
:10024E00FF7FFF9F0160B57F55B001B565D515E500
:10025E007C905545655501456510D57FBD3FFFFF27
:10026E00BFEF9FC7AFEBB3EDBCEE3FEBCFC7FBFFCE
:10027E00FBFFFBFFFBBFFB7FFBBF03C0FFFFFFFFCF
:10028E00EFFDEFBDEF7E00806FFFFFFF6BFD9B85E7
:10029E00BBBDABBD1D80BDBD9CBDA505FFFDFFFF5C
:1002AE00EFFDEFBDEF7E00806FFFFFFF6BFD9B85C7
:1002BE00BBBDABBD1D80BDBD9CBDA505FFFDFFFF3C
:1002CE00EFFBEFFC2FFF00006FFFEFFEBBEDABEE81
:1002DE002BEB8BEBA000ABEB2BEBABEEBBEDFFFFF9
:1002EE00FFFFFFFFFFFF01CCFFFFFFFFFFFFFFFF41
:1002FE00FFFFFFFFFFFFFFFFFFFFFFFFFFFFFFFF00
:10030E00FFFFFFFFFFFFFFFF0000FFFFFFFFFFFFED
:10031E007FFF7F7F7BBF7BDF7BE701F87DFF7CFF6D
:10032E007DFF7FFF00007FFF7FFF7FFF7FFFFFFFCF
:10033E00DFDDCF9853DD9CEDCFEDFFBFFDCFFD7020
:10034E00017FFDBCFDD39DEFA5D339BCFF7FFFFF21
:10035E00FF7F0180DFFEDFFEC000DF7FFF9F03E037
:10036E00DB7F1BBEDBD9DDE7DCD91DBEFF7FFFFFC8
:10037E00FFFFFFFFFFFFFFFF0000FFFFFFFFFFFF7D
:10038E00F7BFF7C777FF77FF77C377BF77BF00BD9C
:10039E0077B377BF77BF778F77FBF7F7F7CFFFFF8F
:1003AE00EFFDF3FDDBFDDBFDDBFDDBBDDA7D198053
:1003BE00DBFDDBFDDBFDDBFDDBFDEBFDF3FDFFFF21
:1003CE00BFFFAFFFB1C1B7FDB7FD0000B7EDB7DDA1
:1003DE00B7E1BFFF07F0FFBFFF7F0080FFFFFFFF0A
:1003EE00FFFE7FFF9FFF0700F8FFBFFFCFFFF0FF6D
:1003FE00070077F777F777F777F7F7F7F7FFFFFF4E
:10040E00FFFFFFFFF7FFE7FFDBFF5BFFBDFEF9FE20
:10041E00D7F98FF77FF5FFEAFFD7FFCFFFBFFFFFBB
:10042E0003F0FDEFFDDFFE1FFE7FDEBF9EBF9EBF12
:10043E005ECF5EC3DED4DED7CEDBF2DBFCDBF2DBDF
:10044E00CEDBDED7DED45EC35ECF9EDF9EDFDEDF89
:10045E00FEDFFDDFFDEF03F0FFFFFFFFFFFFFFFFFE
:10046E00FFFF7FFC1FF80FF007E007E003C003C09B
:10047E00018001800180818181818181C183C3C31B
:10048E00C3C3E7E7E7E7EFF7FFFF3FFC1FF81FF8EF
:10049E001FF81FF83FFCFFFFFFFF3FFC1FF81FF880
:1004AE001FF81FF83FFCFFFFFFFF3FFC1FF81FF870
:1004BE001FF81FF83FFCFFFFEFF7E7E7E7E7C3C3BF
:1004CE00C3C3C183818181818181018001800180CB
:1004DE0003C003C007E007E00FF01FF87FFCFFFF2B
:1004EE00FFFFFFFFFFFFFFFF7FFE3FFE1FFE0FF62A
:1004FE0007F603F601B600B600B601B603F607F628
:10050E000FF61FFE3FFE7FFEAFFEAFFEBFFABFFA35
:10051E00FFEAFFEAFFABFFABFEAFFEAFFABFFABFDB
:10052E00EAFFEAFFABFFABFFFFFFF0FFE07FC03F4C
:10053E00C01FC00FE007F003F003E007C00FC01F9D
:10054E00C03FE07FF0FFFFFFFF7FFFBFFFDFFFEF4A
:10055E00FFF7FFFBFFFDFFFEFFFDFFFBFFF7FFEFCA
:10056E00FFDFFFBFFF7FFEFFFFFFFFDFFFDFFFDFCE
:10057E00FFDFFFDFFFDFFFDFFFDFFBDEFDDDFEDB8B
:10058E00FF57FF8FFFDFFFFFFFFFFFFFFFFFFFFFA5
:10059E00FFFFFF2020FFFFFFFFF8F8FFF8F8FFFF37
:1005AE00EBFBA0EBA0EBEBFFD1D580D580D5C5FF43
:1005BE00389AC8E713591CFF9966766696996FFFAD
:1005CE00FFFFF8F8FFFFFFFFFFFFC3BD7EFFFFFF3A
:1005DE00FFFFFF7EBDC3FFFFFFD5F7C1F7D5FFFFBE
:1005EE00FFF7F7C1F7F7FFFFFFFF7F8FCFFFFFFF8B
:1005FE00FFF7F7F7F7F7FFFFFFFFFFFFFF9F9FFFE5
:10060E00FF3F9FCFE7F3F9FFFFC3BD7E7EBDC3FF64
:10061E00FFFF7D7D007F7FFFFF7D3E5E6E7679FF63
:10062E00FF6D6D6D6D6D01FFEFE7EBED00EFEFFF11
:10063E00FF616D6D6D6D0DFF836D767676768FFF36
:10064E00FFFE1EEEF6FAFCFFFF817676767681FFD0
:10065E00FF616E6E6E6E81FFFFFF2727FFFFFFFFAC
:10066E00FF7F1393FFFFFFFFFFFFE7DBBD7EFFFF63
:10067E00FFDBDBDBDBDBDBFFFFFF7EBDDBE7FFFF53
:10068E00FFFDFE4EF6F9FFFFC3BD665A5A465DC327
:10069E003FCFD3DCD3CF3FFFFF80B6B6B6B6C9FF90
:1006AE00E3DDBEBEBEBEDDFFFF80BEBEBEDDE3FF30
:1006BE00FF80B6B6B6B6BEFFFF80F6F6F6F6FEFFC4
:1006CE00E3DDBEBEBEBE8DEFFF80F7F7F7F780FF0E
:1006DE00FFFFBE80BEFFFFFFFFDFBFBE80FEFFFF3E
:1006EE00FF80F7EBDDBEBEFFFF80BFBFBFBFFFFFCA
:1006FE0080FDE39FE3FD80FF80FDFBF7EFDF80FFD2
:10070E00E3DDBEBEBEDDE3FFFF00EEEEEEEEF1FF7B
:10071E00E3DDBEBEAEDDA3BFFF80F6F6E6D6B9FFC3
:10072E00FFB9B6B6B6B6CEFFFEFEFE80FEFEFEFFEB
:10073E00FFC0BFBFBFBFC0FFFFF0CFBFBFCFF0FF37
:10074E00E09FE7F9E79FE0FFBEDDEBF7EBDDBEFFD5
:10075E00F8F7EF1FEFF7F8FFFFBE9EAEB6BABCFF7D
:10076E00FFFF007E7E7EFFFFFEFDFBF7EFDFBF7F0C
:10077E00FFFF7E7E7E00FFFFFFFBFDFEFDFBFFFF0A
:10078E007F7F7F7F7F7F7F7FFFFFFCFCFFFFFFFF71
:10079E00FFC7B6B6B6B681BFFF80B7B7B7B7CFFF44
:1007AE00E7DBBDBDBDFFFFFFFFCFB7B7B780FFFFD4
:1007BE00FFC3B5B5B5B5F3FFFFF77701F6F5FFFF4C
:1007CE00FFB176767681FFFFFF00EFF7F70FFFFFA1
:1007DE00FFF7FB027FBFFFFFFF3F7F7F02FFFFFFA1
:1007EE00FF01DFAF77FFFFFFFFFFFF007FFFFFFF80
:1007FE0087FBFB87FBFB87FFFF87FBFBFB87FFFF6F
:10080E00FFC7BBBBBBC7FFFFFF01EDEDF3FFFFFF54
:10081E00FFF3EDED017FFFFFFFFD01F7FBFDFDFF98
:10082E00FF736D6D6D9DFFFFFFF7F7017777B7FFD4
:10083E00FFC1BFBFBF81BFFFF7E7DF3FDFE7F7FFB6
:10084E00C7BFDFE7DFBFC7FFFFBBD7EFD7BBFFFFDA
:10085E00FFBEBDDBE7FBFDFEFFBB9BABB3BBFFFFEC
:10086E00FFEF117D7DFFFFFFFFFFFF00FFFFFFFF8B
:10087E00FFFFFF7D7D11EFFFF7FBFBF7EFEFF7FFBC
:10088E0003FF03FF01FF01FF007F007F001F001F1A
:10089E00000F00030003000300010001000100012E
:1008AE00000100010001000100010001000300032E
:1008BE0000070007000F000F000F000F001F001FA2
:1008CE00001F003F003F003F003F003F003F003F42
:1008DE00003F003F003F003F003F003F003F003F12
:1008EE00003F001F001F001F001F000F000F000F12
:1008FE00000F001F003F003F003F003F003F003F42
:10090E00003F007F007F007F007F007F007F007F21
:10091E00007F003F003F003F003F003F003F003F91
:10092E00001F001F000F000F000F000F0007000335
:10093E00000300030003000100010001000100019B
:10094E00000300030003000300030007000F001F55
:10095E00003F007F00FF00FF01FF03FF03FF03FFC7
:10096E0097839783AB0381079A079A879A878E0F8F
:10097E008F6F8F7F87FF87FFD7FFD3FFD9FF49FF89
:10098E0041FF41FF49FF6BFF6BFF7FFF7FFFFFFFC3
:10099E00FFFFFFFFFFFFFFFFFFFFFFFFFFFFFFFF59
:1009AE00FFFFFFFFFFFFFFFFFFFFFFFFFFFFFFFF49
:1009BE00FFFFFFFFFFFFBFFFAAF9AAF9AAB982390D
:1009CE008E01A801A9FDB1FFB7FF87FF87FF07FFC3
:1009DE00037F037F023F183F1ABF383F231F031FB9
:1009EE00079F67936F834FC34FFF4FFF4FFF5FFF0D
:1009FE005FFF5FFF5FFF5FFF5FFF1FFF1FFF1FFFB9
:100A0E001FFF19FF19FF19FF19FF19FF18FF19FF13
:100A1E0019FF39FF39FF39FF19FF18FF18FF18FFAB
:100A2E0018FF18FF11FF11FF11FF59FF5BFF5BFF4E
:100A3E005BFF51FF41FF6B1F731F510790279027DC
:100A4E002E016F01530979093A091243170317074B
:100A5E00075727DF27FF27FF27FF27FF27FF27FF40
:100A6E0027FF27FF27FF23FF23FF27FF37FF17FF50
:100A7E0017FF17FF1FFF1FFF5FFF5FFF5FFF5FFF88
:100A8E005FFF5FFF5FFF5FFF5FFF5FFF1FFF1FFFE8
:100A9E001FFF3FFF2CFF2CFF28BF243F261F681F80
:100AAE00591F4B1F439F589FD89FC499945991012A
:100ABE00A1008FFF0FFF1FFF3FFF3FFF3FFF9FFF75
:100ACE00BFFFBFFFBFFF3FFF3FFF3FFF3FFF3FFFA8
:100ADE003FFF3FFF3FFF3FFF3FFF3FFF3FFF3FFF18
:100AEE003FFF3FFFAFFF8FFF0FFFCFFFAFFFAFFF08
:100AFE00A7FFA7FF27FFAFFFAFFFAFFFAFFF8FFF30
:100B0E008FFFAFFFAFFFAFFFAFFFAFFFAFFFEFFF47
:100B1E00C7FF47FF67FF67FF63FF63876387402356
:100B2E009A839B83CD03CD07DA07D287D607C60FEC
:100B3E00C76FCF7FCFFFCFFFCFFF8FFFCFFFCFFF8F
:100B4E00CFFFCFFFCFFFDAFFD8FFD87FC07FC47FA4
:100B5E00D5FFD1FFD3FFD3FFD7FFC7FFC7FFCFFF0F
:100B6E00CFFFCFFFCFFFCFFFCFFFFFFFFFFFFFFF77
:100B7E00FFFFFFFFFCFFFCFFF87FF83FFA18F019AC
:100B8E00E101E1C7E9D7EBFFE3FFE3FFE7FFC7FFB3
:100B9E00C7FFC7FFC6FFD4FFD4FFD0FFD27FDA3F17
:100BAE00981F9A909381838187FF97FF97FF87FF06
:100BBE0087FFAFFFAFFF8FFF8FFF9FFF9FFF9FFF4F
:100BCE009FFF99FF99FF99FF99FF99FF98FF99FF52
:100BDE0099FFB9FFB9FFB9FF99FF98FF98FF98FFEA
:100BEE0098FF98FF91FF91FF91FF99FF9BFF9BFF4D
:100BFE009BFF91FF81FFAB1FB31F9107902790279B
:100C0E0057835783DB03C1074A074A874A874E0F2C
:100C1E004F6F477F4FFF4FFF4FFFCFFFCFFFCFFFEE
:100C2E00C87FC07FC33FCC7FCD7FE9FFEBFFE3FFE3
:100C3E00E7FFE7FFE7FFE7FFFFFFFFFFFFFFFFFF16
:100C4E00FFFFFFFFFFFFFFFFFFFFFFFFFFFFFFFFA6
:100C5E00FB7F787F685D601D60956181418143FFF8
:100C6E0053FF53FFD7FFC7FFCFFFCFFF4FFF0FFF3E
:100C7E008FFFCFFFCABFC2BF529FD81FD89F488FCA
:100C8E00438F83CFEFCF6FC08FE18FE18FFF9FFF39
:100C9E009FFFDFFF5FFF5FFF5FFF1FFF3FFF3FFF16
:100CAE00BFFFBFFFBFFFBFFFBFFFBFFFBE7FBE7F48
:100CBE003E7F3E7F3E7F3E7F1E7F1C7F1E7F1E7FC0
:100CCE001E7F1C3F1C3F5C7F587F58FF48FF49FF2B
:100CDE0069FF71FF3BFFAB1FAB1FA90788270127D9
:100CEE00FFFFFFFFFFFFFFFFFFFF7A686979755F68
:100CFE006C696E7368656E6779692C0071713A372D
:100D0E0033313830313738392C0071715F71756E6F
:100D1E003A3534303431383132322E0031323A33C2
:100D2E00343A3536002031362D323620200031321D
:070D3E003A33343A35360068
:101CC4000249000001450001481B01470601462066
:061CD40001430601441269
:0B1CE800EF1FAC0670011E4C70F622CE
:0B1CF300EF1FAC0670011E4C70F622C3
:091C4F00121C587580FF7FF40E91
:101C5800E4FDFCC3ED9FEC9E5015E4FBFA0BBB00C2
:0F1C6800010AEB647A4A70F50DBD00010C80E4AF
:011C7700224A
:101B8D00C2B5C2B3D2B5E4FEC2B3AB07EB1392B488
:101B9D00EFC313FFD2B30EBE08EEE4FEC2B3AB0526
:101BAD00EB1392B4EDC313FDD2B30EBE08EEC2B566
:071BBD007F027E00021CE81C
:0D1CDB00C2B5C2B3C2B47D807F8E021B8DE6
:101B4600E4FEC2B5C2B3D2B5FDC2B3AB07EB139286
:101B5600B4EFC313FFD2B30DBD08EEE4FD30B405F8
:101B6600430680800353067FD2B3EEC313FEC2B38F
:101B76000DBD08E9C2B5EEC4540FFFEE540FFEEFDB
:061B860075F00AA42EFF19
:011B8C002236
:0A1CFE00D2AFE4F5E7F5E5F5E622C4
:041CA100EDFF7E00D5
:101CA500E42FFF74803EFE75E78175E5018FE4F54D
:0E1CB500E3C2AF75E64675E6B9AFE2121CFE5B
:011CC30022FE
:101C780078317C007D007BFF7A0C79F87E007F123A
:101C880012175FE4FDFC121CA174312DF8E66F6099
:081C9800010C0DBD10F0AF04BA
:011CA0002221
:101BFB0078317C007D007BFF7A0D790A7E007F0EA9
:101C0B0012175FE4FC7D11121CA174202DF8E66FF6
:091C1B0060010C0DBD1DF0AF04C9
:011C2400229D
:101C250078317C007D007BFF7A0D79187E007F126C
:101C350012175FE4FC7D1E121CA174132DF8E66FCC
:091C450060010C0DBD2EF0AF048E
:011C4E002273
:04193D007D06AF1A5A
:041941008F2D8D2E2B
:10194500E4F52FF530121C78EF60030219F3F52F3B
:10195500E52DC394085012AF2D7401A80708800225
:10196500C333D8FCF4F5808013E52D24F8FF74010A
:10197500A807088002C333D8FCF4F5A07F037E00D6
:10198500121C58E52ED39408501EE4F530E530C3FB
:10199500952E5038AF307401A807088002C333D89C
:1019A500FCF45280053080E5E4F580F530E52E2421
:1019B500F8FFE530C39F5014AF307401A8070880C5
:1019C50002C333D8FCF452A0053080E17F0A7E00C3
:1019D500121CF375A0FF7580FF7F067E00121C5850
:1019E500052FE52FC39442500302195580077F3018
:1019F5007E75121C58121BFBEF6002C290121C254B
:0F1A0500EF6002C2B230B7FD7F0A7E00021C58AC
:10134200E4F50AF50BF50DF50EF50F78107C00FDAE
:101352007BFF7A0D792AFE7F0912175F75190075D6
:101362001A00751B10781C7C007D007BFF7A0D79BA
:10137200337E007F0912175F7525007526007527D9
:101382001CD2B2D2B77FF47E01121C587580FE7F48
:10139200C81E121C587580FF121C587580FE121C44
:1013A2004FE54775F00A842430F510E54775F00AD9
:1013B20084E5F02430F511E54875F00A842430F50F
:1013C20013E54875F00A84E5F02430F514E5457517
:1013D200F00A842430F516E54575F00A84E5F02418
:1013E20030F517E54375F00A842430F51DE54375A1
:1013F200F00A84E5F02430F51EE54675F00A8424EF
:1014020030F520E54675F00A84E5F02430F5212018
:10141200B7227F0A7E00121C5820B718050EE4F589
:101422000FF50DE50EC394084003E4F50E7D08AFF9
:101432000E12194130B2030213A37F0A7E00121C5E
:101442005830B2030213A3050F7F35121C58E4F57E
:1014520008F509E50925E0FDE50833FCE50D75F021
:1014620080A4AEF02DF50BEE3CF50AE50E0414B4A3
:10147200100040030215E690148775F003A4C5839B
:1014820025F0C583730215700214B70214BF02144B
:10149200C70214CF0214F50214FD0215110215251C
:1014A20002152D02153502153D02154502154D0294
:1014B200155502155DAF0BEF90000E8058AF0BEF84
:1014C20090008E8050AF0BEF90010E8048748E25F5
:1014D2000BF5827401350AF583E493F580748F2548
:1014E2000BF5827401350AF583E493F5A0750C10AF
:1014F2000215E6AF0BEF90038E801AAF0BEF90044C
:101502000E93F580EFA393F5A0750C030215E6AFD9
:101512000BEF90046E93F580EFA393F5A0750C0486
:101522000215E6AF0BEF9004EE8036AF0BEF90049E
:10153200EF802EAF0BEF9004F08026AF0BEF9004FC
:10154200F1801EAF0BEF9004F28016AF0BEF900408
:10155200F3800EAF0BEF9004F48006AF0BEF900414
:10156200F593F580EFA393F5A0E4F50C8076750C66
:10157200047E00E5095407FFAB19AA1AA91B12172A
:101582008575F008A42FF582EE35F0F583E5822407
:1015920096F582E5833404F583E493F580E50954F6
:1015A20007FFAB25AA26A92712178575F008A42FD5
:1015B200F582EE35F0F583E5822496F582E58334F3
:1015C20004F583E493F5A0E5095407640770150454
:1015D200251BF51BE4351AF51A74012527F527E4B6
:1015E2003526F5267F647E00121CF3E50925E0FD11
:1015F200E50833FCE50D75F080A42DFFE5F03CCF46
:101602002402FDE43FFCE50C75F020A4FFC3ED9F2E
:10161200EC95F04025E50F94084005E4F50FF50D33
:1016220075080075093F751900751A00751B10754C
:10163200250075260075271C80140509E50970022E
:101642000508C39440E50894005003021455E509C7
:1016520025E0FDE50833FCE50D75F080A42DFFE5DE
:10166200F03CCF2402FDE43FFCE50C75F020A4FF22
:10167200C3ED9FEC95F040030213A3E50FC394085A
:0D16820050030213A3E4F50F050D0213A39E
:100D45007508037509E8E4F50AF50BF50CF50DF5DD
:100D55000EF50FF510F511F512F513F514F515F55A
:100D650016F517F51AF51BF51C781D7C00FD7BFFA4
:100D75007A0D793CFE7F0912175FE4F52675274643
:100D850075280EF529752A00752B1DF52C7FC8FED3
:100D9500121C587580EF121C587580FF121C58756F
:100DA50080EF121C4F0515E5157002051420B71CC0
:100DB500051AE51AC394064003E4F51A12193DE431
:100DC500F50EF50FF510F511F516F517E54775F064
:100DD5000A842430F51DE54775F00A84E5F02430D2
:100DE500F51EE54875F00A842430F520E54875F0D0
:100DF5000A84E5F02430F521E54575F00A842430B0
:100E0500F523E54575F00A84E5F02430F524E51A67
:100E1500C394024003020FF020900E851408851537
:100E250009E4F514F5153090FD0515E51570020575
:100E3500147F3C7E00121CF3AE14AF15E4FCFD7B61
:100E4500DC7AFFF9F8C312180550067514EA751512
:100E550060AE08AF097C007D0F12179EAA06AB078E
:100E6500AE14AF157D3B12179EAD03AC021217B041
:100E75008C0A8D0BAE08AF097C007D0512179EAA62
:100E850006AB07AE14AF157D3B12179EAD03AC0242
:100E95001217B08C0C8D0DD3E50D943CE50C940028
:100EA50050087580FE75A0FF800675A0FF7580FF50
:100EB500D3E50B943CE50A940050035380F8AE1437
:100EC500AF157C007D3B12179E8E0A8F0BAF457EBA
:100ED50000AC08AD0912179E8E0C8F0D20B72005AA
:100EE5001AE51AC394064003E4F51A12193DE4F510
:100EF5000EF50FF510F511F516F517F512F513E5C5
:100F05001A64016003020F8EE50D24E2FFE50C343F
:100F1500FFFED3E50B9FE50A9E4018E50D241EFF55
:100F2500E4350CFEC3E50B9FE50A9E500675A0004F
:100F3500538003AE14AF157C007D3B12179EAC08A1
:100F4500AD091217B08E0C8F0DE548B50D09E4B546
:100F55000C05F5A053801FE54775F00C84E5F07589
:100F6500F005A4FFAEF0E54875F00C847C002FF584
:100F75000BEC3EF50AE50D650B7004E50C650A60A2
:100F850003020E13F5A0020E13AE14AF157C007DFF
:100F95003B12179EAC08AD091217B0D3EF9545EE7D
:100FA500940050035380EF8E0C8F0DD3E50D9548BB
:100FB500E50C9400500353807FE54775F00C84E5FC
:100FC500F075F005A4FFAEF0E54875F00C847C00E3
:100FD5002FF50BEC3EF50AD3E50D950BE50C950ABF
:100FE5004003020E1353A0FB020E13E51A0424FC62
:100FF500606314700302108C1470030210DC240368
:101005006003021131752602AB29AA2AA92B1217F2
:101015008575F008A42513F582E5F03512F583E50D
:10102500822496F582E5833404F583E493F58005FF
:1010350013E51370020512C39408E51294005003DA
:10104500021131E4F512F51304252BF52BE4352AAD
:10105500F52A021131752603751801751980E511F8
:10106500250FFFE510350EFE748E2FF58274013EB7
:10107500F583E493F580748F2FF58274013EF58333
:10108500E493F5A00211317526017518007519E074
:10109500E511250FFFE51C75F0E0A4248EF582E42B
:1010A5003408F583E5822FF582E43583F583E493EF
:1010B500F5A0E51C75F0E0A4248FF582E43408F56D
:1010C50083E5822FF582E43583F583E493F5807516
:1010D5001B01752C0180557526017518007519E0E1
:1010E500E511250FFFE510350EFE75F0E0E51CA4B2
:1010F500246EF582E5F03409F583E5822FF582E566
:10110500833EF583E493F5A075F0E0E51CA4246F18
:10111500F582E5F03409F583E5822FF582E5833E16
:10112500F583E493F580751B04752C03E526B4015E
:1011350032E5172401FFE43516FEAD287C001217B1
:101145009EEF7803C333CE33CED8F9FBAA06AF2C76
:101155007E00AC14AD1512179EC3EF9BEE9A50039B
:101165005380FEAF277E00121CF37580FF75A0FF2C
:10117500E52775F00784FF7E00121CF3E511250FA6
:10118500FFE510350EFEE51924FEFDE51834FFFCDC
:10119500C3EF9DEE9C500BAB29AA2AA92B121785EC
:1011A5007072752900752A00752B1D75A0FF758055
:1011B500FF30903420B720051AE51AC39406400382
:1011C500E4F51A12193DE4F50EF50FF510F511F5D4
:1011D50016F517F512F5137F0A7E00121CF3051399
:1011E500E51370CD051280C9AE12AF137C007D46A4
:1011F50012179EEF7803CEC313CE13D8F9FFAD2790
:101205007C001217B0EF2515F515EE3514F514E42D
:10121500F512F513309026E511250FFFE510350E73
:10122500FEE51924FEFDE51834FFFCC3EF9DEE9C99
:10123500500B7402250FF50FE4350EF50E309003B3
:10124500020DAAE52875F008A4FFAEF02401FDE41F
:101255003EFCD3E5159DE5149C40020527EF24FFD0
:10126500FFEE34FFFEC3E5159FE5149E50021527DA
:10127500E4F514F515F529752A00752B1DF512F5FC
:10128500137580FFE51924FEFFE51834FFFEC3E55D
:10129500119FE5109E400BE4F510F511F516F517B5
:1012A500800B74022511F511E43510F510E526B40F
:1012B50002047F0180027F00E526B401047E0180DF
:1012C500027E00EE4F6005E4F510F511E4F50EF52C
:1012D5000F3090FDE526B4033AC3E5179478E5167B
:1012E5009400501274022517F517E43516F516E427
:1012F500F510F5118006751600751778C374789585
:1013050017FFE49516FEAD277C0012179E121CF3FD
:10131500020DAA0517E51770020516C3952CE516EB
:1013250094005003020DAAE4F516F517051CE51CFB
:0D133500951B5003020DAAE4F51C020DAA41
:10182700E4F508F509F50AF50BF50C750D017FC808
:10183700FE121C5875A0FE121C5875A0FF121C58EA
:1018470075A0FE121C5875A0FF7FF40E121C587568
:10185700F020E50CA4F58285F083AF0975F002EF5F
:1018670012181BE58224F6F582E5833404F583E438
:1018770093F5A075F020E50CA4F58285F08375F04B
:1018870002EF12181BE58224F7F582E5833404F58D
:1018970083E493F5807F5A7E00121CF37FC87E0095
:1018A700121CF30509E5097002050825E0FFE508A4
:1018B70033FEEF2402FFE43EFEC3EF9420EE9400D4
:1018C700400DE4F508F509050BE50B7002050A2044
:1018D700B729050CE50DB40105E4F50DF50CC3E5D5
:1018E7000C64809485400B750CFF750D01E4F50AB7
:1018F700F50BE50C04FF7D06121941E50D64016047
:1019070003021856D3E50C648094805003E4F50C69
:10191700C3E50B942CE50A94015003021856E4F52D
:101927000AF50B050CE50C648094855003021856E4
:06193700E4F50C02185655
:101A1400758901758CEEE4F58AD2AFD2A9D28CD245
:101A240090121CDB7F81121B468F457F83121B465D
:101A34008F487F85121B468F477F87121B468F4630
:101A44007F89121B468F437F8D121B468F44E546C8
:101A5400C3942050287F8D121B46EFB5441F7F8905
:101A6400121B46EFB543167F87121B46EFB5460D92
:101A7400E4F5A07FF47E01121C5875A0FF209503A5
:101A840012134230B1047F0180027F003095047E3E
:101A94000180027E00EE5F6003120D453095047FE5
:101AA4000180027F0020B1047E0180027E00EE5F8F
:061AB40060031218272256
:03000B00021BC411
:101BC400C0E0C0D0758CEE758A00054AE54A700203
:101BD400054964C8454970060545F549F54AE54592
:101BE400B43C050548754500E548B43C0505477512
:071BF4004800D0D0D0E03220
:03000000021ABA27
:0C1ABA00787FE4F6D8FD75814A021B011C
:10168F00E709F608DFFA8046E709F208DFFA803E3D
:10169F0088828C83E709F0A3DFFA8032E309F6082A
:1016AF00DFFA8078E309F208DFFA807088828C8392
:1016BF00E309F0A3DFFA806489828A83E0A3F60846
:1016CF00DFFA805889828A83E0A3F208DFFA804C20
:1016DF0080D280FA80C680D4806980F280338010F7
:1016EF0080A680EA809A80A880DA80E280CA803360
:1016FF0089828A83ECFAE493A3C8C582C8CCC583D8
:10170F00CCF0A3C8C582C8CCC583CCDFE9DEE780A7
:10171F000D89828A83E493A3F608DFF9ECFAA9F026
:10172F00EDFB2289828A83ECFAE0A3C8C582C8CC7C
:10173F00C583CCF0A3C8C582C8CCC583CCDFEADE95
:10174F00E880DB89828A83E493A3F208DFF980CCF7
:10175F0088F0EF60010E4E60C388F0ED2402B404F0
:10176F000050B9F582EB2402B4040050AF23234597
:06177F0082239016DF73C7
:10178500BB010689828A83E0225002E722BBFE0262
:09179500E32289828A83E4932295
:10179E00EF8DF0A4A8F0CF8CF0A428CE8DF0A42E5F
:0217AE00FE2219
:1017B000BC000BBE0029EF8DF084FFADF022E4CC1D
:1017C000F875F008EF2FFFEE33FEEC33FCEE9DECE6
:1017D000984005FCEE9DFE0FD5F0E9E4CEFD22ED2C
:1017E000F8F5F0EE8420D21CFEADF075F008EF2F76
:1017F000FFED33FD4007985006D5F0F222C398FD67
:051800000FD5F0EA2203
:10180500EB9FF5F0EA9E42F0E99D42F0EC6480C85A
:0618150064809845F022FA
:0C181B00A42582F582E5F03583F58322D8
:101AC600021A14E493A3F8E493A34003F68001F208
:101AD60008DFF48029E493A3F85407240CC8C33321
:101AE600C4540F4420C8834004F456800146F6DFF0
:101AF600E4800B0102040810204080901CC4E47EA0
:101B0600019360BCA3FF543F30E509541FFEE493E4
:101B1600A360010ECF54C025E060A840B8E493A3AB
:101B2600FAE493A3F8E493A3C8C582C8CAC583CAD6
:101B3600F0A3C8C582C8CAC583CADFE9DEE780BE8E
:011CDA000009
:00000001FF
