BL51 BANKED LINKER/LOCATER V6.00                                                        06/08/2020  17:06:20  PAGE 1


BL51 BANKED LINKER/LOCATER V6.00, INVOKED BY:
E:\KEIL\C51\BIN\BL51.EXE Text1.obj TO 1 RAMSIZE (256)


MEMORY MODEL: SMALL


INPUT MODULES INCLUDED:
  Text1.obj (TEXT1)
  E:\KEIL\C51\LIB\C51S.LIB (?C_STARTUP)
  E:\KEIL\C51\LIB\C51S.LIB (?C?IMUL)
  E:\KEIL\C51\LIB\C51S.LIB (?C_INIT)


LINK MAP OF MODULE:  1 (TEXT1)


            TYPE    BASE      LENGTH    RELOCATION   SEGMENT NAME
            -----------------------------------------------------

            * * * * * * *   D A T A   M E M O R Y   * * * * * * *
            REG     0000H     0008H     ABSOLUTE     "REG BANK 0"
            DATA    0008H     000BH     UNIT         ?DT?TEXT1
            IDATA   0013H     0001H     UNIT         ?STACK

            * * * * * * *   C O D E   M E M O R Y   * * * * * * *
            CODE    0000H     0003H     ABSOLUTE     
            CODE    0003H     0003H     ABSOLUTE     
                    0006H     0005H                  *** GAP ***
            CODE    000BH     0003H     ABSOLUTE     
                    000EH     0005H                  *** GAP ***
            CODE    0013H     0003H     ABSOLUTE     
            CODE    0016H     0107H     UNIT         ?PR?MAIN?TEXT1
            CODE    011DH     00A2H     UNIT         ?PR?TIMER0_ISR?TEXT1
            CODE    01BFH     008CH     UNIT         ?C_C51STARTUP
            CODE    024BH     0050H     UNIT         ?PR?LED_RGO?TEXT1
            CODE    029BH     004BH     UNIT         ?PR?LED_LGO?TEXT1
            CODE    02E6H     002EH     UNIT         ?PR?_DELAY_MS?TEXT1
            CODE    0314H     0020H     UNIT         ?C_INITSEG
            CODE    0334H     001DH     UNIT         ?PR?KEY1?TEXT1
            CODE    0351H     001DH     UNIT         ?PR?KEY2?TEXT1
            CODE    036EH     0012H     UNIT         ?C?LIB_CODE
            CODE    0380H     0010H     UNIT         ?PR?INIT_TIMER0?TEXT1
            CODE    0390H     000EH     UNIT         ?PR?_DELAY?TEXT1
            CODE    039EH     000AH     UNIT         ?CO?TEXT1



OVERLAY MAP OF MODULE:   1 (TEXT1)


SEGMENT
  +--> CALLED SEGMENT
---------------------
?PR?TIMER0_ISR?TEXT1
  +--> ?CO?TEXT1

*** NEW ROOT ***************************************************
BL51 BANKED LINKER/LOCATER V6.00                                                      06/08/2020  17:06:20  PAGE 2



?C_C51STARTUP
  +--> ?PR?MAIN?TEXT1
  +--> ?C_INITSEG

?PR?MAIN?TEXT1
  +--> ?PR?INIT_TIMER0?TEXT1
  +--> ?PR?LED_LGO?TEXT1
  +--> ?PR?LED_RGO?TEXT1
  +--> ?PR?_DELAY_MS?TEXT1

?PR?LED_LGO?TEXT1
  +--> ?PR?_DELAY?TEXT1
  +--> ?PR?_DELAY_MS?TEXT1

?PR?LED_RGO?TEXT1
  +--> ?PR?_DELAY?TEXT1
  +--> ?PR?_DELAY_MS?TEXT1



SYMBOL TABLE OF MODULE:  1 (TEXT1)

  VALUE           TYPE          NAME
  ----------------------------------

  -------         MODULE        TEXT1
  C:0000H         SYMBOL        _ICE_DUMMY_
  D:0080H         PUBLIC        P0
  B:00A0H.2       PUBLIC        led_play1
  D:0090H         PUBLIC        P1
  B:00A0H.3       PUBLIC        led_play2
  D:00A0H         PUBLIC        P2
  B:00A0H.6       PUBLIC        R1
  D:00B0H         PUBLIC        P3
  D:0009H         PUBLIC        play_continue
  D:000AH         PUBLIC        R_num
  B:00A0H.7       PUBLIC        R2
  B:00A8H.7       PUBLIC        EA
  C:039EH         PUBLIC        dofly_table
  D:000BH         PUBLIC        buzzer_flag
  D:000CH         PUBLIC        delay_time
  B:00A0H.1       PUBLIC        buzzer
  C:0016H         PUBLIC        main
  C:0380H         PUBLIC        Init_Timer0
  C:02F4H         PUBLIC        _delay_ms
  D:0089H         PUBLIC        TMOD
  D:000EH         PUBLIC        play_times
  B:00A8H.1       PUBLIC        ET0
  D:008CH         PUBLIC        TH0
  B:00A8H.0       PUBLIC        EX0
  B:0088H.0       PUBLIC        IT0
  B:00A8H.2       PUBLIC        EX1
  B:0088H.2       PUBLIC        IT1
  D:008AH         PUBLIC        TL0
  C:0394H         PUBLIC        _Delay
  B:0088H.4       PUBLIC        TR0
BL51 BANKED LINKER/LOCATER V6.00                                                      06/08/2020  17:06:20  PAGE 3


  C:029BH         PUBLIC        LED_Lgo
  C:0334H         PUBLIC        Key1
  D:000FH         PUBLIC        who_first
  C:024BH         PUBLIC        LED_Rgo
  B:00B0H.7       PUBLIC        time1
  B:00B0H.6       PUBLIC        time2
  C:011DH         PUBLIC        Timer0_isr
  B:00B0H.5       PUBLIC        time3
  B:00B0H.4       PUBLIC        time4
  B:00A0H.0       PUBLIC        led9
  D:0010H         PUBLIC        key1_flag
  D:0011H         PUBLIC        key2_flag
  C:0351H         PUBLIC        key2
  B:00A0H.4       PUBLIC        L1
  D:0012H         PUBLIC        L_num
  B:00A0H.5       PUBLIC        L2
  C:0390H         SYMBOL        L?0077
  -------         PROC          L?0076
  -------         ENDPROC       L?0076
  C:0390H         SYMBOL        L?0077
  -------         PROC          _DELAY
  D:0006H         SYMBOL        t
  C:0394H         LINE#         33
  C:0394H         LINE#         34
  C:0394H         LINE#         35
  C:039DH         LINE#         36
  -------         ENDPROC       _DELAY
  C:02EFH         SYMBOL        L?0075
  -------         PROC          L?0074
  -------         ENDPROC       L?0074
  C:02EFH         SYMBOL        L?0075
  -------         PROC          _DELAY_MS
  D:0006H         SYMBOL        x
  -------         DO            
  D:0002H         SYMBOL        i
  D:0004H         SYMBOL        j
  -------         ENDDO         
  C:02F4H         LINE#         37
  C:02F4H         LINE#         38
  C:02F4H         LINE#         40
  C:02FEH         LINE#         41
  C:0313H         LINE#         42
  -------         ENDPROC       _DELAY_MS
  -------         PROC          INIT_TIMER0
  C:0380H         LINE#         43
  C:0380H         LINE#         44
  C:0380H         LINE#         45
  C:0383H         LINE#         46
  C:0386H         LINE#         47
  C:0389H         LINE#         48
  C:038BH         LINE#         49
  C:038DH         LINE#         50
  C:038FH         LINE#         51
  -------         ENDPROC       INIT_TIMER0
  -------         PROC          LED_LGO
  -------         DO            
  D:0004H         SYMBOL        i
BL51 BANKED LINKER/LOCATER V6.00                                                      06/08/2020  17:06:20  PAGE 4


  -------         ENDDO         
  C:029BH         LINE#         54
  C:029BH         LINE#         55
  C:029BH         LINE#         56
  C:029EH         LINE#         57
  C:02A1H         LINE#         58
  C:02A1H         LINE#         59
  C:02B1H         LINE#         60
  C:02B4H         LINE#         61
  C:02BFH         LINE#         62
  C:02C2H         LINE#         63
  C:02C7H         LINE#         64
  C:02CAH         LINE#         65
  C:02CDH         LINE#         66
  C:02D2H         LINE#         68
  C:02D6H         LINE#         69
  C:02DBH         LINE#         70
  C:02DDH         LINE#         71
  C:02DDH         LINE#         72
  C:02DDH         LINE#         73
  C:02DDH         LINE#         74
  C:02DDH         LINE#         75
  C:02E0H         LINE#         76
  C:02E5H         LINE#         77
  C:02E5H         LINE#         78
  -------         ENDPROC       LED_LGO
  -------         PROC          LED_RGO
  -------         DO            
  D:0004H         SYMBOL        i
  -------         ENDDO         
  C:024BH         LINE#         79
  C:024BH         LINE#         80
  C:024BH         LINE#         81
  C:024EH         LINE#         82
  C:0251H         LINE#         83
  C:0253H         LINE#         84
  C:0256H         LINE#         85
  C:0258H         LINE#         86
  C:0258H         LINE#         87
  C:0268H         LINE#         88
  C:0273H         LINE#         89
  C:0276H         LINE#         90
  C:0281H         LINE#         91
  C:0284H         LINE#         92
  C:0287H         LINE#         94
  C:028BH         LINE#         95
  C:028DH         LINE#         96
  C:0292H         LINE#         97
  C:0292H         LINE#         98
  C:0292H         LINE#         99
  C:0292H         LINE#         100
  C:0292H         LINE#         101
  C:0295H         LINE#         102
  C:029AH         LINE#         103
  C:029AH         LINE#         104
  -------         ENDPROC       LED_RGO
  -------         PROC          MAIN
BL51 BANKED LINKER/LOCATER V6.00                                                      06/08/2020  17:06:20  PAGE 5


  -------         DO            
  D:0082H         SYMBOL        i
  -------         ENDDO         
  C:0016H         LINE#         108
  C:0016H         LINE#         109
  C:0016H         LINE#         112
  C:0019H         LINE#         113
  C:001BH         LINE#         114
  C:001EH         LINE#         115
  C:0020H         LINE#         116
  C:0022H         LINE#         117
  C:0024H         LINE#         118
  C:0026H         LINE#         119
  C:0028H         LINE#         121
  C:002BH         LINE#         122
  C:002EH         LINE#         124
  C:002EH         LINE#         125
  C:002EH         LINE#         127
  C:0033H         LINE#         128
  C:0041H         LINE#         129
  C:004FH         LINE#         130
  C:005DH         LINE#         131
  C:0068H         LINE#         132
  C:0077H         LINE#         133
  C:0083H         LINE#         137
  C:0088H         LINE#         138
  C:008CH         LINE#         139
  C:0091H         LINE#         140
  C:0094H         LINE#         141
  C:0098H         LINE#         142
  C:009BH         LINE#         143
  C:009DH         LINE#         144
  C:009DH         LINE#         145
  C:00A2H         LINE#         146
  C:00A6H         LINE#         147
  C:00ABH         LINE#         148
  C:00AEH         LINE#         149
  C:00B2H         LINE#         150
  C:00B5H         LINE#         151
  C:00B7H         LINE#         152
  C:00B7H         LINE#         153
  C:00C4H         LINE#         154
  C:00D6H         LINE#         155
  C:00E0H         LINE#         156
  C:00E3H         LINE#         157
  C:00E5H         LINE#         158
  C:00E5H         LINE#         159
  C:00E5H         LINE#         162
  C:00F6H         LINE#         163
  C:00F9H         LINE#         164
  C:00FCH         LINE#         165
  C:0100H         LINE#         166
  C:0100H         LINE#         167
  C:0103H         LINE#         168
  C:0105H         LINE#         169
  C:010EH         LINE#         170
  C:0111H         LINE#         171
BL51 BANKED LINKER/LOCATER V6.00                                                      06/08/2020  17:06:20  PAGE 6


  C:0115H         LINE#         172
  C:0118H         LINE#         173
  C:011AH         LINE#         174
  C:011AH         LINE#         177
  -------         ENDPROC       MAIN
  -------         PROC          TIMER0_ISR
  -------         DO            
  D:0008H         SYMBOL        times_flag
  -------         ENDDO         
  C:011DH         LINE#         180
  C:0127H         LINE#         183
  C:012AH         LINE#         184
  C:012DH         LINE#         186
  C:0139H         LINE#         187
  C:013BH         LINE#         189
  C:013FH         LINE#         190
  C:0142H         LINE#         191
  C:014AH         LINE#         192
  C:015CH         LINE#         193
  C:015CH         LINE#         194
  C:0161H         LINE#         195
  C:0164H         LINE#         196
  C:016CH         LINE#         197
  C:017AH         LINE#         198
  C:017AH         LINE#         199
  C:017FH         LINE#         200
  C:0182H         LINE#         201
  C:018AH         LINE#         202
  C:0196H         LINE#         203
  C:0196H         LINE#         204
  C:019BH         LINE#         205
  C:019EH         LINE#         206
  C:01A6H         LINE#         207
  C:01B4H         LINE#         208
  C:01B4H         LINE#         210
  -------         ENDPROC       TIMER0_ISR
  -------         PROC          KEY1
  C:0334H         LINE#         211
  C:0338H         LINE#         213
  C:033DH         LINE#         214
  C:0340H         LINE#         215
  C:0340H         LINE#         216
  C:0345H         LINE#         217
  C:034CH         LINE#         218
  C:034CH         LINE#         221
  -------         ENDPROC       KEY1
  -------         PROC          KEY2
  C:0351H         LINE#         222
  C:0355H         LINE#         224
  C:035AH         LINE#         225
  C:035DH         LINE#         226
  C:035DH         LINE#         227
  C:0362H         LINE#         228
  C:0369H         LINE#         229
  C:0369H         LINE#         231
  -------         ENDPROC       KEY2
  -------         ENDMOD        TEXT1
BL51 BANKED LINKER/LOCATER V6.00                                                      06/08/2020  17:06:20  PAGE 7



  -------         MODULE        ?C?IMUL
  C:036EH         PUBLIC        ?C?IMUL
  -------         ENDMOD        ?C?IMUL

Program Size: data=20.0 xdata=0 code=926
LINK/LOCATE RUN COMPLETE.  0 WARNING(S),  0 ERROR(S)
