:10047B0000F300F900FC0000000000FC00F900F3A1
:10048B0000CF009F003F00000000003F009F00CF07
:10049B000000000000000000000000000000000051
:1004AB0000FE00FD00FB00F700EF00DF00BF007F48
:04000300022A0000CD
:04030A008E308F3171
:10030E00E4FDFC7B01FAEB4A7003020399ED25E054
:10031E00FFEC33FE74AB2FF58274043EF58374014B
:10032E0093F5A0E531AE307803C333CE33CED8F992
:10033E002DFFEE3CFEEF25E0FFEE33FE746B2FF546
:10034E008274043EF583740193F5800DBD00010C9B
:10035E00ED64084C700B052FE52F7002052EE4FCA2
:10036E00FDE52F6401452E7006F52EF52FFAFBE400
:10037E00F528F5290529E529700205286450452838
:0B038E0070F275A0FF7580FF020314E1
:010399002241
:10000E00758901758CDCE4F58AD2AFD2A9D28CF554
:10001E000AF50BF508F509F51E751F01F50EF50F1E
:10002E00F512F513F520F521751E00751F01E51F5C
:10003E00451E700302014130B30302011C20B4526D
:10004E00E5094508702AAE1CAF1D7C017DF4120433
:10005E00268C208D21750800750901AE1CAF1D7C04
:10006E00017DF4120426ED65217003EC652060EB32
:10007E00E50B450A7035AE1CAF1D7C017DF41204F4
:10008E0026EDB52126ECB52022750A00750B01E48C
:10009E008015E4F51EF51FF508F509F50AF50BF5C3
:1000AE000EF50FF512F513F520F521E50B6401455C
:1000BE000A705BD2B6E50F450E7029AE1CAF1DFC63
:1000CE007D961204268C128D13750E00750F01AEDF
:1000DE001CAF1D7C007D96120426ED65137003EC9B
:1000EE00651260EBAE1CAF1D7C007D96120426EDF2
:1000FE00B5131BECB51217C2B6E4F528F529052980
:10010E00E52970020528B430F5E528B475F020B362
:10011E000302003CE4F512F513F50EF50FF50AF5A2
:10012E000BF520F521F508F509F51E751F01D2B660
:10013E0002003CD2B1D2B0752200752301E52345F1
:10014E0022700302003675260075270120B00B754C
:10015E000C00750D01E4F514F515E50D6401450C63
:10016E00705D7F01FE12030A20964FE51145107057
:10017E0029AE1CAF1DFC7D961204268C248D25AE57
:10018E001CAF1D7C007D96120426ED65257003ECD8
:10019E00652460EB751000751101AE1CAF1D7C005F
:1001AE007D96120426EDB52516ECB5241275A0FF2A
:1001BE007580FFE4F50CF50D8001E4F510F51120C6
:1001CE00B10B751400751501E4F50CF50DE515640C
:1001DE0001451470617F02FE12030A209653E51743
:1001EE0045167029AE1CAF1DFC7D961204268C247C
:1001FE008D25AE1CAF1D7C007D96120426ED652567
:10020E007003EC652460EB751600751701AE1CAF1C
:10021E001D7C007D96120426EDB5251AECB524162C
:10022E0075A0FF7580FFE4F516F517F514F515802A
:10023E0005E4F516F517E50D450C7018E515451492
:10024E00701230B2067F03FE12030A20B20675A0AA
:10025E00FF7580FF20950B750C00750D01E4F514EC
:10026E00F51520970B751400751501E4F50CF50DB9
:10027E0020B46C20B369E51945187029AE1CAF1D6A
:10028E00FC7D961204268C1A8D1B751800751901AB
:10029E00AE1CAF1D7C007D96120426ED651B70030F
:1002AE00EC651A60EBAE1CAF1D7C007D9612042629
:1002BE00EDB51B2BECB51A27E4F522F523F524F545
:1002CE0025F51AF51BF518F519F516F517F514F5AC
:1002DE0015F510F511F50CF50D75A0FF7580FF20C5
:1002EE00B30302014BE4F526F527F51E751F01F544
:0C02FE0022F52375A0FF7580FF02014B64
:03000B000204BB31
:1004BB00C0E0C0D0758CDC758A00051DE51D70028F
:1004CB00051CB4940BE51CB41106751C00751D00BE
:0504DB00D0D0D0E0329A
:0300000002039A5E
:0C039A00787FE4F6D8FD7581310203E1A4
:10042600BC000BBE0029EF8DF084FFADF022E4CCBA
:10043600F875F008EF2FFFEE33FEEC33FCEE9DEC83
:10044600984005FCEE9DFE0FD5F0E9E4CEFD22EDC9
:10045600F8F5F0EE8420D21CFEADF075F008EF2F13
:10046600FFED33FD4007985006D5F0F222C398FD04
:050476000FD5F0EA22A1
:1003A60002000EE493A3F8E493A34003F68001F25F
:1003B60008DFF48029E493A3F85407240CC8C33358
:1003C600C4540F4420C8834004F456800146F6DF27
:1003D600E4800B0102040810204080900003E47EB4
:1003E600019360BCA3FF543F30E509541FFEE4931C
:1003F600A360010ECF54C025E060A840B8E493A3E3
:10040600FAE493A3F8E493A3C8C582C8CAC583CA0D
:10041600F0A3C8C582C8CAC583CADFE9DEE780BEC5
:0100070000F8
:00000001FF
