BL51 BANKED LINKER/LOCATER V6.00                                                        10/23/2017  12:27:03  PAGE 1


BL51 BANKED LINKER/LOCATER V6.00, INVOKED BY:
E:\KEIL\C51\BIN\BL51.EXE Text1.obj TO 1 RAMSIZE (256)


MEMORY MODEL: SMALL


INPUT MODULES INCLUDED:
  Text1.obj (TEXT1)
  E:\KEIL\C51\LIB\C51S.LIB (?C_STARTUP)
  E:\KEIL\C51\LIB\C51S.LIB (?C?UIDIV)
  E:\KEIL\C51\LIB\C51S.LIB (?C_INIT)


LINK MAP OF MODULE:  1 (TEXT1)


            TYPE    BASE      LENGTH    RELOCATION   SEGMENT NAME
            -----------------------------------------------------

            * * * * * * *   D A T A   M E M O R Y   * * * * * * *
            REG     0000H     0008H     ABSOLUTE     "REG BANK 0"
            DATA    0008H     0038H     UNIT         ?DT?TEXT1
            DATA    0040H     0002H     UNIT         _DATA_GROUP_
            IDATA   0042H     0001H     UNIT         ?STACK

            * * * * * * *   C O D E   M E M O R Y   * * * * * * *
            CODE    0000H     0003H     ABSOLUTE     
            CODE    0003H     0005H     UNIT         ?C_INITSEG
                    0008H     0003H                  *** GAP ***
            CODE    000BH     0003H     ABSOLUTE     
            CODE    000EH     0458H     UNIT         ?PR?MAIN?TEXT1
            CODE    0466H     0090H     UNIT         ?PR?_XIANSHI?TEXT1
            CODE    04F6H     008CH     UNIT         ?C_C51STARTUP
            CODE    0582H     0055H     UNIT         ?C?LIB_CODE
            CODE    05D7H     0040H     UNIT         ?CO?TEXT1
            CODE    0617H     0025H     UNIT         ?PR?TIMER0?TEXT1



OVERLAY MAP OF MODULE:   1 (TEXT1)


SEGMENT                          DATA_GROUP 
  +--> CALLED SEGMENT          START    LENGTH
----------------------------------------------
?C_C51STARTUP                  -----    -----
  +--> ?PR?MAIN?TEXT1
  +--> ?C_INITSEG

?PR?MAIN?TEXT1                 -----    -----
  +--> ?PR?_XIANSHI?TEXT1

?PR?_XIANSHI?TEXT1             0040H    0002H
  +--> ?CO?TEXT1



BL51 BANKED LINKER/LOCATER V6.00                                                      10/23/2017  12:27:03  PAGE 2


SYMBOL TABLE OF MODULE:  1 (TEXT1)

  VALUE           TYPE          NAME
  ----------------------------------

  -------         MODULE        TEXT1
  C:0000H         SYMBOL        _ICE_DUMMY_
  D:0080H         PUBLIC        P0
  D:0090H         PUBLIC        P1
  D:00A0H         PUBLIC        P2
  D:00B0H         PUBLIC        P3
  B:00A8H.7       PUBLIC        EA
  D:0008H         PUBLIC        b1
  D:000AH         PUBLIC        b2
  D:000CH         PUBLIC        d1
  D:000EH         PUBLIC        b3
  D:0010H         PUBLIC        d2
  D:0012H         PUBLIC        b4
  D:0014H         PUBLIC        f1
  D:0016H         PUBLIC        d3
  D:0018H         PUBLIC        f2
  D:001AH         PUBLIC        d4
  D:001CH         PUBLIC        f3
  D:001EH         PUBLIC        d5
  D:0020H         PUBLIC        f4
  D:0022H         PUBLIC        d6
  D:0024H         PUBLIC        f5
  D:0026H         PUBLIC        f6
  D:0028H         PUBLIC        f7
  D:002AH         PUBLIC        f8
  C:000EH         PUBLIC        main
  D:002CH         PUBLIC        time
  D:0089H         PUBLIC        TMOD
  C:05D7H         PUBLIC        zifu
  B:00A8H.1       PUBLIC        ET0
  D:008CH         PUBLIC        TH0
  D:008AH         PUBLIC        TL0
  C:0607H         PUBLIC        shu
  B:00B0H.0       PUBLIC        p30
  B:0090H.2       PUBLIC        p12
  C:0617H         PUBLIC        timer0
  B:00B0H.1       PUBLIC        p31
  B:0090H.3       PUBLIC        p13
  B:00B0H.2       PUBLIC        p32
  B:0090H.4       PUBLIC        p14
  B:00B0H.3       PUBLIC        p33
  B:0090H.5       PUBLIC        p15
  B:0088H.4       PUBLIC        TR0
  B:00B0H.4       PUBLIC        p34
  B:0090H.6       PUBLIC        p16
  C:0466H         PUBLIC        _xianshi
  B:0090H.7       PUBLIC        p17
  B:00B0H.6       PUBLIC        p36
  B:00B0H.7       PUBLIC        p37
  D:002EH         PUBLIC        a
  D:0030H         PUBLIC        b
  D:0032H         PUBLIC        c
BL51 BANKED LINKER/LOCATER V6.00                                                      10/23/2017  12:27:03  PAGE 3


  D:0034H         PUBLIC        d
  D:0036H         PUBLIC        e
  D:0038H         PUBLIC        i
  D:003AH         PUBLIC        j
  D:003CH         PUBLIC        k
  D:003EH         PUBLIC        m
  -------         PROC          _XIANSHI
  D:0040H         SYMBOL        k
  -------         DO            
  D:0004H         SYMBOL        j
  D:0002H         SYMBOL        l
  -------         ENDDO         
  C:0466H         LINE#         32
  C:046AH         LINE#         33
  C:046AH         LINE#         34
  C:046DH         LINE#         35
  C:0470H         LINE#         36
  C:0477H         LINE#         37
  C:0477H         LINE#         39
  C:048DH         LINE#         40
  C:04B5H         LINE#         41
  C:04BAH         LINE#         42
  C:04C0H         LINE#         43
  C:04CBH         LINE#         44
  C:04D3H         LINE#         45
  C:04D9H         LINE#         46
  C:04ECH         LINE#         47
  C:04F2H         LINE#         48
  C:04F5H         LINE#         49
  -------         ENDPROC       _XIANSHI
  -------         PROC          MAIN
  C:000EH         LINE#         52
  C:000EH         LINE#         53
  C:000EH         LINE#         54
  C:0011H         LINE#         55
  C:0014H         LINE#         56
  C:0017H         LINE#         57
  C:0019H         LINE#         58
  C:001BH         LINE#         59
  C:001DH         LINE#         62
  C:0021H         LINE#         63
  C:0025H         LINE#         64
  C:002AH         LINE#         65
  C:002EH         LINE#         66
  C:0032H         LINE#         67
  C:0036H         LINE#         70
  C:0036H         LINE#         71
  C:0036H         LINE#         74
  C:003CH         LINE#         76
  C:0045H         LINE#         77
  C:0045H         LINE#         78
  C:004BH         LINE#         79
  C:004BH         LINE#         81
  C:004EH         LINE#         82
  C:004EH         LINE#         83
  C:0054H         LINE#         84
  C:0054H         LINE#         85
BL51 BANKED LINKER/LOCATER V6.00                                                      10/23/2017  12:27:03  PAGE 4


  C:0063H         LINE#         86
  C:0069H         LINE#         87
  C:007EH         LINE#         88
  C:007EH         LINE#         89
  C:0084H         LINE#         90
  C:0084H         LINE#         91
  C:0097H         LINE#         92
  C:0097H         LINE#         93
  C:009DH         LINE#         94
  C:009EH         LINE#         95
  C:009EH         LINE#         96
  C:009EH         LINE#         97
  C:00A0H         LINE#         99
  C:00A0H         LINE#         100
  C:00B9H         LINE#         101
  C:00B9H         LINE#         102
  C:00C1H         LINE#         103
  C:00C1H         LINE#         104
  C:00C3H         LINE#         105
  C:00C9H         LINE#         106
  C:00C9H         LINE#         107
  C:00D7H         LINE#         108
  C:00DDH         LINE#         109
  C:00F2H         LINE#         110
  C:00F2H         LINE#         112
  C:0105H         LINE#         113
  C:0105H         LINE#         114
  C:0107H         LINE#         115
  C:011CH         LINE#         116
  C:011CH         LINE#         118
  C:011CH         LINE#         119
  C:011CH         LINE#         120
  C:0122H         LINE#         121
  C:0122H         LINE#         122
  C:0133H         LINE#         123
  C:0137H         LINE#         124
  C:013CH         LINE#         125
  C:013EH         LINE#         126
  C:013EH         LINE#         127
  C:0141H         LINE#         136
  C:0145H         LINE#         137
  C:014BH         LINE#         140
  C:0154H         LINE#         141
  C:0154H         LINE#         145
  C:0157H         LINE#         146
  C:0157H         LINE#         147
  C:015DH         LINE#         148
  C:0162H         LINE#         149
  C:0162H         LINE#         150
  C:016AH         LINE#         151
  C:016AH         LINE#         152
  C:0170H         LINE#         153
  C:0173H         LINE#         154
  C:0173H         LINE#         155
  C:0179H         LINE#         156
  C:0179H         LINE#         157
  C:0187H         LINE#         158
BL51 BANKED LINKER/LOCATER V6.00                                                      10/23/2017  12:27:03  PAGE 5


  C:019CH         LINE#         159
  C:01A2H         LINE#         160
  C:01A2H         LINE#         162
  C:01B5H         LINE#         163
  C:01B5H         LINE#         164
  C:01BBH         LINE#         165
  C:01C0H         LINE#         166
  C:01C0H         LINE#         167
  C:01C0H         LINE#         168
  C:01C2H         LINE#         169
  C:01C7H         LINE#         171
  C:01C7H         LINE#         172
  C:01CAH         LINE#         173
  C:01CAH         LINE#         174
  C:01D0H         LINE#         175
  C:01D5H         LINE#         176
  C:01D5H         LINE#         178
  C:01DDH         LINE#         179
  C:01DDH         LINE#         180
  C:01E3H         LINE#         181
  C:01E6H         LINE#         182
  C:01E6H         LINE#         183
  C:01ECH         LINE#         184
  C:01ECH         LINE#         185
  C:01FAH         LINE#         186
  C:020FH         LINE#         187
  C:0215H         LINE#         188
  C:0215H         LINE#         189
  C:0228H         LINE#         190
  C:0228H         LINE#         191
  C:022EH         LINE#         192
  C:0237H         LINE#         193
  C:0237H         LINE#         195
  C:0239H         LINE#         198
  C:023EH         LINE#         199
  C:023EH         LINE#         201
  C:024AH         LINE#         202
  C:024AH         LINE#         203
  C:0250H         LINE#         204
  C:0257H         LINE#         205
  C:025DH         LINE#         206
  C:0263H         LINE#         207
  C:0263H         LINE#         208
  C:0266H         LINE#         209
  C:026CH         LINE#         210
  C:0271H         LINE#         211
  C:0274H         LINE#         212
  C:027AH         LINE#         213
  C:027FH         LINE#         214
  C:0282H         LINE#         215
  C:0282H         LINE#         216
  C:0285H         LINE#         217
  C:0285H         LINE#         218
  C:028BH         LINE#         219
  C:028BH         LINE#         220
  C:0299H         LINE#         221
  C:029FH         LINE#         222
BL51 BANKED LINKER/LOCATER V6.00                                                      10/23/2017  12:27:03  PAGE 6


  C:02B4H         LINE#         223
  C:02B4H         LINE#         224
  C:02C7H         LINE#         225
  C:02F3H         LINE#         226
  C:02F3H         LINE#         227
  C:02F3H         LINE#         228
  C:02F9H         LINE#         229
  C:030DH         LINE#         230
  C:0310H         LINE#         275
  C:0319H         LINE#         276
  C:0319H         LINE#         278
  C:031FH         LINE#         279
  C:031FH         LINE#         280
  C:0321H         LINE#         281
  C:032AH         LINE#         282
  C:032AH         LINE#         283
  C:0330H         LINE#         284
  C:0344H         LINE#         285
  C:0359H         LINE#         286
  C:036CH         LINE#         287
  C:036CH         LINE#         288
  C:036EH         LINE#         289
  C:0376H         LINE#         290
  C:038CH         LINE#         291
  C:038CH         LINE#         292
  C:0394H         LINE#         293
  C:0399H         LINE#         294
  C:0399H         LINE#         295
  C:03A5H         LINE#         296
  C:03A5H         LINE#         298
  C:03A7H         LINE#         299
  C:03ADH         LINE#         300
  C:03ADH         LINE#         301
  C:03B3H         LINE#         302
  C:03B5H         LINE#         303
  C:03BBH         LINE#         304
  C:03E5H         LINE#         306
  C:03F8H         LINE#         307
  C:03FEH         LINE#         308
  C:0409H         LINE#         309
  C:0409H         LINE#         310
  C:041AH         LINE#         311
  C:041AH         LINE#         312
  C:041DH         LINE#         313
  C:042EH         LINE#         314
  C:042EH         LINE#         315
  C:0431H         LINE#         317
  C:0431H         LINE#         318
  C:043FH         LINE#         319
  C:043FH         LINE#         322
  C:0442H         LINE#         323
  C:0463H         LINE#         324
  -------         ENDPROC       MAIN
  -------         PROC          TIMER0
  C:0617H         LINE#         327
  C:061BH         LINE#         329
  C:061EH         LINE#         330
BL51 BANKED LINKER/LOCATER V6.00                                                      10/23/2017  12:27:03  PAGE 7


  C:0621H         LINE#         331
  C:0629H         LINE#         332
  C:0631H         LINE#         333
  C:0637H         LINE#         334
  -------         ENDPROC       TIMER0
  -------         ENDMOD        TEXT1

  -------         MODULE        ?C?UIDIV
  C:0582H         PUBLIC        ?C?UIDIV
  -------         ENDMOD        ?C?UIDIV

Program Size: data=67.0 xdata=0 code=1593
LINK/LOCATE RUN COMPLETE.  0 WARNING(S),  0 ERROR(S)
