:03000000020100FA
:03000B0002019659
:10010000758160758901758AB0758C3CD2A9D2AFB2
:10011000C28C7540007541007542003090083091E6
:100120000F314002011B31403090FBB28C02011BA9
:1001300031403091FBC28C75410075420002011BB9
:100140007401F5A09001C1E54275F00A8493F58031
:1001500031BB7580FF7402F5A09001C1E54275F0D6
:100160000A84E5F093F58031BB7580FF7404F5A037
:10017000E54175F00A8493F58031BB7580FF740802
:10018000F5A09001C1E54175F00A84E5F093F58092
:1001900031BB7580FF22758AB0758C3CC0D0E540BC
:1001A00004F540B414127400F540E54104F541B47F
:1001B0003C067400F5410542D0D032792800D9FDC3
:0B01C00022C0F9A4B0999282F8809050
:00000001FF
