BL51 BANKED LINKER/LOCATER V6.00                                                        12/30/2021  16:44:41  PAGE 1


BL51 BANKED LINKER/LOCATER V6.00, INVOKED BY:
E:\KEIL\C51\BIN\BL51.EXE Text1.obj TO 1 RAMSIZE (256)


MEMORY MODEL: SMALL


INPUT MODULES INCLUDED:
  Text1.obj (TEXT1)
  E:\KEIL\C51\LIB\C51S.LIB (?C_STARTUP)
  E:\KEIL\C51\LIB\C51S.LIB (?C?CLDPTR)
  E:\KEIL\C51\LIB\C51S.LIB (?C_INIT)


LINK MAP OF MODULE:  1 (TEXT1)


            TYPE    BASE      LENGTH    RELOCATION   SEGMENT NAME
            -----------------------------------------------------

            * * * * * * *   D A T A   M E M O R Y   * * * * * * *
            REG     0000H     0008H     ABSOLUTE     "REG BANK 0"
            DATA    0008H     0038H     UNIT         ?DT?TEXT1
            DATA    0040H     0005H     UNIT         _DATA_GROUP_
            IDATA   0045H     000FH     UNIT         ?ID?TEXT1
            IDATA   0054H     0001H     UNIT         ?STACK

            * * * * * * *   C O D E   M E M O R Y   * * * * * * *
            CODE    0000H     0003H     ABSOLUTE     
            CODE    0003H     0800H     UNIT         ?CO?TEXT1
            CODE    0803H     0095H     UNIT         ?PR?MAIN?TEXT1
            CODE    0898H     008CH     UNIT         ?C_C51STARTUP
            CODE    0924H     0022H     UNIT         ?PR?_DELAY1?TEXT1
            CODE    0946H     0019H     UNIT         ?C?LIB_CODE
            CODE    095FH     0015H     UNIT         ?PR?_SEND_A_BIT?TEXT1
            CODE    0974H     000AH     UNIT         ?C_INITSEG



OVERLAY MAP OF MODULE:   1 (TEXT1)


SEGMENT                          DATA_GROUP 
  +--> CALLED SEGMENT          START    LENGTH
----------------------------------------------
?C_C51STARTUP                  -----    -----
  +--> ?PR?MAIN?TEXT1
  +--> ?C_INITSEG

?PR?MAIN?TEXT1                 0040H    0005H
  +--> ?PR?_DELAY1?TEXT1
  +--> ?CO?TEXT1

?C_INITSEG                     -----    -----
  +--> ?CO?TEXT1



BL51 BANKED LINKER/LOCATER V6.00                                                      12/30/2021  16:44:41  PAGE 2


SYMBOL TABLE OF MODULE:  1 (TEXT1)

  VALUE           TYPE          NAME
  ----------------------------------

  -------         MODULE        TEXT1
  C:0000H         SYMBOL        _ICE_DUMMY_
  D:0092H         PUBLIC        P1M0
  D:0091H         PUBLIC        P1M1
  D:0080H         PUBLIC        P0
  D:0090H         PUBLIC        P1
  D:00A0H         PUBLIC        P2
  D:00B0H         PUBLIC        P3
  D:00C0H         PUBLIC        P4
  D:00C8H         PUBLIC        P5
  B:0090H.0       PUBLIC        Send_Dat
  D:00A8H         PUBLIC        IE
  D:0008H         PUBLIC        show_temp_num
  D:00B8H         PUBLIC        IP
  I:0045H         PUBLIC        led50
  D:000AH         PUBLIC        temp_8num
  C:0924H         PUBLIC        _delay1
  D:00D8H         PUBLIC        CCON
  C:0803H         PUBLIC        main
  C:095FH         PUBLIC        _Send_A_bit
  D:0098H         PUBLIC        SCON
  D:0088H         PUBLIC        TCON
  D:000DH         PUBLIC        temp
  D:0025H         PUBLIC        color_num
  C:0003H         PUBLIC        show_bits
  D:0028H         PUBLIC        temp1
  D:00D0H         PUBLIC        PSW
  -------         PROC          _DELAY1
  D:0006H         SYMBOL        z
  -------         DO            
  D:0004H         SYMBOL        x
  D:0002H         SYMBOL        y
  -------         ENDDO         
  C:0924H         LINE#         267
  C:0924H         LINE#         268
  C:0924H         LINE#         270
  C:0928H         LINE#         271
  C:0945H         LINE#         272
  -------         ENDPROC       _DELAY1
  -------         PROC          _SEND_A_BIT
  D:0007H         SYMBOL        VAL
  C:095FH         LINE#         292
  C:095FH         LINE#         293
  C:095FH         LINE#         294
  C:0962H         LINE#         295
  C:0962H         LINE#         296
  C:0964H         LINE#         302
  C:0965H         LINE#         303
  C:0966H         LINE#         304
  C:0967H         LINE#         306
  C:0969H         LINE#         307
  C:096AH         LINE#         308
BL51 BANKED LINKER/LOCATER V6.00                                                      12/30/2021  16:44:41  PAGE 3


  C:096BH         LINE#         310
  C:096BH         LINE#         311
  C:096DH         LINE#         312
  C:096EH         LINE#         314
  C:0970H         LINE#         319
  C:0971H         LINE#         320
  C:0972H         LINE#         321
  C:0973H         LINE#         322
  C:0973H         LINE#         323
  -------         ENDPROC       _SEND_A_BIT
  -------         PROC          MAIN
  -------         DO            
  D:0006H         SYMBOL        i
  D:0040H         SYMBOL        j
  D:0042H         SYMBOL        k
  D:0044H         SYMBOL        temp_buf
  -------         ENDDO         
  C:0803H         LINE#         424
  C:0803H         LINE#         425
  C:0803H         LINE#         428
  C:0808H         LINE#         429
  C:080AH         LINE#         430
  C:080FH         LINE#         432
  C:0811H         LINE#         433
  C:0817H         LINE#         434
  C:081BH         LINE#         435
  C:081EH         LINE#         436
  C:0821H         LINE#         438
  C:0824H         LINE#         439
  C:0827H         LINE#         440
  C:082AH         LINE#         442
  C:082DH         LINE#         443
  C:082FH         LINE#         444
  C:0833H         LINE#         446
  C:0837H         LINE#         447
  C:083AH         LINE#         448
  C:083EH         LINE#         449
  C:083EH         LINE#         453
  C:0843H         LINE#         455
  C:084CH         LINE#         456
  C:084FH         LINE#         457
  C:0862H         LINE#         458
  C:0862H         LINE#         459
  C:0864H         LINE#         460
  C:0865H         LINE#         461
  C:0866H         LINE#         462
  C:0867H         LINE#         464
  C:0869H         LINE#         465
  C:086AH         LINE#         466
  C:086CH         LINE#         468
  C:086CH         LINE#         469
  C:086EH         LINE#         470
  C:086FH         LINE#         472
  C:0871H         LINE#         473
  C:0872H         LINE#         474
  C:0873H         LINE#         475
  C:0874H         LINE#         476
BL51 BANKED LINKER/LOCATER V6.00                                                      12/30/2021  16:44:41  PAGE 4


  C:087FH         LINE#         477
  C:088DH         LINE#         553
  C:088FH         LINE#         554
  C:0896H         LINE#         566
  -------         ENDPROC       MAIN
  -------         ENDMOD        TEXT1

  -------         MODULE        ?C?CLDPTR
  C:0946H         PUBLIC        ?C?CLDPTR
  -------         ENDMOD        ?C?CLDPTR

*** WARNING L16: UNCALLED SEGMENT, IGNORED FOR OVERLAY PROCESS
    SEGMENT: ?PR?_SEND_A_BIT?TEXT1

Program Size: data=85.0 xdata=0 code=2430
LINK/LOCATE RUN COMPLETE.  1 WARNING(S),  0 ERROR(S)
