:100003000000000000200008002C00100023006006
:100013000020008000230041003C00310004000266
:100023000008000C00F00030001700C00010003082
:10003300001000080014000600180003000000026E
:100043000000000000020000004200020022000441
:10005300001300F800000004003F00E2002000420B
:100063000040008200410002003F00FE0020000229
:100073000020004200200022007F00C60020000470
:10008300000000000002000000040000001F00FF49
:1000930000E000000002000000040010001800202F
:1000A30000F000C200100001001300FE0010000069
:1000B30000100080001400600018003000000000F1
:1000C300000000000000000000000000000000002D
:1000D30000000062000000F4000000F8000000606F
:1000E300000000000000000000000000000000000D
:1000F30000000000000000000000000000000000FD
:1001030000000000000000000010001800110000B3
:100113000011003C00110002001100020011004216
:1001230000FF002200110032001100020011000242
:100133000013000E00110000003000100010000C2E
:10014300000000000000000000300080002000805C
:1001530000240080002400800024008200A4008189
:10016300006700FE0024008000240080002C008033
:10017300002400800021008000280080003000005F
:10018300000000000000000000000000000000006C
:10019300000000000000000000000000000000005C
:1001A300000000000000000000000000000000004C
:1001B300000000000000000000000000000000003C
:0401C3000000000038
:10030F00E4FDFCD3ED9FEC9E50070DBD00010C806A
:01031F00F2EB
:0103200022BA
:1001C700E4F508F509F50AF50BF50C750DE2F50EE2
:1001D700750F02F510F511F512F513E50925E0FF86
:1001E700E50833FEE50F24FECDE50E34FFCDC39FB2
:1001F700CD9EC39400500B7402250FF50FE4350E06
:10020700F50EC3E50F9FFFE50E9EFEEF25E0FFEE1F
:1002170033FE74FF2FF58274FF3EF583740193F468
:10022700F58074012FF58274003EF583740193F411
:10023700F5A07F447E0012030F7580FF75A0FF7F36
:100247000A12030FE50925E0FFE50833FEE50F2451
:10025700FEFDE50E34FFFCC3ED9FFFEC9EFED3EFE2
:100267009400EE940040080509E50970020508307E
:10027700B641E50925E0FFE50833FEC3ED9FEC9E97
:10028700C3940040290513E5137002051264024563
:1002970012701B85100E85110F7402250FF50FE4E0
:1002A700350EF50EF510850F11E4F512F513E4F58B
:1002B70008F509E50D247EFFE4350CFED3E5119F13
:1002C700E5109E400C751000751102750E00750F34
:1002D70002D3E511950DE510950C50030201E2AE2E
:1002E7000CAF0D7C007D64120321AA06AB07AE0E8E
:1002F700AF0F120321C3EF9BFFEE9AFE12030F8588
:080307000C0E850D0F0201E24E
:03000000020333C5
:0C033300787FE4F6D8FD7581130201C745
:10032100EF8DF0A4A8F0CF8CF0A428CE8DF0A42EF0
:02033100FE22AA
:00000001FF
