BL51 BANKED LINKER/LOCATER V6.00                                                        03/27/2021  14:51:51  PAGE 1


BL51 BANKED LINKER/LOCATER V6.00, INVOKED BY:
E:\KEIL\C51\BIN\BL51.EXE 20.obj TO 20 RAMSIZE (256)


MEMORY MODEL: SMALL


INPUT MODULES INCLUDED:
  20.obj (20)
  E:\KEIL\C51\LIB\C51S.LIB (?C_STARTUP)
  E:\KEIL\C51\LIB\C51S.LIB (?C?CLDOPTR)
  E:\KEIL\C51\LIB\C51S.LIB (?C_INIT)


LINK MAP OF MODULE:  20 (20)


            TYPE    BASE      LENGTH    RELOCATION   SEGMENT NAME
            -----------------------------------------------------

            * * * * * * *   D A T A   M E M O R Y   * * * * * * *
            REG     0000H     0008H     ABSOLUTE     "REG BANK 0"
            DATA    0008H     0007H     UNIT         _DATA_GROUP_
            DATA    000FH     0005H     UNIT         ?DT?20
            IDATA   0014H     0001H     UNIT         ?STACK

            * * * * * * *   C O D E   M E M O R Y   * * * * * * *
            CODE    0000H     0003H     ABSOLUTE     
                    0003H     0008H                  *** GAP ***
            CODE    000BH     0003H     ABSOLUTE     
            CODE    000EH     00F5H     UNIT         ?PR?MAIN?20
            CODE    0103H     008CH     UNIT         ?C_C51STARTUP
            CODE    018FH     002DH     UNIT         ?C?LIB_CODE
            CODE    01BCH     002BH     UNIT         ?PR?_PRINT_STRING?20
            CODE    01E7H     0029H     UNIT         ?PR?TIMER0_INT?20
            CODE    0210H     0022H     UNIT         ?PR?LCD_INIT?20
            CODE    0232H     0022H     UNIT         ?PR?_DELAY_MS?20
            CODE    0254H     0021H     UNIT         ?PR?_DISPLAY_RESULT?20
            CODE    0275H     001DH     UNIT         ?CO?20
            CODE    0292H     001AH     UNIT         ?PR?_DELAYMS?20
            CODE    02ACH     0019H     UNIT         ?PR?_WRITE_DATA?20
            CODE    02C5H     0010H     UNIT         ?PR?GETVALUE?20
            CODE    02D5H     0010H     UNIT         ?C_INITSEG
            CODE    02E5H     000DH     UNIT         ?PR?_WRITE_COM?20



OVERLAY MAP OF MODULE:   20 (20)


SEGMENT                          DATA_GROUP 
  +--> CALLED SEGMENT          START    LENGTH
----------------------------------------------
?C_C51STARTUP                  -----    -----
  +--> ?PR?MAIN?20
  +--> ?C_INITSEG

?PR?MAIN?20                    0008H    0002H
BL51 BANKED LINKER/LOCATER V6.00                                                      03/27/2021  14:51:51  PAGE 2


  +--> ?PR?LCD_INIT?20
  +--> ?PR?_WRITE_COM?20
  +--> ?CO?20
  +--> ?PR?_PRINT_STRING?20
  +--> ?PR?_DELAYMS?20
  +--> ?PR?GETVALUE?20
  +--> ?PR?_DISPLAY_RESULT?20

?PR?LCD_INIT?20                -----    -----
  +--> ?PR?_WRITE_COM?20

?PR?_WRITE_COM?20              -----    -----
  +--> ?PR?_DELAY_MS?20

?PR?_PRINT_STRING?20           000AH    0005H
  +--> ?PR?_WRITE_DATA?20

?PR?_WRITE_DATA?20             -----    -----
  +--> ?PR?_DELAY_MS?20

?PR?_DISPLAY_RESULT?20         000AH    0001H
  +--> ?PR?_WRITE_COM?20
  +--> ?PR?_WRITE_DATA?20



SYMBOL TABLE OF MODULE:  20 (20)

  VALUE           TYPE          NAME
  ----------------------------------

  -------         MODULE        20
  C:0000H         SYMBOL        _ICE_DUMMY_
  D:0080H         PUBLIC        P0
  C:01E7H         PUBLIC        Timer0_INT
  D:0090H         PUBLIC        P1
  D:00A0H         PUBLIC        P2
  D:00B0H         PUBLIC        P3
  B:00A8H.7       PUBLIC        EA
  C:02B8H         PUBLIC        _write_data
  C:01BCH         PUBLIC        _print_string
  D:000FH         PUBLIC        PWM_temp
  D:00A8H         PUBLIC        IE
  B:0090H.7       PUBLIC        EN
  B:00A0H.5       PUBLIC        OE
  D:00B8H         PUBLIC        IP
  C:0254H         PUBLIC        _Display_Result
  B:0090H.0       PUBLIC        PWM_pin
  C:02C5H         PUBLIC        GetValue
  B:0090H.5       PUBLIC        RS
  C:000EH         PUBLIC        main
  D:0010H         PUBLIC        PWM_num
  B:00A0H.7       PUBLIC        ST
  C:02E5H         PUBLIC        _write_com
  C:023AH         PUBLIC        _delay_ms
  D:0098H         PUBLIC        SCON
  D:0089H         PUBLIC        TMOD
BL51 BANKED LINKER/LOCATER V6.00                                                      03/27/2021  14:51:51  PAGE 3


  D:0088H         PUBLIC        TCON
  D:0011H         PUBLIC        get_value_flag
  B:0090H.1       PUBLIC        human_pin
  B:00A8H.1       PUBLIC        ET0
  C:0210H         PUBLIC        lcd_init
  D:008CH         PUBLIC        TH0
  D:008AH         PUBLIC        TL0
  B:0088H.4       PUBLIC        TR0
  B:00A0H.4       PUBLIC        EOC
  D:0012H         PUBLIC        PWM_num1
  B:00A0H.6       PUBLIC        CLK
  D:00C8H         PUBLIC        T2CON
  C:0296H         PUBLIC        _DelayMS
  D:0013H         PUBLIC        key1_flag
  D:00D0H         PUBLIC        PSW
  B:00A0H.0       PUBLIC        key1
  B:00A0H.1       PUBLIC        key2
  B:00A0H.2       PUBLIC        key3
  B:0090H.6       PUBLIC        LCDRW
  -------         PROC          L?0065
  -------         ENDPROC       L?0065
  -------         PROC          _WRITE_DATA
  D:0007H         SYMBOL        dat
  C:02B8H         LINE#         22
  C:02B8H         LINE#         23
  C:02BAH         LINE#         24
  C:02BAH         LINE#         25
  C:02BAH         LINE#         26
  C:02BDH         LINE#         27
  C:02BFH         LINE#         28
  C:02C2H         LINE#         29
  C:02C4H         LINE#         30
  -------         ENDPROC       _WRITE_DATA
  -------         PROC          _WRITE_COM
  D:0007H         SYMBOL        com
  C:02E5H         LINE#         34
  C:02E5H         LINE#         35
  C:02E7H         LINE#         36
  C:02E7H         LINE#         37
  C:02E7H         LINE#         38
  C:02EAH         LINE#         39
  C:02ECH         LINE#         40
  C:02EFH         LINE#         41
  C:02F1H         LINE#         42
  -------         ENDPROC       _WRITE_COM
  -------         PROC          LCD_INIT
  C:0210H         LINE#         46
  C:0210H         LINE#         47
  C:0212H         LINE#         48
  C:0214H         LINE#         51
  C:0219H         LINE#         52
  C:021EH         LINE#         53
  C:0223H         LINE#         54
  C:0228H         LINE#         55
  C:022DH         LINE#         56
  -------         ENDPROC       LCD_INIT
  -------         PROC          _PRINT_STRING
BL51 BANKED LINKER/LOCATER V6.00                                                      03/27/2021  14:51:51  PAGE 4


  D:000AH         SYMBOL        str
  -------         DO            
  D:000DH         SYMBOL        i
  -------         ENDDO         
  C:01BCH         LINE#         58
  C:01C2H         LINE#         60
  C:01D9H         LINE#         61
  C:01D9H         LINE#         63
  C:01DCH         LINE#         64
  C:01E6H         LINE#         65
  -------         ENDPROC       _PRINT_STRING
  C:0236H         SYMBOL        L?0064
  -------         PROC          L?0063
  -------         ENDPROC       L?0063
  C:0236H         SYMBOL        L?0064
  -------         PROC          _DELAY_MS
  D:0006H         SYMBOL        t
  -------         DO            
  D:0004H         SYMBOL        j
  -------         ENDDO         
  C:023AH         LINE#         69
  C:023AH         LINE#         71
  C:023EH         LINE#         72
  C:0253H         LINE#         73
  -------         ENDPROC       _DELAY_MS
  C:0292H         SYMBOL        L?0067
  -------         PROC          L?0066
  -------         ENDPROC       L?0066
  C:0292H         SYMBOL        L?0067
  -------         PROC          _DELAYMS
  D:0006H         SYMBOL        ms
  -------         DO            
  D:0005H         SYMBOL        i
  -------         ENDDO         
  C:0296H         LINE#         26
  C:0296H         LINE#         27
  C:0296H         LINE#         29
  C:02A0H         LINE#         30
  C:02A0H         LINE#         31
  C:02ABH         LINE#         32
  C:02ABH         LINE#         33
  -------         ENDPROC       _DELAYMS
  -------         PROC          _DISPLAY_RESULT
  D:000AH         SYMBOL        d
  C:0254H         LINE#         35
  C:0256H         LINE#         36
  C:0256H         LINE#         37
  C:025BH         LINE#         38
  C:0261H         LINE#         39
  C:0267H         LINE#         40
  -------         ENDPROC       _DISPLAY_RESULT
  -------         PROC          GETVALUE
  -------         DO            
  D:0007H         SYMBOL        num
  -------         ENDDO         
  C:02C5H         LINE#         42
  C:02C5H         LINE#         44
BL51 BANKED LINKER/LOCATER V6.00                                                      03/27/2021  14:51:51  PAGE 5


  C:02C7H         LINE#         45
  C:02C9H         LINE#         46
  C:02CBH         LINE#         47
  C:02CEH         LINE#         48
  C:02D0H         LINE#         49
  C:02D2H         LINE#         51
  C:02D4H         LINE#         52
  C:02D4H         LINE#         53
  -------         ENDPROC       GETVALUE
  -------         PROC          MAIN
  -------         DO            
  D:0008H         SYMBOL        i
  -------         ENDDO         
  C:000EH         LINE#         55
  C:000EH         LINE#         56
  C:000EH         LINE#         57
  C:0013H         LINE#         58
  C:0016H         LINE#         60
  C:0019H         LINE#         61
  C:001BH         LINE#         63
  C:001DH         LINE#         64
  C:001FH         LINE#         65
  C:0021H         LINE#         67
  C:0023H         LINE#         68
  C:0025H         LINE#         69
  C:0027H         LINE#         70
  C:0029H         LINE#         72
  C:002BH         LINE#         73
  C:002DH         LINE#         74
  C:002FH         LINE#         77
  C:0032H         LINE#         78
  C:0037H         LINE#         79
  C:0040H         LINE#         81
  C:0045H         LINE#         82
  C:004EH         LINE#         84
  C:004EH         LINE#         85
  C:004EH         LINE#         86
  C:0054H         LINE#         88
  C:0057H         LINE#         89
  C:005AH         LINE#         90
  C:005DH         LINE#         91
  C:0064H         LINE#         92
  C:0069H         LINE#         93
  C:006FH         LINE#         94
  C:0073H         LINE#         95
  C:0075H         LINE#         96
  C:007CH         LINE#         97
  C:007FH         LINE#         98
  C:007FH         LINE#         99
  C:007FH         LINE#         100
  C:0083H         LINE#         101
  C:0089H         LINE#         104
  C:008EH         LINE#         105
  C:0090H         LINE#         106
  C:0090H         LINE#         109
  C:0092H         LINE#         110
  C:0092H         LINE#         111
BL51 BANKED LINKER/LOCATER V6.00                                                      03/27/2021  14:51:51  PAGE 6


  C:0095H         LINE#         112
  C:0098H         LINE#         113
  C:009BH         LINE#         114
  C:00AAH         LINE#         115
  C:00ADH         LINE#         116
  C:00ADH         LINE#         117
  C:00B0H         LINE#         118
  C:00B0H         LINE#         119
  C:00B3H         LINE#         120
  C:00B6H         LINE#         121
  C:00B9H         LINE#         122
  C:00C8H         LINE#         123
  C:00CBH         LINE#         124
  C:00CBH         LINE#         125
  C:00CEH         LINE#         126
  C:00CEH         LINE#         127
  C:00CEH         LINE#         128
  C:00D3H         LINE#         131
  C:00D5H         LINE#         132
  C:00D5H         LINE#         133
  C:00D8H         LINE#         134
  C:00DBH         LINE#         135
  C:00E0H         LINE#         136
  C:00E9H         LINE#         137
  C:00E9H         LINE#         138
  C:00F3H         LINE#         139
  C:0100H         LINE#         141
  -------         ENDPROC       MAIN
  -------         PROC          TIMER0_INT
  C:01E7H         LINE#         144
  C:01EBH         LINE#         146
  C:01EDH         LINE#         147
  C:01FCH         LINE#         148
  C:01FEH         LINE#         149
  C:0209H         LINE#         150
  C:020BH         LINE#         151
  -------         ENDPROC       TIMER0_INT
  -------         ENDMOD        20

  -------         MODULE        ?C?CLDOPTR
  C:018FH         PUBLIC        ?C?CLDOPTR
  -------         ENDMOD        ?C?CLDOPTR

Program Size: data=21.0 xdata=0 code=746
LINK/LOCATE RUN COMPLETE.  0 WARNING(S),  0 ERROR(S)
