:1006B50000C000F900A400B000990092008200F883
:1006C50000800090004000790024003000190012DD
:0806D500000200780000001093
:06000300042400000000CF
:1004FD00AB07AA06E52B6401452A60030205BBFC88
:10050D007D0A12038BED25E0FFEC33FE74B52FF55C
:10051D008274063EF583740193F580D2A1D2A0C2F8
:10052D00A2E50B450A6008E50B6401450A70227CC3
:10053D00007D0AAF03AE0212038B7C007D0A12030D
:10054D008BED25E0FFEC33FE74C92FF58274068028
:10055D00207C007D0AAF03AE0212038B7C007D0A66
:10056D0012038BED25E0FFEC33FE74B52FF582748D
:10057D00063EF583740193F580D2A2D2A0C2A1AE3E
:10058D0002AF037C007D6412038B7C007D0A120395
:10059D008BED25E0FFEC33FE74B52FF58274063E2E
:1005AD00F583740193F580D2A2D2A1C2A0227580E9
:0205BD00FF221B
:10000E00D2B3D2A4750A00750B02751A00751BC8FF
:10001E00E4F50CF50D752A00752B01AE12AF137CAD
:10002E00007D0A120379AA06AB07AE10AF117D64EC
:10003E00120379EF2BFFEE3ACF2515CF3514FE12B2
:10004E0004FD20B53FAF0DEF25E02410F8E6FC08C7
:10005E00E64C700DEF25E02410F876000876098046
:10006E000EE50D25E02410F808E61618700116E4CA
:10007E00F528F5290529E52970020528B420F5E5AE
:10008E0028B44EF020B640AF0DEF25E02410F8E670
:10009E00FC08E664094C700CEF25E02410F8E4F639
:1000AE0008F6800EE50D25E02410F80806E6187017
:1000BE000106E4F528F5290529E52970020528B47D
:1000CE0020F5E528B44EF030B403020023050DE50B
:1000DE000D7002050C6403450C7056AE12AF13FC86
:1000EE007D0A120379AA06AB07AE10AF117D64121A
:1000FE000379EF2BFFEE3ACF2515CF3514FEBE0256
:10010E001FBF081CA2B4B340FBE4F528F52905294E
:10011E00E52970020528B410F5E528B427F08033E0
:10012E00E4F50CF50DF514F515F512F513F510F5BE
:10013E0011A2B4B340FBE4F528F529C3E5299410C8
:10014E00E528942740030200230529E52970EC05D4
:10015E002880E8752A00752B01AF1BAE1A1204FD1C
:10016E0020B51DE51B151B7002151AE4F528F5299F
:10017E000529E52970020528B420F5E528B44EF0CE
:10018E0020B61D051BE51B7002051AE4F528F5299E
:10019E000529E52970020528B420F5E528B44EF0AE
:1001AE0020B4B0A2B4B340FB758901758CEEE4F5B2
:1001BE008AD2AFD2A9D28CF51EF51FF508750901AA
:1001CE00F52A752B01F518F519E4F528F5290529F9
:1001DE00E529700205286414452870F2E5096401CA
:1001EE004508701020B504F52AF52B20B606752AA1
:1001FE0000752B017580FFE509F47003E508F470B6
:10020E003B20B517E519640845187007F5187519E0
:10021E000880080519E51970020518A2B5B340FB50
:10022E0020B614E51945187006F518F5198008E57D
:10023E0019151970021518A2B6B340FBE4F528F58E
:10024E0029AC18AD19AE18AF19120379C3E5299F61
:10025E00E5289E500A0529E52970E6052880E2204A
:10026E00B410C3E49509F509E49508F508A2B4B3F2
:10027E0040FB30B306752200752301E4F528F529FD
:10028E00AC18AD19AE18AF19120379C3E5299FE565
:10029E00289E500A0529E52970E6052880E2E52307
:1002AE0064014522702720B324851E20851F21F569
:1002BE001EF51FE5272401F527E43526F526E4353E
:1002CE0025F525E43524F524E4F522F523E4F52877
:1002DE00F529AC18AD19AE18AF19120379C3E5297B
:1002EE009FE5289E500A0529E52970E6052880E23B
:1002FE00E50A60030201D7E50B14601E14603F246B
:10030E000260030201D7AE1AAF1B7C007D481203B8
:10031E0079AC20AD2112038B801CAE1AAF1BE4FC0E
:10032E00FDAB27AA26A925A8241203E0E47B107AA8
:10033E0027F9F812046B1204FDD2A30201D7AE16F0
:10034E00AF177C007D3C12038B7C007D6412037919
:10035E00AA06AB07AE16AF177D3C12038BEB2DFF33
:0B036E00EA3CFE1204FDC2A30201D70E
:03000B0002064B9F
:10064B00C0E0C0D0758CEE758A00051DE51D7002EB
:10065B00051C051FE51F7002051EE51D64C8451C22
:10066B00702DE509640145087017050BE50B700249
:10067B00050AD39402E50A94004006750A00750B2F
:10068B0000050FE50F7002050E751C00751D00E5CA
:10069B000F643C450E700E0517E5177002051675B5
:0A06AB000E00750F00D0D0D0E03231
:030000000205BF37
:0C05BF00787FE4F6D8FD75812B0206065B
:10037900EF8DF0A4A8F0CF8CF0A428CE8DF0A42E98
:02038900FE2252
:10038B00BC000BBE0029EF8DF084FFADF022E4CC56
:10039B00F875F008EF2FFFEE33FEEC33FCEE9DEC1F
:1003AB00984005FCEE9DFE0FD5F0E9E4CEFD22ED65
:1003BB00F8F5F0EE8420D21CFEADF075F008EF2FAF
:1003CB00FFED33FD4007985006D5F0F222C398FDA0
:0503DB000FD5F0EA223D
:1003E000E88FF0A4CC8BF0A42CFCE98EF0A42CFCBC
:1003F0008AF0EDA42CFCEA8EF0A4CDA8F08BF0A43A
:100400002DCC3825F0FDE98FF0A42CCD35F0FCEB98
:100410008EF0A4FEA9F0EB8FF0A4CFC5F02ECD395D
:0F042000FEE43CFCEAA42DCE35F0FDE43CFC22CA
:10042F0075F008758200EF2FFFEE33FECD33CDCC84
:10043F0033CCC58233C5829BED9AEC99E582984007
:10044F000CF582EE9BFEED9AFDEC99FC0FD5F0D6E4
:10045F00E4CEFBE4CDFAE4CCF9A88222B800C1B90E
:10046F000059BA002DEC8BF084CFCECDFCE5F0CB4C
:10047F00F97818EF2FFFEE33FEED33FDEC33FCEB85
:10048F0033FB10D703994004EB99FB0FD8E5E4F940
:10049F00FA227818EF2FFFEE33FEED33FDEC33FC2D
:1004AF00C933C910D7059BE99A4007EC9BFCE99A21
:1004BF00F90FD8E0E4C9FAE4CCFB2275F010EF2F66
:1004CF00FFEE33FEED33FDCC33CCC833C810D70766
:1004DF009BEC9AE899400AED9BFDEC9AFCE899F8A1
:0E04EF000FD5F0DAE4CDFBE4CCFAE4C8F92234
:1005CB0002000EE493A3F8E493A34003F68001F238
:1005DB0008DFF48029E493A3F85407240CC8C33331
:1005EB00C4540F4420C8834004F456800146F6DF00
:1005FB00E4800B0102040810204080900003E47E8D
:10060B00019360BCA3FF543F30E509541FFEE493F4
:10061B00A360010ECF54C025E060A840B8E493A3BB
:10062B00FAE493A3F8E493A3C8C582C8CAC583CAE6
:10063B00F0A3C8C582C8CAC583CADFE9DEE780BE9E
:0100090000F6
:00000001FF
