:10000E00FFFFFFFF01C0FFDFFFDFFFDFFFDFFFDFCF
:10001E00FFDFFFDFFFFFFFFFFFFF07F0FBEFFDDF5F
:10002E00FDDFFDDFFDDFFBEF07F0FFFFFFFFFFFF53
:10003E0001F8FFF7FFEFFFDFFFDFFFEFFFF701F83C
:10004E00FFFFFFFFFFFF01C07DDF7DDF7DDF7DDF77
:10005E007DDF7DDF7DDFFFFFFFFF87FF03FF01FEFB
:10006E0001FC01F801F001E003C0078003C001E0CC
:10007E0001F001F801FC01FE03FF87FFFFFFFFFF08
:10008E00DFFFDBF7DBB7DB7B0180DCFDDDBEDFBF37
:10009E00DFDF00ECDFF3DDEBD3DD5FBEDF07FFFF5D
:1000AE00FFFFFFFFFFFFFFFF8FFF03FE01FC01F8C5
:1000BE0000F000E000C000C00080018003000700D7
:1000CE00070003000180008000C000C000E000F0C7
:1000DE0001F801FC03FE8FFFFFFFFFFFFFFFFFFF95
:1000EE00FFFE7FFF9FFF0700F8FFBFEFDFF3E7FC88
:1000FE00F0BFF77F3780F7FFF7FED7F9E7E7FFFF8F
:10010E00FFFFFFFFFFFF1FF8E7E7FBDFFDBFFFFF6E
:10011E00FFFFFFFFFEFFFEFFFEFFFEFFFEFFFEFFE7
:10012E00FEFFFEFFFEFFFEFFFEFFFEFFFEFFFFFFD8
:10013E00FFFFFFFFFBFFE3FF9BFF7BFEFBF9FBE7F0
:10014E00FBF97BFE9BFFE3FFFBFFFFFFFFFFFFFFC4
:10015E00FEFFFEFFFEFFFEFFFEFFFEFFFEFFFEFFA9
:10016E00FEFFFEFFFEFFFEFFFEFFFEFFFFFFFFFF97
:10017E00FFFFFDBFFBDFE7E71FF8FFFFFFFFFFFFFE
:10018E00FBEFDBF7BBF97BFE9B7D63B3BFDFCFE7F6
:10019E00F0F937FEF7F9F7E7D7DFE7BFFF7FFFFF8D
:1001AE00BFFFBFBFBDDF33E0FFDFFFBF03B0FBBB51
:1001BE00FDBDFFBF0380FBBDFBBB03BCFFBFFFFF4D
:1001CE007FFF9FFF0700F8FFFB7F1B7EDBBADBD6AE
:1001DE00DBEE00D0DBBEDBBEDB7E1B7EFB7FFFFFDC
:1001EE00FF7FFF9F01E0DDFDDDFDDDFDDDFD01801B
:1001FE00DDFDDDFDDDBDDD7D0180FFFFFFFFFFFFCE
:10020E00F7FDF7FE76FF110067FFFFFCFFFF07E02B
:10021E0077F777F7000077F777F707E0FFFFFFFF35
:10022E00BFFFBFFFBBFFBBE19BEDABEDB3EDB8ED89
:10023E00B3E1ABBF9B7F3B80BBFFBFFFBFFFFFFFA9
:10024E00FF7FFF9F0160B57F55B001B565D515E500
:10025E007C905545655501456510D57FBD3FFFFF27
:10026E00BFEF9FC7AFEBB3EDBCEE3FEBCFC7FBFFCE
:10027E00FBFFFBFFFBBFFB7FFBBF03C0FFFFFFFFCF
:10028E00EFFDEFBDEF7E00806FFFFFFF6BFD9B85E7
:10029E00BBBDABBD1D80BDBD9CBDA505FFFDFFFF5C
:1002AE00EFFDEFBDEF7E00806FFFFFFF6BFD9B85C7
:1002BE00BBBDABBD1D80BDBD9CBDA505FFFDFFFF3C
:1002CE00EFFBEFFC2FFF00006FFFEFFEBBEDABEE81
:1002DE002BEB8BEBA000ABEB2BEBABEEBBEDFFFFF9
:1002EE00FFFFFFFFFFFF01CCFFFFFFFFFFFFFFFF41
:1002FE00FFFFFFFFFFFFFFFFFFFFFFFFFFFFFFFF00
:10030E00FFFFFFFFFFFFFFFF0000FFFFFFFFFFFFED
:10031E007FFF7F7F7BBF7BDF7BE701F87DFF7CFF6D
:10032E007DFF7FFF00007FFF7FFF7FFF7FFFFFFFCF
:10033E00DFDDCF9853DD9CEDCFEDFFBFFDCFFD7020
:10034E00017FFDBCFDD39DEFA5D339BCFF7FFFFF21
:10035E00FF7F0180DFFEDFFEC000DF7FFF9F03E037
:10036E00DB7F1BBEDBD9DDE7DCD91DBEFF7FFFFFC8
:10037E00FFFFFFFFFFFFFFFF0000FFFFFFFFFFFF7D
:10038E00F7BFF7C777FF77FF77C377BF77BF00BD9C
:10039E0077B377BF77BF778F77FBF7F7F7CFFFFF8F
:1003AE00EFFDF3FDDBFDDBFDDBFDDBBDDA7D198053
:1003BE00DBFDDBFDDBFDDBFDDBFDEBFDF3FDFFFF21
:1003CE00BFFFAFFFB1C1B7FDB7FD0000B7EDB7DDA1
:1003DE00B7E1BFFF07F0FFBFFF7F0080FFFFFFFF0A
:1003EE00FFFE7FFF9FFF0700F8FFBFFFCFFFF0FF6D
:1003FE00070077F777F777F777F7F7F7F7FFFFFF4E
:10040E00FFFFFFFFF7FFE7FFDBFF5BFFBDFEF9FE20
:10041E00D7F98FF77FF5FFEAFFD7FFCFFFBFFFFFBB
:10042E0003F0FDEFFDDFFE1FFE7FDEBF9EBF9EBF12
:10043E005ECF5EC3DED4DED7CEDBF2DBFCDBF2DBDF
:10044E00CEDBDED7DED45EC35ECF9EDF9EDFDEDF89
:10045E00FEDFFDDFFDEF03F0FFFFFFFFFFFFFFFFFE
:10046E00FFFF7FFC1FF80FF007E007E003C003C09B
:10047E00018001800180818181818181C183C3C31B
:10048E00C3C3E7E7E7E7EFF7FFFF3FFC1FF81FF8EF
:10049E001FF81FF83FFCFFFFFFFF3FFC1FF81FF880
:1004AE001FF81FF83FFCFFFFFFFF3FFC1FF81FF870
:1004BE001FF81FF83FFCFFFFEFF7E7E7E7E7C3C3BF
:1004CE00C3C3C183818181818181018001800180CB
:1004DE0003C003C007E007E00FF01FF87FFCFFFF2B
:1004EE00FFFFFFFFFFFFFFFF03FF03FF01FF01FF02
:1004FE00007F007F001F001F000F0003000300039A
:10050E0000010001000100010001000100010001D5
:10051E00000100010003000300070007000F000F99
:10052E00000F000F001F001F001F003F003F003F85
:10053E00003F003F003F003F003F003F003F003FB5
:10054E00003F003F003F003F003F001F001F001F05
:10055E00001F000F000F000F000F001F003F003F95
:10056E00003F003F003F003F003F007F007F007FC5
:10057E00007F007F007F007F007F003F003F003F35
:10058E00003F003F003F003F001F001F000F000F05
:10059E00000F000F0007000300030003000300011B
:1005AE00000100010001000100030003000300032D
:1005BE0000030007000F001F003F007F00FF00FF39
:1005CE0001FF03FF03FF03FF97839783AB038107AD
:1005DE009A079A879A878E0F8F6F8F7F87FF87FF75
:1005EE00D7FFD3FFD9FF49FF41FF41FF49FF6BFF03
:1005FE006BFF7FFF7FFFFFFFFFFFFFFFFFFFFFFF91
:10060E00FFFFFFFFFFFFFFFFFFFFFFFFFFFFFFFFEC
:10061E00FFFFFFFFFFFFFFFFFFFFFFFFFFFFBFFF1C
:10062E00AAF9AAF9AAB982398E01A801A9FDB1FFCA
:10063E00B7FF87FF87FF07FF037F037F023F183F48
:10064E001ABF383F231F031F079F67936F834FC344
:10065E004FFF4FFF4FFF5FFF5FFF5FFF5FFF5FFFCC
:10066E005FFF1FFF1FFF1FFF1FFF19FF19FF19FF5E
:10067E0019FF19FF18FF19FF19FF39FF39FF39FF4D
:10068E0019FF18FF18FF18FF18FF18FF11FF11FFB1
:10069E0011FF59FF5BFF5BFF5BFF51FF41FF6B1FBC
:1006AE00731F5107902790272E016F015309790967
:1006BE003A09124317031707075727DF27FF27FFAC
:1006CE0027FF27FF27FF27FF27FF27FF27FF23FFF0
:1006DE0023FF27FF37FF17FF17FF17FF1FFF1FFF10
:1006EE005FFF5FFF5FFF5FFF5FFF5FFF5FFF5FFF0C
:1006FE005FFF5FFF1FFF1FFF1FFF3FFF2CFF2CFF42
:10070E0028BF243F261F681F591F4B1F439F589F0A
:10071E00D89FC49994599101A1008FFF0FFF1FFF1D
:10072E003FFF3FFF3FFF9FFFBFFFBFFFBFFF3FFFEB
:10073E003FFF3FFF3FFF3FFF3FFF3FFF3FFF3FFFBB
:10074E003FFF3FFF3FFF3FFF3FFF3FFFAFFF8FFFEB
:10075E000FFFCFFFAFFFAFFFA7FFA7FF27FFAFFF33
:10076E00AFFFAFFFAFFF8FFF8FFFAFFFAFFFAFFF4B
:10077E00AFFFAFFFAFFFEFFFC7FF47FF67FF67FF9B
:10078E0063FF6387638740239A839B83CD03CD07E3
:10079E00DA07D287D607C60FC76FCF7FCFFFCFFF3F
:1007AE00CFFF8FFFCFFFCFFFCFFFCFFFCFFFDAFF00
:1007BE00D8FFD87FC07FC47FD5FFD1FFD3FFD3FF33
:1007CE00D7FFC7FFC7FFCFFFCFFFCFFFCFFFCFFFB3
:1007DE00CFFFFFFFFFFFFFFFFFFFFFFFFCFFFCFF51
:1007EE00F87FF83FFA18F019E101E1C7E9D7EBFFFE
:1007FE00E3FFE3FFE7FFC7FFC7FFC7FFC6FFD4FF57
:10080E00D4FFD0FFD27FDA3F981F9A9093818381D5
:10081E0087FF97FF97FF87FF87FFAFFFAFFF8FFF22
:10082E008FFF9FFF9FFF9FFF9FFF99FF99FF99FFEC
:10083E0099FF99FF98FF99FF99FFB9FFB9FFB9FF8B
:10084E0099FF98FF98FF98FF98FF98FF91FF91FFEF
:10085E0091FF99FF9BFF9BFF9BFF91FF81FFAB1FBA
:10086E00B31F91079027902757835783DB03C10748
:10087E004A074A874A874E0F4F6F477F4FFF4FFFFA
:10088E004FFFCFFFCFFFCFFFC87FC07FC33FCC7FCF
:10089E00CD7FE9FFEBFFE3FFE7FFE7FFE7FFE7FFB2
:1008AE00FFFFFFFFFFFFFFFFFFFFFFFFFFFFFFFF4A
:1008BE00FFFFFFFFFFFFFFFFFB7F787F685D601D7F
:1008CE0060956181418143FF53FF53FFD7FFC7FFFF
:1008DE00CFFFCFFF4FFF0FFF8FFFCFFFCABFC2BFAC
:1008EE00529FD81FD89F488F438F83CFEFCF6FC0B3
:1008FE008FE18FE18FFF9FFF9FFFDFFF5FFF5FFFA6
:10090E005FFF1FFF3FFF3FFFBFFFBFFFBFFFBFFFE9
:10091E00BFFFBFFFBE7FBE7F3E7F3E7F3E7F3E7FDF
:10092E001E7F1C7F1E7F1E7F1E7F1C3F1C3F5C7F19
:10093E00587F58FF48FF49FF69FF71FF3BFFAB1F10
:10094E00AB1FA90788270127FFFFFFFFFFFFFFFF50
:10095E00FFFF7FFE3FFE1FFE0FF607F603F601B602
:10096E0000B600B601B603F607F60FF61FFE3FFE01
:10097E007FFEAFFEAFFEBFFABFFAFFEAFFEAFFABA4
:10098E00FFABFEAFFEAFFABFFABFEAFFEAFFABFF67
:10099E00ABFFFFFFF0FFE07FC03FC01FC00FE007BF
:1009AE00F003F003E007C00FC01FC03FE07FF0FF71
:1009BE00FFFFFF7FFFBFFFDFFFEFFFF7FFFBFFFD37
:1009CE00FFFEFFFDFFFBFFF7FFEFFFDFFFBFFF7F28
:1009DE00FEFFFFFFFFDFFFDFFFDFFFDFFFDFFFDFDA
:1009EE00FFDFFFDFFBDEFDDDFEDBFF57FF8FFFDFEF
:1009FE00FFFFFFFFFFFFFFFFFFFFFFFFFF2020FFB7
:100A0E00FFFFFFF8F8FFF8F8FFFFEBFBA0EBA0EB02
:100A1E00EBFFD1D580D580D5C5FF389AC8E71359DD
:100A2E001CFF9966766696996FFFFFFFF8F8FFFF39
:100A3E00FFFFFFFFC3BD7EFFFFFFFFFFFF7EBDC3B6
:100A4E00FFFFFFD5F7C1F7D5FFFFFFF7F7C1F7F7A8
:100A5E00FFFFFFFF7F8FCFFFFFFFFFF7F7F7F7F7E0
:100A6E00FFFFFFFFFFFFFF9F9FFFFF3F9FCFE7F3BC
:100A7E00F9FFFFC3BD7E7EBDC3FFFFFF7D7D007FFF
:100A8E007FFFFF7D3E5E6E7679FFFF6D6D6D6D6D46
:100A9E0001FFEFE7EBED00EFEFFFFF616D6D6D6DA9
:100AAE000DFF836D767676768FFFFFFE1EEEF6FADD
:100ABE00FCFFFF817676767681FFFF616E6E6E6E3D
:100ACE0081FFFFFF2727FFFFFFFFFF7F1393FFFF2E
:100ADE00FFFFFFFFE7DBBD7EFFFFFFDBDBDBDBDBCB
:100AEE00DBFFFFFF7EBDDBE7FFFFFFFDFE4EF6F9EE
:100AFE00FFFFC3BD665A5A465DC33FCFD3DCD3CF8B
:100B0E003FFFFF80B6B6B6B6C9FFE3DDBEBEBEBEC2
:100B1E00DDFFFF80BEBEBEDDE3FFFF80B6B6B6B61C
:100B2E00BEFFFF80F6F6F6F6FEFFE3DDBEBEBEBEEE
:100B3E008DEFFF80F7F7F7F780FFFFFFBE80BEFF58
:100B4E00FFFFFFDFBFBE80FEFFFFFF80F7EBDDBEC6
:100B5E00BEFFFF80BFBFBFBFFFFF80FDE39FE3FD72
:100B6E0080FF80FDFBF7EFDF80FFE3DDBEBEBEDD65
:100B7E00E3FFFF00EEEEEEEEF1FFE3DDBEBEAEDD17
:100B8E00A3BFFF80F6F6E6D6B9FFFFB9B6B6B6B686
:100B9E00CEFFFEFEFE80FEFEFEFFFFC0BFBFBFBF4C
:100BAE00C0FFFFF0CFBFBFCFF0FFE09FE7F9E79F99
:100BBE00E0FFBEDDEBF7EBDDBEFFF8F7EF1FEFF763
:100BCE00F8FFFFBE9EAEB6BABCFFFFFF007E7E7E74
:100BDE00FFFFFEFDFBF7EFDFBF7FFFFF7E7E7E0098
:100BEE00FFFFFFFBFDFEFDFBFFFF7F7F7F7F7F7F14
:100BFE007F7FFFFFFCFCFFFFFFFFFFC7B6B6B6B659
:100C0E0081BFFF80B7B7B7B7CFFFE7DBBDBDBDFF75
:100C1E00FFFFFFCFB7B7B780FFFFFFC3B5B5B5B5C1
:100C2E00F3FFFFF77701F6F5FFFFFFB176767681DA
:100C3E00FFFFFF00EFF7F70FFFFFFFF7FB027FBF8E
:100C4E00FFFFFF3F7F7F02FFFFFFFF01DFAF77FF59
:100C5E00FFFFFFFFFF007FFFFFFF87FBFB87FBFB15
:100C6E0087FFFF87FBFBFB87FFFFFFC7BBBBBBC736
:100C7E00FFFFFF01EDEDF3FFFFFFFFF3EDED017F52
:100C8E00FFFFFFFD01F7FBFDFDFFFF736D6D6D9D1A
:100C9E00FFFFFFF7F7017777B7FFFFC1BFBFBF8138
:100CAE00BFFFF7E7DF3FDFE7F7FFC7BFDFE7DFBFD6
:100CBE00C7FFFFBBD7EFD7BBFFFFFFBEBDDBE7FB19
:100CCE00FDFEFFBB9BABB3BBFFFFFFEF117D7DFFB7
:100CDE00FFFFFFFFFF00FFFFFFFFFFFFFF7D7D1107
:100CEE00EFFFF7FBFBF7EFEFF7FF7A686979755FB8
:100CFE006C696E7368656E6779692C71713A3733FA
:100D0E00313830313738392C71715F71756E3A3533
:100D1E0034303431383132322E0031323A33343AC3
:100D2E003536002031362D323620200031323A331E
:050D3E00343A353600D7
:101C540001670001630001661B0165060164200140
:051C640061060162129F
:101B7F00C2B5C2B3D2B5E4FBC2B3AE07EE1392B493
:101B8F00EFC313FFD2B30BBB08EEE4FBC2B3AE053A
:101B9F00EE1392B4EDC313FDD2B30BBB08EEC2B577
:011BAF002213
:0D1C6A00C2B5C2B3C2B47D807F8E021B7F65
:101B3800E4FEC2B5C2B3D2B5FDC2B3AB07EB139294
:101B4800B4EFC313FFD2B30DBD08EEE4FD30B40506
:101B5800430680800353067FD2B3EEC313FEC2B39D
:101B68000DBD08E9C2B5EEC4540FFFEE540FFEEFE9
:061B780075F00AA42EFF27
:011B7E002244
:0A1C8200D2AFE4F5E7F5E5F5E62240
:101C3500E42FFF74803EFE75E78175E5018FE4F5BD
:0E1C4500E3C2AF75E64675E6B9AFE2121C8247
:011C5300226E
:0B1C7700EF1FAC0670011E4C70F6223F
:091C0C00121C157580FF7FF40E17
:101C1500E4FDFCC3ED9FEC9E5015E4FBFA0BBB0005
:0F1C2500010AEB647A4A70F50DBD00010C80E4F2
:011C3400228D
:101BDF0078317C007D007BFF7A0C79F87E007F30B6
:101BEF0012175DE4FDFCEDFF7E00121C3574312DE4
:0C1BFF00F8E66F60010C0DBD2EECAF0489
:011C0B0022B6
:04193B007D06AF1A5C
:04193F008F2D8D2E2D
:10194300E4F52FF530121BDFEF60030219F1F52FD9
:10195300E52DC394085012AF2D7401A80708800227
:10196300C333D8FCF4F5808013E52D24F8FF74010C
:10197300A807088002C333D8FCF4F5A07F037E00D8
:10198300121C15E52ED39408501EE4F530E530C340
:10199300952E5038AF307401A807088002C333D89E
:1019A300FCF45280053080E5E4F580F530E52E2423
:1019B300F8FFE530C39F5014AF307401A8070880C7
:1019C30002C333D8FCF452A0053080E17F0A7E00C5
:1019D300121C7775A0FF7580FF7F067E00121C1511
:1019E300052FE52FC394425003021953800BC29075
:1019F300C2B27F307E75121C1530B7FD7F0A7E00A0
:031A0300021C15AD
:10134000E4F50AF50BF50DF50EF50F78107C00FDB0
:101350007BFF7A0D7928FE7F0912175D75190075DC
:101360001A00751B10781C7C007D007BFF7A0D79BC
:10137000317E007F0912175D7525007526007527DF
:101380001CD2B2D2B77FF47E01121C157580FE7F8D
:10139000C81E121C157580FF121C157580FE121CCC
:1013A0000CE56575F00A842430F510E56575F00AE2
:1013B00084E5F02430F511E56675F00A842430F5F3
:1013C00013E56675F00A84E5F02430F514E56375DD
:1013D000F00A842430F516E56375F00A84E5F024FC
:1013E00030F517E56175F00A842430F51DE5617567
:1013F000F00A84E5F02430F51EE56475F00A8424D3
:1014000030F520E56475F00A84E5F02430F52120FC
:10141000B7227F0A7E00121C1520B718050EE4F5CE
:101420000FF50DE50EC394084003E4F50E7D08AFFB
:101430000E12193F30B2030213A17F0A7E00121C64
:101440001530B2030213A1050F7F35121C15E4F508
:1014500008F509E50925E0FDE50833FCE50D75F023
:1014600080A4AEF02DF50BEE3CF50AE50E0414B4A5
:10147000100040030215E490148575F003A4C583A1
:1014800025F0C5837302156E0214B50214BD021453
:10149000C50214CD0214F30214FB02150F0215232A
:1014A00002152B02153302153B02154302154B02A0
:1014B000155302155BAF0BEF90000E8058AF0BEF8A
:1014C00090008E8050AF0BEF90010E8048748E25F7
:1014D0000BF5827401350AF583E493F580748F254A
:1014E0000BF5827401350AF583E493F5A0750C10B1
:1014F0000215E4AF0BEF90038E801AAF0BEF900450
:101500000E93F580EFA393F5A0750C030215E4AFDD
:101510000BEF90046E93F580EFA393F5A0750C0488
:101520000215E4AF0BEF9004EE8036AF0BEF9004A2
:10153000EF802EAF0BEF9004F08026AF0BEF9004FE
:10154000F1801EAF0BEF9004F28016AF0BEF90040A
:10155000F3800EAF0BEF9004F48006AF0BEF900416
:10156000F593F580EFA393F5A0E4F50C8076750C68
:10157000047E00E5095407FFAB19AA1AA91B12172C
:101580008375F008A42FF582EE35F0F583E582240B
:1015900000F582E5833409F583E493F580E5095489
:1015A00007FFAB25AA26A92712178375F008A42FD9
:1015B000F582EE35F0F583E5822400F582E583348B
:1015C00009F583E493F5A0E5095407640770150451
:1015D000251BF51BE4351AF51A74012527F527E4B8
:1015E0003526F5267F647E00121C77E50925E0FD8F
:1015F000E50833FCE50D75F080A42DFFE5F03CCF48
:101600002402FDE43FFCE50C75F020A4FFC3ED9F30
:10161000EC95F04025E50F94084005E4F50FF50D35
:1016200075080075093F751900751A00751B10754E
:10163000250075260075271C80140509E509700230
:101640000508C39440E50894005003021453E509CB
:1016500025E0FDE50833FCE50D75F080A42DFFE5E0
:10166000F03CCF2402FDE43FFCE50C75F020A4FF24
:10167000C3ED9FEC95F040030213A1E50FC394085E
:0D16800050030213A1E4F50F050D0213A1A4
:100D43007508037509E8E4F50AF50BF50CF50DF5DF
:100D53000EF50FF510F511F512F513F514F515F55C
:100D630016F517F51AF51BF51C781D7C00FD7BFFA6
:100D73007A0D793AFE7F0912175DE4F52675274649
:100D830075280EF529752A00752B1DF52C7FC8FED5
:100D9300121C157580EF121C157580FF121C15753A
:100DA30080EF121C0C0515E5157002051420B71C05
:100DB300051AE51AC394064003E4F51A12193BE435
:100DC300F50EF50FF510F511F516F517E56575F048
:100DD3000A842430F51DE56575F00A84E5F02430B6
:100DE300F51EE56675F00A842430F520E56675F096
:100DF3000A84E5F02430F521E56375F00A84243094
:100E0300F523E56375F00A84E5F02430F524E51A4B
:100E1300C394024003020FEE20900E85140885153B
:100E230009E4F514F5153090FD0515E51570020577
:100E3300147F3C7E00121C77AE14AF15E4FCFD7BDF
:100E4300DC7AFFF9F8C312180350067514EA751516
:100E530060AE08AF097C007D0F12179CAA06AB0792
:100E6300AE14AF157D3B12179CAD03AC021217AE47
:100E73008C0A8D0BAE08AF097C007D0512179CAA66
:100E830006AB07AE14AF157D3B12179CAD03AC0246
:100E93001217AE8C0C8D0DD3E50D943CE50C94002C
:100EA30050087580FE75A0FF800675A0FF7580FF52
:100EB300D3E50B943CE50A940050035380F8AE1439
:100EC300AF157C007D3B12179C8E0A8F0BAF637EA0
:100ED30000AC08AD0912179C8E0C8F0D20B72005AE
:100EE3001AE51AC394064003E4F51A12193BE4F514
:100EF3000EF50FF510F511F516F517F512F513E5C7
:100F03001A64016003020F8CE50D24E2FFE50C3443
:100F1300FFFED3E50B9FE50A9E4018E50D241EFF57
:100F2300E4350CFEC3E50B9FE50A9E500675A00051
:100F3300538003AE14AF157C007D3B12179CAC08A5
:100F4300AD091217AE8E0C8F0DE566B50D09E4B52C
:100F53000C05F5A053801FE56575F00C84E5F0756D
:100F6300F005A4FFAEF0E56675F00C847C002FF568
:100F73000BEC3EF50AE50D650B7004E50C650A60A4
:100F830003020E11F5A0020E11AE14AF157C007D05
:100F93003B12179CAC08AD091217AED3EF9563EE65
:100FA300940050035380EF8E0C8F0DD3E50D95669F
:100FB300E50C9400500353807FE56575F00C84E5E0
:100FC300F075F005A4FFAEF0E56675F00C847C00C7
:100FD3002FF50BEC3EF50AD3E50D950BE50C950AC1
:100FE3004003020E1153A0FB020E11E51A0424FC68
:100FF300606314700302108A1470030210DA24036E
:10100300600302112F752602AB29AA2AA92B1217F6
:101013008375F008A42513F582E5F03512F583E511
:10102300822400F582E5833409F583E493F5800592
:1010330013E51370020512C39408E51294005003DC
:1010430002112FE4F512F51304252BF52BE4352AB1
:10105300F52A02112F752603751801751980E511FC
:10106300250FFFE510350EFE748E2FF58274013EB9
:10107300F583E493F580748F2FF58274013EF58335
:10108300E493F5A002112F7526017518007519E078
:10109300E511250FFFE51C75F0E0A424F6F582E4C5
:1010A3003404F583E5822FF582E43583F583E493F5
:1010B300F5A0E51C75F0E0A424F7F582E43404F50B
:1010C30083E5822FF582E43583F583E493F5807518
:1010D3001B01752C0180557526017518007519E0E3
:1010E300E511250FFFE510350EFE75F0E0E51CA4B4
:1010F30024D6F582E5F03405F583E5822FF582E504
:10110300833EF583E493F5A075F0E0E51CA424D7B2
:10111300F582E5F03405F583E5822FF582E5833E1C
:10112300F583E493F580751B04752C03E526B40160
:1011330032E5172401FFE43516FEAD287C001217B3
:101143009CEF7803C333CE33CED8F9FBAA06AF2C7A
:101153007E00AC14AD1512179CC3EF9BEE9A50039F
:101163005380FEAF277E00121C777580FF75A0FFAA
:10117300E52775F00784FF7E00121C77E511250F24
:10118300FFE510350EFEE51924FEFDE51834FFFCDE
:10119300C3EF9DEE9C500BAB29AA2AA92B121783F0
:1011A3007072752900752A00752B1D75A0FF758057
:1011B300FF30903420B720051AE51AC39406400384
:1011C300E4F51A12193BE4F50EF50FF510F511F5D8
:1011D30016F517F512F5137F0A7E00121C77051317
:1011E300E51370CD051280C9AE12AF137C007D46A6
:1011F30012179CEF7803CEC313CE13D8F9FFAD2794
:101203007C001217AEEF2515F515EE3514F514E431
:10121300F512F513309026E511250FFFE510350E75
:10122300FEE51924FEFDE51834FFFCC3EF9DEE9C9B
:10123300500B7402250FF50FE4350EF50E309003B5
:10124300020DA8E52875F008A4FFAEF02401FDE423
:101253003EFCD3E5159DE5149C40020527EF24FFD2
:10126300FFEE34FFFEC3E5159FE5149E50021527DC
:10127300E4F514F515F529752A00752B1DF512F5FE
:10128300137580FFE51924FEFFE51834FFFEC3E55F
:10129300119FE5109E400BE4F510F511F516F517B7
:1012A300800B74022511F511E43510F510E526B411
:1012B30002047F0180027F00E526B401047E0180E1
:1012C300027E00EE4F6005E4F510F511E4F50EF52E
:1012D3000F3090FDE526B4033AC3E5179478E5167D
:1012E3009400501274022517F517E43516F516E429
:1012F300F510F5118006751600751778C374789587
:1013030017FFE49516FEAD277C0012179C121C777D
:10131300020DA80517E51770020516C3952CE516EF
:1013230094005003020DA8E4F516F517051CE51CFF
:0D133300951B5003020DA8E4F51C020DA847
:10182500E4F508F509F50AF50BF50C750D017FC80A
:10183500FE121C1575A0FE121C1575A0FF121C15B5
:1018450075A0FE121C1575A0FF7FF40E121C1575F0
:10185500F020E50CA4F58285F083AF0975F002EF61
:10186500121819E5822460F582E5833409F583E4CD
:1018750093F5A075F020E50CA4F58285F08375F04D
:1018850002EF121819E5822461F582E5833409F522
:1018950083E493F5807F5A7E00121C777FC87E0013
:1018A500121C770509E5097002050825E0FFE50822
:1018B50033FEEF2402FFE43EFEC3EF9420EE9400D6
:1018C500400DE4F508F509050BE50B7002050A2046
:1018D500B729050CE50DB40105E4F50DF50CC3E5D7
:1018E5000C64809485400B750CFF750D01E4F50AB9
:1018F500F50BE50C04FF7D0612193FE50D6401604B
:1019050003021854D3E50C648094805003E4F50C6D
:10191500C3E50B942CE50A94015003021854E4F531
:101925000AF50B050CE50C648094855003021854E8
:06193500E4F50C02185459
:101A0600758901758CEEE4F58AD2AFD2A9D28CD253
:101A160090121C6A7F81121B388F637F83121B38DA
:101A26008F667F85121B388F657F87121B388F6400
:101A36007F89121B388F617F8D121B388F62E56498
:101A4600C3942050287F8D121B38EFB5621F7F8903
:101A5600121B38EFB561167F87121B38EFB5640D80
:101A6600E4F5A07FF47E01121C1575A0FF209503F6
:101A760012134030B1047F0180027F003095047E4E
:101A86000180027E00EE5F6003120D433095047FF5
:101A96000180027F0020B1047E0180027E00EE5F9D
:061AA60060031218252266
:03000B00021BB025
:101BB000C0E0C0D0758CEE758A000567E567B4C8D3
:101BC000050563756700E563B43C0505667563004C
:0F1BD000E566B43C050565756600D0D0D0E032FF
:03000000021AAC35
:0C1AAC00787FE4F6D8FD758167021AF31C
:10168D00E709F608DFFA8046E709F208DFFA803E3F
:10169D0088828C83E709F0A3DFFA8032E309F6082C
:1016AD00DFFA8078E309F208DFFA807088828C8394
:1016BD00E309F0A3DFFA806489828A83E0A3F60848
:1016CD00DFFA805889828A83E0A3F208DFFA804C22
:1016DD0080D280FA80C680D4806980F280338010F9
:1016ED0080A680EA809A80A880DA80E280CA803362
:1016FD0089828A83ECFAE493A3C8C582C8CCC583DA
:10170D00CCF0A3C8C582C8CCC583CCDFE9DEE780A9
:10171D000D89828A83E493A3F608DFF9ECFAA9F028
:10172D00EDFB2289828A83ECFAE0A3C8C582C8CC7E
:10173D00C583CCF0A3C8C582C8CCC583CCDFEADE97
:10174D00E880DB89828A83E493A3F208DFF980CCF9
:10175D0088F0EF60010E4E60C388F0ED2402B404F2
:10176D000050B9F582EB2402B4040050AF23234599
:06177D0082239016DD73CB
:10178300BB010689828A83E0225002E722BBFE0264
:09179300E32289828A83E4932297
:10179C00EF8DF0A4A8F0CF8CF0A428CE8DF0A42E61
:0217AC00FE221B
:1017AE00BC000BBE0029EF8DF084FFADF022E4CC1F
:1017BE00F875F008EF2FFFEE33FEEC33FCEE9DECE8
:1017CE00984005FCEE9DFE0FD5F0E9E4CEFD22ED2E
:1017DE00F8F5F0EE8420D21CFEADF075F008EF2F78
:1017EE00FFED33FD4007985006D5F0F222C398FD69
:0517FE000FD5F0EA2206
:10180300EB9FF5F0EA9E42F0E99D42F0EC6480C85C
:0618130064809845F022FC
:0C181900A42582F582E5F03583F58322DA
:101AB800021A06E493A3F8E493A34003F68001F224
:101AC80008DFF48029E493A3F85407240CC8C3332F
:101AD800C4540F4420C8834004F456800146F6DFFE
:101AE800E4800B0102040810204080901C54E47E1E
:101AF800019360BCA3FF543F30E509541FFEE493F3
:101B0800A360010ECF54C025E060A840B8E493A3B9
:101B1800FAE493A3F8E493A3C8C582C8CAC583CAE4
:101B2800F0A3C8C582C8CAC583CADFE9DEE780BE9C
:011C6900007A
:00000001FF
