:10016A0041542B43574D4F44453D320D0A004154EB
:10017A002B43575341503D2265737038323636222D
:10018A002C22313233343536313233343536222C5F
:10019A00312C330D0A0041542B4349504D4F4445ED
:1001AA003D300D0A0041542B4349504D55583D31BD
:1001BA000D0A0041542B4349505345525645523D6E
:0901CA00312C383038300D0A00E8
:0902E500010800010A00010900F2
:1002CC0053890F438920758DFD758BFDD28EC29F8E
:0902DC00D29ED2AFD2ACD29C221A
:100003007C00AF03AE021200537C007D0A12005342
:04001300ED2430FFA9
:0C001700C2AC8F993099FDC299D2AC2286
:06028D008B0B8A0C890DA9
:10029300E4FDFCAB0BAA0CA90D8D828C8312002606
:0D02A300FF600A1200170DBD00010C80E67F
:0102B000222B
:10026500AB07AA067C277D101200097C037DE812E6
:1002750000057D641200037D0A120003AE02AF0380
:0802850012000C7F0D020017AE
:0402B1007F647E00E8
:1002B500EF1FAA0670011E4A600C7DDCDDFE7DDCA9
:0602C5001DED60EC80FA63
:0102CB002210
:1001D300E4F508C2A07F64FE1202B51202CC7FC808
:1001E3007E001202B57BFF7A01796A12028D120238
:1001F300B17BFF7A01797812028D1202B17BFF7A0B
:100203000179A012028D1202B17BFF7A0179AF123C
:10021300028D1202B17BFF7A0179BD12028D1202A7
:10022300B1D2A0750801E509B43002D2A0E509B442
:0602330031F4C2A080F0CE
:030023000202399D
:09023900C0E0C0D075D000C00780
:10024200309819C298AF99E508B40110E50AB401D3
:0C02520005750A008F09BF3A03750A0108
:07025E00D007D0D0D0E03240
:030000000200DE1D
:0C00DE00787FE4F6D8FD75810D02012545
:10002600BB010CE58229F582E5833AF583E022508F
:1000360006E92582F8E622BBFE06E92582F8E222D9
:0D004600E58229F582E5833AF583E49322F3
:10005300C2D5EC30E709B2D5E4C39DFDE49CFCEEC8
:1000630030E715B2D5E4C39FFFE49EFE120089C3B7
:10007300E49DFDE49CFC800312008930D507C3E4B2
:060083009FFFE49EFE2237
:1000EA000201D3E493A3F8E493A34003F68001F258
:1000FA0008DFF48029E493A3F85407240CC8C33317
:10010A00C4540F4420C8834004F456800146F6DFE5
:10011A00E4800B01020408102040809002E5E47E8E
:10012A00019360BCA3FF543F30E509541FFEE493DA
:10013A00A360010ECF54C025E060A840B8E493A3A1
:10014A00FAE493A3F8E493A3C8C582C8CAC583CACC
:10015A00F0A3C8C582C8CAC583CADFE9DEE780BE84
:0102EE00000F
:10008900BC000BBE0029EF8DF084FFADF022E4CC5B
:10009900F875F008EF2FFFEE33FEEC33FCEE9DEC24
:1000A900984005FCEE9DFE0FD5F0E9E4CEFD22ED6A
:1000B900F8F5F0EE8420D21CFEADF075F008EF2FB4
:1000C900FFED33FD4007985006D5F0F222C398FDA5
:0500D9000FD5F0EA2242
:00000001FF
