BL51 BANKED LINKER/LOCATER V6.00                                                        06/13/2020  14:29:02  PAGE 1


BL51 BANKED LINKER/LOCATER V6.00, INVOKED BY:
E:\KEIL\C51\BIN\BL51.EXE Text1.obj TO 1 RAMSIZE (256)


MEMORY MODEL: SMALL


INPUT MODULES INCLUDED:
  Text1.obj (TEXT1)
  E:\KEIL\C51\LIB\C51S.LIB (?C_STARTUP)
  E:\KEIL\C51\LIB\C51S.LIB (?C?CLDOPTR)
  E:\KEIL\C51\LIB\C51S.LIB (?C?SIDIV)
  E:\KEIL\C51\LIB\C51S.LIB (?C_INIT)
  E:\KEIL\C51\LIB\C51S.LIB (?C?UIDIV)


LINK MAP OF MODULE:  1 (TEXT1)


            TYPE    BASE      LENGTH    RELOCATION   SEGMENT NAME
            -----------------------------------------------------

            * * * * * * *   D A T A   M E M O R Y   * * * * * * *
            REG     0000H     0008H     ABSOLUTE     "REG BANK 0"
            DATA    0008H     0003H     UNIT         ?DT?TEXT1
            DATA    000BH     0003H     UNIT         _DATA_GROUP_
            IDATA   000EH     0001H     UNIT         ?STACK

            * * * * * * *   C O D E   M E M O R Y   * * * * * * *
            CODE    0000H     0003H     ABSOLUTE     
            CODE    0003H     0020H     UNIT         ?PR?_UART_SEND_CHAR?TEXT1
            CODE    0023H     0003H     ABSOLUTE     
            CODE    0026H     00B8H     UNIT         ?C?LIB_CODE
            CODE    00DEH     008CH     UNIT         ?C_C51STARTUP
            CODE    016AH     0069H     UNIT         ?CO?TEXT1
            CODE    01D3H     0066H     UNIT         ?PR?MAIN?TEXT1
            CODE    0239H     002CH     UNIT         ?PR?RX_INT?TEXT1
            CODE    0265H     0028H     UNIT         ?PR?_UART_SEND?TEXT1
            CODE    028DH     0024H     UNIT         ?PR?_UART_SEND_STR?TEXT1
            CODE    02B1H     001BH     UNIT         ?PR?_DELAY_MS?TEXT1
            CODE    02CCH     0019H     UNIT         ?PR?UART_INIT?TEXT1
            CODE    02E5H     000AH     UNIT         ?C_INITSEG



OVERLAY MAP OF MODULE:   1 (TEXT1)


SEGMENT                             DATA_GROUP 
  +--> CALLED SEGMENT             START    LENGTH
-------------------------------------------------
?C_C51STARTUP                     -----    -----
  +--> ?PR?MAIN?TEXT1
  +--> ?C_INITSEG

?PR?MAIN?TEXT1                    -----    -----
  +--> ?PR?_DELAY_MS?TEXT1
  +--> ?PR?UART_INIT?TEXT1
BL51 BANKED LINKER/LOCATER V6.00                                                      06/13/2020  14:29:02  PAGE 2


  +--> ?CO?TEXT1
  +--> ?PR?_UART_SEND_STR?TEXT1

?PR?_UART_SEND_STR?TEXT1          000BH    0003H
  +--> ?PR?_UART_SEND_CHAR?TEXT1



SYMBOL TABLE OF MODULE:  1 (TEXT1)

  VALUE           TYPE          NAME
  ----------------------------------

  -------         MODULE        TEXT1
  C:0000H         SYMBOL        _ICE_DUMMY_
  D:0090H         PUBLIC        P1
  D:00A0H         PUBLIC        P2
  D:00B0H         PUBLIC        P3
  B:00A8H.7       PUBLIC        EA
  D:00A8H         PUBLIC        IE
  B:00A8H.4       PUBLIC        ES
  D:00B8H         PUBLIC        IP
  B:0098H.0       PUBLIC        RI
  D:0008H         PUBLIC        order_flag
  B:0098H.1       PUBLIC        TI
  D:0009H         PUBLIC        order
  D:000AH         PUBLIC        order_come
  C:01D3H         PUBLIC        main
  C:0265H         PUBLIC        _uart_send
  C:0017H         PUBLIC        _uart_send_char
  D:0099H         PUBLIC        SBUF
  C:02B5H         PUBLIC        _delay_ms
  D:0098H         PUBLIC        SCON
  D:0089H         PUBLIC        TMOD
  D:0088H         PUBLIC        TCON
  D:008DH         PUBLIC        TH1
  B:0098H.7       PUBLIC        SM0
  B:0098H.6       PUBLIC        SM1
  D:008BH         PUBLIC        TL1
  C:02CCH         PUBLIC        uart_init
  C:0239H         PUBLIC        RX_int
  B:0088H.6       PUBLIC        TR1
  B:0098H.4       PUBLIC        REN
  C:028DH         PUBLIC        _uart_send_str
  B:00A0H.0       PUBLIC        led1
  D:00C8H         PUBLIC        T2CON
  D:00D0H         PUBLIC        PSW
  -------         PROC          UART_INIT
  C:02CCH         LINE#         18
  C:02CCH         LINE#         19
  C:02CCH         LINE#         20
  C:02CFH         LINE#         21
  C:02D2H         LINE#         22
  C:02D5H         LINE#         23
  C:02D8H         LINE#         24
  C:02DAH         LINE#         26
  C:02DCH         LINE#         27
BL51 BANKED LINKER/LOCATER V6.00                                                      06/13/2020  14:29:02  PAGE 3


  C:02DEH         LINE#         28
  C:02E0H         LINE#         29
  C:02E2H         LINE#         30
  C:02E4H         LINE#         31
  -------         ENDPROC       UART_INIT
  C:0005H         SYMBOL        L?0029
  C:0009H         SYMBOL        L?0030
  C:000CH         SYMBOL        L?0031
  -------         PROC          L?0028
  -------         ENDPROC       L?0028
  C:0005H         SYMBOL        L?0029
  C:0009H         SYMBOL        L?0030
  C:000CH         SYMBOL        L?0031
  -------         PROC          _UART_SEND_CHAR
  D:0007H         SYMBOL        i
  C:0017H         LINE#         33
  C:0017H         LINE#         34
  C:0017H         LINE#         35
  C:0019H         LINE#         36
  C:001BH         LINE#         37
  C:001EH         LINE#         38
  C:0020H         LINE#         39
  C:0022H         LINE#         40
  -------         ENDPROC       _UART_SEND_CHAR
  -------         PROC          _UART_SEND_STR
  D:000BH         SYMBOL        zifu
  -------         DO            
  D:0004H         SYMBOL        i
  -------         ENDDO         
  C:028DH         LINE#         41
  C:0293H         LINE#         42
  C:0293H         LINE#         43
  C:0296H         LINE#         44
  C:02A6H         LINE#         45
  C:02A6H         LINE#         46
  C:02A9H         LINE#         47
  C:02AEH         LINE#         48
  C:02B0H         LINE#         49
  -------         ENDPROC       _UART_SEND_STR
  -------         PROC          _UART_SEND
  D:0002H         SYMBOL        num
  C:0265H         LINE#         50
  C:0269H         LINE#         51
  C:0269H         LINE#         52
  C:0270H         LINE#         53
  C:0277H         LINE#         54
  C:027CH         LINE#         55
  C:0281H         LINE#         56
  C:0288H         LINE#         57
  -------         ENDPROC       _UART_SEND
  C:02B1H         SYMBOL        L?0033
  -------         PROC          L?0032
  -------         ENDPROC       L?0032
  C:02B1H         SYMBOL        L?0033
  -------         PROC          _DELAY_MS
  D:0006H         SYMBOL        t
  -------         DO            
BL51 BANKED LINKER/LOCATER V6.00                                                      06/13/2020  14:29:02  PAGE 4


  D:0005H         SYMBOL        i
  -------         ENDDO         
  C:02B5H         LINE#         14
  C:02B5H         LINE#         15
  C:02B5H         LINE#         17
  C:02BFH         LINE#         18
  C:02BFH         LINE#         20
  C:02C1H         LINE#         21
  C:02C3H         LINE#         22
  C:02C5H         LINE#         23
  C:02CBH         LINE#         24
  C:02CBH         LINE#         25
  -------         ENDPROC       _DELAY_MS
  -------         PROC          MAIN
  C:01D3H         LINE#         27
  C:01D3H         LINE#         28
  C:01D3H         LINE#         29
  C:01D6H         LINE#         30
  C:01D8H         LINE#         32
  C:01DEH         LINE#         33
  C:01E1H         LINE#         34
  C:01E8H         LINE#         35
  C:01F1H         LINE#         36
  C:01F4H         LINE#         37
  C:01FDH         LINE#         38
  C:0200H         LINE#         39
  C:0209H         LINE#         40
  C:020CH         LINE#         41
  C:0215H         LINE#         42
  C:0218H         LINE#         43
  C:0221H         LINE#         44
  C:0224H         LINE#         45
  C:0226H         LINE#         46
  C:0229H         LINE#         47
  C:0229H         LINE#         48
  C:0230H         LINE#         49
  C:0237H         LINE#         50
  -------         ENDPROC       MAIN
  -------         PROC          RX_INT
  -------         DO            
  D:0007H         SYMBOL        i
  -------         ENDDO         
  C:0239H         LINE#         52
  C:0242H         LINE#         55
  C:0245H         LINE#         56
  C:0245H         LINE#         57
  C:0247H         LINE#         58
  C:0249H         LINE#         59
  C:024EH         LINE#         60
  C:0253H         LINE#         61
  C:0256H         LINE#         62
  C:0258H         LINE#         64
  C:0258H         LINE#         65
  C:025EH         LINE#         66
  C:025EH         LINE#         68
  C:025EH         LINE#         69
  -------         ENDPROC       RX_INT
BL51 BANKED LINKER/LOCATER V6.00                                                      06/13/2020  14:29:02  PAGE 5


  -------         ENDMOD        TEXT1

  -------         MODULE        ?C?CLDOPTR
  C:0026H         PUBLIC        ?C?CLDOPTR
  -------         ENDMOD        ?C?CLDOPTR

  -------         MODULE        ?C?SIDIV
  C:0053H         PUBLIC        ?C?SIDIV
  -------         ENDMOD        ?C?SIDIV

  -------         MODULE        ?C?UIDIV
  C:0089H         PUBLIC        ?C?UIDIV
  -------         ENDMOD        ?C?UIDIV

*** WARNING L16: UNCALLED SEGMENT, IGNORED FOR OVERLAY PROCESS
    SEGMENT: ?PR?_UART_SEND?TEXT1

Program Size: data=15.0 xdata=0 code=751
LINK/LOCATE RUN COMPLETE.  1 WARNING(S),  0 ERROR(S)
