C51 COMPILER V8.02   TEXT1                                                                 07/01/2017 20:24:33 PAGE 1   


C51 COMPILER V8.02, COMPILATION OF MODULE TEXT1
OBJECT MODULE PLACED IN Text1.OBJ
COMPILER INVOKED BY: D:\keil英文\C51\BIN\C51.EXE Text1.c BROWSE DEBUG OBJECTEXTEND TABS(5)

line level    source

   1          #include <reg52.h>
   2          sbit KEY=P3^6;                    /*定位红外接收引脚*/
   3          
   4          sbit p10=P1^0;                          //大概能装95字，包括标点符号
   5          sbit p11=P1^1;
   6          sbit p12=P1^2;                         //取模用阴码
   7          sbit p13=P1^3;
   8          sbit p14=P1^4; 
   9          sbit p15=P1^5; 
  10          sbit p16=P1^6; 
  11          sbit p17=P1^7; 
  12          code unsigned  int zi0[] = {    
  13          0x00,0x00, 
  14          /***************************对应开关1.0，换字修改处1.0开始**************************************/
  15          
  16          
  17          
  18          
  19          
  20          0x08,0x00,0x10,0x04,0x20,0x04,0xCB,0xC4,0x6A,0x48,0x5A,0x48,0x4A,0x50,0x5A,0x60,
  21          0x2F,0xFF,0xCA,0x40,0x6A,0x40,0x5A,0x48,0x4E,0x44,0x40,0x78,0x40,0x00,0x00,0x00,/*"第",0*/
  22          
  23          0x00,0x00,0x00,0x08,0x20,0x08,0x20,0x08,0x20,0x08,0x20,0x08,0x20,0x08,0x20,0x08,
  24          0x20,0x08,0x20,0x08,0x20,0x08,0x60,0x08,0x20,0x08,0x00,0x18,0x00,0x08,0x00,0x00,/*"二",1*/
  25          
  26          0x01,0x00,0x02,0x00,0x0C,0x00,0xF7,0xFE,0x44,0x00,0x04,0x00,0x04,0x00,0xFC,0x00,
  27          0x0B,0x80,0x08,0x60,0x48,0x10,0x28,0x08,0x18,0x04,0x08,0x1E,0x00,0x02,0x00,0x00,/*"代",2*/
  28          
  29          0x10,0x04,0x10,0x18,0x9F,0xE4,0x72,0x02,0x12,0x04,0x13,0xF9,0x08,0x06,0x15,0xF8,
  30          0xE4,0x08,0x24,0x04,0x27,0xFC,0x24,0x42,0x24,0x42,0x26,0x42,0x24,0x02,0x00,0x00,/*"旋",3*/
  31          
  32          0x13,0x10,0x15,0x10,0x39,0x20,0xD7,0xFF,0x11,0x20,0x11,0x20,0x11,0x00,0x02,0x40,
  33          0x12,0xD0,0x1F,0x48,0xF2,0x44,0x12,0x4B,0x12,0x70,0x12,0x40,0x02,0x00,0x00,0x00,/*"转",4*/
  34          
  35          0x00,0x02,0x00,0x0C,0xFF,0xF0,0x90,0x41,0x92,0x42,0x9A,0x4C,0x97,0xF0,0x92,0x40,
  36          0x92,0x40,0x92,0x40,0x97,0xFF,0x9A,0x40,0x92,0x40,0xF2,0x40,0x00,0x40,0x00,0x00,/*"屏",5*/
  37          
  38          0x40,0x44,0x40,0x44,0x40,0x48,0x5F,0x50,0x55,0x7E,0xF5,0x50,0x55,0xD0,0x55,0x7F,
  39          0x55,0x50,0xF5,0x52,0x55,0x5E,0x5F,0x60,0x40,0x50,0x40,0x4C,0x40,0x48,0x00,0x00,/*"幕",6*/
  40          
  41          0x28,0x04,0x24,0x08,0x22,0x32,0x21,0xC2,0x26,0xC2,0x38,0x34,0x04,0x04,0x18,0x08,
  42          0xF0,0x30,0x17,0xC0,0x10,0x60,0x10,0x18,0x14,0x0C,0x18,0x06,0x10,0x04,0x00,0x00,/*"欢",7*/
  43          
  44          0x02,0x02,0x82,0x04,0x73,0xF8,0x20,0x04,0x00,0x02,0x3F,0xE2,0x20,0x42,0x40,0x82,
  45          0x40,0x02,0x3F,0xFA,0x20,0x02,0x20,0x42,0x20,0x22,0x3F,0xC2,0x00,0x02,0x00,0x00,/*"迎",8*/
  46          
  47          0x01,0x00,0x02,0x00,0x0F,0xFE,0x34,0x00,0xC2,0x08,0x04,0x30,0x19,0xC0,0xF0,0x84,
  48          0x50,0x02,0x17,0xFC,0x10,0x00,0x11,0x00,0x14,0xC0,0x38,0x38,0x10,0x10,0x00,0x00,/*"你",9*/
  49          
  50          0x00,0x00,0x00,0x00,0x00,0x1A,0x00,0x1C,0x00,0x00,0x00,0x00,0x00,0x00,0x00,0x00,
  51          0x00,0x00,0x00,0x00,0x00,0x00,0x00,0x00,0x00,0x00,0x00,0x00,0x00,0x00,0x00,0x00,/*"，",10*/
  52          
  53          0x00,0x04,0x10,0x38,0x12,0x00,0x12,0x00,0x12,0x7C,0x12,0x02,0x12,0x02,0xFE,0x82,
  54          0x12,0x72,0x12,0x22,0x12,0x02,0x12,0x0E,0x12,0x44,0x12,0x38,0x10,0x10,0x00,0x00,/*"志",11*/
  55          
C51 COMPILER V8.02   TEXT1                                                                 07/01/2017 20:24:33 PAGE 2   

  56          0x00,0x00,0x08,0x80,0x30,0x80,0x24,0x80,0x24,0x80,0x24,0x80,0x24,0x82,0xA4,0x81,
  57          0x67,0xFE,0x24,0x80,0x24,0x80,0x24,0x80,0x28,0x80,0x30,0x80,0x20,0x00,0x00,0x00,/*"宇",12*/
  58          
  59          
  60          
  61          
  62          
  63          
  64          /******************************换字修改处1.0结束***************************************/
  65          /*空白*/0x00,0x00,0x00,0x00,0x00,0x00,0x00,0x00,
  66                0x00,0x00,0x00,0x00,0x00,0x00,0x00,0x00,
  67                0x00,0x00,0x00,0x00,0x00,0x00,0x00,0x00,
  68                0x00,0x00,0x00,0x00,0x00,0x00,0x00,0x00,
  69          /*空白*/0x00,0x00,0x00,0x00,0x00,0x00,0x00,0x00,
  70                0x00,0x00,0x00,0x00,0x00,0x00,0x00,0x00,
  71                0x00,0x00,0x00,0x00,0x00,0x00,0x00,0x00,
  72                0x00,0x00,0x00,0x00,0x00,0x00,0x00,0x00
  73           };      
  74          code unsigned  int zi1[] = {     
  75                 0x00,0x00,   
  76          /*******************************对应开关1.1，换字修改处1.1开始*******************************/
  77          
  78          
  79          
  80          
  81          
  82          
  83          0x20,0x00,0x20,0xFF,0x20,0x80,0x20,0x80,0x2E,0xBC,0x2A,0xA4,0xAA,0xA4,0x6A,0xA4,
  84          0x2A,0xA4,0x2A,0xA4,0x2E,0xBC,0x20,0x82,0x20,0x81,0x20,0xFE,0x20,0x00,0x00,0x00,/*"高",0*/
  85          
  86          0x00,0x00,0x20,0x04,0x21,0x04,0x21,0x04,0x21,0x04,0x21,0x04,0x21,0x04,0x21,0x04,
  87          0x21,0x04,0x21,0x04,0x21,0x04,0x21,0x04,0x21,0x04,0x20,0x04,0x00,0x04,0x00,0x00,/*"三",1*/
  88          
  89          0x00,0x00,0x08,0x04,0x08,0x04,0x1F,0xFC,0x00,0x04,0x00,0x04,0x00,0x00,0x00,0x00,/*"1",3*/
  90          
  91          0x00,0x00,0x07,0xF0,0x08,0x08,0x10,0x04,0x10,0x04,0x08,0x08,0x07,0xF0,0x00,0x00,/*"0",4*/
  92          
  93          0x42,0x08,0x42,0x08,0x7F,0xF0,0x42,0x11,0x42,0x92,0x07,0x04,0x00,0x18,0xFF,0xE0,
  94          0x00,0x04,0x42,0x04,0x42,0x04,0x7F,0xFC,0x42,0x04,0x42,0x04,0x42,0x04,0x00,0x00,/*"班",6*/
  95          
  96          0x00,0x00,0x00,0x00,0x00,0x1A,0x00,0x1C,0x00,0x00,0x00,0x00,0x00,0x00,0x00,0x00,
  97          0x00,0x00,0x00,0x00,0x00,0x00,0x00,0x00,0x00,0x00,0x00,0x00,0x00,0x00,0x00,0x00,/*"，",7*/
  98          
  99          0x04,0x20,0x04,0x20,0x44,0x42,0x44,0x41,0x7F,0xFE,0x84,0x80,0x84,0x80,0x04,0x08,
 100          0x04,0x08,0xFF,0x10,0x04,0xE0,0x44,0x58,0x35,0x84,0x04,0x02,0x04,0x0F,0x00,0x00,/*"我",8*/
 101          
 102          0x01,0x00,0x02,0x00,0x0F,0xFE,0x38,0x00,0xC0,0x00,0x0F,0xFE,0x80,0x00,0x70,0x00,
 103          0x20,0x00,0x00,0x00,0x20,0x00,0x20,0x04,0x20,0x02,0x3F,0xFC,0x00,0x00,0x00,0x00,/*"们",9*/
 104          
 105          0x00,0x00,0x1F,0xFE,0x31,0x08,0xD1,0x08,0x11,0x08,0x1F,0xFC,0x02,0x00,0x0C,0x00,
 106          0xF1,0x00,0x10,0xC0,0x10,0x64,0x10,0x02,0x10,0x04,0x1F,0xF8,0x00,0x00,0x00,0x00,/*"的",10*/
 107          
 108          0x00,0x00,0x00,0x00,0x3F,0xFC,0x20,0x10,0x20,0x10,0x20,0x10,0x20,0x10,0x20,0x10,
 109          0x20,0x10,0x20,0x10,0x20,0x10,0x20,0x10,0x3F,0xFC,0x00,0x00,0x00,0x00,0x00,0x00,/*"口",11*/
 110          
 111          0x02,0x00,0x02,0x00,0x02,0x00,0xFA,0x40,0x8B,0xE0,0x8A,0x40,0x8A,0x40,0x8A,0x44,
 112          0x8A,0x42,0x8A,0x41,0x8A,0x42,0xFA,0x7C,0x02,0x00,0x02,0x00,0x02,0x00,0x00,0x00,/*"号",12*/
 113          
 114          0x01,0x00,0x01,0x02,0x01,0x04,0x01,0x08,0x7D,0x70,0x55,0x08,0x55,0x04,0x55,0xFC,
 115          0x55,0x22,0x55,0x22,0x55,0x22,0x7D,0x22,0x01,0x22,0x01,0x02,0x01,0x02,0x00,0x00,/*"是",13*/
 116          
 117          0x00,0x00,0x00,0x00,0x00,0x6C,0x00,0x6C,0x00,0x00,0x00,0x00,0x00,0x00,0x00,0x00,
C51 COMPILER V8.02   TEXT1                                                                 07/01/2017 20:24:33 PAGE 3   

 118          0x00,0x00,0x00,0x00,0x00,0x00,0x00,0x00,0x00,0x00,0x00,0x00,0x00,0x00,0x00,0x00,/*"：",14*/
 119          
 120          0x00,0x40,0x00,0x40,0x00,0x40,0x08,0x40,0x46,0x40,0x33,0x40,0x18,0x40,0x00,0x40,
 121          0x00,0x40,0xFF,0xFF,0x00,0x80,0x00,0x80,0x00,0x80,0x00,0x80,0x00,0x80,0x00,0x00,/*"斗",15*/
 122          
 123          0x00,0x04,0x10,0x38,0x12,0x00,0x12,0x00,0x12,0x7C,0x12,0x02,0x12,0x02,0xFE,0x82,
 124          0x12,0x72,0x12,0x22,0x12,0x02,0x12,0x0E,0x12,0x44,0x12,0x38,0x10,0x10,0x00,0x00,/*"志",16*/
 125          
 126          0x00,0x00,0x00,0x00,0x01,0xF8,0xF9,0x10,0xA9,0x20,0xAA,0x00,0xAA,0x00,0xA8,0x00,
 127          0xA9,0xFF,0xA9,0x00,0xA9,0x00,0xA9,0x10,0xF9,0x08,0x01,0xF0,0x00,0x00,0x00,0x00,/*"昂",17*/
 128          
 129          0x10,0x40,0x10,0x42,0x10,0x81,0xFF,0xFE,0x11,0x00,0x12,0x10,0x40,0x12,0x42,0x22,
 130          0x46,0xC4,0x4B,0x08,0x52,0x30,0x63,0xC2,0x42,0x01,0x02,0x02,0x03,0xFC,0x00,0x00,/*"扬",18*/
 131          
 132          0x00,0x00,0x00,0x00,0x00,0x1A,0x00,0x1C,0x00,0x00,0x00,0x00,0x00,0x00,0x00,0x00,
 133          0x00,0x00,0x00,0x00,0x00,0x00,0x00,0x00,0x00,0x00,0x00,0x00,0x00,0x00,0x00,0x00,/*"，",19*/
 134          
 135          0x00,0x80,0x20,0x80,0x21,0x00,0x23,0xFF,0x25,0x22,0x29,0x22,0x31,0x22,0xE1,0xFE,
 136          0x31,0x22,0x29,0x22,0x25,0x22,0x23,0xFF,0x21,0x00,0x21,0x80,0x21,0x00,0x00,0x00,/*"奋",20*/
 137          
 138          0x00,0x02,0x08,0x04,0x7C,0x08,0x08,0x11,0x08,0xE1,0x0F,0x82,0xF9,0x62,0x09,0x14,
 139          0x09,0x08,0x49,0x14,0x29,0xE4,0x38,0x02,0x08,0x03,0x08,0x02,0x08,0x00,0x00,0x00,/*"发",21*/
 140          
 141          0x00,0x00,0x7F,0xFF,0x42,0x42,0x42,0x42,0x44,0x82,0x78,0x82,0x55,0x12,0x52,0x4E,
 142          0x55,0x2A,0x59,0x02,0x50,0x82,0x40,0xC2,0x40,0x82,0x7F,0xFF,0x00,0x00,0x00,0x00,/*"图",22*/
 143          
 144          0x00,0x00,0x4F,0x80,0x48,0x82,0x48,0x81,0x78,0xFE,0x00,0x00,0x03,0xE1,0x7A,0x21,
 145          0x4A,0x21,0x4F,0xFF,0x4A,0x22,0x4A,0x22,0x7A,0x2A,0x03,0xE7,0x00,0x02,0x00,0x00,/*"强",23*/
 146          
 147          
 148          
 149          
 150          
 151          
 152          
 153          /****************************换字修改处1.1结束***********************************/
 154          /*空白*/0x00,0x00,0x00,0x00,0x00,0x00,0x00,0x00,
 155                0x00,0x00,0x00,0x00,0x00,0x00,0x00,0x00,
 156                0x00,0x00,0x00,0x00,0x00,0x00,0x00,0x00,
 157                0x00,0x00,0x00,0x00,0x00,0x00,0x00,0x00,
 158          /*空白*/0x00,0x00,0x00,0x00,0x00,0x00,0x00,0x00,
 159                0x00,0x00,0x00,0x00,0x00,0x00,0x00,0x00,
 160                0x00,0x00,0x00,0x00,0x00,0x00,0x00,0x00,
 161                0x00,0x00,0x00,0x00,0x00,0x00,0x00,0x00
 162          };
 163          code unsigned  int zi2[] = {    
 164                 0x00,0x00,   
 165          /*******************************对应开关1.2，换字修改处1.2开始*********************************/
 166          
 167          
 168          
 169          
 170          
 171          
 172          0x00,0x20,0x80,0x20,0x80,0x20,0x9F,0xFF,0x92,0x20,0x92,0x20,0x92,0x20,0xFF,0xE0,
 173          0x92,0x20,0x92,0x22,0x92,0x21,0x9F,0xFE,0x80,0x20,0x80,0x20,0x00,0x20,0x00,0x00,/*"再",0*/
 174          
 175          0x00,0x02,0x00,0x02,0x00,0x04,0xFF,0x84,0x80,0x08,0x80,0x30,0x80,0xC0,0x9F,0x00,
 176          0x80,0xFC,0x80,0x02,0x80,0x02,0xFF,0x82,0x00,0x02,0x00,0x1E,0x00,0x04,0x00,0x00,/*"见",1*/
 177          
 178          0x00,0x00,0x40,0x00,0x40,0x00,0x40,0x00,0x40,0x00,0x40,0x02,0x40,0x01,0x4F,0xFE,
 179          0x48,0x00,0x50,0x00,0x50,0x00,0x60,0x00,0x60,0x00,0x40,0x00,0x00,0x00,0x00,0x00,/*"了",2*/
C51 COMPILER V8.02   TEXT1                                                                 07/01/2017 20:24:33 PAGE 4   

 180          
 181          0x08,0x20,0x08,0xC0,0x0B,0x00,0xFF,0xFF,0x0C,0x00,0x0A,0x00,0x09,0x80,0x00,0x00,
 182          0x7F,0xFF,0x44,0x42,0x44,0x42,0x44,0x42,0x44,0x42,0x7F,0xFF,0x00,0x00,0x00,0x00,/*"相",3*/
 183          
 184          0x00,0x00,0x40,0x04,0x40,0x04,0x40,0x24,0x43,0xF4,0x7C,0x24,0x44,0x24,0x44,0x24,
 185          0x44,0x24,0x44,0x24,0x4F,0xFC,0x44,0x04,0x40,0x04,0x40,0x04,0x00,0x04,0x00,0x00,/*"互",4*/
 186          
 187          0x10,0x02,0x13,0x84,0xFC,0x58,0x10,0x60,0x1F,0x9A,0x22,0x04,0xAA,0x48,0x6A,0x70,
 188          0x3F,0xFF,0x2A,0x40,0x3F,0xFF,0x6A,0x50,0xAF,0xC8,0x22,0x06,0x22,0x04,0x00,0x00,/*"嫌",5*/
 189          
 190          0x00,0x40,0x20,0x40,0x20,0x41,0x22,0x42,0x26,0x4C,0x2B,0xF0,0x32,0x40,0xA2,0x40,
 191          0x64,0x40,0x24,0x40,0x35,0xFF,0x2E,0x40,0x24,0x40,0x60,0x40,0x20,0x40,0x00,0x00,/*"弃",6*/
 192          
 193          0x00,0x00,0x1F,0xFE,0x31,0x08,0xD1,0x08,0x11,0x08,0x1F,0xFC,0x02,0x00,0x0C,0x00,
 194          0xF1,0x00,0x10,0xC0,0x10,0x64,0x10,0x02,0x10,0x04,0x1F,0xF8,0x00,0x00,0x00,0x00,/*"的",7*/
 195          
 196          0x02,0x10,0x22,0x10,0x22,0x20,0x22,0x20,0x22,0x40,0x22,0x7C,0xFE,0x92,0x23,0x12,
 197          0x23,0x22,0x22,0x22,0x26,0x42,0x2A,0x42,0x72,0x02,0x22,0x0E,0x02,0x00,0x00,0x00,/*"老",8*/
 198          
 199          0x00,0x00,0x7F,0xFF,0x40,0x00,0x48,0x00,0x49,0xF8,0x49,0x10,0x49,0x10,0x49,0x10,
 200          0x49,0x10,0x49,0x10,0x49,0xF8,0x48,0x02,0x40,0x01,0x7F,0xFE,0x00,0x00,0x00,0x00,/*"同",9*/
 201          
 202          0x02,0x00,0x0C,0x40,0x08,0x40,0x48,0x40,0x3A,0x40,0x2A,0x40,0x0A,0x42,0x8A,0x41,
 203          0x7A,0xFE,0x2B,0x40,0x0A,0x40,0x18,0x40,0xEA,0x40,0x4C,0x40,0x08,0x40,0x00,0x00,/*"学",10*/
 204          
 205          0x00,0x00,0x00,0x00,0x00,0x1A,0x00,0x1C,0x00,0x00,0x00,0x00,0x00,0x00,0x00,0x00,
 206          0x00,0x00,0x00,0x00,0x00,0x00,0x00,0x00,0x00,0x00,0x00,0x00,0x00,0x00,0x00,0x00,/*"，",11*/
 207          
 208          0x00,0x20,0x80,0x20,0x80,0x20,0x9F,0xFF,0x92,0x20,0x92,0x20,0x92,0x20,0xFF,0xE0,
 209          0x92,0x20,0x92,0x22,0x92,0x21,0x9F,0xFE,0x80,0x20,0x80,0x20,0x00,0x20,0x00,0x00,/*"再",12*/
 210          
 211          0x00,0x02,0x00,0x02,0x00,0x04,0xFF,0x84,0x80,0x08,0x80,0x30,0x80,0xC0,0x9F,0x00,
 212          0x80,0xFC,0x80,0x02,0x80,0x02,0xFF,0x82,0x00,0x02,0x00,0x1E,0x00,0x04,0x00,0x00,/*"见",13*/
 213          
 214          0x00,0x00,0x40,0x00,0x40,0x00,0x40,0x00,0x40,0x00,0x40,0x02,0x40,0x01,0x4F,0xFE,
 215          0x48,0x00,0x50,0x00,0x50,0x00,0x60,0x00,0x60,0x00,0x40,0x00,0x00,0x00,0x00,0x00,/*"了",14*/
 216          
 217          0x00,0x04,0x01,0x04,0x21,0x08,0x21,0x08,0x29,0x10,0x25,0x20,0x23,0x40,0xFF,0xFF,
 218          0x21,0x80,0x23,0x40,0x2D,0x20,0x29,0x10,0x21,0x18,0x21,0x0C,0x01,0x08,0x00,0x00,/*"来",15*/
 219          
 220          0x00,0x00,0x40,0x10,0x40,0x20,0x40,0x40,0x40,0x80,0x41,0x00,0x42,0x00,0x7F,0xFE,
 221          0x60,0x00,0x42,0x00,0x43,0x00,0x41,0x80,0x40,0xE0,0xC0,0x40,0x40,0x00,0x00,0x00,/*"不",16*/
 222          
 223          0x00,0x02,0x00,0x04,0x40,0x09,0x40,0x31,0x41,0xC2,0x7E,0x02,0x41,0x84,0x40,0x68,
 224          0x42,0x10,0x4F,0x10,0x72,0x68,0x03,0x84,0x02,0x06,0x00,0x03,0x00,0x02,0x00,0x00,/*"及",17*/
 225          
 226          0x04,0x00,0x84,0x00,0x77,0xFC,0x20,0x08,0x00,0x11,0x00,0x02,0x9F,0x84,0x71,0x18,
 227          0x51,0xE0,0x11,0x00,0x11,0xFC,0x31,0x02,0xDF,0x82,0x00,0x02,0x00,0x0E,0x00,0x00,/*"说",18*/
 228          
 229          0x00,0x00,0x00,0x00,0x3F,0x7E,0x02,0x04,0x02,0x04,0x02,0x04,0x02,0x04,0xFF,0xFC,
 230          0x02,0x04,0x02,0x04,0x02,0x04,0x02,0x04,0x02,0x04,0x3F,0x7E,0x00,0x00,0x00,0x00,/*"出",19*/
 231          
 232          0x00,0x00,0x1F,0xFE,0x31,0x08,0xD1,0x08,0x11,0x08,0x1F,0xFC,0x02,0x00,0x0C,0x00,
 233          0xF1,0x00,0x10,0xC0,0x10,0x64,0x10,0x02,0x10,0x04,0x1F,0xF8,0x00,0x00,0x00,0x00,/*"的",20*/
 234          
 235          0x02,0x00,0x42,0x00,0x33,0xFC,0x20,0x0A,0x00,0x94,0x3F,0x88,0x6A,0xB2,0xAA,0xC1,
 236          0x3F,0xFE,0x0A,0x00,0x09,0x82,0x08,0x01,0xFF,0xFE,0x08,0x00,0x08,0x00,0x00,0x00,/*"谢",21*/
 237          
 238          0x02,0x00,0x42,0x00,0x33,0xFC,0x20,0x0A,0x00,0x94,0x3F,0x88,0x6A,0xB2,0xAA,0xC1,
 239          0x3F,0xFE,0x0A,0x00,0x09,0x82,0x08,0x01,0xFF,0xFE,0x08,0x00,0x08,0x00,0x00,0x00,/*"谢",22*/
 240          
 241          0x00,0x00,0x00,0x00,0x00,0x1A,0x00,0x1C,0x00,0x00,0x00,0x00,0x00,0x00,0x00,0x00,
C51 COMPILER V8.02   TEXT1                                                                 07/01/2017 20:24:33 PAGE 5   

 242          0x00,0x00,0x00,0x00,0x00,0x00,0x00,0x00,0x00,0x00,0x00,0x00,0x00,0x00,0x00,0x00,/*"，",23*/
 243          
 244          0x00,0x20,0x80,0x20,0x80,0x20,0x9F,0xFF,0x92,0x20,0x92,0x20,0x92,0x20,0xFF,0xE0,
 245          0x92,0x20,0x92,0x22,0x92,0x21,0x9F,0xFE,0x80,0x20,0x80,0x20,0x00,0x20,0x00,0x00,/*"再",24*/
 246          
 247          0x00,0x02,0x00,0x02,0x00,0x04,0xFF,0x84,0x80,0x08,0x80,0x30,0x80,0xC0,0x9F,0x00,
 248          0x80,0xFC,0x80,0x02,0x80,0x02,0xFF,0x82,0x00,0x02,0x00,0x1E,0x00,0x04,0x00,0x00,/*"见",25*/
 249          
 250          0x00,0x00,0x40,0x00,0x40,0x00,0x40,0x00,0x40,0x00,0x40,0x02,0x40,0x01,0x4F,0xFE,
 251          0x48,0x00,0x50,0x00,0x50,0x00,0x60,0x00,0x60,0x00,0x40,0x00,0x00,0x00,0x00,0x00,/*"了",26*/
 252          
 253          0x00,0x00,0x40,0x10,0x40,0x20,0x40,0x40,0x40,0x80,0x41,0x00,0x42,0x00,0x7F,0xFE,
 254          0x60,0x00,0x42,0x00,0x43,0x00,0x41,0x80,0x40,0xE0,0xC0,0x40,0x40,0x00,0x00,0x00,/*"不",27*/
 255          
 256          0x01,0x00,0x02,0x00,0x02,0x42,0x04,0x47,0x0A,0x4A,0x12,0x52,0x22,0x62,0xC2,0x46,
 257          0x22,0x44,0x12,0x44,0x0A,0x54,0x04,0x4F,0x06,0x46,0x03,0x00,0x02,0x00,0x00,0x00,/*"会",28*/
 258          
 259          0x00,0x20,0x80,0x20,0x80,0x20,0x9F,0xFF,0x92,0x20,0x92,0x20,0x92,0x20,0xFF,0xE0,
 260          0x92,0x20,0x92,0x22,0x92,0x21,0x9F,0xFE,0x80,0x20,0x80,0x20,0x00,0x20,0x00,0x00,/*"再",29*/
 261          
 262          0x00,0x40,0x20,0x80,0x21,0x00,0x22,0x00,0x27,0xFF,0x2C,0x90,0x34,0x90,0xE4,0x90,
 263          0x24,0x94,0x24,0x92,0x24,0x93,0x27,0xFE,0x20,0x00,0x20,0x00,0x20,0x00,0x00,0x00,/*"有",30*/
 264          
 265          0x00,0x00,0x1F,0xFE,0x31,0x08,0xD1,0x08,0x11,0x08,0x1F,0xFC,0x02,0x00,0x0C,0x00,
 266          0xF1,0x00,0x10,0xC0,0x10,0x64,0x10,0x02,0x10,0x04,0x1F,0xF8,0x00,0x00,0x00,0x00,/*"的",31*/
 267          
 268          0x00,0x00,0x00,0x00,0x7F,0x00,0x42,0xFF,0x54,0x92,0x88,0x92,0x86,0x92,0x01,0xFE,
 269          0x46,0x92,0x78,0x92,0x42,0x92,0x41,0x92,0x42,0xFF,0x7C,0x00,0x00,0x00,0x00,0x00,/*"留",32*/
 270          
 271          0x00,0x00,0x02,0x02,0x0C,0x12,0x48,0x12,0x3B,0xD2,0x2A,0x52,0x0A,0x52,0xFA,0x7E,
 272          0x0A,0x52,0x0A,0x52,0x1B,0xD2,0x68,0x12,0x2A,0x12,0x1C,0x12,0x08,0x02,0x00,0x00,/*"堂",33*/
 273          
 274          0x01,0x00,0x02,0x00,0x04,0x00,0x1F,0xFF,0xE0,0x00,0x44,0x00,0x18,0x00,0x30,0x00,
 275          0xDF,0xFF,0x12,0x20,0x12,0x20,0x12,0x20,0x16,0x20,0x12,0x60,0x10,0x20,0x00,0x00,/*"作",34*/
 276          
 277          0x00,0x04,0x08,0x04,0x06,0x04,0x01,0xC4,0x00,0x84,0xFF,0xFC,0x00,0x04,0x00,0x04,
 278          0x00,0x04,0xFF,0xFC,0x00,0x44,0x01,0x84,0x06,0x04,0x1C,0x0C,0x08,0x04,0x00,0x00,/*"业",35*/
 279          
 280          
 281          
 282          
 283          
 284          
 285          /******************************换字修改处1.2结束***************************************/
 286          /*空白*/0x00,0x00,0x00,0x00,0x00,0x00,0x00,0x00,
 287                0x00,0x00,0x00,0x00,0x00,0x00,0x00,0x00,
 288                0x00,0x00,0x00,0x00,0x00,0x00,0x00,0x00,
 289                0x00,0x00,0x00,0x00,0x00,0x00,0x00,0x00,
 290          
 291          /*空白*/0x00,0x00,0x00,0x00,0x00,0x00,0x00,0x00,
 292                0x00,0x00,0x00,0x00,0x00,0x00,0x00,0x00,
 293                0x00,0x00,0x00,0x00,0x00,0x00,0x00,0x00,
 294                0x00,0x00,0x00,0x00,0x00,0x00,0x00,0x00
 295          };
 296          code unsigned  int zi3[] = {    
 297                 0x00,0x00,   
 298          /********************************对应开关1.3，换字修改处1.3开始*****************************/
 299          
 300          
 301          
 302          
 303          
C51 COMPILER V8.02   TEXT1                                                                 07/01/2017 20:24:33 PAGE 6   

 304          
 305          
 306          
 307          
 308          
 309          
 310          /******************************换字修改处1.3结束***************************************/
 311          /*空白*/0x00,0x00,0x00,0x00,0x00,0x00,0x00,0x00,
 312                0x00,0x00,0x00,0x00,0x00,0x00,0x00,0x00,
 313                0x00,0x00,0x00,0x00,0x00,0x00,0x00,0x00,
 314                0x00,0x00,0x00,0x00,0x00,0x00,0x00,0x00,
 315          /*空白*/0x00,0x00,0x00,0x00,0x00,0x00,0x00,0x00,
 316                0x00,0x00,0x00,0x00,0x00,0x00,0x00,0x00,
 317                0x00,0x00,0x00,0x00,0x00,0x00,0x00,0x00,
 318                0x00,0x00,0x00,0x00,0x00,0x00,0x00,0x00
 319           };      
 320          code unsigned  int zi4[] = {    
 321                 0x00,0x00,   
 322          /*****************************对应开关1.4，换字修改处1.4开始**************************/
 323          
 324          
 325          
 326          
 327          
 328          
 329          
 330          
 331          
 332          
 333          
 334          
 335          
 336          /******************************换字修改处1.4结束***************************************/
 337          /*空白*/0x00,0x00,0x00,0x00,0x00,0x00,0x00,0x00,
 338                0x00,0x00,0x00,0x00,0x00,0x00,0x00,0x00,
 339                0x00,0x00,0x00,0x00,0x00,0x00,0x00,0x00,
 340                0x00,0x00,0x00,0x00,0x00,0x00,0x00,0x00,
 341          /*空白*/0x00,0x00,0x00,0x00,0x00,0x00,0x00,0x00,
 342                0x00,0x00,0x00,0x00,0x00,0x00,0x00,0x00,
 343                0x00,0x00,0x00,0x00,0x00,0x00,0x00,0x00,
 344                0x00,0x00,0x00,0x00,0x00,0x00,0x00,0x00
 345          };
 346          code unsigned  int zi5[] = {    
 347                 0x00,0x00,   
 348          /*******************************对应开关1.5，换字修改处1.5开始*********************************/
 349          
 350          
 351          
 352          
 353          
 354          
 355          
 356          
 357          
 358          
 359          
 360          
 361          /******************************换字修改处1.5结束***************************************/
 362          /*空白*/0x00,0x00,0x00,0x00,0x00,0x00,0x00,0x00,
 363                0x00,0x00,0x00,0x00,0x00,0x00,0x00,0x00,
 364                0x00,0x00,0x00,0x00,0x00,0x00,0x00,0x00,
 365                0x00,0x00,0x00,0x00,0x00,0x00,0x00,0x00,
C51 COMPILER V8.02   TEXT1                                                                 07/01/2017 20:24:33 PAGE 7   

 366          
 367          /*空白*/0x00,0x00,0x00,0x00,0x00,0x00,0x00,0x00,
 368                0x00,0x00,0x00,0x00,0x00,0x00,0x00,0x00,
 369                0x00,0x00,0x00,0x00,0x00,0x00,0x00,0x00,
 370                0x00,0x00,0x00,0x00,0x00,0x00,0x00,0x00
 371          };
 372          code unsigned  int zi6[] = {    
 373                 0x00,0x00,   
 374          /******************************对应开关1.6，换字修改处1.6开始**********************************/
 375          
 376          
 377          
 378          
 379          
 380          
 381          
 382          
 383          
 384          
 385          
 386          
 387          
 388          /******************************换字修改处1.6结束***************************************/
 389          /*空白*/0x00,0x00,0x00,0x00,0x00,0x00,0x00,0x00,
 390                0x00,0x00,0x00,0x00,0x00,0x00,0x00,0x00,
 391                0x00,0x00,0x00,0x00,0x00,0x00,0x00,0x00,
 392                0x00,0x00,0x00,0x00,0x00,0x00,0x00,0x00,
 393          /*空白*/0x00,0x00,0x00,0x00,0x00,0x00,0x00,0x00,
 394                0x00,0x00,0x00,0x00,0x00,0x00,0x00,0x00,
 395                0x00,0x00,0x00,0x00,0x00,0x00,0x00,0x00,
 396                0x00,0x00,0x00,0x00,0x00,0x00,0x00,0x00
 397          };
 398          code unsigned  int zi7[] = {    
 399                 0x00,0x00,   
 400          /*****************************对应开关1.7，换字修改处1.7开始****************************/
 401          
 402          
 403          
 404          
 405          
 406          
 407          
 408          
 409          
 410          
 411          
 412          
 413          
 414          /******************************换字修改处1.7结束***************************************/
 415          /*空白*/0x00,0x00,0x00,0x00,0x00,0x00,0x00,0x00,
 416                0x00,0x00,0x00,0x00,0x00,0x00,0x00,0x00,
 417                0x00,0x00,0x00,0x00,0x00,0x00,0x00,0x00,
 418                0x00,0x00,0x00,0x00,0x00,0x00,0x00,0x00,
 419          /*空白*/0x00,0x00,0x00,0x00,0x00,0x00,0x00,0x00,
 420                0x00,0x00,0x00,0x00,0x00,0x00,0x00,0x00,
 421                0x00,0x00,0x00,0x00,0x00,0x00,0x00,0x00,
 422                0x00,0x00,0x00,0x00,0x00,0x00,0x00,0x00
 423          };
 424          /**n（us）延时子程序**/
 425          DelayUs(unsigned int N)
 426              {
 427   1              unsigned int x ;
C51 COMPILER V8.02   TEXT1                                                                 07/01/2017 20:24:33 PAGE 8   

 428   1              for(x=0;x<=N;x++);
 429   1          }
 430          /*主程序*/
 431          main()
 432              {
 433   1               unsigned int i=0,j=0,z=0,k=2,l=0,m=0,n=0,p=8;            
 434   1              while(1)
 435   1              {             
 436   2          if(p10==0)
 437   2          {
 438   3              p=0;
 439   3          }
 440   2          if(p11==0)
 441   2          {
 442   3              p=1;
 443   3          }
 444   2          if(p12==0)
 445   2          {
 446   3              p=2;
 447   3          }
 448   2          if(p13==0)
 449   2          {
 450   3              p=3;
 451   3          }
 452   2          if(p14==0)
 453   2          {
 454   3              p=4;
 455   3          }
 456   2          if(p17==0)
 457   2          {
 458   3              p=7;
 459   3          }
 460   2          switch (p)
 461   2          {
 462   3      /****************换字修改处2****************修改处1.0对应case 0，以此类推*******************/
 463   3      
 464   3      
 465   3              case 0: z=15*32+2; P0=~zi0[k-2-i*2];P2=~zi0[k-1-i*2]; break;  //在这里修改字数
 466   3              case 1: z=23*32+2; P0=~zi1[k-2-i*2];P2=~zi1[k-1-i*2]; break; 
 467   3              case 2: z=38*32+2; P0=~zi2[k-2-i*2];P2=~zi2[k-1-i*2]; break;//格式：字数*32+2 
 468   3              case 3: z=0*32+2; P0=~zi3[k-2-i*2];P2=~zi3[k-1-i*2]; break; 
 469   3              case 4: z=0*32+2; P0=~zi4[k-2-i*2];P2=~zi4[k-1-i*2]; break; 
 470   3              case 5: z=0*32+2; P0=~zi5[k-2-i*2];P2=~zi5[k-1-i*2]; break; 
 471   3              case 6: z=0*32+2; P0=~zi6[k-2-i*2];P2=~zi6[k-1-i*2]; break; 
 472   3              case 7: z=0*32+2; P0=~zi7[k-2-i*2];P2=~zi7[k-1-i*2]; break;  
 473   3      
 474   3      
 475   3      /***************************换字修改处2结束*********************************************/
 476   3          }
 477   2      /*******************以下不用修改********************************/                
 478   2                        DelayUs(70);
 479   2                        P0=0XFF;
 480   2                        P2=0XFF;
 481   2                        DelayUs(10);
 482   2                        if(k-2-i*2>0)
 483   2                        {
 484   3                             i++;
 485   3                        }
 486   2                   if(KEY==1)
 487   2                      {     
 488   3                          n++;                
 489   3                          if(n>20000)
C51 COMPILER V8.02   TEXT1                                                                 07/01/2017 20:24:33 PAGE 9   

 490   3                          {
 491   4                              n=200;
 492   4                          }
 493   3                          if(n>=100)
 494   3                          {                     
 495   4                            if(k-2-i*2>=0)
 496   4                             {  
 497   5                                m++;
 498   5                                if(m==1)                  /*m==2减速*/ 
 499   5                                {
 500   6                                k=l;                              
 501   6                                k=k+2;
 502   6                                l=k;
 503   6                                m=0;
 504   6                                }
 505   5                            while(KEY) ;
 506   5                            }
 507   4                          i=0;
 508   4                          }
 509   3                      }
 510   2                   if(l>z+60)                  //yuan 80  数达，会留有闪烁，马达速度变快时应减小
 511   2                   {
 512   3                         l=2;
 513   3                         k=2;
 514   3                   }
 515   2                   if(l>z)
 516   2                   {
 517   3                          DelayUs(100*k-100*z) ;                   
 518   3                          k=z;
 519   3                   }
 520   2              }
 521   1          }


MODULE INFORMATION:   STATIC OVERLAYABLE
   CODE SIZE        =    865    ----
   CONSTANT SIZE    =   5536    ----
   XDATA SIZE       =   ----    ----
   PDATA SIZE       =   ----    ----
   DATA SIZE        =   ----      16
   IDATA SIZE       =   ----    ----
   BIT SIZE         =   ----    ----
END OF MODULE INFORMATION.


C51 COMPILATION COMPLETE.  0 WARNING(S),  0 ERROR(S)
