BL51 BANKED LINKER/LOCATER V6.00                                                        10/22/2017  17:01:57  PAGE 1


BL51 BANKED LINKER/LOCATER V6.00, INVOKED BY:
E:\KEIL\C51\BIN\BL51.EXE Text1.obj TO 1 RAMSIZE (256)


MEMORY MODEL: SMALL


INPUT MODULES INCLUDED:
  Text1.obj (TEXT1)
  E:\KEIL\C51\LIB\C51S.LIB (?C_STARTUP)
  E:\KEIL\C51\LIB\C51S.LIB (?C?UIDIV)


LINK MAP OF MODULE:  1 (TEXT1)


            TYPE    BASE      LENGTH    RELOCATION   SEGMENT NAME
            -----------------------------------------------------

            * * * * * * *   D A T A   M E M O R Y   * * * * * * *
            REG     0000H     0008H     ABSOLUTE     "REG BANK 0"
            DATA    0008H     0010H     UNIT         ?DT?TEXT1
            IDATA   0018H     0001H     UNIT         ?STACK

            * * * * * * *   C O D E   M E M O R Y   * * * * * * *
            CODE    0000H     0003H     ABSOLUTE     
                    0003H     0008H                  *** GAP ***
            CODE    000BH     0003H     ABSOLUTE     
            CODE    000EH     011CH     UNIT         ?PR?MAIN?TEXT1
            CODE    012AH     0055H     UNIT         ?C?LIB_CODE
            CODE    017FH     0025H     UNIT         ?PR?TIMER0?TEXT1
            CODE    01A4H     000CH     UNIT         ?C_C51STARTUP



OVERLAY MAP OF MODULE:   1 (TEXT1)


SEGMENT
  +--> CALLED SEGMENT
---------------------
?C_C51STARTUP
  +--> ?PR?MAIN?TEXT1



SYMBOL TABLE OF MODULE:  1 (TEXT1)

  VALUE           TYPE          NAME
  ----------------------------------

  -------         MODULE        TEXT1
  C:0000H         SYMBOL        _ICE_DUMMY_
  D:0090H         PUBLIC        P1
  D:00B0H         PUBLIC        P3
  B:00A8H.7       PUBLIC        EA
  D:00A8H         PUBLIC        IE
  D:0008H         PUBLIC        b1
BL51 BANKED LINKER/LOCATER V6.00                                                      10/22/2017  17:01:57  PAGE 2


  D:000AH         PUBLIC        b2
  D:000CH         PUBLIC        b3
  D:000EH         PUBLIC        b4
  D:00B8H         PUBLIC        IP
  C:000EH         PUBLIC        main
  D:0010H         PUBLIC        time
  D:0098H         PUBLIC        SCON
  D:0089H         PUBLIC        TMOD
  D:0088H         PUBLIC        TCON
  B:00A8H.1       PUBLIC        ET0
  D:008CH         PUBLIC        TH0
  D:008AH         PUBLIC        TL0
  B:0090H.2       PUBLIC        p12
  C:017FH         PUBLIC        timer0
  B:00B0H.3       PUBLIC        p33
  B:0088H.4       PUBLIC        TR0
  B:00B0H.4       PUBLIC        p34
  B:00B0H.6       PUBLIC        p36
  D:0012H         PUBLIC        a
  D:0014H         PUBLIC        b
  D:00C8H         PUBLIC        T2CON
  D:0016H         PUBLIC        i
  D:00D0H         PUBLIC        PSW
  -------         PROC          MAIN
  C:000EH         LINE#         21
  C:000EH         LINE#         22
  C:000EH         LINE#         23
  C:0011H         LINE#         24
  C:0014H         LINE#         25
  C:0017H         LINE#         26
  C:0019H         LINE#         27
  C:001BH         LINE#         28
  C:001DH         LINE#         33
  C:0021H         LINE#         34
  C:0025H         LINE#         35
  C:002AH         LINE#         36
  C:002EH         LINE#         37
  C:0032H         LINE#         38
  C:0036H         LINE#         40
  C:0038H         LINE#         43
  C:0038H         LINE#         44
  C:0038H         LINE#         45
  C:003EH         LINE#         46
  C:003EH         LINE#         47
  C:0044H         LINE#         48
  C:0044H         LINE#         50
  C:0047H         LINE#         51
  C:0047H         LINE#         52
  C:004DH         LINE#         53
  C:004DH         LINE#         54
  C:005CH         LINE#         55
  C:0062H         LINE#         56
  C:0077H         LINE#         57
  C:0077H         LINE#         58
  C:007DH         LINE#         59
  C:007DH         LINE#         60
  C:0090H         LINE#         61
BL51 BANKED LINKER/LOCATER V6.00                                                      10/22/2017  17:01:57  PAGE 3


  C:0090H         LINE#         62
  C:0096H         LINE#         63
  C:009BH         LINE#         64
  C:009BH         LINE#         65
  C:009BH         LINE#         66
  C:009DH         LINE#         68
  C:009DH         LINE#         69
  C:00A2H         LINE#         70
  C:00A2H         LINE#         71
  C:00AAH         LINE#         72
  C:00AAH         LINE#         73
  C:00ACH         LINE#         74
  C:00B2H         LINE#         75
  C:00B2H         LINE#         76
  C:00C0H         LINE#         77
  C:00C6H         LINE#         78
  C:00DBH         LINE#         79
  C:00DBH         LINE#         81
  C:00EEH         LINE#         82
  C:00EEH         LINE#         83
  C:00F0H         LINE#         84
  C:0105H         LINE#         85
  C:0105H         LINE#         87
  C:0105H         LINE#         88
  C:0105H         LINE#         89
  C:010BH         LINE#         90
  C:010BH         LINE#         91
  C:011CH         LINE#         92
  C:0120H         LINE#         93
  C:0125H         LINE#         94
  C:0127H         LINE#         95
  C:0127H         LINE#         96
  -------         ENDPROC       MAIN
  -------         PROC          TIMER0
  C:017FH         LINE#         103
  C:0183H         LINE#         105
  C:0186H         LINE#         106
  C:0189H         LINE#         107
  C:0191H         LINE#         108
  C:0199H         LINE#         109
  C:019FH         LINE#         110
  -------         ENDPROC       TIMER0
  -------         ENDMOD        TEXT1

  -------         MODULE        ?C?UIDIV
  C:012AH         PUBLIC        ?C?UIDIV
  -------         ENDMOD        ?C?UIDIV

Program Size: data=25.0 xdata=0 code=424
LINK/LOCATE RUN COMPLETE.  0 WARNING(S),  0 ERROR(S)
