BL51 BANKED LINKER/LOCATER V6.22                                                        07/24/2020  21:02:01  PAGE 1


BL51 BANKED LINKER/LOCATER V6.22, INVOKED BY:
E:\KEIL5\C51\BIN\BL51.EXE STARTUP.obj, main.obj TO 流水灯 RAMSIZE (256)


MEMORY MODEL: SMALL


INPUT MODULES INCLUDED:
  STARTUP.obj (?C_STARTUP)
  main.obj (MAIN)
  E:\KEIL5\C51\LIB\C51S.LIB (?C_INIT)
  E:\KEIL5\C51\LIB\C51S.LIB (?C?UIDIV)
  E:\KEIL5\C51\LIB\C51S.LIB (?C?LMUL)
  E:\KEIL5\C51\LIB\C51S.LIB (?C?ULDIV)
  E:\KEIL5\C51\LIB\C51S.LIB (?C?ULCMP)
  E:\KEIL5\C51\LIB\C51S.LIB (?C?ULSHR)
  E:\KEIL5\C51\LIB\C51S.LIB (?C?LLDCODE)
  E:\KEIL5\C51\LIB\C51S.LIB (?C?OFFXADD)


LINK MAP OF MODULE:  流水灯 (?C_STARTUP)


            TYPE    BASE      LENGTH    RELOCATION   SEGMENT NAME
            -----------------------------------------------------

            * * * * * * *   D A T A   M E M O R Y   * * * * * * *
            REG     0000H     0008H     ABSOLUTE     "REG BANK 0"
            DATA    0008H     0012H     UNIT         ?DT?MAIN
                    001AH     0006H                  *** GAP ***
            DATA    0020H     0001H     BIT_ADDR     ?BA?MAIN
            DATA    0021H     0010H     UNIT         _DATA_GROUP_
            IDATA   0031H     0096H     UNIT         ?ID?MAIN
            IDATA   00C7H     0001H     UNIT         ?STACK

            * * * * * * *   C O D E   M E M O R Y   * * * * * * *
            CODE    0000H     0003H     ABSOLUTE     
            CODE    0003H     0006H     UNIT         ?PR?SHUN6LED?MAIN
                    0009H     0002H                  *** GAP ***
            CODE    000BH     0003H     ABSOLUTE     
            CODE    000EH     05A0H     UNIT         ?PR?MAIN?MAIN
            CODE    05AEH     01D8H     UNIT         ?PR?MODE_INIT?MAIN
            CODE    0786H     01B2H     UNIT         ?C?LIB_CODE
            CODE    0938H     01AEH     UNIT         ?PR?_BREATH?MAIN
            CODE    0AE6H     00E4H     UNIT         ?PR?_TWOCOLOR?MAIN
            CODE    0BCAH     00C9H     UNIT         ?PR?_SHUN6WIPE?MAIN
            CODE    0C93H     00C3H     UNIT         ?C_INITSEG
            CODE    0D56H     00AFH     UNIT         ?PR?_ALLCHANGE?MAIN
            CODE    0E05H     008CH     UNIT         ?C_C51STARTUP
            CODE    0E91H     007DH     UNIT         ?PR?T0INT?MAIN
            CODE    0F0EH     005DH     UNIT         ?PR?_SEND_DATA?MAIN
            CODE    0F6BH     005DH     UNIT         ?PR?_SETPIXELCOLOR?MAIN
            CODE    0FC8H     0059H     UNIT         ?PR?MOVE_ONE_NI?MAIN
            CODE    1021H     0043H     UNIT         ?PR?MOVE_ONE_SHUN?MAIN
            CODE    1064H     002BH     UNIT         ?PR?_COLOR1LED?MAIN
            CODE    108FH     0029H     UNIT         ?PR?_COLORWIPE?MAIN
            CODE    10B8H     0024H     UNIT         ?PR?SHOW_WS2812?MAIN
            CODE    10DCH     0022H     UNIT         ?PR?_DELAY?MAIN
BL51 BANKED LINKER/LOCATER V6.22                                                      07/24/2020  21:02:01  PAGE 2


            CODE    10FEH     001DH     UNIT         ?PR?SEND_DATA_0?MAIN
            CODE    111BH     001CH     UNIT         ?CO?MAIN
            CODE    1137H     001BH     UNIT         ?PR?SEND_DATA_1?MAIN
            CODE    1152H     0015H     UNIT         ?PR?CLEAR_BUFF?MAIN
            CODE    1167H     0013H     UNIT         ?PR?INITT0?MAIN
            CODE    117AH     0006H     UNIT         ?PR?NI6LED?MAIN



OVERLAY MAP OF MODULE:   流水灯 (?C_STARTUP)


SEGMENT                           DATA_GROUP 
  +--> CALLED SEGMENT           START    LENGTH
-----------------------------------------------
?C_C51STARTUP                   -----    -----
  +--> ?PR?MAIN?MAIN
  +--> ?C_INITSEG

?PR?MAIN?MAIN                   0021H    0002H
  +--> ?PR?_DELAY?MAIN
  +--> ?PR?CLEAR_BUFF?MAIN
  +--> ?PR?INITT0?MAIN
  +--> ?PR?MODE_INIT?MAIN
  +--> ?PR?_COLORWIPE?MAIN
  +--> ?PR?SHOW_WS2812?MAIN
  +--> ?PR?_COLOR1LED?MAIN
  +--> ?CO?MAIN
  +--> ?PR?_ALLCHANGE?MAIN
  +--> ?PR?_SHUN6WIPE?MAIN
  +--> ?PR?NI6LED?MAIN
  +--> ?PR?SHUN6LED?MAIN
  +--> ?PR?_BREATH?MAIN
  +--> ?PR?_TWOCOLOR?MAIN

?PR?CLEAR_BUFF?MAIN             -----    -----
  +--> ?PR?_SETPIXELCOLOR?MAIN

?PR?_SETPIXELCOLOR?MAIN         002CH    0005H

?PR?MODE_INIT?MAIN              0023H    0001H
  +--> ?CO?MAIN
  +--> ?PR?_COLOR1LED?MAIN
  +--> ?PR?_COLORWIPE?MAIN
  +--> ?PR?CLEAR_BUFF?MAIN

?PR?_COLOR1LED?MAIN             0027H    0005H
  +--> ?CO?MAIN
  +--> ?PR?_SETPIXELCOLOR?MAIN

?PR?_COLORWIPE?MAIN             0025H    0005H
  +--> ?PR?_SETPIXELCOLOR?MAIN

?PR?SHOW_WS2812?MAIN            -----    -----
  +--> ?PR?_SEND_DATA?MAIN
  +--> ?PR?_DELAY?MAIN

BL51 BANKED LINKER/LOCATER V6.22                                                      07/24/2020  21:02:01  PAGE 3


?PR?_SEND_DATA?MAIN             -----    -----
  +--> ?PR?SEND_DATA_1?MAIN
  +--> ?PR?SEND_DATA_0?MAIN

?PR?_ALLCHANGE?MAIN             -----    -----
  +--> ?PR?SHOW_WS2812?MAIN

?PR?_SHUN6WIPE?MAIN             0023H    0002H
  +--> ?CO?MAIN
  +--> ?PR?_COLORWIPE?MAIN
  +--> ?PR?SHOW_WS2812?MAIN

?PR?NI6LED?MAIN                 -----    -----
  +--> ?PR?SHOW_WS2812?MAIN
  +--> ?PR?MOVE_ONE_NI?MAIN

?PR?MOVE_ONE_NI?MAIN            0023H    0001H

?PR?SHUN6LED?MAIN               -----    -----
  +--> ?PR?SHOW_WS2812?MAIN
  +--> ?PR?MOVE_ONE_SHUN?MAIN

?PR?_BREATH?MAIN                0023H    0002H
  +--> ?PR?SHOW_WS2812?MAIN

?PR?_TWOCOLOR?MAIN              0023H    0004H
  +--> ?CO?MAIN
  +--> ?PR?_COLOR1LED?MAIN
  +--> ?PR?SHOW_WS2812?MAIN



SYMBOL TABLE OF MODULE:  流水灯 (?C_STARTUP)

  VALUE           TYPE          NAME
  ----------------------------------

  -------         MODULE        ?C_STARTUP
  C:0E05H         SEGMENT       ?C_C51STARTUP
  I:00C7H         SEGMENT       ?STACK
  C:0000H         PUBLIC        ?C_STARTUP
  D:00E0H         SYMBOL        ACC
  D:00F0H         SYMBOL        B
  D:0083H         SYMBOL        DPH
  D:0082H         SYMBOL        DPL
  N:0000H         SYMBOL        IBPSTACK
  N:0100H         SYMBOL        IBPSTACKTOP
  N:0080H         SYMBOL        IDATALEN
  C:0E08H         SYMBOL        IDATALOOP
  N:0000H         SYMBOL        PBPSTACK
  N:0100H         SYMBOL        PBPSTACKTOP
  N:0000H         SYMBOL        PDATALEN
  N:0000H         SYMBOL        PDATASTART
  N:0000H         SYMBOL        PPAGE
  N:0000H         SYMBOL        PPAGEENABLE
  D:00A0H         SYMBOL        PPAGE_SFR
  D:0081H         SYMBOL        SP
BL51 BANKED LINKER/LOCATER V6.22                                                      07/24/2020  21:02:01  PAGE 4


  C:0E05H         SYMBOL        STARTUP1
  N:0000H         SYMBOL        XBPSTACK
  N:0000H         SYMBOL        XBPSTACKTOP
  N:0000H         SYMBOL        XDATALEN
  N:0000H         SYMBOL        XDATASTART
  C:0000H         LINE#         126
  C:0E05H         LINE#         133
  C:0E07H         LINE#         134
  C:0E08H         LINE#         135
  C:0E09H         LINE#         136
  C:0E0BH         LINE#         185
  C:0E0EH         LINE#         196
  -------         ENDMOD        ?C_STARTUP

  -------         MODULE        MAIN
  C:0000H         SYMBOL        _ICE_DUMMY_
  D:0092H         PUBLIC        P1M0
  D:0091H         PUBLIC        P1M1
  D:0080H         PUBLIC        P0
  D:0090H         PUBLIC        P1
  D:00A0H         PUBLIC        P2
  D:00B0H         PUBLIC        P3
  D:00C0H         PUBLIC        P4
  D:00C8H         PUBLIC        P5
  B:00A8H.7       PUBLIC        EA
  D:00E8H         PUBLIC        P6
  D:00F8H         PUBLIC        P7
  D:0008H         PUBLIC        Bda
  C:1080H         PUBLIC        _color1led
  D:0009H         PUBLIC        Gda
  D:00A8H         PUBLIC        IE
  C:0BCAH         PUBLIC        _shun6Wipe
  B:00B0H.5       PUBLIC        key_d
  C:10E0H         PUBLIC        _delay
  B:00B0H.7       PUBLIC        DO
  D:000AH         PUBLIC        Rda
  D:00B8H         PUBLIC        IP
  B:00B0H.4       PUBLIC        key_o
  D:000BH         PUBLIC        light
  B:00B0H.6       PUBLIC        key_u
  D:000CH         PUBLIC        wy_num
  D:00D8H         PUBLIC        CCON
  D:000EH         PUBLIC        times
  C:0D56H         PUBLIC        _allchange
  C:000EH         PUBLIC        main
  C:0F12H         PUBLIC        _send_data
  C:111BH         PUBLIC        colour_3
  C:0003H         PUBLIC        shun6led
  D:0098H         PUBLIC        SCON
  D:0089H         PUBLIC        TMOD
  D:0088H         PUBLIC        TCON
  C:0F6BH         PUBLIC        _SetPixelColor
  B:0090H.0       PUBLIC        led
  B:0090H.1       PUBLIC        yellow_led
  C:10FEH         PUBLIC        send_data_0
  C:109AH         PUBLIC        _colorWipe
  C:1137H         PUBLIC        send_data_1
BL51 BANKED LINKER/LOCATER V6.22                                                      07/24/2020  21:02:01  PAGE 5


  C:1167H         PUBLIC        initT0
  C:05AEH         PUBLIC        mode_init
  D:008EH         PUBLIC        AUXR
  D:0012H         PUBLIC        work_flag
  D:0013H         PUBLIC        mode_rgb
  C:117AH         PUBLIC        ni6led
  B:0090H.2       PUBLIC        write_led
  B:00A8H.1       PUBLIC        ET0
  D:0014H         PUBLIC        time_temp
  B:0088H.5       PUBLIC        TF0
  D:008CH         PUBLIC        TH0
  D:008AH         PUBLIC        TL0
  C:0E91H         PUBLIC        T0int
  D:0016H         PUBLIC        now_flag
  D:0020H         PUBLIC        LED_data
  D:0017H         PUBLIC        color_num
  B:0088H.4       PUBLIC        TR0
  B:00B0H.2       PUBLIC        key_2
  C:10B8H         PUBLIC        show_ws2812
  B:00B0H.3       PUBLIC        key_3
  C:0AE6H         PUBLIC        _Twocolor
  C:1021H         PUBLIC        Move_one_shun
  I:0031H         PUBLIC        buf_B
  I:0063H         PUBLIC        buf_G
  C:1152H         PUBLIC        clear_Buff
  I:0095H         PUBLIC        buf_R
  B:0020H.0       PUBLIC        bit0
  B:0020H.1       PUBLIC        bit1
  B:0020H.2       PUBLIC        bit2
  B:0020H.3       PUBLIC        bit3
  B:0020H.4       PUBLIC        bit4
  D:0018H         PUBLIC        PWM
  C:0FC8H         PUBLIC        Move_one_ni
  B:0020H.5       PUBLIC        bit5
  B:0020H.6       PUBLIC        bit6
  B:0020H.7       PUBLIC        bit7
  D:0019H         PUBLIC        mode_wy
  C:0938H         PUBLIC        _breath
  D:00D0H         PUBLIC        PSW
  C:10DCH         SYMBOL        L?0292
  -------         PROC          L?0291
  -------         ENDPROC       L?0291
  C:10DCH         SYMBOL        L?0292
  -------         PROC          _DELAY
  D:0006H         SYMBOL        n
  -------         DO            
  D:0004H         SYMBOL        i
  -------         ENDDO         
  C:10E0H         LINE#         46
  C:10E0H         LINE#         47
  C:10E0H         LINE#         49
  C:10EAH         LINE#         50
  C:10FDH         LINE#         51
  -------         ENDPROC       _DELAY
  -------         PROC          SEND_DATA_0
  C:10FEH         LINE#         54
  C:10FEH         LINE#         55
BL51 BANKED LINKER/LOCATER V6.22                                                      07/24/2020  21:02:01  PAGE 6


  C:10FEH         LINE#         56
  C:1100H         LINE#         57
  C:1105H         LINE#         58
  C:110AH         LINE#         59
  C:110CH         LINE#         60
  C:1113H         LINE#         61
  C:111AH         LINE#         62
  -------         ENDPROC       SEND_DATA_0
  -------         PROC          SEND_DATA_1
  C:1137H         LINE#         65
  C:1137H         LINE#         66
  C:1137H         LINE#         67
  C:1139H         LINE#         68
  C:113FH         LINE#         69
  C:1144H         LINE#         70
  C:114AH         LINE#         71
  C:114FH         LINE#         72
  C:1151H         LINE#         73
  -------         ENDPROC       SEND_DATA_1
  C:0F0EH         SYMBOL        L?0296
  -------         PROC          L?0295
  -------         ENDPROC       L?0295
  C:0F0EH         SYMBOL        L?0296
  -------         PROC          _SEND_DATA
  D:0007H         SYMBOL        DATA
  C:0F12H         LINE#         76
  C:0F12H         LINE#         77
  C:0F12H         LINE#         78
  C:0F14H         LINE#         79
  C:0F1FH         LINE#         80
  C:0F2AH         LINE#         81
  C:0F35H         LINE#         82
  C:0F40H         LINE#         83
  C:0F4BH         LINE#         84
  C:0F56H         LINE#         85
  C:0F61H         LINE#         86
  C:0F6AH         LINE#         87
  -------         ENDPROC       _SEND_DATA
  -------         PROC          SHOW_WS2812
  -------         DO            
  D:0004H         SYMBOL        i
  -------         ENDDO         
  C:10B8H         LINE#         89
  C:10B8H         LINE#         90
  C:10B8H         LINE#         92
  C:10BBH         LINE#         93
  C:10BBH         LINE#         94
  C:10C0H         LINE#         95
  C:10C5H         LINE#         96
  C:10CAH         LINE#         97
  C:10D5H         LINE#         98
  -------         ENDPROC       SHOW_WS2812
  -------         PROC          _SETPIXELCOLOR
  D:0003H         SYMBOL        num
  D:002DH         SYMBOL        c
  C:0F6BH         LINE#         100
  C:0F6DH         LINE#         101
BL51 BANKED LINKER/LOCATER V6.22                                                      07/24/2020  21:02:01  PAGE 7


  C:0F6DH         LINE#         102
  C:0F8FH         LINE#         103
  C:0FB1H         LINE#         104
  C:0FC7H         LINE#         105
  -------         ENDPROC       _SETPIXELCOLOR
  -------         PROC          CLEAR_BUFF
  -------         DO            
  D:0002H         SYMBOL        i
  -------         ENDDO         
  C:1152H         LINE#         106
  C:1152H         LINE#         107
  C:1152H         LINE#         108
  C:1154H         LINE#         109
  C:1154H         LINE#         110
  C:1166H         LINE#         111
  -------         ENDPROC       CLEAR_BUFF
  C:108FH         SYMBOL        L?0294
  -------         PROC          L?0293
  -------         ENDPROC       L?0293
  C:108FH         SYMBOL        L?0294
  -------         PROC          _COLORWIPE
  D:0001H         SYMBOL        num
  D:0026H         SYMBOL        c
  -------         DO            
  D:0002H         SYMBOL        i
  -------         ENDDO         
  C:109AH         LINE#         112
  C:109CH         LINE#         113
  C:109CH         LINE#         114
  C:109EH         LINE#         115
  C:10A3H         LINE#         116
  C:10A3H         LINE#         117
  C:10B4H         LINE#         118
  C:10B7H         LINE#         119
  -------         ENDPROC       _COLORWIPE
  C:1064H         SYMBOL        L?0290
  -------         PROC          L?0289
  -------         ENDPROC       L?0289
  C:1064H         SYMBOL        L?0290
  -------         PROC          _COLOR1LED
  D:0007H         SYMBOL        num
  D:0028H         SYMBOL        c
  C:1080H         LINE#         120
  C:1080H         LINE#         121
  C:1080H         LINE#         122
  -------         ENDPROC       _COLOR1LED
  -------         PROC          MOVE_ONE_NI
  -------         DO            
  D:0006H         SYMBOL        i
  D:0023H         SYMBOL        R
  D:0001H         SYMBOL        G
  D:0007H         SYMBOL        B
  -------         ENDDO         
  C:0FC8H         LINE#         124
  C:0FC8H         LINE#         130
  C:0FCDH         LINE#         131
  C:0FD1H         LINE#         132
BL51 BANKED LINKER/LOCATER V6.22                                                      07/24/2020  21:02:01  PAGE 8


  C:0FD5H         LINE#         134
  C:0FD7H         LINE#         135
  C:0FD7H         LINE#         136
  C:0FEAH         LINE#         137
  C:0FFDH         LINE#         138
  C:1010H         LINE#         139
  C:1014H         LINE#         140
  C:1018H         LINE#         141
  C:101CH         LINE#         142
  C:1020H         LINE#         143
  -------         ENDPROC       MOVE_ONE_NI
  -------         PROC          MOVE_ONE_SHUN
  -------         DO            
  D:0004H         SYMBOL        i
  D:0007H         SYMBOL        R
  D:0006H         SYMBOL        G
  D:0005H         SYMBOL        B
  -------         ENDDO         
  C:1021H         LINE#         144
  C:1021H         LINE#         150
  C:1025H         LINE#         151
  C:1029H         LINE#         152
  C:102DH         LINE#         154
  C:102FH         LINE#         155
  C:102FH         LINE#         156
  C:103BH         LINE#         157
  C:1047H         LINE#         158
  C:1053H         LINE#         159
  C:1057H         LINE#         160
  C:105BH         LINE#         161
  C:105FH         LINE#         162
  C:1063H         LINE#         163
  -------         ENDPROC       MOVE_ONE_SHUN
  -------         PROC          INITT0
  C:1167H         LINE#         166
  C:1167H         LINE#         167
  C:116AH         LINE#         168
  C:116DH         LINE#         169
  C:1170H         LINE#         170
  C:1173H         LINE#         171
  C:1175H         LINE#         172
  C:1177H         LINE#         174
  C:1179H         LINE#         175
  -------         ENDPROC       INITT0
  -------         PROC          _ALLCHANGE
  D:0004H         SYMBOL        i
  -------         DO            
  D:0003H         SYMBOL        j
  -------         ENDDO         
  C:0D56H         LINE#         176
  C:0D5AH         LINE#         179
  C:0D63H         LINE#         180
  C:0D65H         LINE#         181
  C:0D6BH         LINE#         182
  C:0D6DH         LINE#         183
  C:0D73H         LINE#         184
  C:0D79H         LINE#         185
BL51 BANKED LINKER/LOCATER V6.22                                                      07/24/2020  21:02:01  PAGE 9


  C:0D7FH         LINE#         186
  C:0D83H         LINE#         187
  C:0D83H         LINE#         189
  C:0D94H         LINE#         190
  C:0D9DH         LINE#         191
  C:0D9FH         LINE#         192
  C:0DA7H         LINE#         193
  C:0DA9H         LINE#         194
  C:0DAFH         LINE#         195
  C:0DB5H         LINE#         196
  C:0DBBH         LINE#         197
  C:0DBFH         LINE#         198
  C:0DBFH         LINE#         200
  C:0DD0H         LINE#         201
  C:0DDFH         LINE#         202
  C:0DE1H         LINE#         203
  C:0DE9H         LINE#         204
  C:0DEBH         LINE#         205
  C:0DF1H         LINE#         206
  C:0DF7H         LINE#         207
  C:0DFDH         LINE#         208
  C:0E01H         LINE#         209
  C:0E04H         LINE#         210
  C:0E04H         LINE#         212
  -------         ENDPROC       _ALLCHANGE
  -------         PROC          SHUN6LED
  C:0003H         LINE#         215
  C:0003H         LINE#         216
  C:0006H         LINE#         217
  -------         ENDPROC       SHUN6LED
  -------         PROC          NI6LED
  C:117AH         LINE#         219
  C:117AH         LINE#         220
  C:117DH         LINE#         221
  -------         ENDPROC       NI6LED
  -------         PROC          _SHUN6WIPE
  D:0023H         SYMBOL        i
  C:0BCAH         LINE#         223
  C:0BCEH         LINE#         224
  C:0BD9H         LINE#         225
  C:0BDEH         LINE#         226
  C:0BDEH         LINE#         227
  C:0BECH         LINE#         228
  C:0BF8H         LINE#         229
  C:0BFFH         LINE#         230
  C:0BFFH         LINE#         231
  C:0C0CH         LINE#         232
  C:0C18H         LINE#         233
  C:0C1FH         LINE#         234
  C:0C1FH         LINE#         235
  C:0C2CH         LINE#         236
  C:0C38H         LINE#         237
  C:0C3FH         LINE#         238
  C:0C3FH         LINE#         239
  C:0C4CH         LINE#         240
  C:0C58H         LINE#         241
  C:0C5FH         LINE#         242
BL51 BANKED LINKER/LOCATER V6.22                                                      07/24/2020  21:02:01  PAGE 10


  C:0C5FH         LINE#         243
  C:0C6CH         LINE#         244
  C:0C78H         LINE#         245
  C:0C8FH         LINE#         246
  C:0C92H         LINE#         247
  C:0C92H         LINE#         248
  -------         ENDPROC       _SHUN6WIPE
  -------         PROC          _BREATH
  D:0006H         SYMBOL        j
  -------         DO            
  D:0023H         SYMBOL        i
  -------         ENDDO         
  C:0938H         LINE#         249
  C:0938H         LINE#         253
  C:0949H         LINE#         254
  C:0949H         LINE#         255
  C:096FH         LINE#         256
  C:0981H         LINE#         257
  C:098FH         LINE#         258
  C:09A1H         LINE#         260
  C:09B5H         LINE#         261
  C:09C9H         LINE#         262
  C:09E1H         LINE#         263
  C:09F7H         LINE#         264
  C:09F7H         LINE#         265
  C:09F7H         LINE#         267
  C:0A0BH         LINE#         268
  C:0A17H         LINE#         269
  C:0A1FH         LINE#         270
  C:0A24H         LINE#         271
  C:0A24H         LINE#         272
  C:0A4AH         LINE#         273
  C:0A5CH         LINE#         274
  C:0A6AH         LINE#         275
  C:0A7CH         LINE#         277
  C:0A90H         LINE#         278
  C:0AA4H         LINE#         279
  C:0ABCH         LINE#         280
  C:0AD2H         LINE#         281
  C:0AD2H         LINE#         282
  C:0AD2H         LINE#         284
  C:0AE3H         LINE#         285
  C:0AE3H         LINE#         286
  -------         ENDPROC       _BREATH
  -------         PROC          _TWOCOLOR
  D:0023H         SYMBOL        a
  -------         DO            
  D:0025H         SYMBOL        j
  -------         ENDDO         
  C:0AE6H         LINE#         288
  C:0AEAH         LINE#         290
  C:0AEFH         LINE#         291
  C:0B19H         LINE#         292
  C:0B46H         LINE#         293
  C:0B57H         LINE#         294
  C:0B5CH         LINE#         295
  C:0B89H         LINE#         296
BL51 BANKED LINKER/LOCATER V6.22                                                      07/24/2020  21:02:01  PAGE 11


  C:0BB6H         LINE#         297
  C:0BC7H         LINE#         298
  -------         ENDPROC       _TWOCOLOR
  -------         PROC          MODE_INIT
  -------         DO            
  D:0023H         SYMBOL        i
  -------         ENDDO         
  C:05AEH         LINE#         312
  C:05AEH         LINE#         314
  C:05B7H         LINE#         317
  C:05BCH         LINE#         318
  C:05EDH         LINE#         319
  C:05EDH         LINE#         320
  C:05F2H         LINE#         321
  C:05F5H         LINE#         322
  C:05F5H         LINE#         323
  C:05FEH         LINE#         324
  C:0601H         LINE#         325
  C:060AH         LINE#         326
  C:060AH         LINE#         327
  C:061DH         LINE#         328
  C:0624H         LINE#         329
  C:062BH         LINE#         330
  C:062FH         LINE#         331
  C:0639H         LINE#         332
  C:0639H         LINE#         333
  C:0640H         LINE#         334
  C:0653H         LINE#         335
  C:065AH         LINE#         336
  C:065EH         LINE#         337
  C:066BH         LINE#         338
  C:066BH         LINE#         339
  C:0679H         LINE#         340
  C:0680H         LINE#         341
  C:068CH         LINE#         342
  C:0690H         LINE#         343
  C:0690H         LINE#         344
  C:0696H         LINE#         345
  C:06A0H         LINE#         346
  C:06A3H         LINE#         347
  C:06A6H         LINE#         348
  C:06A9H         LINE#         349
  C:06C1H         LINE#         350
  C:06D9H         LINE#         351
  C:06F1H         LINE#         352
  C:06F8H         LINE#         353
  C:06F8H         LINE#         354
  C:0701H         LINE#         355
  C:070BH         LINE#         356
  C:070EH         LINE#         357
  C:072DH         LINE#         358
  C:0730H         LINE#         359
  C:074CH         LINE#         360
  C:0763H         LINE#         361
  C:077EH         LINE#         362
  C:0785H         LINE#         363
  C:0785H         LINE#         364
BL51 BANKED LINKER/LOCATER V6.22                                                      07/24/2020  21:02:01  PAGE 12


  -------         ENDPROC       MODE_INIT
  -------         PROC          MAIN
  -------         DO            
  D:0021H         SYMBOL        i
  D:0022H         SYMBOL        j
  -------         ENDDO         
  C:000EH         LINE#         366
  C:000EH         LINE#         367
  C:000EH         LINE#         371
  C:0015H         LINE#         372
  C:0018H         LINE#         373
  C:001BH         LINE#         374
  C:001EH         LINE#         375
  C:0021H         LINE#         376
  C:0027H         LINE#         378
  C:0029H         LINE#         379
  C:002BH         LINE#         380
  C:002DH         LINE#         381
  C:002FH         LINE#         382
  C:0031H         LINE#         383
  C:0033H         LINE#         384
  C:0035H         LINE#         385
  C:0037H         LINE#         387
  C:0037H         LINE#         388
  C:0037H         LINE#         389
  C:004CH         LINE#         390
  C:006AH         LINE#         393
  C:006DH         LINE#         394
  C:0070H         LINE#         395
  C:0073H         LINE#         396
  C:007CH         LINE#         397
  C:0082H         LINE#         398
  C:0085H         LINE#         399
  C:0087H         LINE#         400
  C:008EH         LINE#         401
  C:0093H         LINE#         402
  C:0096H         LINE#         404
  C:0096H         LINE#         408
  C:0098H         LINE#         409
  C:0098H         LINE#         410
  C:009AH         LINE#         411
  C:009CH         LINE#         412
  C:009FH         LINE#         413
  C:00A2H         LINE#         415
  C:00A4H         LINE#         416
  C:00A6H         LINE#         417
  C:00A6H         LINE#         418
  C:00A9H         LINE#         419
  C:00ACH         LINE#         420
  C:00ACH         LINE#         421
  C:00ACH         LINE#         423
  C:00B2H         LINE#         424
  C:00B5H         LINE#         425
  C:00BBH         LINE#         426
  C:00BEH         LINE#         428
  C:00C3H         LINE#         429
  C:00C5H         LINE#         430
BL51 BANKED LINKER/LOCATER V6.22                                                      07/24/2020  21:02:01  PAGE 13


  C:00CFH         LINE#         431
  C:00D1H         LINE#         432
  C:00D1H         LINE#         433
  C:00D4H         LINE#         434
  C:00D7H         LINE#         435
  C:00DAH         LINE#         436
  C:00DAH         LINE#         437
  C:00DCH         LINE#         439
  C:00DFH         LINE#         440
  C:00E2H         LINE#         441
  C:00E2H         LINE#         442
  C:00E2H         LINE#         443
  C:00E5H         LINE#         444
  C:00E8H         LINE#         445
  C:00EBH         LINE#         447
  C:00F0H         LINE#         448
  C:00F2H         LINE#         449
  C:00FCH         LINE#         451
  C:00FEH         LINE#         452
  C:00FEH         LINE#         453
  C:0101H         LINE#         454
  C:0103H         LINE#         455
  C:0105H         LINE#         456
  C:0105H         LINE#         457
  C:0107H         LINE#         458
  C:010AH         LINE#         459
  C:010DH         LINE#         460
  C:0110H         LINE#         461
  C:0110H         LINE#         462
  C:0110H         LINE#         464
  C:0116H         LINE#         465
  C:0119H         LINE#         466
  C:011FH         LINE#         468
  C:0124H         LINE#         469
  C:012CH         LINE#         470
  C:013BH         LINE#         471
  C:013BH         LINE#         472
  C:0144H         LINE#         473
  C:0146H         LINE#         474
  C:0150H         LINE#         475
  C:0156H         LINE#         476
  C:015EH         LINE#         478
  C:0164H         LINE#         479
  C:016EH         LINE#         480
  C:0171H         LINE#         481
  C:0174H         LINE#         482
  C:0177H         LINE#         483
  C:018FH         LINE#         484
  C:01A7H         LINE#         485
  C:01BFH         LINE#         486
  C:01C6H         LINE#         487
  C:01C6H         LINE#         488
  C:01CFH         LINE#         489
  C:01D9H         LINE#         490
  C:01DCH         LINE#         491
  C:01FBH         LINE#         492
  C:01FEH         LINE#         493
BL51 BANKED LINKER/LOCATER V6.22                                                      07/24/2020  21:02:01  PAGE 14


  C:021AH         LINE#         494
  C:0231H         LINE#         495
  C:024CH         LINE#         496
  C:0253H         LINE#         497
  C:0253H         LINE#         498
  C:0253H         LINE#         500
  C:0256H         LINE#         501
  C:0259H         LINE#         502
  C:0259H         LINE#         503
  C:0259H         LINE#         505
  C:025FH         LINE#         506
  C:0262H         LINE#         507
  C:0268H         LINE#         509
  C:026DH         LINE#         510
  C:0275H         LINE#         511
  C:0286H         LINE#         512
  C:0286H         LINE#         513
  C:028FH         LINE#         514
  C:029BH         LINE#         515
  C:029DH         LINE#         516
  C:02A3H         LINE#         517
  C:02ABH         LINE#         519
  C:02B1H         LINE#         520
  C:02BBH         LINE#         521
  C:02BEH         LINE#         522
  C:02C1H         LINE#         523
  C:02C4H         LINE#         524
  C:02DCH         LINE#         525
  C:02F4H         LINE#         526
  C:030CH         LINE#         527
  C:0313H         LINE#         528
  C:0313H         LINE#         529
  C:031CH         LINE#         530
  C:0326H         LINE#         531
  C:0329H         LINE#         532
  C:0348H         LINE#         533
  C:034BH         LINE#         534
  C:0367H         LINE#         535
  C:037EH         LINE#         536
  C:0399H         LINE#         537
  C:03A0H         LINE#         538
  C:03A0H         LINE#         540
  C:03A0H         LINE#         542
  C:03A3H         LINE#         543
  C:03A6H         LINE#         544
  C:03A6H         LINE#         545
  C:03A6H         LINE#         551
  C:03AFH         LINE#         552
  C:03FBH         LINE#         553
  C:0400H         LINE#         554
  C:0405H         LINE#         555
  C:040AH         LINE#         556
  C:040FH         LINE#         557
  C:0414H         LINE#         558
  C:0419H         LINE#         559
  C:045CH         LINE#         560
  C:04B4H         LINE#         561
BL51 BANKED LINKER/LOCATER V6.22                                                      07/24/2020  21:02:01  PAGE 15


  C:04ECH         LINE#         562
  C:0514H         LINE#         563
  C:053FH         LINE#         564
  C:0557H         LINE#         565
  C:056FH         LINE#         566
  C:0592H         LINE#         567
  C:0597H         LINE#         568
  C:059DH         LINE#         569
  C:05A4H         LINE#         571
  C:05A4H         LINE#         572
  C:05A4H         LINE#         575
  C:05A4H         LINE#         576
  C:05ABH         LINE#         584
  C:05ABH         LINE#         594
  -------         ENDPROC       MAIN
  -------         PROC          T0INT
  C:0E91H         LINE#         596
  C:0E95H         LINE#         598
  C:0E98H         LINE#         599
  C:0E9BH         LINE#         600
  C:0EA3H         LINE#         601
  C:0EB2H         LINE#         603
  C:0EB7H         LINE#         604
  C:0EC6H         LINE#         605
  C:0EC8H         LINE#         607
  C:0ECAH         LINE#         608
  C:0ECAH         LINE#         609
  C:0ECFH         LINE#         610
  C:0EDEH         LINE#         611
  C:0EE0H         LINE#         613
  C:0EE2H         LINE#         614
  C:0EE2H         LINE#         615
  C:0EE7H         LINE#         616
  C:0EF6H         LINE#         617
  C:0EF8H         LINE#         618
  C:0F07H         LINE#         619
  C:0F09H         LINE#         620
  C:0F09H         LINE#         621
  -------         ENDPROC       T0INT
  -------         ENDMOD        MAIN

  -------         MODULE        ?C?UIDIV
  C:0786H         PUBLIC        ?C?UIDIV
  -------         ENDMOD        ?C?UIDIV

  -------         MODULE        ?C?LMUL
  C:07DBH         PUBLIC        ?C?LMUL
  -------         ENDMOD        ?C?LMUL

  -------         MODULE        ?C?ULDIV
  C:0866H         PUBLIC        ?C?ULDIV
  -------         ENDMOD        ?C?ULDIV

  -------         MODULE        ?C?ULCMP
  C:08F8H         PUBLIC        ?C?ULCMP
  -------         ENDMOD        ?C?ULCMP

BL51 BANKED LINKER/LOCATER V6.22                                                      07/24/2020  21:02:01  PAGE 16


  -------         MODULE        ?C?ULSHR
  C:0909H         PUBLIC        ?C?ULSHR
  -------         ENDMOD        ?C?ULSHR

  -------         MODULE        ?C?LLDCODE
  C:091CH         PUBLIC        ?C?LLDCODE
  -------         ENDMOD        ?C?LLDCODE

  -------         MODULE        ?C?OFFXADD
  C:092CH         PUBLIC        ?C?OFFXADD
  -------         ENDMOD        ?C?OFFXADD

Program Size: data=194.0 xdata=0 code=4478
LINK/LOCATE RUN COMPLETE.  0 WARNING(S),  0 ERROR(S)
