:03000000020E05E8
:0C0E0500787FE4F6D8FD7581C6020E4C23
:10111B0000FF00000000FF00000000FF00FFFF00C9
:0C112B000000FFFF00FF00FF00FFFFFFBF
:100C93000118FF2032950000000000000000000052
:100CA3000000000000000000000000000000000041
:100CB3000000000000000000000000000000000031
:100CC300000000000000000020326300000000006C
:100CD3000000000000000000000000000000000011
:100CE3000000000000000000000000000000000001
:100CF300000000000000000000000000002032316E
:100D030000000000000000000000000000000000E0
:100D130000000000000000000000000000000000D0
:100D230000000000000000000000000000000000C0
:100D33000000010B6401170002140000020C000301
:100D4300011301011901011200011602040E000032
:020D530000009E
:0410DC007F147E00FF
:1010E000EF1FAA0670011E4A6013E4FCFDC3ED94D5
:0D10F0005CEC940350EA0DBD00010C80F093
:0110FD0022D0
:1010FE00D2B700000000000000000000C2B70000E0
:0D110E0000000000000000000000000022B2
:10113700D2B700000000000000000000000000001F
:0B1147000000000000000000C2B72202
:040F0E002DF8E6FFD5
:100F12008F2030070512113780031210FE300605AC
:100F220012113780031210FE3005051211378003AB
:100F32001210FE30040512113780031210FE300326
:100F42000512113780031210FE300205121137808C
:100F5200031210FE30010512113780031210FE3009
:090F620000030211371210FE22F7
:1010B800E4FDFC7463120F0E7495120F0E74311256
:1010C8000F0E0DBD00010CED64324C70E67F147EEE
:0410D800000210E022
:100F6B00AB07AF30AE2FAD2EAC2D7810120909EFB9
:100F7B00850BF0A4FFAEF07C007D641207867495A0
:100F8B002BF8A607AF30AE2FAD2EAC2D780812097B
:100F9B0009EF850BF0A4FFAEF07C007D6412078691
:100FAB0074632BF8A607E530850BF0A4FFAEF07C3D
:0D0FBB00007D6412078674312BF8A6072212
:10115200E4FAAF02E4F530F52FF52EF52D120F6B00
:041162000ABA32EEA5
:011166002266
:0B108F00E4F529F528F527F5267F324F
:02109A00A907A4
:10109C00E4FAEAC3995014AF0285293085282F85CC
:0B10AC00272E85262D120F6B0A80E70F
:0110B7002216
:10106400E51725E025E0241BF582E43411F583120D
:0C107400091C8F2B8E2A8D298C287F0AE6
:0F108000852B30852A2F85292E85282D020F6B71
:100FC80078C6E6F5237894E6F97862E6FFE4FEEE63
:100FD800FDC374329DFD74932DF8E6FB74942DF8CF
:100FE800A603EEFDC374329DFD74612DF8E6FB7413
:100FF800622DF8A603EEFDC374329DFD742F2DF803
:10100800E6FB74302DF8A6030EBE31C37895A623EF
:081018007863A6017831A607F8
:0110200022AD
:101021007895E6FF7863E6FE7831E6FDE4FC749698
:101031002CF8E6FB74952CF8A60374642CF8E6FBF7
:1010410074632CF8A60374322CF8E6FB74312CF887
:10105100A6030CBC31D878C6A6077894A606786298
:02106100A605E2
:01106300226A
:10116700438E807589F0758CFFE4F58AC28DD2AF06
:03117700D28C22F5
:040D5600AD07AC0633
:100D5A00D3ED9518EC940050228D09C3E5189FF540
:100D6A000AE4FB74952BF8A60A74632BF8A6097497
:100D7A00312BF8E4F60BBB32EA807CE51875F002F9
:100D8A00A4FFD3ED9FEC95F0502DC3ED9518FDEC23
:100D9A009400FC8D08AF05C3E5189FF509E4FB74C0
:100DAA00312BF8A60874632BF8A60974952BF8E47E
:100DBA00F60BBB32EA8040E51875F003A4FFD3EDC9
:100DCA009FEC95F05034E51875F002A4FFC3ED9F2F
:100DDA00FDEC95F0FC8D0AAF05C3E5189FF508E414
:100DEA00FB74312BF8A60874952BF8A60A74632BAA
:0A0DFA00F8E4F60BBB32EA1210B861
:010E040022CB
:060003001210B8021021EA
:06117A001210B8020FC8BC
:100BCA008E238F24D3E5249432E52394005008C061
:100BDA000790111B020C7FD3E5249464E52394004B
:100BEA00501574CE2524F52474FF3523F523AF243C
:100BFA00C00790111F807ED3E5249496E5239400C4
:100C0A005015749C2524F52474FF3523F523AF244D
:100C1A00C007901123805ED3E52494C8E52394008D
:100C2A005015746A2524F52474FF3523F523AF245F
:100C3A00C007901127803ED3E52494FAE523940057
:100C4A00501574382524F52474FF3523F523AF2471
:100C5A00C00790112B801ED3E524942CE523940120
:100C6A00502674062524F52474FF3523F523AF2472
:100C7A00C00790112F12091C8F298E288D278C26C8
:090C8A00D00712109A1210B822D2
:10093800D3EF9464EE94004003020A0BE4F523F528
:1009480024E517B4070040030209F790095AF8286C
:10095800287302096F02098102098F0209A102099D
:10096800B50209C90209E1AD07AC2474952CF8A6B3
:100978000574312CF8E4F68058AD07AC2474632C68
:10098800F8A6057431800CAD07AC2474312CF8A698
:100998000574632CF8E4F68024AD07AC2474632C4A
:1009A800F8EDF674952CF8A60574318026AD07ACE1
:1009B8002474632CF8EDF674312CF8A60574958030
:1009C80012AD07AC2474312CF8EDF674952CF8A60A
:1009D8000574632CF8E4F68016AD07AC2474312C4A
:1009E800F8EDF674632CF8EDF674952CF8A6050569
:1009F80024E5247002052364324523600302094973
:100A0800020AE3D3EF94C8EE94004003020AE3C35A
:100A180074C89FFFE49EFEE4F523F524E517B407A8
:100A2800004003020AD2900A35F8282873020A4ABD
:100A3800020A5C020A6A020A7C020A90020AA402FA
:100A48000ABCAD07AC2474952CF8A60574312CF8B3
:100A5800E4F68058AD07AC2474632CF8A60574310D
:100A6800800CAD07AC2474312CF8A60574632CF8FF
:100A7800E4F68024AD07AC2474632CF8EDF6749585
:100A88002CF8A60574318026AD07AC2474632CF8C5
:100A9800EDF674312CF8A60574958012AD07AC24D8
:100AA80074312CF8EDF674952CF8A60574632CF8BF
:100AB800E4F68016AD07AC2474312CF8EDF67463B7
:100AC8002CF8EDF674952CF8A6050524E52470029B
:0E0AD8000523643245236003020A240210B88D
:040AE6008E238F24A8
:100AEA00E4F525F526AF26C007E524AE237802C330
:100AFA0033CE33CED8F9241BF58274113EF5831216
:100B0A00091C8F2B8E2A8D298C28D007121080E57C
:100B1A00262419FFC007E524AE237802C333CE3357
:100B2A00CED8F9241BF58274113EF58312091C8F65
:100B3A002B8E2A8D298C28D0071210800526E526AF
:100B4A0070020525C3940CE52594004098E4F52528
:100B5A00F526E526240CFFC007E524AE237802C358
:100B6A0033CE33CED8F9241FF58274113EF58312A1
:100B7A00091C8F2B8E2A8D298C28D007121080E50C
:100B8A00262425FFC007E524AE237802C333CE33DB
:100B9A00CED8F9241FF58274113EF58312091C8FF1
:100BAA002B8E2A8D298C28D0071210800526E5263F
:100BBA0070020525C3940DE525940040950210B8EE
:1005AE00E4F511F510F50FF50EE513B40931E4F588
:1005BE0023E52375F00684E5F025E025E0241BF500
:1005CE0082E43411F58312091C8F2B8E2A8D298C0F
:1005DE0028AF231210800523E523C3943240D2E5C1
:1005EE0013B40A0312108FE513640B600302069016
:1005FE00751811F523E523C395185025E52375F0DD
:10060E0006A4FFC374669FFE74952523F8A6067490
:10061E00632523F8A60774312523F8E4F605238015
:10062E00D4E4F523E523C39518502574A62523F8A5
:10063E00E4F6E52375F006A4FFC374669FFE74749A
:10064E002523F8A60674422523F8A607052380D491
:10065E00E4F523E51814FFE523C39F5025E5237524
:10066E00F006A4FF74B72523F8A60774852523F892
:10067E00E4F6C374669FFF74532523F8A60705237B
:10068E0080D1E513640C7062E50BC3943C50037586
:10069E000B3C121152121064E4F523789FE6852369
:1006AE00F0A4FFAEF07C007D0A1207867495252318
:1006BE00F8A607786DE68523F0A4FFAEF07C007DEA
:1006CE000A12078674632523F8A607783BE685236E
:1006DE00F0A4FFAEF07C007D0A120786743125234C
:1006EE00F8A6070523E523B40AB1E513640D6003EC
:1006FE00020785E50BC3943C5003750B3C12115257
:10070E00E51725E025E0241BF582E43411F583126C
:10071E00091C8F2B8E2A8D298C287F27121080E49E
:10072E00F52378BCE68523F0A4FFAEF07C007D0AAD
:10073E00120786C374319523FB2495F8A607788A91
:10074E00E68523F0A4FFAEF07C007D0A12078674C6
:10075E00632BF8A6077858E68523F0A4FFAEF07C4D
:10076E00007D0A120786C3743195232431F8A6073B
:07077E000523E523B40AABDB
:010785002251
:10000E007FC87E001210E0121152121167750B0A92
:10001E001210DC759207E4F591D2B6D2B5D2B4D2F5
:10002E00B3D2B2C290C291C292E5112401F511E48D
:10003E003510F510E4350FF50FE4350EF50E7F8013
:10004E007E8D7D5B7C00AB11AA10A90FF8C3120840
:10005E00F84009E4F511F510F50FF50E20B43F1236
:10006E0010DC20B439E4F511F510F50FF50EC304CC
:10007E009512F512B40113D290E516B40202D2A96C
:10008E00E516B403131205AE800EC290C2A912106B
:10009E008F1210B8C291C29230B4FD1210DCE5126C
:1000AE006401708520B22D7F14FE1210E020B22460
:1000BE00E516B4020E0519E519C39404400E751920
:1000CE0001800975160212108F1210B8D2A930B223
:1000DE00FD1210DC20B32B1210DC20B325E516B474
:1000EE00030E0513E513D39411400C75130180070D
:1000FE00751603C291C292C2A91205AE30B3FD129B
:10010E0010DC30B6030202591210DC30B6030202C4
:10011E0059E516B40217050DE50D7002050CC394D2
:10012E000FE50C94004006750C00750D0FE5166476
:10013E000360030202530517E517D394064003E448
:10014E00F5177407250BF50BD394644003750B64F8
:10015E00E513640C7062E50BC3943C5003750B3CC5
:10016E00121152121064E4F521789FE68521F0A455
:10017E00FFAEF07C007D0A12078674952521F8A645
:10018E0007786DE68521F0A4FFAEF07C007D0A12A3
:10019E00078674632521F8A607783BE68521F0A42F
:1001AE00FFAEF07C007D0A12078674312521F8A679
:1001BE00070521E521B40AB1E513640D60030202BF
:1001CE0053E50BC3943C5003750B3C121152E517CB
:1001DE0025E025E0241BF582E43411F58312091C79
:1001EE008F2B8E2A8D298C287F27121080E4F521E3
:1001FE0078BCE68521F0A4FFAEF07C007D0A1207E4
:10020E0086C374319521FB2495F8A607788AE68576
:10021E0021F0A4FFAEF07C007D0A12078674632BDA
:10022E00F8A6077858E68521F0A4FFAEF07C007D95
:10023E000A120786C3743195212431F8A6070521C9
:10024E00E521B40AAB30B6FD1210DC30B503020363
:10025E00A61210DC30B5030203A6E516B40219E5AA
:10026E000D150D7002150CD3E50D9401E50C9400DF
:10027E005006750C00750D02E5166403600302034B
:10028E00A0E517D394005005751706800215177454
:10029E00F9250BF50BD394075003750B07E5136483
:1002AE000C7062E50BC3943C5003750B3C1211525B
:1002BE00121064E4F521789FE68521F0A4FFAEF0DC
:1002CE007C007D0A12078674952521F8A607786DA5
:1002DE00E68521F0A4FFAEF07C007D0A120786743D
:1002EE00632521F8A607783BE68521F0A4FFAEF042
:1002FE007C007D0A12078674312521F8A607052198
:10030E00E521B40AB1E513640D60030203A0E50B09
:10031E00C3943C5003750B3C121152E51725E02592
:10032E00E0241BF582E43411F58312091C8F2B8E09
:10033E002A8D298C287F27121080E4F52178BCE6BF
:10034E008521F0A4FFAEF07C007D0A120786C374EF
:10035E00319521FB2495F8A607788AE68521F0A42D
:10036E00FFAEF07C007D0A12078674632BF8A60799
:10037E007858E68521F0A4FFAEF07C007D0A1207C6
:10038E0086C3743195212431F8A6070521E521B4E1
:10039E000AAB30B5FD1210DCE516640360030205EE
:1003AE00A4E51314B4110040030205A49003C8750C
:1003BE00F003A4C58325F0C583730203FB0204007A
:1003CE0002040502040A02040F02041402041902B4
:1003DE00045C0204B40204EC02051402053F02059B
:1003EE005702056F02059202059702059D90111B9B
:1003FE00804690111F8041901123803C90112780E0
:10040E003790112B803290112F802DE47B64FAF9F6
:10041E00F8AF11AE10AD0FAC0E120866E47B06FA03
:10042E00F9F812086690111B75F004EB12092CEA0C
:10043E0025E025E02583F58312091C8F298E288D52
:10044E00278C267F3212109A1210B80205A4E50BE3
:10045E0075F0FAA4FFAEF07C007D641207868F184B
:10046E00E47F02FEFDFCAB11AA10A90FA80E120725
:10047E00DBC0077464850BF084FBE4FAF9F8D0074F
:10048E00120866C006C007E51875F003A4AEF0FBAF
:10049E00AA06E4F9F8D007D006120866AE02AF033A
:1004AE00120D560205A4E50B75F00784FFC37410F8
:1004BE009FFFE49400AB07FAE4F9F8AF11AE10AD6C
:1004CE000FAC0E120866AC00AD01AE02AF03E4FB3A
:1004DE00FAF9F8C31208F860030205A4807EE47BE3
:1004EE0008FAF9F8AF11AE10AD0FAC0E120866E4B3
:1004FE007B2C7A01F9F8120866EB2401FFE43AFE30
:10050E00120BCA0205A47464850BF084FBE4FAF99D
:10051E00F8AF11AE10AD0FAC0E120866AC00AD0107
:10052E00AE02AF03E4FBFAF9F8C31208F870678065
:10053E002BE5115407FFE4FEFDFCFBFAF9F8C3129C
:10054E0008F8705212117A804DE5115407FFE4FE3F
:10055E00FDFCFBFAF9F8C31208F8703A120003809A
:10056E0035E47B02FAF9F8AF11AE10AD0FAC0E12F6
:10057E000866E47BC8FAF9F8120866AE02AF0312F9
:10058E0009388012E4FFFE800A7F027E0080047F1D
:10059E00047E00120AE67F1E7E001210E002003773
:03000B00020E9151
:100E9100C0E0C0D0758CFF758A000515E51570029C
:100EA1000514D3940FE514940040067514007515CC
:100EB10001E519B40113C3E515950DE514950C4031
:100EC10004C2928002D292C291E519B40213C3E521
:100ED10015950DE514950C4004C2918002D291C282
:100EE10092E519B40322C3E515950DE514950C405F
:100EF10004C2928002D292C3E515950DE514950CBA
:0D0F01004004C2918002D291D0D0D0E032E5
:100E110002000EE493A3F8E493A34003F68001F2E9
:100E210008DFF48029E493A3F85407240CC8C333E2
:100E3100C4540F4420C8834004F456800146F6DFB1
:100E4100E4800B0102040810204080900C93E47EA2
:100E5100019360BCA3FF543F30E509541FFEE493A6
:100E6100A360010ECF54C025E060A840B8E493A36D
:100E7100FAE493A3F8E493A3C8C582C8CAC583CA98
:100E8100F0A3C8C582C8CAC583CADFE9DEE780BE50
:010D5500009D
:10078600BC000BBE0029EF8DF084FFADF022E4CC57
:10079600F875F008EF2FFFEE33FEEC33FCEE9DEC20
:1007A600984005FCEE9DFE0FD5F0E9E4CEFD22ED66
:1007B600F8F5F0EE8420D21CFEADF075F008EF2FB0
:1007C600FFED33FD4007985006D5F0F222C398FDA1
:0507D6000FD5F0EA223E
:1007DB00E88FF0A4CC8BF0A42CFCE98EF0A42CFCBD
:1007EB008AF0EDA42CFCEA8EF0A4CDA8F08BF0A43B
:1007FB002DCC3825F0FDE98FF0A42CCD35F0FCEB9A
:10080B008EF0A4FEA9F0EB8FF0A4CFC5F02ECD395E
:0F081B00FEE43CFCEAA42DCE35F0FDE43CFC22CB
:10082A0075F008758200EF2FFFEE33FECD33CDCC85
:10083A0033CCC58233C5829BED9AEC99E582984008
:10084A000CF582EE9BFEED9AFDEC99FC0FD5F0D6E5
:10085A00E4CEFBE4CDFAE4CCF9A88222B800C1B90F
:10086A000059BA002DEC8BF084CFCECDFCE5F0CB4D
:10087A00F97818EF2FFFEE33FEED33FDEC33FCEB86
:10088A0033FB10D703994004EB99FB0FD8E5E4F941
:10089A00FA227818EF2FFFEE33FEED33FDEC33FC2E
:1008AA00C933C910D7059BE99A4007EC9BFCE99A22
:1008BA00F90FD8E0E4C9FAE4CCFB2275F010EF2F67
:1008CA00FFEE33FEED33FDCC33CCC833C810D70767
:1008DA009BEC9AE899400AED9BFDEC9AFCE899F8A2
:0E08EA000FD5F0DAE4CDFBE4CCFAE4C8F92235
:1008F800EB9FF5F0EA9E42F0E99D42F0E89C45F056
:0109080022CC
:10090900E8600FECC313FCED13FDEE13FEEF13FFCC
:03091900D8F122F0
:10091C00E493FC740193FD740293FE740393FF2221
:0C092C00A42582F582E5F03583F58322D6
:00000001FF
