BL51 BANKED LINKER/LOCATER V6.00                                                        09/24/2017  14:54:57  PAGE 1


BL51 BANKED LINKER/LOCATER V6.00, INVOKED BY:
E:\KEIL\C51\BIN\BL51.EXE Text1.obj TO 1 RAMSIZE (256)


MEMORY MODEL: SMALL


INPUT MODULES INCLUDED:
  Text1.obj (TEXT1)
  E:\KEIL\C51\LIB\C51S.LIB (?C_STARTUP)
  E:\KEIL\C51\LIB\C51S.LIB (?C?IMUL)
  E:\KEIL\C51\LIB\C51S.LIB (?C?UIDIV)
  E:\KEIL\C51\LIB\C51S.LIB (?C_INIT)


LINK MAP OF MODULE:  1 (TEXT1)


            TYPE    BASE      LENGTH    RELOCATION   SEGMENT NAME
            -----------------------------------------------------

            * * * * * * *   D A T A   M E M O R Y   * * * * * * *
            REG     0000H     0008H     ABSOLUTE     "REG BANK 0"
            DATA    0008H     003AH     UNIT         ?DT?TEXT1
            IDATA   0042H     0001H     UNIT         ?STACK

            * * * * * * *   C O D E   M E M O R Y   * * * * * * *
            CODE    0000H     0003H     ABSOLUTE     
            CODE    0003H     0005H     UNIT         ?C_INITSEG
                    0008H     0003H                  *** GAP ***
            CODE    000BH     0003H     ABSOLUTE     
            CODE    000EH     00F2H     UNIT         ?PR?MAIN?TEXT1
            CODE    0100H     00E2H     UNIT         ?PR?XIANSHI?TEXT1
            CODE    01E2H     008CH     UNIT         ?PR?TIMER0?TEXT1
            CODE    026EH     008CH     UNIT         ?C_C51STARTUP
            CODE    02FAH     0067H     UNIT         ?C?LIB_CODE
            CODE    0361H     0028H     UNIT         ?CO?TEXT1



OVERLAY MAP OF MODULE:   1 (TEXT1)


SEGMENT
  +--> CALLED SEGMENT
---------------------
?C_C51STARTUP
  +--> ?PR?MAIN?TEXT1
  +--> ?C_INITSEG

?PR?MAIN?TEXT1
  +--> ?PR?XIANSHI?TEXT1

?PR?XIANSHI?TEXT1
  +--> ?CO?TEXT1



BL51 BANKED LINKER/LOCATER V6.00                                                      09/24/2017  14:54:57  PAGE 2


SYMBOL TABLE OF MODULE:  1 (TEXT1)

  VALUE           TYPE          NAME
  ----------------------------------

  -------         MODULE        TEXT1
  C:0000H         SYMBOL        _ICE_DUMMY_
  D:0080H         PUBLIC        P0
  D:0090H         PUBLIC        P1
  D:00A0H         PUBLIC        P2
  C:0361H         PUBLIC        shu1
  D:00B0H         PUBLIC        P3
  B:00A8H.7       PUBLIC        EA
  D:00A8H         PUBLIC        IE
  D:0008H         PUBLIC        a1
  D:000AH         PUBLIC        b1
  D:000CH         PUBLIC        a2
  D:000EH         PUBLIC        b2
  D:0010H         PUBLIC        a3
  D:0012H         PUBLIC        g1
  D:00B8H         PUBLIC        IP
  D:0014H         PUBLIC        k1
  D:0016H         PUBLIC        n1
  C:000EH         PUBLIC        main
  D:0018H         PUBLIC        time
  D:0098H         PUBLIC        SCON
  D:0089H         PUBLIC        TMOD
  D:0088H         PUBLIC        TCON
  D:001AH         PUBLIC        sec
  D:001CH         PUBLIC        hour
  D:001EH         PUBLIC        min
  B:00A8H.1       PUBLIC        ET0
  D:008CH         PUBLIC        TH0
  D:008AH         PUBLIC        TL0
  B:00A0H.0       PUBLIC        p20
  B:00A0H.1       PUBLIC        p21
  C:01E2H         PUBLIC        timer0
  B:00A0H.2       PUBLIC        p22
  B:00A0H.3       PUBLIC        p23
  B:00B0H.3       PUBLIC        p33
  B:0088H.4       PUBLIC        TR0
  B:00B0H.4       PUBLIC        p34
  B:00B0H.5       PUBLIC        p35
  B:00B0H.6       PUBLIC        p36
  D:0020H         PUBLIC        a
  D:0022H         PUBLIC        b
  D:0024H         PUBLIC        c
  D:0026H         PUBLIC        d
  D:0028H         PUBLIC        e
  D:002CH         PUBLIC        f
  D:002EH         PUBLIC        g
  D:00C8H         PUBLIC        T2CON
  D:0030H         PUBLIC        i
  D:0032H         PUBLIC        j
  D:0034H         PUBLIC        k
  D:0036H         PUBLIC        m
  D:0038H         PUBLIC        n
BL51 BANKED LINKER/LOCATER V6.00                                                      09/24/2017  14:54:57  PAGE 3


  D:003AH         PUBLIC        p
  D:0040H         PUBLIC        q
  C:0100H         PUBLIC        xianshi
  D:00D0H         PUBLIC        PSW
  -------         PROC          XIANSHI
  C:0100H         LINE#         18
  C:0100H         LINE#         19
  C:0100H         LINE#         20
  C:010BH         LINE#         21
  C:010BH         LINE#         22
  C:0119H         LINE#         23
  C:0137H         LINE#         24
  C:015DH         LINE#         25
  C:016BH         LINE#         26
  C:017BH         LINE#         27
  C:017DH         LINE#         29
  C:017DH         LINE#         30
  C:018BH         LINE#         31
  C:01A9H         LINE#         32
  C:01A9H         LINE#         33
  C:01BFH         LINE#         34
  C:01DDH         LINE#         36
  C:01DEH         LINE#         37
  C:01E1H         LINE#         38
  -------         ENDPROC       XIANSHI
  -------         PROC          MAIN
  C:000EH         LINE#         39
  C:000EH         LINE#         40
  C:000EH         LINE#         41
  C:0015H         LINE#         44
  C:0018H         LINE#         45
  C:001BH         LINE#         46
  C:001DH         LINE#         47
  C:001FH         LINE#         48
  C:0021H         LINE#         49
  C:0023H         LINE#         50
  C:0028H         LINE#         51
  C:0034H         LINE#         52
  C:0034H         LINE#         53
  C:0034H         LINE#         54
  C:0047H         LINE#         56
  C:004AH         LINE#         57
  C:0056H         LINE#         58
  C:005EH         LINE#         59
  C:0073H         LINE#         60
  C:0073H         LINE#         62
  C:0076H         LINE#         63
  C:0088H         LINE#         64
  C:0090H         LINE#         65
  C:00A5H         LINE#         66
  C:00A5H         LINE#         68
  C:00A8H         LINE#         69
  C:00A8H         LINE#         70
  C:00B3H         LINE#         71
  C:00B3H         LINE#         72
  C:00B8H         LINE#         75
  C:00BEH         LINE#         76
BL51 BANKED LINKER/LOCATER V6.00                                                      09/24/2017  14:54:57  PAGE 4


  C:00BEH         LINE#         77
  C:00C2H         LINE#         78
  C:00C5H         LINE#         80
  C:00C5H         LINE#         81
  C:00FBH         LINE#         82
  C:00FDH         LINE#         83
  C:00FDH         LINE#         86
  -------         ENDPROC       MAIN
  -------         PROC          TIMER0
  C:01E2H         LINE#         89
  C:01E6H         LINE#         91
  C:01E9H         LINE#         92
  C:01ECH         LINE#         93
  C:01FCH         LINE#         94
  C:0204H         LINE#         95
  C:020CH         LINE#         96
  C:0214H         LINE#         97
  C:0223H         LINE#         98
  C:0223H         LINE#         99
  C:022BH         LINE#         100
  C:0231H         LINE#         101
  C:0231H         LINE#         102
  C:0239H         LINE#         103
  C:0239H         LINE#         104
  C:0241H         LINE#         105
  C:0247H         LINE#         106
  C:0247H         LINE#         107
  C:024FH         LINE#         108
  C:024FH         LINE#         109
  C:0257H         LINE#         110
  C:025DH         LINE#         111
  C:025DH         LINE#         112
  C:0265H         LINE#         113
  C:0265H         LINE#         114
  C:0269H         LINE#         115
  C:0269H         LINE#         118
  -------         ENDPROC       TIMER0
  -------         ENDMOD        TEXT1

  -------         MODULE        ?C?IMUL
  C:02FAH         PUBLIC        ?C?IMUL
  -------         ENDMOD        ?C?IMUL

  -------         MODULE        ?C?UIDIV
  C:030CH         PUBLIC        ?C?UIDIV
  -------         ENDMOD        ?C?UIDIV

Program Size: data=67.0 xdata=0 code=902
LINK/LOCATE RUN COMPLETE.  0 WARNING(S),  0 ERROR(S)
