:10000E00FFFFFFFF01C0FFDFFFDFFFDFFFDFFFDFCF
:10001E00FFDFFFDFFFFFFFFFFFFF07F0FBEFFDDF5F
:10002E00FDDFFDDFFDDFFBEF07F0FFFFFFFFFFFF53
:10003E0001F8FFF7FFEFFFDFFFDFFFEFFFF701F83C
:10004E00FFFFFFFFFFFF01C07DDF7DDF7DDF7DDF77
:10005E007DDF7DDF7DDFFFFFFFFF87FF03FF01FEFB
:10006E0001FC01F801F001E003C0078003C001E0CC
:10007E0001F001F801FC01FE03FF87FFFFFFFFFF08
:10008E00DFFFDBF7DBB7DB7B0180DCFDDDBEDFBF37
:10009E00DFDF00ECDFF3DDEBD3DD5FBEDF07FFFF5D
:1000AE00FFFFFFFFFFFFFFFF8FFF03FE01FC01F8C5
:1000BE0000F000E000C000C00080018003000700D7
:1000CE00070003000180008000C000C000E000F0C7
:1000DE0001F801FC03FE8FFFFFFFFFFFFFFFFFFF95
:1000EE00FFFE7FFF9FFF0700F8FFBFEFDFF3E7FC88
:1000FE00F0BFF77F3780F7FFF7FED7F9E7E7FFFF8F
:10010E00FFFFFFFFFFFF1FF8E7E7FBDFFDBFFFFF6E
:10011E00FFFFFFFFFEFFFEFFFEFFFEFFFEFFFEFFE7
:10012E00FEFFFEFFFEFFFEFFFEFFFEFFFEFFFFFFD8
:10013E00FFFFFFFFFBFFE3FF9BFF7BFEFBF9FBE7F0
:10014E00FBF97BFE9BFFE3FFFBFFFFFFFFFFFFFFC4
:10015E00FEFFFEFFFEFFFEFFFEFFFEFFFEFFFEFFA9
:10016E00FEFFFEFFFEFFFEFFFEFFFEFFFFFFFFFF97
:10017E00FFFFFDBFFBDFE7E71FF8FFFFFFFFFFFFFE
:10018E00FBEFDBF7BBF97BFE9B7D63B3BFDFCFE7F6
:10019E00F0F937FEF7F9F7E7D7DFE7BFFF7FFFFF8D
:1001AE00BFFFBFBFBDDF33E0FFDFFFBF03B0FBBB51
:1001BE00FDBDFFBF0380FBBDFBBB03BCFFBFFFFF4D
:1001CE007FFF9FFF0700F8FFFB7F1B7EDBBADBD6AE
:1001DE00DBEE00D0DBBEDBBEDB7E1B7EFB7FFFFFDC
:1001EE00FF7FFF9F01E0DDFDDDFDDDFDDDFD01801B
:1001FE00DDFDDDFDDDBDDD7D0180FFFFFFFFFFFFCE
:10020E00F7FDF7FE76FF110067FFFFFCFFFF07E02B
:10021E0077F777F7000077F777F707E0FFFFFFFF35
:10022E00BFFFBFFFBBFFBBE19BEDABEDB3EDB8ED89
:10023E00B3E1ABBF9B7F3B80BBFFBFFFBFFFFFFFA9
:10024E00FF7FFF9F0160B57F55B001B565D515E500
:10025E007C905545655501456510D57FBD3FFFFF27
:10026E00BFEF9FC7AFEBB3EDBCEE3FEBCFC7FBFFCE
:10027E00FBFFFBFFFBBFFB7FFBBF03C0FFFFFFFFCF
:10028E00EFFDEFBDEF7E00806FFFFFFF6BFD9B85E7
:10029E00BBBDABBD1D80BDBD9CBDA505FFFDFFFF5C
:1002AE00EFFDEFBDEF7E00806FFFFFFF6BFD9B85C7
:1002BE00BBBDABBD1D80BDBD9CBDA505FFFDFFFF3C
:1002CE00EFFBEFFC2FFF00006FFFEFFEBBEDABEE81
:1002DE002BEB8BEBA000ABEB2BEBABEEBBEDFFFFF9
:1002EE00FFFFFFFFFFFF01CCFFFFFFFFFFFFFFFF41
:1002FE00FFFFFFFFFFFFFFFFFFFFFFFFFFFFFFFF00
:10030E00FFFFFFFFFFFFFFFF0000FFFFFFFFFFFFED
:10031E007FFF7F7F7BBF7BDF7BE701F87DFF7CFF6D
:10032E007DFF7FFF00007FFF7FFF7FFF7FFFFFFFCF
:10033E00DFDDCF9853DD9CEDCFEDFFBFFDCFFD7020
:10034E00017FFDBCFDD39DEFA5D339BCFF7FFFFF21
:10035E00FF7F0180DFFEDFFEC000DF7FFF9F03E037
:10036E00DB7F1BBEDBD9DDE7DCD91DBEFF7FFFFFC8
:10037E00FFFFFFFFFFFFFFFF0000FFFFFFFFFFFF7D
:10038E00F7BFF7C777FF77FF77C377BF77BF00BD9C
:10039E0077B377BF77BF778F77FBF7F7F7CFFFFF8F
:1003AE00EFFDF3FDDBFDDBFDDBFDDBBDDA7D198053
:1003BE00DBFDDBFDDBFDDBFDDBFDEBFDF3FDFFFF21
:1003CE00BFFFAFFFB1C1B7FDB7FD0000B7EDB7DDA1
:1003DE00B7E1BFFF07F0FFBFFF7F0080FFFFFFFF0A
:1003EE00FFFE7FFF9FFF0700F8FFBFFFCFFFF0FF6D
:1003FE00070077F777F777F777F7F7F7F7FFFFFF4E
:10040E00FFFFFFFFF7FFE7FFDBFF5BFFBDFEF9FE20
:10041E00D7F98FF77FF5FFEAFFD7FFCFFFBFFFFFBB
:10042E0003F0FDEFFDDFFE1FFE7FDEBF9EBF9EBF12
:10043E005ECF5EC3DED4DED7CEDBF2DBFCDBF2DBDF
:10044E00CEDBDED7DED45EC35ECF9EDF9EDFDEDF89
:10045E00FEDFFDDFFDEF03F0FFFFFFFFFFFFFFFFFE
:10046E00FFFF7FFC1FF80FF007E007E003C003C09B
:10047E00018001800180818181818181C183C3C31B
:10048E00C3C3E7E7E7E7EFF7FFFF3FFC1FF81FF8EF
:10049E001FF81FF83FFCFFFFFFFF3FFC1FF81FF880
:1004AE001FF81FF83FFCFFFFFFFF3FFC1FF81FF870
:1004BE001FF81FF83FFCFFFFEFF7E7E7E7E7C3C3BF
:1004CE00C3C3C183818181818181018001800180CB
:1004DE0003C003C007E007E00FF01FF87FFCFFFF2B
:1004EE00FFFFFFFFFFFFFFFFFFFFFFFFFFFFFFFF0E
:1004FE007FFE3FFE1FFE0FF607F603F601B600B6AF
:10050E0000B601B603F607F60FF61FFE3FFE7FFE9E
:10051E00AFFEAFFEBFFABFFAFFEAFFEAFFABFFABDB
:10052E00FEAFFEAFFABFFABFEAFFEAFFABFFABFFCB
:10053E00FFFFF0FFE07FC03FC01FC00FE007F003DA
:10054E00F003E007C00FC01FC03FE07FF0FFFFFFCA
:10055E00FF7FFFBFFFDFFFEFFFF7FFFBFFFDFFFE9C
:10056E00FFFDFFFBFFF7FFEFFFDFFFBFFF7FFEFF8C
:10057E00FFFFFFDFFFDFFFDFFFDFFFDFFFDFFFDF5D
:10058E00FFDFFBDEFDDDFEDBFF57FF8FFFDFFFFF33
:10059E00FFFFFFFFFFFFFFFFFFFFFF2020FFFFFF1B
:1005AE00FFF8F8FFF8F8FFFFEBFBA0EBA0EBEBFF7B
:1005BE00D1D580D580D5C5FF389AC8E713591CFF11
:1005CE009966766696996FFFFFFFF8F8FFFFFFFFBB
:1005DE00FFFFC3BD7EFFFFFFFFFFFF7EBDC3FFFF1B
:1005EE00FFD5F7C1F7D5FFFFFFF7F7C1F7F7FFFF0D
:1005FE00FFFF7F8FCFFFFFFFFFF7F7F7F7F7FFFF45
:10060E00FFFFFFFFFF9F9FFFFF3F9FCFE7F3F9FF26
:10061E00FFC3BD7E7EBDC3FFFFFF7D7D007F7FFFDD
:10062E00FF7D3E5E6E7679FFFF6D6D6D6D6D01FF28
:10063E00EFE7EBED00EFEFFFFF616D6D6D6D0DFF01
:10064E00836D767676768FFFFFFE1EEEF6FAFCFF52
:10065E00FF817676767681FFFF616E6E6E6E81FF1C
:10066E00FFFF2727FFFFFFFFFF7F1393FFFFFFFF14
:10067E00FFFFE7DBBD7EFFFFFFDBDBDBDBDBDBFF53
:10068E00FFFF7EBDDBE7FFFFFFFDFE4EF6F9FFFF2E
:10069E00C3BD665A5A465DC33FCFD3DCD3CF3FFFAF
:1006AE00FF80B6B6B6B6C9FFE3DDBEBEBEBEDDFF89
:1006BE00FF80BEBEBEDDE3FFFF80B6B6B6B6BEFFA0
:1006CE00FF80F6F6F6F6FEFFE3DDBEBEBEBE8DEF94
:1006DE00FF80F7F7F7F780FFFFFFBE80BEFFFFFF3B
:1006EE00FFDFBFBE80FEFFFFFF80F7EBDDBEBEFF6C
:1006FE00FF80BFBFBFBFFFFF80FDE39FE3FD80FF15
:10070E0080FDFBF7EFDF80FFE3DDBEBEBEDDE3FF66
:10071E00FF00EEEEEEEEF1FFE3DDBEBEAEDDA3BFFB
:10072E00FF80F6F6E6D6B9FFFFB9B6B6B6B6CEFF7F
:10073E00FEFEFE80FEFEFEFFFFC0BFBFBFBFC0FFBE
:10074E00FFF0CFBFBFCFF0FFE09FE7F9E79FE0FFDD
:10075E00BEDDEBF7EBDDBEFFF8F7EF1FEFF7F8FFAF
:10076E00FFBE9EAEB6BABCFFFFFF007E7E7EFFFFD1
:10077E00FEFDFBF7EFDFBF7FFFFF7E7E7E00FFFFFC
:10078E00FFFBFDFEFDFBFFFF7F7F7F7F7F7F7F7F78
:10079E00FFFFFCFCFFFFFFFFFFC7B6B6B6B681BF7B
:1007AE00FF80B7B7B7B7CFFFE7DBBDBDBDFFFFFF1C
:1007BE00FFCFB7B7B780FFFFFFC3B5B5B5B5F3FF32
:1007CE00FFF77701F6F5FFFFFFB176767681FFFF33
:1007DE00FF00EFF7F70FFFFFFFF7FB027FBFFFFFF3
:1007EE00FF3F7F7F02FFFFFFFF01DFAF77FFFFFFBE
:1007FE00FFFFFF007FFFFFFF87FBFB87FBFB87FFF2
:10080E00FF87FBFBFB87FFFFFFC7BBBBBBC7FFFF22
:10081E00FF01EDEDF3FFFFFFFFF3EDED017FFFFFB6
:10082E00FFFD01F7FBFDFDFFFF736D6D6D9DFFFF7E
:10083E00FFF7F7017777B7FFFFC1BFBFBF81BFFFDC
:10084E00F7E7DF3FDFE7F7FFC7BFDFE7DFBFC7FF32
:10085E00FFBBD7EFD7BBFFFFFFBEBDDBE7FBFDFE48
:10086E00FFBB9BABB3BBFFFFFFEF117D7DFFFFFF18
:10087E00FFFFFF00FFFFFFFFFFFFFF7D7D11EFFF7B
:10088E00F7FBFBF7EFEFF7FFE7DFF7DFF7DFF79F9A
:10089E00F40FF47FF57FF1EFF3EFE3C7E7DFE79BAC
:1008AE00E73DE73DCE75CEF5CEE7CCEFCCCFCD9F75
:1008BE00DD9FDD7FDD3FDDBFDDBFD93FD99FD99FF6
:1008CE00D9DFDDDFDDCFDDCFDDCFDDE7DDE7CCE767
:1008DE00CCE7CEEF8ECF8E4F8F7F873FA79FB79FF0
:1008EE00B3CFB3EFB1E7B9FFB87FBC3FBDBFBFBF5A
:1008FE00BF9FBF9FBFBFBFBFBFFFBFFF92FF92FF94
:10090E00923F802F800F87EF8FEF8FFF8FFF9E7F9D
:10091E009EF99EF99E818E9D8E9F8E7FAE7FAE7FBD
:10092E00AC7FAC3FADBFBD9FBDDFBDDFB99FB99FF3
:10093E00B9BFBBBFBB1FBBBFB9BFBDBFBD9FB9A7B3
:10094E00B9A7B8CFBDDFBD9FBDBFBE6F926792770F
:10095E0093F193FF97FF87FF87FF83CF83CFC25F0C
:10096E00E05FE45FF7DFF7DF97839783AB038107E1
:10097E009A079A879A878E0F8F6F8F7F87FF87FFD1
:10098E00D7FFD3FFD9FF49FF41FF41FF49FF6BFF5F
:10099E006BFF7FFF7FFFFFFFFFFFFFFFFFFFFFFFED
:1009AE00FFFFFFFFFFFFFFFFFFFFFFFFFFFFFFFF49
:1009BE00FFFFFFFFFFFFFFFFFFFFFFFFFFFFBFFF79
:1009CE00AAF9AAF9AAB982398E01A801A9FDB1FF27
:1009DE00B7FF87FF87FF07FF037F037F023F183FA5
:1009EE001ABF383F231F031F079F67936F834FC3A1
:1009FE004FFF4FFF4FFF5FFF5FFF5FFF5FFF5FFF29
:100A0E005FFF1FFF1FFF1FFF1FFF19FF19FF19FFBA
:100A1E0019FF19FF18FF19FF19FF39FF39FF39FFA9
:100A2E0019FF18FF18FF18FF18FF18FF11FF11FF0D
:100A3E0011FF59FF5BFF5BFF5BFF51FF41FF6B1F18
:100A4E00731F5107902790272E016F0153097909C3
:100A5E003A09124317031707075727DF27FF27FF08
:100A6E0027FF27FF27FF27FF27FF27FF27FF23FF4C
:100A7E0023FF27FF37FF17FF17FF17FF1FFF1FFF6C
:100A8E005FFF5FFF5FFF5FFF5FFF5FFF5FFF5FFF68
:100A9E005FFF5FFF1FFF1FFF1FFF3FFF2CFF2CFF9E
:100AAE0028BF243F261F681F591F4B1F439F589F67
:100ABE00D89FC49994599101A1008FFF0FFF1FFF7A
:100ACE003FFF3FFF3FFF9FFFBFFFBFFFBFFF3FFF48
:100ADE003FFF3FFF3FFF3FFF3FFF3FFF3FFF3FFF18
:100AEE003FFF3FFF3FFF3FFF3FFF3FFFAFFF8FFF48
:100AFE000FFFCFFFAFFFAFFFA7FFA7FF27FFAFFF90
:100B0E00AFFFAFFFAFFF8FFF8FFFAFFFAFFFAFFFA7
:100B1E00AFFFAFFFAFFFEFFFC7FF47FF67FF67FFF7
:100B2E0063FF6387638740239A839B83CD03CD073F
:100B3E00DA07D287D607C60FC76FCF7FCFFFCFFF9B
:100B4E00CFFF8FFFCFFFCFFFCFFFCFFFCFFFDAFF5C
:100B5E00D8FFD87FC07FC47FD5FFD1FFD3FFD3FF8F
:100B6E00D7FFC7FFC7FFCFFFCFFFCFFFCFFFCFFF0F
:100B7E00CFFFFFFFFFFFFFFFFFFFFFFFFCFFFCFFAD
:100B8E00F87FF83FFA18F019E101E1C7E9D7EBFF5A
:100B9E00E3FFE3FFE7FFC7FFC7FFC7FFC6FFD4FFB3
:100BAE00D4FFD0FFD27FDA3F981F9A909381838132
:100BBE0087FF97FF97FF87FF87FFAFFFAFFF8FFF7F
:100BCE008FFF9FFF9FFF9FFF9FFF99FF99FF99FF49
:100BDE0099FF99FF98FF99FF99FFB9FFB9FFB9FFE8
:100BEE0099FF98FF98FF98FF98FF98FF91FF91FF4C
:100BFE0091FF99FF9BFF9BFF9BFF91FF81FFAB1F17
:100C0E00B31F91079027902757835783DB03C107A4
:100C1E004A074A874A874E0F4F6F477F4FFF4FFF56
:100C2E004FFFCFFFCFFFCFFFC87FC07FC33FCC7F2B
:100C3E00CD7FE9FFEBFFE3FFE7FFE7FFE7FFE7FF0E
:100C4E00FFFFFFFFFFFFFFFFFFFFFFFFFFFFFFFFA6
:100C5E00FFFFFFFFFFFFFFFFFB7F787F685D601DDB
:100C6E0060956181418143FF53FF53FFD7FFC7FF5B
:100C7E00CFFFCFFF4FFF0FFF8FFFCFFFCABFC2BF08
:100C8E00529FD81FD89F488F438F83CFEFCF6FC00F
:100C9E008FE18FE18FFF9FFF9FFFDFFF5FFF5FFF02
:100CAE005FFF1FFF3FFF3FFFBFFFBFFFBFFFBFFF46
:100CBE00BFFFBFFFBE7FBE7F3E7F3E7F3E7F3E7F3C
:100CCE001E7F1C7F1E7F1E7F1E7F1C3F1C3F5C7F76
:100CDE00587F58FF48FF49FF69FF71FF3BFFAB1F6D
:100CEE00AB1FA9078827012731323A33343A3536FC
:100CFE00002031362D323620200031323A33343A4C
:030D0E0035360077
:101BBC000235000001310001341B013306013220D3
:061BCC00012F060130129A
:0B1BE000EF1FAC0670011E4C70F622D7
:091B9300121B9C7580FF7FF40E0B
:101B9C00E4FDFCC3ED9FEC9E5015E4FBFA0BBB007F
:0F1BAC00010AEB647A4A70F50DBD00010C80E46C
:011BBB002207
:101B2500C2B5C2B3D2B5E4FEC2B3AB07EB1392B4F0
:101B3500EFC313FFD2B30EBE08EEE4FEC2B3AB058E
:101B4500EB1392B4EDC313FDD2B30EBE08EEC2B5CE
:071B55007F027E00021BE08D
:0D1BD300C2B5C2B3C2B47D807F8E021B2557
:101AA600E4FEC2B5C2B3D2B5FDC2B3AB07EB139227
:101AB600B4EFC313FFD2B30DBD08EEE4FD30B40599
:101AC600430680800353067FD2B3EEC313FEC2B330
:101AD6000DBD08E9C2B5EEC4540FFFEE540FFEEF7C
:061AE60075F00AA42EFFBA
:011AEC0022D7
:101AED00E4FD7F8E121B257D407F80121B257D0915
:101AFD007F82121B257D137F84121B257D107F860F
:101B0D00121B257D077F88121B257D187F8C121BCC
:081B1D00257D807F8E021B254F
:0B1BEB00EF1FAC0670011E4C70F622CC
:0418CA007D06AF1ACE
:0418CE008F2C8D2DA1
:1018D200E4F52EF9F52EE52CC394085012AF2C74C2
:1018E20001A807088002C333D8FCF4F5808013E511
:1018F2002C24F8FF7401A807088002C333D8FCF433
:10190200F5A07F037E00121B9CE52DD3940850198D
:10191200E4F9E9C3952D50307401A801088002C38F
:1019220033D8FCF452800980E9E4F580F9E52D24EE
:10193200F8FFE9C39F50117401A801088002C33364
:10194200D8FCF452A00980E57F0A7E00121BEB75D9
:10195200A0FF7580FF7F067E00121B9C052EE52EE0
:10196200C3944250030218D830B7FD7F0A7E0002AA
:021972001B9CBC
:1012CF00E4F50AF50BF50DF50EF50F78107C00FD22
:1012DF007BFF7A0C79F6FE7F091216EC75190075F3
:1012EF001A00751B10781C7C007D007BFF7A0C792F
:1012FF00FF7E007F091216EC7525007526007527F5
:10130F001CD2B2D2B77FF47E01121B9C7580FE7F78
:10131F00C81E121B9C7580FF121B9C7580FE121B32
:10132F0093E53375F00A842430F510E53375F00A30
:10133F0084E5F02430F511E53475F00A842430F596
:10134F0013E53475F00A84E5F02430F514E53175B2
:10135F00F00A842430F516E53175F00A84E5F0249F
:10136F0030F517E52F75F00A842430F51DE52F753C
:10137F00F00A84E5F02430F51EE53275F00A842476
:10138F0030F520E53275F00A84E5F02430F52120A0
:10139F00B7227F0A7E00121B9C20B718050EE4F5BA
:1013AF000FF50DE50EC394084003E4F50E7D08AF6D
:1013BF000E1218CE30B2030213307F0A7E00121BBA
:1013CF009C30B203021330050F7F35121B9CE4F5DE
:1013DF0008F509E50925E0FDE50833FCE50D75F095
:1013EF0080A4AEF02DF50BEE3CF50AE50E0414B417
:1013FF001000400302157390141475F003A4C583F5
:10140F0025F0C583730214FD02144402144C021418
:10141F005402145C02148202148A02149E0214B243
:10142F000214BA0214C20214CA0214D20214DA024B
:10143F0014E20214EAAF0BEF90000E8058AF0BEFDF
:10144F0090008E8050AF0BEF90010E8048748E2568
:10145F000BF5827401350AF583E493F580748F25BB
:10146F000BF5827401350AF583E493F5A0750C1022
:10147F00021573AF0BEF90038E801AAF0BEF900432
:10148F000E93F580EFA393F5A0750C03021573AFC0
:10149F000BEF90046E93F580EFA393F5A0750C04FA
:1014AF00021573AF0BEF9004EE8036AF0BEF900485
:1014BF00F0802EAF0BEF9004F28026AF0BEF90046D
:1014CF00F4801EAF0BEF9004F68016AF0BEF900475
:1014DF00F8800EAF0BEF9004FA8006AF0BEF90047D
:1014EF00FC93F580EFA393F5A0E4F50C8076750CD3
:1014FF00047E00E5095407FFAB19AA1AA91B12179E
:10150F001275F008A42FF582EE35F0F583E58224ED
:10151F009EF582E5833404F583E493F580E5095461
:10152F0007FFAB25AA26A92712171275F008A42FBB
:10153F00F582EE35F0F583E582249EF582E583345E
:10154F0004F583E493F5A0E50954076407701504C7
:10155F00251BF51BE4351AF51A74012527F527E429
:10156F003526F5267F647E00121BEBE50925E0FD8D
:10157F00E50833FCE50D75F080A42DFFE5F03CCFB9
:10158F002402FDE43FFCE50C75F020A4FFC3ED9FA2
:10159F00EC95F04025E50F94084005E4F50FF50DA7
:1015AF0075080075093F751900751A00751B1075C0
:1015BF00250075260075271C80140509E5097002A2
:1015CF000508C39440E508940050030213E2E509AF
:1015DF0025E0FDE50833FCE50D75F080A42DFFE552
:1015EF00F03CCF2402FDE43FFCE50C75F020A4FF96
:1015FF00C3ED9FEC95F04003021330E50FC3940841
:0D160F005003021330E4F50F050D021330F7
:100D11007508037509E8E4F50AF50BF50CF50DF511
:100D21000EF50FF510F511F512F513F514F515F58E
:100D310016F517F51AF51BF51C781D7C00FD7BFFD8
:100D41007A0D7908FE7F091216ECE4F5267527461F
:100D510075280EF529752A00752B1D7FC8FE121BFB
:100D61009C7580EF121B9C7580FF121B9C7580EF98
:100D7100121B930515E5157002051420B71C051A01
:100D8100E51AC394064003E4F51A1218CAE4F50EF5
:100D9100F50FF510F511F516F517E53375F00A8421
:100DA1002430F51DE53375F00A84E5F02430F51E95
:100DB100E53475F00A842430F520E53475F00A84B1
:100DC100E5F02430F521E53175F00A842430F5236E
:100DD100E53175F00A84E5F02430F524E51AC39471
:100DE100024003020FBA20900E851408851509E40C
:100DF100F514F5153090FD0515E515700205147F04
:100E01003C7E00121BEBAE14AF15E4FCFD7BDC7ADB
:100E1100FFF9F8C312179250067514EA751560AE02
:100E210008AF097C007D0F12172BAA06AB07AE1481
:100E3100AF157D3B12172BAD03AC0212173D8C0A87
:100E41008D0BAE08AF097C007D0512172BAA06ABEE
:100E510007AE14AF157D3B12172BAD03AC02121771
:100E61003D8C0C8D0DD3E50D943CE50C94005008A0
:100E71007580FE75A0FF800675A0FF7580FFD3E524
:100E81000B943CE50A940050035380F8AE14AF155F
:100E91007C007D3B12172B8E0A8F0BAF317E00AC8D
:100EA10008AD0912172B8E0C8F0D20B720051AE5FE
:100EB1001AC394064003E4F51A1218CAE4F50EF5B4
:100EC1000FF510F511F516F517F512F513E51A647E
:100ED100016003020F58E50D24E2FFE50C34FFFE2B
:100EE100D3E50B9FE50A9E4018E50D241EFFE4356E
:100EF1000CFEC3E50B9FE50A9E500675A0005380CA
:100F010003AE14AF157C007D3B12172BAC08AD0965
:100F110012173D8E0C8F0DE534B50D09E4B50C05A6
:100F2100F5A053801FE53375F00C84E5F075F005ED
:100F3100A4FFAEF0E53475F00C847C002FF50BECCA
:100F41003EF50AE50D650B7004E50C650A600302C8
:100F51000DDDF5A0020DDDAE14AF157C007D3B1259
:100F6100172BAC08AD0912173DD3EF9531EE940064
:100F710050035380EF8E0C8F0DD3E50D9534E50CA6
:100F81009400500353807FE53375F00C84E5F075D0
:100F9100F005A4FFAEF0E53475F00C847C002FF56C
:100FA1000BEC3EF50AD3E50D950BE50C950A4003D4
:100FB100020DDD53A0FB020DDDE51A0424FC606384
:100FC1001470030210561470030210A3240360036B
:100FD1000210F5752602AB29AA2AA92B1217127540
:100FE100F008A42513F582E5F03512F583E5822496
:100FF1009EF582E5833404F583E493F5800513E5DA
:101001001370020512C39408E512940050030210F4
:10101100F5E4F512F51304252BF52BE4352AF52A11
:101021000210F5752603751801751980E511250F54
:10103100FFE510350EFE748E2FF58274013EF583A7
:10104100E493F580748F2FF58274013EF583E49368
:10105100F5A00210F57526017518007519E0E51166
:10106100250FFFE51C75F0E0A42496F582E4340811
:10107100F583E5822FF582E43583F583E493F5A0CA
:10108100E51C75F0E0A42497F582E43408F583E5C6
:10109100822FF582E43583F583E493F580751B0196
:1010A10080527526017518007519E0E511250FFFAD
:1010B100E510350EFE75F0E0E51CA42476F582E519
:1010C100F03409F583E5822FF582E5833EF583E46B
:1010D10093F5A075F0E0E51CA42477F582E5F034E2
:1010E10009F583E5822FF582E5833EF583E493F5E7
:1010F10080751B04AF277E00121BEB7580FF75A066
:10110100FFE52775F00784FF7E00121BEBE5112533
:101111000FFFE510350EFEE51924FEFDE51834FF3D
:10112100FCC3EF9DEE9C500BAB29AA2AA92B1217E9
:10113100127072752900752A00752B1D75A0FF7537
:1011410080FF30903420B720051AE51AC394064079
:1011510003E4F51A1218CAE4F50EF50FF510F511AE
:10116100F516F517F512F5137F0A7E00121BEB0534
:1011710013E51370CD051280C9AE12AF137C007D4B
:101181004612172BEF7803CEC313CE13D8F9FFAD58
:10119100277C0012173DEF2515F515EE3514F514D2
:1011A100E4F512F513309026E511250FFFE5103512
:1011B1000EFEE51924FEFDE51834FFFCC3EF9DEE9C
:1011C1009C500B7402250FF50FE4350EF50E30908F
:1011D10003020D74E52875F008A4FFAEF02401FDAB
:1011E100E43EFCD3E5159DE5149C40020527EF2460
:1011F100FFFFEE34FFFEC3E5159FE5149E50021577
:1012010027E4F514F515F529752A00752B1DF5123E
:10121100F5137580FFE51924FEFFE51834FFFEC3C1
:10122100E5119FE5109E400BE4F510F511F516F55B
:1012310017800B74022511F511E43510F510E52620
:10124100B402047F0180027F00E526B401047E011F
:1012510080027E00EE4F6005E4F510F511E4F50E15
:10126100F50F3090FDE526B4033AC3E5179478E510
:10127100169400501274022517F517E43516F51669
:10128100E4F510F5118006751600751778C37478AA
:101291009517FFE49516FEAD277C0012172B121B44
:1012A100EB020D740517E51770020516D39402E5DC
:1012B1001694005003020D74E4F516F517051CE5AC
:0E12C1001C951B5003020D74E4F51C020D7405
:1017B400E4F508F509F50AF50BF50C750D017FC87C
:1017C400FE121B9C75A0FE121B9C75A0FF121B9C95
:1017D40075A0FE121B9C75A0FF7FF40E121B9C7556
:1017E400F020E50CA4F58285F083AF0975F002EFD3
:1017F4001217A8E58224FEF582E5833404F583E418
:1018040093F5A075F020E50CA4F58285F08375F0BE
:1018140002EF1217A8E58224FFF582E5833404F56C
:1018240083E493F5807F5A7E00121BEB7FC87E0011
:10183400121BEB0509E5097002050825E0FFE50820
:1018440033FEEF2402FFE43EFEC3EF9420EE940047
:10185400400DE4F508F509050BE50B7002050A20B7
:10186400B729050CE50DB40105E4F50DF50CC3E548
:101874000C64809485400B750CFF750D01E4F50A2A
:10188400F50BE50C04FF7D061218CEE50D6401602E
:10189400030217E3D3E50C648094805003E4F50C51
:1018A400C3E50B942CE50A940150030217E3E4F515
:1018B4000AF50B050CE50C6480948550030217E3CC
:0618C400E4F50C0217E33D
:10197400758901758CEEE4F58AD2AFD2A9D28CD2E6
:1019840090121BD37F81121AA68F317F83121AA65D
:101994008F347F85121AA68F337F87121AA68F324F
:1019A4007F89121AA68F2F7F8D121AA68F30E532E7
:1019B400C3942050287F8D121AA6EFB5301F7F895B
:1019C400121AA6EFB52F167F87121AA6EFB5320D9D
:1019D400E4F5A07FF47E01121B9C75A0FF20950303
:1019E4001212CF30B1047F0180027F003095047E53
:1019F4000180027E00EE5F6003120D113095047FBA
:101A04000180027F0020B1047E0180027E00EE5F2F
:061A140060031217B4226A
:03000B00021B5C79
:101B5C00C0E0C0D0758CEE758A000536E536700293
:101B6C00053564C8453570060531F535F536E53172
:101B7C00B43C050534753100E534B43C05053375CA
:071B8C003400D0D0D0E0329C
:03000000021A1AC7
:0C1A1A00787FE4F6D8FD758136021A6171
:10161C00E709F608DFFA8046E709F208DFFA803EB0
:10162C0088828C83E709F0A3DFFA8032E309F6089D
:10163C00DFFA8078E309F208DFFA807088828C8305
:10164C00E309F0A3DFFA806489828A83E0A3F608B9
:10165C00DFFA805889828A83E0A3F208DFFA804C93
:10166C0080D280FA80C680D4806980F2803380106A
:10167C0080A680EA809A80A880DA80E280CA8033D3
:10168C0089828A83ECFAE493A3C8C582C8CCC5834B
:10169C00CCF0A3C8C582C8CCC583CCDFE9DEE7801B
:1016AC000D89828A83E493A3F608DFF9ECFAA9F09A
:1016BC00EDFB2289828A83ECFAE0A3C8C582C8CCF0
:1016CC00C583CCF0A3C8C582C8CCC583CCDFEADE09
:1016DC00E880DB89828A83E493A3F208DFF980CC6B
:1016EC0088F0EF60010E4E60C388F0ED2402B40464
:1016FC000050B9F582EB2402B4040050AF2323450B
:06170C00822390166C73AD
:10171200BB010689828A83E0225002E722BBFE02D5
:09172200E32289828A83E4932208
:10172B00EF8DF0A4A8F0CF8CF0A428CE8DF0A42ED2
:02173B00FE228C
:10173D00BC000BBE0029EF8DF084FFADF022E4CC90
:10174D00F875F008EF2FFFEE33FEEC33FCEE9DEC59
:10175D00984005FCEE9DFE0FD5F0E9E4CEFD22ED9F
:10176D00F8F5F0EE8420D21CFEADF075F008EF2FE9
:10177D00FFED33FD4007985006D5F0F222C398FDDA
:05178D000FD5F0EA2277
:10179200EB9FF5F0EA9E42F0E99D42F0EC6480C8CE
:0617A20064809845F0226E
:0C17A800A42582F582E5F03583F583224C
:101A2600021974E493A3F8E493A34003F68001F249
:101A360008DFF48029E493A3F85407240CC8C333C1
:101A4600C4540F4420C8834004F456800146F6DF90
:101A5600E4800B0102040810204080901BBCE47E49
:101A6600019360BCA3FF543F30E509541FFEE49385
:101A7600A360010ECF54C025E060A840B8E493A34C
:101A8600FAE493A3F8E493A3C8C582C8CAC583CA77
:101A9600F0A3C8C582C8CAC583CADFE9DEE780BE2F
:011BD2000012
:00000001FF
