BL51 BANKED LINKER/LOCATER V6.00                                                        08/31/2017  13:03:06  PAGE 1


BL51 BANKED LINKER/LOCATER V6.00, INVOKED BY:
D:\KEIL英文\C51\BIN\BL51.EXE Text1.obj TO 1 RAMSIZE (256)


MEMORY MODEL: SMALL


INPUT MODULES INCLUDED:
  Text1.obj (TEXT1)
  D:\KEIL英文\C51\LIB\C51S.LIB (?C_STARTUP)
  D:\KEIL英文\C51\LIB\C51S.LIB (?C?IMUL)
  D:\KEIL英文\C51\LIB\C51S.LIB (?C?UIDIV)
  D:\KEIL英文\C51\LIB\C51S.LIB (?C?LMUL)
  D:\KEIL英文\C51\LIB\C51S.LIB (?C?ULDIV)
  D:\KEIL英文\C51\LIB\C51S.LIB (?C_INIT)


LINK MAP OF MODULE:  1 (TEXT1)


            TYPE    BASE      LENGTH    RELOCATION   SEGMENT NAME
            -----------------------------------------------------

            * * * * * * *   D A T A   M E M O R Y   * * * * * * *
            REG     0000H     0008H     ABSOLUTE     "REG BANK 0"
            DATA    0008H     0038H     UNIT         ?DT?TEXT1
            IDATA   0040H     0001H     UNIT         ?STACK

            * * * * * * *   C O D E   M E M O R Y   * * * * * * *
            CODE    0000H     0003H     ABSOLUTE     
            CODE    0003H     0005H     UNIT         ?C_INITSEG
                    0008H     0003H                  *** GAP ***
            CODE    000BH     0003H     ABSOLUTE     
            CODE    000EH     0372H     UNIT         ?PR?MAIN?TEXT1
            CODE    0380H     0184H     UNIT         ?C?LIB_CODE
            CODE    0504H     00E2H     UNIT         ?PR?XIANSHI?TEXT1
            CODE    05E6H     008CH     UNIT         ?C_C51STARTUP
            CODE    0672H     006AH     UNIT         ?PR?TIMER0?TEXT1
            CODE    06DCH     0028H     UNIT         ?CO?TEXT1



OVERLAY MAP OF MODULE:   1 (TEXT1)


SEGMENT
  +--> CALLED SEGMENT
---------------------
?C_C51STARTUP
  +--> ?PR?MAIN?TEXT1
  +--> ?C_INITSEG

?PR?MAIN?TEXT1
  +--> ?PR?XIANSHI?TEXT1

?PR?XIANSHI?TEXT1
  +--> ?CO?TEXT1

BL51 BANKED LINKER/LOCATER V6.00                                                      08/31/2017  13:03:06  PAGE 2




SYMBOL TABLE OF MODULE:  1 (TEXT1)

  VALUE           TYPE          NAME
  ----------------------------------

  -------         MODULE        TEXT1
  C:0000H         SYMBOL        _ICE_DUMMY_
  D:0080H         PUBLIC        P0
  D:0090H         PUBLIC        P1
  D:00A0H         PUBLIC        P2
  C:06DCH         PUBLIC        shu1
  D:00B0H         PUBLIC        P3
  B:00A8H.7       PUBLIC        EA
  D:00A8H         PUBLIC        IE
  D:0008H         PUBLIC        a1
  D:000AH         PUBLIC        b1
  D:000CH         PUBLIC        a2
  D:000EH         PUBLIC        b2
  D:0010H         PUBLIC        a3
  D:0012H         PUBLIC        g1
  D:00B8H         PUBLIC        IP
  D:0014H         PUBLIC        k1
  D:0016H         PUBLIC        n1
  C:000EH         PUBLIC        main
  D:0018H         PUBLIC        time
  D:0098H         PUBLIC        SCON
  D:0089H         PUBLIC        TMOD
  D:0088H         PUBLIC        TCON
  D:001AH         PUBLIC        sec
  D:001CH         PUBLIC        min
  B:00A8H.1       PUBLIC        ET0
  D:008CH         PUBLIC        TH0
  D:008AH         PUBLIC        TL0
  B:00A0H.0       PUBLIC        p20
  B:00A0H.1       PUBLIC        p21
  C:0672H         PUBLIC        timer0
  B:00A0H.2       PUBLIC        p22
  B:00A0H.3       PUBLIC        p23
  B:00A0H.4       PUBLIC        p24
  B:00B0H.3       PUBLIC        p33
  B:0088H.4       PUBLIC        TR0
  B:00B0H.4       PUBLIC        p34
  B:00B0H.5       PUBLIC        p35
  B:00B0H.6       PUBLIC        p36
  D:001EH         PUBLIC        a
  D:0020H         PUBLIC        b
  D:0022H         PUBLIC        c
  D:0024H         PUBLIC        d
  D:0026H         PUBLIC        e
  D:002AH         PUBLIC        f
  D:002CH         PUBLIC        g
  D:00C8H         PUBLIC        T2CON
  D:002EH         PUBLIC        i
  D:0030H         PUBLIC        j
  D:0032H         PUBLIC        k
BL51 BANKED LINKER/LOCATER V6.00                                                      08/31/2017  13:03:06  PAGE 3


  D:0034H         PUBLIC        m
  D:0036H         PUBLIC        n
  D:0038H         PUBLIC        p
  D:003EH         PUBLIC        q
  C:0504H         PUBLIC        xianshi
  D:00D0H         PUBLIC        PSW
  -------         PROC          XIANSHI
  C:0504H         LINE#         18
  C:0504H         LINE#         19
  C:0504H         LINE#         20
  C:050FH         LINE#         21
  C:050FH         LINE#         22
  C:051DH         LINE#         23
  C:053BH         LINE#         24
  C:0561H         LINE#         25
  C:056FH         LINE#         26
  C:057FH         LINE#         27
  C:0581H         LINE#         29
  C:0581H         LINE#         30
  C:058FH         LINE#         31
  C:05ADH         LINE#         32
  C:05ADH         LINE#         33
  C:05C3H         LINE#         34
  C:05E1H         LINE#         36
  C:05E2H         LINE#         37
  C:05E5H         LINE#         38
  -------         ENDPROC       XIANSHI
  -------         PROC          MAIN
  C:000EH         LINE#         39
  C:000EH         LINE#         40
  C:000EH         LINE#         41
  C:0018H         LINE#         42
  C:001EH         LINE#         43
  C:002DH         LINE#         44
  C:0036H         LINE#         45
  C:003CH         LINE#         46
  C:0063H         LINE#         47
  C:006BH         LINE#         49
  C:006EH         LINE#         50
  C:008AH         LINE#         51
  C:00ADH         LINE#         52
  C:00ADH         LINE#         54
  C:00B0H         LINE#         55
  C:00CDH         LINE#         56
  C:00F0H         LINE#         57
  C:00F0H         LINE#         58
  C:00F6H         LINE#         59
  C:00FEH         LINE#         60
  C:0104H         LINE#         61
  C:0115H         LINE#         62
  C:0126H         LINE#         64
  C:0126H         LINE#         65
  C:0148H         LINE#         66
  C:0148H         LINE#         68
  C:0148H         LINE#         69
  C:014EH         LINE#         70
  C:0154H         LINE#         71
BL51 BANKED LINKER/LOCATER V6.00                                                      08/31/2017  13:03:06  PAGE 4


  C:015AH         LINE#         72
  C:0163H         LINE#         73
  C:0166H         LINE#         74
  C:0183H         LINE#         75
  C:0186H         LINE#         76
  C:01A3H         LINE#         77
  C:01B2H         LINE#         78
  C:01B2H         LINE#         80
  C:01B5H         LINE#         81
  C:01B8H         LINE#         82
  C:01BBH         LINE#         83
  C:01BDH         LINE#         84
  C:01BFH         LINE#         85
  C:01C1H         LINE#         86
  C:01D8H         LINE#         87
  C:01D8H         LINE#         88
  C:01D8H         LINE#         89
  C:01EBH         LINE#         90
  C:01F3H         LINE#         91
  C:01F3H         LINE#         92
  C:01FAH         LINE#         93
  C:0203H         LINE#         94
  C:0203H         LINE#         95
  C:0206H         LINE#         96
  C:0210H         LINE#         97
  C:0210H         LINE#         98
  C:0213H         LINE#         99
  C:0222H         LINE#         100
  C:022AH         LINE#         101
  C:022AH         LINE#         102
  C:022FH         LINE#         103
  C:0232H         LINE#         104
  C:023EH         LINE#         105
  C:0246H         LINE#         106
  C:0246H         LINE#         107
  C:024BH         LINE#         108
  C:024BH         LINE#         110
  C:026EH         LINE#         111
  C:0271H         LINE#         112
  C:0271H         LINE#         113
  C:027CH         LINE#         114
  C:0281H         LINE#         116
  C:0281H         LINE#         118
  C:0284H         LINE#         119
  C:028AH         LINE#         120
  C:02ADH         LINE#         121
  C:02B5H         LINE#         122
  C:02B8H         LINE#         123
  C:02DCH         LINE#         124
  C:02DCH         LINE#         125
  C:02FFH         LINE#         126
  C:0315H         LINE#         127
  C:0315H         LINE#         128
  C:0329H         LINE#         129
  C:0351H         LINE#         130
  -------         ENDPROC       MAIN
  -------         PROC          TIMER0
BL51 BANKED LINKER/LOCATER V6.00                                                      08/31/2017  13:03:06  PAGE 5


  C:0672H         LINE#         134
  C:0676H         LINE#         136
  C:0679H         LINE#         137
  C:067CH         LINE#         138
  C:068CH         LINE#         139
  C:0694H         LINE#         140
  C:069CH         LINE#         141
  C:06A4H         LINE#         142
  C:06B3H         LINE#         143
  C:06B3H         LINE#         144
  C:06BBH         LINE#         145
  C:06C1H         LINE#         146
  C:06C1H         LINE#         147
  C:06C9H         LINE#         148
  C:06C9H         LINE#         149
  C:06D1H         LINE#         150
  C:06D7H         LINE#         151
  C:06D7H         LINE#         156
  -------         ENDPROC       TIMER0
  -------         ENDMOD        TEXT1

  -------         MODULE        ?C?IMUL
  C:0380H         PUBLIC        ?C?IMUL
  -------         ENDMOD        ?C?IMUL

  -------         MODULE        ?C?UIDIV
  C:0392H         PUBLIC        ?C?UIDIV
  -------         ENDMOD        ?C?UIDIV

  -------         MODULE        ?C?LMUL
  C:03E7H         PUBLIC        ?C?LMUL
  -------         ENDMOD        ?C?LMUL

  -------         MODULE        ?C?ULDIV
  C:0472H         PUBLIC        ?C?ULDIV
  -------         ENDMOD        ?C?ULDIV

Program Size: data=65.0 xdata=0 code=1793
LINK/LOCATE RUN COMPLETE.  0 WARNING(S),  0 ERROR(S)
