BL51 BANKED LINKER/LOCATER V6.00                                                        05/27/2020  21:46:29  PAGE 1


BL51 BANKED LINKER/LOCATER V6.00, INVOKED BY:
E:\KEIL\C51\BIN\BL51.EXE STARTUP.obj, main.obj, keyScan.obj, LCD1602.obj, MFRC500.obj, spi.obj TO new_test RAMSIZE (256)
>> 


MEMORY MODEL: SMALL


INPUT MODULES INCLUDED:
  STARTUP.obj (?C_STARTUP)
  main.obj (MAIN)
  keyScan.obj (KEYSCAN)
  LCD1602.obj (LCD1602)
  MFRC500.obj (MFRC500)
  spi.obj (SPI)
  E:\KEIL\C51\LIB\C51S.LIB (?C_INIT)
  E:\KEIL\C51\LIB\C51S.LIB (?C?COPY)
  E:\KEIL\C51\LIB\C51S.LIB (?C?CLDPTR)
  E:\KEIL\C51\LIB\C51S.LIB (?C?CLDOPTR)
  E:\KEIL\C51\LIB\C51S.LIB (?C?CSTOPTR)
  E:\KEIL\C51\LIB\C51S.LIB (?C?SIDIV)
  E:\KEIL\C51\LIB\C51S.LIB (?C?ULDIV)
  E:\KEIL\C51\LIB\C51S.LIB (?C?CCASE)
  E:\KEIL\C51\LIB\C51S.LIB (?C?UIDIV)


LINK MAP OF MODULE:  new_test (?C_STARTUP)


            TYPE    BASE      LENGTH    RELOCATION   SEGMENT NAME
            -----------------------------------------------------

            * * * * * * *   D A T A   M E M O R Y   * * * * * * *
            REG     0000H     0008H     ABSOLUTE     "REG BANK 0"
            DATA    0008H     0012H     UNIT         _DATA_GROUP_
            DATA    001AH     0006H     UNIT         ?DT?_M500HOSTCODEKEY?MFRC500
            BIT     0020H.0   0000H.2   UNIT         ?BI?_SENDTOLCD?LCD1602
            BIT     0020H.2   0000H.1   UNIT         _BIT_GROUP_
                    0020H.3   0000H.5                *** GAP ***
            DATA    0021H     0010H     UNIT         ?DT?_DISPDECSPACE?LCD1602
            DATA    0031H     0010H     UNIT         ?DT?_DISPDECSHIFT?LCD1602
            DATA    0041H     000DH     UNIT         ?DT?_LOAD_KEYE2_CPY?MFRC500
            DATA    004EH     0007H     UNIT         ?DT?_DISPDECSPACEAT?LCD1602
            DATA    0055H     0007H     UNIT         ?DT?_DISPDECSHIFTAT?LCD1602
            DATA    005CH     0005H     UNIT         ?DT?_DISPSTRAT?LCD1602
            DATA    0061H     0003H     UNIT         ?DT?_UART_SEND_STR?MAIN
            DATA    0064H     0003H     UNIT         ?DT?MAIN
            DATA    0067H     0003H     UNIT         ?DT?_DISPSTR?LCD1602
            DATA    006AH     0003H     UNIT         ?DT?_AUTHENTICATION?MFRC500
            DATA    006DH     0003H     UNIT         ?DT?_MIF_WRITE?MFRC500
            DATA    0070H     0002H     UNIT         ?DT?_SENDTOLCD?LCD1602
            DATA    0072H     0002H     UNIT         ?DT?_MIF_READ?MFRC500
            DATA    0074H     0001H     UNIT         ?DT?KEYSCAN?KEYSCAN
            IDATA   0075H     0011H     UNIT         ?ID?MFRC500
            IDATA   0086H     0005H     UNIT         _IDATA_GROUP_
            IDATA   008BH     0004H     UNIT         ?ID?_M500HOSTCODEKEY?MFRC500
            IDATA   008FH     0003H     UNIT         ?ID?_AUTHENTICATION?MFRC500
            IDATA   0092H     0001H     UNIT         ?ID?_MIF_READ?MFRC500
BL51 BANKED LINKER/LOCATER V6.00                                                      05/27/2020  21:46:29  PAGE 2


            IDATA   0093H     0001H     UNIT         ?ID?_MIF_WRITE?MFRC500
            IDATA   0094H     0001H     UNIT         ?STACK

            * * * * * * *   C O D E   M E M O R Y   * * * * * * *
            CODE    0000H     0003H     ABSOLUTE     
            CODE    0003H     0446H     UNIT         ?CO?MAIN
            CODE    0449H     02DDH     UNIT         ?C?LIB_CODE
            CODE    0726H     01B7H     UNIT         ?PR?MAIN?MAIN
            CODE    08DDH     00E8H     UNIT         ?PR?ANTICOLL?MFRC500
            CODE    09C5H     00E0H     UNIT         ?PR?_AUTHENTICATION?MFRC500
            CODE    0AA5H     00C5H     UNIT         ?PR?KEYSCAN?KEYSCAN
            CODE    0B6AH     00BEH     UNIT         ?PR?_SET_BITFRAMING?MFRC500
            CODE    0C28H     00B3H     UNIT         ?PR?_SAVE_UID?MFRC500
            CODE    0CDBH     00AAH     UNIT         ?PR?_MIF_WRITE?MFRC500
            CODE    0D85H     008FH     UNIT         ?PR?_DISPDECSHIFT?LCD1602
            CODE    0E14H     008CH     UNIT         ?C_C51STARTUP
            CODE    0EA0H     0084H     UNIT         ?PR?SELECT_CARD?MFRC500
            CODE    0F24H     007FH     UNIT         ?PR?_M500HOSTCODEKEY?MFRC500
            CODE    0FA3H     007AH     UNIT         ?PR?_MIF_READ?MFRC500
            CODE    101DH     0073H     UNIT         ?PR?_REQUEST?MFRC500
            CODE    1090H     0071H     UNIT         ?PR?_DRAW_PM?MAIN
            CODE    1101H     006EH     UNIT         ?PR?_DISPDECSPACE?LCD1602
            CODE    116FH     0059H     UNIT         ?PR?_LCD12864B_WRITE_STR?MAIN
            CODE    11C8H     0051H     UNIT         ?PR?_COMMAND_SEND?MFRC500
            CODE    1219H     0050H     UNIT         ?PR?MIF_HALT?MFRC500
            CODE    1269H     0041H     UNIT         ?PR?_REV?SPI
            CODE    12AAH     0038H     UNIT         ?PR?CLEAR_FIFO?MFRC500
            CODE    12E2H     0037H     UNIT         ?PR?_LCD_MESG?MAIN
            CODE    1319H     0036H     UNIT         ?PR?_READ_FIFO?MFRC500
            CODE    134FH     0036H     UNIT         ?PR?INIT_FM1715?MFRC500
            CODE    1385H     002FH     UNIT         ?PR?_SHOWHEX?MAIN
            CODE    13B4H     0029H     UNIT         ?PR?_LCD_WDAT?MAIN
            CODE    13DDH     0028H     UNIT         ?PR?_UART_SEND?MAIN
            CODE    1405H     0027H     UNIT         ?PR?_DISPSTR?LCD1602
            CODE    142CH     0027H     UNIT         ?PR?_LOAD_KEYE2_CPY?MFRC500
            CODE    1453H     0027H     UNIT         ?PR?_SEND?SPI
            CODE    147AH     0026H     UNIT         ?PR?LCD_INIT?MAIN
            CODE    14A0H     0026H     UNIT         ?PR?FM1715_BUS_SEL?MFRC500
            CODE    14C6H     0025H     UNIT         ?PR?_SENDTOLCD?LCD1602
            CODE    14EBH     0024H     UNIT         ?PR?_UART_SEND_STR?MAIN
            CODE    150FH     0021H     UNIT         ?PR?_DELAY_LCD?MAIN
            CODE    1530H     0020H     UNIT         ?PR?_UART_SEND_CHAR?MAIN
            CODE    1550H     0020H     UNIT         ?PR?_DELAY_MS?KEYSCAN
            CODE    1570H     001FH     UNIT         ?PR?_WRITE_FIFO?MFRC500
            CODE    158FH     001DH     UNIT         ?PR?_DISPDECSPACEAT?LCD1602
            CODE    15ACH     001DH     UNIT         ?PR?_DISPDECSHIFTAT?LCD1602
            CODE    15C9H     001CH     UNIT         ?PR?_LCD_WCMD?MAIN
            CODE    15E5H     001CH     UNIT         ?PR?_WRITE_REG?SPI
            CODE    1601H     0019H     UNIT         ?PR?UART_INIT?MAIN
            CODE    161AH     0018H     UNIT         ?PR?INITLCD?LCD1602
            CODE    1632H     0018H     UNIT         ?PR?_READ_REG?SPI
            CODE    164AH     0017H     UNIT         ?PR?CHECK_UID?MFRC500
            CODE    1661H     0017H     UNIT         ?PR?_DELAY1?SPI
            CODE    1678H     0016H     UNIT         ?PR?_DISPSTRAT?LCD1602
            CODE    168EH     0015H     UNIT         ?PR?_JUDGE_REQ?MFRC500
            CODE    16A3H     0014H     UNIT         ?PR?LCD_BUSY?MAIN
            CODE    16B7H     0010H     UNIT         ?PR?_SETCURSORPOS?LCD1602
BL51 BANKED LINKER/LOCATER V6.00                                                      05/27/2020  21:46:29  PAGE 3


            CODE    16C7H     000EH     UNIT         ?PR?LCDINFO?LCD1602
            CODE    16D5H     000AH     UNIT         ?C_INITSEG
            CODE    16DFH     000AH     UNIT         ?CO?LCD1602
            CODE    16E9H     0007H     UNIT         ?PR?ERASELCD?LCD1602
            CODE    16F0H     0006H     UNIT         ?PR?LCDISBUSY?LCD1602



OVERLAY MAP OF MODULE:   new_test (?C_STARTUP)


SEGMENT                                  BIT_GROUP          DATA_GROUP          IDATA_GROUP
  +--> CALLED SEGMENT                 START    LENGTH     START    LENGTH     START    LENGTH
---------------------------------------------------------------------------------------------
?C_C51STARTUP                         -----    -----      -----    -----      -----    -----
  +--> ?PR?MAIN?MAIN
  +--> ?C_INITSEG

?PR?MAIN?MAIN                         -----    -----      0008H    0006H      -----    -----
  +--> ?PR?UART_INIT?MAIN
  +--> ?PR?LCD_INIT?MAIN
  +--> ?CO?MAIN
  +--> ?PR?_DRAW_PM?MAIN
  +--> ?PR?_DELAY_LCD?MAIN
  +--> ?PR?_LCD_WCMD?MAIN
  +--> ?PR?_LCD12864B_WRITE_STR?MAIN
  +--> ?PR?_LCD_WDAT?MAIN
  +--> ?PR?INIT_FM1715?MFRC500
  +--> ?PR?_REQUEST?MFRC500
  +--> ?PR?ANTICOLL?MFRC500
  +--> ?PR?_UART_SEND_CHAR?MAIN
  +--> ?PR?_SHOWHEX?MAIN

?PR?LCD_INIT?MAIN                     -----    -----      -----    -----      -----    -----
  +--> ?PR?_LCD_WCMD?MAIN
  +--> ?PR?_DELAY_LCD?MAIN

?PR?_LCD_WCMD?MAIN                    -----    -----      -----    -----      -----    -----
  +--> ?PR?LCD_BUSY?MAIN

?PR?LCD_BUSY?MAIN                     0020H.2  0000H.1    -----    -----      -----    -----

?PR?_DELAY_LCD?MAIN                   -----    -----      000EH    0001H      -----    -----

?PR?_DRAW_PM?MAIN                     -----    -----      000EH    0003H      -----    -----
  +--> ?PR?_LCD_WCMD?MAIN
  +--> ?PR?_LCD_WDAT?MAIN

?PR?_LCD_WDAT?MAIN                    -----    -----      -----    -----      -----    -----
  +--> ?PR?LCD_BUSY?MAIN

?PR?_LCD12864B_WRITE_STR?MAIN         -----    -----      000EH    0003H      -----    -----
  +--> ?CO?MAIN
  +--> ?PR?_LCD_WCMD?MAIN
  +--> ?PR?_LCD_WDAT?MAIN

?PR?INIT_FM1715?MFRC500               -----    -----      -----    -----      -----    -----
BL51 BANKED LINKER/LOCATER V6.00                                                      05/27/2020  21:46:29  PAGE 4


  +--> ?PR?_READ_REG?SPI
  +--> ?PR?FM1715_BUS_SEL?MFRC500

?PR?_READ_REG?SPI                     -----    -----      -----    -----      0087H    0001H
  +--> ?PR?_SEND?SPI
  +--> ?PR?_REV?SPI

?PR?_SEND?SPI                         -----    -----      -----    -----      -----    -----
  +--> ?PR?_DELAY1?SPI

?PR?_REV?SPI                          -----    -----      -----    -----      0088H    0003H
  +--> ?PR?_DELAY1?SPI

?PR?FM1715_BUS_SEL?MFRC500            -----    -----      000EH    0001H      -----    -----
  +--> ?PR?_WRITE_REG?SPI
  +--> ?PR?_READ_REG?SPI

?PR?_WRITE_REG?SPI                    -----    -----      -----    -----      -----    -----
  +--> ?PR?_SEND?SPI

?PR?_REQUEST?MFRC500                  -----    -----      000EH    0001H      -----    -----
  +--> ?PR?_WRITE_REG?SPI
  +--> ?PR?_DELAY1?SPI
  +--> ?PR?_COMMAND_SEND?MFRC500
  +--> ?PR?_READ_FIFO?MFRC500
  +--> ?PR?_JUDGE_REQ?MFRC500

?PR?_COMMAND_SEND?MFRC500             -----    -----      0012H    0005H      0086H    0001H
  +--> ?PR?_WRITE_REG?SPI
  +--> ?PR?CLEAR_FIFO?MFRC500
  +--> ?PR?_WRITE_FIFO?MFRC500
  +--> ?PR?_READ_REG?SPI

?PR?CLEAR_FIFO?MFRC500                -----    -----      0017H    0003H      -----    -----
  +--> ?PR?_READ_REG?SPI
  +--> ?PR?_WRITE_REG?SPI

?PR?_WRITE_FIFO?MFRC500               -----    -----      0017H    0003H      -----    -----
  +--> ?PR?_WRITE_REG?SPI

?PR?_READ_FIFO?MFRC500                -----    -----      0012H    0003H      -----    -----
  +--> ?PR?_READ_REG?SPI

?PR?ANTICOLL?MFRC500                  -----    -----      000EH    0004H      -----    -----
  +--> ?PR?_WRITE_REG?SPI
  +--> ?PR?_READ_REG?SPI
  +--> ?PR?_READ_FIFO?MFRC500
  +--> ?PR?_SAVE_UID?MFRC500
  +--> ?PR?CHECK_UID?MFRC500
  +--> ?PR?_SET_BITFRAMING?MFRC500
  +--> ?PR?_COMMAND_SEND?MFRC500

?PR?_SAVE_UID?MFRC500                 -----    -----      0012H    0001H      -----    -----

?PR?_SET_BITFRAMING?MFRC500           -----    -----      -----    -----      -----    -----
  +--> ?PR?_WRITE_REG?SPI

BL51 BANKED LINKER/LOCATER V6.00                                                      05/27/2020  21:46:29  PAGE 5


?PR?_SHOWHEX?MAIN                     -----    -----      -----    -----      -----    -----
  +--> ?PR?_LCD_WDAT?MAIN



SYMBOL TABLE OF MODULE:  new_test (?C_STARTUP)

  VALUE           TYPE          NAME
  ----------------------------------

  -------         MODULE        ?C_STARTUP
  C:0E14H         SEGMENT       ?C_C51STARTUP
  I:0094H         SEGMENT       ?STACK
  C:0000H         PUBLIC        ?C_STARTUP
  D:00E0H         SYMBOL        ACC
  D:00F0H         SYMBOL        B
  D:0083H         SYMBOL        DPH
  D:0082H         SYMBOL        DPL
  N:0000H         SYMBOL        IBPSTACK
  N:0100H         SYMBOL        IBPSTACKTOP
  N:0080H         SYMBOL        IDATALEN
  C:0E17H         SYMBOL        IDATALOOP
  N:0000H         SYMBOL        PBPSTACK
  N:0100H         SYMBOL        PBPSTACKTOP
  N:0000H         SYMBOL        PDATALEN
  N:0000H         SYMBOL        PDATASTART
  N:0000H         SYMBOL        PPAGE
  N:0000H         SYMBOL        PPAGEENABLE
  D:00A0H         SYMBOL        PPAGE_SFR
  D:0081H         SYMBOL        SP
  C:0E14H         SYMBOL        STARTUP1
  N:0000H         SYMBOL        XBPSTACK
  N:0000H         SYMBOL        XBPSTACKTOP
  N:0000H         SYMBOL        XDATALEN
  N:0000H         SYMBOL        XDATASTART
  C:0000H         LINE#         126
  C:0E14H         LINE#         133
  C:0E16H         LINE#         134
  C:0E17H         LINE#         135
  C:0E18H         LINE#         136
  C:0E1AH         LINE#         185
  C:0E1DH         LINE#         196
  -------         ENDMOD        ?C_STARTUP

  -------         MODULE        MAIN
  C:0000H         SYMBOL        _ICE_DUMMY_
  D:0080H         PUBLIC        P0
  D:0090H         PUBLIC        P1
  D:00A0H         PUBLIC        P2
  B:00A0H.1       PUBLIC        in_key
  D:00B0H         PUBLIC        P3
  B:00A0H.4       PUBLIC        led2_down
  B:00A0H.2       PUBLIC        out_key
  B:00A8H.7       PUBLIC        EA
  C:1513H         PUBLIC        _delay_lcd
  C:1388H         PUBLIC        _showHEX
  B:0090H.3       PUBLIC        MFRST
BL51 BANKED LINKER/LOCATER V6.00                                                      05/27/2020  21:46:29  PAGE 6


  D:00A8H         PUBLIC        IE
  B:00A8H.4       PUBLIC        ES
  D:00B8H         PUBLIC        IP
  B:0090H.3       PUBLIC        LCD_PSB
  B:0098H.1       PUBLIC        TI
  D:0064H         PUBLIC        updown_flag
  C:15C9H         PUBLIC        _lcd_wcmd
  C:12E2H         PUBLIC        _lcd_mesg
  C:0726H         PUBLIC        main
  C:13C3H         PUBLIC        _lcd_wdat
  C:13DDH         PUBLIC        _uart_send
  C:1544H         PUBLIC        _uart_send_char
  B:00A0H.3       PUBLIC        led1_up
  D:0099H         PUBLIC        SBUF
  D:0098H         PUBLIC        SCON
  D:0089H         PUBLIC        TMOD
  D:0088H         PUBLIC        TCON
  D:0065H         PUBLIC        car_left
  C:1179H         PUBLIC        _LCD12864B_write_str
  B:0090H.2       PUBLIC        LCD_EN
  C:147AH         PUBLIC        lcd_init
  B:00B0H.4       PUBLIC        buzz
  D:008DH         PUBLIC        TH1
  B:0098H.7       PUBLIC        SM0
  D:0066H         PUBLIC        car_pass
  B:0098H.6       PUBLIC        SM1
  D:008BH         PUBLIC        TL1
  C:1601H         PUBLIC        uart_init
  B:0088H.6       PUBLIC        TR1
  C:0049H         PUBLIC        zhu
  B:0090H.0       PUBLIC        LCD_RS
  C:16A3H         PUBLIC        lcd_busy
  B:0090H.1       PUBLIC        LCD_RW
  B:0098H.4       PUBLIC        REN
  C:14EBH         PUBLIC        _uart_send_str
  D:00C8H         PUBLIC        T2CON
  C:1090H         PUBLIC        _Draw_PM
  D:00D0H         PUBLIC        PSW
  B:00B0H.2       PUBLIC        key1
  -------         PROC          UART_INIT
  C:1601H         LINE#         18
  C:1601H         LINE#         19
  C:1601H         LINE#         20
  C:1604H         LINE#         21
  C:1607H         LINE#         22
  C:160AH         LINE#         23
  C:160DH         LINE#         24
  C:160FH         LINE#         26
  C:1611H         LINE#         27
  C:1613H         LINE#         28
  C:1615H         LINE#         29
  C:1617H         LINE#         30
  C:1619H         LINE#         31
  -------         ENDPROC       UART_INIT
  C:1532H         SYMBOL        L?0085
  C:1536H         SYMBOL        L?0086
  C:1539H         SYMBOL        L?0087
BL51 BANKED LINKER/LOCATER V6.00                                                      05/27/2020  21:46:29  PAGE 7


  -------         PROC          L?0084
  -------         ENDPROC       L?0084
  C:1532H         SYMBOL        L?0085
  C:1536H         SYMBOL        L?0086
  C:1539H         SYMBOL        L?0087
  -------         PROC          _UART_SEND_CHAR
  D:0007H         SYMBOL        i
  C:1544H         LINE#         32
  C:1544H         LINE#         33
  C:1544H         LINE#         34
  C:1546H         LINE#         35
  C:1548H         LINE#         36
  C:154BH         LINE#         37
  C:154DH         LINE#         38
  C:154FH         LINE#         39
  -------         ENDPROC       _UART_SEND_CHAR
  -------         PROC          _UART_SEND_STR
  D:0061H         SYMBOL        zifu
  -------         DO            
  D:0004H         SYMBOL        i
  -------         ENDDO         
  C:14EBH         LINE#         40
  C:14F1H         LINE#         41
  C:14F1H         LINE#         42
  C:14F4H         LINE#         43
  C:1504H         LINE#         44
  C:1504H         LINE#         45
  C:1507H         LINE#         46
  C:150CH         LINE#         47
  C:150EH         LINE#         48
  -------         ENDPROC       _UART_SEND_STR
  -------         PROC          _UART_SEND
  D:0002H         SYMBOL        num
  C:13DDH         LINE#         49
  C:13E1H         LINE#         50
  C:13E1H         LINE#         51
  C:13E8H         LINE#         52
  C:13EFH         LINE#         53
  C:13F4H         LINE#         54
  C:13F9H         LINE#         55
  C:1400H         LINE#         56
  -------         ENDPROC       _UART_SEND
  C:150FH         SYMBOL        L?0094
  -------         PROC          L?0093
  -------         ENDPROC       L?0093
  C:150FH         SYMBOL        L?0094
  -------         PROC          _DELAY_LCD
  D:0006H         SYMBOL        ms
  -------         DO            
  D:000EH         SYMBOL        i
  -------         ENDDO         
  C:1513H         LINE#         98
  C:1513H         LINE#         99
  C:1513H         LINE#         100
  C:151DH         LINE#         101
  C:151DH         LINE#         103
  C:1527H         LINE#         104
BL51 BANKED LINKER/LOCATER V6.00                                                      05/27/2020  21:46:29  PAGE 8


  C:1527H         LINE#         105
  C:1528H         LINE#         106
  C:1529H         LINE#         107
  C:152AH         LINE#         108
  C:152BH         LINE#         109
  C:152FH         LINE#         110
  C:152FH         LINE#         111
  -------         ENDPROC       _DELAY_LCD
  -------         PROC          LCD_BUSY
  -------         DO            
  B:0020H.2       SYMBOL        result
  -------         ENDDO         
  C:16A3H         LINE#         117
  C:16A3H         LINE#         118
  C:16A3H         LINE#         121
  C:16A5H         LINE#         122
  C:16A7H         LINE#         123
  C:16A9H         LINE#         124
  C:16ADH         LINE#         125
  C:16B2H         LINE#         126
  C:16B4H         LINE#         127
  C:16B6H         LINE#         128
  -------         ENDPROC       LCD_BUSY
  -------         PROC          _LCD_WCMD
  D:0007H         SYMBOL        cmd
  C:15C9H         LINE#         134
  C:15C9H         LINE#         135
  C:15C9H         LINE#         136
  C:15CEH         LINE#         138
  C:15D0H         LINE#         139
  C:15D2H         LINE#         140
  C:15D4H         LINE#         141
  C:15D5H         LINE#         142
  C:15D6H         LINE#         143
  C:15D8H         LINE#         144
  C:15DCH         LINE#         145
  C:15DEH         LINE#         146
  C:15E2H         LINE#         147
  C:15E4H         LINE#         148
  -------         ENDPROC       _LCD_WCMD
  C:13B4H         SYMBOL        L?0089
  C:13BAH         SYMBOL        L?0090
  -------         PROC          L?0088
  -------         ENDPROC       L?0088
  C:13B4H         SYMBOL        L?0089
  C:13BAH         SYMBOL        L?0090
  -------         PROC          _LCD_WDAT
  D:0007H         SYMBOL        dat
  C:13C3H         LINE#         154
  C:13C3H         LINE#         155
  C:13C3H         LINE#         156
  C:13C8H         LINE#         158
  C:13CAH         LINE#         159
  C:13CCH         LINE#         160
  C:13CEH         LINE#         161
  C:13D0H         LINE#         162
  C:13D4H         LINE#         163
BL51 BANKED LINKER/LOCATER V6.00                                                      05/27/2020  21:46:29  PAGE 9


  C:13D6H         LINE#         164
  C:13DAH         LINE#         165
  C:13DCH         LINE#         166
  -------         ENDPROC       _LCD_WDAT
  -------         PROC          LCD_INIT
  C:147AH         LINE#         172
  C:147AH         LINE#         173
  C:147AH         LINE#         175
  C:147CH         LINE#         177
  C:1481H         LINE#         178
  C:1484H         LINE#         179
  C:1489H         LINE#         180
  C:148CH         LINE#         181
  C:1491H         LINE#         182
  C:1494H         LINE#         183
  C:1499H         LINE#         184
  -------         ENDPROC       LCD_INIT
  -------         PROC          _DRAW_PM
  D:000EH         SYMBOL        ptr
  -------         DO            
  D:0005H         SYMBOL        i
  D:0004H         SYMBOL        j
  D:0006H         SYMBOL        k
  -------         ENDDO         
  C:1090H         LINE#         191
  C:1096H         LINE#         192
  C:1096H         LINE#         194
  C:109BH         LINE#         195
  C:109DH         LINE#         196
  C:109FH         LINE#         197
  C:109FH         LINE#         198
  C:10A5H         LINE#         199
  C:10AAH         LINE#         200
  C:10ACH         LINE#         201
  C:10ACH         LINE#         202
  C:10C1H         LINE#         203
  C:10C5H         LINE#         204
  C:10C9H         LINE#         205
  C:10CBH         LINE#         206
  C:10CDH         LINE#         207
  C:10CDH         LINE#         208
  C:10D3H         LINE#         209
  C:10D8H         LINE#         210
  C:10DAH         LINE#         211
  C:10DAH         LINE#         212
  C:10EFH         LINE#         213
  C:10F3H         LINE#         214
  C:10F7H         LINE#         215
  C:10FCH         LINE#         216
  -------         ENDPROC       _DRAW_PM
  -------         PROC          _LCD_MESG
  D:0082H         SYMBOL        adder1
  -------         DO            
  D:0006H         SYMBOL        i
  -------         ENDDO         
  C:12E2H         LINE#         218
  C:12E6H         LINE#         219
BL51 BANKED LINKER/LOCATER V6.00                                                      05/27/2020  21:46:29  PAGE 10


  C:12E6H         LINE#         221
  C:12EBH         LINE#         222
  C:12F2H         LINE#         223
  C:12F4H         LINE#         224
  C:12F4H         LINE#         225
  C:12FAH         LINE#         226
  C:12FBH         LINE#         227
  C:12FFH         LINE#         229
  C:1304H         LINE#         230
  C:130BH         LINE#         231
  C:130DH         LINE#         232
  C:130DH         LINE#         233
  C:1313H         LINE#         234
  C:1314H         LINE#         235
  C:1318H         LINE#         236
  -------         ENDPROC       _LCD_MESG
  C:1173H         SYMBOL        L?0092
  -------         PROC          L?0091
  -------         ENDPROC       L?0091
  C:1173H         SYMBOL        L?0092
  -------         PROC          _LCD12864B_WRITE_STR
  D:0006H         SYMBOL        y
  D:0005H         SYMBOL        x
  D:000EH         SYMBOL        p
  C:1179H         LINE#         237
  C:1181H         LINE#         238
  C:1181H         LINE#         239
  C:1184H         LINE#         240
  C:1184H         LINE#         241
  C:118BH         LINE#         242
  C:118BH         LINE#         243
  C:118EH         LINE#         244
  C:118EH         LINE#         245
  C:1195H         LINE#         246
  C:1195H         LINE#         247
  C:1198H         LINE#         248
  C:1198H         LINE#         249
  C:119FH         LINE#         250
  C:119FH         LINE#         251
  C:11A2H         LINE#         252
  C:11A2H         LINE#         253
  C:11A9H         LINE#         254
  C:11A9H         LINE#         255
  C:11B4H         LINE#         256
  C:11B4H         LINE#         257
  C:11C5H         LINE#         258
  C:11C7H         LINE#         259
  -------         ENDPROC       _LCD12864B_WRITE_STR
  -------         PROC          L?0095
  -------         ENDPROC       L?0095
  -------         PROC          _SHOWHEX
  D:0006H         SYMBOL        data1
  -------         DO            
  D:0005H         SYMBOL        i
  -------         ENDDO         
  C:1388H         LINE#         260
  C:138AH         LINE#         262
BL51 BANKED LINKER/LOCATER V6.00                                                      05/27/2020  21:46:29  PAGE 11


  C:138FH         LINE#         263
  C:1399H         LINE#         264
  C:139FH         LINE#         265
  C:13A3H         LINE#         266
  C:13ADH         LINE#         267
  C:13B3H         LINE#         268
  -------         ENDPROC       _SHOWHEX
  -------         PROC          MAIN
  -------         DO            
  D:0008H         SYMBOL        i
  D:000AH         SYMBOL        key1_status
  D:000BH         SYMBOL        redata
  D:000CH         SYMBOL        cStatus
  D:000DH         SYMBOL        card_flag
  -------         ENDDO         
  C:0726H         LINE#         273
  C:0726H         LINE#         274
  C:0726H         LINE#         276
  C:0729H         LINE#         277
  C:072CH         LINE#         278
  C:072EH         LINE#         279
  C:0730H         LINE#         280
  C:0733H         LINE#         281
  C:0736H         LINE#         282
  C:073FH         LINE#         283
  C:0741H         LINE#         284
  C:0743H         LINE#         285
  C:0745H         LINE#         286
  C:074CH         LINE#         287
  C:0751H         LINE#         288
  C:0758H         LINE#         289
  C:0764H         LINE#         290
  C:076FH         LINE#         291
  C:0774H         LINE#         292
  C:0777H         LINE#         293
  C:077CH         LINE#         296
  C:0787H         LINE#         298
  C:0789H         LINE#         299
  C:078BH         LINE#         300
  C:078DH         LINE#         301
  C:078FH         LINE#         302
  C:0791H         LINE#         303
  C:0793H         LINE#         305
  C:0793H         LINE#         306
  C:0793H         LINE#         307
  C:0797H         LINE#         308
  C:079AH         LINE#         309
  C:07A1H         LINE#         310
  C:07A5H         LINE#         311
  C:07A5H         LINE#         312
  C:07AAH         LINE#         313
  C:07ACH         LINE#         314
  C:07AFH         LINE#         315
  C:07B6H         LINE#         316
  C:07BCH         LINE#         317
  C:07C2H         LINE#         318
  C:07C8H         LINE#         319
BL51 BANKED LINKER/LOCATER V6.00                                                      05/27/2020  21:46:29  PAGE 12


  C:07CDH         LINE#         320
  C:07D2H         LINE#         321
  C:07DDH         LINE#         323
  C:07E2H         LINE#         324
  C:07E9H         LINE#         325
  C:07ECH         LINE#         326
  C:07EFH         LINE#         327
  C:07F5H         LINE#         328
  C:07F8H         LINE#         329
  C:07FBH         LINE#         330
  C:07FBH         LINE#         331
  C:07FBH         LINE#         333
  C:07FEH         LINE#         334
  C:0805H         LINE#         335
  C:0809H         LINE#         336
  C:0814H         LINE#         337
  C:0817H         LINE#         338
  C:0819H         LINE#         339
  C:0819H         LINE#         340
  C:0824H         LINE#         341
  C:0827H         LINE#         342
  C:0827H         LINE#         343
  C:082AH         LINE#         344
  C:082AH         LINE#         346
  C:082EH         LINE#         347
  C:0830H         LINE#         348
  C:0832H         LINE#         349
  C:0832H         LINE#         351
  C:083BH         LINE#         352
  C:083FH         LINE#         353
  C:0841H         LINE#         354
  C:0843H         LINE#         355
  C:0843H         LINE#         357
  C:084CH         LINE#         358
  C:084EH         LINE#         359
  C:0850H         LINE#         361
  C:0853H         LINE#         362
  C:0855H         LINE#         363
  C:0861H         LINE#         364
  C:0861H         LINE#         365
  C:0868H         LINE#         366
  C:086BH         LINE#         367
  C:086DH         LINE#         368
  C:086FH         LINE#         369
  C:0874H         LINE#         370
  C:0877H         LINE#         371
  C:087CH         LINE#         372
  C:087FH         LINE#         373
  C:088CH         LINE#         374
  C:088FH         LINE#         375
  C:0892H         LINE#         376
  C:0892H         LINE#         378
  C:0895H         LINE#         379
  C:0898H         LINE#         380
  C:089FH         LINE#         381
  C:089FH         LINE#         382
  C:08AEH         LINE#         383
BL51 BANKED LINKER/LOCATER V6.00                                                      05/27/2020  21:46:29  PAGE 13


  C:08B1H         LINE#         384
  C:08B3H         LINE#         385
  C:08B5H         LINE#         386
  C:08BAH         LINE#         387
  C:08BDH         LINE#         388
  C:08C2H         LINE#         390
  C:08C5H         LINE#         391
  C:08D2H         LINE#         392
  C:08D5H         LINE#         393
  -------         ENDPROC       MAIN
  -------         ENDMOD        MAIN

  -------         MODULE        KEYSCAN
  C:0000H         SYMBOL        _ICE_DUMMY_
  D:0090H         PUBLIC        P1
  D:00B0H         PUBLIC        P3
  D:00A8H         PUBLIC        IE
  D:00B8H         PUBLIC        IP
  D:0098H         PUBLIC        SCON
  D:0088H         PUBLIC        TCON
  C:0AA5H         PUBLIC        keyScan
  D:00C8H         PUBLIC        T2CON
  C:1550H         PUBLIC        _Delay_Ms
  D:00D0H         PUBLIC        PSW
  -------         PROC          _DELAY_MS
  D:0006H         SYMBOL        ms
  -------         DO            
  D:0004H         SYMBOL        i
  D:0002H         SYMBOL        j
  -------         ENDDO         
  C:1550H         LINE#         13
  C:1550H         LINE#         14
  C:1550H         LINE#         16
  C:155AH         LINE#         17
  C:156FH         LINE#         18
  -------         ENDPROC       _DELAY_MS
  -------         PROC          KEYSCAN
  -------         DO            
  D:0074H         SYMBOL        key
  D:0007H         SYMBOL        temp
  D:0001H         SYMBOL        temp1
  D:0007H         SYMBOL        temp2
  -------         ENDDO         
  C:0AA5H         LINE#         22
  C:0AA5H         LINE#         24
  C:0AA8H         LINE#         27
  C:0AABH         LINE#         29
  C:0AB6H         LINE#         30
  C:0ABDH         LINE#         31
  C:0AC8H         LINE#         32
  C:0ACDH         LINE#         33
  C:0AD0H         LINE#         34
  C:0AD3H         LINE#         35
  C:0AD8H         LINE#         37
  C:0AE0H         LINE#         40
  C:0AE2H         LINE#         42
  C:0B19H         LINE#         43
BL51 BANKED LINKER/LOCATER V6.00                                                      05/27/2020  21:46:29  PAGE 14


  C:0B1EH         LINE#         44
  C:0B23H         LINE#         45
  C:0B28H         LINE#         46
  C:0B2DH         LINE#         48
  C:0B32H         LINE#         49
  C:0B37H         LINE#         50
  C:0B3CH         LINE#         51
  C:0B41H         LINE#         53
  C:0B46H         LINE#         54
  C:0B4BH         LINE#         55
  C:0B50H         LINE#         56
  C:0B55H         LINE#         58
  C:0B5AH         LINE#         59
  C:0B5FH         LINE#         60
  C:0B64H         LINE#         61
  C:0B67H         LINE#         63
  C:0B67H         LINE#         65
  C:0B67H         LINE#         66
  C:0B67H         LINE#         67
  C:0B67H         LINE#         68
  C:0B69H         LINE#         70
  -------         ENDPROC       KEYSCAN
  -------         ENDMOD        KEYSCAN

  -------         MODULE        LCD1602
  C:0000H         SYMBOL        _ICE_DUMMY_
  D:0080H         PUBLIC        P0
  D:0090H         PUBLIC        P1
  C:0D85H         PUBLIC        _DispDecShift
  D:00A0H         PUBLIC        P2
  D:00B0H         PUBLIC        P3
  C:14C6H         SYMBOL        _SendToLCD
  B:00A8H.7       PUBLIC        EA
  D:00A8H         PUBLIC        IE
  D:00B8H         PUBLIC        IP
  C:158FH         PUBLIC        _DispDecSpaceAt
  C:1405H         PUBLIC        _DispStr
  D:0098H         PUBLIC        SCON
  D:0088H         PUBLIC        TCON
  C:15ACH         PUBLIC        _DispDecShiftAt
  C:16DFH         SYMBOL        _?ix1000
  C:16B7H         PUBLIC        _SetCursorPos
  C:16E9H         PUBLIC        EraseLCD
  C:16F0H         SYMBOL        LCDisBusy
  B:00A0H.7       PUBLIC        RS_LCD
  B:00A0H.6       PUBLIC        RW_LCD
  C:16C7H         PUBLIC        LCDInfo
  C:1678H         PUBLIC        _DispStrAt
  D:00C8H         PUBLIC        T2CON
  C:161AH         PUBLIC        InitLCD
  C:1101H         PUBLIC        _DispDecSpace
  B:00A0H.5       PUBLIC        E_LCD
  D:00D0H         PUBLIC        PSW
  -------         PROC          _DISPSTRAT
  D:005CH         SYMBOL        pStr
  D:0007H         SYMBOL        x
  D:0060H         SYMBOL        y
BL51 BANKED LINKER/LOCATER V6.00                                                      05/27/2020  21:46:29  PAGE 15


  C:1678H         LINE#         41
  C:1680H         LINE#         42
  C:1680H         LINE#         43
  C:1685H         LINE#         44
  -------         ENDPROC       _DISPSTRAT
  -------         PROC          _DISPSTR
  D:0067H         SYMBOL        pStr
  C:1405H         LINE#         49
  C:140BH         LINE#         50
  C:140BH         LINE#         51
  C:1416H         LINE#         52
  C:1416H         LINE#         54
  C:1429H         LINE#         55
  C:142BH         LINE#         56
  -------         ENDPROC       _DISPSTR
  -------         PROC          _DISPDECSPACE
  D:0021H         SYMBOL        Num
  D:0025H         SYMBOL        Len
  -------         DO            
  D:0026H         SYMBOL        i
  D:0027H         SYMBOL        vec
  -------         ENDDO         
  C:1101H         LINE#         69
  C:1109H         LINE#         70
  C:1109H         LINE#         71
  C:110CH         LINE#         72
  C:111FH         LINE#         74
  C:1122H         LINE#         77
  C:1122H         LINE#         78
  C:1140H         LINE#         79
  C:1159H         LINE#         80
  C:1159H         LINE#         81
  C:115FH         LINE#         82
  C:1166H         LINE#         83
  -------         ENDPROC       _DISPDECSPACE
  -------         PROC          _DISPDECSPACEAT
  D:004EH         SYMBOL        Num
  D:0052H         SYMBOL        x
  D:0053H         SYMBOL        y
  D:0054H         SYMBOL        Len
  C:158FH         LINE#         88
  C:1597H         LINE#         89
  C:1597H         LINE#         90
  C:159EH         LINE#         91
  -------         ENDPROC       _DISPDECSPACEAT
  -------         PROC          _DISPDECSHIFTAT
  D:0055H         SYMBOL        Num
  D:0059H         SYMBOL        x
  D:005AH         SYMBOL        y
  D:005BH         SYMBOL        DotPos
  C:15ACH         LINE#         96
  C:15B4H         LINE#         97
  C:15B4H         LINE#         98
  C:15BBH         LINE#         99
  -------         ENDPROC       _DISPDECSHIFTAT
  -------         PROC          _DISPDECSHIFT
  D:0031H         SYMBOL        Num
BL51 BANKED LINKER/LOCATER V6.00                                                      05/27/2020  21:46:29  PAGE 16


  D:0035H         SYMBOL        DotPos
  -------         DO            
  D:0036H         SYMBOL        i
  D:0037H         SYMBOL        vec
  -------         ENDDO         
  C:0D85H         LINE#         104
  C:0D8DH         LINE#         105
  C:0D8DH         LINE#         106
  C:0D90H         LINE#         109
  C:0D93H         LINE#         112
  C:0D93H         LINE#         113
  C:0D9FH         LINE#         114
  C:0D9FH         LINE#         115
  C:0DA8H         LINE#         116
  C:0DA8H         LINE#         117
  C:0DC6H         LINE#         118
  C:0DDFH         LINE#         119
  C:0DDFH         LINE#         120
  C:0DE5H         LINE#         122
  C:0DF1H         LINE#         123
  C:0DF1H         LINE#         124
  C:0DF5H         LINE#         125
  C:0DF5H         LINE#         126
  C:0DFEH         LINE#         127
  C:0DFEH         LINE#         128
  C:0E07H         LINE#         129
  C:0E09H         LINE#         131
  -------         ENDPROC       _DISPDECSHIFT
  -------         PROC          _SETCURSORPOS
  D:0007H         SYMBOL        x
  D:0005H         SYMBOL        y
  -------         DO            
  D:0007H         SYMBOL        addr
  -------         ENDDO         
  C:16B7H         LINE#         154
  C:16B7H         LINE#         155
  C:16B7H         LINE#         158
  C:16C2H         LINE#         159
  -------         ENDPROC       _SETCURSORPOS
  -------         PROC          INITLCD
  C:161AH         LINE#         178
  C:161AH         LINE#         179
  C:161AH         LINE#         181
  C:1621H         LINE#         185
  C:1628H         LINE#         189
  C:162FH         LINE#         200
  -------         ENDPROC       INITLCD
  -------         PROC          ERASELCD
  C:16E9H         LINE#         204
  C:16E9H         LINE#         205
  C:16E9H         LINE#         206
  -------         ENDPROC       ERASELCD
  -------         PROC          _SENDTOLCD
  D:0070H         SYMBOL        val
  B:0020H.0       SYMBOL        flag
  -------         DO            
  B:0020H.1       SYMBOL        EAFlag
BL51 BANKED LINKER/LOCATER V6.00                                                      05/27/2020  21:46:29  PAGE 17


  D:0071H         SYMBOL        timeout
  -------         ENDDO         
  C:14C6H         LINE#         210
  C:14C8H         LINE#         211
  C:14C8H         LINE#         213
  C:14CBH         LINE#         215
  C:14CFH         LINE#         216
  C:14D1H         LINE#         218
  C:14D9H         LINE#         219
  C:14DDH         LINE#         220
  C:14DFH         LINE#         221
  C:14E2H         LINE#         222
  C:14E4H         LINE#         223
  C:14E6H         LINE#         225
  C:14EAH         LINE#         226
  -------         ENDPROC       _SENDTOLCD
  -------         PROC          LCDINFO
  -------         DO            
  D:0007H         SYMBOL        info
  -------         ENDDO         
  C:16C7H         LINE#         229
  C:16C7H         LINE#         230
  C:16C7H         LINE#         231
  C:16C7H         LINE#         233
  C:16CAH         LINE#         234
  C:16CCH         LINE#         235
  C:16CEH         LINE#         236
  C:16D0H         LINE#         237
  C:16D2H         LINE#         238
  C:16D4H         LINE#         240
  C:16D4H         LINE#         241
  -------         ENDPROC       LCDINFO
  -------         PROC          LCDISBUSY
  C:16F0H         LINE#         244
  C:16F0H         LINE#         245
  C:16F0H         LINE#         246
  C:16F5H         LINE#         247
  -------         ENDPROC       LCDISBUSY
  -------         ENDMOD        LCD1602

  -------         MODULE        MFRC500
  C:0000H         SYMBOL        _ICE_DUMMY_
  D:0090H         PUBLIC        P1
  I:0075H         PUBLIC        tagtype
  D:00B0H         PUBLIC        P3
  C:0F24H         PUBLIC        _M500HostCodeKey
  B:0090H.3       PUBLIC        MFRST
  D:00A8H         PUBLIC        IE
  C:11C8H         PUBLIC        _Command_Send
  D:00B8H         PUBLIC        IP
  C:08DDH         PUBLIC        AntiColl
  C:164AH         PUBLIC        Check_UID
  C:09C5H         PUBLIC        _Authentication
  C:0CDBH         PUBLIC        _MIF_Write
  C:0C28H         PUBLIC        _Save_UID
  D:0098H         PUBLIC        SCON
  D:0088H         PUBLIC        TCON
BL51 BANKED LINKER/LOCATER V6.00                                                      05/27/2020  21:46:29  PAGE 18


  C:0FA3H         PUBLIC        _MIF_READ
  C:0EA0H         PUBLIC        Select_Card
  B:0090H.7       PUBLIC        sck
  C:1219H         PUBLIC        MIF_Halt
  C:101DH         PUBLIC        _Request
  C:142CH         PUBLIC        _Load_keyE2_CPY
  C:0B6AH         PUBLIC        _Set_BitFraming
  C:134FH         PUBLIC        Init_FM1715
  C:168EH         PUBLIC        _Judge_Req
  I:0077H         PUBLIC        UID
  C:1319H         PUBLIC        _Read_FIFO
  D:00C8H         PUBLIC        T2CON
  C:12AAH         PUBLIC        Clear_FIFO
  C:1570H         PUBLIC        _Write_FIFO
  C:14A0H         PUBLIC        FM1715_Bus_Sel
  D:00D0H         PUBLIC        PSW
  I:007CH         PUBLIC        buffer
  -------         PROC          CLEAR_FIFO
  -------         DO            
  D:0017H         SYMBOL        temp
  D:0018H         SYMBOL        i
  -------         ENDDO         
  C:12AAH         LINE#         37
  C:12AAH         LINE#         38
  C:12AAH         LINE#         42
  C:12B1H         LINE#         43
  C:12B4H         LINE#         44
  C:12BBH         LINE#         45
  C:12C0H         LINE#         46
  C:12C0H         LINE#         47
  C:12C7H         LINE#         48
  C:12CBH         LINE#         49
  C:12CBH         LINE#         50
  C:12CEH         LINE#         51
  C:12CEH         LINE#         52
  C:12DFH         LINE#         53
  C:12E1H         LINE#         54
  -------         ENDPROC       CLEAR_FIFO
  -------         PROC          _WRITE_FIFO
  D:0017H         SYMBOL        count
  D:0018H         SYMBOL        buff
  -------         DO            
  D:0019H         SYMBOL        i
  -------         ENDDO         
  C:1570H         LINE#         67
  C:1574H         LINE#         68
  C:1574H         LINE#         71
  C:157EH         LINE#         72
  C:157EH         LINE#         73
  C:158AH         LINE#         74
  C:158EH         LINE#         75
  -------         ENDPROC       _WRITE_FIFO
  -------         PROC          _READ_FIFO
  D:0012H         SYMBOL        buff
  -------         DO            
  D:0013H         SYMBOL        temp
  D:0014H         SYMBOL        i
BL51 BANKED LINKER/LOCATER V6.00                                                      05/27/2020  21:46:29  PAGE 19


  -------         ENDDO         
  C:1319H         LINE#         87
  C:131BH         LINE#         88
  C:131BH         LINE#         92
  C:1322H         LINE#         93
  C:1326H         LINE#         94
  C:1326H         LINE#         95
  C:1328H         LINE#         96
  C:1328H         LINE#         97
  C:132FH         LINE#         98
  C:132FH         LINE#         99
  C:1332H         LINE#         100
  C:1332H         LINE#         101
  C:133CH         LINE#         102
  C:133CH         LINE#         103
  C:1348H         LINE#         104
  C:134CH         LINE#         105
  C:134EH         LINE#         106
  -------         ENDPROC       _READ_FIFO
  -------         PROC          _JUDGE_REQ
  D:0000H         SYMBOL        buff
  -------         DO            
  D:0007H         SYMBOL        temp1
  D:0006H         SYMBOL        temp2
  -------         ENDDO         
  C:168EH         LINE#         119
  C:1690H         LINE#         120
  C:1690H         LINE#         123
  C:1692H         LINE#         124
  C:1697H         LINE#         127
  C:169DH         LINE#         128
  C:169DH         LINE#         129
  C:16A0H         LINE#         130
  C:16A0H         LINE#         131
  C:16A2H         LINE#         132
  -------         ENDPROC       _JUDGE_REQ
  -------         PROC          CHECK_UID
  -------         DO            
  D:0007H         SYMBOL        temp
  D:0006H         SYMBOL        i
  -------         ENDDO         
  C:164AH         LINE#         141
  C:164AH         LINE#         142
  C:164AH         LINE#         148
  C:164CH         LINE#         149
  C:164DH         LINE#         150
  C:164DH         LINE#         151
  C:1654H         LINE#         152
  C:1658H         LINE#         154
  C:165BH         LINE#         155
  C:165BH         LINE#         156
  C:165EH         LINE#         157
  C:165EH         LINE#         159
  C:1660H         LINE#         160
  -------         ENDPROC       CHECK_UID
  -------         PROC          _SAVE_UID
  D:0001H         SYMBOL        row
BL51 BANKED LINKER/LOCATER V6.00                                                      05/27/2020  21:46:29  PAGE 20


  D:0005H         SYMBOL        col
  D:0012H         SYMBOL        length
  -------         DO            
  D:0006H         SYMBOL        i
  D:0007H         SYMBOL        temp
  D:0004H         SYMBOL        temp1
  -------         ENDDO         
  C:0C28H         LINE#         170
  C:0C2CH         LINE#         171
  C:0C2CH         LINE#         178
  C:0C32H         LINE#         179
  C:0C32H         LINE#         180
  C:0C3CH         LINE#         181
  C:0C3CH         LINE#         182
  C:0C48H         LINE#         183
  C:0C4BH         LINE#         184
  C:0C4BH         LINE#         186
  C:0C4BH         LINE#         187
  C:0C4FH         LINE#         188
  C:0C55H         LINE#         189
  C:0C7AH         LINE#         190
  C:0C7AH         LINE#         191
  C:0C7FH         LINE#         192
  C:0C87H         LINE#         193
  C:0C8FH         LINE#         194
  C:0C97H         LINE#         195
  C:0C9FH         LINE#         196
  C:0CA7H         LINE#         197
  C:0CAFH         LINE#         198
  C:0CB5H         LINE#         199
  C:0CB5H         LINE#         200
  C:0CB5H         LINE#         202
  C:0CB9H         LINE#         203
  C:0CC2H         LINE#         204
  C:0CCAH         LINE#         205
  C:0CCAH         LINE#         206
  C:0CD7H         LINE#         207
  C:0CDAH         LINE#         208
  C:0CDAH         LINE#         209
  -------         ENDPROC       _SAVE_UID
  -------         PROC          _SET_BITFRAMING
  D:0007H         SYMBOL        row
  D:0005H         SYMBOL        col
  C:0B6AH         LINE#         218
  C:0B6AH         LINE#         219
  C:0B6AH         LINE#         220
  C:0B7BH         LINE#         221
  C:0B7BH         LINE#         222
  C:0B81H         LINE#         223
  C:0B87H         LINE#         224
  C:0B8DH         LINE#         225
  C:0B93H         LINE#         226
  C:0B97H         LINE#         227
  C:0B97H         LINE#         228
  C:0B97H         LINE#         230
  C:0BBFH         LINE#         231
  C:0BBFH         LINE#         232
BL51 BANKED LINKER/LOCATER V6.00                                                      05/27/2020  21:46:29  PAGE 21


  C:0BC6H         LINE#         233
  C:0BD4H         LINE#         234
  C:0BE2H         LINE#         235
  C:0BF0H         LINE#         236
  C:0BFEH         LINE#         237
  C:0C0CH         LINE#         238
  C:0C1AH         LINE#         239
  C:0C27H         LINE#         240
  C:0C27H         LINE#         241
  C:0C27H         LINE#         242
  -------         ENDPROC       _SET_BITFRAMING
  -------         PROC          FM1715_BUS_SEL
  -------         DO            
  D:000EH         SYMBOL        i
  D:0007H         SYMBOL        temp
  -------         ENDDO         
  C:14A0H         LINE#         255
  C:14A0H         LINE#         256
  C:14A0H         LINE#         259
  C:14A7H         LINE#         260
  C:14AAH         LINE#         261
  C:14AAH         LINE#         262
  C:14AFH         LINE#         263
  C:14B2H         LINE#         264
  C:14B2H         LINE#         265
  C:14B7H         LINE#         266
  C:14BAH         LINE#         267
  C:14BAH         LINE#         268
  C:14C3H         LINE#         269
  C:14C5H         LINE#         270
  -------         ENDPROC       FM1715_BUS_SEL
  -------         PROC          INIT_FM1715
  -------         DO            
  D:0006H         SYMBOL        i
  D:0006H         SYMBOL        dat
  -------         ENDDO         
  C:134FH         LINE#         272
  C:134FH         LINE#         273
  C:134FH         LINE#         276
  C:1351H         LINE#         277
  C:1354H         LINE#         278
  C:1354H         LINE#         279
  C:1355H         LINE#         280
  C:1360H         LINE#         281
  C:1362H         LINE#         282
  C:1365H         LINE#         283
  C:1365H         LINE#         284
  C:1366H         LINE#         285
  C:1371H         LINE#         286
  C:1373H         LINE#         287
  C:1375H         LINE#         288
  C:1382H         LINE#         289
  -------         ENDPROC       INIT_FM1715
  -------         PROC          _COMMAND_SEND
  D:0012H         SYMBOL        count
  D:0013H         SYMBOL        buff
  D:0014H         SYMBOL        Comm_Set
BL51 BANKED LINKER/LOCATER V6.00                                                      05/27/2020  21:46:29  PAGE 22


  -------         DO            
  D:0015H         SYMBOL        j
  I:0086H         SYMBOL        temp
  -------         ENDDO         
  C:11C8H         LINE#         305
  C:11CEH         LINE#         306
  C:11CEH         LINE#         310
  C:11D5H         LINE#         311
  C:11D8H         LINE#         312
  C:11DCH         LINE#         313
  C:11DCH         LINE#         314
  C:11E2H         LINE#         315
  C:11E2H         LINE#         316
  C:11EBH         LINE#         318
  C:11F2H         LINE#         320
  C:11F7H         LINE#         321
  C:11F7H         LINE#         322
  C:1200H         LINE#         323
  C:1202H         LINE#         324
  C:1202H         LINE#         325
  C:1205H         LINE#         326
  C:1205H         LINE#         327
  C:1216H         LINE#         328
  C:1218H         LINE#         329
  -------         ENDPROC       _COMMAND_SEND
  -------         PROC          MIF_HALT
  -------         DO            
  D:0007H         SYMBOL        temp
  D:0004H         SYMBOL        i
  -------         ENDDO         
  C:1219H         LINE#         340
  C:1219H         LINE#         341
  C:1219H         LINE#         347
  C:1220H         LINE#         348
  C:1227H         LINE#         349
  C:122EH         LINE#         350
  C:1232H         LINE#         351
  C:1235H         LINE#         352
  C:123EH         LINE#         353
  C:1241H         LINE#         354
  C:1241H         LINE#         355
  C:1244H         LINE#         356
  C:1244H         LINE#         357
  C:1245H         LINE#         358
  C:1250H         LINE#         360
  C:1253H         LINE#         361
  C:1253H         LINE#         363
  C:1253H         LINE#         364
  C:1258H         LINE#         365
  C:125CH         LINE#         366
  C:125CH         LINE#         367
  C:125FH         LINE#         368
  C:125FH         LINE#         370
  C:1263H         LINE#         371
  C:1263H         LINE#         372
  C:1266H         LINE#         373
  C:1266H         LINE#         375
BL51 BANKED LINKER/LOCATER V6.00                                                      05/27/2020  21:46:29  PAGE 23


  C:1268H         LINE#         376
  C:1268H         LINE#         377
  -------         ENDPROC       MIF_HALT
  -------         PROC          _M500HOSTCODEKEY
  D:001AH         SYMBOL        uncoded
  D:001DH         SYMBOL        coded
  -------         DO            
  I:008BH         SYMBOL        status
  I:008CH         SYMBOL        cnt
  I:008DH         SYMBOL        ln
  I:008EH         SYMBOL        hn
  -------         ENDDO         
  C:0F24H         LINE#         382
  C:0F2AH         LINE#         383
  C:0F2AH         LINE#         384
  C:0F2EH         LINE#         385
  C:0F30H         LINE#         386
  C:0F32H         LINE#         387
  C:0F34H         LINE#         389
  C:0F40H         LINE#         390
  C:0F40H         LINE#         391
  C:0F56H         LINE#         392
  C:0F5CH         LINE#         393
  C:0F7DH         LINE#         394
  C:0F9BH         LINE#         395
  C:0FA0H         LINE#         396
  C:0FA2H         LINE#         397
  -------         ENDPROC       _M500HOSTCODEKEY
  -------         PROC          _LOAD_KEYE2_CPY
  D:0001H         SYMBOL        uncoded_keys
  -------         DO            
  D:0007H         SYMBOL        temp
  D:0041H         SYMBOL        coded_keys
  -------         ENDDO         
  C:142CH         LINE#         406
  C:142CH         LINE#         407
  C:142CH         LINE#         411
  C:1438H         LINE#         412
  C:1441H         LINE#         413
  C:144AH         LINE#         414
  C:144DH         LINE#         415
  C:144DH         LINE#         416
  C:1450H         LINE#         417
  C:1450H         LINE#         418
  C:1452H         LINE#         419
  -------         ENDPROC       _LOAD_KEYE2_CPY
  -------         PROC          _REQUEST
  D:000EH         SYMBOL        mode
  -------         DO            
  D:0007H         SYMBOL        temp
  -------         ENDDO         
  C:101DH         LINE#         434
  C:101FH         LINE#         435
  C:101FH         LINE#         438
  C:1026H         LINE#         439
  C:102DH         LINE#         440
  C:1034H         LINE#         441
BL51 BANKED LINKER/LOCATER V6.00                                                      05/27/2020  21:46:29  PAGE 24


  C:103BH         LINE#         442
  C:1042H         LINE#         443
  C:1046H         LINE#         444
  C:104DH         LINE#         445
  C:1054H         LINE#         446
  C:105BH         LINE#         447
  C:1062H         LINE#         448
  C:106BH         LINE#         449
  C:106EH         LINE#         450
  C:106EH         LINE#         451
  C:1071H         LINE#         452
  C:1071H         LINE#         454
  C:1076H         LINE#         455
  C:107BH         LINE#         456
  C:107EH         LINE#         457
  C:107EH         LINE#         458
  C:1084H         LINE#         459
  C:108AH         LINE#         460
  C:108DH         LINE#         461
  C:108DH         LINE#         462
  C:108FH         LINE#         463
  -------         ENDPROC       _REQUEST
  -------         PROC          ANTICOLL
  -------         DO            
  D:000EH         SYMBOL        temp
  D:0007H         SYMBOL        i
  D:000FH         SYMBOL        row
  D:0010H         SYMBOL        col
  D:0011H         SYMBOL        pre_row
  -------         ENDDO         
  C:08DDH         LINE#         474
  C:08DDH         LINE#         475
  C:08DDH         LINE#         483
  C:08E0H         LINE#         484
  C:08E2H         LINE#         485
  C:08E4H         LINE#         486
  C:08EBH         LINE#         487
  C:08F2H         LINE#         488
  C:08F9H         LINE#         489
  C:08FDH         LINE#         490
  C:0900H         LINE#         491
  C:0907H         LINE#         492
  C:0910H         LINE#         493
  C:0910H         LINE#         494
  C:0910H         LINE#         495
  C:0914H         LINE#         496
  C:0914H         LINE#         497
  C:0917H         LINE#         498
  C:0917H         LINE#         500
  C:091EH         LINE#         502
  C:0925H         LINE#         503
  C:0929H         LINE#         504
  C:0929H         LINE#         505
  C:092CH         LINE#         506
  C:092CH         LINE#         508
  C:0931H         LINE#         509
  C:093AH         LINE#         511
BL51 BANKED LINKER/LOCATER V6.00                                                      05/27/2020  21:46:29  PAGE 25


  C:0941H         LINE#         512
  C:0944H         LINE#         513
  C:0948H         LINE#         514
  C:0948H         LINE#         515
  C:094DH         LINE#         516
  C:0951H         LINE#         517
  C:0951H         LINE#         518
  C:0954H         LINE#         519
  C:0954H         LINE#         521
  C:0957H         LINE#         522
  C:0957H         LINE#         524
  C:0957H         LINE#         525
  C:095EH         LINE#         526
  C:0967H         LINE#         527
  C:096DH         LINE#         528
  C:0971H         LINE#         529
  C:097BH         LINE#         530
  C:0981H         LINE#         531
  C:0997H         LINE#         532
  C:0997H         LINE#         533
  C:09A3H         LINE#         534
  C:09A6H         LINE#         536
  C:09AAH         LINE#         537
  C:09AAH         LINE#         538
  C:09AFH         LINE#         539
  C:09B1H         LINE#         541
  C:09B1H         LINE#         542
  C:09B4H         LINE#         543
  C:09B4H         LINE#         544
  C:09C2H         LINE#         545
  C:09C2H         LINE#         546
  -------         ENDPROC       ANTICOLL
  -------         PROC          SELECT_CARD
  -------         DO            
  D:0007H         SYMBOL        temp
  D:0007H         SYMBOL        i
  -------         ENDDO         
  C:0EA0H         LINE#         559
  C:0EA0H         LINE#         560
  C:0EA0H         LINE#         565
  C:0EA7H         LINE#         566
  C:0EAEH         LINE#         567
  C:0EB2H         LINE#         568
  C:0EB5H         LINE#         569
  C:0EB7H         LINE#         570
  C:0EB7H         LINE#         571
  C:0EC3H         LINE#         572
  C:0EC7H         LINE#         574
  C:0ECEH         LINE#         575
  C:0ED7H         LINE#         576
  C:0EDAH         LINE#         577
  C:0EDAH         LINE#         578
  C:0EDDH         LINE#         579
  C:0EDDH         LINE#         581
  C:0EDDH         LINE#         582
  C:0EE2H         LINE#         583
  C:0EE9H         LINE#         584
BL51 BANKED LINKER/LOCATER V6.00                                                      05/27/2020  21:46:29  PAGE 26


  C:0EF0H         LINE#         585
  C:0EF7H         LINE#         586
  C:0EFCH         LINE#         587
  C:0F04H         LINE#         588
  C:0F09H         LINE#         589
  C:0F0DH         LINE#         591
  C:0F1EH         LINE#         592
  C:0F21H         LINE#         594
  C:0F23H         LINE#         595
  C:0F23H         LINE#         596
  -------         ENDPROC       SELECT_CARD
  -------         PROC          _AUTHENTICATION
  D:006AH         SYMBOL        UID
  D:006BH         SYMBOL        SecNR
  D:006CH         SYMBOL        mode
  -------         DO            
  I:008FH         SYMBOL        i
  I:0090H         SYMBOL        temp
  I:0091H         SYMBOL        temp1
  -------         ENDDO         
  C:09C5H         LINE#         610
  C:09CBH         LINE#         611
  C:09CBH         LINE#         617
  C:09D2H         LINE#         618
  C:09D9H         LINE#         619
  C:09E0H         LINE#         620
  C:09E9H         LINE#         621
  C:09EDH         LINE#         622
  C:09F2H         LINE#         623
  C:09F9H         LINE#         624
  C:09FDH         LINE#         626
  C:09FFH         LINE#         627
  C:0A0AH         LINE#         628
  C:0A0EH         LINE#         629
  C:0A0EH         LINE#         630
  C:0A1DH         LINE#         631
  C:0A24H         LINE#         633
  C:0A2BH         LINE#         634
  C:0A38H         LINE#         635
  C:0A3AH         LINE#         636
  C:0A3AH         LINE#         637
  C:0A3DH         LINE#         638
  C:0A3DH         LINE#         640
  C:0A46H         LINE#         641
  C:0A4CH         LINE#         642
  C:0A56H         LINE#         643
  C:0A5DH         LINE#         644
  C:0A6AH         LINE#         645
  C:0A6CH         LINE#         646
  C:0A6CH         LINE#         647
  C:0A6FH         LINE#         648
  C:0A6FH         LINE#         650
  C:0A78H         LINE#         651
  C:0A7EH         LINE#         652
  C:0A88H         LINE#         653
  C:0A8FH         LINE#         654
  C:0A98H         LINE#         655
BL51 BANKED LINKER/LOCATER V6.00                                                      05/27/2020  21:46:29  PAGE 27


  C:0A9CH         LINE#         656
  C:0A9FH         LINE#         657
  C:0A9FH         LINE#         658
  C:0AA2H         LINE#         659
  C:0AA2H         LINE#         661
  C:0AA4H         LINE#         662
  -------         ENDPROC       _AUTHENTICATION
  -------         PROC          _MIF_READ
  D:0072H         SYMBOL        buff
  D:0073H         SYMBOL        Block_Adr
  -------         DO            
  I:0092H         SYMBOL        temp
  -------         ENDDO         
  C:0FA3H         LINE#         675
  C:0FA7H         LINE#         676
  C:0FA7H         LINE#         681
  C:0FAEH         LINE#         682
  C:0FB5H         LINE#         683
  C:0FBCH         LINE#         684
  C:0FC3H         LINE#         686
  C:0FC7H         LINE#         687
  C:0FCCH         LINE#         688
  C:0FD9H         LINE#         689
  C:0FDBH         LINE#         690
  C:0FDBH         LINE#         691
  C:0FDEH         LINE#         692
  C:0FDEH         LINE#         694
  C:0FE7H         LINE#         695
  C:0FEDH         LINE#         696
  C:0FF7H         LINE#         697
  C:0FFEH         LINE#         698
  C:1007H         LINE#         699
  C:100AH         LINE#         700
  C:100AH         LINE#         701
  C:100AH         LINE#         702
  C:100CH         LINE#         703
  C:100CH         LINE#         704
  C:1012H         LINE#         705
  C:1012H         LINE#         706
  C:1017H         LINE#         707
  C:101AH         LINE#         708
  C:101AH         LINE#         710
  C:101AH         LINE#         711
  C:101CH         LINE#         712
  C:101CH         LINE#         713
  -------         ENDPROC       _MIF_READ
  -------         PROC          _MIF_WRITE
  D:006DH         SYMBOL        buff
  D:006EH         SYMBOL        Block_Adr
  -------         DO            
  I:0093H         SYMBOL        temp
  D:006FH         SYMBOL        F_buff
  -------         ENDDO         
  C:0CDBH         LINE#         729
  C:0CDFH         LINE#         730
  C:0CDFH         LINE#         736
  C:0CE6H         LINE#         737
BL51 BANKED LINKER/LOCATER V6.00                                                      05/27/2020  21:46:29  PAGE 28


  C:0CEDH         LINE#         738
  C:0CF3H         LINE#         739
  C:0CFAH         LINE#         740
  C:0CFEH         LINE#         741
  C:0D03H         LINE#         742
  C:0D10H         LINE#         743
  C:0D12H         LINE#         744
  C:0D12H         LINE#         745
  C:0D15H         LINE#         746
  C:0D15H         LINE#         748
  C:0D1EH         LINE#         749
  C:0D20H         LINE#         750
  C:0D20H         LINE#         751
  C:0D23H         LINE#         752
  C:0D23H         LINE#         754
  C:0D28H         LINE#         755
  C:0D2EH         LINE#         756
  C:0D40H         LINE#         757
  C:0D40H         LINE#         758
  C:0D43H         LINE#         759
  C:0D46H         LINE#         760
  C:0D46H         LINE#         761
  C:0D49H         LINE#         762
  C:0D4CH         LINE#         763
  C:0D4FH         LINE#         764
  C:0D4FH         LINE#         766
  C:0D5CH         LINE#         767
  C:0D5FH         LINE#         768
  C:0D5FH         LINE#         769
  C:0D62H         LINE#         770
  C:0D62H         LINE#         772
  C:0D62H         LINE#         773
  C:0D6BH         LINE#         774
  C:0D6EH         LINE#         775
  C:0D71H         LINE#         776
  C:0D78H         LINE#         777
  C:0D7BH         LINE#         778
  C:0D7FH         LINE#         779
  C:0D82H         LINE#         781
  C:0D84H         LINE#         782
  C:0D84H         LINE#         783
  -------         ENDPROC       _MIF_WRITE
  -------         ENDMOD        MFRC500

  -------         MODULE        SPI
  C:0000H         SYMBOL        _ICE_DUMMY_
  D:0090H         PUBLIC        P1
  D:00B0H         PUBLIC        P3
  B:0090H.4       PUBLIC        spi_cs
  D:00A8H         PUBLIC        IE
  D:00B8H         PUBLIC        IP
  B:00D0H.7       PUBLIC        CY
  C:1632H         PUBLIC        _read_reg
  C:1665H         PUBLIC        _delay1
  C:1269H         PUBLIC        _rev
  C:15E5H         PUBLIC        _write_reg
  D:0098H         PUBLIC        SCON
BL51 BANKED LINKER/LOCATER V6.00                                                      05/27/2020  21:46:29  PAGE 29


  D:0088H         PUBLIC        TCON
  B:0090H.7       PUBLIC        sck
  B:0090H.5       PUBLIC        si
  B:0090H.6       PUBLIC        so
  D:00C8H         PUBLIC        T2CON
  C:1453H         PUBLIC        _Send
  D:00D0H         PUBLIC        PSW
  C:1661H         SYMBOL        L?0022
  -------         PROC          L?0021
  -------         ENDPROC       L?0021
  C:1661H         SYMBOL        L?0022
  -------         PROC          _DELAY1
  D:0006H         SYMBOL        dlength
  -------         DO            
  D:0004H         SYMBOL        i
  -------         ENDDO         
  C:1665H         LINE#         11
  C:1665H         LINE#         12
  C:1665H         LINE#         14
  C:166FH         LINE#         15
  C:166FH         LINE#         16
  C:1670H         LINE#         17
  C:1677H         LINE#         18
  -------         ENDPROC       _DELAY1
  -------         PROC          _REV
  D:0003H         SYMBOL        tem
  -------         DO            
  I:0088H         SYMBOL        i
  I:0089H         SYMBOL        var
  I:008AH         SYMBOL        var_snt
  -------         ENDDO         
  C:1269H         LINE#         20
  C:126BH         LINE#         21
  C:126BH         LINE#         23
  C:1271H         LINE#         25
  C:1273H         LINE#         26
  C:1275H         LINE#         27
  C:1275H         LINE#         28
  C:127CH         LINE#         29
  C:1283H         LINE#         30
  C:1285H         LINE#         31
  C:1289H         LINE#         32
  C:128FH         LINE#         33
  C:1291H         LINE#         34
  C:1294H         LINE#         35
  C:1295H         LINE#         36
  C:1297H         LINE#         37
  C:129AH         LINE#         38
  C:129CH         LINE#         39
  C:12A5H         LINE#         40
  C:12A9H         LINE#         41
  -------         ENDPROC       _REV
  -------         PROC          _SEND
  D:0003H         SYMBOL        var
  -------         DO            
  D:0002H         SYMBOL        i
  D:0007H         SYMBOL        tem
BL51 BANKED LINKER/LOCATER V6.00                                                      05/27/2020  21:46:29  PAGE 30


  -------         ENDDO         
  C:1453H         LINE#         43
  C:1455H         LINE#         45
  C:1455H         LINE#         48
  C:1457H         LINE#         49
  C:1457H         LINE#         50
  C:145AH         LINE#         51
  C:145EH         LINE#         52
  C:1465H         LINE#         53
  C:1467H         LINE#         54
  C:146AH         LINE#         55
  C:146CH         LINE#         56
  C:1470H         LINE#         57
  C:1473H         LINE#         58
  C:1475H         LINE#         59
  C:1479H         LINE#         60
  -------         ENDPROC       _SEND
  -------         PROC          _READ_REG
  D:0007H         SYMBOL        SpiAddress
  -------         DO            
  I:0087H         SYMBOL        rdata
  -------         ENDDO         
  C:1632H         LINE#         62
  C:1632H         LINE#         63
  C:1632H         LINE#         65
  C:1636H         LINE#         66
  C:1639H         LINE#         67
  C:163BH         LINE#         68
  C:163EH         LINE#         69
  C:1647H         LINE#         70
  C:1649H         LINE#         71
  C:1649H         LINE#         72
  -------         ENDPROC       _READ_REG
  -------         PROC          _WRITE_REG
  D:0006H         SYMBOL        SpiAddress
  D:0001H         SYMBOL        dat
  C:15E5H         LINE#         104
  C:15E9H         LINE#         105
  C:15E9H         LINE#         106
  C:15EDH         LINE#         107
  C:15F0H         LINE#         108
  C:15F2H         LINE#         109
  C:15F4H         LINE#         110
  C:15F9H         LINE#         111
  C:15FEH         LINE#         112
  C:1600H         LINE#         113
  -------         ENDPROC       _WRITE_REG
  -------         ENDMOD        SPI

  -------         MODULE        ?C?COPY
  C:0519H         PUBLIC        ?C?COPY
  -------         ENDMOD        ?C?COPY

  -------         MODULE        ?C?CLDPTR
  C:053FH         PUBLIC        ?C?CLDPTR
  -------         ENDMOD        ?C?CLDPTR

BL51 BANKED LINKER/LOCATER V6.00                                                      05/27/2020  21:46:29  PAGE 31


  -------         MODULE        ?C?CLDOPTR
  C:0558H         PUBLIC        ?C?CLDOPTR
  -------         ENDMOD        ?C?CLDOPTR

  -------         MODULE        ?C?CSTOPTR
  C:0585H         PUBLIC        ?C?CSTOPTR
  -------         ENDMOD        ?C?CSTOPTR

  -------         MODULE        ?C?SIDIV
  C:05A7H         PUBLIC        ?C?SIDIV
  -------         ENDMOD        ?C?SIDIV

  -------         MODULE        ?C?ULDIV
  C:0619H         PUBLIC        ?C?ULDIV
  -------         ENDMOD        ?C?ULDIV

  -------         MODULE        ?C?CCASE
  C:06ABH         PUBLIC        ?C?CCASE
  -------         ENDMOD        ?C?CCASE

  -------         MODULE        ?C?UIDIV
  C:06D1H         PUBLIC        ?C?UIDIV
  -------         ENDMOD        ?C?UIDIV

*** WARNING L16: UNCALLED SEGMENT, IGNORED FOR OVERLAY PROCESS
    SEGMENT: ?PR?_UART_SEND_STR?MAIN

*** WARNING L16: UNCALLED SEGMENT, IGNORED FOR OVERLAY PROCESS
    SEGMENT: ?PR?_UART_SEND?MAIN

*** WARNING L16: UNCALLED SEGMENT, IGNORED FOR OVERLAY PROCESS
    SEGMENT: ?PR?_LCD_MESG?MAIN

*** WARNING L16: UNCALLED SEGMENT, IGNORED FOR OVERLAY PROCESS
    SEGMENT: ?PR?KEYSCAN?KEYSCAN

*** WARNING L16: UNCALLED SEGMENT, IGNORED FOR OVERLAY PROCESS
    SEGMENT: ?PR?_DISPSTRAT?LCD1602

*** WARNING L16: UNCALLED SEGMENT, IGNORED FOR OVERLAY PROCESS
    SEGMENT: ?PR?_DISPDECSPACEAT?LCD1602

*** WARNING L16: UNCALLED SEGMENT, IGNORED FOR OVERLAY PROCESS
    SEGMENT: ?PR?_DISPDECSHIFTAT?LCD1602

*** WARNING L16: UNCALLED SEGMENT, IGNORED FOR OVERLAY PROCESS
    SEGMENT: ?PR?INITLCD?LCD1602

*** WARNING L16: UNCALLED SEGMENT, IGNORED FOR OVERLAY PROCESS
    SEGMENT: ?PR?MIF_HALT?MFRC500

*** WARNING L16: UNCALLED SEGMENT, IGNORED FOR OVERLAY PROCESS
    SEGMENT: ?PR?_LOAD_KEYE2_CPY?MFRC500

*** WARNING L16: UNCALLED SEGMENT, IGNORED FOR OVERLAY PROCESS
    SEGMENT: ?PR?SELECT_CARD?MFRC500

BL51 BANKED LINKER/LOCATER V6.00                                                      05/27/2020  21:46:29  PAGE 32


*** WARNING L16: UNCALLED SEGMENT, IGNORED FOR OVERLAY PROCESS
    SEGMENT: ?PR?_AUTHENTICATION?MFRC500

*** WARNING L16: UNCALLED SEGMENT, IGNORED FOR OVERLAY PROCESS
    SEGMENT: ?PR?_MIF_READ?MFRC500

*** WARNING L16: UNCALLED SEGMENT, IGNORED FOR OVERLAY PROCESS
    SEGMENT: ?PR?_MIF_WRITE?MFRC500

Program Size: data=148.3 xdata=0 code=5878
LINK/LOCATE RUN COMPLETE.  14 WARNING(S),  0 ERROR(S)
