:1005DC006368616E67652074696D65206F6B2100BF
:0505EC006765743A0090
:06061300010800011F00B8
:1005C30053890F438920758DFD758BFDD28EC29F94
:0905D300D29ED2AFD2ACD29C2220
:100003007C00AF03AE021201EB7C007D0A1201EB10
:04001300ED2430FFA9
:0C001700C2AC8F993099FDC299D2AC2286
:0604E4008B2B8A2C892DF0
:1004EA00E4FDFCAB2BAA2CA92D8D828C831201BEB4
:0D04FA00FF600A1200170DBD00010C80E626
:0105070022D1
:1004BC00AB07AA067C277D101200097C037DE8128D
:1004CC0000057D641200037D0A120003AE02AF0327
:0804DC0012000C7F0D02001755
:08060B00E4F5E7F5E5F5E62250
:10054B00AD07AC06C2AF75E78175E5018CE3EDF540
:10055B00E475E64675E6B90012060BD2AFAFE222A0
:10056B00AB07AA06C2AF75E78175E5028AE3EBF527
:10057B00E48DE275E64675E6B90012060BD2AF22A2
:10058B00AD07AC06C2AF75E78175E5038CE3EDF5FE
:0E059B00E475E64675E6B90012060BD2AF22F3
:0D05A90075F00A8475F00A84E5F02430FF37
:0D05B600D2A012052AD2A212052EC2A22246
:0D05F100C2A012052AD2A212052EC2A2221B
:10050800C2A1C2A07F381205F17F081205F17F064B
:100518001205F17F011205F17F0C1205F17F8002AF
:0205280005F1DB
:060491008B2E8A2F89303A
:10049700E4F531F532AB2EAA2FA9308532828531AA
:1004A700831201BEFF600D1205B60532E53270E515
:0404B700053180E1AA
:0104BB00221E
:08052A00C2A18F907F057E0045
:10053200EF4E6014E4FDFC0DBD00010CEDF44C70B7
:08054200F6EF1F70EB1E80E8CC
:01054A00228E
:03045D00FD7F80A0
:10046000C2A5C2A3D2A5E4FBC2A3AE07EE1392A419
:10047000EFC313FFD2A30BBB08EEE4FBC2A3AE0590
:10048000EE1392A4EDC313FDD2A30BBB08EEC2A5DD
:010490002249
:0D05FE00C2A5C2A3C2A47D807F8E0204604E
:1003E100E4FEC2A5C2A3D2A5FDC2A3AB07EB139243
:1003F100A4EFC313FFD2A30DBD08EEE4FD30A405A5
:10040100430680800353067FD2A3EEC313FEC2A32B
:100411000DBD08E9C2A5EEC4540FFFEE540FFEEF67
:0604210075F00AA42EFF95
:0104270022B2
:10042800E4FD7F8E120460E412045D7D407F821239
:1004380004607D107F841204607D157F861204603D
:100448007D057F881204607D207F8C1204607D808A
:050458007F8E0204602C
:10002600E4F529F52AD2B4D2B5D2B6D2B7D2A7D240
:10003600A61205C31205081205FE7F647E0012058E
:10004600327F801205F1052AE52A70020529C3943C
:1000560028E52994004008E4F529F52A120302E56B
:100066001F64016003020174E518642A706DFD7F48
:100076008E120460E516C454F0251724D012045DD0
:10008600E514C454F0251524D0FD7F82120460E5E2
:1000960012C454F0251324D0FD7F84120460E510A9
:1000A600C454F0251124D0FD7F86120460E50EC4E9
:1000B60054F0250F24D0FD7F88120460E50CC4544B
:1000C600F0250D24D0FD7F8C1204607D807F8E127A
:1000D60004607BFF7A0579DC1204E4E50D642A707E
:1000E60020E50CB43102C2A7E50CB43204C2A7C2A3
:1000F600A6E50CB43302C2A6E50CB43404D2A7D2EA
:10010600A6E50C6440704A7FC01205F1E4F527F5B8
:10011600287F201205B60528E52870020527C39416
:100126000FE527940040EA7FC01205F17527007598
:100136002802740B2528F8E6FF642A60141205B617
:100146000528E52870020527C39414E52794004086
:10015600E1E4F527F528740B2528F8E4F60528E5EB
:1001660028700205276414452770EBE4F51F20B4B8
:100176000C7F147E0012053220B402C2A720B50EF1
:100186007F147E0012053220B504C2A7C2A620B68F
:100196000C7F147E0012053220B602C2A620B70ECE
:1001A6007F147E0012053220B704D2A7D2A67F0A9A
:0801B6007E0012053202004C2C
:0300230002038055
:10038000C0E0C083C082C0D075D000C000C001C032
:0903900002C003C004C005C0074F
:1003990030982EC298AF99BF2303750800740B25B6
:1003A90008F8A6070508BF2A18750800751F017BFC
:1003B900FF7A0579EC1204E47B007A00790B1204C8
:0103C900E44F
:1003CA00D007D005D004D003D002D001D000D0D0BD
:0703DA00D082D083D0E03295
:100302007F811203E18F207F831203E18F237F8598
:100312001203E18F227F871203E18F217F8912036B
:10032200E18F097F8D1203E18F0A7F801205F1E5CB
:10033200091205A9E5091205AD7F2D1205B6E521C1
:100342001205A9E5211205AD7F201205B6E522129C
:1003520005A9E5221205AD7F3A1205B6E52312057D
:10036200A9E5231205AD7F3A1205B6E5201205A9CB
:0E037200E52075F00A84E5F02430FF0205B6A0
:0300000002027683
:0C027600787FE4F6D8FD7581320202BDED
:1001BE00BB010CE58229F582E5833AF583E02250F6
:1001CE0006E92582F8E622BBFE06E92582F8E22240
:0D01DE00E58229F582E5833AF583E493225A
:1001EB00C2D5EC30E709B2D5E4C39DFDE49CFCEE2F
:1001FB0030E715B2D5E4C39FFFE49EFE120221C384
:10020B00E49DFDE49CFC800312022130D507C3E47E
:06021B009FFFE49EFE229D
:10028200020026E493A3F8E493A34003F68001F26C
:1002920008DFF48029E493A3F85407240CC8C3337D
:1002A200C4540F4420C8834004F456800146F6DF4C
:1002B200E4800B0102040810204080900613E47EC3
:1002C200019360BCA3FF543F30E509541FFEE49341
:1002D200A360010ECF54C025E060A840B8E493A308
:1002E200FAE493A3F8E493A3C8C582C8CAC583CA33
:1002F200F0A3C8C582C8CAC583CADFE9DEE780BEEB
:0106190000E0
:10022100BC000BBE0029EF8DF084FFADF022E4CCC1
:10023100F875F008EF2FFFEE33FEEC33FCEE9DEC8A
:10024100984005FCEE9DFE0FD5F0E9E4CEFD22EDD0
:10025100F8F5F0EE8420D21CFEADF075F008EF2F1A
:10026100FFED33FD4007985006D5F0F222C398FD0B
:050271000FD5F0EA22A8
:00000001FF
