BL51 BANKED LINKER/LOCATER V6.00                                                        05/16/2020  12:05:32  PAGE 1


BL51 BANKED LINKER/LOCATER V6.00, INVOKED BY:
E:\KEIL\C51\BIN\BL51.EXE Text1.obj TO 1 RAMSIZE (256)


MEMORY MODEL: SMALL


INPUT MODULES INCLUDED:
  Text1.obj (TEXT1)
  E:\KEIL\C51\LIB\C51S.LIB (?C_STARTUP)
  E:\KEIL\C51\LIB\C51S.LIB (?C?CLDOPTR)
  E:\KEIL\C51\LIB\C51S.LIB (?C?SIDIV)
  E:\KEIL\C51\LIB\C51S.LIB (?C_INIT)
  E:\KEIL\C51\LIB\C51S.LIB (?C?UIDIV)


LINK MAP OF MODULE:  1 (TEXT1)


            TYPE    BASE      LENGTH    RELOCATION   SEGMENT NAME
            -----------------------------------------------------

            * * * * * * *   D A T A   M E M O R Y   * * * * * * *
            REG     0000H     0008H     ABSOLUTE     "REG BANK 0"
            DATA    0008H     001CH     UNIT         ?DT?TEXT1
            DATA    0024H     000AH     UNIT         _DATA_GROUP_
            DATA    002EH     0005H     UNIT         ?DT?_PRINT_STRING?TEXT1
            IDATA   0033H     0001H     UNIT         ?STACK

            * * * * * * *   C O D E   M E M O R Y   * * * * * * *
            CODE    0000H     0003H     ABSOLUTE     
            CODE    0003H     0020H     UNIT         ?PR?_UART_SEND_CHAR?TEXT1
            CODE    0023H     0003H     ABSOLUTE     
            CODE    0026H     0198H     UNIT         ?PR?MAIN?TEXT1
            CODE    01BEH     00B8H     UNIT         ?C?LIB_CODE
            CODE    0276H     008CH     UNIT         ?C_C51STARTUP
            CODE    0302H     007EH     UNIT         ?PR?GET_SHOWLCD?TEXT1
            CODE    0380H     0061H     UNIT         ?PR?RX_INT?TEXT1
            CODE    03E1H     0047H     UNIT         ?PR?_DS1302_READ?TEXT1
            CODE    0428H     0035H     UNIT         ?PR?DS1302_RESET?TEXT1
            CODE    045DH     0034H     UNIT         ?PR?_DS1302_WRITE?TEXT1
            CODE    0491H     002BH     UNIT         ?PR?_PRINT_STRING?TEXT1
            CODE    04BCH     0028H     UNIT         ?PR?_UART_SEND?TEXT1
            CODE    04E4H     0024H     UNIT         ?PR?_UART_SEND_STR?TEXT1
            CODE    0508H     0022H     UNIT         ?PR?LCD_INIT?TEXT1
            CODE    052AH     0021H     UNIT         ?PR?_DELAY_MS?TEXT1
            CODE    054BH     0020H     UNIT         ?PR?_EEPROM_READ?TEXT1
            CODE    056BH     0020H     UNIT         ?PR?_EEPROM_WRITE?TEXT1
            CODE    058BH     001EH     UNIT         ?PR?_SECTOR_ERASE?TEXT1
            CODE    05A9H     001AH     UNIT         ?PR?_WRITE_DATA?TEXT1
            CODE    05C3H     0019H     UNIT         ?PR?UART_INIT?TEXT1
            CODE    05DCH     0015H     UNIT         ?CO?TEXT1
            CODE    05F1H     000DH     UNIT         ?PR?_WRITE_COM?TEXT1
            CODE    05FEH     000DH     UNIT         ?PR?DS1302_INIT?TEXT1
            CODE    060BH     0008H     UNIT         ?PR?ISP_IAP_DISABLE?TEXT1
            CODE    0613H     0007H     UNIT         ?C_INITSEG


BL51 BANKED LINKER/LOCATER V6.00                                                      05/16/2020  12:05:32  PAGE 2



OVERLAY MAP OF MODULE:   1 (TEXT1)


SEGMENT                             DATA_GROUP 
  +--> CALLED SEGMENT             START    LENGTH
-------------------------------------------------
?PR?RX_INT?TEXT1                  -----    -----
  +--> ?CO?TEXT1
  +--> ?PR?_UART_SEND_STR?TEXT1

?PR?_UART_SEND_STR?TEXT1          002BH    0003H
  +--> ?PR?_UART_SEND_CHAR?TEXT1

*** NEW ROOT ***************************************************

?C_C51STARTUP                     -----    -----
  +--> ?PR?MAIN?TEXT1
  +--> ?C_INITSEG

?PR?MAIN?TEXT1                    0027H    0004H
  +--> ?PR?UART_INIT?TEXT1
  +--> ?PR?LCD_INIT?TEXT1
  +--> ?PR?DS1302_INIT?TEXT1
  +--> ?PR?_DELAY_MS?TEXT1
  +--> ?PR?_WRITE_COM?TEXT1
  +--> ?PR?GET_SHOWLCD?TEXT1
  +--> ?PR?_DS1302_WRITE?TEXT1
  +--> ?CO?TEXT1
  +--> ?PR?_UART_SEND_STR?TEXT1
  +--> ?PR?_WRITE_DATA?TEXT1

?PR?LCD_INIT?TEXT1                -----    -----
  +--> ?PR?_WRITE_COM?TEXT1

?PR?_WRITE_COM?TEXT1              -----    -----
  +--> ?PR?_DELAY_MS?TEXT1

?PR?DS1302_INIT?TEXT1             -----    -----
  +--> ?PR?_DS1302_WRITE?TEXT1

?PR?GET_SHOWLCD?TEXT1             -----    -----
  +--> ?PR?_DS1302_READ?TEXT1
  +--> ?PR?_WRITE_COM?TEXT1
  +--> ?PR?_WRITE_DATA?TEXT1

?PR?_WRITE_DATA?TEXT1             -----    -----
  +--> ?PR?_DELAY_MS?TEXT1



SYMBOL TABLE OF MODULE:  1 (TEXT1)

  VALUE           TYPE          NAME
  ----------------------------------

  -------         MODULE        TEXT1
BL51 BANKED LINKER/LOCATER V6.00                                                      05/16/2020  12:05:32  PAGE 3


  C:0000H         SYMBOL        _ICE_DUMMY_
  D:0090H         PUBLIC        P1
  D:00A0H         PUBLIC        P2
  D:00B0H         PUBLIC        P3
  D:00E6H         PUBLIC        ISP_TRIG
  B:00A8H.7       PUBLIC        EA
  C:05B6H         PUBLIC        _write_data
  C:0491H         PUBLIC        _print_string
  C:0460H         PUBLIC        _ds1302_write
  B:00A0H.2       PUBLIC        EN
  B:00A8H.4       PUBLIC        ES
  B:00B0H.5       PUBLIC        key1_off
  B:00B0H.7       PUBLIC        key2_off
  C:0302H         PUBLIC        get_showlcd
  B:0098H.0       PUBLIC        RI
  B:0098H.1       PUBLIC        TI
  D:0008H         PUBLIC        RXD_num
  D:00E5H         PUBLIC        ISP_CMD
  B:00A0H.0       PUBLIC        RS
  C:0428H         PUBLIC        ds1302_reset
  C:0026H         PUBLIC        main
  D:0009H         PUBLIC        month
  C:04BCH         PUBLIC        _uart_send
  C:0017H         PUBLIC        _uart_send_char
  C:05F1H         PUBLIC        _write_com
  D:0099H         PUBLIC        SBUF
  D:00E3H         PUBLIC        ISP_ADDRH
  D:000AH         PUBLIC        year
  C:0532H         PUBLIC        _delay_ms
  D:0089H         PUBLIC        TMOD
  C:05FEH         PUBLIC        ds1302_init
  D:00E4H         PUBLIC        ISP_ADDRL
  B:00B0H.4       PUBLIC        key1_on
  D:000BH         PUBLIC        uart_data
  D:001FH         PUBLIC        uart_flag
  B:00B0H.6       PUBLIC        key2_on
  D:0020H         PUBLIC        sec
  D:0021H         PUBLIC        day
  D:0022H         PUBLIC        hour
  D:0023H         PUBLIC        min
  C:058BH         PUBLIC        _Sector_erase
  C:0508H         PUBLIC        lcd_init
  D:008DH         PUBLIC        TH1
  B:0098H.7       PUBLIC        SM0
  B:00A0H.7       PUBLIC        relay1
  B:0098H.6       PUBLIC        SM1
  D:008BH         PUBLIC        TL1
  B:00A0H.6       PUBLIC        relay2
  B:00A0H.4       PUBLIC        DAT_IO
  B:00A0H.3       PUBLIC        CLK_IO
  D:00E7H         PUBLIC        ISP_CONTR
  C:05C3H         PUBLIC        uart_init
  C:0380H         PUBLIC        RX_int
  B:0088H.6       PUBLIC        TR1
  C:060BH         PUBLIC        ISP_IAP_disable
  B:00A0H.5       PUBLIC        CE_RST
  B:0098H.4       PUBLIC        REN
BL51 BANKED LINKER/LOCATER V6.00                                                      05/16/2020  12:05:32  PAGE 4


  C:04E4H         PUBLIC        _uart_send_str
  D:00E2H         PUBLIC        ISP_DATA
  C:054BH         PUBLIC        _eeprom_read
  C:056BH         PUBLIC        _eeprom_write
  C:03E1H         PUBLIC        _ds1302_read
  B:00A0H.1       PUBLIC        LCDRW
  -------         PROC          UART_INIT
  C:05C3H         LINE#         18
  C:05C3H         LINE#         19
  C:05C3H         LINE#         20
  C:05C6H         LINE#         21
  C:05C9H         LINE#         22
  C:05CCH         LINE#         23
  C:05CFH         LINE#         24
  C:05D1H         LINE#         26
  C:05D3H         LINE#         27
  C:05D5H         LINE#         28
  C:05D7H         LINE#         29
  C:05D9H         LINE#         30
  C:05DBH         LINE#         31
  -------         ENDPROC       UART_INIT
  C:0005H         SYMBOL        L?0093
  C:0009H         SYMBOL        L?0094
  C:000CH         SYMBOL        L?0095
  -------         PROC          L?0092
  -------         ENDPROC       L?0092
  C:0005H         SYMBOL        L?0093
  C:0009H         SYMBOL        L?0094
  C:000CH         SYMBOL        L?0095
  -------         PROC          _UART_SEND_CHAR
  D:0007H         SYMBOL        i
  C:0017H         LINE#         32
  C:0017H         LINE#         33
  C:0017H         LINE#         34
  C:0019H         LINE#         35
  C:001BH         LINE#         36
  C:001EH         LINE#         37
  C:0020H         LINE#         38
  C:0022H         LINE#         39
  -------         ENDPROC       _UART_SEND_CHAR
  -------         PROC          _UART_SEND_STR
  D:002BH         SYMBOL        zifu
  -------         DO            
  D:0004H         SYMBOL        i
  -------         ENDDO         
  C:04E4H         LINE#         40
  C:04EAH         LINE#         41
  C:04EAH         LINE#         42
  C:04EDH         LINE#         43
  C:04FDH         LINE#         44
  C:04FDH         LINE#         45
  C:0500H         LINE#         46
  C:0505H         LINE#         47
  C:0507H         LINE#         48
  -------         ENDPROC       _UART_SEND_STR
  -------         PROC          _UART_SEND
  D:0002H         SYMBOL        num
BL51 BANKED LINKER/LOCATER V6.00                                                      05/16/2020  12:05:32  PAGE 5


  C:04BCH         LINE#         49
  C:04C0H         LINE#         50
  C:04C0H         LINE#         51
  C:04C7H         LINE#         52
  C:04CEH         LINE#         53
  C:04D3H         LINE#         54
  C:04D8H         LINE#         55
  C:04DFH         LINE#         56
  -------         ENDPROC       _UART_SEND
  -------         PROC          ISP_IAP_DISABLE
  C:060BH         LINE#         20
  C:060BH         LINE#         21
  C:060BH         LINE#         22
  C:060EH         LINE#         23
  C:0610H         LINE#         24
  C:0612H         LINE#         25
  -------         ENDPROC       ISP_IAP_DISABLE
  -------         PROC          _EEPROM_READ
  D:0004H         SYMBOL        byte_addr
  C:054BH         LINE#         27
  C:054FH         LINE#         28
  C:054FH         LINE#         29
  C:0551H         LINE#         30
  C:0554H         LINE#         31
  C:0557H         LINE#         32
  C:0559H         LINE#         33
  C:055CH         LINE#         34
  C:055FH         LINE#         35
  C:0562H         LINE#         36
  C:0563H         LINE#         37
  C:0566H         LINE#         38
  C:0568H         LINE#         39
  C:056AH         LINE#         40
  -------         ENDPROC       _EEPROM_READ
  -------         PROC          _EEPROM_WRITE
  D:0002H         SYMBOL        byte_addr
  D:0005H         SYMBOL        isp_iap_data
  C:056BH         LINE#         42
  C:056FH         LINE#         43
  C:056FH         LINE#         44
  C:0571H         LINE#         45
  C:0574H         LINE#         46
  C:0577H         LINE#         47
  C:0579H         LINE#         48
  C:057CH         LINE#         49
  C:057EH         LINE#         50
  C:0581H         LINE#         51
  C:0584H         LINE#         52
  C:0585H         LINE#         53
  C:0588H         LINE#         54
  C:058AH         LINE#         55
  -------         ENDPROC       _EEPROM_WRITE
  -------         PROC          _SECTOR_ERASE
  D:0004H         SYMBOL        sector_addr
  C:058BH         LINE#         58
  C:058FH         LINE#         59
  C:058FH         LINE#         60
BL51 BANKED LINKER/LOCATER V6.00                                                      05/16/2020  12:05:32  PAGE 6


  C:0591H         LINE#         61
  C:0594H         LINE#         62
  C:0597H         LINE#         63
  C:0599H         LINE#         64
  C:059CH         LINE#         65
  C:059FH         LINE#         66
  C:05A2H         LINE#         67
  C:05A3H         LINE#         68
  C:05A6H         LINE#         69
  C:05A8H         LINE#         70
  -------         ENDPROC       _SECTOR_ERASE
  C:05A9H         SYMBOL        L?0090
  C:05ADH         SYMBOL        L?0091
  -------         PROC          L?0089
  -------         ENDPROC       L?0089
  C:05A9H         SYMBOL        L?0090
  C:05ADH         SYMBOL        L?0091
  -------         PROC          _WRITE_DATA
  D:0007H         SYMBOL        dat
  C:05B6H         LINE#         22
  C:05B6H         LINE#         23
  C:05B8H         LINE#         24
  C:05B8H         LINE#         25
  C:05B8H         LINE#         26
  C:05BBH         LINE#         27
  C:05BDH         LINE#         28
  C:05C0H         LINE#         29
  C:05C2H         LINE#         30
  -------         ENDPROC       _WRITE_DATA
  -------         PROC          _WRITE_COM
  D:0007H         SYMBOL        com
  C:05F1H         LINE#         34
  C:05F1H         LINE#         35
  C:05F3H         LINE#         36
  C:05F3H         LINE#         37
  C:05F3H         LINE#         38
  C:05F6H         LINE#         39
  C:05F8H         LINE#         40
  C:05FBH         LINE#         41
  C:05FDH         LINE#         42
  -------         ENDPROC       _WRITE_COM
  -------         PROC          LCD_INIT
  C:0508H         LINE#         46
  C:0508H         LINE#         47
  C:050AH         LINE#         48
  C:050CH         LINE#         51
  C:0511H         LINE#         52
  C:0516H         LINE#         53
  C:051BH         LINE#         54
  C:0520H         LINE#         55
  C:0525H         LINE#         56
  -------         ENDPROC       LCD_INIT
  -------         PROC          _PRINT_STRING
  D:002EH         SYMBOL        str
  -------         DO            
  D:0031H         SYMBOL        i
  -------         ENDDO         
BL51 BANKED LINKER/LOCATER V6.00                                                      05/16/2020  12:05:32  PAGE 7


  C:0491H         LINE#         58
  C:0497H         LINE#         60
  C:04AEH         LINE#         61
  C:04AEH         LINE#         63
  C:04B1H         LINE#         64
  C:04BBH         LINE#         65
  -------         ENDPROC       _PRINT_STRING
  C:052EH         SYMBOL        L?0098
  -------         PROC          L?0097
  -------         ENDPROC       L?0097
  C:052EH         SYMBOL        L?0098
  -------         PROC          _DELAY_MS
  D:0006H         SYMBOL        t
  -------         DO            
  D:0004H         SYMBOL        j
  -------         ENDDO         
  C:0532H         LINE#         69
  C:0532H         LINE#         71
  C:0536H         LINE#         72
  C:054AH         LINE#         74
  -------         ENDPROC       _DELAY_MS
  -------         PROC          L?0096
  -------         ENDPROC       L?0096
  -------         PROC          _DS1302_WRITE
  D:0007H         SYMBOL        address
  D:0005H         SYMBOL        data0
  -------         DO            
  D:0003H         SYMBOL        i
  D:0006H         SYMBOL        temp
  -------         ENDDO         
  C:0460H         LINE#         29
  C:0460H         LINE#         30
  C:0460H         LINE#         32
  C:0462H         LINE#         33
  C:0464H         LINE#         34
  C:0466H         LINE#         37
  C:0468H         LINE#         38
  C:0468H         LINE#         39
  C:046AH         LINE#         40
  C:046CH         LINE#         41
  C:0470H         LINE#         43
  C:0474H         LINE#         44
  C:0476H         LINE#         45
  C:047AH         LINE#         48
  C:047CH         LINE#         49
  C:047CH         LINE#         50
  C:047EH         LINE#         51
  C:0480H         LINE#         52
  C:0484H         LINE#         53
  C:0488H         LINE#         54
  C:048AH         LINE#         55
  C:048EH         LINE#         56
  C:0490H         LINE#         57
  -------         ENDPROC       _DS1302_WRITE
  -------         PROC          DS1302_INIT
  C:05FEH         LINE#         58
  C:05FEH         LINE#         59
BL51 BANKED LINKER/LOCATER V6.00                                                      05/16/2020  12:05:32  PAGE 8


  C:05FEH         LINE#         60
  C:0600H         LINE#         61
  C:0602H         LINE#         62
  C:0604H         LINE#         66
  -------         ENDPROC       DS1302_INIT
  -------         PROC          _DS1302_READ
  D:0007H         SYMBOL        address
  -------         DO            
  D:0005H         SYMBOL        i
  D:0003H         SYMBOL        temp
  D:0006H         SYMBOL        data0
  D:0006H         SYMBOL        dat1
  D:0007H         SYMBOL        dat2
  -------         ENDDO         
  C:03E1H         LINE#         71
  C:03E1H         LINE#         72
  C:03E1H         LINE#         75
  C:03E3H         LINE#         76
  C:03E5H         LINE#         77
  C:03E7H         LINE#         78
  C:03E9H         LINE#         81
  C:03EAH         LINE#         82
  C:03EAH         LINE#         83
  C:03ECH         LINE#         84
  C:03EEH         LINE#         85
  C:03F2H         LINE#         86
  C:03F6H         LINE#         87
  C:03F8H         LINE#         88
  C:03FCH         LINE#         91
  C:03FEH         LINE#         92
  C:03FEH         LINE#         94
  C:0406H         LINE#         95
  C:0409H         LINE#         96
  C:040BH         LINE#         97
  C:040FH         LINE#         98
  C:0411H         LINE#         99
  C:0415H         LINE#         101
  C:0417H         LINE#         103
  C:041CH         LINE#         104
  C:0420H         LINE#         105
  C:0426H         LINE#         106
  C:0427H         LINE#         107
  -------         ENDPROC       _DS1302_READ
  -------         PROC          DS1302_RESET
  C:0428H         LINE#         109
  C:0428H         LINE#         110
  C:0428H         LINE#         111
  C:042FH         LINE#         112
  C:0433H         LINE#         113
  C:043AH         LINE#         114
  C:0441H         LINE#         115
  C:0448H         LINE#         116
  C:044FH         LINE#         117
  C:0456H         LINE#         118
  -------         ENDPROC       DS1302_RESET
  -------         PROC          MAIN
  -------         DO            
BL51 BANKED LINKER/LOCATER V6.00                                                      05/16/2020  12:05:32  PAGE 9


  D:0027H         SYMBOL        i
  D:0029H         SYMBOL        tuntimes
  -------         ENDDO         
  C:0026H         LINE#         27
  C:0026H         LINE#         28
  C:0026H         LINE#         30
  C:002BH         LINE#         32
  C:002DH         LINE#         33
  C:002FH         LINE#         34
  C:0031H         LINE#         35
  C:0033H         LINE#         36
  C:0035H         LINE#         37
  C:0037H         LINE#         39
  C:003AH         LINE#         40
  C:003DH         LINE#         41
  C:0040H         LINE#         43
  C:0047H         LINE#         44
  C:004CH         LINE#         49
  C:004CH         LINE#         50
  C:004CH         LINE#         51
  C:0054H         LINE#         52
  C:005DH         LINE#         53
  C:0062H         LINE#         54
  C:0065H         LINE#         55
  C:0065H         LINE#         56
  C:006EH         LINE#         57
  C:0074H         LINE#         58
  C:007AH         LINE#         59
  C:0086H         LINE#         60
  C:0095H         LINE#         61
  C:00A4H         LINE#         62
  C:00B3H         LINE#         63
  C:00C2H         LINE#         64
  C:00D1H         LINE#         65
  C:00D8H         LINE#         66
  C:00E1H         LINE#         67
  C:00E1H         LINE#         68
  C:00E7H         LINE#         69
  C:00EEH         LINE#         70
  C:00F3H         LINE#         71
  C:00F5H         LINE#         72
  C:00F7H         LINE#         73
  C:00F7H         LINE#         74
  C:00FEH         LINE#         75
  C:0103H         LINE#         76
  C:0105H         LINE#         77
  C:0107H         LINE#         78
  C:0107H         LINE#         79
  C:0107H         LINE#         80
  C:010DH         LINE#         81
  C:0112H         LINE#         82
  C:012DH         LINE#         83
  C:0132H         LINE#         84
  C:0138H         LINE#         85
  C:0146H         LINE#         86
  C:0146H         LINE#         87
  C:0157H         LINE#         88
BL51 BANKED LINKER/LOCATER V6.00                                                      05/16/2020  12:05:32  PAGE 10


  C:0157H         LINE#         89
  C:0171H         LINE#         90
  C:0174H         LINE#         91
  C:0174H         LINE#         94
  C:0177H         LINE#         95
  C:017EH         LINE#         96
  C:0183H         LINE#         97
  C:0183H         LINE#         98
  C:0186H         LINE#         99
  C:018DH         LINE#         100
  C:0190H         LINE#         101
  C:0192H         LINE#         102
  C:0194H         LINE#         103
  C:0194H         LINE#         104
  C:0194H         LINE#         105
  C:0197H         LINE#         106
  C:019EH         LINE#         107
  C:01A3H         LINE#         108
  C:01A3H         LINE#         109
  C:01A6H         LINE#         110
  C:01ADH         LINE#         111
  C:01B0H         LINE#         112
  C:01B2H         LINE#         113
  C:01B4H         LINE#         114
  C:01B4H         LINE#         115
  C:01B4H         LINE#         118
  C:01BBH         LINE#         119
  -------         ENDPROC       MAIN
  -------         PROC          RX_INT
  -------         DO            
  D:0007H         SYMBOL        data1
  -------         ENDDO         
  C:0380H         LINE#         123
  C:0399H         LINE#         126
  C:039CH         LINE#         127
  C:039CH         LINE#         128
  C:039EH         LINE#         129
  C:03A0H         LINE#         130
  C:03A6H         LINE#         131
  C:03ADH         LINE#         132
  C:03AFH         LINE#         133
  C:03B2H         LINE#         134
  C:03B5H         LINE#         135
  C:03B8H         LINE#         136
  C:03C1H         LINE#         137
  C:03CAH         LINE#         138
  C:03CAH         LINE#         139
  C:03CAH         LINE#         140
  -------         ENDPROC       RX_INT
  -------         PROC          GET_SHOWLCD
  C:0302H         LINE#         141
  C:0302H         LINE#         142
  C:0309H         LINE#         143
  C:0310H         LINE#         144
  C:0317H         LINE#         145
  C:031EH         LINE#         146
  C:0325H         LINE#         147
BL51 BANKED LINKER/LOCATER V6.00                                                      05/16/2020  12:05:32  PAGE 11


  C:032CH         LINE#         149
  C:0331H         LINE#         150
  C:0336H         LINE#         151
  C:033BH         LINE#         152
  C:0340H         LINE#         153
  C:0345H         LINE#         154
  C:034AH         LINE#         155
  C:034FH         LINE#         156
  C:0354H         LINE#         157
  C:0359H         LINE#         158
  C:035EH         LINE#         159
  C:0363H         LINE#         160
  C:0368H         LINE#         161
  C:036DH         LINE#         162
  C:0372H         LINE#         163
  -------         ENDPROC       GET_SHOWLCD
  -------         ENDMOD        TEXT1

  -------         MODULE        ?C?CLDOPTR
  C:01BEH         PUBLIC        ?C?CLDOPTR
  -------         ENDMOD        ?C?CLDOPTR

  -------         MODULE        ?C?SIDIV
  C:01EBH         PUBLIC        ?C?SIDIV
  -------         ENDMOD        ?C?SIDIV

  -------         MODULE        ?C?UIDIV
  C:0221H         PUBLIC        ?C?UIDIV
  -------         ENDMOD        ?C?UIDIV

*** WARNING L16: UNCALLED SEGMENT, IGNORED FOR OVERLAY PROCESS
    SEGMENT: ?PR?_UART_SEND?TEXT1

*** WARNING L16: UNCALLED SEGMENT, IGNORED FOR OVERLAY PROCESS
    SEGMENT: ?PR?_EEPROM_READ?TEXT1

*** WARNING L16: UNCALLED SEGMENT, IGNORED FOR OVERLAY PROCESS
    SEGMENT: ?PR?_EEPROM_WRITE?TEXT1

*** WARNING L16: UNCALLED SEGMENT, IGNORED FOR OVERLAY PROCESS
    SEGMENT: ?PR?_SECTOR_ERASE?TEXT1

*** WARNING L16: UNCALLED SEGMENT, IGNORED FOR OVERLAY PROCESS
    SEGMENT: ?PR?_PRINT_STRING?TEXT1

*** WARNING L16: UNCALLED SEGMENT, IGNORED FOR OVERLAY PROCESS
    SEGMENT: ?PR?DS1302_RESET?TEXT1

*** WARNING L15: MULTIPLE CALL TO SEGMENT
    SEGMENT: ?PR?_UART_SEND_STR?TEXT1
    CALLER1: ?PR?RX_INT?TEXT1
    CALLER2: ?C_C51STARTUP

Program Size: data=52.0 xdata=0 code=1562
LINK/LOCATE RUN COMPLETE.  7 WARNING(S),  0 ERROR(S)
